{
  "abi": [
    {
      "inputs": [
        {
          "internalType": "address",
          "name": "untrackedDebtPosition",
          "type": "address"
        }
      ],
      "name": "AaveDebtTokenAdaptor__DebtPositionsMustBeTracked",
      "type": "error"
    },
    {
      "inputs": [],
      "name": "AaveDebtTokenAdaptor__HealthFactorTooLow",
      "type": "error"
    },
    {
      "inputs": [],
      "name": "BaseAdaptor__ExternalReceiverBlocked",
      "type": "error"
    },
    {
      "inputs": [
        {
          "internalType": "address",
          "name": "asset",
          "type": "address"
        }
      ],
      "name": "BaseAdaptor__PricingNotSupported",
      "type": "error"
    },
    {
      "inputs": [],
      "name": "BaseAdaptor__Slippage",
      "type": "error"
    },
    {
      "inputs": [],
      "name": "BaseAdaptor__UserDepositsNotAllowed",
      "type": "error"
    },
    {
      "inputs": [],
      "name": "BaseAdaptor__UserWithdrawsNotAllowed",
      "type": "error"
    },
    {
      "inputs": [
        {
          "internalType": "bytes",
          "name": "adaptorData",
          "type": "bytes"
        }
      ],
      "name": "assetOf",
      "outputs": [
        {
          "internalType": "contract ERC20",
          "name": "",
          "type": "address"
        }
      ],
      "stateMutability": "view",
      "type": "function"
    },
    {
      "inputs": [
        {
          "internalType": "bytes",
          "name": "adaptorData",
          "type": "bytes"
        }
      ],
      "name": "assetsUsed",
      "outputs": [
        {
          "internalType": "contract ERC20[]",
          "name": "assets",
          "type": "address[]"
        }
      ],
      "stateMutability": "view",
      "type": "function"
    },
    {
      "inputs": [
        {
          "internalType": "bytes",
          "name": "adaptorData",
          "type": "bytes"
        }
      ],
      "name": "balanceOf",
      "outputs": [
        {
          "internalType": "uint256",
          "name": "",
          "type": "uint256"
        }
      ],
      "stateMutability": "view",
      "type": "function"
    },
    {
      "inputs": [
        {
          "internalType": "contract ERC20",
          "name": "debtTokenToBorrow",
          "type": "address"
        },
        {
          "internalType": "uint256",
          "name": "amountToBorrow",
          "type": "uint256"
        }
      ],
      "name": "borrowFromAave",
      "outputs": [],
      "stateMutability": "nonpayable",
      "type": "function"
    },
    {
      "inputs": [
        {
          "internalType": "uint256",
          "name": "",
          "type": "uint256"
        },
        {
          "internalType": "bytes",
          "name": "",
          "type": "bytes"
        },
        {
          "internalType": "bytes",
          "name": "",
          "type": "bytes"
        }
      ],
      "name": "deposit",
      "outputs": [],
      "stateMutability": "pure",
      "type": "function"
    },
    {
      "inputs": [
        {
          "internalType": "address[]",
          "name": "loanToken",
          "type": "address[]"
        },
        {
          "internalType": "uint256[]",
          "name": "loanAmount",
          "type": "uint256[]"
        },
        {
          "internalType": "bytes",
          "name": "params",
          "type": "bytes"
        }
      ],
      "name": "flashLoan",
      "outputs": [],
      "stateMutability": "nonpayable",
      "type": "function"
    },
    {
      "inputs": [],
      "name": "identifier",
      "outputs": [
        {
          "internalType": "bytes32",
          "name": "",
          "type": "bytes32"
        }
      ],
      "stateMutability": "pure",
      "type": "function"
    },
    {
      "inputs": [],
      "name": "isDebt",
      "outputs": [
        {
          "internalType": "bool",
          "name": "",
          "type": "bool"
        }
      ],
      "stateMutability": "pure",
      "type": "function"
    },
    {
      "inputs": [
        {
          "internalType": "contract ERC20",
          "name": "tokenToRepay",
          "type": "address"
        },
        {
          "internalType": "uint256",
          "name": "amountToRepay",
          "type": "uint256"
        }
      ],
      "name": "repayAaveDebt",
      "outputs": [],
      "stateMutability": "nonpayable",
      "type": "function"
    },
    {
      "inputs": [
        {
          "internalType": "contract ERC20",
          "name": "asset",
          "type": "address"
        },
        {
          "internalType": "address",
          "name": "spender",
          "type": "address"
        }
      ],
      "name": "revokeApproval",
      "outputs": [],
      "stateMutability": "nonpayable",
      "type": "function"
    },
    {
      "inputs": [],
      "name": "slippage",
      "outputs": [
        {
          "internalType": "uint32",
          "name": "",
          "type": "uint32"
        }
      ],
      "stateMutability": "pure",
      "type": "function"
    },
    {
      "inputs": [
        {
          "internalType": "uint256",
          "name": "",
          "type": "uint256"
        },
        {
          "internalType": "address",
          "name": "",
          "type": "address"
        },
        {
          "internalType": "bytes",
          "name": "",
          "type": "bytes"
        },
        {
          "internalType": "bytes",
          "name": "",
          "type": "bytes"
        }
      ],
      "name": "withdraw",
      "outputs": [],
      "stateMutability": "pure",
      "type": "function"
    },
    {
      "inputs": [
        {
          "internalType": "bytes",
          "name": "",
          "type": "bytes"
        },
        {
          "internalType": "bytes",
          "name": "",
          "type": "bytes"
        }
      ],
      "name": "withdrawableFrom",
      "outputs": [
        {
          "internalType": "uint256",
          "name": "",
          "type": "uint256"
        }
      ],
      "stateMutability": "pure",
      "type": "function"
    }
  ],
  "bytecode": {
    "object": "0x608060405234801561001057600080fd5b5061114d806100206000396000f3fe608060405234801561001057600080fd5b50600436106100cf5760003560e01c80639a85e1d31161008c578063d3bfe76a11610066578063d3bfe76a1461018f578063d70c1539146101a2578063e170a9bf146101b5578063fa50e5d2146101e057600080fd5b80639a85e1d314610149578063aeffddde1461015c578063c9111bd71461017c57600080fd5b80633e032a3b146100d457806369445c31146100e957806378415365146100fe578063788fb4841461011f5780637998a1c41461013257806389353a091461013a575b600080fd5b60405161232881526020015b60405180910390f35b6100fc6100f7366004610b32565b6101f6565b005b61011161010c366004610b9f565b61020f565b6040519081526020016100e0565b6100fc61012d366004610c83565b610298565b6101116103ac565b604051600181526020016100e0565b6100fc610157366004610d3c565b61040a565b61016f61016a366004610b9f565b610781565b6040516100e09190610d68565b6100fc61018a366004610db5565b6107e4565b6100fc61019d366004610e35565b6107fd565b6100fc6101b0366004610d3c565b610816565b6101c86101c3366004610b9f565b6108f4565b6040516001600160a01b0390911681526020016100e0565b6101116101ee366004610e6e565b600092915050565b604051633204ed5b60e21b815260040160405180910390fd5b600080828060200190518101906102269190610ed2565b6040516370a0823160e01b81523360048201529091506001600160a01b038216906370a0823190602401602060405180830381865afa15801561026d573d6000803e3d6000fd5b505050506040513d601f19601f820116820180604052508101906102919190610eef565b9392505050565b81518351146102e75760405162461bcd60e51b815260206004820152601660248201527524b7383aba103632b733ba341036b4b9b6b0ba31b41760511b60448201526064015b60405180910390fd5b6000835167ffffffffffffffff81111561030357610303610a7b565b60405190808252806020026020018201604052801561032c578160200160208202803683370190505b5060405163ab9c4b5d60e01b8152909150737d2768de32b0b80b7a3454c06bdac94a69ddc7a99063ab9c4b5d9061037490309088908890879084908a90600090600401610f89565b600060405180830381600087803b15801561038e57600080fd5b505af11580156103a2573d6000803e3d6000fd5b5050505050505050565b60006040516020016103ef906020808252601c908201527f416176652064656274546f6b656e2041646170746f72205620312e3000000000604082015260600190565b60405160208183030381529060405280519060200120905090565b60006104146103ac565b604080516001600160a01b03861660208201526001910160408051601f198184030181529082905261044a939291602001611045565b6040516020818303038152906040528051906020012090506000306001600160a01b0316637b1039996040518163ffffffff1660e01b8152600401602060405180830381865afa1580156104a2573d6000803e3d6000fd5b505050506040513d601f19601f820116820180604052508101906104c69190610ed2565b6001600160a01b03166309f7abd2836040518263ffffffff1660e01b81526004016104f391815260200190565b602060405180830381865afa158015610510573d6000803e3d6000fd5b505050506040513d601f19601f82011682018060405250810190610534919061106f565b60405163024eefab60e61b815263ffffffff8216600482015290915030906393bbeac090602401602060405180830381865afa158015610578573d6000803e3d6000fd5b505050506040513d601f19601f8201168201806040525081019061059c9190611095565b6105c457604051633ba3976160e11b81526001600160a01b03851660048201526024016102de565b737d2768de32b0b80b7a3454c06bdac94a69ddc7a96001600160a01b031663a415bcad856001600160a01b031663b16a19de6040518163ffffffff1660e01b8152600401602060405180830381865afa158015610625573d6000803e3d6000fd5b505050506040513d601f19601f820116820180604052508101906106499190610ed2565b6040516001600160e01b031960e084901b1681526001600160a01b03909116600482015260248101869052600260448201526000606482015230608482015260a401600060405180830381600087803b1580156106a557600080fd5b505af11580156106b9573d6000803e3d6000fd5b5050505060006106da737d2768de32b0b80b7a3454c06bdac94a69ddc7a990565b604051632fe4a15f60e21b81523060048201526001600160a01b03919091169063bf92857c9060240160c060405180830381865afa158015610720573d6000803e3d6000fd5b505050506040513d601f19601f8201168201806040525081019061074491906110b7565b9550505050505061075a6710a741a46278000090565b81101561077a576040516360f7f1fd60e11b815260040160405180910390fd5b5050505050565b604080516001808252818301909252606091602080830190803683370190505090506107ac826108f4565b816000815181106107bf576107bf611101565b60200260200101906001600160a01b031690816001600160a01b031681525050919050565b604051635f5003c560e11b815260040160405180910390fd5b6108126001600160a01b03831682600061096f565b5050565b61083e6001600160a01b038316737d2768de32b0b80b7a3454c06bdac94a69ddc7a98361096f565b737d2768de32b0b80b7a3454c06bdac94a69ddc7a960405163573ade8160e01b81526001600160a01b0384811660048301526024820184905260026044830152306064830152919091169063573ade81906084016020604051808303816000875af11580156108b1573d6000803e3d6000fd5b505050506040513d601f19601f820116820180604052508101906108d59190610eef565b5061081282737d2768de32b0b80b7a3454c06bdac94a69ddc7a96109ec565b6000808280602001905181019061090b9190610ed2565b9050806001600160a01b031663b16a19de6040518163ffffffff1660e01b8152600401602060405180830381865afa15801561094b573d6000803e3d6000fd5b505050506040513d601f19601f820116820180604052508101906102919190610ed2565b600060405163095ea7b360e01b8152836004820152826024820152602060006044836000895af13d15601f3d11600160005114161716915050806109e65760405162461bcd60e51b815260206004820152600e60248201526d1054141493d59157d1905253115160921b60448201526064016102de565b50505050565b604051636eb1769f60e11b81523060048201526001600160a01b0382811660248301526000919084169063dd62ed3e90604401602060405180830381865afa158015610a3c573d6000803e3d6000fd5b505050506040513d601f19601f82011682018060405250810190610a609190610eef565b1115610812576108126001600160a01b03831682600061096f565b634e487b7160e01b600052604160045260246000fd5b604051601f8201601f1916810167ffffffffffffffff81118282101715610aba57610aba610a7b565b604052919050565b600082601f830112610ad357600080fd5b813567ffffffffffffffff811115610aed57610aed610a7b565b610b00601f8201601f1916602001610a91565b818152846020838601011115610b1557600080fd5b816020850160208301376000918101602001919091529392505050565b600080600060608486031215610b4757600080fd5b83359250602084013567ffffffffffffffff80821115610b6657600080fd5b610b7287838801610ac2565b93506040860135915080821115610b8857600080fd5b50610b9586828701610ac2565b9150509250925092565b600060208284031215610bb157600080fd5b813567ffffffffffffffff811115610bc857600080fd5b610bd484828501610ac2565b949350505050565b600067ffffffffffffffff821115610bf657610bf6610a7b565b5060051b60200190565b6001600160a01b0381168114610c1557600080fd5b50565b600082601f830112610c2957600080fd5b81356020610c3e610c3983610bdc565b610a91565b82815260059290921b84018101918181019086841115610c5d57600080fd5b8286015b84811015610c785780358352918301918301610c61565b509695505050505050565b600080600060608486031215610c9857600080fd5b833567ffffffffffffffff80821115610cb057600080fd5b818601915086601f830112610cc457600080fd5b81356020610cd4610c3983610bdc565b82815260059290921b8401810191818101908a841115610cf357600080fd5b948201945b83861015610d1a578535610d0b81610c00565b82529482019490820190610cf8565b97505087013592505080821115610d3057600080fd5b610b7287838801610c18565b60008060408385031215610d4f57600080fd5b8235610d5a81610c00565b946020939093013593505050565b6020808252825182820181905260009190848201906040850190845b81811015610da95783516001600160a01b031683529284019291840191600101610d84565b50909695505050505050565b60008060008060808587031215610dcb57600080fd5b843593506020850135610ddd81610c00565b9250604085013567ffffffffffffffff80821115610dfa57600080fd5b610e0688838901610ac2565b93506060870135915080821115610e1c57600080fd5b50610e2987828801610ac2565b91505092959194509250565b60008060408385031215610e4857600080fd5b8235610e5381610c00565b91506020830135610e6381610c00565b809150509250929050565b60008060408385031215610e8157600080fd5b823567ffffffffffffffff80821115610e9957600080fd5b610ea586838701610ac2565b93506020850135915080821115610ebb57600080fd5b50610ec885828601610ac2565b9150509250929050565b600060208284031215610ee457600080fd5b815161029181610c00565b600060208284031215610f0157600080fd5b5051919050565b600081518084526020808501945080840160005b83811015610f3857815187529582019590820190600101610f1c565b509495945050505050565b6000815180845260005b81811015610f6957602081850181015186830182015201610f4d565b506000602082860101526020601f19601f83011685010191505092915050565b6001600160a01b03888116825260e0602080840182905289519184018290526000928a820192909190610100860190855b81811015610fd8578551851683529483019491830191600101610fba565b50508581036040870152610fec818c610f08565b935050505082810360608401526110038188610f08565b6001600160a01b0387166080850152905082810360a08401526110268186610f43565b91505061103960c083018461ffff169052565b98975050505050505050565b83815282151560208201526060604082015260006110666060830184610f43565b95945050505050565b60006020828403121561108157600080fd5b815163ffffffff8116811461029157600080fd5b6000602082840312156110a757600080fd5b8151801515811461029157600080fd5b60008060008060008060c087890312156110d057600080fd5b865195506020870151945060408701519350606087015192506080870151915060a087015190509295509295509295565b634e487b7160e01b600052603260045260246000fdfea2646970667358221220ca5be1dd096f70d306b1d3eab2495d13166a70cbad33c009f689702d6320428d64736f6c63430008100033",
    "linkReferences": {}
  },
  "methodIdentifiers": {
    "assetOf(bytes)": "e170a9bf",
    "assetsUsed(bytes)": "aeffddde",
    "balanceOf(bytes)": "78415365",
    "borrowFromAave(address,uint256)": "9a85e1d3",
    "deposit(uint256,bytes,bytes)": "69445c31",
    "flashLoan(address[],uint256[],bytes)": "788fb484",
    "identifier()": "7998a1c4",
    "isDebt()": "89353a09",
    "repayAaveDebt(address,uint256)": "d70c1539",
    "revokeApproval(address,address)": "d3bfe76a",
    "slippage()": "3e032a3b",
    "withdraw(uint256,address,bytes,bytes)": "c9111bd7",
    "withdrawableFrom(bytes,bytes)": "fa50e5d2"
  },
  "id": 75
}