{
  "abi": [
    {
      "inputs": [
        {
          "internalType": "address",
          "name": "_vault",
          "type": "address"
        },
        {
          "internalType": "address",
          "name": "_minter",
          "type": "address"
        },
        {
          "internalType": "uint32",
          "name": "_balancerSlippage",
          "type": "uint32"
        }
      ],
      "stateMutability": "nonpayable",
      "type": "constructor"
    },
    {
      "inputs": [
        {
          "internalType": "address",
          "name": "bpt",
          "type": "address"
        },
        {
          "internalType": "address",
          "name": "liquidityGauge",
          "type": "address"
        }
      ],
      "name": "BalancerPoolAdaptor__BptAndGaugeComboMustBeTracked",
      "type": "error"
    },
    {
      "inputs": [],
      "name": "BalancerPoolAdaptor___InternalBalancesNotSupported",
      "type": "error"
    },
    {
      "inputs": [],
      "name": "BalancerPoolAdaptor___InvalidConstructorSlippage",
      "type": "error"
    },
    {
      "inputs": [],
      "name": "BalancerPoolAdaptor___LengthMismatch",
      "type": "error"
    },
    {
      "inputs": [],
      "name": "BalancerPoolAdaptor___Slippage",
      "type": "error"
    },
    {
      "inputs": [],
      "name": "BalancerPoolAdaptor___SwapTokenAndExpectedTokenMismatch",
      "type": "error"
    },
    {
      "inputs": [],
      "name": "BalancerPoolAdaptor___UnsupportedTokenNotSwapped",
      "type": "error"
    },
    {
      "inputs": [],
      "name": "BalancerPoolAdaptor___WrongSwapKind",
      "type": "error"
    },
    {
      "inputs": [],
      "name": "BaseAdaptor__ConstructorHealthFactorTooLow",
      "type": "error"
    },
    {
      "inputs": [],
      "name": "BaseAdaptor__ExternalReceiverBlocked",
      "type": "error"
    },
    {
      "inputs": [
        {
          "internalType": "address",
          "name": "asset",
          "type": "address"
        }
      ],
      "name": "BaseAdaptor__PricingNotSupported",
      "type": "error"
    },
    {
      "inputs": [],
      "name": "BaseAdaptor__Slippage",
      "type": "error"
    },
    {
      "inputs": [],
      "name": "BaseAdaptor__UserDepositsNotAllowed",
      "type": "error"
    },
    {
      "inputs": [],
      "name": "BaseAdaptor__UserWithdrawsNotAllowed",
      "type": "error"
    },
    {
      "inputs": [],
      "name": "EXACT_TOKENS_IN_FOR_BPT_OUT",
      "outputs": [
        {
          "internalType": "uint256",
          "name": "",
          "type": "uint256"
        }
      ],
      "stateMutability": "view",
      "type": "function"
    },
    {
      "inputs": [
        {
          "internalType": "bytes",
          "name": "_adaptorData",
          "type": "bytes"
        }
      ],
      "name": "assetOf",
      "outputs": [
        {
          "internalType": "contract ERC20",
          "name": "",
          "type": "address"
        }
      ],
      "stateMutability": "pure",
      "type": "function"
    },
    {
      "inputs": [
        {
          "internalType": "bytes",
          "name": "_adaptorData",
          "type": "bytes"
        }
      ],
      "name": "assetsUsed",
      "outputs": [
        {
          "internalType": "contract ERC20[]",
          "name": "assets",
          "type": "address[]"
        }
      ],
      "stateMutability": "pure",
      "type": "function"
    },
    {
      "inputs": [
        {
          "internalType": "bytes",
          "name": "_adaptorData",
          "type": "bytes"
        }
      ],
      "name": "balanceOf",
      "outputs": [
        {
          "internalType": "uint256",
          "name": "",
          "type": "uint256"
        }
      ],
      "stateMutability": "view",
      "type": "function"
    },
    {
      "inputs": [],
      "name": "balancerSlippage",
      "outputs": [
        {
          "internalType": "uint32",
          "name": "",
          "type": "uint32"
        }
      ],
      "stateMutability": "view",
      "type": "function"
    },
    {
      "inputs": [
        {
          "internalType": "address",
          "name": "gauge",
          "type": "address"
        }
      ],
      "name": "claimRewards",
      "outputs": [],
      "stateMutability": "nonpayable",
      "type": "function"
    },
    {
      "inputs": [
        {
          "internalType": "uint256",
          "name": "",
          "type": "uint256"
        },
        {
          "internalType": "bytes",
          "name": "",
          "type": "bytes"
        },
        {
          "internalType": "bytes",
          "name": "",
          "type": "bytes"
        }
      ],
      "name": "deposit",
      "outputs": [],
      "stateMutability": "pure",
      "type": "function"
    },
    {
      "inputs": [
        {
          "internalType": "contract ERC20",
          "name": "targetBpt",
          "type": "address"
        },
        {
          "components": [
            {
              "internalType": "bytes32",
              "name": "poolId",
              "type": "bytes32"
            },
            {
              "internalType": "enum IVault.SwapKind",
              "name": "kind",
              "type": "uint8"
            },
            {
              "internalType": "contract IAsset",
              "name": "assetIn",
              "type": "address"
            },
            {
              "internalType": "contract IAsset",
              "name": "assetOut",
              "type": "address"
            },
            {
              "internalType": "uint256",
              "name": "amount",
              "type": "uint256"
            },
            {
              "internalType": "bytes",
              "name": "userData",
              "type": "bytes"
            }
          ],
          "internalType": "struct IVault.SingleSwap[]",
          "name": "swapsAfterExit",
          "type": "tuple[]"
        },
        {
          "components": [
            {
              "internalType": "uint256[]",
              "name": "minAmountsForSwaps",
              "type": "uint256[]"
            },
            {
              "internalType": "uint256[]",
              "name": "swapDeadlines",
              "type": "uint256[]"
            }
          ],
          "internalType": "struct BalancerPoolAdaptor.SwapData",
          "name": "swapData",
          "type": "tuple"
        },
        {
          "components": [
            {
              "internalType": "contract IAsset[]",
              "name": "assets",
              "type": "address[]"
            },
            {
              "internalType": "uint256[]",
              "name": "minAmountsOut",
              "type": "uint256[]"
            },
            {
              "internalType": "bytes",
              "name": "userData",
              "type": "bytes"
            },
            {
              "internalType": "bool",
              "name": "toInternalBalance",
              "type": "bool"
            }
          ],
          "internalType": "struct IVault.ExitPoolRequest",
          "name": "request",
          "type": "tuple"
        }
      ],
      "name": "exitPool",
      "outputs": [],
      "stateMutability": "nonpayable",
      "type": "function"
    },
    {
      "inputs": [
        {
          "internalType": "address",
          "name": "targetBpt",
          "type": "address"
        }
      ],
      "name": "getExpectedTokens",
      "outputs": [
        {
          "internalType": "contract ERC20[]",
          "name": "expectedTokens",
          "type": "address[]"
        }
      ],
      "stateMutability": "view",
      "type": "function"
    },
    {
      "inputs": [],
      "name": "identifier",
      "outputs": [
        {
          "internalType": "bytes32",
          "name": "",
          "type": "bytes32"
        }
      ],
      "stateMutability": "pure",
      "type": "function"
    },
    {
      "inputs": [],
      "name": "isDebt",
      "outputs": [
        {
          "internalType": "bool",
          "name": "",
          "type": "bool"
        }
      ],
      "stateMutability": "pure",
      "type": "function"
    },
    {
      "inputs": [
        {
          "internalType": "contract ERC20",
          "name": "targetBpt",
          "type": "address"
        },
        {
          "components": [
            {
              "internalType": "bytes32",
              "name": "poolId",
              "type": "bytes32"
            },
            {
              "internalType": "enum IVault.SwapKind",
              "name": "kind",
              "type": "uint8"
            },
            {
              "internalType": "contract IAsset",
              "name": "assetIn",
              "type": "address"
            },
            {
              "internalType": "contract IAsset",
              "name": "assetOut",
              "type": "address"
            },
            {
              "internalType": "uint256",
              "name": "amount",
              "type": "uint256"
            },
            {
              "internalType": "bytes",
              "name": "userData",
              "type": "bytes"
            }
          ],
          "internalType": "struct IVault.SingleSwap[]",
          "name": "swapsBeforeJoin",
          "type": "tuple[]"
        },
        {
          "components": [
            {
              "internalType": "uint256[]",
              "name": "minAmountsForSwaps",
              "type": "uint256[]"
            },
            {
              "internalType": "uint256[]",
              "name": "swapDeadlines",
              "type": "uint256[]"
            }
          ],
          "internalType": "struct BalancerPoolAdaptor.SwapData",
          "name": "swapData",
          "type": "tuple"
        },
        {
          "internalType": "uint256",
          "name": "minimumBpt",
          "type": "uint256"
        }
      ],
      "name": "joinPool",
      "outputs": [],
      "stateMutability": "nonpayable",
      "type": "function"
    },
    {
      "inputs": [
        {
          "internalType": "contract IERC20[]",
          "name": "tokens",
          "type": "address[]"
        },
        {
          "internalType": "uint256[]",
          "name": "amounts",
          "type": "uint256[]"
        },
        {
          "internalType": "bytes",
          "name": "data",
          "type": "bytes"
        }
      ],
      "name": "makeFlashLoan",
      "outputs": [],
      "stateMutability": "nonpayable",
      "type": "function"
    },
    {
      "inputs": [],
      "name": "minter",
      "outputs": [
        {
          "internalType": "contract IBalancerMinter",
          "name": "",
          "type": "address"
        }
      ],
      "stateMutability": "view",
      "type": "function"
    },
    {
      "inputs": [
        {
          "internalType": "contract ERC20",
          "name": "asset",
          "type": "address"
        },
        {
          "internalType": "address",
          "name": "spender",
          "type": "address"
        }
      ],
      "name": "revokeApproval",
      "outputs": [],
      "stateMutability": "nonpayable",
      "type": "function"
    },
    {
      "inputs": [],
      "name": "slippage",
      "outputs": [
        {
          "internalType": "uint32",
          "name": "",
          "type": "uint32"
        }
      ],
      "stateMutability": "pure",
      "type": "function"
    },
    {
      "inputs": [
        {
          "internalType": "contract ERC20",
          "name": "_bpt",
          "type": "address"
        },
        {
          "internalType": "address",
          "name": "_liquidityGauge",
          "type": "address"
        },
        {
          "internalType": "uint256",
          "name": "_amountIn",
          "type": "uint256"
        }
      ],
      "name": "stakeBPT",
      "outputs": [],
      "stateMutability": "nonpayable",
      "type": "function"
    },
    {
      "inputs": [
        {
          "internalType": "contract ERC20",
          "name": "_bpt",
          "type": "address"
        },
        {
          "internalType": "address",
          "name": "_liquidityGauge",
          "type": "address"
        },
        {
          "internalType": "uint256",
          "name": "_amountOut",
          "type": "uint256"
        }
      ],
      "name": "unstakeBPT",
      "outputs": [],
      "stateMutability": "nonpayable",
      "type": "function"
    },
    {
      "inputs": [],
      "name": "vault",
      "outputs": [
        {
          "internalType": "contract IVault",
          "name": "",
          "type": "address"
        }
      ],
      "stateMutability": "view",
      "type": "function"
    },
    {
      "inputs": [
        {
          "internalType": "uint256",
          "name": "_amountBPTToSend",
          "type": "uint256"
        },
        {
          "internalType": "address",
          "name": "_recipient",
          "type": "address"
        },
        {
          "internalType": "bytes",
          "name": "_adaptorData",
          "type": "bytes"
        },
        {
          "internalType": "bytes",
          "name": "",
          "type": "bytes"
        }
      ],
      "name": "withdraw",
      "outputs": [],
      "stateMutability": "nonpayable",
      "type": "function"
    },
    {
      "inputs": [
        {
          "internalType": "bytes",
          "name": "_adaptorData",
          "type": "bytes"
        },
        {
          "internalType": "bytes",
          "name": "",
          "type": "bytes"
        }
      ],
      "name": "withdrawableFrom",
      "outputs": [
        {
          "internalType": "uint256",
          "name": "",
          "type": "uint256"
        }
      ],
      "stateMutability": "view",
      "type": "function"
    }
  ],
  "bytecode": {
    "object": "0x60e06040523480156200001157600080fd5b506040516200363f3803806200363f8339810160408190526200003491620000b0565b6123288163ffffffff1610806200005257506127108163ffffffff16115b156200007157604051633aa8bcf160e01b815260040160405180910390fd5b6001600160a01b03928316608052911660a05263ffffffff1660c05262000106565b80516001600160a01b0381168114620000ab57600080fd5b919050565b600080600060608486031215620000c657600080fd5b620000d18462000093565b9250620000e16020850162000093565b9150604084015163ffffffff81168114620000fb57600080fd5b809150509250925092565b60805160a05160c051613499620001a6600039600081816102d101528181610e9b0152611c890152600081816101410152611f6301526000818161030b015281816104490152818161070f0152818161087c0152818161096b01528181610b5001528181610d7d01528181610de3015281816111090152818161136c015281816115be015281816118bb015281816119d70152611e2e01526134996000f3fe608060405234801561001057600080fd5b50600436106101375760003560e01c806397194b13116100b8578063d3bfe76a1161007c578063d3bfe76a14610293578063e170a9bf146102a6578063ef5cfb8c146102b9578063f7e69b16146102cc578063fa50e5d2146102f3578063fbfa77cf1461030657600080fd5b806397194b1314610234578063aeffddde14610247578063c9111bd71461025a578063c9a695621461026d578063d2e858061461028057600080fd5b806378415365116100ff57806378415365146101d75780637906afbf146101ea5780637998a1c41461020a57806389353a09146102125780638f210a6a1461022157600080fd5b8063075461721461013c5780630e222e52146101805780633e032a3b146101965780635c14acdb146101af57806369445c31146101c4575b600080fd5b6101637f000000000000000000000000000000000000000000000000000000000000000081565b6040516001600160a01b0390911681526020015b60405180910390f35b610188600181565b604051908152602001610177565b6123285b60405163ffffffff9091168152602001610177565b6101c26101bd3660046129a5565b61032d565b005b6101c26101d2366004612a22565b505050565b6101886101e5366004612a8e565b610ef5565b6101fd6101f8366004612ac2565b61107f565b6040516101779190612b23565b610188611186565b60405160008152602001610177565b6101c261022f366004612b36565b6111e4565b6101c2610242366004612b90565b6112e4565b6101fd610255366004612a8e565b611ce2565b6101c2610268366004612d0d565b611d45565b6101c261027b366004612d8c565b611e17565b6101c261028e366004612b36565b611e97565b6101c26102a1366004612e44565b611f0f565b6101636102b4366004612a8e565b611f28565b6101c26102c7366004612ac2565b611f44565b61019a7f000000000000000000000000000000000000000000000000000000000000000081565b610188610301366004612e7d565b611fbb565b6101637f000000000000000000000000000000000000000000000000000000000000000081565b6000846001600160a01b03166338fff2d06040518163ffffffff1660e01b8152600401602060405180830381865afa15801561036d573d6000803e3d6000fd5b505050506040513d601f19601f820116820180604052508101906103919190612ee0565b90506000306001600160a01b031663d7d4bf456040518163ffffffff1660e01b8152600401602060405180830381865afa1580156103d3573d6000803e3d6000fd5b505050506040513d601f19601f820116820180604052508101906103f79190612ef9565b905061042660405180608001604052806060815260200160608152602001606081526020016000151581525090565b60006060828101829052604051631f29a8cd60e31b8152600481018690529091907f00000000000000000000000000000000000000000000000000000000000000006001600160a01b03169063f94d466890602401600060405180830381865afa158015610498573d6000803e3d6000fd5b505050506040513d6000823e601f3d908101601f191682016040526104c09190810190612f71565b505090506104ce8982611fcd565b915080516001600160401b038111156104e9576104e961266d565b604051908082528060200260200182016040528015610512578160200160208202803683370190505b50835260005b8151811015610579578181815181106105335761053361303e565b6020026020010151846000015182815181106105515761055161303e565b6001600160a01b03909216602092830291909101909101526105728161306a565b9050610518565b5080516001600160401b038111156105935761059361266d565b6040519080825280602002602001820160405280156105bc578160200160208202803683370190505b50602084015260005b815181101561060257600019846020015182815181106105e7576105e761303e565b60209081029190910101526105fb8161306a565b90506105c5565b505080518751146106265760405163967575bd60e01b815260040160405180910390fd5b600081516001600160401b038111156106415761064161266d565b60405190808252806020026020018201604052801561066a578160200160208202803683370190505b50905060005b8851811015610a9e5788818151811061068b5761068b61303e565b60200260200101516080015160000315610a8e5760008982815181106106b3576106b361303e565b60200260200101516040015190506106e8818b84815181106106d7576106d761303e565b6020026020010151608001516121d2565b8a83815181106106fa576106fa61303e565b602002602001015160800181815250506107657f00000000000000000000000000000000000000000000000000000000000000008b84815181106107405761074061303e565b602002602001015160800151836001600160a01b03166122539092919063ffffffff16565b60006001600160a01b03168a83815181106107825761078261303e565b6020026020010151606001516001600160a01b0316146109e7578382815181106107ae576107ae61303e565b60200260200101516001600160a01b03168a83815181106107d1576107d161303e565b6020026020010151606001516001600160a01b031614610804576040516385f4bd3b60e01b815260040160405180910390fd5b60008a83815181106108185761081861303e565b602002602001015160200151600181111561083557610835613083565b14610853576040516374c0729b60e01b815260040160405180910390fd5b604080516080810182523080825260006020830181905292820152606081018290528b519091907f00000000000000000000000000000000000000000000000000000000000000006001600160a01b0316906352bbbe29908e90879081106108bd576108bd61303e565b6020026020010151848e6000015188815181106108dc576108dc61303e565b60200260200101518f6020015189815181106108fa576108fa61303e565b60200260200101516040518563ffffffff1660e01b815260040161092194939291906130df565b6020604051808303816000875af1158015610940573d6000803e3d6000fd5b505050506040513d601f19601f820116820180604052508101906109649190612ee0565b90506109c17f0000000000000000000000000000000000000000000000000000000000000000828e878151811061099d5761099d61303e565b6020026020010151606001516001600160a01b03166122539092919063ffffffff16565b808585815181106109d4576109d461303e565b6020026020010181815250505050610a8c565b8382815181106109f9576109f961303e565b60200260200101516001600160a01b03168a8381518110610a1c57610a1c61303e565b6020026020010151604001516001600160a01b031614610a4f576040516385f4bd3b60e01b815260040160405180910390fd5b898281518110610a6157610a6161303e565b602002602001015160800151838381518110610a7f57610a7f61303e565b6020026020010181815250505b505b610a978161306a565b9050610670565b5060018187604051602001610ab5939291906131ed565b60408051808303601f1901815291815284810191909152516370a0823160e01b8152306004820152600091506001600160a01b038a16906370a0823190602401602060405180830381865afa158015610b12573d6000803e3d6000fd5b505050506040513d601f19601f82011682018060405250810190610b369190612ee0565b60405163172b958560e31b81529091506001600160a01b037f0000000000000000000000000000000000000000000000000000000000000000169063b95cac2890610b8b9088903090819089906004016132ad565b600060405180830381600087803b158015610ba557600080fd5b505af1158015610bb9573d6000803e3d6000fd5b50506040516370a0823160e01b81523060048201528392506001600160a01b038c1691506370a0823190602401602060405180830381865afa158015610c03573d6000803e3d6000fd5b505050506040513d601f19601f82011682018060405250810190610c279190612ee0565b610c3191906132df565b9050600088516001600160401b03811115610c4e57610c4e61266d565b604051908082528060200260200182016040528015610c77578160200160208202803683370190505b509050600089516001600160401b03811115610c9557610c9561266d565b604051908082528060200260200182016040528015610cbe578160200160208202803683370190505b50905060005b8a51811015610e1a5760008b8281518110610ce157610ce161303e565b602002602001015160400151905080838381518110610d0257610d0261303e565b60200260200101906001600160a01b031690816001600160a01b0316815250508b8281518110610d3457610d3461303e565b602002602001015160800151848381518110610d5257610d5261303e565b602002602001018181525050610da1838381518110610d7357610d7361303e565b60200260200101517f00000000000000000000000000000000000000000000000000000000000000006122d5565b60008c8381518110610db557610db561303e565b602002602001015160600151905060006001600160a01b0316816001600160a01b031614610e0757610e07817f00000000000000000000000000000000000000000000000000000000000000006122d5565b505080610e139061306a565b9050610cc4565b506000866001600160a01b031663b333a17583858f6040518463ffffffff1660e01b8152600401610e4d939291906132f2565b602060405180830381865afa158015610e6a573d6000803e3d6000fd5b505050506040513d601f19601f82011682018060405250810190610e8e9190612ee0565b9050610ec78163ffffffff7f00000000000000000000000000000000000000000000000000000000000000008116906127109061236416565b841015610ee7576040516336bedbd960e11b815260040160405180910390fd5b505050505050505050505050565b600080600083806020019051810190610f0e9190613330565b90925090506001600160a01b038116610f91576040516370a0823160e01b81523360048201526001600160a01b038316906370a0823190602401602060405180830381865afa158015610f65573d6000803e3d6000fd5b505050506040513d601f19601f82011682018060405250810190610f899190612ee0565b949350505050565b6040516370a0823160e01b815233600482015281906000906001600160a01b038316906370a0823190602401602060405180830381865afa158015610fda573d6000803e3d6000fd5b505050506040513d601f19601f82011682018060405250810190610ffe9190612ee0565b6040516370a0823160e01b815233600482015290915081906001600160a01b038616906370a0823190602401602060405180830381865afa158015611047573d6000803e3d6000fd5b505050506040513d601f19601f8201168201806040525081019061106b9190612ee0565b611075919061335f565b9695505050505050565b60606000826001600160a01b03166338fff2d06040518163ffffffff1660e01b8152600401602060405180830381865afa1580156110c1573d6000803e3d6000fd5b505050506040513d601f19601f820116820180604052508101906110e59190612ee0565b604051631f29a8cd60e31b8152600481018290529091506000906001600160a01b037f0000000000000000000000000000000000000000000000000000000000000000169063f94d466890602401600060405180830381865afa158015611150573d6000803e3d6000fd5b505050506040513d6000823e601f3d908101601f191682016040526111789190810190612f71565b50509050610f898482611fcd565b60006040516020016111c9906020808252601b908201527f42616c616e63657220506f6f6c2041646170746f72205620312e300000000000604082015260600190565b60405160208183030381529060405280519060200120905090565b6111ee8383612383565b60006111fa84836121d2565b60405163095ea7b360e01b81526001600160a01b03808616600483015260248201839052919250849186169063095ea7b3906044016020604051808303816000875af115801561124e573d6000803e3d6000fd5b505050506040513d601f19601f820116820180604052508101906112729190613372565b50604051636e553f6560e01b8152600481018390523060248201526001600160a01b03821690636e553f6590604401600060405180830381600087803b1580156112bb57600080fd5b505af11580156112cf573d6000803e3d6000fd5b505050506112dd85856122d5565b5050505050565b6000846001600160a01b03166338fff2d06040518163ffffffff1660e01b8152600401602060405180830381865afa158015611324573d6000803e3d6000fd5b505050506040513d601f19601f820116820180604052508101906113489190612ee0565b604051631f29a8cd60e31b8152600481018290529091506000906001600160a01b037f0000000000000000000000000000000000000000000000000000000000000000169063f94d466890602401600060405180830381865afa1580156113b3573d6000803e3d6000fd5b505050506040513d6000823e601f3d908101601f191682016040526113db9190810190612f71565b5050905060006113eb8783611fcd565b9050805186511461140f5760405163967575bd60e01b815260040160405180910390fd5b83606001511561143257604051636d22518360e01b815260040160405180910390fd5b600081516001600160401b0381111561144d5761144d61266d565b604051908082528060200260200182016040528015611476578160200160208202803683370190505b50905060005b8251811015611538578281815181106114975761149761303e565b60209081029190910101516040516370a0823160e01b81523060048201526001600160a01b03909116906370a0823190602401602060405180830381865afa1580156114e7573d6000803e3d6000fd5b505050506040513d601f19601f8201168201806040525081019061150b9190612ee0565b82828151811061151d5761151d61303e565b60209081029190910101526115318161306a565b905061147c565b506040516370a0823160e01b81523060048201526000906001600160a01b038a16906370a0823190602401602060405180830381865afa158015611580573d6000803e3d6000fd5b505050506040513d601f19601f820116820180604052508101906115a49190612ee0565b604051638bdb391360e01b81529091506001600160a01b037f00000000000000000000000000000000000000000000000000000000000000001690638bdb3913906115f9908890309081908c906004016132ad565b600060405180830381600087803b15801561161357600080fd5b505af1158015611627573d6000803e3d6000fd5b50506040516370a0823160e01b81523060048201526001600160a01b038c1692506370a082319150602401602060405180830381865afa15801561166f573d6000803e3d6000fd5b505050506040513d601f19601f820116820180604052508101906116939190612ee0565b61169d90826132df565b905060005b8351811015611782578281815181106116bd576116bd61303e565b60200260200101518482815181106116d7576116d761303e565b60209081029190910101516040516370a0823160e01b81523060048201526001600160a01b03909116906370a0823190602401602060405180830381865afa158015611727573d6000803e3d6000fd5b505050506040513d601f19601f8201168201806040525081019061174b9190612ee0565b61175591906132df565b8382815181106117675761176761303e565b602090810291909101015261177b8161306a565b90506116a2565b506000306001600160a01b031663d7d4bf456040518163ffffffff1660e01b8152600401602060405180830381865afa1580156117c3573d6000803e3d6000fd5b505050506040513d601f19601f820116820180604052508101906117e79190612ef9565b905060005b8451811015611c08578381815181106118075761180761303e565b602002602001015160000315611bf8578481815181106118295761182961303e565b60200260200101516001600160a01b03168a828151811061184c5761184c61303e565b6020026020010151604001516001600160a01b03161461187f576040516385f4bd3b60e01b815260040160405180910390fd5b60006001600160a01b03168a828151811061189c5761189c61303e565b6020026020010151606001516001600160a01b031614611b46576119267f00000000000000000000000000000000000000000000000000000000000000008583815181106118ec576118ec61303e565b60200260200101518784815181106119065761190661303e565b60200260200101516001600160a01b03166122539092919063ffffffff16565b6040805160808101825230808252600060208301819052928201526060810191909152845185908390811061195d5761195d61303e565b60200260200101518b83815181106119775761197761303e565b60209081029190910101516080015260008b838151811061199a5761199a61303e565b60200260200101516020015160018111156119b7576119b7613083565b146119d5576040516374c0729b60e01b815260040160405180910390fd5b7f00000000000000000000000000000000000000000000000000000000000000006001600160a01b03166352bbbe298c8481518110611a1657611a1661303e565b6020026020010151838d600001518681518110611a3557611a3561303e565b60200260200101518e602001518781518110611a5357611a5361303e565b60200260200101516040518563ffffffff1660e01b8152600401611a7a94939291906130df565b6020604051808303816000875af1158015611a99573d6000803e3d6000fd5b505050506040513d601f19601f82011682018060405250810190611abd9190612ee0565b858381518110611acf57611acf61303e565b602002602001018181525050611af0868381518110610d7357610d7361303e565b8a8281518110611b0257611b0261303e565b602002602001015160600151868381518110611b2057611b2061303e565b60200260200101906001600160a01b031690816001600160a01b03168152505050611bf8565b816001600160a01b0316634f129c53868381518110611b6757611b6761303e565b60200260200101516040518263ffffffff1660e01b8152600401611b9a91906001600160a01b0391909116815260200190565b602060405180830381865afa158015611bb7573d6000803e3d6000fd5b505050506040513d601f19601f82011682018060405250810190611bdb9190613372565b611bf8576040516301da6c4960e11b815260040160405180910390fd5b611c018161306a565b90506117ec565b506000816001600160a01b031663b333a17586868e6040518463ffffffff1660e01b8152600401611c3b939291906132f2565b602060405180830381865afa158015611c58573d6000803e3d6000fd5b505050506040513d601f19601f82011682018060405250810190611c7c9190612ee0565b9050611cb58363ffffffff7f00000000000000000000000000000000000000000000000000000000000000008116906127109061236416565b811015611cd5576040516336bedbd960e11b815260040160405180910390fd5b5050505050505050505050565b60408051600180825281830190925260609160208083019080368337019050509050611d0d82611f28565b81600081518110611d2057611d2061303e565b60200260200101906001600160a01b031690816001600160a01b031681525050919050565b611d4e83612549565b60008083806020019051810190611d659190613330565b6040516370a0823160e01b815230600482015291935091506000906001600160a01b038416906370a0823190602401602060405180830381865afa158015611db1573d6000803e3d6000fd5b505050506040513d601f19601f82011682018060405250810190611dd59190612ee0565b905080871115611dfa576000611deb82896132df565b9050611df8848483611e97565b505b611e0e6001600160a01b03841687896125e0565b50505050505050565b604051632e1c224f60e11b81526001600160a01b037f00000000000000000000000000000000000000000000000000000000000000001690635c38449e90611e6990309087908790879060040161338f565b600060405180830381600087803b158015611e8357600080fd5b505af1158015611e0e573d6000803e3d6000fd5b611ea18383612383565b81611eac81836121d2565b604051632e1a7d4d60e01b8152600481018290529092506001600160a01b03821690632e1a7d4d90602401600060405180830381600087803b158015611ef157600080fd5b505af1158015611f05573d6000803e3d6000fd5b5050505050505050565b611f246001600160a01b038316826000612253565b5050565b600081806020019051810190611f3e9190612ef9565b92915050565b6040516335313c2160e11b81526001600160a01b0382811660048301527f00000000000000000000000000000000000000000000000000000000000000001690636a62784290602401600060405180830381600087803b158015611fa757600080fd5b505af11580156112dd573d6000803e3d6000fd5b6000611fc683610ef5565b9392505050565b80516060906000805b8281101561202957856001600160a01b0316858281518110611ffa57611ffa61303e565b60200260200101516001600160a01b0316036120195760019150612029565b6120228161306a565b9050611fd6565b5080156121255761203b6001836132df565b6001600160401b038111156120525761205261266d565b60405190808252806020026020018201604052801561207b578160200160208202803683370190505b5092506000805b8381101561211e57866001600160a01b03168682815181106120a6576120a661303e565b60200260200101516001600160a01b03161461210e578581815181106120ce576120ce61303e565b60200260200101518583815181106120e8576120e861303e565b6001600160a01b03909216602092830291909101909101528161210a8161306a565b9250505b6121178161306a565b9050612082565b50506121ca565b816001600160401b0381111561213d5761213d61266d565b604051908082528060200260200182016040528015612166578160200160208202803683370190505b50925060005b828110156121c8578481815181106121865761218661303e565b60200260200101518482815181106121a0576121a061303e565b6001600160a01b03909216602092830291909101909101526121c18161306a565b905061216c565b505b505092915050565b6000600019820361224c576040516370a0823160e01b81523060048201526001600160a01b038416906370a0823190602401602060405180830381865afa158015612221573d6000803e3d6000fd5b505050506040513d601f19601f820116820180604052508101906122459190612ee0565b9050611f3e565b5080611f3e565b600060405163095ea7b360e01b8152836004820152826024820152602060006044836000895af13d15601f3d11600160005114161716915050806122cf5760405162461bcd60e51b815260206004820152600e60248201526d1054141493d59157d1905253115160921b60448201526064015b60405180910390fd5b50505050565b604051636eb1769f60e11b81523060048201526001600160a01b0382811660248301526000919084169063dd62ed3e90604401602060405180830381865afa158015612325573d6000803e3d6000fd5b505050506040513d601f19601f820116820180604052508101906123499190612ee0565b1115611f2457611f246001600160a01b038316826000612253565b82820281151584158583048514171661237c57600080fd5b0492915050565b600061238d611186565b604080516001600160a01b038681166020830152851681830152815180820383018152606082019092526123c79291600091608001613413565b6040516020818303038152906040528051906020012090506000306001600160a01b0316637b1039996040518163ffffffff1660e01b8152600401602060405180830381865afa15801561241f573d6000803e3d6000fd5b505050506040513d601f19601f820116820180604052508101906124439190612ef9565b6001600160a01b03166309f7abd2836040518263ffffffff1660e01b815260040161247091815260200190565b602060405180830381865afa15801561248d573d6000803e3d6000fd5b505050506040513d601f19601f820116820180604052508101906124b1919061343d565b60405163024eefab60e61b815263ffffffff8216600482015290915030906393bbeac090602401602060405180830381865afa1580156124f5573d6000803e3d6000fd5b505050506040513d601f19601f820116820180604052508101906125199190613372565b6122cf5760405163114322b960e31b81526001600160a01b038086166004830152841660248201526044016122c6565b6001600160a01b03811630148015906125bf5750306001600160a01b0316634c4602da6040518163ffffffff1660e01b8152600401602060405180830381865afa15801561259b573d6000803e3d6000fd5b505050506040513d601f19601f820116820180604052508101906125bf9190613372565b156125dd576040516307de9b5160e21b815260040160405180910390fd5b50565b600060405163a9059cbb60e01b8152836004820152826024820152602060006044836000895af13d15601f3d11600160005114161716915050806122cf5760405162461bcd60e51b815260206004820152600f60248201526e1514905394d1915497d19052531151608a1b60448201526064016122c6565b6001600160a01b03811681146125dd57600080fd5b634e487b7160e01b600052604160045260246000fd5b60405160c081016001600160401b03811182821017156126a5576126a561266d565b60405290565b604051608081016001600160401b03811182821017156126a5576126a561266d565b604051601f8201601f191681016001600160401b03811182821017156126f5576126f561266d565b604052919050565b60006001600160401b038211156127165761271661266d565b5060051b60200190565b80356002811061272f57600080fd5b919050565b803561272f81612658565b600082601f83011261275057600080fd5b81356001600160401b038111156127695761276961266d565b61277c601f8201601f19166020016126cd565b81815284602083860101111561279157600080fd5b816020850160208301376000918101602001919091529392505050565b600082601f8301126127bf57600080fd5b813560206127d46127cf836126fd565b6126cd565b82815260059290921b840181019181810190868411156127f357600080fd5b8286015b848110156128b65780356001600160401b03808211156128175760008081fd5b9088019060c0828b03601f19018113156128315760008081fd5b612839612683565b878401358152604061284c818601612720565b89830152606061285d818701612734565b8284015260809150612870828701612734565b9083015260a0858101358284015292850135928484111561289357600091508182fd5b6128a18e8b8689010161273f565b908301525086525050509183019183016127f7565b509695505050505050565b600082601f8301126128d257600080fd5b813560206128e26127cf836126fd565b82815260059290921b8401810191818101908684111561290157600080fd5b8286015b848110156128b65780358352918301918301612905565b60006040828403121561292e57600080fd5b604051604081016001600160401b0382821081831117156129515761295161266d565b81604052829350843591508082111561296957600080fd5b612975868387016128c1565b8352602085013591508082111561298b57600080fd5b50612998858286016128c1565b6020830152505092915050565b600080600080608085870312156129bb57600080fd5b84356129c681612658565b935060208501356001600160401b03808211156129e257600080fd5b6129ee888389016127ae565b94506040870135915080821115612a0457600080fd5b50612a118782880161291c565b949793965093946060013593505050565b600080600060608486031215612a3757600080fd5b8335925060208401356001600160401b0380821115612a5557600080fd5b612a618783880161273f565b93506040860135915080821115612a7757600080fd5b50612a848682870161273f565b9150509250925092565b600060208284031215612aa057600080fd5b81356001600160401b03811115612ab657600080fd5b610f898482850161273f565b600060208284031215612ad457600080fd5b8135611fc681612658565b600081518084526020808501945080840160005b83811015612b185781516001600160a01b031687529582019590820190600101612af3565b509495945050505050565b602081526000611fc66020830184612adf565b600080600060608486031215612b4b57600080fd5b8335612b5681612658565b92506020840135612b6681612658565b929592945050506040919091013590565b80151581146125dd57600080fd5b803561272f81612b77565b60008060008060808587031215612ba657600080fd5b8435612bb181612658565b93506020858101356001600160401b0380821115612bce57600080fd5b612bda89838a016127ae565b95506040880135915080821115612bf057600080fd5b612bfc89838a0161291c565b94506060880135915080821115612c1257600080fd5b908701906080828a031215612c2657600080fd5b612c2e6126ab565b823582811115612c3d57600080fd5b8301601f81018b13612c4e57600080fd5b8035612c5c6127cf826126fd565b81815260059190911b8201860190868101908d831115612c7b57600080fd5b928701925b82841015612ca2578335612c9381612658565b82529287019290870190612c80565b84525050508284013582811115612cb857600080fd5b612cc48b8286016128c1565b85830152506040830135935081841115612cdd57600080fd5b612ce98a85850161273f565b6040820152612cfa60608401612b85565b6060820152969995985093965050505050565b60008060008060808587031215612d2357600080fd5b843593506020850135612d3581612658565b925060408501356001600160401b0380821115612d5157600080fd5b612d5d8883890161273f565b93506060870135915080821115612d7357600080fd5b50612d808782880161273f565b91505092959194509250565b600080600060608486031215612da157600080fd5b83356001600160401b0380821115612db857600080fd5b818601915086601f830112612dcc57600080fd5b81356020612ddc6127cf836126fd565b82815260059290921b8401810191818101908a841115612dfb57600080fd5b948201945b83861015612e22578535612e1381612658565b82529482019490820190612e00565b97505087013592505080821115612e3857600080fd5b612a61878388016128c1565b60008060408385031215612e5757600080fd5b8235612e6281612658565b91506020830135612e7281612658565b809150509250929050565b60008060408385031215612e9057600080fd5b82356001600160401b0380821115612ea757600080fd5b612eb38683870161273f565b93506020850135915080821115612ec957600080fd5b50612ed68582860161273f565b9150509250929050565b600060208284031215612ef257600080fd5b5051919050565b600060208284031215612f0b57600080fd5b8151611fc681612658565b600082601f830112612f2757600080fd5b81516020612f376127cf836126fd565b82815260059290921b84018101918181019086841115612f5657600080fd5b8286015b848110156128b65780518352918301918301612f5a565b600080600060608486031215612f8657600080fd5b83516001600160401b0380821115612f9d57600080fd5b818601915086601f830112612fb157600080fd5b81516020612fc16127cf836126fd565b82815260059290921b8401810191818101908a841115612fe057600080fd5b948201945b83861015613007578551612ff881612658565b82529482019490820190612fe5565b9189015191975090935050508082111561302057600080fd5b5061302d86828701612f16565b925050604084015190509250925092565b634e487b7160e01b600052603260045260246000fd5b634e487b7160e01b600052601160045260246000fd5b60006001820161307c5761307c613054565b5060010190565b634e487b7160e01b600052602160045260246000fd5b6000815180845260005b818110156130bf576020818501810151868301820152016130a3565b506000602082860101526020601f19601f83011685010191505092915050565b60e08152845160e0820152600060208601516002811061310f57634e487b7160e01b600052602160045260246000fd5b61010083015260408601516001600160a01b031661012083015260608601516131446101408401826001600160a01b03169052565b50608086015161016083015260a086015160c061018084015261316b6101a0840182613099565b9150506131ab602083018680516001600160a01b039081168352602080830151151590840152604080830151909116908301526060908101511515910152565b60a082019390935260c0015292915050565b600081518084526020808501945080840160005b83811015612b18578151875295820195908201906001016131d1565b83815260606020820152600061320660608301856131bd565b9050826040830152949350505050565b8051608080845281519084018190526000916020919082019060a0860190845b8181101561325b5783516001600160a01b031683529284019291840191600101613236565b50508285015191508581038387015261327481836131bd565b925050506040830151848203604086015261328f8282613099565b91505060608301516132a5606086018215159052565b509392505050565b8481526001600160a01b0384811660208301528316604082015260806060820181905260009061107590830184613216565b81810381811115611f3e57611f3e613054565b6060815260006133056060830186612adf565b828103602084015261331781866131bd565b91505060018060a01b0383166040830152949350505050565b6000806040838503121561334357600080fd5b825161334e81612658565b6020840151909250612e7281612658565b80820180821115611f3e57611f3e613054565b60006020828403121561338457600080fd5b8151611fc681612b77565b6001600160a01b0385811682526080602080840182905286519184018290526000928782019290919060a0860190855b818110156133dd5785518516835294830194918301916001016133bf565b505085810360408701526133f181896131bd565b935050505082810360608401526134088185613099565b979650505050505050565b83815282151560208201526060604082015260006134346060830184613099565b95945050505050565b60006020828403121561344f57600080fd5b815163ffffffff81168114611fc657600080fdfea2646970667358221220e2d4d4f405e213a0ad532e2abd46c6e70946edb7c433722d57dea29ba5cc23de64736f6c63430008150033",
    "linkReferences": {}
  },
  "methodIdentifiers": {
    "EXACT_TOKENS_IN_FOR_BPT_OUT()": "0e222e52",
    "assetOf(bytes)": "e170a9bf",
    "assetsUsed(bytes)": "aeffddde",
    "balanceOf(bytes)": "78415365",
    "balancerSlippage()": "f7e69b16",
    "claimRewards(address)": "ef5cfb8c",
    "deposit(uint256,bytes,bytes)": "69445c31",
    "exitPool(address,(bytes32,uint8,address,address,uint256,bytes)[],(uint256[],uint256[]),(address[],uint256[],bytes,bool))": "97194b13",
    "getExpectedTokens(address)": "7906afbf",
    "identifier()": "7998a1c4",
    "isDebt()": "89353a09",
    "joinPool(address,(bytes32,uint8,address,address,uint256,bytes)[],(uint256[],uint256[]),uint256)": "5c14acdb",
    "makeFlashLoan(address[],uint256[],bytes)": "c9a69562",
    "minter()": "07546172",
    "revokeApproval(address,address)": "d3bfe76a",
    "slippage()": "3e032a3b",
    "stakeBPT(address,address,uint256)": "8f210a6a",
    "unstakeBPT(address,address,uint256)": "d2e85806",
    "vault()": "fbfa77cf",
    "withdraw(uint256,address,bytes,bytes)": "c9111bd7",
    "withdrawableFrom(bytes,bytes)": "fa50e5d2"
  },
  "id": 175
}