{
  "abi": [
    {
      "inputs": [
        {
          "internalType": "bool",
          "name": "_accountForInterest",
          "type": "bool"
        },
        {
          "internalType": "address",
          "name": "_frax",
          "type": "address"
        },
        {
          "internalType": "uint256",
          "name": "_healthFactor",
          "type": "uint256"
        }
      ],
      "stateMutability": "nonpayable",
      "type": "constructor"
    },
    {
      "inputs": [],
      "name": "BaseAdaptor__ConstructorHealthFactorTooLow",
      "type": "error"
    },
    {
      "inputs": [],
      "name": "BaseAdaptor__ExternalReceiverBlocked",
      "type": "error"
    },
    {
      "inputs": [
        {
          "internalType": "address",
          "name": "asset",
          "type": "address"
        }
      ],
      "name": "BaseAdaptor__PricingNotSupported",
      "type": "error"
    },
    {
      "inputs": [],
      "name": "BaseAdaptor__Slippage",
      "type": "error"
    },
    {
      "inputs": [],
      "name": "BaseAdaptor__UserDepositsNotAllowed",
      "type": "error"
    },
    {
      "inputs": [],
      "name": "BaseAdaptor__UserWithdrawsNotAllowed",
      "type": "error"
    },
    {
      "inputs": [
        {
          "internalType": "address",
          "name": "fraxlendPair",
          "type": "address"
        }
      ],
      "name": "DebtFTokenAdaptor__CannotRepayNoDebt",
      "type": "error"
    },
    {
      "inputs": [
        {
          "internalType": "address",
          "name": "fraxlendPair",
          "type": "address"
        }
      ],
      "name": "DebtFTokenAdaptor__FraxlendPairPositionsMustBeTracked",
      "type": "error"
    },
    {
      "inputs": [
        {
          "internalType": "address",
          "name": "fraxlendPair",
          "type": "address"
        }
      ],
      "name": "DebtFTokenAdaptor__HealthFactorTooLow",
      "type": "error"
    },
    {
      "inputs": [],
      "name": "ACCOUNT_FOR_INTEREST",
      "outputs": [
        {
          "internalType": "bool",
          "name": "",
          "type": "bool"
        }
      ],
      "stateMutability": "view",
      "type": "function"
    },
    {
      "inputs": [],
      "name": "FRAX",
      "outputs": [
        {
          "internalType": "contract ERC20",
          "name": "",
          "type": "address"
        }
      ],
      "stateMutability": "view",
      "type": "function"
    },
    {
      "inputs": [
        {
          "internalType": "bytes",
          "name": "adaptorData",
          "type": "bytes"
        }
      ],
      "name": "assetOf",
      "outputs": [
        {
          "internalType": "contract ERC20",
          "name": "",
          "type": "address"
        }
      ],
      "stateMutability": "view",
      "type": "function"
    },
    {
      "inputs": [
        {
          "internalType": "bytes",
          "name": "adaptorData",
          "type": "bytes"
        }
      ],
      "name": "assetsUsed",
      "outputs": [
        {
          "internalType": "contract ERC20[]",
          "name": "assets",
          "type": "address[]"
        }
      ],
      "stateMutability": "view",
      "type": "function"
    },
    {
      "inputs": [
        {
          "internalType": "bytes",
          "name": "adaptorData",
          "type": "bytes"
        }
      ],
      "name": "balanceOf",
      "outputs": [
        {
          "internalType": "uint256",
          "name": "",
          "type": "uint256"
        }
      ],
      "stateMutability": "view",
      "type": "function"
    },
    {
      "inputs": [
        {
          "internalType": "contract IFToken",
          "name": "fraxlendPair",
          "type": "address"
        },
        {
          "internalType": "uint256",
          "name": "amountToBorrow",
          "type": "uint256"
        }
      ],
      "name": "borrowFromFraxlend",
      "outputs": [],
      "stateMutability": "nonpayable",
      "type": "function"
    },
    {
      "inputs": [
        {
          "internalType": "contract IFToken",
          "name": "_fraxlendPair",
          "type": "address"
        }
      ],
      "name": "callAddInterest",
      "outputs": [],
      "stateMutability": "nonpayable",
      "type": "function"
    },
    {
      "inputs": [
        {
          "internalType": "uint256",
          "name": "",
          "type": "uint256"
        },
        {
          "internalType": "bytes",
          "name": "",
          "type": "bytes"
        },
        {
          "internalType": "bytes",
          "name": "",
          "type": "bytes"
        }
      ],
      "name": "deposit",
      "outputs": [],
      "stateMutability": "pure",
      "type": "function"
    },
    {
      "inputs": [],
      "name": "identifier",
      "outputs": [
        {
          "internalType": "bytes32",
          "name": "",
          "type": "bytes32"
        }
      ],
      "stateMutability": "pure",
      "type": "function"
    },
    {
      "inputs": [],
      "name": "isDebt",
      "outputs": [
        {
          "internalType": "bool",
          "name": "",
          "type": "bool"
        }
      ],
      "stateMutability": "pure",
      "type": "function"
    },
    {
      "inputs": [],
      "name": "minimumHealthFactor",
      "outputs": [
        {
          "internalType": "uint256",
          "name": "",
          "type": "uint256"
        }
      ],
      "stateMutability": "view",
      "type": "function"
    },
    {
      "inputs": [
        {
          "internalType": "contract IFToken",
          "name": "_fraxlendPair",
          "type": "address"
        },
        {
          "internalType": "uint256",
          "name": "_debtTokenRepayAmount",
          "type": "uint256"
        }
      ],
      "name": "repayFraxlendDebt",
      "outputs": [],
      "stateMutability": "nonpayable",
      "type": "function"
    },
    {
      "inputs": [
        {
          "internalType": "contract ERC20",
          "name": "asset",
          "type": "address"
        },
        {
          "internalType": "address",
          "name": "spender",
          "type": "address"
        }
      ],
      "name": "revokeApproval",
      "outputs": [],
      "stateMutability": "nonpayable",
      "type": "function"
    },
    {
      "inputs": [],
      "name": "slippage",
      "outputs": [
        {
          "internalType": "uint32",
          "name": "",
          "type": "uint32"
        }
      ],
      "stateMutability": "pure",
      "type": "function"
    },
    {
      "inputs": [
        {
          "internalType": "uint256",
          "name": "",
          "type": "uint256"
        },
        {
          "internalType": "address",
          "name": "",
          "type": "address"
        },
        {
          "internalType": "bytes",
          "name": "",
          "type": "bytes"
        },
        {
          "internalType": "bytes",
          "name": "",
          "type": "bytes"
        }
      ],
      "name": "withdraw",
      "outputs": [],
      "stateMutability": "pure",
      "type": "function"
    },
    {
      "inputs": [
        {
          "internalType": "bytes",
          "name": "",
          "type": "bytes"
        },
        {
          "internalType": "bytes",
          "name": "",
          "type": "bytes"
        }
      ],
      "name": "withdrawableFrom",
      "outputs": [
        {
          "internalType": "uint256",
          "name": "",
          "type": "uint256"
        }
      ],
      "stateMutability": "pure",
      "type": "function"
    }
  ],
  "bytecode": {
    "object": "0x60e060405234801561001057600080fd5b506040516115cb3803806115cb83398101604081905261002f9161007e565b61003881610052565b91151560a0526001600160a01b031660805260c0526100d2565b670e92596fd629000081101561007b576040516397ed5f4160e01b815260040160405180910390fd5b50565b60008060006060848603121561009357600080fd5b835180151581146100a357600080fd5b60208501519093506001600160a01b03811681146100c057600080fd5b80925050604084015190509250925092565b60805160a05160c0516114bc61010f6000396000818161015b01526102cd01526000818161011f015261037e0152600061021b01526114bc6000f3fe608060405234801561001057600080fd5b50600436106101005760003560e01c806389353a0911610097578063c9111bd711610066578063c9111bd714610255578063d3bfe76a14610268578063e170a9bf1461027b578063fa50e5d21461028e57600080fd5b806389353a09146101dc5780638b9b9d40146101e3578063aeffddde146101f6578063b0e4556f1461021657600080fd5b806369445c31116100d357806369445c311461019b5780636dd659fd146101ae57806378415365146101c15780637998a1c4146101d457600080fd5b80631586ffbb14610105578063198775571461011a5780631caff8b1146101565780633e032a3b1461018b575b600080fd5b610118610113366004610df0565b6102a1565b005b6101417f000000000000000000000000000000000000000000000000000000000000000081565b60405190151581526020015b60405180910390f35b61017d7f000000000000000000000000000000000000000000000000000000000000000081565b60405190815260200161014d565b604051612328815260200161014d565b6101186101a9366004610ee8565b610320565b6101186101bc366004610f55565b610339565b61017d6101cf366004610f72565b61034e565b61017d6103aa565b6001610141565b6101186101f1366004610df0565b610413565b610209610204366004610f72565b6104c1565b60405161014d9190610fa7565b61023d7f000000000000000000000000000000000000000000000000000000000000000081565b6040516001600160a01b03909116815260200161014d565b610118610263366004610ff4565b610524565b610118610276366004611074565b61053d565b61023d610289366004610f72565b610556565b61017d61029c3660046110ad565b61057f565b6102aa82610588565b6102b48183610742565b60006102bf836107a6565b90506102cb8382610814565b7f0000000000000000000000000000000000000000000000000000000000000000111561031b5760405163c4bbf5fd60e01b81526001600160a01b03841660048201526024015b60405180910390fd5b505050565b604051633204ed5b60e21b815260040160405180910390fd5b61034281610588565b61034b816108e1565b50565b600080828060200190518101906103659190611111565b905060006103738233610956565b90506103a2828260007f00000000000000000000000000000000000000000000000000000000000000006109c5565b949350505050565b60006040516020016103f89060208082526022908201527f467261784c656e642064656274546f6b656e56322041646170746f722056203160408201526102e360f41b606082015260800190565b60405160208183030381529060405280519060200120905090565b61041c82610588565b600061042783610a4b565b905060006104358284610aaf565b90506000610447858360006001610b30565b905060006104558630610956565b905080600003610483576040516378d1784d60e01b81526001600160a01b0387166004820152602401610312565b8181101561048f578091505b6104a56001600160a01b03851687600019610b70565b6104af8683610bed565b6104b98487610c20565b505050505050565b604080516001808252818301909252606091602080830190803683370190505090506104ec82610556565b816000815181106104ff576104ff61112e565b60200260200101906001600160a01b031690816001600160a01b031681525050919050565b604051635f5003c560e11b815260040160405180910390fd5b6105526001600160a01b038316826000610b70565b5050565b6000808280602001905181019061056d9190611111565b905061057881610a4b565b9392505050565b60005b92915050565b60006105926103aa565b604080516001600160a01b03851660208201526001910160408051601f19818403018152908290526105c8939291602001611144565b6040516020818303038152906040528051906020012090506000306001600160a01b0316637b1039996040518163ffffffff1660e01b8152600401602060405180830381865afa158015610620573d6000803e3d6000fd5b505050506040513d601f19601f820116820180604052508101906106449190611111565b6001600160a01b03166309f7abd2836040518263ffffffff1660e01b815260040161067191815260200190565b602060405180830381865afa15801561068e573d6000803e3d6000fd5b505050506040513d601f19601f820116820180604052508101906106b291906111bc565b60405163024eefab60e61b815263ffffffff8216600482015290915030906393bbeac090602401602060405180830381865afa1580156106f6573d6000803e3d6000fd5b505050506040513d601f19601f8201168201806040525081019061071a91906111d7565b61031b57604051637d6840ef60e11b81526001600160a01b0384166004820152602401610312565b6040516372f89d8b60e11b815260048101839052600060248201523060448201526001600160a01b0382169063e5f13b16906064015b600060405180830381600087803b15801561079257600080fd5b505af11580156104b9573d6000803e3d6000fd5b6000816001600160a01b031663fbbbf94c6040518163ffffffff1660e01b815260040160a060405180830381865afa1580156107e6573d6000803e3d6000fd5b505050506040513d601f19601f8201168201806040525081019061080a91906111f9565b6080015192915050565b6000806108218430610956565b9050600061083285836001806109c5565b90508060000361084e57670e92596fd629000092505050610582565b600061085a8630610caf565b9050806000036108705760009350505050610582565b60008061087c88610ce1565b909250905060008383836108908b8961126d565b61089a9190611292565b6108a4919061126d565b6108ae9190611292565b905060006108bb8a610d58565b905060006108d282670de0b6b3a764000085610dbc565b9b9a5050505050505050505050565b604051631c6c959760e01b8152600060048201526001600160a01b03821690631c6c959790602401610180604051808303816000875af1158015610929573d6000803e3d6000fd5b505050506040513d601f19601f8201168201806040525081019061094d919061134a565b50505050505050565b604051634fd422df60e01b81526001600160a01b03828116600483015260009190841690634fd422df906024015b602060405180830381865afa1580156109a1573d6000803e3d6000fd5b505050506040513d601f19601f820116820180604052508101906105789190611410565b604051637ec4b57160e01b815260048101849052821515602482015281151560448201526000906001600160a01b03861690637ec4b571906064015b602060405180830381865afa158015610a1e573d6000803e3d6000fd5b505050506040513d601f19601f82011682018060405250810190610a429190611410565b95945050505050565b6000816001600160a01b03166338d52e0f6040518163ffffffff1660e01b8152600401602060405180830381865afa158015610a8b573d6000803e3d6000fd5b505050506040513d601f19601f820116820180604052508101906105829190611111565b60006000198203610b29576040516370a0823160e01b81523060048201526001600160a01b038416906370a0823190602401602060405180830381865afa158015610afe573d6000803e3d6000fd5b505050506040513d601f19601f82011682018060405250810190610b229190611410565b9050610582565b5080610582565b604051631c2591d360e01b815260048101849052821515602482015281151560448201526000906001600160a01b03861690631c2591d390606401610a01565b600060405163095ea7b360e01b8152836004820152826024820152602060006044836000895af13d15601f3d1160016000511416171691505080610be75760405162461bcd60e51b815260206004820152600e60248201526d1054141493d59157d1905253115160921b6044820152606401610312565b50505050565b604051633d417d2d60e01b8152600481018290523060248201526001600160a01b03831690633d417d2d90604401610778565b604051636eb1769f60e11b81523060048201526001600160a01b0382811660248301526000919084169063dd62ed3e90604401602060405180830381865afa158015610c70573d6000803e3d6000fd5b505050506040513d601f19601f82011682018060405250810190610c949190611410565b1115610552576105526001600160a01b038316826000610b70565b604051635ad7983160e11b81526001600160a01b0382811660048301526000919084169063b5af306290602401610984565b600080826001600160a01b0316639a295e736040518163ffffffff1660e01b815260040161010060405180830381865afa158015610d23573d6000803e3d6000fd5b505050506040513d601f19601f82011682018060405250810190610d479190611429565b509599919850909650505050505050565b6000816001600160a01b031663f384bd056040518163ffffffff1660e01b8152600401602060405180830381865afa158015610d98573d6000803e3d6000fd5b505050506040513d601f19601f820116820180604052508101906105829190611410565b828202811515841585830485141716610dd457600080fd5b0492915050565b6001600160a01b038116811461034b57600080fd5b60008060408385031215610e0357600080fd5b8235610e0e81610ddb565b946020939093013593505050565b634e487b7160e01b600052604160045260246000fd5b60405160a0810167ffffffffffffffff81118282101715610e5557610e55610e1c565b60405290565b600082601f830112610e6c57600080fd5b813567ffffffffffffffff80821115610e8757610e87610e1c565b604051601f8301601f19908116603f01168101908282118183101715610eaf57610eaf610e1c565b81604052838152866020858801011115610ec857600080fd5b836020870160208301376000602085830101528094505050505092915050565b600080600060608486031215610efd57600080fd5b83359250602084013567ffffffffffffffff80821115610f1c57600080fd5b610f2887838801610e5b565b93506040860135915080821115610f3e57600080fd5b50610f4b86828701610e5b565b9150509250925092565b600060208284031215610f6757600080fd5b813561057881610ddb565b600060208284031215610f8457600080fd5b813567ffffffffffffffff811115610f9b57600080fd5b6103a284828501610e5b565b6020808252825182820181905260009190848201906040850190845b81811015610fe85783516001600160a01b031683529284019291840191600101610fc3565b50909695505050505050565b6000806000806080858703121561100a57600080fd5b84359350602085013561101c81610ddb565b9250604085013567ffffffffffffffff8082111561103957600080fd5b61104588838901610e5b565b9350606087013591508082111561105b57600080fd5b5061106887828801610e5b565b91505092959194509250565b6000806040838503121561108757600080fd5b823561109281610ddb565b915060208301356110a281610ddb565b809150509250929050565b600080604083850312156110c057600080fd5b823567ffffffffffffffff808211156110d857600080fd5b6110e486838701610e5b565b935060208501359150808211156110fa57600080fd5b5061110785828601610e5b565b9150509250929050565b60006020828403121561112357600080fd5b815161057881610ddb565b634e487b7160e01b600052603260045260246000fd5b838152600060208415158184015260606040840152835180606085015260005b8181101561118057858101830151858201608001528201611164565b506000608082860101526080601f19601f83011685010192505050949350505050565b805163ffffffff811681146111b757600080fd5b919050565b6000602082840312156111ce57600080fd5b610578826111a3565b6000602082840312156111e957600080fd5b8151801515811461057857600080fd5b600060a0828403121561120b57600080fd5b611213610e32565b825161121e81610ddb565b815261122c602084016111a3565b602082015260408301516001600160b81b038116811461124b57600080fd5b6040820152606083810151908201526080928301519281019290925250919050565b808202811582820484141761058257634e487b7160e01b600052601160045260246000fd5b6000826112af57634e487b7160e01b600052601260045260246000fd5b500490565b805167ffffffffffffffff811681146111b757600080fd5b80516fffffffffffffffffffffffffffffffff811681146111b757600080fd5b6000604082840312156112fe57600080fd5b6040516040810181811067ffffffffffffffff8211171561132157611321610e1c565b604052905080611330836112cc565b815261133e602084016112cc565b60208201525092915050565b60008060008060008086880361018081121561136557600080fd5b87519650602088015195506040880151945060a0605f198201121561138957600080fd5b50611392610e32565b61139e606089016111a3565b81526113ac608089016111a3565b60208201526113bd60a089016112b4565b60408201526113ce60c089016112b4565b60608201526113df60e089016112b4565b608082015292506113f48861010089016112ec565b91506114048861014089016112ec565b90509295509295509295565b60006020828403121561142257600080fd5b5051919050565b600080600080600080600080610100898b03121561144657600080fd5b505086516020880151604089015160608a015160808b015160a08c015160c08d015160e0909d0151959e949d50929b919a5098509096509450909250905056fea26469706673582212203690b6a89e1aeb08c96997e57ad247970fb247b9d96f4c840cbb091955085fb264736f6c63430008150033",
    "linkReferences": {}
  },
  "methodIdentifiers": {
    "ACCOUNT_FOR_INTEREST()": "19877557",
    "FRAX()": "b0e4556f",
    "assetOf(bytes)": "e170a9bf",
    "assetsUsed(bytes)": "aeffddde",
    "balanceOf(bytes)": "78415365",
    "borrowFromFraxlend(address,uint256)": "1586ffbb",
    "callAddInterest(address)": "6dd659fd",
    "deposit(uint256,bytes,bytes)": "69445c31",
    "identifier()": "7998a1c4",
    "isDebt()": "89353a09",
    "minimumHealthFactor()": "1caff8b1",
    "repayFraxlendDebt(address,uint256)": "8b9b9d40",
    "revokeApproval(address,address)": "d3bfe76a",
    "slippage()": "3e032a3b",
    "withdraw(uint256,address,bytes,bytes)": "c9111bd7",
    "withdrawableFrom(bytes,bytes)": "fa50e5d2"
  },
  "id": 193
}