{
  "abi": [
    {
      "inputs": [
        {
          "internalType": "address",
          "name": "_morpho",
          "type": "address"
        },
        {
          "internalType": "uint256",
          "name": "minHealthFactor",
          "type": "uint256"
        }
      ],
      "stateMutability": "nonpayable",
      "type": "constructor"
    },
    {
      "inputs": [],
      "name": "BaseAdaptor__ConstructorHealthFactorTooLow",
      "type": "error"
    },
    {
      "inputs": [],
      "name": "BaseAdaptor__ExternalReceiverBlocked",
      "type": "error"
    },
    {
      "inputs": [
        {
          "internalType": "address",
          "name": "asset",
          "type": "address"
        }
      ],
      "name": "BaseAdaptor__PricingNotSupported",
      "type": "error"
    },
    {
      "inputs": [],
      "name": "BaseAdaptor__Slippage",
      "type": "error"
    },
    {
      "inputs": [],
      "name": "BaseAdaptor__UserDepositsNotAllowed",
      "type": "error"
    },
    {
      "inputs": [],
      "name": "BaseAdaptor__UserWithdrawsNotAllowed",
      "type": "error"
    },
    {
      "inputs": [
        {
          "internalType": "address",
          "name": "untrackedDebtPosition",
          "type": "address"
        }
      ],
      "name": "MorphoAaveV3DebtTokenAdaptor__DebtPositionsMustBeTracked",
      "type": "error"
    },
    {
      "inputs": [],
      "name": "MorphoAaveV3DebtTokenAdaptor__HealthFactorTooLow",
      "type": "error"
    },
    {
      "inputs": [
        {
          "internalType": "bytes",
          "name": "adaptorData",
          "type": "bytes"
        }
      ],
      "name": "assetOf",
      "outputs": [
        {
          "internalType": "contract ERC20",
          "name": "",
          "type": "address"
        }
      ],
      "stateMutability": "pure",
      "type": "function"
    },
    {
      "inputs": [
        {
          "internalType": "bytes",
          "name": "adaptorData",
          "type": "bytes"
        }
      ],
      "name": "assetsUsed",
      "outputs": [
        {
          "internalType": "contract ERC20[]",
          "name": "assets",
          "type": "address[]"
        }
      ],
      "stateMutability": "view",
      "type": "function"
    },
    {
      "inputs": [
        {
          "internalType": "bytes",
          "name": "adaptorData",
          "type": "bytes"
        }
      ],
      "name": "balanceOf",
      "outputs": [
        {
          "internalType": "uint256",
          "name": "",
          "type": "uint256"
        }
      ],
      "stateMutability": "view",
      "type": "function"
    },
    {
      "inputs": [
        {
          "internalType": "address",
          "name": "underlying",
          "type": "address"
        },
        {
          "internalType": "uint256",
          "name": "amountToBorrow",
          "type": "uint256"
        },
        {
          "internalType": "uint256",
          "name": "maxIterations",
          "type": "uint256"
        }
      ],
      "name": "borrowFromAaveV3Morpho",
      "outputs": [],
      "stateMutability": "nonpayable",
      "type": "function"
    },
    {
      "inputs": [
        {
          "internalType": "uint256",
          "name": "",
          "type": "uint256"
        },
        {
          "internalType": "bytes",
          "name": "",
          "type": "bytes"
        },
        {
          "internalType": "bytes",
          "name": "",
          "type": "bytes"
        }
      ],
      "name": "deposit",
      "outputs": [],
      "stateMutability": "pure",
      "type": "function"
    },
    {
      "inputs": [],
      "name": "identifier",
      "outputs": [
        {
          "internalType": "bytes32",
          "name": "",
          "type": "bytes32"
        }
      ],
      "stateMutability": "pure",
      "type": "function"
    },
    {
      "inputs": [],
      "name": "isDebt",
      "outputs": [
        {
          "internalType": "bool",
          "name": "",
          "type": "bool"
        }
      ],
      "stateMutability": "pure",
      "type": "function"
    },
    {
      "inputs": [],
      "name": "minimumHealthFactor",
      "outputs": [
        {
          "internalType": "uint256",
          "name": "",
          "type": "uint256"
        }
      ],
      "stateMutability": "view",
      "type": "function"
    },
    {
      "inputs": [],
      "name": "morpho",
      "outputs": [
        {
          "internalType": "contract IMorphoV3",
          "name": "",
          "type": "address"
        }
      ],
      "stateMutability": "view",
      "type": "function"
    },
    {
      "inputs": [
        {
          "internalType": "contract ERC20",
          "name": "tokenToRepay",
          "type": "address"
        },
        {
          "internalType": "uint256",
          "name": "amountToRepay",
          "type": "uint256"
        }
      ],
      "name": "repayAaveV3MorphoDebt",
      "outputs": [],
      "stateMutability": "nonpayable",
      "type": "function"
    },
    {
      "inputs": [
        {
          "internalType": "contract ERC20",
          "name": "asset",
          "type": "address"
        },
        {
          "internalType": "address",
          "name": "spender",
          "type": "address"
        }
      ],
      "name": "revokeApproval",
      "outputs": [],
      "stateMutability": "nonpayable",
      "type": "function"
    },
    {
      "inputs": [],
      "name": "slippage",
      "outputs": [
        {
          "internalType": "uint32",
          "name": "",
          "type": "uint32"
        }
      ],
      "stateMutability": "pure",
      "type": "function"
    },
    {
      "inputs": [
        {
          "internalType": "uint256",
          "name": "",
          "type": "uint256"
        },
        {
          "internalType": "address",
          "name": "",
          "type": "address"
        },
        {
          "internalType": "bytes",
          "name": "",
          "type": "bytes"
        },
        {
          "internalType": "bytes",
          "name": "",
          "type": "bytes"
        }
      ],
      "name": "withdraw",
      "outputs": [],
      "stateMutability": "pure",
      "type": "function"
    },
    {
      "inputs": [
        {
          "internalType": "bytes",
          "name": "",
          "type": "bytes"
        },
        {
          "internalType": "bytes",
          "name": "",
          "type": "bytes"
        }
      ],
      "name": "withdrawableFrom",
      "outputs": [
        {
          "internalType": "uint256",
          "name": "",
          "type": "uint256"
        }
      ],
      "stateMutability": "pure",
      "type": "function"
    }
  ],
  "bytecode": {
    "object": "0x60c060405234801561001057600080fd5b50604051610f92380380610f9283398101604081905261002f9161007a565b6100388161004e565b6001600160a01b0390911660805260a0526100b4565b670e92596fd6290000811015610077576040516397ed5f4160e01b815260040160405180910390fd5b50565b6000806040838503121561008d57600080fd5b82516001600160a01b03811681146100a457600080fd5b6020939093015192949293505050565b60805160a051610e896101096000396000818160f4015261061c0152600081816101d6015281816102a40152818161057e015281816105f30152818161071e0152818161076f01526107e30152610e896000f3fe608060405234801561001057600080fd5b50600436106100ea5760003560e01c8063aeffddde1161008c578063d8fbc83311610066578063d8fbc833146101d1578063e170a9bf14610210578063e5afd9b614610223578063fa50e5d21461023657600080fd5b8063aeffddde1461018b578063c9111bd7146101ab578063d3bfe76a146101be57600080fd5b806378415365116100c8578063784153651461014e5780637998a1c41461016157806389353a0914610169578063a6cfba9a1461017857600080fd5b80631caff8b1146100ef5780633e032a3b1461012957806369445c3114610139575b600080fd5b6101167f000000000000000000000000000000000000000000000000000000000000000081565b6040519081526020015b60405180910390f35b6040516123288152602001610120565b61014c610147366004610a7f565b61024c565b005b61011661015c366004610aec565b610265565b610116610318565b60405160018152602001610120565b61014c610186366004610b39565b610385565b61019e610199366004610aec565b610663565b6040516101209190610b6e565b61014c6101b9366004610bbb565b6106c6565b61014c6101cc366004610c3b565b6106df565b6101f87f000000000000000000000000000000000000000000000000000000000000000081565b6040516001600160a01b039091168152602001610120565b6101f861021e366004610aec565b6106f8565b61014c610231366004610c74565b61070f565b610116610244366004610ca0565b600092915050565b604051633204ed5b60e21b815260040160405180910390fd5b6000808280602001905181019061027c9190610d04565b60405163ccdbe8b160e01b81526001600160a01b0380831660048301523360248301529192507f00000000000000000000000000000000000000000000000000000000000000009091169063ccdbe8b190604401602060405180830381865afa1580156102ed573d6000803e3d6000fd5b505050506040513d601f19601f820116820180604052508101906103119190610d21565b9392505050565b600060405160200161036a9060208082526026908201527f4d6f7270686f20416176652056332064656274546f6b656e2041646170746f72604082015265205620312e3160d01b606082015260800190565b60405160208183030381529060405280519060200120905090565b600061038f610318565b604080516001600160a01b03871660208201526001910160408051601f19818403018152908290526103c5939291602001610d3a565b6040516020818303038152906040528051906020012090506000306001600160a01b0316637b1039996040518163ffffffff1660e01b8152600401602060405180830381865afa15801561041d573d6000803e3d6000fd5b505050506040513d601f19601f820116820180604052508101906104419190610d04565b6001600160a01b03166309f7abd2836040518263ffffffff1660e01b815260040161046e91815260200190565b602060405180830381865afa15801561048b573d6000803e3d6000fd5b505050506040513d601f19601f820116820180604052508101906104af9190610d99565b60405163024eefab60e61b815263ffffffff8216600482015290915030906393bbeac090602401602060405180830381865afa1580156104f3573d6000803e3d6000fd5b505050506040513d601f19601f820116820180604052508101906105179190610dbf565b6105445760405163792c47cf60e11b81526001600160a01b03861660048201526024015b60405180910390fd5b604051634cc9040360e11b81526001600160a01b0386811660048301526024820186905230604483018190526064830152608482018590527f0000000000000000000000000000000000000000000000000000000000000000169063999208069060a4016020604051808303816000875af11580156105c7573d6000803e3d6000fd5b505050506040513d601f19601f820116820180604052508101906105eb9190610d21565b5060006106187f000000000000000000000000000000000000000000000000000000000000000030610807565b90507f000000000000000000000000000000000000000000000000000000000000000081101561065b576040516309ca680760e41b815260040160405180910390fd5b505050505050565b6040805160018082528183019092526060916020808301908036833701905050905061068e826106f8565b816000815181106106a1576106a1610de1565b60200260200101906001600160a01b031690816001600160a01b031681525050919050565b604051635f5003c560e11b815260040160405180910390fd5b6106f46001600160a01b0383168260006108b1565b5050565b600080828060200190518101906103119190610d04565b6107436001600160a01b0383167f0000000000000000000000000000000000000000000000000000000000000000836108b1565b60405163173aba7160e21b81526001600160a01b038381166004830152602482018390523060448301527f00000000000000000000000000000000000000000000000000000000000000001690635ceae9c4906064016020604051808303816000875af11580156107b8573d6000803e3d6000fd5b505050506040513d601f19601f820116820180604052508101906107dc9190610d21565b506106f4827f000000000000000000000000000000000000000000000000000000000000000061092e565b604051632459428560e11b81526001600160a01b03828116600483015260009182918516906348b2850a90602401606060405180830381865afa158015610852573d6000803e3d6000fd5b505050506040513d601f19601f820116820180604052508101906108769190610df7565b9050600081604001511161088c576000196108a9565b602081015160408201516108a991670de0b6b3a7640000916109bd565b949350505050565b600060405163095ea7b360e01b8152836004820152826024820152602060006044836000895af13d15601f3d11600160005114161716915050806109285760405162461bcd60e51b815260206004820152600e60248201526d1054141493d59157d1905253115160921b604482015260640161053b565b50505050565b604051636eb1769f60e11b81523060048201526001600160a01b0382811660248301526000919084169063dd62ed3e90604401602060405180830381865afa15801561097e573d6000803e3d6000fd5b505050506040513d601f19601f820116820180604052508101906109a29190610d21565b11156106f4576106f46001600160a01b0383168260006108b1565b8282028115158415858304851417166109d557600080fd5b0492915050565b634e487b7160e01b600052604160045260246000fd5b600082601f830112610a0357600080fd5b813567ffffffffffffffff80821115610a1e57610a1e6109dc565b604051601f8301601f19908116603f01168101908282118183101715610a4657610a466109dc565b81604052838152866020858801011115610a5f57600080fd5b836020870160208301376000602085830101528094505050505092915050565b600080600060608486031215610a9457600080fd5b83359250602084013567ffffffffffffffff80821115610ab357600080fd5b610abf878388016109f2565b93506040860135915080821115610ad557600080fd5b50610ae2868287016109f2565b9150509250925092565b600060208284031215610afe57600080fd5b813567ffffffffffffffff811115610b1557600080fd5b6108a9848285016109f2565b6001600160a01b0381168114610b3657600080fd5b50565b600080600060608486031215610b4e57600080fd5b8335610b5981610b21565b95602085013595506040909401359392505050565b6020808252825182820181905260009190848201906040850190845b81811015610baf5783516001600160a01b031683529284019291840191600101610b8a565b50909695505050505050565b60008060008060808587031215610bd157600080fd5b843593506020850135610be381610b21565b9250604085013567ffffffffffffffff80821115610c0057600080fd5b610c0c888389016109f2565b93506060870135915080821115610c2257600080fd5b50610c2f878288016109f2565b91505092959194509250565b60008060408385031215610c4e57600080fd5b8235610c5981610b21565b91506020830135610c6981610b21565b809150509250929050565b60008060408385031215610c8757600080fd5b8235610c9281610b21565b946020939093013593505050565b60008060408385031215610cb357600080fd5b823567ffffffffffffffff80821115610ccb57600080fd5b610cd7868387016109f2565b93506020850135915080821115610ced57600080fd5b50610cfa858286016109f2565b9150509250929050565b600060208284031215610d1657600080fd5b815161031181610b21565b600060208284031215610d3357600080fd5b5051919050565b838152600060208415158184015260606040840152835180606085015260005b81811015610d7657858101830151858201608001528201610d5a565b506000608082860101526080601f19601f83011685010192505050949350505050565b600060208284031215610dab57600080fd5b815163ffffffff8116811461031157600080fd5b600060208284031215610dd157600080fd5b8151801515811461031157600080fd5b634e487b7160e01b600052603260045260246000fd5b600060608284031215610e0957600080fd5b6040516060810181811067ffffffffffffffff82111715610e2c57610e2c6109dc565b8060405250825181526020830151602082015260408301516040820152809150509291505056fea2646970667358221220d49b3ebebafe62c6e7cb0efe3e5039da6b768a199f56d22f65591f67cf61607c64736f6c63430008100033",
    "linkReferences": {}
  },
  "methodIdentifiers": {
    "assetOf(bytes)": "e170a9bf",
    "assetsUsed(bytes)": "aeffddde",
    "balanceOf(bytes)": "78415365",
    "borrowFromAaveV3Morpho(address,uint256,uint256)": "a6cfba9a",
    "deposit(uint256,bytes,bytes)": "69445c31",
    "identifier()": "7998a1c4",
    "isDebt()": "89353a09",
    "minimumHealthFactor()": "1caff8b1",
    "morpho()": "d8fbc833",
    "repayAaveV3MorphoDebt(address,uint256)": "e5afd9b6",
    "revokeApproval(address,address)": "d3bfe76a",
    "slippage()": "3e032a3b",
    "withdraw(uint256,address,bytes,bytes)": "c9111bd7",
    "withdrawableFrom(bytes,bytes)": "fa50e5d2"
  },
  "id": 201
}