{
  "abi": [
    {
      "inputs": [
        {
          "internalType": "address",
          "name": "_morpho",
          "type": "address"
        },
        {
          "internalType": "address",
          "name": "_morphoLens",
          "type": "address"
        },
        {
          "internalType": "uint256",
          "name": "minHealthFactor",
          "type": "uint256"
        },
        {
          "internalType": "address",
          "name": "rewardDistributor",
          "type": "address"
        }
      ],
      "stateMutability": "nonpayable",
      "type": "constructor"
    },
    {
      "inputs": [],
      "name": "BaseAdaptor__ConstructorHealthFactorTooLow",
      "type": "error"
    },
    {
      "inputs": [],
      "name": "BaseAdaptor__ExternalReceiverBlocked",
      "type": "error"
    },
    {
      "inputs": [
        {
          "internalType": "address",
          "name": "asset",
          "type": "address"
        }
      ],
      "name": "BaseAdaptor__PricingNotSupported",
      "type": "error"
    },
    {
      "inputs": [],
      "name": "BaseAdaptor__Slippage",
      "type": "error"
    },
    {
      "inputs": [],
      "name": "BaseAdaptor__UserDepositsNotAllowed",
      "type": "error"
    },
    {
      "inputs": [],
      "name": "BaseAdaptor__UserWithdrawsNotAllowed",
      "type": "error"
    },
    {
      "inputs": [],
      "name": "MorphoAaveV2ATokenAdaptor__HealthFactorTooLow",
      "type": "error"
    },
    {
      "inputs": [],
      "name": "BORROWING_MASK",
      "outputs": [
        {
          "internalType": "bytes32",
          "name": "",
          "type": "bytes32"
        }
      ],
      "stateMutability": "view",
      "type": "function"
    },
    {
      "inputs": [
        {
          "internalType": "bytes",
          "name": "adaptorData",
          "type": "bytes"
        }
      ],
      "name": "assetOf",
      "outputs": [
        {
          "internalType": "contract ERC20",
          "name": "",
          "type": "address"
        }
      ],
      "stateMutability": "view",
      "type": "function"
    },
    {
      "inputs": [
        {
          "internalType": "bytes",
          "name": "adaptorData",
          "type": "bytes"
        }
      ],
      "name": "assetsUsed",
      "outputs": [
        {
          "internalType": "contract ERC20[]",
          "name": "assets",
          "type": "address[]"
        }
      ],
      "stateMutability": "view",
      "type": "function"
    },
    {
      "inputs": [
        {
          "internalType": "bytes",
          "name": "adaptorData",
          "type": "bytes"
        }
      ],
      "name": "balanceOf",
      "outputs": [
        {
          "internalType": "uint256",
          "name": "",
          "type": "uint256"
        }
      ],
      "stateMutability": "view",
      "type": "function"
    },
    {
      "inputs": [
        {
          "internalType": "uint256",
          "name": "claimable",
          "type": "uint256"
        },
        {
          "internalType": "bytes32[]",
          "name": "proof",
          "type": "bytes32[]"
        }
      ],
      "name": "claim",
      "outputs": [],
      "stateMutability": "nonpayable",
      "type": "function"
    },
    {
      "inputs": [
        {
          "internalType": "uint256",
          "name": "assets",
          "type": "uint256"
        },
        {
          "internalType": "bytes",
          "name": "adaptorData",
          "type": "bytes"
        },
        {
          "internalType": "bytes",
          "name": "",
          "type": "bytes"
        }
      ],
      "name": "deposit",
      "outputs": [],
      "stateMutability": "nonpayable",
      "type": "function"
    },
    {
      "inputs": [
        {
          "internalType": "contract IAaveToken",
          "name": "aToken",
          "type": "address"
        },
        {
          "internalType": "uint256",
          "name": "amountToDeposit",
          "type": "uint256"
        }
      ],
      "name": "depositToAaveV2Morpho",
      "outputs": [],
      "stateMutability": "nonpayable",
      "type": "function"
    },
    {
      "inputs": [],
      "name": "identifier",
      "outputs": [
        {
          "internalType": "bytes32",
          "name": "",
          "type": "bytes32"
        }
      ],
      "stateMutability": "pure",
      "type": "function"
    },
    {
      "inputs": [
        {
          "internalType": "address",
          "name": "user",
          "type": "address"
        }
      ],
      "name": "isBorrowingAny",
      "outputs": [
        {
          "internalType": "bool",
          "name": "",
          "type": "bool"
        }
      ],
      "stateMutability": "view",
      "type": "function"
    },
    {
      "inputs": [],
      "name": "isDebt",
      "outputs": [
        {
          "internalType": "bool",
          "name": "",
          "type": "bool"
        }
      ],
      "stateMutability": "pure",
      "type": "function"
    },
    {
      "inputs": [],
      "name": "minimumHealthFactor",
      "outputs": [
        {
          "internalType": "uint256",
          "name": "",
          "type": "uint256"
        }
      ],
      "stateMutability": "view",
      "type": "function"
    },
    {
      "inputs": [],
      "name": "morpho",
      "outputs": [
        {
          "internalType": "contract IMorphoV2",
          "name": "",
          "type": "address"
        }
      ],
      "stateMutability": "view",
      "type": "function"
    },
    {
      "inputs": [],
      "name": "morphoLens",
      "outputs": [
        {
          "internalType": "contract IMorphoLensV2",
          "name": "",
          "type": "address"
        }
      ],
      "stateMutability": "view",
      "type": "function"
    },
    {
      "inputs": [],
      "name": "morphoRewardsDistributor",
      "outputs": [
        {
          "internalType": "contract RewardsDistributor",
          "name": "",
          "type": "address"
        }
      ],
      "stateMutability": "view",
      "type": "function"
    },
    {
      "inputs": [
        {
          "internalType": "contract ERC20",
          "name": "asset",
          "type": "address"
        },
        {
          "internalType": "address",
          "name": "spender",
          "type": "address"
        }
      ],
      "name": "revokeApproval",
      "outputs": [],
      "stateMutability": "nonpayable",
      "type": "function"
    },
    {
      "inputs": [],
      "name": "slippage",
      "outputs": [
        {
          "internalType": "uint32",
          "name": "",
          "type": "uint32"
        }
      ],
      "stateMutability": "pure",
      "type": "function"
    },
    {
      "inputs": [
        {
          "internalType": "uint256",
          "name": "assets",
          "type": "uint256"
        },
        {
          "internalType": "address",
          "name": "receiver",
          "type": "address"
        },
        {
          "internalType": "bytes",
          "name": "adaptorData",
          "type": "bytes"
        },
        {
          "internalType": "bytes",
          "name": "",
          "type": "bytes"
        }
      ],
      "name": "withdraw",
      "outputs": [],
      "stateMutability": "nonpayable",
      "type": "function"
    },
    {
      "inputs": [
        {
          "internalType": "contract IAaveToken",
          "name": "aToken",
          "type": "address"
        },
        {
          "internalType": "uint256",
          "name": "amountToWithdraw",
          "type": "uint256"
        }
      ],
      "name": "withdrawFromAaveV2Morpho",
      "outputs": [],
      "stateMutability": "nonpayable",
      "type": "function"
    },
    {
      "inputs": [
        {
          "internalType": "bytes",
          "name": "adaptorData",
          "type": "bytes"
        },
        {
          "internalType": "bytes",
          "name": "",
          "type": "bytes"
        }
      ],
      "name": "withdrawableFrom",
      "outputs": [
        {
          "internalType": "uint256",
          "name": "",
          "type": "uint256"
        }
      ],
      "stateMutability": "view",
      "type": "function"
    }
  ],
  "bytecode": {
    "object": "0x6101006040523480156200001257600080fd5b50604051620016e1380380620016e18339810160408190526200003591620000b4565b6001600160a01b0381166080526200004d826200006a565b506001600160a01b0392831660a052911660c05260e05262000108565b670e92596fd629000081101562000094576040516397ed5f4160e01b815260040160405180910390fd5b50565b80516001600160a01b0381168114620000af57600080fd5b919050565b60008060008060808587031215620000cb57600080fd5b620000d68562000097565b9350620000e66020860162000097565b925060408501519150620000fd6060860162000097565b905092959194509250565b60805160a05160c05160e051611536620001ab6000396000818161012b01526108ca0152600081816101ad01526108520152600081816102db015281816103cd015281816104e40152818161052f015281816105910152818161064701528181610692015281816106f4015281816107df015281816109e301528181610cdf01528181610d7b0152610e280152600081816101ff015261033a01526115366000f3fe608060405234801561001057600080fd5b50600436106101215760003560e01c80637998a1c4116100ad578063c9111bd711610071578063c9111bd7146102b0578063d3bfe76a146102c3578063d8fbc833146102d6578063e170a9bf146102fd578063fa50e5d21461031057600080fd5b80637998a1c414610247578063872de8121461024f57806389353a0914610262578063aeffddde14610269578063b505e7a21461028957600080fd5b8063425734d3116100f4578063425734d3146101a85780635528481b146101e75780635b5d4d78146101fa57806369445c3114610221578063784153651461023457600080fd5b80631caff8b1146101265780632f52ebb7146101605780632f93417c146101755780633e032a3b14610198575b600080fd5b61014d7f000000000000000000000000000000000000000000000000000000000000000081565b6040519081526020015b60405180910390f35b61017361016e366004610fc9565b610323565b005b610188610183366004611090565b6103a9565b6040519015158152602001610157565b6040516123288152602001610157565b6101cf7f000000000000000000000000000000000000000000000000000000000000000081565b6040516001600160a01b039091168152602001610157565b6101736101f53660046110ad565b610463565b6101cf7f000000000000000000000000000000000000000000000000000000000000000081565b61017361022f366004611149565b6105ba565b61014d6102423660046111b6565b61071f565b61014d610749565b61017361025d3660046110ad565b6107b3565b6000610188565b61027c6102773660046111b6565b610909565b60405161015791906111f3565b61014d7f555555555555555555555555555555555555555555555555555555555555555581565b6101736102be366004611240565b61096c565b6101736102d13660046112c0565b610a48565b6101cf7f000000000000000000000000000000000000000000000000000000000000000081565b6101cf61030b3660046111b6565b610a61565b61014d61031e3660046112f9565b610adc565b604051630f44fe1d60e21b81526001600160a01b037f00000000000000000000000000000000000000000000000000000000000000001690633d13f874906103739030908690869060040161135d565b600060405180830381600087803b15801561038d57600080fd5b505af11580156103a1573d6000803e3d6000fd5b505050505050565b604051630bc45d1960e41b81526001600160a01b03828116600483015260009182917f0000000000000000000000000000000000000000000000000000000000000000169063bc45d19090602401602060405180830381865afa158015610414573d6000803e3d6000fd5b505050506040513d601f19601f8201168201806040525081019061043891906113ba565b7f55555555555555555555555555555555555555555555555555555555555555551615159392505050565b6000826001600160a01b031663b16a19de6040518163ffffffff1660e01b8152600401602060405180830381865afa1580156104a3573d6000803e3d6000fd5b505050506040513d601f19601f820116820180604052508101906104c791906113d3565b90506104d38183610b20565b91506105096001600160a01b0382167f000000000000000000000000000000000000000000000000000000000000000084610ba1565b604051631e573fb760e31b81526001600160a01b038481166004830152602482018490527f0000000000000000000000000000000000000000000000000000000000000000169063f2b9fdb890604401600060405180830381600087803b15801561057357600080fd5b505af1158015610587573d6000803e3d6000fd5b505050506105b5817f0000000000000000000000000000000000000000000000000000000000000000610c22565b505050565b6000828060200190518101906105d091906113d3565b90506000816001600160a01b031663b16a19de6040518163ffffffff1660e01b8152600401602060405180830381865afa158015610612573d6000803e3d6000fd5b505050506040513d601f19601f8201168201806040525081019061063691906113d3565b905061066c6001600160a01b0382167f000000000000000000000000000000000000000000000000000000000000000087610ba1565b604051631e573fb760e31b81526001600160a01b038381166004830152602482018790527f0000000000000000000000000000000000000000000000000000000000000000169063f2b9fdb890604401600060405180830381600087803b1580156106d657600080fd5b505af11580156106ea573d6000803e3d6000fd5b50505050610718817f0000000000000000000000000000000000000000000000000000000000000000610c22565b5050505050565b6000808280602001905181019061073691906113d3565b90506107428133610cb1565b9392505050565b60006040516020016107989060208082526023908201527f4d6f7270686f20416176652056322061546f6b656e2041646170746f7220562060408201526218971960e91b606082015260800190565b60405160208183030381529060405280519060200120905090565b604051631a4ca37b60e21b81526001600160a01b038381166004830152602482018390523060448301527f000000000000000000000000000000000000000000000000000000000000000016906369328dec90606401600060405180830381600087803b15801561082357600080fd5b505af1158015610837573d6000803e3d6000fd5b5050604051630e397f9360e31b8152306004820152600092507f00000000000000000000000000000000000000000000000000000000000000006001600160a01b031691506371cbfc9890602401602060405180830381865afa1580156108a2573d6000803e3d6000fd5b505050506040513d601f19601f820116820180604052508101906108c691906113ba565b90507f00000000000000000000000000000000000000000000000000000000000000008110156105b557604051630d32445160e21b815260040160405180910390fd5b6040805160018082528183019092526060916020808301908036833701905050905061093482610a61565b81600081518110610947576109476113f0565b60200260200101906001600160a01b031690816001600160a01b031681525050919050565b61097583610ecc565b61097e306103a9565b1561099c57604051635f5003c560e11b815260040160405180910390fd5b6000828060200190518101906109b291906113d3565b604051631a4ca37b60e21b81526001600160a01b0380831660048301526024820188905286811660448301529192507f0000000000000000000000000000000000000000000000000000000000000000909116906369328dec90606401600060405180830381600087803b158015610a2957600080fd5b505af1158015610a3d573d6000803e3d6000fd5b505050505050505050565b610a5d6001600160a01b038316826000610ba1565b5050565b60008082806020019051810190610a7891906113d3565b9050806001600160a01b031663b16a19de6040518163ffffffff1660e01b8152600401602060405180830381865afa158015610ab8573d6000803e3d6000fd5b505050506040513d601f19601f8201168201806040525081019061074291906113d3565b6000610ae7336103a9565b15610af457506000610b1a565b600083806020019051810190610b0a91906113d3565b9050610b168133610cb1565b9150505b92915050565b60006000198203610b9a576040516370a0823160e01b81523060048201526001600160a01b038416906370a0823190602401602060405180830381865afa158015610b6f573d6000803e3d6000fd5b505050506040513d601f19601f82011682018060405250810190610b9391906113ba565b9050610b1a565b5080610b1a565b600060405163095ea7b360e01b8152836004820152826024820152602060006044836000895af13d15601f3d1160016000511416171691505080610c1c5760405162461bcd60e51b815260206004820152600e60248201526d1054141493d59157d1905253115160921b604482015260640160405180910390fd5b50505050565b604051636eb1769f60e11b81523060048201526001600160a01b0382811660248301526000919084169063dd62ed3e90604401602060405180830381865afa158015610c72573d6000803e3d6000fd5b505050506040513d601f19601f82011682018060405250810190610c9691906113ba565b1115610a5d57610a5d6001600160a01b038316826000610ba1565b6040516339407b4160e21b81526001600160a01b0383811660048301528281166024830152600091829182917f00000000000000000000000000000000000000000000000000000000000000009091169063e501ed04906044016040805180830381865afa158015610d27573d6000803e3d6000fd5b505050506040513d601f19601f82011682018060405250810190610d4b9190611406565b909250905060008215610dff5760405163854f7ebb60e01b81526001600160a01b038781166004830152610dfc917f00000000000000000000000000000000000000000000000000000000000000009091169063854f7ebb90602401602060405180830381865afa158015610dc4573d6000803e3d6000fd5b505050506040513d601f19601f82011682018060405250810190610de891906113ba565b84906b033b2e3c9fd0803ce8000000610f63565b90505b8115610ec357604051631987357f60e21b81526001600160a01b038781166004830152610eb6917f00000000000000000000000000000000000000000000000000000000000000009091169063661cd5fc90602401606060405180830381865afa158015610e71573d6000803e3d6000fd5b505050506040513d601f19601f82011682018060405250810190610e959190611446565b6020015183906001600160701b03166b033b2e3c9fd0803ce8000000610f63565b610ec090826114bd565b90505b95945050505050565b6001600160a01b0381163014801590610f425750306001600160a01b0316634c4602da6040518163ffffffff1660e01b8152600401602060405180830381865afa158015610f1e573d6000803e3d6000fd5b505050506040513d601f19601f82011682018060405250810190610f4291906114de565b15610f60576040516307de9b5160e21b815260040160405180910390fd5b50565b828202811515841585830485141716610f7b57600080fd5b0492915050565b634e487b7160e01b600052604160045260246000fd5b604051601f8201601f1916810167ffffffffffffffff81118282101715610fc157610fc1610f82565b604052919050565b60008060408385031215610fdc57600080fd5b8235915060208084013567ffffffffffffffff80821115610ffc57600080fd5b818601915086601f83011261101057600080fd5b81358181111561102257611022610f82565b8060051b9150611033848301610f98565b818152918301840191848101908984111561104d57600080fd5b938501935b8385101561106b57843582529385019390850190611052565b8096505050505050509250929050565b6001600160a01b0381168114610f6057600080fd5b6000602082840312156110a257600080fd5b81356107428161107b565b600080604083850312156110c057600080fd5b82356110cb8161107b565b946020939093013593505050565b600082601f8301126110ea57600080fd5b813567ffffffffffffffff81111561110457611104610f82565b611117601f8201601f1916602001610f98565b81815284602083860101111561112c57600080fd5b816020850160208301376000918101602001919091529392505050565b60008060006060848603121561115e57600080fd5b83359250602084013567ffffffffffffffff8082111561117d57600080fd5b611189878388016110d9565b9350604086013591508082111561119f57600080fd5b506111ac868287016110d9565b9150509250925092565b6000602082840312156111c857600080fd5b813567ffffffffffffffff8111156111df57600080fd5b6111eb848285016110d9565b949350505050565b6020808252825182820181905260009190848201906040850190845b818110156112345783516001600160a01b03168352928401929184019160010161120f565b50909695505050505050565b6000806000806080858703121561125657600080fd5b8435935060208501356112688161107b565b9250604085013567ffffffffffffffff8082111561128557600080fd5b611291888389016110d9565b935060608701359150808211156112a757600080fd5b506112b4878288016110d9565b91505092959194509250565b600080604083850312156112d357600080fd5b82356112de8161107b565b915060208301356112ee8161107b565b809150509250929050565b6000806040838503121561130c57600080fd5b823567ffffffffffffffff8082111561132457600080fd5b611330868387016110d9565b9350602085013591508082111561134657600080fd5b50611353858286016110d9565b9150509250929050565b6001600160a01b038416815260208082018490526060604083018190528351908301819052600091848101916080850190845b818110156113ac57845183529383019391830191600101611390565b509098975050505050505050565b6000602082840312156113cc57600080fd5b5051919050565b6000602082840312156113e557600080fd5b81516107428161107b565b634e487b7160e01b600052603260045260246000fd5b6000806040838503121561141957600080fd5b505080516020909101519092909150565b80516001600160701b038116811461144157600080fd5b919050565b60006060828403121561145857600080fd5b6040516060810181811067ffffffffffffffff8211171561147b5761147b610f82565b604052825163ffffffff8116811461149257600080fd5b81526114a06020840161142a565b60208201526114b16040840161142a565b60408201529392505050565b80820180821115610b1a57634e487b7160e01b600052601160045260246000fd5b6000602082840312156114f057600080fd5b8151801515811461074257600080fdfea26469706673582212208d0b9e9929cd445f957cd709018304e40085baf90a6dc5e1569d164efc0f8c9664736f6c63430008100033",
    "linkReferences": {}
  },
  "methodIdentifiers": {
    "BORROWING_MASK()": "b505e7a2",
    "assetOf(bytes)": "e170a9bf",
    "assetsUsed(bytes)": "aeffddde",
    "balanceOf(bytes)": "78415365",
    "claim(uint256,bytes32[])": "2f52ebb7",
    "deposit(uint256,bytes,bytes)": "69445c31",
    "depositToAaveV2Morpho(address,uint256)": "5528481b",
    "identifier()": "7998a1c4",
    "isBorrowingAny(address)": "2f93417c",
    "isDebt()": "89353a09",
    "minimumHealthFactor()": "1caff8b1",
    "morpho()": "d8fbc833",
    "morphoLens()": "425734d3",
    "morphoRewardsDistributor()": "5b5d4d78",
    "revokeApproval(address,address)": "d3bfe76a",
    "slippage()": "3e032a3b",
    "withdraw(uint256,address,bytes,bytes)": "c9111bd7",
    "withdrawFromAaveV2Morpho(address,uint256)": "872de812",
    "withdrawableFrom(bytes,bytes)": "fa50e5d2"
  },
  "id": 197
}