{
  "abi": [
    {
      "inputs": [
        {
          "internalType": "contract ERC20",
          "name": "_asset",
          "type": "address"
        },
        {
          "internalType": "uint256",
          "name": "_liquidityLimit",
          "type": "uint256"
        },
        {
          "internalType": "uint256",
          "name": "_depositLimit",
          "type": "uint256"
        },
        {
          "internalType": "contract ICurveSwaps",
          "name": "_curveRegistryExchange",
          "type": "address"
        },
        {
          "internalType": "contract ISushiSwapRouter",
          "name": "_sushiswapRouter",
          "type": "address"
        },
        {
          "internalType": "contract ILendingPool",
          "name": "_lendingPool",
          "type": "address"
        },
        {
          "internalType": "contract IAaveIncentivesController",
          "name": "_incentivesController",
          "type": "address"
        },
        {
          "internalType": "contract IGravity",
          "name": "_gravityBridge",
          "type": "address"
        },
        {
          "internalType": "contract IStakedTokenV2",
          "name": "_stkAAVE",
          "type": "address"
        },
        {
          "internalType": "contract ERC20",
          "name": "_AAVE",
          "type": "address"
        },
        {
          "internalType": "contract ERC20",
          "name": "_WETH",
          "type": "address"
        }
      ],
      "stateMutability": "nonpayable",
      "type": "constructor"
    },
    {
      "inputs": [],
      "name": "STATE_ContractShutdown",
      "type": "error"
    },
    {
      "inputs": [
        {
          "internalType": "uint256",
          "name": "maxDeposit",
          "type": "uint256"
        }
      ],
      "name": "USR_DepositRestricted",
      "type": "error"
    },
    {
      "inputs": [
        {
          "internalType": "uint256",
          "name": "maxLiquidity",
          "type": "uint256"
        }
      ],
      "name": "USR_LiquidityRestricted",
      "type": "error"
    },
    {
      "inputs": [
        {
          "internalType": "uint256",
          "name": "activeShares",
          "type": "uint256"
        },
        {
          "internalType": "uint256",
          "name": "attemptedActiveShares",
          "type": "uint256"
        }
      ],
      "name": "USR_NotEnoughActiveShares",
      "type": "error"
    },
    {
      "inputs": [
        {
          "internalType": "address",
          "name": "token",
          "type": "address"
        }
      ],
      "name": "USR_ProtectedAsset",
      "type": "error"
    },
    {
      "inputs": [
        {
          "internalType": "address",
          "name": "asset",
          "type": "address"
        }
      ],
      "name": "USR_SameAsset",
      "type": "error"
    },
    {
      "inputs": [
        {
          "internalType": "uint8",
          "name": "newDecimals",
          "type": "uint8"
        },
        {
          "internalType": "uint8",
          "name": "maxDecimals",
          "type": "uint8"
        }
      ],
      "name": "USR_TooManyDecimals",
      "type": "error"
    },
    {
      "inputs": [
        {
          "internalType": "address",
          "name": "unsupportedPosition",
          "type": "address"
        }
      ],
      "name": "USR_UnsupportedPosition",
      "type": "error"
    },
    {
      "inputs": [
        {
          "internalType": "address",
          "name": "asset",
          "type": "address"
        }
      ],
      "name": "USR_UntrustedPosition",
      "type": "error"
    },
    {
      "inputs": [],
      "name": "USR_ZeroAssets",
      "type": "error"
    },
    {
      "inputs": [],
      "name": "USR_ZeroShares",
      "type": "error"
    },
    {
      "anonymous": false,
      "inputs": [
        {
          "indexed": false,
          "internalType": "uint256",
          "name": "feesInShares",
          "type": "uint256"
        }
      ],
      "name": "AccruedPerformanceFees",
      "type": "event"
    },
    {
      "anonymous": false,
      "inputs": [
        {
          "indexed": false,
          "internalType": "uint256",
          "name": "feesInShares",
          "type": "uint256"
        }
      ],
      "name": "AccruedPlatformFees",
      "type": "event"
    },
    {
      "anonymous": false,
      "inputs": [
        {
          "indexed": true,
          "internalType": "address",
          "name": "owner",
          "type": "address"
        },
        {
          "indexed": true,
          "internalType": "address",
          "name": "spender",
          "type": "address"
        },
        {
          "indexed": false,
          "internalType": "uint256",
          "name": "amount",
          "type": "uint256"
        }
      ],
      "name": "Approval",
      "type": "event"
    },
    {
      "anonymous": false,
      "inputs": [
        {
          "indexed": false,
          "internalType": "uint256",
          "name": "rewardsClaimed",
          "type": "uint256"
        }
      ],
      "name": "ClaimAndUnstake",
      "type": "event"
    },
    {
      "anonymous": false,
      "inputs": [
        {
          "indexed": true,
          "internalType": "address",
          "name": "caller",
          "type": "address"
        },
        {
          "indexed": true,
          "internalType": "address",
          "name": "owner",
          "type": "address"
        },
        {
          "indexed": true,
          "internalType": "address",
          "name": "token",
          "type": "address"
        },
        {
          "indexed": false,
          "internalType": "uint256",
          "name": "assets",
          "type": "uint256"
        },
        {
          "indexed": false,
          "internalType": "uint256",
          "name": "shares",
          "type": "uint256"
        }
      ],
      "name": "Deposit",
      "type": "event"
    },
    {
      "anonymous": false,
      "inputs": [
        {
          "indexed": false,
          "internalType": "uint256",
          "name": "oldLimit",
          "type": "uint256"
        },
        {
          "indexed": false,
          "internalType": "uint256",
          "name": "newLimit",
          "type": "uint256"
        }
      ],
      "name": "DepositLimitChanged",
      "type": "event"
    },
    {
      "anonymous": false,
      "inputs": [
        {
          "indexed": true,
          "internalType": "address",
          "name": "position",
          "type": "address"
        },
        {
          "indexed": false,
          "internalType": "uint256",
          "name": "assets",
          "type": "uint256"
        }
      ],
      "name": "DepositToAave",
      "type": "event"
    },
    {
      "anonymous": false,
      "inputs": [
        {
          "indexed": true,
          "internalType": "address",
          "name": "position",
          "type": "address"
        },
        {
          "indexed": false,
          "internalType": "uint256",
          "name": "assets",
          "type": "uint256"
        }
      ],
      "name": "EnterPosition",
      "type": "event"
    },
    {
      "anonymous": false,
      "inputs": [
        {
          "indexed": false,
          "internalType": "bytes32",
          "name": "oldFeesDistributor",
          "type": "bytes32"
        },
        {
          "indexed": false,
          "internalType": "bytes32",
          "name": "newFeesDistributor",
          "type": "bytes32"
        }
      ],
      "name": "FeesDistributorChanged",
      "type": "event"
    },
    {
      "anonymous": false,
      "inputs": [
        {
          "indexed": false,
          "internalType": "uint256",
          "name": "oldLimit",
          "type": "uint256"
        },
        {
          "indexed": false,
          "internalType": "uint256",
          "name": "newLimit",
          "type": "uint256"
        }
      ],
      "name": "LiquidityLimitChanged",
      "type": "event"
    },
    {
      "anonymous": false,
      "inputs": [
        {
          "indexed": true,
          "internalType": "address",
          "name": "previousOwner",
          "type": "address"
        },
        {
          "indexed": true,
          "internalType": "address",
          "name": "newOwner",
          "type": "address"
        }
      ],
      "name": "OwnershipTransferred",
      "type": "event"
    },
    {
      "anonymous": false,
      "inputs": [
        {
          "indexed": true,
          "internalType": "address",
          "name": "oldAsset",
          "type": "address"
        },
        {
          "indexed": true,
          "internalType": "address",
          "name": "newAsset",
          "type": "address"
        },
        {
          "indexed": false,
          "internalType": "uint256",
          "name": "assets",
          "type": "uint256"
        }
      ],
      "name": "Rebalance",
      "type": "event"
    },
    {
      "anonymous": false,
      "inputs": [
        {
          "indexed": true,
          "internalType": "address",
          "name": "token",
          "type": "address"
        },
        {
          "indexed": false,
          "internalType": "uint256",
          "name": "rewards",
          "type": "uint256"
        },
        {
          "indexed": false,
          "internalType": "uint256",
          "name": "assets",
          "type": "uint256"
        }
      ],
      "name": "Reinvest",
      "type": "event"
    },
    {
      "anonymous": false,
      "inputs": [
        {
          "indexed": false,
          "internalType": "bool",
          "name": "isShutdown",
          "type": "bool"
        },
        {
          "indexed": false,
          "internalType": "bool",
          "name": "exitPosition",
          "type": "bool"
        }
      ],
      "name": "Shutdown",
      "type": "event"
    },
    {
      "anonymous": false,
      "inputs": [
        {
          "indexed": true,
          "internalType": "address",
          "name": "token",
          "type": "address"
        },
        {
          "indexed": true,
          "internalType": "address",
          "name": "to",
          "type": "address"
        },
        {
          "indexed": false,
          "internalType": "uint256",
          "name": "amount",
          "type": "uint256"
        }
      ],
      "name": "Sweep",
      "type": "event"
    },
    {
      "anonymous": false,
      "inputs": [
        {
          "indexed": true,
          "internalType": "address",
          "name": "from",
          "type": "address"
        },
        {
          "indexed": true,
          "internalType": "address",
          "name": "to",
          "type": "address"
        },
        {
          "indexed": false,
          "internalType": "uint256",
          "name": "amount",
          "type": "uint256"
        }
      ],
      "name": "Transfer",
      "type": "event"
    },
    {
      "anonymous": false,
      "inputs": [
        {
          "indexed": false,
          "internalType": "uint112",
          "name": "platformFees",
          "type": "uint112"
        },
        {
          "indexed": false,
          "internalType": "uint112",
          "name": "performanceFees",
          "type": "uint112"
        }
      ],
      "name": "TransferFees",
      "type": "event"
    },
    {
      "anonymous": false,
      "inputs": [
        {
          "indexed": true,
          "internalType": "address",
          "name": "receiver",
          "type": "address"
        },
        {
          "indexed": true,
          "internalType": "address",
          "name": "owner",
          "type": "address"
        },
        {
          "indexed": true,
          "internalType": "address",
          "name": "token",
          "type": "address"
        },
        {
          "indexed": false,
          "internalType": "uint256",
          "name": "assets",
          "type": "uint256"
        },
        {
          "indexed": false,
          "internalType": "uint256",
          "name": "shares",
          "type": "uint256"
        }
      ],
      "name": "Withdraw",
      "type": "event"
    },
    {
      "anonymous": false,
      "inputs": [
        {
          "indexed": true,
          "internalType": "address",
          "name": "position",
          "type": "address"
        },
        {
          "indexed": false,
          "internalType": "uint256",
          "name": "assets",
          "type": "uint256"
        }
      ],
      "name": "WithdrawFromAave",
      "type": "event"
    },
    {
      "inputs": [],
      "name": "AAVE",
      "outputs": [
        {
          "internalType": "contract ERC20",
          "name": "",
          "type": "address"
        }
      ],
      "stateMutability": "view",
      "type": "function"
    },
    {
      "inputs": [],
      "name": "DOMAIN_SEPARATOR",
      "outputs": [
        {
          "internalType": "bytes32",
          "name": "",
          "type": "bytes32"
        }
      ],
      "stateMutability": "view",
      "type": "function"
    },
    {
      "inputs": [],
      "name": "PERMIT_TYPEHASH",
      "outputs": [
        {
          "internalType": "bytes32",
          "name": "",
          "type": "bytes32"
        }
      ],
      "stateMutability": "view",
      "type": "function"
    },
    {
      "inputs": [],
      "name": "WETH",
      "outputs": [
        {
          "internalType": "contract ERC20",
          "name": "",
          "type": "address"
        }
      ],
      "stateMutability": "view",
      "type": "function"
    },
    {
      "inputs": [],
      "name": "accrueFees",
      "outputs": [],
      "stateMutability": "nonpayable",
      "type": "function"
    },
    {
      "inputs": [],
      "name": "activeAssets",
      "outputs": [
        {
          "internalType": "uint256",
          "name": "",
          "type": "uint256"
        }
      ],
      "stateMutability": "view",
      "type": "function"
    },
    {
      "inputs": [
        {
          "internalType": "address",
          "name": "",
          "type": "address"
        },
        {
          "internalType": "address",
          "name": "",
          "type": "address"
        }
      ],
      "name": "allowance",
      "outputs": [
        {
          "internalType": "uint256",
          "name": "",
          "type": "uint256"
        }
      ],
      "stateMutability": "view",
      "type": "function"
    },
    {
      "inputs": [
        {
          "internalType": "address",
          "name": "spender",
          "type": "address"
        },
        {
          "internalType": "uint256",
          "name": "amount",
          "type": "uint256"
        }
      ],
      "name": "approve",
      "outputs": [
        {
          "internalType": "bool",
          "name": "",
          "type": "bool"
        }
      ],
      "stateMutability": "nonpayable",
      "type": "function"
    },
    {
      "inputs": [],
      "name": "asset",
      "outputs": [
        {
          "internalType": "contract ERC20",
          "name": "",
          "type": "address"
        }
      ],
      "stateMutability": "view",
      "type": "function"
    },
    {
      "inputs": [],
      "name": "assetAToken",
      "outputs": [
        {
          "internalType": "contract ERC20",
          "name": "",
          "type": "address"
        }
      ],
      "stateMutability": "view",
      "type": "function"
    },
    {
      "inputs": [],
      "name": "assetDecimals",
      "outputs": [
        {
          "internalType": "uint8",
          "name": "",
          "type": "uint8"
        }
      ],
      "stateMutability": "view",
      "type": "function"
    },
    {
      "inputs": [
        {
          "internalType": "address",
          "name": "",
          "type": "address"
        }
      ],
      "name": "balanceOf",
      "outputs": [
        {
          "internalType": "uint256",
          "name": "",
          "type": "uint256"
        }
      ],
      "stateMutability": "view",
      "type": "function"
    },
    {
      "inputs": [],
      "name": "claimAndUnstake",
      "outputs": [
        {
          "internalType": "uint256",
          "name": "claimed",
          "type": "uint256"
        }
      ],
      "stateMutability": "nonpayable",
      "type": "function"
    },
    {
      "inputs": [
        {
          "internalType": "uint256",
          "name": "shares",
          "type": "uint256"
        }
      ],
      "name": "convertToAssets",
      "outputs": [
        {
          "internalType": "uint256",
          "name": "",
          "type": "uint256"
        }
      ],
      "stateMutability": "view",
      "type": "function"
    },
    {
      "inputs": [
        {
          "internalType": "uint256",
          "name": "assets",
          "type": "uint256"
        }
      ],
      "name": "convertToShares",
      "outputs": [
        {
          "internalType": "uint256",
          "name": "",
          "type": "uint256"
        }
      ],
      "stateMutability": "view",
      "type": "function"
    },
    {
      "inputs": [
        {
          "internalType": "address",
          "name": "",
          "type": "address"
        }
      ],
      "name": "currentDepositIndex",
      "outputs": [
        {
          "internalType": "uint256",
          "name": "",
          "type": "uint256"
        }
      ],
      "stateMutability": "view",
      "type": "function"
    },
    {
      "inputs": [],
      "name": "curveRegistryExchange",
      "outputs": [
        {
          "internalType": "contract ICurveSwaps",
          "name": "",
          "type": "address"
        }
      ],
      "stateMutability": "view",
      "type": "function"
    },
    {
      "inputs": [],
      "name": "decimals",
      "outputs": [
        {
          "internalType": "uint8",
          "name": "",
          "type": "uint8"
        }
      ],
      "stateMutability": "view",
      "type": "function"
    },
    {
      "inputs": [
        {
          "internalType": "uint256",
          "name": "assets",
          "type": "uint256"
        },
        {
          "internalType": "address",
          "name": "receiver",
          "type": "address"
        }
      ],
      "name": "deposit",
      "outputs": [
        {
          "internalType": "uint256",
          "name": "shares",
          "type": "uint256"
        }
      ],
      "stateMutability": "nonpayable",
      "type": "function"
    },
    {
      "inputs": [],
      "name": "depositLimit",
      "outputs": [
        {
          "internalType": "uint256",
          "name": "",
          "type": "uint256"
        }
      ],
      "stateMutability": "view",
      "type": "function"
    },
    {
      "inputs": [],
      "name": "enterPosition",
      "outputs": [],
      "stateMutability": "nonpayable",
      "type": "function"
    },
    {
      "inputs": [],
      "name": "fees",
      "outputs": [
        {
          "internalType": "uint112",
          "name": "yield",
          "type": "uint112"
        },
        {
          "internalType": "uint112",
          "name": "lastActiveAssets",
          "type": "uint112"
        },
        {
          "internalType": "uint32",
          "name": "lastTimeAccruedPlatformFees",
          "type": "uint32"
        },
        {
          "internalType": "uint112",
          "name": "accruedPlatformFees",
          "type": "uint112"
        },
        {
          "internalType": "uint112",
          "name": "accruedPerformanceFees",
          "type": "uint112"
        }
      ],
      "stateMutability": "view",
      "type": "function"
    },
    {
      "inputs": [],
      "name": "feesDistributor",
      "outputs": [
        {
          "internalType": "bytes32",
          "name": "",
          "type": "bytes32"
        }
      ],
      "stateMutability": "view",
      "type": "function"
    },
    {
      "inputs": [
        {
          "internalType": "address",
          "name": "user",
          "type": "address"
        }
      ],
      "name": "getUserBalances",
      "outputs": [
        {
          "internalType": "uint256",
          "name": "userActiveShares",
          "type": "uint256"
        },
        {
          "internalType": "uint256",
          "name": "userInactiveShares",
          "type": "uint256"
        },
        {
          "internalType": "uint256",
          "name": "userActiveAssets",
          "type": "uint256"
        },
        {
          "internalType": "uint256",
          "name": "userInactiveAssets",
          "type": "uint256"
        }
      ],
      "stateMutability": "view",
      "type": "function"
    },
    {
      "inputs": [
        {
          "internalType": "address",
          "name": "user",
          "type": "address"
        }
      ],
      "name": "getUserDeposits",
      "outputs": [
        {
          "components": [
            {
              "internalType": "uint112",
              "name": "assets",
              "type": "uint112"
            },
            {
              "internalType": "uint112",
              "name": "shares",
              "type": "uint112"
            },
            {
              "internalType": "uint32",
              "name": "timeDeposited",
              "type": "uint32"
            }
          ],
          "internalType": "struct IAaveV2StablecoinCellar.UserDeposit[]",
          "name": "",
          "type": "tuple[]"
        }
      ],
      "stateMutability": "view",
      "type": "function"
    },
    {
      "inputs": [],
      "name": "gravityBridge",
      "outputs": [
        {
          "internalType": "contract IGravity",
          "name": "",
          "type": "address"
        }
      ],
      "stateMutability": "view",
      "type": "function"
    },
    {
      "inputs": [],
      "name": "inactiveAssets",
      "outputs": [
        {
          "internalType": "uint256",
          "name": "",
          "type": "uint256"
        }
      ],
      "stateMutability": "view",
      "type": "function"
    },
    {
      "inputs": [],
      "name": "incentivesController",
      "outputs": [
        {
          "internalType": "contract IAaveIncentivesController",
          "name": "",
          "type": "address"
        }
      ],
      "stateMutability": "view",
      "type": "function"
    },
    {
      "inputs": [],
      "name": "isShutdown",
      "outputs": [
        {
          "internalType": "bool",
          "name": "",
          "type": "bool"
        }
      ],
      "stateMutability": "view",
      "type": "function"
    },
    {
      "inputs": [
        {
          "internalType": "address",
          "name": "",
          "type": "address"
        }
      ],
      "name": "isTrusted",
      "outputs": [
        {
          "internalType": "bool",
          "name": "",
          "type": "bool"
        }
      ],
      "stateMutability": "view",
      "type": "function"
    },
    {
      "inputs": [],
      "name": "lastTimeEnteredPosition",
      "outputs": [
        {
          "internalType": "uint256",
          "name": "",
          "type": "uint256"
        }
      ],
      "stateMutability": "view",
      "type": "function"
    },
    {
      "inputs": [],
      "name": "lendingPool",
      "outputs": [
        {
          "internalType": "contract ILendingPool",
          "name": "",
          "type": "address"
        }
      ],
      "stateMutability": "view",
      "type": "function"
    },
    {
      "inputs": [],
      "name": "liquidityLimit",
      "outputs": [
        {
          "internalType": "uint256",
          "name": "",
          "type": "uint256"
        }
      ],
      "stateMutability": "view",
      "type": "function"
    },
    {
      "inputs": [
        {
          "internalType": "address",
          "name": "owner",
          "type": "address"
        }
      ],
      "name": "maxDeposit",
      "outputs": [
        {
          "internalType": "uint256",
          "name": "",
          "type": "uint256"
        }
      ],
      "stateMutability": "view",
      "type": "function"
    },
    {
      "inputs": [
        {
          "internalType": "address",
          "name": "owner",
          "type": "address"
        }
      ],
      "name": "maxMint",
      "outputs": [
        {
          "internalType": "uint256",
          "name": "",
          "type": "uint256"
        }
      ],
      "stateMutability": "view",
      "type": "function"
    },
    {
      "inputs": [
        {
          "internalType": "address",
          "name": "owner",
          "type": "address"
        }
      ],
      "name": "maxRedeem",
      "outputs": [
        {
          "internalType": "uint256",
          "name": "",
          "type": "uint256"
        }
      ],
      "stateMutability": "view",
      "type": "function"
    },
    {
      "inputs": [
        {
          "internalType": "address",
          "name": "owner",
          "type": "address"
        }
      ],
      "name": "maxWithdraw",
      "outputs": [
        {
          "internalType": "uint256",
          "name": "",
          "type": "uint256"
        }
      ],
      "stateMutability": "view",
      "type": "function"
    },
    {
      "inputs": [
        {
          "internalType": "uint256",
          "name": "shares",
          "type": "uint256"
        },
        {
          "internalType": "address",
          "name": "receiver",
          "type": "address"
        }
      ],
      "name": "mint",
      "outputs": [
        {
          "internalType": "uint256",
          "name": "assets",
          "type": "uint256"
        }
      ],
      "stateMutability": "nonpayable",
      "type": "function"
    },
    {
      "inputs": [],
      "name": "name",
      "outputs": [
        {
          "internalType": "string",
          "name": "",
          "type": "string"
        }
      ],
      "stateMutability": "view",
      "type": "function"
    },
    {
      "inputs": [
        {
          "internalType": "address",
          "name": "",
          "type": "address"
        }
      ],
      "name": "nonces",
      "outputs": [
        {
          "internalType": "uint256",
          "name": "",
          "type": "uint256"
        }
      ],
      "stateMutability": "view",
      "type": "function"
    },
    {
      "inputs": [],
      "name": "owner",
      "outputs": [
        {
          "internalType": "address",
          "name": "",
          "type": "address"
        }
      ],
      "stateMutability": "view",
      "type": "function"
    },
    {
      "inputs": [
        {
          "internalType": "address",
          "name": "owner",
          "type": "address"
        },
        {
          "internalType": "address",
          "name": "spender",
          "type": "address"
        },
        {
          "internalType": "uint256",
          "name": "value",
          "type": "uint256"
        },
        {
          "internalType": "uint256",
          "name": "deadline",
          "type": "uint256"
        },
        {
          "internalType": "uint8",
          "name": "v",
          "type": "uint8"
        },
        {
          "internalType": "bytes32",
          "name": "r",
          "type": "bytes32"
        },
        {
          "internalType": "bytes32",
          "name": "s",
          "type": "bytes32"
        }
      ],
      "name": "permit",
      "outputs": [],
      "stateMutability": "nonpayable",
      "type": "function"
    },
    {
      "inputs": [
        {
          "internalType": "uint256",
          "name": "assets",
          "type": "uint256"
        }
      ],
      "name": "previewDeposit",
      "outputs": [
        {
          "internalType": "uint256",
          "name": "",
          "type": "uint256"
        }
      ],
      "stateMutability": "view",
      "type": "function"
    },
    {
      "inputs": [
        {
          "internalType": "uint256",
          "name": "shares",
          "type": "uint256"
        }
      ],
      "name": "previewMint",
      "outputs": [
        {
          "internalType": "uint256",
          "name": "",
          "type": "uint256"
        }
      ],
      "stateMutability": "view",
      "type": "function"
    },
    {
      "inputs": [
        {
          "internalType": "uint256",
          "name": "shares",
          "type": "uint256"
        }
      ],
      "name": "previewRedeem",
      "outputs": [
        {
          "internalType": "uint256",
          "name": "",
          "type": "uint256"
        }
      ],
      "stateMutability": "view",
      "type": "function"
    },
    {
      "inputs": [
        {
          "internalType": "uint256",
          "name": "assets",
          "type": "uint256"
        }
      ],
      "name": "previewWithdraw",
      "outputs": [
        {
          "internalType": "uint256",
          "name": "",
          "type": "uint256"
        }
      ],
      "stateMutability": "view",
      "type": "function"
    },
    {
      "inputs": [
        {
          "internalType": "address[9]",
          "name": "route",
          "type": "address[9]"
        },
        {
          "internalType": "uint256[3][4]",
          "name": "swapParams",
          "type": "uint256[3][4]"
        },
        {
          "internalType": "uint256",
          "name": "minAssetsOut",
          "type": "uint256"
        }
      ],
      "name": "rebalance",
      "outputs": [],
      "stateMutability": "nonpayable",
      "type": "function"
    },
    {
      "inputs": [
        {
          "internalType": "uint256",
          "name": "shares",
          "type": "uint256"
        },
        {
          "internalType": "address",
          "name": "receiver",
          "type": "address"
        },
        {
          "internalType": "address",
          "name": "owner",
          "type": "address"
        }
      ],
      "name": "redeem",
      "outputs": [
        {
          "internalType": "uint256",
          "name": "assets",
          "type": "uint256"
        }
      ],
      "stateMutability": "nonpayable",
      "type": "function"
    },
    {
      "inputs": [
        {
          "internalType": "uint256",
          "name": "minAssetsOut",
          "type": "uint256"
        }
      ],
      "name": "reinvest",
      "outputs": [],
      "stateMutability": "nonpayable",
      "type": "function"
    },
    {
      "inputs": [],
      "name": "renounceOwnership",
      "outputs": [],
      "stateMutability": "nonpayable",
      "type": "function"
    },
    {
      "inputs": [
        {
          "internalType": "uint256",
          "name": "limit",
          "type": "uint256"
        }
      ],
      "name": "setDepositLimit",
      "outputs": [],
      "stateMutability": "nonpayable",
      "type": "function"
    },
    {
      "inputs": [
        {
          "internalType": "bytes32",
          "name": "newFeesDistributor",
          "type": "bytes32"
        }
      ],
      "name": "setFeesDistributor",
      "outputs": [],
      "stateMutability": "nonpayable",
      "type": "function"
    },
    {
      "inputs": [
        {
          "internalType": "uint256",
          "name": "limit",
          "type": "uint256"
        }
      ],
      "name": "setLiquidityLimit",
      "outputs": [],
      "stateMutability": "nonpayable",
      "type": "function"
    },
    {
      "inputs": [
        {
          "internalType": "bool",
          "name": "shutdown",
          "type": "bool"
        },
        {
          "internalType": "bool",
          "name": "exitPosition",
          "type": "bool"
        }
      ],
      "name": "setShutdown",
      "outputs": [],
      "stateMutability": "nonpayable",
      "type": "function"
    },
    {
      "inputs": [
        {
          "internalType": "address",
          "name": "position",
          "type": "address"
        },
        {
          "internalType": "bool",
          "name": "trust",
          "type": "bool"
        }
      ],
      "name": "setTrust",
      "outputs": [],
      "stateMutability": "nonpayable",
      "type": "function"
    },
    {
      "inputs": [],
      "name": "stkAAVE",
      "outputs": [
        {
          "internalType": "contract IStakedTokenV2",
          "name": "",
          "type": "address"
        }
      ],
      "stateMutability": "view",
      "type": "function"
    },
    {
      "inputs": [],
      "name": "sushiswapRouter",
      "outputs": [
        {
          "internalType": "contract ISushiSwapRouter",
          "name": "",
          "type": "address"
        }
      ],
      "stateMutability": "view",
      "type": "function"
    },
    {
      "inputs": [
        {
          "internalType": "address",
          "name": "token",
          "type": "address"
        },
        {
          "internalType": "address",
          "name": "to",
          "type": "address"
        }
      ],
      "name": "sweep",
      "outputs": [],
      "stateMutability": "nonpayable",
      "type": "function"
    },
    {
      "inputs": [],
      "name": "symbol",
      "outputs": [
        {
          "internalType": "string",
          "name": "",
          "type": "string"
        }
      ],
      "stateMutability": "view",
      "type": "function"
    },
    {
      "inputs": [],
      "name": "totalAssets",
      "outputs": [
        {
          "internalType": "uint256",
          "name": "",
          "type": "uint256"
        }
      ],
      "stateMutability": "view",
      "type": "function"
    },
    {
      "inputs": [],
      "name": "totalSupply",
      "outputs": [
        {
          "internalType": "uint256",
          "name": "",
          "type": "uint256"
        }
      ],
      "stateMutability": "view",
      "type": "function"
    },
    {
      "inputs": [
        {
          "internalType": "address",
          "name": "to",
          "type": "address"
        },
        {
          "internalType": "uint256",
          "name": "amount",
          "type": "uint256"
        }
      ],
      "name": "transfer",
      "outputs": [
        {
          "internalType": "bool",
          "name": "",
          "type": "bool"
        }
      ],
      "stateMutability": "nonpayable",
      "type": "function"
    },
    {
      "inputs": [],
      "name": "transferFees",
      "outputs": [],
      "stateMutability": "nonpayable",
      "type": "function"
    },
    {
      "inputs": [
        {
          "internalType": "address",
          "name": "from",
          "type": "address"
        },
        {
          "internalType": "address",
          "name": "to",
          "type": "address"
        },
        {
          "internalType": "uint256",
          "name": "amount",
          "type": "uint256"
        }
      ],
      "name": "transferFrom",
      "outputs": [
        {
          "internalType": "bool",
          "name": "",
          "type": "bool"
        }
      ],
      "stateMutability": "nonpayable",
      "type": "function"
    },
    {
      "inputs": [
        {
          "internalType": "address",
          "name": "from",
          "type": "address"
        },
        {
          "internalType": "address",
          "name": "to",
          "type": "address"
        },
        {
          "internalType": "uint256",
          "name": "amount",
          "type": "uint256"
        },
        {
          "internalType": "bool",
          "name": "onlyActive",
          "type": "bool"
        }
      ],
      "name": "transferFrom",
      "outputs": [
        {
          "internalType": "bool",
          "name": "",
          "type": "bool"
        }
      ],
      "stateMutability": "nonpayable",
      "type": "function"
    },
    {
      "inputs": [
        {
          "internalType": "address",
          "name": "newOwner",
          "type": "address"
        }
      ],
      "name": "transferOwnership",
      "outputs": [],
      "stateMutability": "nonpayable",
      "type": "function"
    },
    {
      "inputs": [
        {
          "internalType": "address",
          "name": "",
          "type": "address"
        },
        {
          "internalType": "uint256",
          "name": "",
          "type": "uint256"
        }
      ],
      "name": "userDeposits",
      "outputs": [
        {
          "internalType": "uint112",
          "name": "assets",
          "type": "uint112"
        },
        {
          "internalType": "uint112",
          "name": "shares",
          "type": "uint112"
        },
        {
          "internalType": "uint32",
          "name": "timeDeposited",
          "type": "uint32"
        }
      ],
      "stateMutability": "view",
      "type": "function"
    },
    {
      "inputs": [
        {
          "internalType": "uint256",
          "name": "assets",
          "type": "uint256"
        },
        {
          "internalType": "address",
          "name": "receiver",
          "type": "address"
        },
        {
          "internalType": "address",
          "name": "owner",
          "type": "address"
        }
      ],
      "name": "withdraw",
      "outputs": [
        {
          "internalType": "uint256",
          "name": "shares",
          "type": "uint256"
        }
      ],
      "stateMutability": "nonpayable",
      "type": "function"
    }
  ],
  "bytecode": {
    "object": "0x6101e060405273b813554b423266bbd4c16c32fa383394868c1f55600f553480156200002a57600080fd5b5060405162005843380380620058438339810160408190526200004d9162000706565b6040518060600160405280602c815260200162005817602c91396040518060400160405280600b81526020016a61617665322d434c522d5360a81b81525060128260009080519060200190620000a592919062000638565b508151620000bb90600190602085019062000638565b5060ff81166080524660a052620000d16200016f565b60c05250620000e491503390506200020b565b6001600160a01b0380891660e05287811661010052868116610120528581166101405284811661016052838116610180528281166101a0528181166101c05260108b905560118a90558b166000908152600b60205260409020805460ff19166001179055620001538b6200025d565b6200015e84620004a4565b505050505050505050505062000bdf565b60007f8b73c3c69bb8fe3d512ecc4cf759cc79239f7b179b0ffacaa9a75d522b39400f6000604051620001a3919062000831565b6040805191829003822060208301939093528101919091527fc89efdaa54c0f20c7adf612882df0950f5a951637e0307cdcb4c672f298b8bc660608201524660808201523060a082015260c00160405160208183030381529060405280519060200120905090565b600680546001600160a01b038381166001600160a01b0319831681179093556040519116919082907f8be0079c531659141344cd1fd0a4f28419497f9722a3daafe3b4186f6b6457e090600090a35050565b610120516040516335ea6a7560e01b81526001600160a01b03838116600483015260009216906335ea6a759060240161018060405180830381865afa158015620002ab573d6000803e3d6000fd5b505050506040513d601f19601f82011682018060405250810190620002d19190620008ff565b5050505097505050505050505060006001600160a01b0316816001600160a01b031614156200032357604051630a5c5e7d60e11b81526001600160a01b03831660048201526024015b60405180910390fd5b6000600860149054906101000a900460ff1690506000836001600160a01b031663313ce5676040518163ffffffff1660e01b8152600401602060405180830381865afa15801562000378573d6000803e3d6000fd5b505050506040513d601f19601f820116820180604052508101906200039e9190620009f6565b905060805160ff168160ff161115620003dc57608051604051630651982f60e11b815260ff808416600483015290911660248201526044016200031a565b60ff821615801590620003f557508060ff168260ff1614155b1562000457576000196011541462000429576200042582826011546200057560201b62002cce179092919060201c565b6011555b6000196010541462000457576200045382826010546200057560201b62002cce179092919060201c565b6010555b600780546001600160a01b039586166001600160a01b031991821617909155600880549490951660ff909216600160a01b02166001600160a81b0319909316929092179190911790915550565b6006546001600160a01b03163314620005005760405162461bcd60e51b815260206004820181905260248201527f4f776e61626c653a2063616c6c6572206973206e6f7420746865206f776e657260448201526064016200031a565b6001600160a01b038116620005675760405162461bcd60e51b815260206004820152602660248201527f4f776e61626c653a206e6577206f776e657220697320746865207a65726f206160448201526564647265737360d01b60648201526084016200031a565b62000572816200020b565b50565b60008160ff168360ff1614156200058e575082620005ee565b8160ff168360ff161015620005ca57620005a9838362000a2a565b620005b690600a62000b4d565b620005c2908562000b5e565b9050620005ee565b620005c284620005db848662000a2a565b620005e890600a62000b4d565b620005f5565b9392505050565b600062000603828462000b96565b156200061157600162000614565b60005b60ff1662000623838562000bad565b6200062f919062000bc4565b90505b92915050565b8280546200064690620007f4565b90600052602060002090601f0160209004810192826200066a5760008555620006b5565b82601f106200068557805160ff1916838001178555620006b5565b82800160010185558215620006b5579182015b82811115620006b557825182559160200191906001019062000698565b50620006c3929150620006c7565b5090565b5b80821115620006c35760008155600101620006c8565b6001600160a01b03811681146200057257600080fd5b80516200070181620006de565b919050565b60008060008060008060008060008060006101608c8e0312156200072957600080fd5b8b516200073681620006de565b809b505060208c0151995060408c0151985060608c01516200075881620006de565b60808d01519098506200076b81620006de565b60a08d01519097506200077e81620006de565b60c08d01519096506200079181620006de565b60e08d0151909550620007a481620006de565b6101008d0151909450620007b881620006de565b6101208d0151909350620007cc81620006de565b6101408d0151909250620007e081620006de565b809150509295989b509295989b9093969950565b600181811c908216806200080957607f821691505b602082108114156200082b57634e487b7160e01b600052602260045260246000fd5b50919050565b600080835481600182811c9150808316806200084e57607f831692505b60208084108214156200086f57634e487b7160e01b86526022600452602486fd5b8180156200088657600181146200089857620008c7565b60ff19861689528489019650620008c7565b60008a81526020902060005b86811015620008bf5781548b820152908501908301620008a4565b505084890196505b509498975050505050505050565b80516001600160801b03811681146200070157600080fd5b805160ff811681146200070157600080fd5b6000806000806000806000806000806000806101808d8f0312156200092357600080fd5b8c519b506200093560208e01620008d5565b9a506200094560408e01620008d5565b99506200095560608e01620008d5565b98506200096560808e01620008d5565b97506200097560a08e01620008d5565b965060c08d015164ffffffffff811681146200099057600080fd5b9550620009a060e08e01620006f4565b9450620009b16101008e01620006f4565b9350620009c26101208e01620006f4565b9250620009d36101408e01620006f4565b9150620009e46101608e01620008ed565b90509295989b509295989b509295989b565b60006020828403121562000a0957600080fd5b6200062f82620008ed565b634e487b7160e01b600052601160045260246000fd5b600060ff821660ff84168082101562000a475762000a4762000a14565b90039392505050565b600181815b8085111562000a9157816000190482111562000a755762000a7562000a14565b8085161562000a8357918102915b93841c939080029062000a55565b509250929050565b60008262000aaa5750600162000632565b8162000ab95750600062000632565b816001811462000ad2576002811462000add5762000afd565b600191505062000632565b60ff84111562000af15762000af162000a14565b50506001821b62000632565b5060208310610133831016604e8410600b841016171562000b22575081810a62000632565b62000b2e838362000a50565b806000190482111562000b455762000b4562000a14565b029392505050565b60006200062f60ff84168362000a99565b600081600019048311821515161562000b7b5762000b7b62000a14565b500290565b634e487b7160e01b600052601260045260246000fd5b60008262000ba85762000ba862000b80565b500690565b60008262000bbf5762000bbf62000b80565b500490565b6000821982111562000bda5762000bda62000a14565b500190565b60805160a05160c05160e05161010051610120516101405161016051610180516101a0516101c051614ad862000d3f600039600081816108890152611bde01526000818161061c01528181611a9b01528181611b1e0152611b8a0152600081816104ec01528181611a2001526121770152600081816107c60152818161260d01526126660152600081816108b001526120f30152600081816107ed01528181612e4101528181612fd001528181613313015261336b015260008181610a4b01528181611b400152611c5c01526000818161085a01528181610e340152610e73015260006110880152600061105801526000818161058501528181610b6e0152818161142001528181611d3901528181611fe8015281816120250152818161225a015281816122a1015281816127b00152818161294c015281816131060152818161314b01528181613536015281816137640152613bf60152614ad86000f3fe608060405234801561001057600080fd5b50600436106103fc5760003560e01c806395d89b4111610215578063bf86d69011610125578063d505accf116100b8578063e9240c2d11610087578063e9240c2d14610a46578063ecf7085814610a6d578063ef8b30f714610a76578063f2fde38b14610a89578063f82d4d9b14610a9c57600080fd5b8063d505accf146109cc578063d905777e146109df578063dd62ed3e14610a08578063df05a52a14610a3357600080fd5b8063c63d75b6116100f4578063c63d75b614610980578063c6e6f59214610993578063cab59238146109a6578063ce96cb77146109b957600080fd5b8063bf86d69014610944578063c17f674014610951578063c2d4160114610964578063c2fbe7bc1461097857600080fd5b8063ad004e20116101a8578063b460af9411610177578063b460af94146108e5578063b8dc491b146108f8578063ba0876521461090b578063bb27280b1461091e578063bdc8144b1461093157600080fd5b8063ad004e201461087c578063ad5c464814610884578063af1df255146108ab578063b3d7f6b9146108d257600080fd5b8063a59a9973116101e4578063a59a9973146107e8578063a9059cbb1461080f578063abd3f61214610822578063ac3535101461085557600080fd5b806395d89b411461071b57806396d64879146107235780639af1d35a14610746578063a4da2d02146107c157600080fd5b806338d52e0f116103105780636f2293ab116102a35780637ecebe00116102725780637ecebe00146106bb57806383b4918b146106db5780638da5cb5b146106ee5780638e0bae7f146106ff57806394bf804d1461070857600080fd5b80636f2293ab1461067757806370a082311461068a578063715018a6146106aa57806372163715146106b257600080fd5b806348ccda3c116102df57806348ccda3c146106175780634cdad5061461063e5780636e553f65146106515780636e85f1831461066457600080fd5b806338d52e0f146105c95780633982aabd146105dc5780633dc6eabf146105fc578063402d267d1461060457600080fd5b806318160ddd116103935780632a5bf6d2116103625780632a5bf6d21461053957806330adf81f14610559578063313ce567146105805780633644e515146105b957806337a4e834146105c157600080fd5b806318160ddd146104d65780631c17b946146104df5780631fc29c01146104e757806323b872dd1461052657600080fd5b8063095ea7b3116103cf578063095ea7b3146104835780630a28a477146104a657806314834938146104b957806315f4c611146104c157600080fd5b806301e1d1141461040157806306fdde031461041c57806307a2d13a1461043157806308f4333314610444575b600080fd5b610409610aa5565b6040519081526020015b60405180910390f35b610424610ac6565b6040516104139190613f08565b61040961043f366004613f5d565b610b54565b610457610452366004613f8b565b610ba4565b604080516001600160701b03948516815293909216602084015263ffffffff1690820152606001610413565b610496610491366004613f8b565b610bf3565b6040519015158152602001610413565b6104096104b4366004613f5d565b610c60565b610409610c8c565b6104d46104cf36600461406e565b610cfa565b005b61040960025481565b610409610f70565b61050e7f000000000000000000000000000000000000000000000000000000000000000081565b6040516001600160a01b039091168152602001610413565b610496610534366004614178565b610fa1565b61054c6105473660046141b9565b610fb8565b60405161041391906141d6565b6104097f6e71edae12b1b97f4d1f60370fef10105fa2faae0126114a169c64845d6126c981565b6105a77f000000000000000000000000000000000000000000000000000000000000000081565b60405160ff9091168152602001610413565b610409611054565b6104d46110aa565b60075461050e906001600160a01b031681565b6104096105ea3660046141b9565b600a6020526000908152604090205481565b6104d4611331565b6104096106123660046141b9565b6113eb565b61050e7f000000000000000000000000000000000000000000000000000000000000000081565b61040961064c366004613f5d565b6114a2565b61040961065f366004614241565b6114ad565b6104d4610672366004613f5d565b611541565b610496610685366004614286565b6115b1565b6104096106983660046141b9565b60036020526000908152604090205481565b6104d46119a3565b61040960105481565b6104096106c93660046141b9565b60056020526000908152604090205481565b6104d46106e9366004613f5d565b6119d9565b6006546001600160a01b031661050e565b610409600f5481565b610409610716366004614241565b611e15565b610424611eab565b6104966107313660046141b9565b600b6020526000908152604090205460ff1681565b600d54600e54610781916001600160701b0380821692600160701b808404831693600160e01b900463ffffffff169280831692919091041685565b604080516001600160701b039687168152948616602086015263ffffffff909316928401929092528316606083015291909116608082015260a001610413565b61050e7f000000000000000000000000000000000000000000000000000000000000000081565b61050e7f000000000000000000000000000000000000000000000000000000000000000081565b61049661081d366004613f8b565b611eb8565b6108356108303660046141b9565b611ec7565b604080519485526020850193909352918301526060820152608001610413565b61050e7f000000000000000000000000000000000000000000000000000000000000000081565b61040961205f565b61050e7f000000000000000000000000000000000000000000000000000000000000000081565b61050e7f000000000000000000000000000000000000000000000000000000000000000081565b6104096108e0366004613f5d565b612225565b6104096108f33660046142d7565b612289565b6104d4610906366004614319565b6122d2565b6104096109193660046142d7565b612434565b6104d461092c366004614347565b612449565b6104d461093f366004613f5d565b6124e5565b6012546104969060ff1681565b60085461050e906001600160a01b031681565b6008546105a790600160a01b900460ff1681565b6104d461254d565b61040961098e3660046141b9565b612728565b6104096109a1366004613f5d565b612798565b6104d46109b436600461437a565b6127df565b6104096109c73660046141b9565b612869565b6104d46109da3660046143a7565b61297b565b6104096109ed3660046141b9565b6001600160a01b031660009081526003602052604090205490565b610409610a16366004614319565b600460209081526000928352604080842090915290825290205481565b6104d4610a41366004613f5d565b612bc0565b61050e7f000000000000000000000000000000000000000000000000000000000000000081565b61040960115481565b610409610a84366004613f5d565b612c28565b6104d4610a973660046141b9565b612c33565b610409600c5481565b6000610aaf610c8c565b610ab7610f70565b610ac1919061442e565b905090565b60008054610ad390614446565b80601f0160208091040260200160405190810160405280929190818152602001828054610aff90614446565b8015610b4c5780601f10610b2157610100808354040283529160200191610b4c565b820191906000526020600020905b815481529060010190602001808311610b2f57829003601f168201915b505050505081565b600080610b6083612d37565b600854909150610b9d9082907f000000000000000000000000000000000000000000000000000000000000000090600160a01b900460ff16612cce565b9392505050565b60096020528160005260406000208181548110610bc057600080fd5b6000918252602090912001546001600160701b038082169350600160701b8204169150600160e01b900463ffffffff1683565b3360008181526004602090815260408083206001600160a01b038716808552925280832085905551919290917f8c5be1e5ebec7d5bd14f71427d1e84f3dd0314c0f7b2291e5b200ac8c7c3b92590610c4e9086815260200190565b60405180910390a35060015b92915050565b6002546000908015610c8557610c8081610c78610aa5565b859190612d62565b610b9d565b5090919050565b6007546040516370a0823160e01b81523060048201526000916001600160a01b0316906370a08231906024015b602060405180830381865afa158015610cd6573d6000803e3d6000fd5b505050506040513d601f19601f82011682018060405250810190610ac19190614481565b6006546001600160a01b03163314610d2d5760405162461bcd60e51b8152600401610d249061449a565b60405180910390fd5b60125460ff1615610d5157604051632f22819760e11b815260040160405180910390fd5b6000805b8060081480610d8d5750600085610d6d83600161442e565b60098110610d7d57610d7d6144cf565b60200201516001600160a01b0316145b15610db057848160098110610da457610da46144cf565b60200201519150610dc2565b610dbb60028261442e565b9050610d55565b506007546001600160a01b0382811691161415610dfd5760405163a337612b60e01b81526001600160a01b0382166004820152602401610d24565b600754610e15906001600160a01b0316600019612d90565b6000610e1f610c8c565b600754909150610e59906001600160a01b03167f000000000000000000000000000000000000000000000000000000000000000083612f30565b604051630d4f290960e21b81526000906001600160a01b037f0000000000000000000000000000000000000000000000000000000000000000169063353ca42490610eae908990899087908a906004016144e5565b6020604051808303816000875af1158015610ecd573d6000803e3d6000fd5b505050506040513d601f19601f82011682018060405250810190610ef19190614481565b6007549091506001600160a01b0316610f0984612fae565b600754610f1f906001600160a01b03168361321c565b42600c556040518281526001600160a01b0380861691908316907fb0850b8e0f9e8315dde3c9f9f31138283e6bbe16cd29e8552eb1dcdf9fac9e3b906020015b60405180910390a350505050505050565b6008546040516370a0823160e01b81523060048201526000916001600160a01b0316906370a0823190602401610cb9565b6000610fb084848460006115b1565b949350505050565b6001600160a01b0381166000908152600960209081526040808320805482518185028101850190935280835260609492939192909184015b8282101561104957600084815260209081902060408051606081018252918501546001600160701b038082168452600160701b82041683850152600160e01b900463ffffffff1690820152825260019092019101610ff0565b505050509050919050565b60007f0000000000000000000000000000000000000000000000000000000000000000461461108557610ac1613412565b507f000000000000000000000000000000000000000000000000000000000000000090565b60006110b46134ac565b600d54909150600160701b90046001600160701b03168082111561111c576110dc8183614581565b600d80546000906110f79084906001600160701b0316614598565b92506101000a8154816001600160701b0302191690836001600160701b031602179055505b600d5460009061113990600160e01b900463ffffffff1642614581565b905060006301e133806127106064846111506134ac565b61115a91906145c3565b61116491906145c3565b61116e91906145f8565b61117891906145f8565b9050600061118582613560565b600d80546001600160e01b0316600160e01b4263ffffffff160217905590506111ae3082613582565b600d546001600160701b031660006111cb826103e86127106135ee565b905060006111d882613560565b600d80546dffffffffffffffffffffffffffff1916905590506111fb3082613582565b600e80548591906000906112199084906001600160701b0316614598565b92506101000a8154816001600160701b0302191690836001600160701b0316021790555080600d600101600e8282829054906101000a90046001600160701b03166112649190614598565b92506101000a8154816001600160701b0302191690836001600160701b031602179055507fbb0dab1b2fba411c08a912a26b307680de2fcebcfa94469607a1a2ca6a5d8bf4846040516112b991815260200190565b60405180910390a16040518181527f87ddcf7d00014b95f4de1ab15232c30192eabc2849f9cb6c677a5a79bf74e9ab9060200160405180910390a15050505050506113026134ac565b600d80546001600160701b0392909216600160701b02600160701b600160e01b03199092169190911790555050565b6006546001600160a01b0316331461135b5760405162461bcd60e51b8152600401610d249061449a565b60125460ff161561137f57604051632f22819760e11b815260040160405180910390fd5b6000611389610c8c565b6007549091506113a2906001600160a01b03168261321c565b42600c556007546040518281526001600160a01b03909116907fb6f4b9255ee989b1844a8e6b7da8906b81200c38f7b3f4f1ac31e9a241c757509060200160405180910390a250565b60125460009060ff161561140157506000919050565b60001960115414156114605760085461144490600160a01b900460ff167f000000000000000000000000000000000000000000000000000000000000000061460c565b61144f90600a614713565b610c5a906001600160701b036145f8565b6001600160a01b038216600090815260036020526040812054611482906114a2565b90508060115411611494576000610b9d565b80601154610b9d9190614581565b6000610c5a82610b54565b6007546040516370a0823160e01b815233600482015260009182916001600160a01b03909116906370a0823190602401602060405180830381865afa1580156114fa573d6000803e3d6000fd5b505050506040513d601f19601f8201168201806040525081019061151e9190614481565b90508084111561152c578093505b6115388460008561360d565b95945050505050565b6006546001600160a01b0316331461156b5760405162461bcd60e51b8152600401610d249061449a565b600f80549082905560408051828152602081018490527f513ac19cbbaaad4e450c732ed37635178b7d83bf8e84a940ffe7e052c9c7caa291015b60405180910390a15050565b60006001600160a01b0385163314611621576001600160a01b0385166000908152600460209081526040808320338452909152902054600019811461161f576115fa8482614581565b6001600160a01b03871660009081526004602090815260408083203384529091529020555b505b6001600160a01b03851660009081526003602052604081208054859290611649908490614581565b90915550506001600160a01b038085166000908152600360209081526040808320805488019055928816825260098152828220600a9091529190205484905b825481101561191f5760008382815481106116a5576116a56144cf565b60009182526020909120600c5491018054909250600160e01b900463ffffffff16108680156116d2575080155b156116de57505061190d565b8154600160701b90046001600160701b031660006116fc868361385a565b8454909150600090611718906001600160701b03168385612d62565b90508315611735578454600160701b600160e01b03168555611777565b8454819086906000906117529084906001600160701b0316614722565b92506101000a8154816001600160701b0302191690836001600160701b031602179055505b845482908690600e9061179b908490600160701b90046001600160701b0316614722565b92506101000a8154816001600160701b0302191690836001600160701b03160217905550600960008d6001600160a01b03166001600160a01b031681526020019081526020016000206040518060600160405280866117fa57836117fd565b60005b6001600160701b03168152602001846001600160701b0316815260200186611833578754600160e01b900463ffffffff16611836565b60005b63ffffffff9081169091528254600181018455600093845260209384902083519101805494840151604090940151909216600160e01b026001600160e01b036001600160701b03948516600160701b026001600160e01b0319909616949092169390931793909317929092161790556118af8288614581565b96508661190757896118fd578454600160701b90046001600160701b03166118e1576118dc86600161442e565b6118e3565b855b6001600160a01b038e166000908152600a60205260409020555b505050505061191f565b50505050505b806119178161474a565b915050611688565b5080156119495760405163a09b101160e01b81526004810182905260248101869052604401610d24565b856001600160a01b0316876001600160a01b03167fddf252ad1be2c89b69c2b068fc378daa952ba7f163c4a11628f55a4df523b3ef8760405161198e91815260200190565b60405180910390a35060019695505050505050565b6006546001600160a01b031633146119cd5760405162461bcd60e51b8152600401610d249061449a565b6119d76000613869565b565b6006546001600160a01b03163314611a035760405162461bcd60e51b8152600401610d249061449a565b6040516301e9a69560e41b815230600482015260001960248201527f00000000000000000000000000000000000000000000000000000000000000006001600160a01b031690631e9a695090604401600060405180830381600087803b158015611a6c57600080fd5b505af1158015611a80573d6000803e3d6000fd5b50506040516370a0823160e01b8152306004820152600092507f00000000000000000000000000000000000000000000000000000000000000006001600160a01b031691506370a0823190602401602060405180830381865afa158015611aeb573d6000803e3d6000fd5b505050506040513d601f19601f82011682018060405250810190611b0f9190614481565b9050611b656001600160a01b037f0000000000000000000000000000000000000000000000000000000000000000167f000000000000000000000000000000000000000000000000000000000000000083612f30565b60408051600380825260808201909252600091602082016060803683370190505090507f000000000000000000000000000000000000000000000000000000000000000081600081518110611bbc57611bbc6144cf565b60200260200101906001600160a01b031690816001600160a01b0316815250507f000000000000000000000000000000000000000000000000000000000000000081600181518110611c1057611c106144cf565b6001600160a01b039283166020918202929092010152600754825191169082906002908110611c4157611c416144cf565b6001600160a01b0392831660209182029290920101526000907f0000000000000000000000000000000000000000000000000000000000000000166338ed173984868530611c9042603c61442e565b6040518663ffffffff1660e01b8152600401611cb09594939291906147a9565b6000604051808303816000875af1158015611ccf573d6000803e3d6000fd5b505050506040513d6000823e601f3d908101601f19168201604052611cf791908101906147e5565b905060008160018351611d0a9190614581565b81518110611d1a57611d1a6144cf565b60200260200101519050611d68600860149054906101000a900460ff167f000000000000000000000000000000000000000000000000000000000000000083612cce9092919063ffffffff16565b600d8054600090611d839084906001600160701b0316614598565b82546001600160701b039182166101009390930a92830291909202199091161790555060125460ff16611dc657600754611dc6906001600160a01b03168261321c565b60075460408051868152602081018490526001600160a01b03909216917fc003f45bc224d116b6d079100d4ab57a5b9633244c47a5a92a176c5b79a85f28910160405180910390a25050505050565b6007546040516370a0823160e01b81523360048201526000918291611e88916001600160a01b0316906370a0823190602401602060405180830381865afa158015611e64573d6000803e3d6000fd5b505050506040513d601f19601f82011682018060405250810190610a849190614481565b905080841115611e96578093505b611ea26000858561360d565b50949350505050565b60018054610ad390614446565b6000610b9d33848460006115b1565b6001600160a01b038116600090815260096020526040812081908190819081611ef7670de0b6b3a7640000612d37565b6001600160a01b0388166000908152600a60205260409020549091505b8254811015611fdc576000838281548110611f3157611f316144cf565b60009182526020909120600c5491018054909250600160e01b900463ffffffff161015611f92578054600160701b90046001600160701b0316611f74818a61442e565b9850611f8081856138bb565b611f8a908861442e565b965050611fc9565b8054611fae90600160701b90046001600160701b03168861442e565b8154909750611fc6906001600160701b03168661442e565b94505b5080611fd48161474a565b915050611f14565b506008546120179085907f000000000000000000000000000000000000000000000000000000000000000090600160a01b900460ff16612cce565b6008549094506120549084907f000000000000000000000000000000000000000000000000000000000000000090600160a01b900460ff16612cce565b925050509193509193565b6006546000906001600160a01b0316331461208c5760405162461bcd60e51b8152600401610d249061449a565b60408051600180825281830190925260009160208083019080368337505060085482519293506001600160a01b0316918391506000906120ce576120ce6144cf565b6001600160a01b039283166020918202929092010152604051633111e7b360e01b81527f000000000000000000000000000000000000000000000000000000000000000090911690633111e7b39061213090849060001990309060040161488b565b6020604051808303816000875af115801561214f573d6000803e3d6000fd5b505050506040513d601f19601f820116820180604052508101906121739190614481565b91507f00000000000000000000000000000000000000000000000000000000000000006001600160a01b031663787a08a66040518163ffffffff1660e01b8152600401600060405180830381600087803b1580156121d057600080fd5b505af11580156121e4573d6000803e3d6000fd5b505050507f8ca0188d9770b383d1a7a2ddfe5e0c1f029084481a53697d6c51525c47a8d88e8260405161221991815260200190565b60405180910390a15090565b60025460009081811561224a5761224561223d6138d0565b859084612d62565b61224c565b835b600854909150610fb09082907f000000000000000000000000000000000000000000000000000000000000000090600160a01b900460ff16612cce565b6008546000906122c5908590600160a01b900460ff167f0000000000000000000000000000000000000000000000000000000000000000612cce565b93506115388484846138e2565b6006546001600160a01b031633146122fc5760405162461bcd60e51b8152600401610d249061449a565b6007546001600160a01b038381169116148061232557506008546001600160a01b038381169116145b8061233857506001600160a01b03821630145b15612361576040516339b8549160e01b81526001600160a01b0383166004820152602401610d24565b6040516370a0823160e01b81523060048201526000906001600160a01b038416906370a0823190602401602060405180830381865afa1580156123a8573d6000803e3d6000fd5b505050506040513d601f19601f820116820180604052508101906123cc9190614481565b90506123e26001600160a01b0384168383613ca6565b816001600160a01b0316836001600160a01b03167fed679328aebf74ede77ae09efcf36e90244f83643dadac1c2d9f0b21a46f6ab78360405161242791815260200190565b60405180910390a3505050565b6000611ea261244285612d37565b84846138e2565b6006546001600160a01b031633146124735760405162461bcd60e51b8152600401610d249061449a565b6012805460ff19168315801591909117909155829061248f5750805b156124ac576007546124ac906001600160a01b0316600019612d90565b60408051831515815282151560208201527f7ac7d23f223201cd219bf262dee0820ebf6aa5ba682fbd5dd9f849bbefd0535891016115a5565b6006546001600160a01b0316331461250f5760405162461bcd60e51b8152600401610d249061449a565b601180549082905560408051828152602081018490527fcfb5a454b8aa7dc04ecb5bc1410b2a57969ca1d67f66d565196f60c6f997540491016115a5565b6006546001600160a01b031633146125775760405162461bcd60e51b8152600401610d249061449a565b6040516370a0823160e01b815230600482018190526000916370a0823190602401602060405180830381865afa1580156125b5573d6000803e3d6000fd5b505050506040513d601f19601f820116820180604052508101906125d99190614481565b905060006125e6826114a2565b90506125f23083613d1f565b6125fb81613d93565b600754612632906001600160a01b03167f000000000000000000000000000000000000000000000000000000000000000083612f30565b600754600f54604051631ffbe7f960e01b81526001600160a01b0392831660048201526024810191909152604481018390527f000000000000000000000000000000000000000000000000000000000000000090911690631ffbe7f990606401600060405180830381600087803b1580156126ac57600080fd5b505af11580156126c0573d6000803e3d6000fd5b5050600e54604080516001600160701b038084168252600160701b90930490921660208301527f393c7eed3c13cd314ecf9287699a4c4737ef3422abf88199b0009cbdbc83e5c8935001905060405180910390a15050600e80546001600160e01b0319169055565b60125460009060ff161561273e57506000919050565b600019601154141561275757610c5a6109a160006113eb565b6000612764601154612798565b6001600160a01b03841660009081526003602052604090205490915080821161278e576000610fb0565b610fb08183614581565b6008546000906127d4908390600160a01b900460ff167f0000000000000000000000000000000000000000000000000000000000000000612cce565b9150610c5a82613560565b6006546001600160a01b031633146128095760405162461bcd60e51b8152600401610d249061449a565b6001600160a01b0382166000908152600b60205260409020805460ff19168215801591821790925561284857506007546001600160a01b038381169116145b1561286557600754612865906001600160a01b0316600019612d90565b5050565b6001600160a01b03811660009081526009602052604081208180612894670de0b6b3a7640000612d37565b6001600160a01b0386166000908152600a60205260409020549091505b83548110156129405760008482815481106128ce576128ce6144cf565b60009182526020909120600c5491018054909250600160e01b900463ffffffff16106129045780546001600160701b0316612920565b805461292090600160701b90046001600160701b0316846138bb565b61292a908561442e565b93505080806129389061474a565b9150506128b1565b506008546115389083907f000000000000000000000000000000000000000000000000000000000000000090600160a01b900460ff16612cce565b428410156129cb5760405162461bcd60e51b815260206004820152601760248201527f5045524d49545f444541444c494e455f455850495245440000000000000000006044820152606401610d24565b60006129d5611054565b6001600160a01b0389811660008181526005602090815260409182902080546001810190915582517f6e71edae12b1b97f4d1f60370fef10105fa2faae0126114a169c64845d6126c98184015280840194909452938c166060840152608083018b905260a083019390935260c08083018a90528151808403909101815260e08301909152805192019190912061190160f01b6101008301526101028201929092526101228101919091526101420160408051601f198184030181528282528051602091820120600080855291840180845281905260ff88169284019290925260608301869052608083018590529092509060019060a0016020604051602081039080840390855afa158015612aee573d6000803e3d6000fd5b5050604051601f1901519150506001600160a01b03811615801590612b245750886001600160a01b0316816001600160a01b0316145b612b615760405162461bcd60e51b815260206004820152600e60248201526d24a72b20a624a22fa9a4a3a722a960911b6044820152606401610d24565b6001600160a01b0390811660009081526004602090815260408083208b8516808552908352928190208a905551898152919350918a16917f8c5be1e5ebec7d5bd14f71427d1e84f3dd0314c0f7b2291e5b200ac8c7c3b9259101610f5f565b6006546001600160a01b03163314612bea5760405162461bcd60e51b8152600401610d249061449a565b601080549082905560408051828152602081018490527f1f21432dd7b8ead64d2e7c06a74baf13783b2d2f7153f099e2c4cabc3c5dbec691016115a5565b6000610c5a82612798565b6006546001600160a01b03163314612c5d5760405162461bcd60e51b8152600401610d249061449a565b6001600160a01b038116612cc25760405162461bcd60e51b815260206004820152602660248201527f4f776e61626c653a206e6577206f776e657220697320746865207a65726f206160448201526564647265737360d01b6064820152608401610d24565b612ccb81613869565b50565b60008160ff168360ff161415612ce5575082610b9d565b8160ff168360ff161015612d1957612cfd838361460c565b612d0890600a614713565b612d1290856145c3565b9050610b9d565b612d1284612d27848661460c565b612d3290600a614713565b613dc6565b6000600254600014612d5e57612d59612d4e6138d0565b6002548491906135ee565b610c5a565b5090565b828202811515841585830485141716612d7a57600080fd5b6001826001830304018115150290509392505050565b6000612d9a6134ac565b600d54909150600160701b90046001600160701b031680821115612e0257612dc28183614581565b600d8054600090612ddd9084906001600160701b0316614598565b92506101000a8154816001600160701b0302191690836001600160701b031602179055505b6000612e0c610f70565b1115612ef757604051631a4ca37b60e21b81526001600160a01b038581166004830152602482018590523060448301526000917f0000000000000000000000000000000000000000000000000000000000000000909116906369328dec906064016020604051808303816000875af1158015612e8c573d6000803e3d6000fd5b505050506040513d601f19601f82011682018060405250810190612eb09190614481565b9050846001600160a01b03167f6407790cdabc5d219eaf901091d6beccc475533065c2fbd374c8a32b1c66795882604051612eed91815260200190565b60405180910390a2505b612eff6134ac565b600d80546001600160701b0392909216600160701b02600160701b600160e01b031990921691909117905550505050565b600060405163095ea7b360e01b81526001600160a01b03841660048201528260248201526000806044836000895af1915050612f6b81613df8565b612fa85760405162461bcd60e51b815260206004820152600e60248201526d1054141493d59157d1905253115160921b6044820152606401610d24565b50505050565b6040516335ea6a7560e01b81526001600160a01b0382811660048301526000917f0000000000000000000000000000000000000000000000000000000000000000909116906335ea6a759060240161018060405180830381865afa15801561301a573d6000803e3d6000fd5b505050506040513d601f19601f8201168201806040525081019061303e91906148f4565b5050505097505050505050505060006001600160a01b0316816001600160a01b0316141561308a57604051630a5c5e7d60e11b81526001600160a01b0383166004820152602401610d24565b6000600860149054906101000a900460ff1690506000836001600160a01b031663313ce5676040518163ffffffff1660e01b8152600401602060405180830381865afa1580156130de573d6000803e3d6000fd5b505050506040513d601f19601f8201168201806040525081019061310291906149d5565b90507f000000000000000000000000000000000000000000000000000000000000000060ff168160ff16111561317857604051630651982f60e11b815260ff80831660048301527f0000000000000000000000000000000000000000000000000000000000000000166024820152604401610d24565b60ff82161580159061319057508060ff168260ff1614155b156131cf57600019601154146131b2576011546131ae908383612cce565b6011555b600019601054146131cf576010546131cb908383612cce565b6010555b600780546001600160a01b039586166001600160a01b031991821617909155600880549490951660ff909216600160a01b02166001600160a81b0319909316929092179190911790915550565b60006132266134ac565b600d54909150600160701b90046001600160701b03168082111561328e5761324e8183614581565b600d80546000906132699084906001600160701b0316614598565b92506101000a8154816001600160701b0302191690836001600160701b031602179055505b6001600160a01b0384166000908152600b602052604090205460ff166132d2576040516386433f2b60e01b81526001600160a01b0385166004820152602401610d24565b600d54600160e01b900463ffffffff1661330457600d80546001600160e01b0316600160e01b4263ffffffff16021790555b6133386001600160a01b0385167f000000000000000000000000000000000000000000000000000000000000000085612f30565b60405163e8eda9df60e01b81526001600160a01b03858116600483015260248201859052306044830152600060648301527f0000000000000000000000000000000000000000000000000000000000000000169063e8eda9df90608401600060405180830381600087803b1580156133af57600080fd5b505af11580156133c3573d6000803e3d6000fd5b50505050836001600160a01b03167f3b1270fa6f77c9af94834571cf5274944e8712de6cebea9ec3d8b3452c0533088460405161340291815260200190565b60405180910390a2612eff6134ac565b60007f8b73c3c69bb8fe3d512ecc4cf759cc79239f7b179b0ffacaa9a75d522b39400f600060405161344491906149f2565b6040805191829003822060208301939093528101919091527fc89efdaa54c0f20c7adf612882df0950f5a951637e0307cdcb4c672f298b8bc660608201524660808201523060a082015260c00160405160208183030381529060405280519060200120905090565b6008546040516370a0823160e01b815230600482015260009182916001600160a01b03909116906370a08231906024015b602060405180830381865afa1580156134fa573d6000803e3d6000fd5b505050506040513d601f19601f8201168201806040525081019061351e9190614481565b60085490915061355a908290600160a01b900460ff167f0000000000000000000000000000000000000000000000000000000000000000612cce565b91505090565b6000600254600014612d5e57612d5960025461357a6138d0565b8491906135ee565b8060026000828254613594919061442e565b90915550506001600160a01b0382166000818152600360209081526040808320805486019055518481527fddf252ad1be2c89b69c2b068fc378daa952ba7f163c4a11628f55a4df523b3ef91015b60405180910390a35050565b82820281151584158583048514171661360657600080fd5b0492915050565b601254600090819060ff161561363657604051632f22819760e11b815260040160405180910390fd5b6000841161364f5761364785612c28565b93508361365c565b61365884612225565b9450845b508361367b5760405163df46449f60e01b815260040160405180910390fd5b600019601154141580156136965750613693836113eb565b85115b156136ba576011546040516325423fdd60e21b8152600401610d2491815260200190565b600019601054141580156136e057506010546136d4610aa5565b6136de908761442e565b115b156137045760105460405163cacbef1b60e01b8152600401610d2491815260200190565b60075461371c906001600160a01b0316333088613e3f565b6137268385613582565b6001600160a01b03831660009081526009602052604090819020815160608101909252600854909182918190613788908a90600160a01b900460ff167f0000000000000000000000000000000000000000000000000000000000000000612cce565b6001600160701b03908116825288811660208084019190915263ffffffff42811660409485015285546001810187556000968752958290208551960180548684015196860151909216600160e01b026001600160e01b03968516600160701b026001600160e01b0319909316979094169690961717939093161790925560075482518981529182018890526001600160a01b03908116929087169133917f5fe47ed6d4225326d3303476197d782ded5a4e9c14f479dc9ec4992af4e85d59910160405180910390a45093949293505050565b6000818310610c855781610b9d565b600680546001600160a01b038381166001600160a01b0319831681179093556040519116919082907f8be0079c531659141344cd1fd0a4f28419497f9722a3daafe3b4186f6b6457e090600090a35050565b6000610b9d8383670de0b6b3a76400006135ee565b60006138da613ed3565b610ab76134ac565b6001600160a01b038116600090815260036020526040812054819061391a5760405163df46449f60e01b815260040160405180910390fd5b846139385760405163332215e760e11b815260040160405180910390fd5b6001600160a01b03831660009081526009602052604081208682613963670de0b6b3a7640000612d37565b6001600160a01b0388166000908152600a60205260409020549091505b8354811015613b6557600084828154811061399d5761399d6144cf565b600091825260208220600c5491018054909350600160e01b900463ffffffff161090816139d45782546001600160701b03166139f0565b82546139f090600160701b90046001600160701b0316866138bb565b905060006139fe878361385a565b8454909150600090613a2190600160701b90046001600160701b03168385612d62565b90508315613a3e578454600160701b600160e01b03168555613a80565b845482908690600090613a5b9084906001600160701b0316614722565b92506101000a8154816001600160701b0302191690836001600160701b031602179055505b845481908690600e90613aa4908490600160701b90046001600160701b0316614722565b92506101000a8154816001600160701b0302191690836001600160701b03160217905550808a613ad4919061442e565b9950613ae08289614581565b8954909850613af190600190614581565b861480613afc575087155b15613b4d578454600160701b90046001600160701b0316613b2757613b2286600161442e565b613b29565b855b6001600160a01b038e166000908152600a602052604090205550613b659350505050565b50505050508080613b5d9061474a565b915050613980565b50336001600160a01b03881614613bd4576001600160a01b03871660009081526004602090815260408083203384529091529020546000198114613bd257613bad8582614581565b6001600160a01b03891660009081526004602090815260408083203384529091529020555b505b613bde8785613d1f565b613be8828a614581565b600854909950613c25908a907f000000000000000000000000000000000000000000000000000000000000000090600160a01b900460ff16612cce565b9850613c3089613d93565b600754613c47906001600160a01b0316898b613ca6565b600754604080518b8152602081018790526001600160a01b03928316928a811692908c16917ffbde797d201c681b91056529119e0b02407c7bb96a4a2c75c01fc9667232c8db910160405180910390a450969791965090945050505050565b600060405163a9059cbb60e01b81526001600160a01b03841660048201528260248201526000806044836000895af1915050613ce181613df8565b612fa85760405162461bcd60e51b815260206004820152600f60248201526e1514905394d1915497d19052531151608a1b6044820152606401610d24565b6001600160a01b03821660009081526003602052604081208054839290613d47908490614581565b90915550506002805482900390556040518181526000906001600160a01b038416907fddf252ad1be2c89b69c2b068fc378daa952ba7f163c4a11628f55a4df523b3ef906020016135e2565b6000613d9d610c8c565b90508082111561286557600754612865906001600160a01b0316613dc18385614581565b612d90565b6000613dd28284614a8e565b15613dde576001613de1565b60005b60ff16613dee83856145f8565b610b9d919061442e565b60003d82613e0a57806000803e806000fd5b8060208114613e22578015613e335760009250613e38565b816000803e60005115159250613e38565b600192505b5050919050565b60006040516323b872dd60e01b81526001600160a01b03851660048201526001600160a01b038416602482015282604482015260008060648360008a5af1915050613e8981613df8565b613ecc5760405162461bcd60e51b81526020600482015260146024820152731514905394d1915497d19493d357d1905253115160621b6044820152606401610d24565b5050505050565b6007546040516370a0823160e01b815230600482015260009182916001600160a01b03909116906370a08231906024016134dd565b600060208083528351808285015260005b81811015613f3557858101830151858201604001528201613f19565b81811115613f47576000604083870101525b50601f01601f1916929092016040019392505050565b600060208284031215613f6f57600080fd5b5035919050565b6001600160a01b0381168114612ccb57600080fd5b60008060408385031215613f9e57600080fd5b8235613fa981613f76565b946020939093013593505050565b634e487b7160e01b600052604160045260246000fd5b604051610120810167ffffffffffffffff81118282101715613ff157613ff1613fb7565b60405290565b6040516080810167ffffffffffffffff81118282101715613ff157613ff1613fb7565b6040516060810167ffffffffffffffff81118282101715613ff157613ff1613fb7565b604051601f8201601f1916810167ffffffffffffffff8111828210171561406657614066613fb7565b604052919050565b60008060006102c0848603121561408457600080fd5b601f858186011261409457600080fd5b61409c613fcd565b806101208701888111156140af57600080fd5b875b818110156140d25780356140c481613f76565b8452602093840193016140b1565b508196508861013f8901126140e657600080fd5b6140ee613ff7565b92508291506102a088018981111561410557600080fd5b8082101561416857898583011261411c5760008081fd5b61412461401a565b80606084018c8111156141375760008081fd5b845b81811015614151578035845260209384019301614139565b505085525060209093019260609190910190614105565b9699919850509435955050505050565b60008060006060848603121561418d57600080fd5b833561419881613f76565b925060208401356141a881613f76565b929592945050506040919091013590565b6000602082840312156141cb57600080fd5b8135610b9d81613f76565b602080825282518282018190526000919060409081850190868401855b8281101561423457815180516001600160701b03908116865287820151168786015285015163ffffffff1685850152606090930192908501906001016141f3565b5091979650505050505050565b6000806040838503121561425457600080fd5b82359150602083013561426681613f76565b809150509250929050565b8035801515811461428157600080fd5b919050565b6000806000806080858703121561429c57600080fd5b84356142a781613f76565b935060208501356142b781613f76565b9250604085013591506142cc60608601614271565b905092959194509250565b6000806000606084860312156142ec57600080fd5b8335925060208401356142fe81613f76565b9150604084013561430e81613f76565b809150509250925092565b6000806040838503121561432c57600080fd5b823561433781613f76565b9150602083013561426681613f76565b6000806040838503121561435a57600080fd5b61436383614271565b915061437160208401614271565b90509250929050565b6000806040838503121561438d57600080fd5b823561436381613f76565b60ff81168114612ccb57600080fd5b600080600080600080600060e0888a0312156143c257600080fd5b87356143cd81613f76565b965060208801356143dd81613f76565b9550604088013594506060880135935060808801356143fb81614398565b9699959850939692959460a0840135945060c09093013592915050565b634e487b7160e01b600052601160045260246000fd5b6000821982111561444157614441614418565b500190565b600181811c9082168061445a57607f821691505b6020821081141561447b57634e487b7160e01b600052602260045260246000fd5b50919050565b60006020828403121561449357600080fd5b5051919050565b6020808252818101527f4f776e61626c653a2063616c6c6572206973206e6f7420746865206f776e6572604082015260600190565b634e487b7160e01b600052603260045260246000fd5b6102e08101818660005b60098110156145175781516001600160a01b03168352602092830192909101906001016144ef565b50505061012082018560005b600481101561456a5781518360005b6003811015614551578251825260209283019290910190600101614532565b5050506060929092019160209190910190600101614523565b5050506102a08201939093526102c0015292915050565b60008282101561459357614593614418565b500390565b60006001600160701b038083168185168083038211156145ba576145ba614418565b01949350505050565b60008160001904831182151516156145dd576145dd614418565b500290565b634e487b7160e01b600052601260045260246000fd5b600082614607576146076145e2565b500490565b600060ff821660ff84168082101561462657614626614418565b90039392505050565b600181815b8085111561466a57816000190482111561465057614650614418565b8085161561465d57918102915b93841c9390800290614634565b509250929050565b60008261468157506001610c5a565b8161468e57506000610c5a565b81600181146146a457600281146146ae576146ca565b6001915050610c5a565b60ff8411156146bf576146bf614418565b50506001821b610c5a565b5060208310610133831016604e8410600b84101617156146ed575081810a610c5a565b6146f7838361462f565b806000190482111561470b5761470b614418565b029392505050565b6000610b9d60ff841683614672565b60006001600160701b038381169083168181101561474257614742614418565b039392505050565b600060001982141561475e5761475e614418565b5060010190565b600081518084526020808501945080840160005b8381101561479e5781516001600160a01b031687529582019590820190600101614779565b509495945050505050565b85815284602082015260a0604082015260006147c860a0830186614765565b6001600160a01b0394909416606083015250608001529392505050565b600060208083850312156147f857600080fd5b825167ffffffffffffffff8082111561481057600080fd5b818501915085601f83011261482457600080fd5b81518181111561483657614836613fb7565b8060051b915061484784830161403d565b818152918301840191848101908884111561486157600080fd5b938501935b8385101561487f57845182529385019390850190614866565b98975050505050505050565b60608152600061489e6060830186614765565b6020830194909452506001600160a01b0391909116604090910152919050565b80516fffffffffffffffffffffffffffffffff8116811461428157600080fd5b805161428181613f76565b805161428181614398565b6000806000806000806000806000806000806101808d8f03121561491757600080fd5b8c519b5061492760208e016148be565b9a5061493560408e016148be565b995061494360608e016148be565b985061495160808e016148be565b975061495f60a08e016148be565b965060c08d015164ffffffffff8116811461497957600080fd5b955061498760e08e016148de565b94506149966101008e016148de565b93506149a56101208e016148de565b92506149b46101408e016148de565b91506149c36101608e016148e9565b90509295989b509295989b509295989b565b6000602082840312156149e757600080fd5b8151610b9d81614398565b600080835481600182811c915080831680614a0e57607f831692505b6020808410821415614a2e57634e487b7160e01b86526022600452602486fd5b818015614a425760018114614a5357614a80565b60ff19861689528489019650614a80565b60008a81526020902060005b86811015614a785781548b820152908501908301614a5f565b505084890196505b509498975050505050505050565b600082614a9d57614a9d6145e2565b50069056fea2646970667358221220455bba0ed599a632c85f4afcbcd7eef49a9c744045026b559c16ab974fb77a2564736f6c634300080b0033536f6d6d656c696572204161766520563220537461626c65636f696e2043656c6c6172204c5020546f6b656e",
    "linkReferences": {}
  }
}