{
  "abi": [
    {
      "inputs": [],
      "name": "AaveV3ATokenAdaptor__HealthFactorTooLow",
      "type": "error"
    },
    {
      "inputs": [],
      "name": "AaveV3ATokenAdaptor__OracleUsesDifferentBase",
      "type": "error"
    },
    {
      "inputs": [],
      "name": "BaseAdaptor__ExternalReceiverBlocked",
      "type": "error"
    },
    {
      "inputs": [
        {
          "internalType": "address",
          "name": "asset",
          "type": "address"
        }
      ],
      "name": "BaseAdaptor__PricingNotSupported",
      "type": "error"
    },
    {
      "inputs": [],
      "name": "BaseAdaptor__Slippage",
      "type": "error"
    },
    {
      "inputs": [],
      "name": "BaseAdaptor__UserDepositsNotAllowed",
      "type": "error"
    },
    {
      "inputs": [],
      "name": "BaseAdaptor__UserWithdrawsNotAllowed",
      "type": "error"
    },
    {
      "inputs": [
        {
          "internalType": "contract ERC20",
          "name": "asset",
          "type": "address"
        },
        {
          "internalType": "bool",
          "name": "useAsCollateral",
          "type": "bool"
        }
      ],
      "name": "adjustIsolationModeAssetAsCollateral",
      "outputs": [],
      "stateMutability": "nonpayable",
      "type": "function"
    },
    {
      "inputs": [
        {
          "internalType": "bytes",
          "name": "adaptorData",
          "type": "bytes"
        }
      ],
      "name": "assetOf",
      "outputs": [
        {
          "internalType": "contract ERC20",
          "name": "",
          "type": "address"
        }
      ],
      "stateMutability": "view",
      "type": "function"
    },
    {
      "inputs": [
        {
          "internalType": "bytes",
          "name": "adaptorData",
          "type": "bytes"
        }
      ],
      "name": "assetsUsed",
      "outputs": [
        {
          "internalType": "contract ERC20[]",
          "name": "assets",
          "type": "address[]"
        }
      ],
      "stateMutability": "view",
      "type": "function"
    },
    {
      "inputs": [
        {
          "internalType": "bytes",
          "name": "adaptorData",
          "type": "bytes"
        }
      ],
      "name": "balanceOf",
      "outputs": [
        {
          "internalType": "uint256",
          "name": "",
          "type": "uint256"
        }
      ],
      "stateMutability": "view",
      "type": "function"
    },
    {
      "inputs": [
        {
          "internalType": "uint8",
          "name": "categoryId",
          "type": "uint8"
        }
      ],
      "name": "changeEMode",
      "outputs": [],
      "stateMutability": "nonpayable",
      "type": "function"
    },
    {
      "inputs": [
        {
          "internalType": "uint256",
          "name": "assets",
          "type": "uint256"
        },
        {
          "internalType": "bytes",
          "name": "adaptorData",
          "type": "bytes"
        },
        {
          "internalType": "bytes",
          "name": "",
          "type": "bytes"
        }
      ],
      "name": "deposit",
      "outputs": [],
      "stateMutability": "nonpayable",
      "type": "function"
    },
    {
      "inputs": [
        {
          "internalType": "contract ERC20",
          "name": "tokenToDeposit",
          "type": "address"
        },
        {
          "internalType": "uint256",
          "name": "amountToDeposit",
          "type": "uint256"
        }
      ],
      "name": "depositToAave",
      "outputs": [],
      "stateMutability": "nonpayable",
      "type": "function"
    },
    {
      "inputs": [],
      "name": "identifier",
      "outputs": [
        {
          "internalType": "bytes32",
          "name": "",
          "type": "bytes32"
        }
      ],
      "stateMutability": "pure",
      "type": "function"
    },
    {
      "inputs": [],
      "name": "isDebt",
      "outputs": [
        {
          "internalType": "bool",
          "name": "",
          "type": "bool"
        }
      ],
      "stateMutability": "pure",
      "type": "function"
    },
    {
      "inputs": [
        {
          "internalType": "contract ERC20",
          "name": "asset",
          "type": "address"
        },
        {
          "internalType": "address",
          "name": "spender",
          "type": "address"
        }
      ],
      "name": "revokeApproval",
      "outputs": [],
      "stateMutability": "nonpayable",
      "type": "function"
    },
    {
      "inputs": [],
      "name": "slippage",
      "outputs": [
        {
          "internalType": "uint32",
          "name": "",
          "type": "uint32"
        }
      ],
      "stateMutability": "pure",
      "type": "function"
    },
    {
      "inputs": [
        {
          "internalType": "uint256",
          "name": "assets",
          "type": "uint256"
        },
        {
          "internalType": "address",
          "name": "receiver",
          "type": "address"
        },
        {
          "internalType": "bytes",
          "name": "adaptorData",
          "type": "bytes"
        },
        {
          "internalType": "bytes",
          "name": "configData",
          "type": "bytes"
        }
      ],
      "name": "withdraw",
      "outputs": [],
      "stateMutability": "nonpayable",
      "type": "function"
    },
    {
      "inputs": [
        {
          "internalType": "contract ERC20",
          "name": "tokenToWithdraw",
          "type": "address"
        },
        {
          "internalType": "uint256",
          "name": "amountToWithdraw",
          "type": "uint256"
        }
      ],
      "name": "withdrawFromAave",
      "outputs": [],
      "stateMutability": "nonpayable",
      "type": "function"
    },
    {
      "inputs": [
        {
          "internalType": "bytes",
          "name": "adaptorData",
          "type": "bytes"
        },
        {
          "internalType": "bytes",
          "name": "configData",
          "type": "bytes"
        }
      ],
      "name": "withdrawableFrom",
      "outputs": [
        {
          "internalType": "uint256",
          "name": "",
          "type": "uint256"
        }
      ],
      "stateMutability": "view",
      "type": "function"
    }
  ],
  "bytecode": {
    "object": "0x608060405234801561001057600080fd5b50611af3806100206000396000f3fe608060405234801561001057600080fd5b50600436106100ea5760003560e01c806389353a091161008c578063d3bfe76a11610066578063d3bfe76a146101bd578063e170a9bf146101d0578063eeb149e7146101fb578063fa50e5d21461020e57600080fd5b806389353a091461017b578063aeffddde1461018a578063c9111bd7146101aa57600080fd5b80634ac839f7116100c85780634ac839f71461012c57806369445c311461013f57806378415365146101525780637998a1c41461017357600080fd5b806323bf298f146100ef5780633e032a3b14610104578063487ede0414610119575b600080fd5b6101026100fd366004611542565b610221565b005b60405161232881526020015b60405180910390f35b61010261012736600461157b565b610351565b61010261013a3660046115b6565b6103f2565b61010261014d366004611676565b61051a565b6101656101603660046116e3565b61065f565b604051908152602001610110565b6101656106e8565b60405160008152602001610110565b61019d6101983660046116e3565b610746565b6040516101109190611720565b6101026101b836600461176d565b6108cc565b6101026101cb3660046117ed565b610bff565b6101e36101de3660046116e3565b610c14565b6040516001600160a01b039091168152602001610110565b61010261020936600461157b565b610c8f565b61016561021c36600461181b565b610d56565b600080516020611a9e833981519152604051635a3b74b960e01b81526001600160a01b03848116600483015283151560248301529190911690635a3b74b990604401600060405180830381600087803b15801561027d57600080fd5b505af1158015610291573d6000803e3d6000fd5b5050505060006102ac600080516020611a9e83398151915290565b604051632fe4a15f60e21b81523060048201526001600160a01b03919091169063bf92857c9060240160c060405180830381865afa1580156102f2573d6000803e3d6000fd5b505050506040513d601f19601f82011682018060405250810190610316919061187f565b9550505050505061032c670e92596fd629000090565b81101561034c5760405163106c2d2f60e31b815260040160405180910390fd5b505050565b600080516020611a9e833981519152604051631a4ca37b60e21b81526001600160a01b0384811660048301526024820184905230604483015291909116906369328dec906064016020604051808303816000875af11580156103b7573d6000803e3d6000fd5b505050506040513d601f19601f820116820180604052508101906103db91906118c9565b506000600080516020611a9e8339815191526102ac565b600080516020611a9e8339815191526040516328530a4760e01b815260ff831660048201526001600160a01b0391909116906328530a4790602401600060405180830381600087803b15801561044757600080fd5b505af115801561045b573d6000803e3d6000fd5b505050506000610476600080516020611a9e83398151915290565b604051632fe4a15f60e21b81523060048201526001600160a01b03919091169063bf92857c9060240160c060405180830381865afa1580156104bc573d6000803e3d6000fd5b505050506040513d601f19601f820116820180604052508101906104e0919061187f565b955050505050506104f6670e92596fd629000090565b8110156105165760405163106c2d2f60e31b815260040160405180910390fd5b5050565b60008280602001905181019061053091906118e2565b90506000816001600160a01b031663b16a19de6040518163ffffffff1660e01b8152600401602060405180830381865afa158015610572573d6000803e3d6000fd5b505050506040513d601f19601f8201168201806040525081019061059691906118e2565b90506105ba6001600160a01b038216600080516020611a9e8339815191528761125f565b600080516020611a9e83398151915260405163617ba03760e01b81526001600160a01b0383811660048301526024820188905230604483015260006064830152919091169063617ba03790608401600060405180830381600087803b15801561062257600080fd5b505af1158015610636573d6000803e3d6000fd5b5050505061065881610653600080516020611a9e83398151915290565b6112e1565b5050505050565b6000808280602001905181019061067691906118e2565b6040516370a0823160e01b81523360048201529091506001600160a01b038216906370a0823190602401602060405180830381865afa1580156106bd573d6000803e3d6000fd5b505050506040513d601f19601f820116820180604052508101906106e191906118c9565b9392505050565b600060405160200161072b906020808252601c908201527f416176652056332061546f6b656e2041646170746f72205620312e3000000000604082015260600190565b60405160208183030381529060405280519060200120905090565b6040805160018082528183019092526060916020808301908036833701905050905061077182610c14565b81600081518110610784576107846118ff565b6001600160a01b039092166020928302919091019091015260006107b97354586be62e3c3580375ae3723c145253060ca0c290565b6001600160a01b031663e19f47006040518163ffffffff1660e01b8152600401602060405180830381865afa1580156107f6573d6000803e3d6000fd5b505050506040513d601f19601f8201168201806040525081019061081a91906118e2565b6001600160a01b03161415806108a957507354586be62e3c3580375ae3723c145253060ca0c26001600160a01b0316638c89b64f6040518163ffffffff1660e01b8152600401602060405180830381865afa15801561087d573d6000803e3d6000fd5b505050506040513d601f19601f820116820180604052508101906108a191906118c9565b6305f5e10014155b156108c757604051636978673560e11b815260040160405180910390fd5b919050565b6108d583611370565b6000828060200190518101906108eb91906118e2565b9050600080516020611a9e8339815191526001600160a01b03166369328dec826001600160a01b031663b16a19de6040518163ffffffff1660e01b8152600401602060405180830381865afa158015610948573d6000803e3d6000fd5b505050506040513d601f19601f8201168201806040525081019061096c91906118e2565b6040516001600160e01b031960e084901b1681526001600160a01b039091166004820152602481018890523060448201526064016020604051808303816000875af11580156109bf573d6000803e3d6000fd5b505050506040513d601f19601f820116820180604052508101906109e391906118c9565b50600080600080516020611a9e833981519152604051632fe4a15f60e21b81523060048201526001600160a01b03919091169063bf92857c9060240160c060405180830381865afa158015610a3c573d6000803e3d6000fd5b505050506040513d601f19601f82011682018060405250810190610a60919061187f565b95505050509250506000821115610b7f57600080516020611a9e83398151915260405163eddf1b7960e01b81523360048201526001600160a01b03919091169063eddf1b7990602401602060405180830381865afa158015610ac6573d6000803e3d6000fd5b505050506040513d601f19601f82011682018060405250810190610aea91906118c9565b15610b0857604051635f5003c560e11b815260040160405180910390fd5b600084806020019051810190610b1e91906118c9565b905080600003610b4157604051635f5003c560e11b815260040160405180910390fd5b670e92596fd6290000811015610b5c5750670e92596fd62900005b80821015610b7d5760405163106c2d2f60e31b815260040160405180910390fd5b505b610bf68688856001600160a01b031663b16a19de6040518163ffffffff1660e01b8152600401602060405180830381865afa158015610bc2573d6000803e3d6000fd5b505050506040513d601f19601f82011682018060405250810190610be691906118e2565b6001600160a01b03169190611407565b50505050505050565b6105166001600160a01b03831682600061125f565b60008082806020019051810190610c2b91906118e2565b9050806001600160a01b031663b16a19de6040518163ffffffff1660e01b8152600401602060405180830381865afa158015610c6b573d6000803e3d6000fd5b505050506040513d601f19601f820116820180604052508101906106e191906118e2565b610c99828261147f565b9050610cbd6001600160a01b038316600080516020611a9e8339815191528361125f565b600080516020611a9e83398151915260405163617ba03760e01b81526001600160a01b0384811660048301526024820184905230604483015260006064830152919091169063617ba03790608401600060405180830381600087803b158015610d2557600080fd5b505af1158015610d39573d6000803e3d6000fd5b5050505061051682610653600080516020611a9e83398151915290565b60008083806020019051810190610d6d91906118e2565b90506000808080600080516020611a9e833981519152604051632fe4a15f60e21b81523360048201526001600160a01b03919091169063bf92857c9060240160c060405180830381865afa158015610dc9573d6000803e3d6000fd5b505050506040513d601f19601f82011682018060405250810190610ded919061187f565b9550509450509350935082600003610e73576040516370a0823160e01b81523360048201526001600160a01b038616906370a0823190602401602060405180830381865afa158015610e43573d6000803e3d6000fd5b505050506040513d601f19601f82011682018060405250810190610e6791906118c9565b95505050505050611259565b600080516020611a9e83398151915260405163eddf1b7960e01b81523360048201526001600160a01b03919091169063eddf1b7990602401602060405180830381865afa158015610ec8573d6000803e3d6000fd5b505050506040513d601f19601f82011682018060405250810190610eec91906118c9565b15610eff57600095505050505050611259565b600087806020019051810190610f1591906118c9565b905080600003610f2e5760009650505050505050611259565b670e92596fd6290000811015610f495750670e92596fd62900005b6000662386f26fc10000610f5d818461192b565b9250610f69818461192b565b841015610f8157600098505050505050505050611259565b610f9d86610f9587655af3107a400061193e565b859190611500565b610fa7908861195d565b91506000886001600160a01b031663b16a19de6040518163ffffffff1660e01b8152600401602060405180830381865afa158015610fe9573d6000803e3d6000fd5b505050506040513d601f19601f8201168201806040525081019061100d91906118e2565b90506000336001600160a01b0316637b1039996040518163ffffffff1660e01b8152600401602060405180830381865afa15801561104f573d6000803e3d6000fd5b505050506040513d601f19601f8201168201806040525081019061107391906118e2565b604051635c9fcd8560e11b8152600260048201526001600160a01b03919091169063b93f9b0a90602401602060405180830381865afa1580156110ba573d6000803e3d6000fd5b505050506040513d601f19601f820116820180604052508101906110de91906118e2565b604051630226614760e01b81526001600160a01b038481166004830152919250600091831690630226614790602401602060405180830381865afa15801561112a573d6000803e3d6000fd5b505050506040513d601f19601f8201168201806040525081019061114e91906118c9565b905060006111ca846001600160a01b031663313ce5676040518163ffffffff1660e01b8152600401602060405180830381865afa158015611193573d6000803e3d6000fd5b505050506040513d601f19601f820116820180604052508101906111b79190611970565b6111c290600a611a71565b879084611500565b6040516370a0823160e01b81523360048201529091506000906001600160a01b038e16906370a0823190602401602060405180830381865afa158015611214573d6000803e3d6000fd5b505050506040513d601f19601f8201168201806040525081019061123891906118c9565b90508082116112475781611249565b805b9d50505050505050505050505050505b92915050565b600060405163095ea7b360e01b8152836004820152826024820152602060006044836000895af13d15601f3d11600160005114161716915050806112db5760405162461bcd60e51b815260206004820152600e60248201526d1054141493d59157d1905253115160921b60448201526064015b60405180910390fd5b50505050565b604051636eb1769f60e11b81523060048201526001600160a01b0382811660248301526000919084169063dd62ed3e90604401602060405180830381865afa158015611331573d6000803e3d6000fd5b505050506040513d601f19601f8201168201806040525081019061135591906118c9565b1115610516576105166001600160a01b03831682600061125f565b6001600160a01b03811630148015906113e65750306001600160a01b0316634c4602da6040518163ffffffff1660e01b8152600401602060405180830381865afa1580156113c2573d6000803e3d6000fd5b505050506040513d601f19601f820116820180604052508101906113e69190611a80565b15611404576040516307de9b5160e21b815260040160405180910390fd5b50565b600060405163a9059cbb60e01b8152836004820152826024820152602060006044836000895af13d15601f3d11600160005114161716915050806112db5760405162461bcd60e51b815260206004820152600f60248201526e1514905394d1915497d19052531151608a1b60448201526064016112d2565b600060001982036114f9576040516370a0823160e01b81523060048201526001600160a01b038416906370a0823190602401602060405180830381865afa1580156114ce573d6000803e3d6000fd5b505050506040513d601f19601f820116820180604052508101906114f291906118c9565b9050611259565b5080611259565b82820281151584158583048514171661151857600080fd5b0492915050565b6001600160a01b038116811461140457600080fd5b801515811461140457600080fd5b6000806040838503121561155557600080fd5b82356115608161151f565b9150602083013561157081611534565b809150509250929050565b6000806040838503121561158e57600080fd5b82356115998161151f565b946020939093013593505050565b60ff8116811461140457600080fd5b6000602082840312156115c857600080fd5b81356106e1816115a7565b634e487b7160e01b600052604160045260246000fd5b600082601f8301126115fa57600080fd5b813567ffffffffffffffff80821115611615576116156115d3565b604051601f8301601f19908116603f0116810190828211818310171561163d5761163d6115d3565b8160405283815286602085880101111561165657600080fd5b836020870160208301376000602085830101528094505050505092915050565b60008060006060848603121561168b57600080fd5b83359250602084013567ffffffffffffffff808211156116aa57600080fd5b6116b6878388016115e9565b935060408601359150808211156116cc57600080fd5b506116d9868287016115e9565b9150509250925092565b6000602082840312156116f557600080fd5b813567ffffffffffffffff81111561170c57600080fd5b611718848285016115e9565b949350505050565b6020808252825182820181905260009190848201906040850190845b818110156117615783516001600160a01b03168352928401929184019160010161173c565b50909695505050505050565b6000806000806080858703121561178357600080fd5b8435935060208501356117958161151f565b9250604085013567ffffffffffffffff808211156117b257600080fd5b6117be888389016115e9565b935060608701359150808211156117d457600080fd5b506117e1878288016115e9565b91505092959194509250565b6000806040838503121561180057600080fd5b823561180b8161151f565b915060208301356115708161151f565b6000806040838503121561182e57600080fd5b823567ffffffffffffffff8082111561184657600080fd5b611852868387016115e9565b9350602085013591508082111561186857600080fd5b50611875858286016115e9565b9150509250929050565b60008060008060008060c0878903121561189857600080fd5b865195506020870151945060408701519350606087015192506080870151915060a087015190509295509295509295565b6000602082840312156118db57600080fd5b5051919050565b6000602082840312156118f457600080fd5b81516106e18161151f565b634e487b7160e01b600052603260045260246000fd5b634e487b7160e01b600052601160045260246000fd5b8082018082111561125957611259611915565b600081600019048311821515161561195857611958611915565b500290565b8181038181111561125957611259611915565b60006020828403121561198257600080fd5b81516106e1816115a7565b600181815b808511156119c85781600019048211156119ae576119ae611915565b808516156119bb57918102915b93841c9390800290611992565b509250929050565b6000826119df57506001611259565b816119ec57506000611259565b8160018114611a025760028114611a0c57611a28565b6001915050611259565b60ff841115611a1d57611a1d611915565b50506001821b611259565b5060208310610133831016604e8410600b8410161715611a4b575081810a611259565b611a55838361198d565b8060001904821115611a6957611a69611915565b029392505050565b60006106e160ff8416836119d0565b600060208284031215611a9257600080fd5b81516106e18161153456fe00000000000000000000000087870bca3f3fd6335c3f4ce8392d69350b4fa4e2a26469706673582212207db315bd3529e7609816947b0cbd5e70506b165a912bbd4d443294f218fd58bd64736f6c63430008100033",
    "linkReferences": {}
  },
  "methodIdentifiers": {
    "adjustIsolationModeAssetAsCollateral(address,bool)": "23bf298f",
    "assetOf(bytes)": "e170a9bf",
    "assetsUsed(bytes)": "aeffddde",
    "balanceOf(bytes)": "78415365",
    "changeEMode(uint8)": "4ac839f7",
    "deposit(uint256,bytes,bytes)": "69445c31",
    "depositToAave(address,uint256)": "eeb149e7",
    "identifier()": "7998a1c4",
    "isDebt()": "89353a09",
    "revokeApproval(address,address)": "d3bfe76a",
    "slippage()": "3e032a3b",
    "withdraw(uint256,address,bytes,bytes)": "c9111bd7",
    "withdrawFromAave(address,uint256)": "487ede04",
    "withdrawableFrom(bytes,bytes)": "fa50e5d2"
  },
  "id": 76
}