{
  "abi": [
    {
      "inputs": [],
      "name": "BaseAdaptor__ExternalReceiverBlocked",
      "type": "error"
    },
    {
      "inputs": [
        {
          "internalType": "address",
          "name": "asset",
          "type": "address"
        }
      ],
      "name": "BaseAdaptor__PricingNotSupported",
      "type": "error"
    },
    {
      "inputs": [],
      "name": "BaseAdaptor__Slippage",
      "type": "error"
    },
    {
      "inputs": [],
      "name": "BaseAdaptor__UserDepositsNotAllowed",
      "type": "error"
    },
    {
      "inputs": [],
      "name": "BaseAdaptor__UserWithdrawsNotAllowed",
      "type": "error"
    },
    {
      "inputs": [
        {
          "internalType": "address",
          "name": "cellar",
          "type": "address"
        }
      ],
      "name": "CellarAdaptor__CellarPositionNotUsed",
      "type": "error"
    },
    {
      "inputs": [
        {
          "internalType": "bytes",
          "name": "adaptorData",
          "type": "bytes"
        }
      ],
      "name": "assetOf",
      "outputs": [
        {
          "internalType": "contract ERC20",
          "name": "",
          "type": "address"
        }
      ],
      "stateMutability": "view",
      "type": "function"
    },
    {
      "inputs": [
        {
          "internalType": "bytes",
          "name": "adaptorData",
          "type": "bytes"
        }
      ],
      "name": "assetsUsed",
      "outputs": [
        {
          "internalType": "contract ERC20[]",
          "name": "assets",
          "type": "address[]"
        }
      ],
      "stateMutability": "view",
      "type": "function"
    },
    {
      "inputs": [
        {
          "internalType": "bytes",
          "name": "adaptorData",
          "type": "bytes"
        }
      ],
      "name": "balanceOf",
      "outputs": [
        {
          "internalType": "uint256",
          "name": "",
          "type": "uint256"
        }
      ],
      "stateMutability": "view",
      "type": "function"
    },
    {
      "inputs": [
        {
          "internalType": "uint256",
          "name": "assets",
          "type": "uint256"
        },
        {
          "internalType": "bytes",
          "name": "adaptorData",
          "type": "bytes"
        },
        {
          "internalType": "bytes",
          "name": "",
          "type": "bytes"
        }
      ],
      "name": "deposit",
      "outputs": [],
      "stateMutability": "nonpayable",
      "type": "function"
    },
    {
      "inputs": [
        {
          "internalType": "contract Cellar",
          "name": "cellar",
          "type": "address"
        },
        {
          "internalType": "uint256",
          "name": "assets",
          "type": "uint256"
        }
      ],
      "name": "depositToCellar",
      "outputs": [],
      "stateMutability": "nonpayable",
      "type": "function"
    },
    {
      "inputs": [],
      "name": "identifier",
      "outputs": [
        {
          "internalType": "bytes32",
          "name": "",
          "type": "bytes32"
        }
      ],
      "stateMutability": "pure",
      "type": "function"
    },
    {
      "inputs": [],
      "name": "isDebt",
      "outputs": [
        {
          "internalType": "bool",
          "name": "",
          "type": "bool"
        }
      ],
      "stateMutability": "pure",
      "type": "function"
    },
    {
      "inputs": [
        {
          "internalType": "contract ERC20",
          "name": "asset",
          "type": "address"
        },
        {
          "internalType": "address",
          "name": "spender",
          "type": "address"
        }
      ],
      "name": "revokeApproval",
      "outputs": [],
      "stateMutability": "nonpayable",
      "type": "function"
    },
    {
      "inputs": [],
      "name": "slippage",
      "outputs": [
        {
          "internalType": "uint32",
          "name": "",
          "type": "uint32"
        }
      ],
      "stateMutability": "pure",
      "type": "function"
    },
    {
      "inputs": [
        {
          "internalType": "uint256",
          "name": "assets",
          "type": "uint256"
        },
        {
          "internalType": "address",
          "name": "receiver",
          "type": "address"
        },
        {
          "internalType": "bytes",
          "name": "adaptorData",
          "type": "bytes"
        },
        {
          "internalType": "bytes",
          "name": "",
          "type": "bytes"
        }
      ],
      "name": "withdraw",
      "outputs": [],
      "stateMutability": "nonpayable",
      "type": "function"
    },
    {
      "inputs": [
        {
          "internalType": "contract Cellar",
          "name": "cellar",
          "type": "address"
        },
        {
          "internalType": "uint256",
          "name": "assets",
          "type": "uint256"
        }
      ],
      "name": "withdrawFromCellar",
      "outputs": [],
      "stateMutability": "nonpayable",
      "type": "function"
    },
    {
      "inputs": [
        {
          "internalType": "bytes",
          "name": "adaptorData",
          "type": "bytes"
        },
        {
          "internalType": "bytes",
          "name": "",
          "type": "bytes"
        }
      ],
      "name": "withdrawableFrom",
      "outputs": [
        {
          "internalType": "uint256",
          "name": "",
          "type": "uint256"
        }
      ],
      "stateMutability": "view",
      "type": "function"
    }
  ],
  "bytecode": {
    "object": "0x608060405234801561001057600080fd5b50611060806100206000396000f3fe608060405234801561001057600080fd5b50600436106100b45760003560e01c8063aeffddde11610071578063aeffddde1461012e578063c9111bd71461014e578063d3bfe76a14610161578063e170a9bf14610174578063f42e74101461019f578063fa50e5d2146101b257600080fd5b80630b2a0862146100b95780633e032a3b146100ce57806369445c31146100e357806378415365146100f65780637998a1c41461011757806389353a091461011f575b600080fd5b6100cc6100c7366004610c5c565b6101c5565b005b60405161232881526020015b60405180910390f35b6100cc6100f1366004610d2b565b6102d5565b610109610104366004610d98565b6103f3565b6040519081526020016100da565b6101096104e3565b604051600081526020016100da565b61014161013c366004610d98565b610541565b6040516100da9190610dcd565b6100cc61015c366004610e1a565b6105a4565b6100cc61016f366004610e9a565b61064f565b610187610182366004610d98565b610668565b6040516001600160a01b0390911681526020016100da565b6100cc6101ad366004610c5c565b6106e3565b6101096101c0366004610ed3565b6107d8565b6101ce82610864565b6000826001600160a01b03166338d52e0f6040518163ffffffff1660e01b8152600401602060405180830381865afa15801561020e573d6000803e3d6000fd5b505050506040513d601f19601f820116820180604052508101906102329190610f37565b905061023e8183610a23565b91506102546001600160a01b0382168484610aa4565b604051636e553f6560e01b8152600481018390523060248201526001600160a01b03841690636e553f65906044016020604051808303816000875af11580156102a1573d6000803e3d6000fd5b505050506040513d601f19601f820116820180604052508101906102c59190610f54565b506102d08184610b21565b505050565b6000828060200190518101906102eb9190610f37565b90506102f681610864565b6000816001600160a01b03166338d52e0f6040518163ffffffff1660e01b8152600401602060405180830381865afa158015610336573d6000803e3d6000fd5b505050506040513d601f19601f8201168201806040525081019061035a9190610f37565b90506103706001600160a01b0382168387610aa4565b604051636e553f6560e01b8152600481018690523060248201526001600160a01b03831690636e553f65906044016020604051808303816000875af11580156103bd573d6000803e3d6000fd5b505050506040513d601f19601f820116820180604052508101906103e19190610f54565b506103ec8183610b21565b5050505050565b6000808280602001905181019061040a9190610f37565b6040516370a0823160e01b81523360048201529091506001600160a01b03821690634cdad5069082906370a0823190602401602060405180830381865afa158015610459573d6000803e3d6000fd5b505050506040513d601f19601f8201168201806040525081019061047d9190610f54565b6040518263ffffffff1660e01b815260040161049b91815260200190565b602060405180830381865afa1580156104b8573d6000803e3d6000fd5b505050506040513d601f19601f820116820180604052508101906104dc9190610f54565b9392505050565b6000604051602001610526906020808252601e908201527f536f6d6d656c6965722043656c6c61722041646170746f72205620312e300000604082015260600190565b60405160208183030381529060405280519060200120905090565b6040805160018082528183019092526060916020808301908036833701905050905061056c82610668565b8160008151811061057f5761057f610f6d565b60200260200101906001600160a01b031690816001600160a01b031681525050919050565b6105ad83610bb0565b6000828060200190518101906105c39190610f37565b90506105ce81610864565b604051632d182be560e21b8152600481018690526001600160a01b03858116602483015230604483015282169063b460af94906064016020604051808303816000875af1158015610623573d6000803e3d6000fd5b505050506040513d601f19601f820116820180604052508101906106479190610f54565b505050505050565b6106646001600160a01b038316826000610aa4565b5050565b6000808280602001905181019061067f9190610f37565b9050806001600160a01b03166338d52e0f6040518163ffffffff1660e01b8152600401602060405180830381865afa1580156106bf573d6000803e3d6000fd5b505050506040513d601f19601f820116820180604052508101906104dc9190610f37565b6106ec82610864565b60001981036107605760405163ce96cb7760e01b81523060048201526001600160a01b0383169063ce96cb7790602401602060405180830381865afa158015610739573d6000803e3d6000fd5b505050506040513d601f19601f8201168201806040525081019061075d9190610f54565b90505b604051632d182be560e21b815260048101829052306024820181905260448201526001600160a01b0383169063b460af94906064016020604051808303816000875af11580156107b4573d6000803e3d6000fd5b505050506040513d601f19601f820116820180604052508101906102d09190610f54565b600080838060200190518101906107ef9190610f37565b60405163ce96cb7760e01b81523360048201529091506001600160a01b0382169063ce96cb7790602401602060405180830381865afa158015610836573d6000803e3d6000fd5b505050506040513d601f19601f8201168201806040525081019061085a9190610f54565b9150505b92915050565b600061086e6104e3565b604080516001600160a01b03851660208201526000910160408051601f19818403018152908290526108a4939291602001610f83565b6040516020818303038152906040528051906020012090506000306001600160a01b0316637b1039996040518163ffffffff1660e01b8152600401602060405180830381865afa1580156108fc573d6000803e3d6000fd5b505050506040513d601f19601f820116820180604052508101906109209190610f37565b6001600160a01b03166309f7abd2836040518263ffffffff1660e01b815260040161094d91815260200190565b602060405180830381865afa15801561096a573d6000803e3d6000fd5b505050506040513d601f19601f8201168201806040525081019061098e9190610fe2565b60405163024eefab60e61b815263ffffffff8216600482015290915030906393bbeac090602401602060405180830381865afa1580156109d2573d6000803e3d6000fd5b505050506040513d601f19601f820116820180604052508101906109f69190611008565b6102d057604051633f1b41e960e01b81526001600160a01b03841660048201526024015b60405180910390fd5b60006000198203610a9d576040516370a0823160e01b81523060048201526001600160a01b038416906370a0823190602401602060405180830381865afa158015610a72573d6000803e3d6000fd5b505050506040513d601f19601f82011682018060405250810190610a969190610f54565b905061085e565b508061085e565b600060405163095ea7b360e01b8152836004820152826024820152602060006044836000895af13d15601f3d1160016000511416171691505080610b1b5760405162461bcd60e51b815260206004820152600e60248201526d1054141493d59157d1905253115160921b6044820152606401610a1a565b50505050565b604051636eb1769f60e11b81523060048201526001600160a01b0382811660248301526000919084169063dd62ed3e90604401602060405180830381865afa158015610b71573d6000803e3d6000fd5b505050506040513d601f19601f82011682018060405250810190610b959190610f54565b1115610664576106646001600160a01b038316826000610aa4565b6001600160a01b0381163014801590610c265750306001600160a01b0316634c4602da6040518163ffffffff1660e01b8152600401602060405180830381865afa158015610c02573d6000803e3d6000fd5b505050506040513d601f19601f82011682018060405250810190610c269190611008565b15610c44576040516307de9b5160e21b815260040160405180910390fd5b50565b6001600160a01b0381168114610c4457600080fd5b60008060408385031215610c6f57600080fd5b8235610c7a81610c47565b946020939093013593505050565b634e487b7160e01b600052604160045260246000fd5b600082601f830112610caf57600080fd5b813567ffffffffffffffff80821115610cca57610cca610c88565b604051601f8301601f19908116603f01168101908282118183101715610cf257610cf2610c88565b81604052838152866020858801011115610d0b57600080fd5b836020870160208301376000602085830101528094505050505092915050565b600080600060608486031215610d4057600080fd5b83359250602084013567ffffffffffffffff80821115610d5f57600080fd5b610d6b87838801610c9e565b93506040860135915080821115610d8157600080fd5b50610d8e86828701610c9e565b9150509250925092565b600060208284031215610daa57600080fd5b813567ffffffffffffffff811115610dc157600080fd5b61085a84828501610c9e565b6020808252825182820181905260009190848201906040850190845b81811015610e0e5783516001600160a01b031683529284019291840191600101610de9565b50909695505050505050565b60008060008060808587031215610e3057600080fd5b843593506020850135610e4281610c47565b9250604085013567ffffffffffffffff80821115610e5f57600080fd5b610e6b88838901610c9e565b93506060870135915080821115610e8157600080fd5b50610e8e87828801610c9e565b91505092959194509250565b60008060408385031215610ead57600080fd5b8235610eb881610c47565b91506020830135610ec881610c47565b809150509250929050565b60008060408385031215610ee657600080fd5b823567ffffffffffffffff80821115610efe57600080fd5b610f0a86838701610c9e565b93506020850135915080821115610f2057600080fd5b50610f2d85828601610c9e565b9150509250929050565b600060208284031215610f4957600080fd5b81516104dc81610c47565b600060208284031215610f6657600080fd5b5051919050565b634e487b7160e01b600052603260045260246000fd5b838152600060208415158184015260606040840152835180606085015260005b81811015610fbf57858101830151858201608001528201610fa3565b506000608082860101526080601f19601f83011685010192505050949350505050565b600060208284031215610ff457600080fd5b815163ffffffff811681146104dc57600080fd5b60006020828403121561101a57600080fd5b815180151581146104dc57600080fdfea2646970667358221220b70e23dfd142e7d8a35559221dbcc5043db2a08720aa979d0f0a3cfc841ecf8b64736f6c63430008100033",
    "linkReferences": {}
  },
  "methodIdentifiers": {
    "assetOf(bytes)": "e170a9bf",
    "assetsUsed(bytes)": "aeffddde",
    "balanceOf(bytes)": "78415365",
    "deposit(uint256,bytes,bytes)": "69445c31",
    "depositToCellar(address,uint256)": "0b2a0862",
    "identifier()": "7998a1c4",
    "isDebt()": "89353a09",
    "revokeApproval(address,address)": "d3bfe76a",
    "slippage()": "3e032a3b",
    "withdraw(uint256,address,bytes,bytes)": "c9111bd7",
    "withdrawFromCellar(address,uint256)": "f42e7410",
    "withdrawableFrom(bytes,bytes)": "fa50e5d2"
  },
  "id": 87
}