{
  "abi": [
    {
      "inputs": [
        {
          "internalType": "contract Registry",
          "name": "_registry",
          "type": "address"
        },
        {
          "internalType": "contract ERC20",
          "name": "_asset",
          "type": "address"
        },
        {
          "internalType": "address[]",
          "name": "_positions",
          "type": "address[]"
        },
        {
          "internalType": "enum Cellar.PositionType[]",
          "name": "_positionTypes",
          "type": "uint8[]"
        },
        {
          "internalType": "address",
          "name": "_holdingPosition",
          "type": "address"
        },
        {
          "internalType": "enum Cellar.WithdrawType",
          "name": "_withdrawType",
          "type": "uint8"
        },
        {
          "internalType": "string",
          "name": "_name",
          "type": "string"
        },
        {
          "internalType": "string",
          "name": "_symbol",
          "type": "string"
        },
        {
          "internalType": "address",
          "name": "_strategistPayout",
          "type": "address"
        }
      ],
      "stateMutability": "nonpayable",
      "type": "constructor"
    },
    {
      "inputs": [
        {
          "internalType": "address",
          "name": "asset",
          "type": "address"
        },
        {
          "internalType": "address",
          "name": "expectedAsset",
          "type": "address"
        }
      ],
      "name": "Cellar__AssetMismatch",
      "type": "error"
    },
    {
      "inputs": [],
      "name": "Cellar__ContractShutdown",
      "type": "error"
    },
    {
      "inputs": [
        {
          "internalType": "uint256",
          "name": "assets",
          "type": "uint256"
        },
        {
          "internalType": "uint256",
          "name": "maxDeposit",
          "type": "uint256"
        }
      ],
      "name": "Cellar__DepositRestricted",
      "type": "error"
    },
    {
      "inputs": [],
      "name": "Cellar__InvalidCosmosAddress",
      "type": "error"
    },
    {
      "inputs": [],
      "name": "Cellar__InvalidFee",
      "type": "error"
    },
    {
      "inputs": [],
      "name": "Cellar__InvalidFeeCut",
      "type": "error"
    },
    {
      "inputs": [
        {
          "internalType": "address",
          "name": "position",
          "type": "address"
        }
      ],
      "name": "Cellar__InvalidPosition",
      "type": "error"
    },
    {
      "inputs": [],
      "name": "Cellar__PayoutNotSet",
      "type": "error"
    },
    {
      "inputs": [
        {
          "internalType": "address",
          "name": "position",
          "type": "address"
        }
      ],
      "name": "Cellar__PositionAlreadyUsed",
      "type": "error"
    },
    {
      "inputs": [
        {
          "internalType": "uint256",
          "name": "maxPositions",
          "type": "uint256"
        }
      ],
      "name": "Cellar__PositionArrayFull",
      "type": "error"
    },
    {
      "inputs": [
        {
          "internalType": "address",
          "name": "position",
          "type": "address"
        },
        {
          "internalType": "uint256",
          "name": "sharesRemaining",
          "type": "uint256"
        }
      ],
      "name": "Cellar__PositionNotEmpty",
      "type": "error"
    },
    {
      "inputs": [],
      "name": "Cellar__RemoveHoldingPosition",
      "type": "error"
    },
    {
      "inputs": [
        {
          "internalType": "uint256",
          "name": "assets",
          "type": "uint256"
        },
        {
          "internalType": "uint256",
          "name": "min",
          "type": "uint256"
        },
        {
          "internalType": "uint256",
          "name": "max",
          "type": "uint256"
        }
      ],
      "name": "Cellar__TotalAssetDeviatedOutsideRange",
      "type": "error"
    },
    {
      "inputs": [
        {
          "internalType": "uint256",
          "name": "current",
          "type": "uint256"
        },
        {
          "internalType": "uint256",
          "name": "expected",
          "type": "uint256"
        }
      ],
      "name": "Cellar__TotalSharesMustRemainConstant",
      "type": "error"
    },
    {
      "inputs": [
        {
          "internalType": "address",
          "name": "position",
          "type": "address"
        }
      ],
      "name": "Cellar__UntrustedPosition",
      "type": "error"
    },
    {
      "inputs": [],
      "name": "Cellar__WrongSwapParams",
      "type": "error"
    },
    {
      "inputs": [],
      "name": "Cellar__ZeroAssets",
      "type": "error"
    },
    {
      "inputs": [],
      "name": "Cellar__ZeroShares",
      "type": "error"
    },
    {
      "anonymous": false,
      "inputs": [
        {
          "indexed": true,
          "internalType": "address",
          "name": "owner",
          "type": "address"
        },
        {
          "indexed": true,
          "internalType": "address",
          "name": "spender",
          "type": "address"
        },
        {
          "indexed": false,
          "internalType": "uint256",
          "name": "amount",
          "type": "uint256"
        }
      ],
      "name": "Approval",
      "type": "event"
    },
    {
      "anonymous": false,
      "inputs": [
        {
          "indexed": true,
          "internalType": "address",
          "name": "caller",
          "type": "address"
        },
        {
          "indexed": true,
          "internalType": "address",
          "name": "owner",
          "type": "address"
        },
        {
          "indexed": false,
          "internalType": "uint256",
          "name": "assets",
          "type": "uint256"
        },
        {
          "indexed": false,
          "internalType": "uint256",
          "name": "shares",
          "type": "uint256"
        }
      ],
      "name": "Deposit",
      "type": "event"
    },
    {
      "anonymous": false,
      "inputs": [
        {
          "indexed": false,
          "internalType": "uint256",
          "name": "oldLimit",
          "type": "uint256"
        },
        {
          "indexed": false,
          "internalType": "uint256",
          "name": "newLimit",
          "type": "uint256"
        }
      ],
      "name": "DepositLimitChanged",
      "type": "event"
    },
    {
      "anonymous": false,
      "inputs": [
        {
          "indexed": false,
          "internalType": "bytes32",
          "name": "oldFeesDistributor",
          "type": "bytes32"
        },
        {
          "indexed": false,
          "internalType": "bytes32",
          "name": "newFeesDistributor",
          "type": "bytes32"
        }
      ],
      "name": "FeesDistributorChanged",
      "type": "event"
    },
    {
      "anonymous": false,
      "inputs": [
        {
          "indexed": false,
          "internalType": "uint256",
          "name": "newHighWatermark",
          "type": "uint256"
        }
      ],
      "name": "HighWatermarkReset",
      "type": "event"
    },
    {
      "anonymous": false,
      "inputs": [
        {
          "indexed": true,
          "internalType": "address",
          "name": "oldPosition",
          "type": "address"
        },
        {
          "indexed": true,
          "internalType": "address",
          "name": "newPosition",
          "type": "address"
        }
      ],
      "name": "HoldingPositionChanged",
      "type": "event"
    },
    {
      "anonymous": false,
      "inputs": [
        {
          "indexed": false,
          "internalType": "uint256",
          "name": "oldLimit",
          "type": "uint256"
        },
        {
          "indexed": false,
          "internalType": "uint256",
          "name": "newLimit",
          "type": "uint256"
        }
      ],
      "name": "LiquidityLimitChanged",
      "type": "event"
    },
    {
      "anonymous": false,
      "inputs": [
        {
          "indexed": true,
          "internalType": "address",
          "name": "previousOwner",
          "type": "address"
        },
        {
          "indexed": true,
          "internalType": "address",
          "name": "newOwner",
          "type": "address"
        }
      ],
      "name": "OwnershipTransferred",
      "type": "event"
    },
    {
      "anonymous": false,
      "inputs": [
        {
          "indexed": false,
          "internalType": "uint64",
          "name": "oldPerformanceFee",
          "type": "uint64"
        },
        {
          "indexed": false,
          "internalType": "uint64",
          "name": "newPerformanceFee",
          "type": "uint64"
        }
      ],
      "name": "PerformanceFeeChanged",
      "type": "event"
    },
    {
      "anonymous": false,
      "inputs": [
        {
          "indexed": false,
          "internalType": "uint64",
          "name": "oldPlatformFee",
          "type": "uint64"
        },
        {
          "indexed": false,
          "internalType": "uint64",
          "name": "newPlatformFee",
          "type": "uint64"
        }
      ],
      "name": "PlatformFeeChanged",
      "type": "event"
    },
    {
      "anonymous": false,
      "inputs": [
        {
          "indexed": true,
          "internalType": "address",
          "name": "position",
          "type": "address"
        },
        {
          "indexed": false,
          "internalType": "uint256",
          "name": "index",
          "type": "uint256"
        }
      ],
      "name": "PositionAdded",
      "type": "event"
    },
    {
      "anonymous": false,
      "inputs": [
        {
          "indexed": true,
          "internalType": "address",
          "name": "position",
          "type": "address"
        },
        {
          "indexed": false,
          "internalType": "uint256",
          "name": "index",
          "type": "uint256"
        }
      ],
      "name": "PositionRemoved",
      "type": "event"
    },
    {
      "anonymous": false,
      "inputs": [
        {
          "indexed": true,
          "internalType": "address",
          "name": "oldPosition",
          "type": "address"
        },
        {
          "indexed": true,
          "internalType": "address",
          "name": "newPosition",
          "type": "address"
        },
        {
          "indexed": false,
          "internalType": "uint256",
          "name": "index",
          "type": "uint256"
        }
      ],
      "name": "PositionReplaced",
      "type": "event"
    },
    {
      "anonymous": false,
      "inputs": [
        {
          "indexed": true,
          "internalType": "address",
          "name": "newPosition1",
          "type": "address"
        },
        {
          "indexed": true,
          "internalType": "address",
          "name": "newPosition2",
          "type": "address"
        },
        {
          "indexed": false,
          "internalType": "uint256",
          "name": "index1",
          "type": "uint256"
        },
        {
          "indexed": false,
          "internalType": "uint256",
          "name": "index2",
          "type": "uint256"
        }
      ],
      "name": "PositionSwapped",
      "type": "event"
    },
    {
      "anonymous": false,
      "inputs": [
        {
          "indexed": true,
          "internalType": "address",
          "name": "position",
          "type": "address"
        },
        {
          "indexed": false,
          "internalType": "uint256",
          "name": "amount",
          "type": "uint256"
        }
      ],
      "name": "PulledFromPosition",
      "type": "event"
    },
    {
      "anonymous": false,
      "inputs": [
        {
          "indexed": true,
          "internalType": "address",
          "name": "fromPosition",
          "type": "address"
        },
        {
          "indexed": true,
          "internalType": "address",
          "name": "toPosition",
          "type": "address"
        },
        {
          "indexed": false,
          "internalType": "uint256",
          "name": "assetsFrom",
          "type": "uint256"
        },
        {
          "indexed": false,
          "internalType": "uint256",
          "name": "assetsTo",
          "type": "uint256"
        }
      ],
      "name": "Rebalance",
      "type": "event"
    },
    {
      "anonymous": false,
      "inputs": [
        {
          "indexed": false,
          "internalType": "uint256",
          "name": "feesInSharesRedeemed",
          "type": "uint256"
        },
        {
          "indexed": false,
          "internalType": "uint256",
          "name": "feesInAssetsSent",
          "type": "uint256"
        }
      ],
      "name": "SendFees",
      "type": "event"
    },
    {
      "anonymous": false,
      "inputs": [
        {
          "indexed": false,
          "internalType": "bool",
          "name": "isShutdown",
          "type": "bool"
        }
      ],
      "name": "ShutdownChanged",
      "type": "event"
    },
    {
      "anonymous": false,
      "inputs": [
        {
          "indexed": false,
          "internalType": "address",
          "name": "oldPayoutAddress",
          "type": "address"
        },
        {
          "indexed": false,
          "internalType": "address",
          "name": "newPayoutAddress",
          "type": "address"
        }
      ],
      "name": "StrategistPayoutAddressChanged",
      "type": "event"
    },
    {
      "anonymous": false,
      "inputs": [
        {
          "indexed": false,
          "internalType": "uint64",
          "name": "oldPerformanceCut",
          "type": "uint64"
        },
        {
          "indexed": false,
          "internalType": "uint64",
          "name": "newPerformanceCut",
          "type": "uint64"
        }
      ],
      "name": "StrategistPerformanceCutChanged",
      "type": "event"
    },
    {
      "anonymous": false,
      "inputs": [
        {
          "indexed": false,
          "internalType": "uint64",
          "name": "oldPlatformCut",
          "type": "uint64"
        },
        {
          "indexed": false,
          "internalType": "uint64",
          "name": "newPlatformCut",
          "type": "uint64"
        }
      ],
      "name": "StrategistPlatformCutChanged",
      "type": "event"
    },
    {
      "anonymous": false,
      "inputs": [
        {
          "indexed": true,
          "internalType": "address",
          "name": "from",
          "type": "address"
        },
        {
          "indexed": true,
          "internalType": "address",
          "name": "to",
          "type": "address"
        },
        {
          "indexed": false,
          "internalType": "uint256",
          "name": "amount",
          "type": "uint256"
        }
      ],
      "name": "Transfer",
      "type": "event"
    },
    {
      "anonymous": false,
      "inputs": [
        {
          "indexed": true,
          "internalType": "address",
          "name": "position",
          "type": "address"
        },
        {
          "indexed": false,
          "internalType": "bool",
          "name": "isTrusted",
          "type": "bool"
        }
      ],
      "name": "TrustChanged",
      "type": "event"
    },
    {
      "anonymous": false,
      "inputs": [
        {
          "indexed": true,
          "internalType": "address",
          "name": "caller",
          "type": "address"
        },
        {
          "indexed": true,
          "internalType": "address",
          "name": "receiver",
          "type": "address"
        },
        {
          "indexed": true,
          "internalType": "address",
          "name": "owner",
          "type": "address"
        },
        {
          "indexed": false,
          "internalType": "uint256",
          "name": "assets",
          "type": "uint256"
        },
        {
          "indexed": false,
          "internalType": "uint256",
          "name": "shares",
          "type": "uint256"
        }
      ],
      "name": "Withdraw",
      "type": "event"
    },
    {
      "anonymous": false,
      "inputs": [
        {
          "indexed": false,
          "internalType": "enum Cellar.WithdrawType",
          "name": "oldType",
          "type": "uint8"
        },
        {
          "indexed": false,
          "internalType": "enum Cellar.WithdrawType",
          "name": "newType",
          "type": "uint8"
        }
      ],
      "name": "WithdrawTypeChanged",
      "type": "event"
    },
    {
      "inputs": [],
      "name": "DOMAIN_SEPARATOR",
      "outputs": [
        {
          "internalType": "bytes32",
          "name": "",
          "type": "bytes32"
        }
      ],
      "stateMutability": "view",
      "type": "function"
    },
    {
      "inputs": [],
      "name": "MAX_FEE_CUT",
      "outputs": [
        {
          "internalType": "uint64",
          "name": "",
          "type": "uint64"
        }
      ],
      "stateMutability": "view",
      "type": "function"
    },
    {
      "inputs": [],
      "name": "MAX_PERFORMANCE_FEE",
      "outputs": [
        {
          "internalType": "uint64",
          "name": "",
          "type": "uint64"
        }
      ],
      "stateMutability": "view",
      "type": "function"
    },
    {
      "inputs": [],
      "name": "MAX_PLATFORM_FEE",
      "outputs": [
        {
          "internalType": "uint64",
          "name": "",
          "type": "uint64"
        }
      ],
      "stateMutability": "view",
      "type": "function"
    },
    {
      "inputs": [],
      "name": "MAX_POSITIONS",
      "outputs": [
        {
          "internalType": "uint8",
          "name": "",
          "type": "uint8"
        }
      ],
      "stateMutability": "view",
      "type": "function"
    },
    {
      "inputs": [
        {
          "internalType": "uint256",
          "name": "index",
          "type": "uint256"
        },
        {
          "internalType": "address",
          "name": "position",
          "type": "address"
        }
      ],
      "name": "addPosition",
      "outputs": [],
      "stateMutability": "nonpayable",
      "type": "function"
    },
    {
      "inputs": [
        {
          "internalType": "address",
          "name": "",
          "type": "address"
        },
        {
          "internalType": "address",
          "name": "",
          "type": "address"
        }
      ],
      "name": "allowance",
      "outputs": [
        {
          "internalType": "uint256",
          "name": "",
          "type": "uint256"
        }
      ],
      "stateMutability": "view",
      "type": "function"
    },
    {
      "inputs": [],
      "name": "allowedRebalanceDeviation",
      "outputs": [
        {
          "internalType": "uint256",
          "name": "",
          "type": "uint256"
        }
      ],
      "stateMutability": "view",
      "type": "function"
    },
    {
      "inputs": [
        {
          "internalType": "address",
          "name": "spender",
          "type": "address"
        },
        {
          "internalType": "uint256",
          "name": "amount",
          "type": "uint256"
        }
      ],
      "name": "approve",
      "outputs": [
        {
          "internalType": "bool",
          "name": "",
          "type": "bool"
        }
      ],
      "stateMutability": "nonpayable",
      "type": "function"
    },
    {
      "inputs": [],
      "name": "asset",
      "outputs": [
        {
          "internalType": "contract ERC20",
          "name": "",
          "type": "address"
        }
      ],
      "stateMutability": "view",
      "type": "function"
    },
    {
      "inputs": [
        {
          "internalType": "address",
          "name": "",
          "type": "address"
        }
      ],
      "name": "balanceOf",
      "outputs": [
        {
          "internalType": "uint256",
          "name": "",
          "type": "uint256"
        }
      ],
      "stateMutability": "view",
      "type": "function"
    },
    {
      "inputs": [
        {
          "internalType": "uint256",
          "name": "shares",
          "type": "uint256"
        }
      ],
      "name": "convertToAssets",
      "outputs": [
        {
          "internalType": "uint256",
          "name": "assets",
          "type": "uint256"
        }
      ],
      "stateMutability": "view",
      "type": "function"
    },
    {
      "inputs": [
        {
          "internalType": "uint256",
          "name": "assets",
          "type": "uint256"
        }
      ],
      "name": "convertToShares",
      "outputs": [
        {
          "internalType": "uint256",
          "name": "shares",
          "type": "uint256"
        }
      ],
      "stateMutability": "view",
      "type": "function"
    },
    {
      "inputs": [],
      "name": "decimals",
      "outputs": [
        {
          "internalType": "uint8",
          "name": "",
          "type": "uint8"
        }
      ],
      "stateMutability": "view",
      "type": "function"
    },
    {
      "inputs": [
        {
          "internalType": "uint256",
          "name": "assets",
          "type": "uint256"
        },
        {
          "internalType": "address",
          "name": "receiver",
          "type": "address"
        }
      ],
      "name": "deposit",
      "outputs": [
        {
          "internalType": "uint256",
          "name": "shares",
          "type": "uint256"
        }
      ],
      "stateMutability": "nonpayable",
      "type": "function"
    },
    {
      "inputs": [],
      "name": "depositLimit",
      "outputs": [
        {
          "internalType": "uint256",
          "name": "",
          "type": "uint256"
        }
      ],
      "stateMutability": "view",
      "type": "function"
    },
    {
      "inputs": [
        {
          "internalType": "address",
          "name": "position",
          "type": "address"
        }
      ],
      "name": "distrustPosition",
      "outputs": [],
      "stateMutability": "nonpayable",
      "type": "function"
    },
    {
      "inputs": [],
      "name": "feeData",
      "outputs": [
        {
          "internalType": "uint256",
          "name": "highWatermark",
          "type": "uint256"
        },
        {
          "internalType": "uint64",
          "name": "strategistPerformanceCut",
          "type": "uint64"
        },
        {
          "internalType": "uint64",
          "name": "strategistPlatformCut",
          "type": "uint64"
        },
        {
          "internalType": "uint64",
          "name": "platformFee",
          "type": "uint64"
        },
        {
          "internalType": "uint64",
          "name": "performanceFee",
          "type": "uint64"
        },
        {
          "internalType": "bytes32",
          "name": "feesDistributor",
          "type": "bytes32"
        },
        {
          "internalType": "address",
          "name": "strategistPayoutAddress",
          "type": "address"
        }
      ],
      "stateMutability": "view",
      "type": "function"
    },
    {
      "inputs": [
        {
          "internalType": "address",
          "name": "",
          "type": "address"
        }
      ],
      "name": "getPositionType",
      "outputs": [
        {
          "internalType": "enum Cellar.PositionType",
          "name": "",
          "type": "uint8"
        }
      ],
      "stateMutability": "view",
      "type": "function"
    },
    {
      "inputs": [],
      "name": "getPositions",
      "outputs": [
        {
          "internalType": "address[]",
          "name": "",
          "type": "address[]"
        }
      ],
      "stateMutability": "view",
      "type": "function"
    },
    {
      "inputs": [],
      "name": "holdingPosition",
      "outputs": [
        {
          "internalType": "address",
          "name": "",
          "type": "address"
        }
      ],
      "stateMutability": "view",
      "type": "function"
    },
    {
      "inputs": [],
      "name": "initiateShutdown",
      "outputs": [],
      "stateMutability": "nonpayable",
      "type": "function"
    },
    {
      "inputs": [
        {
          "internalType": "address",
          "name": "",
          "type": "address"
        }
      ],
      "name": "isPositionUsed",
      "outputs": [
        {
          "internalType": "bool",
          "name": "",
          "type": "bool"
        }
      ],
      "stateMutability": "view",
      "type": "function"
    },
    {
      "inputs": [],
      "name": "isShutdown",
      "outputs": [
        {
          "internalType": "bool",
          "name": "",
          "type": "bool"
        }
      ],
      "stateMutability": "view",
      "type": "function"
    },
    {
      "inputs": [
        {
          "internalType": "address",
          "name": "",
          "type": "address"
        }
      ],
      "name": "isTrusted",
      "outputs": [
        {
          "internalType": "bool",
          "name": "",
          "type": "bool"
        }
      ],
      "stateMutability": "view",
      "type": "function"
    },
    {
      "inputs": [],
      "name": "lastAccrual",
      "outputs": [
        {
          "internalType": "uint64",
          "name": "",
          "type": "uint64"
        }
      ],
      "stateMutability": "view",
      "type": "function"
    },
    {
      "inputs": [],
      "name": "liftShutdown",
      "outputs": [],
      "stateMutability": "nonpayable",
      "type": "function"
    },
    {
      "inputs": [],
      "name": "liquidityLimit",
      "outputs": [
        {
          "internalType": "uint256",
          "name": "",
          "type": "uint256"
        }
      ],
      "stateMutability": "view",
      "type": "function"
    },
    {
      "inputs": [
        {
          "internalType": "address",
          "name": "receiver",
          "type": "address"
        }
      ],
      "name": "maxDeposit",
      "outputs": [
        {
          "internalType": "uint256",
          "name": "assets",
          "type": "uint256"
        }
      ],
      "stateMutability": "view",
      "type": "function"
    },
    {
      "inputs": [
        {
          "internalType": "address",
          "name": "receiver",
          "type": "address"
        }
      ],
      "name": "maxMint",
      "outputs": [
        {
          "internalType": "uint256",
          "name": "shares",
          "type": "uint256"
        }
      ],
      "stateMutability": "view",
      "type": "function"
    },
    {
      "inputs": [
        {
          "internalType": "address",
          "name": "owner",
          "type": "address"
        }
      ],
      "name": "maxRedeem",
      "outputs": [
        {
          "internalType": "uint256",
          "name": "",
          "type": "uint256"
        }
      ],
      "stateMutability": "view",
      "type": "function"
    },
    {
      "inputs": [
        {
          "internalType": "address",
          "name": "owner",
          "type": "address"
        }
      ],
      "name": "maxWithdraw",
      "outputs": [
        {
          "internalType": "uint256",
          "name": "",
          "type": "uint256"
        }
      ],
      "stateMutability": "view",
      "type": "function"
    },
    {
      "inputs": [
        {
          "internalType": "uint256",
          "name": "shares",
          "type": "uint256"
        },
        {
          "internalType": "address",
          "name": "receiver",
          "type": "address"
        }
      ],
      "name": "mint",
      "outputs": [
        {
          "internalType": "uint256",
          "name": "assets",
          "type": "uint256"
        }
      ],
      "stateMutability": "nonpayable",
      "type": "function"
    },
    {
      "inputs": [
        {
          "internalType": "bytes[]",
          "name": "data",
          "type": "bytes[]"
        }
      ],
      "name": "multicall",
      "outputs": [
        {
          "internalType": "bytes[]",
          "name": "results",
          "type": "bytes[]"
        }
      ],
      "stateMutability": "payable",
      "type": "function"
    },
    {
      "inputs": [],
      "name": "name",
      "outputs": [
        {
          "internalType": "string",
          "name": "",
          "type": "string"
        }
      ],
      "stateMutability": "view",
      "type": "function"
    },
    {
      "inputs": [
        {
          "internalType": "address",
          "name": "",
          "type": "address"
        }
      ],
      "name": "nonces",
      "outputs": [
        {
          "internalType": "uint256",
          "name": "",
          "type": "uint256"
        }
      ],
      "stateMutability": "view",
      "type": "function"
    },
    {
      "inputs": [],
      "name": "owner",
      "outputs": [
        {
          "internalType": "address",
          "name": "",
          "type": "address"
        }
      ],
      "stateMutability": "view",
      "type": "function"
    },
    {
      "inputs": [
        {
          "internalType": "address",
          "name": "owner",
          "type": "address"
        },
        {
          "internalType": "address",
          "name": "spender",
          "type": "address"
        },
        {
          "internalType": "uint256",
          "name": "value",
          "type": "uint256"
        },
        {
          "internalType": "uint256",
          "name": "deadline",
          "type": "uint256"
        },
        {
          "internalType": "uint8",
          "name": "v",
          "type": "uint8"
        },
        {
          "internalType": "bytes32",
          "name": "r",
          "type": "bytes32"
        },
        {
          "internalType": "bytes32",
          "name": "s",
          "type": "bytes32"
        }
      ],
      "name": "permit",
      "outputs": [],
      "stateMutability": "nonpayable",
      "type": "function"
    },
    {
      "inputs": [],
      "name": "popPosition",
      "outputs": [],
      "stateMutability": "nonpayable",
      "type": "function"
    },
    {
      "inputs": [
        {
          "internalType": "uint256",
          "name": "",
          "type": "uint256"
        }
      ],
      "name": "positions",
      "outputs": [
        {
          "internalType": "address",
          "name": "",
          "type": "address"
        }
      ],
      "stateMutability": "view",
      "type": "function"
    },
    {
      "inputs": [
        {
          "internalType": "uint256",
          "name": "assets",
          "type": "uint256"
        }
      ],
      "name": "previewDeposit",
      "outputs": [
        {
          "internalType": "uint256",
          "name": "shares",
          "type": "uint256"
        }
      ],
      "stateMutability": "view",
      "type": "function"
    },
    {
      "inputs": [
        {
          "internalType": "uint256",
          "name": "shares",
          "type": "uint256"
        }
      ],
      "name": "previewMint",
      "outputs": [
        {
          "internalType": "uint256",
          "name": "assets",
          "type": "uint256"
        }
      ],
      "stateMutability": "view",
      "type": "function"
    },
    {
      "inputs": [
        {
          "internalType": "uint256",
          "name": "shares",
          "type": "uint256"
        }
      ],
      "name": "previewRedeem",
      "outputs": [
        {
          "internalType": "uint256",
          "name": "assets",
          "type": "uint256"
        }
      ],
      "stateMutability": "view",
      "type": "function"
    },
    {
      "inputs": [
        {
          "internalType": "uint256",
          "name": "assets",
          "type": "uint256"
        }
      ],
      "name": "previewWithdraw",
      "outputs": [
        {
          "internalType": "uint256",
          "name": "shares",
          "type": "uint256"
        }
      ],
      "stateMutability": "view",
      "type": "function"
    },
    {
      "inputs": [
        {
          "internalType": "address",
          "name": "position",
          "type": "address"
        }
      ],
      "name": "pushPosition",
      "outputs": [],
      "stateMutability": "nonpayable",
      "type": "function"
    },
    {
      "inputs": [
        {
          "internalType": "address",
          "name": "fromPosition",
          "type": "address"
        },
        {
          "internalType": "address",
          "name": "toPosition",
          "type": "address"
        },
        {
          "internalType": "uint256",
          "name": "assetsFrom",
          "type": "uint256"
        },
        {
          "internalType": "enum SwapRouter.Exchange",
          "name": "exchange",
          "type": "uint8"
        },
        {
          "internalType": "bytes",
          "name": "params",
          "type": "bytes"
        }
      ],
      "name": "rebalance",
      "outputs": [
        {
          "internalType": "uint256",
          "name": "assetsTo",
          "type": "uint256"
        }
      ],
      "stateMutability": "nonpayable",
      "type": "function"
    },
    {
      "inputs": [
        {
          "internalType": "uint256",
          "name": "shares",
          "type": "uint256"
        },
        {
          "internalType": "address",
          "name": "receiver",
          "type": "address"
        },
        {
          "internalType": "address",
          "name": "owner",
          "type": "address"
        }
      ],
      "name": "redeem",
      "outputs": [
        {
          "internalType": "uint256",
          "name": "assets",
          "type": "uint256"
        }
      ],
      "stateMutability": "nonpayable",
      "type": "function"
    },
    {
      "inputs": [],
      "name": "registry",
      "outputs": [
        {
          "internalType": "contract Registry",
          "name": "",
          "type": "address"
        }
      ],
      "stateMutability": "view",
      "type": "function"
    },
    {
      "inputs": [
        {
          "internalType": "uint256",
          "name": "index",
          "type": "uint256"
        }
      ],
      "name": "removePosition",
      "outputs": [],
      "stateMutability": "nonpayable",
      "type": "function"
    },
    {
      "inputs": [],
      "name": "renounceOwnership",
      "outputs": [],
      "stateMutability": "nonpayable",
      "type": "function"
    },
    {
      "inputs": [
        {
          "internalType": "uint256",
          "name": "index",
          "type": "uint256"
        },
        {
          "internalType": "address",
          "name": "newPosition",
          "type": "address"
        }
      ],
      "name": "replacePosition",
      "outputs": [],
      "stateMutability": "nonpayable",
      "type": "function"
    },
    {
      "inputs": [],
      "name": "resetHighWatermark",
      "outputs": [],
      "stateMutability": "nonpayable",
      "type": "function"
    },
    {
      "inputs": [],
      "name": "sendFees",
      "outputs": [],
      "stateMutability": "nonpayable",
      "type": "function"
    },
    {
      "inputs": [
        {
          "internalType": "uint256",
          "name": "newLimit",
          "type": "uint256"
        }
      ],
      "name": "setDepositLimit",
      "outputs": [],
      "stateMutability": "nonpayable",
      "type": "function"
    },
    {
      "inputs": [
        {
          "internalType": "bytes32",
          "name": "newFeesDistributor",
          "type": "bytes32"
        }
      ],
      "name": "setFeesDistributor",
      "outputs": [],
      "stateMutability": "nonpayable",
      "type": "function"
    },
    {
      "inputs": [
        {
          "internalType": "address",
          "name": "newHoldingPosition",
          "type": "address"
        }
      ],
      "name": "setHoldingPosition",
      "outputs": [],
      "stateMutability": "nonpayable",
      "type": "function"
    },
    {
      "inputs": [
        {
          "internalType": "uint256",
          "name": "newLimit",
          "type": "uint256"
        }
      ],
      "name": "setLiquidityLimit",
      "outputs": [],
      "stateMutability": "nonpayable",
      "type": "function"
    },
    {
      "inputs": [
        {
          "internalType": "uint64",
          "name": "newPerformanceFee",
          "type": "uint64"
        }
      ],
      "name": "setPerformanceFee",
      "outputs": [],
      "stateMutability": "nonpayable",
      "type": "function"
    },
    {
      "inputs": [
        {
          "internalType": "uint64",
          "name": "newPlatformFee",
          "type": "uint64"
        }
      ],
      "name": "setPlatformFee",
      "outputs": [],
      "stateMutability": "nonpayable",
      "type": "function"
    },
    {
      "inputs": [
        {
          "internalType": "uint256",
          "name": "newDeviation",
          "type": "uint256"
        }
      ],
      "name": "setRebalanceDeviation",
      "outputs": [],
      "stateMutability": "nonpayable",
      "type": "function"
    },
    {
      "inputs": [
        {
          "internalType": "address",
          "name": "payout",
          "type": "address"
        }
      ],
      "name": "setStrategistPayoutAddress",
      "outputs": [],
      "stateMutability": "nonpayable",
      "type": "function"
    },
    {
      "inputs": [
        {
          "internalType": "uint64",
          "name": "cut",
          "type": "uint64"
        }
      ],
      "name": "setStrategistPerformanceCut",
      "outputs": [],
      "stateMutability": "nonpayable",
      "type": "function"
    },
    {
      "inputs": [
        {
          "internalType": "uint64",
          "name": "cut",
          "type": "uint64"
        }
      ],
      "name": "setStrategistPlatformCut",
      "outputs": [],
      "stateMutability": "nonpayable",
      "type": "function"
    },
    {
      "inputs": [
        {
          "internalType": "enum Cellar.WithdrawType",
          "name": "newWithdrawType",
          "type": "uint8"
        }
      ],
      "name": "setWithdrawType",
      "outputs": [],
      "stateMutability": "nonpayable",
      "type": "function"
    },
    {
      "inputs": [
        {
          "internalType": "uint256",
          "name": "index1",
          "type": "uint256"
        },
        {
          "internalType": "uint256",
          "name": "index2",
          "type": "uint256"
        }
      ],
      "name": "swapPositions",
      "outputs": [],
      "stateMutability": "nonpayable",
      "type": "function"
    },
    {
      "inputs": [],
      "name": "symbol",
      "outputs": [
        {
          "internalType": "string",
          "name": "",
          "type": "string"
        }
      ],
      "stateMutability": "view",
      "type": "function"
    },
    {
      "inputs": [],
      "name": "totalAssets",
      "outputs": [
        {
          "internalType": "uint256",
          "name": "assets",
          "type": "uint256"
        }
      ],
      "stateMutability": "view",
      "type": "function"
    },
    {
      "inputs": [],
      "name": "totalSupply",
      "outputs": [
        {
          "internalType": "uint256",
          "name": "",
          "type": "uint256"
        }
      ],
      "stateMutability": "view",
      "type": "function"
    },
    {
      "inputs": [
        {
          "internalType": "address",
          "name": "to",
          "type": "address"
        },
        {
          "internalType": "uint256",
          "name": "amount",
          "type": "uint256"
        }
      ],
      "name": "transfer",
      "outputs": [
        {
          "internalType": "bool",
          "name": "",
          "type": "bool"
        }
      ],
      "stateMutability": "nonpayable",
      "type": "function"
    },
    {
      "inputs": [
        {
          "internalType": "address",
          "name": "from",
          "type": "address"
        },
        {
          "internalType": "address",
          "name": "to",
          "type": "address"
        },
        {
          "internalType": "uint256",
          "name": "amount",
          "type": "uint256"
        }
      ],
      "name": "transferFrom",
      "outputs": [
        {
          "internalType": "bool",
          "name": "",
          "type": "bool"
        }
      ],
      "stateMutability": "nonpayable",
      "type": "function"
    },
    {
      "inputs": [
        {
          "internalType": "address",
          "name": "newOwner",
          "type": "address"
        }
      ],
      "name": "transferOwnership",
      "outputs": [],
      "stateMutability": "nonpayable",
      "type": "function"
    },
    {
      "inputs": [
        {
          "internalType": "address",
          "name": "position",
          "type": "address"
        },
        {
          "internalType": "enum Cellar.PositionType",
          "name": "positionType",
          "type": "uint8"
        }
      ],
      "name": "trustPosition",
      "outputs": [],
      "stateMutability": "nonpayable",
      "type": "function"
    },
    {
      "inputs": [
        {
          "internalType": "uint256",
          "name": "assets",
          "type": "uint256"
        },
        {
          "internalType": "address",
          "name": "receiver",
          "type": "address"
        },
        {
          "internalType": "address",
          "name": "owner",
          "type": "address"
        }
      ],
      "name": "withdraw",
      "outputs": [
        {
          "internalType": "uint256",
          "name": "shares",
          "type": "uint256"
        }
      ],
      "stateMutability": "nonpayable",
      "type": "function"
    },
    {
      "inputs": [],
      "name": "withdrawType",
      "outputs": [
        {
          "internalType": "enum Cellar.WithdrawType",
          "name": "",
          "type": "uint8"
        }
      ],
      "stateMutability": "view",
      "type": "function"
    }
  ],
  "bytecode": {
    "object": "0x6101e06040526000610100819052670a688906bd8b000061012081905261014052662386f26fc100006101605267016345785d8a00006101805273b813554b423266bbd4c16c32fa383394868c1f556101a08190526101c0829052600d919091557f016345785d8a0000002386f26fc100000a688906bd8b00000a688906bd8b0000600e55600f55601080546001600160a01b03191690556000196011819055601255660aa87bee538000601455348015620000ba57600080fd5b506040516200675038038062006750833981016040819052620000dd9162000996565b87838360128282826000620000f3848262000b37565b50600162000102838262000b37565b5060ff81166080524660a0526200011862000460565b60c0525050600680546001600160a01b0319166001600160a01b03969096169590951790945550620001569250339150620001509050565b620004fc565b6001600160a01b03891660e0528651620001789060089060208a0190620006f2565b5060005b8751811015620002a85760008882815181106200019d576200019d62000c03565b6020908102919091018101516001600160a01b0381166000908152600990925260409091205490915060ff1615620001f857604051630af67d9160e31b81526001600160a01b03821660048201526024015b60405180910390fd5b6001600160a01b0381166000908152600b602090815260408083208054600160ff199182168117909255600990935292208054909116909117905587518890839081106200024a576200024a62000c03565b6020908102919091018101516001600160a01b0383166000908152600a9092526040909120805460ff191660018360028111156200028c576200028c62000c19565b02179055505080806200029f9062000c2f565b9150506200017c565b506001600160a01b03851660009081526009602052604090205460ff16620002ef57604051631ec7bcd360e01b81526001600160a01b0386166004820152602401620001ef565b6000620002fc866200054e565b9050886001600160a01b0316816001600160a01b031614620003455760405163298473c760e11b81526001600160a01b0380831660048301528a166024820152604401620001ef565b600c8054610100600160a81b031981166101006001600160a01b038a160290811783558792916001600160a81b03191660ff19909116176001838181111562000392576200039262000c19565b0217905550600c8054600160a81b600160e81b031916600160a81b426001600160401b031602179055601080546001600160a01b0319166001600160a01b0384811691909117909155604051635c9fcd8560e11b8152600060048201819052918c169063b93f9b0a90602401602060405180830381865afa1580156200041c573d6000803e3d6000fd5b505050506040513d601f19601f8201168201806040525081019062000442919062000c57565b90506200044f8162000621565b505050505050505050505062000cf5565b60007f8b73c3c69bb8fe3d512ecc4cf759cc79239f7b179b0ffacaa9a75d522b39400f600060405162000494919062000c77565b6040805191829003822060208301939093528101919091527fc89efdaa54c0f20c7adf612882df0950f5a951637e0307cdcb4c672f298b8bc660608201524660808201523060a082015260c00160405160208183030381529060405280519060200120905090565b600780546001600160a01b038381166001600160a01b0319831681179093556040519116919082907f8be0079c531659141344cd1fd0a4f28419497f9722a3daafe3b4186f6b6457e090600090a35050565b6001600160a01b0381166000908152600a602052604081205460ff16600181600281111562000581576200058162000c19565b1480620005a257506002816002811115620005a057620005a062000c19565b145b156200061457826001600160a01b03166338d52e0f6040518163ffffffff1660e01b8152600401602060405180830381865afa158015620005e7573d6000803e3d6000fd5b505050506040513d601f19601f820116820180604052508101906200060d919062000c57565b9392505050565b5090919050565b50919050565b6007546001600160a01b031633146200067d5760405162461bcd60e51b815260206004820181905260248201527f4f776e61626c653a2063616c6c6572206973206e6f7420746865206f776e65726044820152606401620001ef565b6001600160a01b038116620006e45760405162461bcd60e51b815260206004820152602660248201527f4f776e61626c653a206e6577206f776e657220697320746865207a65726f206160448201526564647265737360d01b6064820152608401620001ef565b620006ef81620004fc565b50565b8280548282559060005260206000209081019282156200074a579160200282015b828111156200074a57825182546001600160a01b0319166001600160a01b0390911617825560209092019160019091019062000713565b50620007589291506200075c565b5090565b5b808211156200075857600081556001016200075d565b6001600160a01b0381168114620006ef57600080fd5b8051620007968162000773565b919050565b634e487b7160e01b600052604160045260246000fd5b604051601f8201601f191681016001600160401b0381118282101715620007dc57620007dc6200079b565b604052919050565b60006001600160401b038211156200080057620008006200079b565b5060051b60200190565b600082601f8301126200081c57600080fd5b81516020620008356200082f83620007e4565b620007b1565b82815260059290921b840181019181810190868411156200085557600080fd5b8286015b848110156200087d5780516200086f8162000773565b835291830191830162000859565b509695505050505050565b600082601f8301126200089a57600080fd5b81516020620008ad6200082f83620007e4565b82815260059290921b84018101918181019086841115620008cd57600080fd5b8286015b848110156200087d57805160038110620008eb5760008081fd5b8352918301918301620008d1565b8051600281106200079657600080fd5b600082601f8301126200091b57600080fd5b81516001600160401b038111156200093757620009376200079b565b60206200094d601f8301601f19168201620007b1565b82815285828487010111156200096257600080fd5b60005b838110156200098257858101830151828201840152820162000965565b506000928101909101919091529392505050565b60008060008060008060008060006101208a8c031215620009b657600080fd5b620009c18a62000789565b9850620009d160208b0162000789565b60408b01519098506001600160401b0380821115620009ef57600080fd5b620009fd8d838e016200080a565b985060608c015191508082111562000a1457600080fd5b62000a228d838e0162000888565b975062000a3260808d0162000789565b965062000a4260a08d01620008f9565b955060c08c015191508082111562000a5957600080fd5b62000a678d838e0162000909565b945060e08c015191508082111562000a7e57600080fd5b5062000a8d8c828d0162000909565b92505062000a9f6101008b0162000789565b90509295985092959850929598565b600181811c9082168062000ac357607f821691505b6020821081036200061b57634e487b7160e01b600052602260045260246000fd5b601f82111562000b3257600081815260208120601f850160051c8101602086101562000b0d5750805b601f850160051c820191505b8181101562000b2e5782815560010162000b19565b5050505b505050565b81516001600160401b0381111562000b535762000b536200079b565b62000b6b8162000b64845462000aae565b8462000ae4565b602080601f83116001811462000ba3576000841562000b8a5750858301515b600019600386901b1c1916600185901b17855562000b2e565b600085815260208120601f198616915b8281101562000bd45788860151825594840194600190910190840162000bb3565b508582101562000bf35787850151600019600388901b60f8161c191681555b5050505050600190811b01905550565b634e487b7160e01b600052603260045260246000fd5b634e487b7160e01b600052602160045260246000fd5b60006001820162000c5057634e487b7160e01b600052601160045260246000fd5b5060010190565b60006020828403121562000c6a57600080fd5b81516200060d8162000773565b600080835462000c878162000aae565b6001828116801562000ca2576001811462000cb85762000ce9565b60ff198416875282151583028701945062000ce9565b8760005260208060002060005b8581101562000ce05781548a82015290840190820162000cc5565b50505082870194505b50929695505050505050565b60805160a05160c05160e0516159fe62000d526000396000818161082801528181610fd10152818161335c01528181613d22015281816145bc0152614826015260006115bd015260006115880152600061058401526159fe6000f3fe6080604052600436106104315760003560e01c806396a0f59111610229578063c244245a1161012e578063dff90b5b116100b6578063ef8b30f71161007a578063ef8b30f714610de6578063f2fde38b14610e06578063f7b24e0814610e26578063fc4d43be14610e3b578063fdd230b914610e5b57600080fd5b8063dff90b5b14610cd4578063e39448e014610ce9578063e753e60014610d10578063ecf7085814610db4578063eef33eca14610dca57600080fd5b8063ce96cb77116100fd578063ce96cb7714610c06578063d505accf14610c26578063d905777e14610c46578063dd62ed3e14610c7c578063df05a52a14610cb457600080fd5b8063c244245a14610b9b578063c63d75b614610bb1578063c6e6f59214610bd1578063c85e5e1314610bf157600080fd5b8063b3d7f6b9116101b1578063bd83721a11610180578063bd83721a14610b05578063bdc8144b14610b25578063bdca916514610b45578063bf86d69014610b61578063c046742214610b7b57600080fd5b8063b3d7f6b914610a85578063b460af9414610aa5578063b5292a9914610ac5578063ba08765214610ae557600080fd5b80639c5f00c2116101f85780639c5f00c2146109c35780639e35c65b146109e8578063a9059cbb14610a25578063ac9650d814610a45578063b0a75d3614610a6557600080fd5b806396a0f5911461093357806396d648791461095357806399fbab88146109835780639b6fd18e146109a357600080fd5b80634cdad5061161033a578063715018a6116102c25780638027586011610286578063802758601461089e5780638b0cebf7146108c05780638da5cb5b146108e057806394bf804d146108fe57806395d89b411461091e57600080fd5b8063715018a6146107eb57806372163715146108005780637b103999146108165780637b3baab41461084a5780637ecebe001461087157600080fd5b80635e2c576e116103095780635e2c576e146107495780636e553f651461075e5780636e85f1831461077e57806370a082311461079e57806370af7df6146107cb57600080fd5b80634cdad506146106c95780634eca8a83146106e9578063530a371414610709578063583845731461072957600080fd5b80633076fdc5116103bd57806338d52e0f1161038c57806338d52e0f146105ed5780633998a681146106255780633cf99a4614610659578063402d267d14610679578063472090fe1461069957600080fd5b80633076fdc51461055d578063313ce567146105725780633644e515146105b8578063389a7294146105cd57600080fd5b80630a28a477116104045780630a28a477146104d05780630a680e18146104f057806318160ddd1461050757806323b872dd1461051d5780632f3b5a131461053d57600080fd5b806301e1d1141461043657806306fdde031461045e57806307a2d13a14610480578063095ea7b3146104a0575b600080fd5b34801561044257600080fd5b5061044b610e7b565b6040519081526020015b60405180910390f35b34801561046a57600080fd5b506104736110c7565b6040516104559190614f80565b34801561048c57600080fd5b5061044b61049b366004614f93565b611155565b3480156104ac57600080fd5b506104c06104bb366004614fc1565b61116e565b6040519015158152602001610455565b3480156104dc57600080fd5b5061044b6104eb366004614f93565b6111da565b3480156104fc57600080fd5b5061050561120f565b005b34801561051357600080fd5b5061044b60025481565b34801561052957600080fd5b506104c0610538366004614fed565b6112ac565b34801561054957600080fd5b5061050561055836600461503b565b61138e565b34801561056957600080fd5b5061050561141f565b34801561057e57600080fd5b506105a67f000000000000000000000000000000000000000000000000000000000000000081565b60405160ff9091168152602001610455565b3480156105c457600080fd5b5061044b611584565b3480156105d957600080fd5b5061044b6105e8366004615058565b6115df565b3480156105f957600080fd5b5060065461060d906001600160a01b031681565b6040516001600160a01b039091168152602001610455565b34801561063157600080fd5b506106416702c68af0bb14000081565b6040516001600160401b039091168152602001610455565b34801561066557600080fd5b5061050561067436600461510a565b611819565b34801561068557600080fd5b5061044b610694366004615133565b6118eb565b3480156106a557600080fd5b506104c06106b4366004615133565b60096020526000908152604090205460ff1681565b3480156106d557600080fd5b5061044b6106e4366004614f93565b61198e565b3480156106f557600080fd5b50610505610704366004615150565b6119b6565b34801561071557600080fd5b50610505610724366004614f93565b611b20565b34801561073557600080fd5b50610505610744366004615180565b611b4f565b34801561075557600080fd5b50610505611c97565b34801561076a57600080fd5b5061044b610779366004615150565b611cfc565b34801561078a57600080fd5b50610505610799366004614f93565b611dc4565b3480156107aa57600080fd5b5061044b6107b9366004615133565b60036020526000908152604090205481565b3480156107d757600080fd5b506105056107e636600461510a565b611e57565b3480156107f757600080fd5b50610505611f2e565b34801561080c57600080fd5b5061044b60115481565b34801561082257600080fd5b5061060d7f000000000000000000000000000000000000000000000000000000000000000081565b34801561085657600080fd5b50600c5461064190600160a81b90046001600160401b031681565b34801561087d57600080fd5b5061044b61088c366004615133565b60056020526000908152604090205481565b3480156108aa57600080fd5b506108b3611f64565b60405161045591906151a2565b3480156108cc57600080fd5b506105056108db366004615133565b611fc6565b3480156108ec57600080fd5b506007546001600160a01b031661060d565b34801561090a57600080fd5b5061044b610919366004615150565b6120ef565b34801561092a57600080fd5b5061047361218f565b34801561093f57600080fd5b5061050561094e366004615150565b61219c565b34801561095f57600080fd5b506104c061096e366004615133565b600b6020526000908152604090205460ff1681565b34801561098f57600080fd5b5061060d61099e366004614f93565b6123a9565b3480156109af57600080fd5b506105056109be36600461510a565b6123d3565b3480156109cf57600080fd5b50600c5461060d9061010090046001600160a01b031681565b3480156109f457600080fd5b50610a18610a03366004615133565b600a6020526000908152604090205460ff1681565b6040516104559190615205565b348015610a3157600080fd5b506104c0610a40366004614fc1565b612499565b610a58610a5336600461521f565b6124ff565b6040516104559190615293565b348015610a7157600080fd5b50610505610a80366004615133565b61264f565b348015610a9157600080fd5b5061044b610aa0366004614f93565b6126e2565b348015610ab157600080fd5b5061044b610ac03660046152f5565b61270f565b348015610ad157600080fd5b50610505610ae036600461510a565b612857565b348015610af157600080fd5b5061044b610b003660046152f5565b612933565b348015610b1157600080fd5b50610505610b20366004615133565b612a8b565b348015610b3157600080fd5b50610505610b40366004614f93565b612bca565b348015610b5157600080fd5b506106416706f05b59d3b2000081565b348015610b6d57600080fd5b506013546104c09060ff1681565b348015610b8757600080fd5b50610505610b96366004614f93565b612c35565b348015610ba757600080fd5b5061044b60145481565b348015610bbd57600080fd5b5061044b610bcc366004615133565b612d57565b348015610bdd57600080fd5b5061044b610bec366004614f93565b612df7565b348015610bfd57600080fd5b50610505612e0a565b348015610c1257600080fd5b5061044b610c21366004615133565b612e7c565b348015610c3257600080fd5b50610505610c41366004615346565b612e9e565b348015610c5257600080fd5b5061044b610c61366004615133565b6001600160a01b031660009081526003602052604090205490565b348015610c8857600080fd5b5061044b610c973660046153b7565b600460209081526000928352604080842090915290825290205481565b348015610cc057600080fd5b50610505610ccf366004614f93565b6130e2565b348015610ce057600080fd5b5061050561314d565b348015610cf557600080fd5b50600c54610d039060ff1681565b60405161045591906153f5565b348015610d1c57600080fd5b50600d54600e54600f54601054610d6593926001600160401b0380821693600160401b8304821693600160801b8404831693600160c01b9004909216916001600160a01b031687565b604080519788526001600160401b039687166020890152948616948701949094529184166060860152909216608084015260a08301919091526001600160a01b031660c082015260e001610455565b348015610dc057600080fd5b5061044b60125481565b348015610dd657600080fd5b50610641670de0b6b3a764000081565b348015610df257600080fd5b5061044b610e01366004614f93565b61349f565b348015610e1257600080fd5b50610505610e21366004615133565b6134c7565b348015610e3257600080fd5b506105a6602081565b348015610e4757600080fd5b50610505610e56366004615402565b613562565b348015610e6757600080fd5b50610505610e76366004615133565b613618565b60085460009081816001600160401b03811115610e9a57610e9a615434565b604051908082528060200260200182016040528015610ec3578160200160208202803683370190505b5090506000826001600160401b03811115610ee057610ee0615434565b604051908082528060200260200182016040528015610f09578160200160208202803683370190505b50905060005b83811015610fb757600060088281548110610f2c57610f2c61544a565b6000918252602090912001546001600160a01b03169050610f4c816137b3565b848381518110610f5e57610f5e61544a565b60200260200101906001600160a01b031690816001600160a01b031681525050610f8781613874565b838381518110610f9957610f9961544a565b60209081029190910101525080610faf81615476565b915050610f0f565b50604051635c9fcd8560e11b8152600260048201526000907f00000000000000000000000000000000000000000000000000000000000000006001600160a01b03169063b93f9b0a90602401602060405180830381865afa158015611020573d6000803e3d6000fd5b505050506040513d601f19601f82011682018060405250810190611044919061548f565b60065460405163b333a17560e01b81529192506001600160a01b038084169263b333a1759261107d9288928892909116906004016154ac565b602060405180830381865afa15801561109a573d6000803e3d6000fd5b505050506040513d601f19601f820116820180604052508101906110be919061553e565b94505050505090565b600080546110d490615557565b80601f016020809104026020016040519081016040528092919081815260200182805461110090615557565b801561114d5780601f106111225761010080835404028352916020019161114d565b820191906000526020600020905b81548152906001019060200180831161113057829003601f168201915b505050505081565b600061116882611163610e7b565b61395b565b92915050565b3360008181526004602090815260408083206001600160a01b038716808552925280832085905551919290917f8c5be1e5ebec7d5bd14f71427d1e84f3dd0314c0f7b2291e5b200ac8c7c3b925906111c99086815260200190565b60405180910390a350600192915050565b6000806111e5610e7b565b905060006111f2826139fb565b905061120784611202838561558b565b613a61565b949350505050565b60135460ff1615611233576040516337a5332d60e11b815260040160405180910390fd5b6007546001600160a01b031633146112665760405162461bcd60e51b815260040161125d9061559e565b60405180910390fd5b6013805460ff191660019081179091556040519081527fb8527b93c36dabdfe078af41be789ba946a4adcfeafcf9d8de21d51629859e3c906020015b60405180910390a1565b6001600160a01b03831660009081526004602090815260408083203384529091528120546000198114611308576112e3838261558b565b6001600160a01b03861660009081526004602090815260408083203384529091529020555b6001600160a01b0385166000908152600360205260408120805485929061133090849061558b565b90915550506001600160a01b03808516600081815260036020526040908190208054870190555190918716906000805160206159a9833981519152906113799087815260200190565b60405180910390a360019150505b9392505050565b6007546001600160a01b031633146113b85760405162461bcd60e51b815260040161125d9061559e565b600c546040517f19365927bf52f7e956d376b3546402dda3827c062c7a6942431a255d212947e8916113f19160ff9091169084906155d3565b60405180910390a1600c805482919060ff191660018381811115611417576114176151ef565b021790555050565b6007546001600160a01b031633146114495760405162461bcd60e51b815260040161125d9061559e565b60085460009061145b9060019061558b565b90506000600882815481106114725761147261544a565b60009182526020822001546001600160a01b0316915061149182613874565b905080156114c457604051638454689f60e01b81526001600160a01b03831660048201526024810182905260440161125d565b600c546001600160a01b036101009091048116908316036114f85760405163747795ff60e11b815260040160405180910390fd5b6008805480611509576115096155f9565b60008281526020808220600019908401810180546001600160a01b03191690559092019092556001600160a01b03841680835260098252604092839020805460ff1916905591518581527f03c78e4e20a72b1f577a63b54524c684ce73d2e414970ee606bb0b7a9004aa9c91015b60405180910390a2505050565b60007f000000000000000000000000000000000000000000000000000000000000000046146115ba576115b5613af0565b905090565b507f000000000000000000000000000000000000000000000000000000000000000090565b6007546000906001600160a01b0316331461160c5760405162461bcd60e51b815260040161125d9061559e565b60135460ff1615611630576040516337a5332d60e11b815260040160405180910390fd5b6001600160a01b03861660009081526009602052604090205460ff1661167457604051631ec7bcd360e01b81526001600160a01b038716600482015260240161125d565b600061167e610e7b565b60025490915061168f898830613b8a565b600061169a8a6137b3565b905060006116a78a6137b3565b9050806001600160a01b0316826001600160a01b0316036116c857886116d7565b6116d782828b8b8b8b30613c85565b94506116e38a86613eb4565b600061170e601454670de0b6b3a76400006116fe919061558b565b8690670de0b6b3a7640000613ff3565b9050600061173b601454670de0b6b3a764000061172b919061560f565b8790670de0b6b3a7640000614021565b9050611745610e7b565b95508086118061175457508186105b156117835760405163628cc47560e11b815260048101879052602481018390526044810182905260640161125d565b60025485146117b357600254604051632b40145960e21b815260048101919091526024810186905260440161125d565b8b6001600160a01b03168d6001600160a01b03167ffea7a9a6e25cd0bbbfa80ce0c7646e61ee5e0551b3fdaaff0642e6f6adcc72e28d8a604051611801929190918252602082015260400190565b60405180910390a35050505050509695505050505050565b6007546001600160a01b031633146118435760405162461bcd60e51b815260040161125d9061559e565b6706f05b59d3b200006001600160401b038216111561187557604051632e15286d60e11b815260040160405180910390fd5b600e5460408051600160c01b9092046001600160401b039081168352831660208301527f27dd3ae8ff7f5e3d77ae68ed36dc780d2ab40a4ffdda18d805cb41eea39c2894910160405180910390a1600e80546001600160401b03909216600160c01b026001600160c01b03909216919091179055565b60135460009060ff161561190157506000919050565b60125460115460001982148015611919575060001981145b1561192957506000199392505050565b6000611933610e7b565b6001600160a01b0386166000908152600360205260408120549192509061195a908361395b565b905060006119688583614040565b905060006119768585614040565b9050611982828261405a565b98975050505050505050565b600080611999610e7b565b905060006119a6826139fb565b905061120784611163838561558b565b6007546001600160a01b031633146119e05760405162461bcd60e51b815260040161125d9061559e565b60135460ff1615611a04576040516337a5332d60e11b815260040160405180910390fd5b600854602011611a2a5760405163f025236d60e01b81526020600482015260240161125d565b6001600160a01b0381166000908152600b602052604090205460ff16611a6e5760405163699f66b160e11b81526001600160a01b038216600482015260240161125d565b6001600160a01b03811660009081526009602052604090205460ff1615611ab357604051630af67d9160e31b81526001600160a01b038216600482015260240161125d565b611abf60088383614069565b6001600160a01b03811660008181526009602052604090819020805460ff19166001179055517fcff5c8a08884d2fad939a9e0f0bf729a4f9af6111a573b4d1f11396c8711646d90611b149085815260200190565b60405180910390a25050565b6007546001600160a01b03163314611b4a5760405162461bcd60e51b815260040161125d9061559e565b601455565b6007546001600160a01b03163314611b795760405162461bcd60e51b815260040161125d9061559e565b600060088281548110611b8e57611b8e61544a565b6000918252602082200154600880546001600160a01b0390921693509085908110611bbb57611bbb61544a565b9060005260206000200160009054906101000a90046001600160a01b03169050818160088681548110611bf057611bf061544a565b90600052602060002001600060088781548110611c0f57611c0f61544a565b60009182526020918290200180546001600160a01b039586166001600160a01b031990911617905582549484166101009290920a918202918402199094161790556040805187815292830186905283821692918516917f3cae4f5796f9d19fa1dcfaacae5a9811c008f6f517a3ec689d903d6f699e495591015b60405180910390a350505050565b6007546001600160a01b03163314611cc15760405162461bcd60e51b815260040161125d9061559e565b6013805460ff19169055604051600081527fb8527b93c36dabdfe078af41be789ba946a4adcfeafcf9d8de21d51629859e3c906020016112a2565b600080611d07610e7b565b9050611d12816141aa565b611d1c84826141e7565b915081600003611d3f5760405163426f153760e11b815260040160405180910390fd5b611d4a8483856141fe565b600654611d62906001600160a01b031633308761427a565b611d6c8383614304565b60408051858152602081018490526001600160a01b0385169133917fdcbc1c05240f31ff3ad067ef1ee35ce4997762752e3a095284754544f4c709d7910160405180910390a3611dbd84838561435e565b5092915050565b6007546001600160a01b03163314611dee5760405162461bcd60e51b815260040161125d9061559e565b6001600160a01b03811115611e165760405163019b5e3160e21b815260040160405180910390fd5b600f5460408051918252602082018390527f513ac19cbbaaad4e450c732ed37635178b7d83bf8e84a940ffe7e052c9c7caa2910160405180910390a1600f55565b6007546001600160a01b03163314611e815760405162461bcd60e51b815260040161125d9061559e565b6702c68af0bb1400006001600160401b0382161115611eb357604051632e15286d60e11b815260040160405180910390fd5b600e5460408051600160801b9092046001600160401b039081168352831660208301527f44ada261ff5c9aacbf8d0687294799c8e3e0810ecc1eafd97419dfc31db5d523910160405180910390a1600e80546001600160401b03909216600160801b0267ffffffffffffffff60801b19909216919091179055565b6007546001600160a01b03163314611f585760405162461bcd60e51b815260040161125d9061559e565b611f626000614379565b565b60606008805480602002602001604051908101604052809291908181526020018280548015611fbc57602002820191906000526020600020905b81546001600160a01b03168152600190910190602001808311611f9e575b5050505050905090565b6007546001600160a01b03163314611ff05760405162461bcd60e51b815260040161125d9061559e565b6001600160a01b03811660009081526009602052604090205460ff1661203457604051631ec7bcd360e01b81526001600160a01b038216600482015260240161125d565b600061203f826137b3565b6006549091506001600160a01b038083169116146120875760065460405163298473c760e11b81526001600160a01b038084166004830152909116602482015260440161125d565b600c546040516001600160a01b0380851692610100900416907f7f835fbf43c4d05a9c4ea5cafa09fbb3b0307d12956ceedce43fd7a339e5046e90600090a350600c80546001600160a01b0390921661010002610100600160a81b0319909216919091179055565b6000806120fa610e7b565b9050612105816141aa565b61210f84826143cb565b915061211c8285856141fe565b600654612134906001600160a01b031633308561427a565b61213e8385614304565b60408051838152602081018690526001600160a01b0385169133917fdcbc1c05240f31ff3ad067ef1ee35ce4997762752e3a095284754544f4c709d7910160405180910390a3611dbd82858561435e565b600180546110d490615557565b6007546001600160a01b031633146121c65760405162461bcd60e51b815260040161125d9061559e565b60135460ff16156121ea576040516337a5332d60e11b815260040160405180910390fd5b6001600160a01b0381166000908152600b602052604090205460ff1661222e5760405163699f66b160e11b81526001600160a01b038216600482015260240161125d565b6001600160a01b03811660009081526009602052604090205460ff161561227357604051630af67d9160e31b81526001600160a01b038216600482015260240161125d565b6000600883815481106122885761228861544a565b60009182526020822001546001600160a01b031691506122a782613874565b905080156122da57604051638454689f60e01b81526001600160a01b03831660048201526024810182905260440161125d565b600c546001600160a01b0361010090910481169083160361230e5760405163747795ff60e11b815260040160405180910390fd5b82600885815481106123225761232261544a565b600091825260208083209190910180546001600160a01b0319166001600160a01b03948516179055848316808352600982526040808420805460ff1990811690915594881680855293819020805490951660011790945592518781529192917fbc86f8061de00ffd666cfe05f6607130d211483a428a9d8961ecf9544fa836b49101611c89565b600881815481106123b957600080fd5b6000918252602090912001546001600160a01b0316905081565b6007546001600160a01b031633146123fd5760405162461bcd60e51b815260040161125d9061559e565b670de0b6b3a76400006001600160401b038216111561242f57604051633d0203e560e01b815260040160405180910390fd5b600e54604080516001600160401b03928316815291831660208301527fc79399093f73f1ff8c2f8279aa9e8803b694c60016c344ecfc2a89fd77c004db910160405180910390a1600e805467ffffffffffffffff19166001600160401b0392909216919091179055565b336000908152600360205260408120805483919083906124ba90849061558b565b90915550506001600160a01b038316600081815260036020526040908190208054850190555133906000805160206159a9833981519152906111c99086815260200190565b6060816001600160401b0381111561251957612519615434565b60405190808252806020026020018201604052801561254c57816020015b60608152602001906001900390816125375790505b50905060005b82811015611dbd57600080308686858181106125705761257061544a565b90506020028101906125829190615622565b60405161259092919061566f565b600060405180830381855af49150503d80600081146125cb576040519150601f19603f3d011682016040523d82523d6000602084013e6125d0565b606091505b50915091508161261c576044815110156125e957600080fd5b60048101905080806020019051810190612603919061567f565b60405162461bcd60e51b815260040161125d9190614f80565b8084848151811061262f5761262f61544a565b60200260200101819052505050808061264790615476565b915050612552565b6007546001600160a01b031633146126795760405162461bcd60e51b815260040161125d9061559e565b601054604080516001600160a01b03928316815291831660208301527f51dbb5a65bb22737861a63ec12ba6ce78a98631e9404b0567a2eaf7a06fc544d910160405180910390a1601080546001600160a01b0319166001600160a01b0392909216919091179055565b6000806126ed610e7b565b905060006126fa826139fb565b90506112078461270a838561558b565b6143cb565b600080600080600061271f6143e2565b9350935093509350612730846141aa565b61273a8885613a61565b9450612748888689896146b3565b336001600160a01b038716146127b6576001600160a01b038616600090815260046020908152604080832033845290915290205460001981146127b45761278f868261558b565b6001600160a01b03881660009081526004602090815260408083203384529091529020555b505b6002546127c387876146d9565b604080518a8152602081018890526001600160a01b03808a1692908b169133917ffbde797d201c681b91056529119e0b02407c7bb96a4a2c75c01fc9667232c8db910160405180910390a46000600c5460ff166001811115612827576128276151ef565b1461283e5761283986828a878661473b565b61284b565b61284b898986868661480d565b50505050509392505050565b6007546001600160a01b031633146128815760405162461bcd60e51b815260040161125d9061559e565b670de0b6b3a76400006001600160401b03821611156128b357604051633d0203e560e01b815260040160405180910390fd5b600e5460408051600160401b9092046001600160401b039081168352831660208301527fb5cc994a260a85a42d6588668221571ae0a14f0a28f9e4817a5195262102c868910160405180910390a1600e80546001600160401b03909216600160401b026fffffffffffffffff000000000000000019909216919091179055565b60008060008060006129436143e2565b9350935093509350612954846141aa565b336001600160a01b038716146129c2576001600160a01b038616600090815260046020908152604080832033845290915290205460001981146129c05761299b898261558b565b6001600160a01b03881660009081526004602090815260408083203384529091529020555b505b6129cc888561395b565b9450846000036129ef57604051639768300560e01b815260040160405180910390fd5b6129fb858989896146b3565b600254612a08878a6146d9565b60408051878152602081018b90526001600160a01b03808a1692908b169133917ffbde797d201c681b91056529119e0b02407c7bb96a4a2c75c01fc9667232c8db910160405180910390a46000600c5460ff166001811115612a6c57612a6c6151ef565b14612a7e5761283989828a878661473b565b612839868986868661480d565b6007546001600160a01b03163314612ab55760405162461bcd60e51b815260040161125d9061559e565b6001600160a01b0381166000908152600b60209081526040808320805460ff19169055600990915290205460ff1615612b87576000612af382613874565b90508015612b2657604051638454689f60e01b81526001600160a01b03831660048201526024810182905260440161125d565b600c546001600160a01b03610100909104811690831603612b5a5760405163747795ff60e11b815260040160405180910390fd5b612b65600883614b1a565b506001600160a01b0381166000908152600960205260409020805460ff191690555b604051600081526001600160a01b038216907fd600b9348603c6deff34b4e0b28b60e1c8036c806741b9e6d90032e7f37dd27f906020015b60405180910390a250565b6007546001600160a01b03163314612bf45760405162461bcd60e51b815260040161125d9061559e565b60125460408051918252602082018390527fcfb5a454b8aa7dc04ecb5bc1410b2a57969ca1d67f66d565196f60c6f9975404910160405180910390a1601255565b6007546001600160a01b03163314612c5f5760405162461bcd60e51b815260040161125d9061559e565b600060088281548110612c7457612c7461544a565b60009182526020822001546001600160a01b03169150612c9382613874565b90508015612cc657604051638454689f60e01b81526001600160a01b03831660048201526024810182905260440161125d565b600c546001600160a01b03610100909104811690831603612cfa5760405163747795ff60e11b815260040160405180910390fd5b612d05600884614c7c565b6001600160a01b03821660008181526009602052604090819020805460ff19169055517f03c78e4e20a72b1f577a63b54524c684ce73d2e414970ee606bb0b7a9004aa9c906115779086815260200190565b60135460009060ff1615612d6d57506000919050565b60125460115460001982148015612d85575060001981145b15612d9557506000199392505050565b6000612d9f610e7b565b6001600160a01b03861660009081526003602052604081205491925090612dc6908361395b565b90506000612dd48583614040565b90506000612de28585614040565b9050611982612df1838361405a565b856141e7565b600061116882612e05610e7b565b6141e7565b6007546001600160a01b03163314612e345760405162461bcd60e51b815260040161125d9061559e565b6000612e3e610e7b565b600d8190556040518181529091507f875561ddc342b12981103d85be8db6375a88982d4cf58d411e38715ae46833309060200160405180910390a150565b6001600160a01b03811660009081526003602052604081205461116890611155565b42841015612eee5760405162461bcd60e51b815260206004820152601760248201527f5045524d49545f444541444c494e455f45585049524544000000000000000000604482015260640161125d565b60006001612efa611584565b6001600160a01b038a811660008181526005602090815260409182902080546001810190915582517f6e71edae12b1b97f4d1f60370fef10105fa2faae0126114a169c64845d6126c98184015280840194909452938d166060840152608083018c905260a083019390935260c08083018b90528151808403909101815260e08301909152805192019190912061190160f01b6101008301526101028201929092526101228101919091526101420160408051601f198184030181528282528051602091820120600084529083018083525260ff871690820152606081018590526080810184905260a0016020604051602081039080840390855afa158015613006573d6000803e3d6000fd5b5050604051601f1901519150506001600160a01b0381161580159061303c5750876001600160a01b0316816001600160a01b0316145b6130795760405162461bcd60e51b815260206004820152600e60248201526d24a72b20a624a22fa9a4a3a722a960911b604482015260640161125d565b6001600160a01b0390811660009081526004602090815260408083208a8516808552908352928190208990555188815291928a16917f8c5be1e5ebec7d5bd14f71427d1e84f3dd0314c0f7b2291e5b200ac8c7c3b925910160405180910390a350505050505050565b6007546001600160a01b0316331461310c5760405162461bcd60e51b815260040161125d9061559e565b60115460408051918252602082018390527f1f21432dd7b8ead64d2e7c06a74baf13783b2d2f7153f099e2c4cabc3c5dbec6910160405180910390a1601155565b6010546001600160a01b0316806131775760405163dc13611360e01b815260040160405180910390fd5b6000613181610e7b565b905061318c816141aa565b30600090815260036020526040812054600e549091906131b69083906001600160401b0316614d96565b600c549091506000906131d990600160a81b90046001600160401b03164261558b565b600e549091506000906301e1338090670de0b6b3a764000090600160801b90046001600160401b031661320c858961572b565b613216919061572b565b613220919061574a565b61322a919061574a565b9050600061324061323b83886141e7565b614dab565b905061324c3082614304565b613256818661560f565b600e54909550613277908290600160401b90046001600160401b0316614d96565b613281908561560f565b935083156132e857613293848661558b565b306000818152600360205260408082208490556001600160a01b038b168083529181902080548901905551929750916000805160206159a9833981519152906132df9088815260200190565b60405180910390a35b600c805467ffffffffffffffff60a81b19164263ffffffff16600160a81b021790556000613316868861395b565b9050801561345c5780600d6000016000828254613333919061558b565b90915550613343905030876146d9565b604051635c9fcd8560e11b8152600060048201819052907f00000000000000000000000000000000000000000000000000000000000000006001600160a01b03169063b93f9b0a90602401602060405180830381865afa1580156133ab573d6000803e3d6000fd5b505050506040513d601f19601f820116820180604052508101906133cf919061548f565b6006549091506133e9906001600160a01b03168284614dd8565b600654600f54604051631ffbe7f960e01b81526001600160a01b03928316600482015260248101919091526044810184905290821690631ffbe7f990606401600060405180830381600087803b15801561344257600080fd5b505af1158015613456573d6000803e3d6000fd5b50505050505b60408051878152602081018390527f15e3e2a76a6839c244c1ed0a821c233ce8af552dffcb856089eae6cbbbb71ea6910160405180910390a15050505050505050565b6000806134aa610e7b565b905060006134b7826139fb565b905061120784612e05838561558b565b6007546001600160a01b031633146134f15760405162461bcd60e51b815260040161125d9061559e565b6001600160a01b0381166135565760405162461bcd60e51b815260206004820152602660248201527f4f776e61626c653a206e6577206f776e657220697320746865207a65726f206160448201526564647265737360d01b606482015260840161125d565b61355f81614379565b50565b6007546001600160a01b0316331461358c5760405162461bcd60e51b815260040161125d9061559e565b6001600160a01b0382166000908152600b602090815260408083208054600160ff199182168117909255600a909352922080548493919216908360028111156135d7576135d76151ef565b0217905550604051600181526001600160a01b038316907fd600b9348603c6deff34b4e0b28b60e1c8036c806741b9e6d90032e7f37dd27f90602001611b14565b6007546001600160a01b031633146136425760405162461bcd60e51b815260040161125d9061559e565b60135460ff1615613666576040516337a5332d60e11b815260040160405180910390fd5b60085460201161368c5760405163f025236d60e01b81526020600482015260240161125d565b6001600160a01b0381166000908152600b602052604090205460ff166136d05760405163699f66b160e11b81526001600160a01b038216600482015260240161125d565b6001600160a01b03811660009081526009602052604090205460ff161561371557604051630af67d9160e31b81526001600160a01b038216600482015260240161125d565b60088054600180820183557ff3f7a9fe364faab93b216da50a3214154f22a0a2b415b23a84c8169e8b636ee390910180546001600160a01b0319166001600160a01b0385169081179091556000818152600960205260409020805460ff19168317905591547fcff5c8a08884d2fad939a9e0f0bf729a4f9af6111a573b4d1f11396c8711646d916137a59161558b565b604051908152602001612bbf565b6001600160a01b0381166000908152600a602052604081205460ff1660018160028111156137e3576137e36151ef565b1480613800575060028160028111156137fe576137fe6151ef565b145b1561386757826001600160a01b03166338d52e0f6040518163ffffffff1660e01b8152600401602060405180830381865afa158015613843573d6000803e3d6000fd5b505050506040513d601f19601f82011682018060405250810190611387919061548f565b5090919050565b50919050565b6001600160a01b0381166000908152600a602052604081205460ff1660018160028111156138a4576138a46151ef565b14806138c1575060028160028111156138bf576138bf6151ef565b145b1561392f5760405163ce96cb7760e01b81523060048201526001600160a01b0384169063ce96cb77906024015b602060405180830381865afa15801561390b573d6000803e3d6000fd5b505050506040513d601f19601f82011682018060405250810190611387919061553e565b6040516370a0823160e01b81523060048201526001600160a01b038416906370a08231906024016138ee565b600254600090801561397757613972848483614021565b611207565b6112076012600660009054906101000a90046001600160a01b03166001600160a01b031663313ce5676040518163ffffffff1660e01b8152600401602060405180830381865afa1580156139cf573d6000803e3d6000fd5b505050506040513d601f19601f820116820180604052508101906139f3919061576c565b869190614e4f565b600e54600090600160c01b90046001600160401b0316801580613a1c575082155b15613a2a5750600092915050565b600d5480841115613a5a576000613a41828661558b565b9050613a56816001600160401b038516614d96565b9350505b5050919050565b6002546000908015613a7857613972848285613ff3565b6006546040805163313ce56760e01b81529051611207926001600160a01b03169163313ce5679160048083019260209291908290030181865afa158015613ac3573d6000803e3d6000fd5b505050506040513d601f19601f82011682018060405250810190613ae7919061576c565b85906012614e4f565b60007f8b73c3c69bb8fe3d512ecc4cf759cc79239f7b179b0ffacaa9a75d522b39400f6000604051613b229190615789565b6040805191829003822060208301939093528101919091527fc89efdaa54c0f20c7adf612882df0950f5a951637e0307cdcb4c672f298b8bc660608201524660808201523060a082015260c00160405160208183030381529060405280519060200120905090565b6001600160a01b0383166000908152600a602052604090205460ff166001816002811115613bba57613bba6151ef565b1480613bd757506002816002811115613bd557613bd56151ef565b145b15613c5b57604051632d182be560e21b8152600481018490526001600160a01b03838116602483015230604483015285169063b460af94906064016020604051808303816000875af1158015613c31573d6000803e3d6000fd5b505050506040513d601f19601f82011682018060405250810190613c55919061553e565b50613c7f565b6001600160a01b0382163014613c7f57613c7f6001600160a01b0385168385614eb8565b50505050565b6040516370a0823160e01b8152306004820152600090819087906001600160a01b038b16906370a0823190602401602060405180830381865afa158015613cd0573d6000803e3d6000fd5b505050506040513d601f19601f82011682018060405250810190613cf4919061553e565b613cfe919061558b565b604051635c9fcd8560e11b8152600160048201529091506000906001600160a01b037f0000000000000000000000000000000000000000000000000000000000000000169063b93f9b0a90602401602060405180830381865afa158015613d69573d6000803e3d6000fd5b505050506040513d601f19601f82011682018060405250810190613d8d919061548f565b9050613da36001600160a01b038b16828a614dd8565b806001600160a01b0316632dfe1690888888888f8f6040518763ffffffff1660e01b8152600401613dd996959493929190615828565b6020604051808303816000875af1158015613df8573d6000803e3d6000fd5b505050506040513d601f19601f82011682018060405250810190613e1c919061553e565b6040516370a0823160e01b815230600482015290935082906001600160a01b038c16906370a0823190602401602060405180830381865afa158015613e65573d6000803e3d6000fd5b505050506040513d601f19601f82011682018060405250810190613e89919061553e565b14613ea757604051630a9213b560e21b815260040160405180910390fd5b5050979650505050505050565b6001600160a01b0382166000908152600a602052604090205460ff166001816002811115613ee457613ee46151ef565b1480613f0157506002816002811115613eff57613eff6151ef565b145b15613fee57613f7d8383856001600160a01b03166338d52e0f6040518163ffffffff1660e01b8152600401602060405180830381865afa158015613f49573d6000803e3d6000fd5b505050506040513d601f19601f82011682018060405250810190613f6d919061548f565b6001600160a01b03169190614dd8565b604051636e553f6560e01b8152600481018390523060248201526001600160a01b03841690636e553f65906044016020604051808303816000875af1158015613fca573d6000803e3d6000fd5b505050506040513d601f19601f82011682018060405250810190613c7f919061553e565b505050565b82820281151584158583048514171661400b57600080fd5b6001826001830304018115150290509392505050565b82820281151584158583048514171661403957600080fd5b0492915050565b6000818311614050576000611387565b611387828461558b565b60008183106138675781611387565b8254838061407860018461558b565b815481106140885761408861544a565b600091825260208083209091015483546001818101865594845291832090910180546001600160a01b0319166001600160a01b03909216919091179055906140d0908361558b565b90505b8381111561416257846140e760018361558b565b815481106140f7576140f761544a565b9060005260206000200160009054906101000a90046001600160a01b03168582815481106141275761412761544a565b600091825260209091200180546001600160a01b0319166001600160a01b03929092169190911790558061415a81615885565b9150506140d3565b50818484815481106141765761417661544a565b9060005260206000200160006101000a8154816001600160a01b0302191690836001600160a01b0316021790555050505050565b60006141b5826139fb565b905080156141e35760006141cc61323b83856141e7565b90508015613fee57600d839055613fee3082614304565b5050565b6002546000908015613a7857613972848285614021565b60135460ff1615614222576040516337a5332d60e11b815260040160405180910390fd5b600061422d826118eb565b90508084111561425a57604051632d21eb8760e21b8152600481018590526024810182905260440161125d565b83600d600001600082825461426f919061560f565b909155505050505050565b60006040516323b872dd60e01b81528460048201528360248201528260448201526020600060648360008a5af13d15601f3d11600160005114161716915050806142fd5760405162461bcd60e51b81526020600482015260146024820152731514905394d1915497d19493d357d1905253115160621b604482015260640161125d565b5050505050565b8060026000828254614316919061560f565b90915550506001600160a01b0382166000818152600360209081526040808320805486019055518481526000805160206159a983398151915291015b60405180910390a35050565b600c54613fee9061010090046001600160a01b031684613eb4565b600780546001600160a01b038381166001600160a01b0319831681179093556040519116919082907f8be0079c531659141344cd1fd0a4f28419497f9722a3daafe3b4186f6b6457e090600090a35050565b600254600090801561397757613972848483613ff3565b60085460009060609081908190806001600160401b0381111561440757614407615434565b604051908082528060200260200182016040528015614430578160200160208202803683370190505b509350806001600160401b0381111561444b5761444b615434565b604051908082528060200260200182016040528015614474578160200160208202803683370190505b509250806001600160401b0381111561448f5761448f615434565b6040519080825280602002602001820160405280156144b8578160200160208202803683370190505b50915060005b818110156145a2576000600882815481106144db576144db61544a565b9060005260206000200160009054906101000a90046001600160a01b031690508086838151811061450e5761450e61544a565b60200260200101906001600160a01b031690816001600160a01b031681525050614537816137b3565b8583815181106145495761454961544a565b60200260200101906001600160a01b031690816001600160a01b03168152505061457281613874565b8483815181106145845761458461544a565b6020908102919091010152508061459a81615476565b9150506144be565b50604051635c9fcd8560e11b8152600260048201526000907f00000000000000000000000000000000000000000000000000000000000000006001600160a01b03169063b93f9b0a90602401602060405180830381865afa15801561460b573d6000803e3d6000fd5b505050506040513d601f19601f8201168201806040525081019061462f919061548f565b60065460405163b333a17560e01b81529192506001600160a01b038084169263b333a175926146689289928992909116906004016154ac565b602060405180830381865afa158015614685573d6000803e3d6000fd5b505050506040513d601f19601f820116820180604052508101906146a9919061553e565b9550505090919293565b600d548085116146cc576146c7858261558b565b6146cf565b60005b600d555050505050565b6001600160a01b0382166000908152600360205260408120805483929061470190849061558b565b90915550506002805482900390556040518181526000906001600160a01b038416906000805160206159a983398151915290602001614352565b60005b825181101561480557600083828151811061475b5761475b61544a565b6020026020010151905060008383815181106147795761477961544a565b60200260200101519050806000036147925750506147f3565b600061479f828a8a614021565b90506147ac838289613b8a565b826001600160a01b03167f94ad37a0f8935c0acdd1ccffe9aad296bfc8d0a1dd2d0cfbac79405c5f86ed82826040516147e791815260200190565b60405180910390a25050505b806147fd81615476565b91505061473e565b505050505050565b604051635c9fcd8560e11b8152600260048201526000907f00000000000000000000000000000000000000000000000000000000000000006001600160a01b03169063b93f9b0a90602401602060405180830381865afa158015614875573d6000803e3d6000fd5b505050506040513d601f19601f82011682018060405250810190614899919061548f565b905060005b8281815181106148b0576148b061544a565b602002602001015160000315614aff5760008482815181106148d4576148d461544a565b60200260200101516001600160a01b031663313ce5676040518163ffffffff1660e01b8152600401602060405180830381865afa158015614919573d6000803e3d6000fd5b505050506040513d601f19601f8201168201806040525081019061493d919061576c565b61494890600a615980565b90506000836001600160a01b031663baaa61be87858151811061496d5761496d61544a565b602090810291909101015160065460405160e084901b6001600160e01b03191681526001600160a01b03928316600482015291166024820152604401602060405180830381865afa1580156149c6573d6000803e3d6000fd5b505050506040513d601f19601f820116820180604052508101906149ea919061553e565b90506000614a1c8284888781518110614a0557614a0561544a565b60200260200101516140219092919063ffffffff16565b905060008a821115614a3e57614a338b8585614021565b905060009a50614a69565b868581518110614a5057614a5061544a565b60200260200101519050818b614a66919061558b565b9a505b614a8d898681518110614a7e57614a7e61544a565b6020026020010151828c613b8a565b888581518110614a9f57614a9f61544a565b60200260200101516001600160a01b03167f94ad37a0f8935c0acdd1ccffe9aad296bfc8d0a1dd2d0cfbac79405c5f86ed8282604051614ae191815260200190565b60405180910390a28a600003614afa5750505050614b11565b505050505b80614b0981615476565b91505061489e565b50505050505050565b815460005b81811015614c4157826001600160a01b0316848281548110614b4357614b4361544a565b6000918252602090912001546001600160a01b031603614c2f575b614b6960018361558b565b811015614bf75783614b7c82600161560f565b81548110614b8c57614b8c61544a565b9060005260206000200160009054906101000a90046001600160a01b0316848281548110614bbc57614bbc61544a565b600091825260209091200180546001600160a01b0319166001600160a01b039290921691909117905580614bef81615476565b915050614b5e565b83805480614c0757614c076155f9565b600082815260209020810160001990810180546001600160a01b031916905501905550505050565b80614c3981615476565b915050614b1f565b5060405162461bcd60e51b815260206004820152600f60248201526e15985b1d59481b9bdd08199bdd5b99608a1b604482015260640161125d565b8154808210614cc35760405162461bcd60e51b8152602060048201526013602482015272496e646578206f7574206f6620626f756e647360681b604482015260640161125d565b815b614cd060018361558b565b811015614d5e5783614ce382600161560f565b81548110614cf357614cf361544a565b9060005260206000200160009054906101000a90046001600160a01b0316848281548110614d2357614d2361544a565b600091825260209091200180546001600160a01b0319166001600160a01b039290921691909117905580614d5681615476565b915050614cc5565b5082805480614d6f57614d6f6155f9565b600082815260209020810160001990810180546001600160a01b0319169055019055505050565b60006113878383670de0b6b3a7640000614021565b60025460009081614dbc848361558b565b905060008111614dcd576000611207565b611207848383613ff3565b600060405163095ea7b360e01b8152836004820152826024820152602060006044836000895af13d15601f3d1160016000511416171691505080613c7f5760405162461bcd60e51b815260206004820152600e60248201526d1054141493d59157d1905253115160921b604482015260640161125d565b60008160ff168360ff1603614e65575082611387565b8160ff168360ff161015614e9957614e7d838361598f565b614e8890600a615980565b614e92908561572b565b9050611387565b614ea3828461598f565b614eae90600a615980565b614e92908561574a565b600060405163a9059cbb60e01b8152836004820152826024820152602060006044836000895af13d15601f3d1160016000511416171691505080613c7f5760405162461bcd60e51b815260206004820152600f60248201526e1514905394d1915497d19052531151608a1b604482015260640161125d565b60005b83811015614f4b578181015183820152602001614f33565b50506000910152565b60008151808452614f6c816020860160208601614f30565b601f01601f19169290920160200192915050565b6020815260006113876020830184614f54565b600060208284031215614fa557600080fd5b5035919050565b6001600160a01b038116811461355f57600080fd5b60008060408385031215614fd457600080fd5b8235614fdf81614fac565b946020939093013593505050565b60008060006060848603121561500257600080fd5b833561500d81614fac565b9250602084013561501d81614fac565b929592945050506040919091013590565b6002811061355f57600080fd5b60006020828403121561504d57600080fd5b81356113878161502e565b60008060008060008060a0878903121561507157600080fd5b863561507c81614fac565b9550602087013561508c81614fac565b94506040870135935060608701356150a38161502e565b925060808701356001600160401b03808211156150bf57600080fd5b818901915089601f8301126150d357600080fd5b8135818111156150e257600080fd5b8a60208285010111156150f457600080fd5b6020830194508093505050509295509295509295565b60006020828403121561511c57600080fd5b81356001600160401b038116811461138757600080fd5b60006020828403121561514557600080fd5b813561138781614fac565b6000806040838503121561516357600080fd5b82359150602083013561517581614fac565b809150509250929050565b6000806040838503121561519357600080fd5b50508035926020909101359150565b6020808252825182820181905260009190848201906040850190845b818110156151e35783516001600160a01b0316835292840192918401916001016151be565b50909695505050505050565b634e487b7160e01b600052602160045260246000fd5b6020810160038310615219576152196151ef565b91905290565b6000806020838503121561523257600080fd5b82356001600160401b038082111561524957600080fd5b818501915085601f83011261525d57600080fd5b81358181111561526c57600080fd5b8660208260051b850101111561528157600080fd5b60209290920196919550909350505050565b6000602080830181845280855180835260408601915060408160051b870101925083870160005b828110156152e857603f198886030184526152d6858351614f54565b945092850192908501906001016152ba565b5092979650505050505050565b60008060006060848603121561530a57600080fd5b83359250602084013561531c81614fac565b9150604084013561532c81614fac565b809150509250925092565b60ff8116811461355f57600080fd5b600080600080600080600060e0888a03121561536157600080fd5b873561536c81614fac565b9650602088013561537c81614fac565b95506040880135945060608801359350608088013561539a81615337565b9699959850939692959460a0840135945060c09093013592915050565b600080604083850312156153ca57600080fd5b82356153d581614fac565b9150602083013561517581614fac565b6002811061355f5761355f6151ef565b60208101615219836153e5565b6000806040838503121561541557600080fd5b823561542081614fac565b915060208301356003811061517557600080fd5b634e487b7160e01b600052604160045260246000fd5b634e487b7160e01b600052603260045260246000fd5b634e487b7160e01b600052601160045260246000fd5b60006001820161548857615488615460565b5060010190565b6000602082840312156154a157600080fd5b815161138781614fac565b606080825284519082018190526000906020906080840190828801845b828110156154ee5781516001600160a01b0316845292840192908401906001016154c9565b5050508381038285015285518082528683019183019060005b8181101561552357835183529284019291840191600101615507565b50506001600160a01b03861660408601529250611207915050565b60006020828403121561555057600080fd5b5051919050565b600181811c9082168061556b57607f821691505b60208210810361386e57634e487b7160e01b600052602260045260246000fd5b8181038181111561116857611168615460565b6020808252818101527f4f776e61626c653a2063616c6c6572206973206e6f7420746865206f776e6572604082015260600190565b604081016155e0846153e5565b8382526155ec836153e5565b8260208301529392505050565b634e487b7160e01b600052603160045260246000fd5b8082018082111561116857611168615460565b6000808335601e1984360301811261563957600080fd5b8301803591506001600160401b0382111561565357600080fd5b60200191503681900382131561566857600080fd5b9250929050565b8183823760009101908152919050565b60006020828403121561569157600080fd5b81516001600160401b03808211156156a857600080fd5b818401915084601f8301126156bc57600080fd5b8151818111156156ce576156ce615434565b604051601f8201601f19908116603f011681019083821181831017156156f6576156f6615434565b8160405282815287602084870101111561570f57600080fd5b615720836020830160208801614f30565b979650505050505050565b600081600019048311821515161561574557615745615460565b500290565b60008261576757634e487b7160e01b600052601260045260246000fd5b500490565b60006020828403121561577e57600080fd5b815161138781615337565b600080835481600182811c9150808316806157a557607f831692505b602080841082036157c457634e487b7160e01b86526022600452602486fd5b8180156157d857600181146157ed5761581a565b60ff198616895284151585028901965061581a565b60008a81526020902060005b868110156158125781548b8201529085019083016157f9565b505084890196505b509498975050505050505050565b615831876153e5565b86815260a060208201528460a0820152848660c0830137600060c08683018101919091526001600160a01b039485166040830152928416606082015292166080830152601f909201601f1916010192915050565b60008161589457615894615460565b506000190190565b600181815b808511156158d75781600019048211156158bd576158bd615460565b808516156158ca57918102915b93841c93908002906158a1565b509250929050565b6000826158ee57506001611168565b816158fb57506000611168565b8160018114615911576002811461591b57615937565b6001915050611168565b60ff84111561592c5761592c615460565b50506001821b611168565b5060208310610133831016604e8410600b841016171561595a575081810a611168565b615964838361589c565b806000190482111561597857615978615460565b029392505050565b600061138760ff8416836158df565b60ff82811682821603908111156111685761116861546056feddf252ad1be2c89b69c2b068fc378daa952ba7f163c4a11628f55a4df523b3efa264697066735822122096ae10e5d68980e555b813b8139525b044b5ee31976fd714ee6948b932522aec64736f6c63430008100033",
    "linkReferences": {}
  },
  "methodIdentifiers": {
    "DOMAIN_SEPARATOR()": "3644e515",
    "MAX_FEE_CUT()": "eef33eca",
    "MAX_PERFORMANCE_FEE()": "bdca9165",
    "MAX_PLATFORM_FEE()": "3998a681",
    "MAX_POSITIONS()": "f7b24e08",
    "addPosition(uint256,address)": "4eca8a83",
    "allowance(address,address)": "dd62ed3e",
    "allowedRebalanceDeviation()": "c244245a",
    "approve(address,uint256)": "095ea7b3",
    "asset()": "38d52e0f",
    "balanceOf(address)": "70a08231",
    "convertToAssets(uint256)": "07a2d13a",
    "convertToShares(uint256)": "c6e6f592",
    "decimals()": "313ce567",
    "deposit(uint256,address)": "6e553f65",
    "depositLimit()": "ecf70858",
    "distrustPosition(address)": "bd83721a",
    "feeData()": "e753e600",
    "getPositionType(address)": "9e35c65b",
    "getPositions()": "80275860",
    "holdingPosition()": "9c5f00c2",
    "initiateShutdown()": "0a680e18",
    "isPositionUsed(address)": "472090fe",
    "isShutdown()": "bf86d690",
    "isTrusted(address)": "96d64879",
    "lastAccrual()": "7b3baab4",
    "liftShutdown()": "5e2c576e",
    "liquidityLimit()": "72163715",
    "maxDeposit(address)": "402d267d",
    "maxMint(address)": "c63d75b6",
    "maxRedeem(address)": "d905777e",
    "maxWithdraw(address)": "ce96cb77",
    "mint(uint256,address)": "94bf804d",
    "multicall(bytes[])": "ac9650d8",
    "name()": "06fdde03",
    "nonces(address)": "7ecebe00",
    "owner()": "8da5cb5b",
    "permit(address,address,uint256,uint256,uint8,bytes32,bytes32)": "d505accf",
    "popPosition()": "3076fdc5",
    "positions(uint256)": "99fbab88",
    "previewDeposit(uint256)": "ef8b30f7",
    "previewMint(uint256)": "b3d7f6b9",
    "previewRedeem(uint256)": "4cdad506",
    "previewWithdraw(uint256)": "0a28a477",
    "pushPosition(address)": "fdd230b9",
    "rebalance(address,address,uint256,uint8,bytes)": "389a7294",
    "redeem(uint256,address,address)": "ba087652",
    "registry()": "7b103999",
    "removePosition(uint256)": "c0467422",
    "renounceOwnership()": "715018a6",
    "replacePosition(uint256,address)": "96a0f591",
    "resetHighWatermark()": "c85e5e13",
    "sendFees()": "dff90b5b",
    "setDepositLimit(uint256)": "bdc8144b",
    "setFeesDistributor(bytes32)": "6e85f183",
    "setHoldingPosition(address)": "8b0cebf7",
    "setLiquidityLimit(uint256)": "df05a52a",
    "setPerformanceFee(uint64)": "3cf99a46",
    "setPlatformFee(uint64)": "70af7df6",
    "setRebalanceDeviation(uint256)": "530a3714",
    "setStrategistPayoutAddress(address)": "b0a75d36",
    "setStrategistPerformanceCut(uint64)": "9b6fd18e",
    "setStrategistPlatformCut(uint64)": "b5292a99",
    "setWithdrawType(uint8)": "2f3b5a13",
    "swapPositions(uint256,uint256)": "58384573",
    "symbol()": "95d89b41",
    "totalAssets()": "01e1d114",
    "totalSupply()": "18160ddd",
    "transfer(address,uint256)": "a9059cbb",
    "transferFrom(address,address,uint256)": "23b872dd",
    "transferOwnership(address)": "f2fde38b",
    "trustPosition(address,uint8)": "fc4d43be",
    "withdraw(uint256,address,address)": "b460af94",
    "withdrawType()": "e39448e0"
  },
  "id": 21
}