{
  "abi": [
    {
      "inputs": [
        {
          "internalType": "contract Registry",
          "name": "_registry",
          "type": "address"
        },
        {
          "internalType": "contract ERC20",
          "name": "_asset",
          "type": "address"
        },
        {
          "internalType": "address[]",
          "name": "_positions",
          "type": "address[]"
        },
        {
          "internalType": "enum Cellar.PositionType[]",
          "name": "_positionTypes",
          "type": "uint8[]"
        },
        {
          "internalType": "address",
          "name": "_holdingPosition",
          "type": "address"
        },
        {
          "internalType": "enum Cellar.WithdrawType",
          "name": "_withdrawType",
          "type": "uint8"
        },
        {
          "internalType": "string",
          "name": "_name",
          "type": "string"
        },
        {
          "internalType": "string",
          "name": "_symbol",
          "type": "string"
        },
        {
          "internalType": "address",
          "name": "_strategistPayout",
          "type": "address"
        }
      ],
      "stateMutability": "nonpayable",
      "type": "constructor"
    },
    {
      "inputs": [
        {
          "internalType": "address",
          "name": "asset",
          "type": "address"
        },
        {
          "internalType": "address",
          "name": "expectedAsset",
          "type": "address"
        }
      ],
      "name": "Cellar__AssetMismatch",
      "type": "error"
    },
    {
      "inputs": [],
      "name": "Cellar__ContractNotShutdown",
      "type": "error"
    },
    {
      "inputs": [],
      "name": "Cellar__ContractShutdown",
      "type": "error"
    },
    {
      "inputs": [
        {
          "internalType": "uint256",
          "name": "assets",
          "type": "uint256"
        },
        {
          "internalType": "uint256",
          "name": "maxDeposit",
          "type": "uint256"
        }
      ],
      "name": "Cellar__DepositRestricted",
      "type": "error"
    },
    {
      "inputs": [
        {
          "internalType": "address",
          "name": "illiquidPosition",
          "type": "address"
        }
      ],
      "name": "Cellar__IlliquidWithdraw",
      "type": "error"
    },
    {
      "inputs": [
        {
          "internalType": "uint256",
          "name": "assetsOwed",
          "type": "uint256"
        }
      ],
      "name": "Cellar__IncompleteWithdraw",
      "type": "error"
    },
    {
      "inputs": [],
      "name": "Cellar__InvalidCosmosAddress",
      "type": "error"
    },
    {
      "inputs": [],
      "name": "Cellar__InvalidFee",
      "type": "error"
    },
    {
      "inputs": [],
      "name": "Cellar__InvalidFeeCut",
      "type": "error"
    },
    {
      "inputs": [
        {
          "internalType": "address",
          "name": "position",
          "type": "address"
        }
      ],
      "name": "Cellar__InvalidPosition",
      "type": "error"
    },
    {
      "inputs": [
        {
          "internalType": "uint256",
          "name": "requested",
          "type": "uint256"
        },
        {
          "internalType": "uint256",
          "name": "max",
          "type": "uint256"
        }
      ],
      "name": "Cellar__InvalidRebalanceDeviation",
      "type": "error"
    },
    {
      "inputs": [],
      "name": "Cellar__InvalidShareLockPeriod",
      "type": "error"
    },
    {
      "inputs": [
        {
          "internalType": "address",
          "name": "depositor",
          "type": "address"
        }
      ],
      "name": "Cellar__NotApprovedToDepositOnBehalf",
      "type": "error"
    },
    {
      "inputs": [],
      "name": "Cellar__PayoutNotSet",
      "type": "error"
    },
    {
      "inputs": [
        {
          "internalType": "address",
          "name": "position",
          "type": "address"
        }
      ],
      "name": "Cellar__PositionAlreadyUsed",
      "type": "error"
    },
    {
      "inputs": [
        {
          "internalType": "uint256",
          "name": "maxPositions",
          "type": "uint256"
        }
      ],
      "name": "Cellar__PositionArrayFull",
      "type": "error"
    },
    {
      "inputs": [
        {
          "internalType": "address",
          "name": "position",
          "type": "address"
        },
        {
          "internalType": "uint256",
          "name": "sharesRemaining",
          "type": "uint256"
        }
      ],
      "name": "Cellar__PositionNotEmpty",
      "type": "error"
    },
    {
      "inputs": [
        {
          "internalType": "address",
          "name": "position",
          "type": "address"
        }
      ],
      "name": "Cellar__PositionPricingNotSetUp",
      "type": "error"
    },
    {
      "inputs": [],
      "name": "Cellar__RemoveHoldingPosition",
      "type": "error"
    },
    {
      "inputs": [
        {
          "internalType": "uint256",
          "name": "blockSharesAreUnlocked",
          "type": "uint256"
        },
        {
          "internalType": "uint256",
          "name": "currentBlock",
          "type": "uint256"
        }
      ],
      "name": "Cellar__SharesAreLocked",
      "type": "error"
    },
    {
      "inputs": [
        {
          "internalType": "uint256",
          "name": "assets",
          "type": "uint256"
        },
        {
          "internalType": "uint256",
          "name": "min",
          "type": "uint256"
        },
        {
          "internalType": "uint256",
          "name": "max",
          "type": "uint256"
        }
      ],
      "name": "Cellar__TotalAssetDeviatedOutsideRange",
      "type": "error"
    },
    {
      "inputs": [
        {
          "internalType": "uint256",
          "name": "current",
          "type": "uint256"
        },
        {
          "internalType": "uint256",
          "name": "expected",
          "type": "uint256"
        }
      ],
      "name": "Cellar__TotalSharesMustRemainConstant",
      "type": "error"
    },
    {
      "inputs": [
        {
          "internalType": "address",
          "name": "position",
          "type": "address"
        }
      ],
      "name": "Cellar__UntrustedPosition",
      "type": "error"
    },
    {
      "inputs": [],
      "name": "Cellar__WrongSwapParams",
      "type": "error"
    },
    {
      "inputs": [],
      "name": "Cellar__ZeroAssets",
      "type": "error"
    },
    {
      "inputs": [],
      "name": "Cellar__ZeroShares",
      "type": "error"
    },
    {
      "anonymous": false,
      "inputs": [
        {
          "indexed": true,
          "internalType": "address",
          "name": "owner",
          "type": "address"
        },
        {
          "indexed": true,
          "internalType": "address",
          "name": "spender",
          "type": "address"
        },
        {
          "indexed": false,
          "internalType": "uint256",
          "name": "value",
          "type": "uint256"
        }
      ],
      "name": "Approval",
      "type": "event"
    },
    {
      "anonymous": false,
      "inputs": [
        {
          "indexed": true,
          "internalType": "address",
          "name": "caller",
          "type": "address"
        },
        {
          "indexed": true,
          "internalType": "address",
          "name": "owner",
          "type": "address"
        },
        {
          "indexed": false,
          "internalType": "uint256",
          "name": "assets",
          "type": "uint256"
        },
        {
          "indexed": false,
          "internalType": "uint256",
          "name": "shares",
          "type": "uint256"
        }
      ],
      "name": "Deposit",
      "type": "event"
    },
    {
      "anonymous": false,
      "inputs": [
        {
          "indexed": false,
          "internalType": "uint256",
          "name": "oldLimit",
          "type": "uint256"
        },
        {
          "indexed": false,
          "internalType": "uint256",
          "name": "newLimit",
          "type": "uint256"
        }
      ],
      "name": "DepositLimitChanged",
      "type": "event"
    },
    {
      "anonymous": false,
      "inputs": [
        {
          "indexed": false,
          "internalType": "bytes32",
          "name": "oldFeesDistributor",
          "type": "bytes32"
        },
        {
          "indexed": false,
          "internalType": "bytes32",
          "name": "newFeesDistributor",
          "type": "bytes32"
        }
      ],
      "name": "FeesDistributorChanged",
      "type": "event"
    },
    {
      "anonymous": false,
      "inputs": [
        {
          "indexed": false,
          "internalType": "uint256",
          "name": "newHighWatermark",
          "type": "uint256"
        }
      ],
      "name": "HighWatermarkReset",
      "type": "event"
    },
    {
      "anonymous": false,
      "inputs": [
        {
          "indexed": true,
          "internalType": "address",
          "name": "oldPosition",
          "type": "address"
        },
        {
          "indexed": true,
          "internalType": "address",
          "name": "newPosition",
          "type": "address"
        }
      ],
      "name": "HoldingPositionChanged",
      "type": "event"
    },
    {
      "anonymous": false,
      "inputs": [
        {
          "indexed": false,
          "internalType": "uint256",
          "name": "oldLimit",
          "type": "uint256"
        },
        {
          "indexed": false,
          "internalType": "uint256",
          "name": "newLimit",
          "type": "uint256"
        }
      ],
      "name": "LiquidityLimitChanged",
      "type": "event"
    },
    {
      "anonymous": false,
      "inputs": [
        {
          "indexed": true,
          "internalType": "address",
          "name": "previousOwner",
          "type": "address"
        },
        {
          "indexed": true,
          "internalType": "address",
          "name": "newOwner",
          "type": "address"
        }
      ],
      "name": "OwnershipTransferred",
      "type": "event"
    },
    {
      "anonymous": false,
      "inputs": [
        {
          "indexed": false,
          "internalType": "uint64",
          "name": "oldPerformanceFee",
          "type": "uint64"
        },
        {
          "indexed": false,
          "internalType": "uint64",
          "name": "newPerformanceFee",
          "type": "uint64"
        }
      ],
      "name": "PerformanceFeeChanged",
      "type": "event"
    },
    {
      "anonymous": false,
      "inputs": [
        {
          "indexed": false,
          "internalType": "uint64",
          "name": "oldPlatformFee",
          "type": "uint64"
        },
        {
          "indexed": false,
          "internalType": "uint64",
          "name": "newPlatformFee",
          "type": "uint64"
        }
      ],
      "name": "PlatformFeeChanged",
      "type": "event"
    },
    {
      "anonymous": false,
      "inputs": [
        {
          "indexed": true,
          "internalType": "address",
          "name": "position",
          "type": "address"
        },
        {
          "indexed": false,
          "internalType": "uint256",
          "name": "index",
          "type": "uint256"
        }
      ],
      "name": "PositionAdded",
      "type": "event"
    },
    {
      "anonymous": false,
      "inputs": [
        {
          "indexed": true,
          "internalType": "address",
          "name": "position",
          "type": "address"
        },
        {
          "indexed": false,
          "internalType": "uint256",
          "name": "index",
          "type": "uint256"
        }
      ],
      "name": "PositionRemoved",
      "type": "event"
    },
    {
      "anonymous": false,
      "inputs": [
        {
          "indexed": true,
          "internalType": "address",
          "name": "newPosition1",
          "type": "address"
        },
        {
          "indexed": true,
          "internalType": "address",
          "name": "newPosition2",
          "type": "address"
        },
        {
          "indexed": false,
          "internalType": "uint256",
          "name": "index1",
          "type": "uint256"
        },
        {
          "indexed": false,
          "internalType": "uint256",
          "name": "index2",
          "type": "uint256"
        }
      ],
      "name": "PositionSwapped",
      "type": "event"
    },
    {
      "anonymous": false,
      "inputs": [
        {
          "indexed": true,
          "internalType": "address",
          "name": "position",
          "type": "address"
        },
        {
          "indexed": false,
          "internalType": "uint256",
          "name": "amount",
          "type": "uint256"
        }
      ],
      "name": "PulledFromPosition",
      "type": "event"
    },
    {
      "anonymous": false,
      "inputs": [
        {
          "indexed": true,
          "internalType": "address",
          "name": "fromPosition",
          "type": "address"
        },
        {
          "indexed": true,
          "internalType": "address",
          "name": "toPosition",
          "type": "address"
        },
        {
          "indexed": false,
          "internalType": "uint256",
          "name": "assetsFrom",
          "type": "uint256"
        },
        {
          "indexed": false,
          "internalType": "uint256",
          "name": "assetsTo",
          "type": "uint256"
        }
      ],
      "name": "Rebalance",
      "type": "event"
    },
    {
      "anonymous": false,
      "inputs": [
        {
          "indexed": false,
          "internalType": "uint256",
          "name": "oldDeviation",
          "type": "uint256"
        },
        {
          "indexed": false,
          "internalType": "uint256",
          "name": "newDeviation",
          "type": "uint256"
        }
      ],
      "name": "RebalanceDeviationChanged",
      "type": "event"
    },
    {
      "anonymous": false,
      "inputs": [
        {
          "indexed": false,
          "internalType": "uint256",
          "name": "feesInSharesRedeemed",
          "type": "uint256"
        },
        {
          "indexed": false,
          "internalType": "uint256",
          "name": "feesInAssetsSent",
          "type": "uint256"
        }
      ],
      "name": "SendFees",
      "type": "event"
    },
    {
      "anonymous": false,
      "inputs": [
        {
          "indexed": false,
          "internalType": "uint256",
          "name": "oldPeriod",
          "type": "uint256"
        },
        {
          "indexed": false,
          "internalType": "uint256",
          "name": "newPeriod",
          "type": "uint256"
        }
      ],
      "name": "ShareLockingPeriodChanged",
      "type": "event"
    },
    {
      "anonymous": false,
      "inputs": [
        {
          "indexed": false,
          "internalType": "bool",
          "name": "isShutdown",
          "type": "bool"
        }
      ],
      "name": "ShutdownChanged",
      "type": "event"
    },
    {
      "anonymous": false,
      "inputs": [
        {
          "indexed": false,
          "internalType": "address",
          "name": "oldPayoutAddress",
          "type": "address"
        },
        {
          "indexed": false,
          "internalType": "address",
          "name": "newPayoutAddress",
          "type": "address"
        }
      ],
      "name": "StrategistPayoutAddressChanged",
      "type": "event"
    },
    {
      "anonymous": false,
      "inputs": [
        {
          "indexed": false,
          "internalType": "uint64",
          "name": "oldPerformanceCut",
          "type": "uint64"
        },
        {
          "indexed": false,
          "internalType": "uint64",
          "name": "newPerformanceCut",
          "type": "uint64"
        }
      ],
      "name": "StrategistPerformanceCutChanged",
      "type": "event"
    },
    {
      "anonymous": false,
      "inputs": [
        {
          "indexed": false,
          "internalType": "uint64",
          "name": "oldPlatformCut",
          "type": "uint64"
        },
        {
          "indexed": false,
          "internalType": "uint64",
          "name": "newPlatformCut",
          "type": "uint64"
        }
      ],
      "name": "StrategistPlatformCutChanged",
      "type": "event"
    },
    {
      "anonymous": false,
      "inputs": [
        {
          "indexed": true,
          "internalType": "address",
          "name": "from",
          "type": "address"
        },
        {
          "indexed": true,
          "internalType": "address",
          "name": "to",
          "type": "address"
        },
        {
          "indexed": false,
          "internalType": "uint256",
          "name": "value",
          "type": "uint256"
        }
      ],
      "name": "Transfer",
      "type": "event"
    },
    {
      "anonymous": false,
      "inputs": [
        {
          "indexed": true,
          "internalType": "address",
          "name": "position",
          "type": "address"
        },
        {
          "indexed": false,
          "internalType": "bool",
          "name": "isTrusted",
          "type": "bool"
        }
      ],
      "name": "TrustChanged",
      "type": "event"
    },
    {
      "anonymous": false,
      "inputs": [
        {
          "indexed": true,
          "internalType": "address",
          "name": "caller",
          "type": "address"
        },
        {
          "indexed": true,
          "internalType": "address",
          "name": "receiver",
          "type": "address"
        },
        {
          "indexed": true,
          "internalType": "address",
          "name": "owner",
          "type": "address"
        },
        {
          "indexed": false,
          "internalType": "uint256",
          "name": "assets",
          "type": "uint256"
        },
        {
          "indexed": false,
          "internalType": "uint256",
          "name": "shares",
          "type": "uint256"
        }
      ],
      "name": "Withdraw",
      "type": "event"
    },
    {
      "anonymous": false,
      "inputs": [
        {
          "indexed": false,
          "internalType": "enum Cellar.WithdrawType",
          "name": "oldType",
          "type": "uint8"
        },
        {
          "indexed": false,
          "internalType": "enum Cellar.WithdrawType",
          "name": "newType",
          "type": "uint8"
        }
      ],
      "name": "WithdrawTypeChanged",
      "type": "event"
    },
    {
      "inputs": [],
      "name": "DOMAIN_SEPARATOR",
      "outputs": [
        {
          "internalType": "bytes32",
          "name": "",
          "type": "bytes32"
        }
      ],
      "stateMutability": "view",
      "type": "function"
    },
    {
      "inputs": [],
      "name": "MAXIMUM_SHARE_LOCK_PERIOD",
      "outputs": [
        {
          "internalType": "uint256",
          "name": "",
          "type": "uint256"
        }
      ],
      "stateMutability": "view",
      "type": "function"
    },
    {
      "inputs": [],
      "name": "MAX_FEE_CUT",
      "outputs": [
        {
          "internalType": "uint64",
          "name": "",
          "type": "uint64"
        }
      ],
      "stateMutability": "view",
      "type": "function"
    },
    {
      "inputs": [],
      "name": "MAX_PERFORMANCE_FEE",
      "outputs": [
        {
          "internalType": "uint64",
          "name": "",
          "type": "uint64"
        }
      ],
      "stateMutability": "view",
      "type": "function"
    },
    {
      "inputs": [],
      "name": "MAX_PLATFORM_FEE",
      "outputs": [
        {
          "internalType": "uint64",
          "name": "",
          "type": "uint64"
        }
      ],
      "stateMutability": "view",
      "type": "function"
    },
    {
      "inputs": [],
      "name": "MAX_POSITIONS",
      "outputs": [
        {
          "internalType": "uint8",
          "name": "",
          "type": "uint8"
        }
      ],
      "stateMutability": "view",
      "type": "function"
    },
    {
      "inputs": [],
      "name": "MAX_REBALANCE_DEVIATION",
      "outputs": [
        {
          "internalType": "uint64",
          "name": "",
          "type": "uint64"
        }
      ],
      "stateMutability": "view",
      "type": "function"
    },
    {
      "inputs": [],
      "name": "MINIMUM_SHARE_LOCK_PERIOD",
      "outputs": [
        {
          "internalType": "uint256",
          "name": "",
          "type": "uint256"
        }
      ],
      "stateMutability": "view",
      "type": "function"
    },
    {
      "inputs": [],
      "name": "PRICE_ROUTER_REGISTRY_SLOT",
      "outputs": [
        {
          "internalType": "uint256",
          "name": "",
          "type": "uint256"
        }
      ],
      "stateMutability": "view",
      "type": "function"
    },
    {
      "inputs": [
        {
          "internalType": "uint256",
          "name": "index",
          "type": "uint256"
        },
        {
          "internalType": "address",
          "name": "position",
          "type": "address"
        }
      ],
      "name": "addPosition",
      "outputs": [],
      "stateMutability": "nonpayable",
      "type": "function"
    },
    {
      "inputs": [
        {
          "internalType": "address",
          "name": "owner",
          "type": "address"
        },
        {
          "internalType": "address",
          "name": "spender",
          "type": "address"
        }
      ],
      "name": "allowance",
      "outputs": [
        {
          "internalType": "uint256",
          "name": "",
          "type": "uint256"
        }
      ],
      "stateMutability": "view",
      "type": "function"
    },
    {
      "inputs": [],
      "name": "allowedRebalanceDeviation",
      "outputs": [
        {
          "internalType": "uint256",
          "name": "",
          "type": "uint256"
        }
      ],
      "stateMutability": "view",
      "type": "function"
    },
    {
      "inputs": [
        {
          "internalType": "address",
          "name": "spender",
          "type": "address"
        },
        {
          "internalType": "uint256",
          "name": "amount",
          "type": "uint256"
        }
      ],
      "name": "approve",
      "outputs": [
        {
          "internalType": "bool",
          "name": "",
          "type": "bool"
        }
      ],
      "stateMutability": "nonpayable",
      "type": "function"
    },
    {
      "inputs": [],
      "name": "asset",
      "outputs": [
        {
          "internalType": "contract ERC20",
          "name": "",
          "type": "address"
        }
      ],
      "stateMutability": "view",
      "type": "function"
    },
    {
      "inputs": [
        {
          "internalType": "address",
          "name": "account",
          "type": "address"
        }
      ],
      "name": "balanceOf",
      "outputs": [
        {
          "internalType": "uint256",
          "name": "",
          "type": "uint256"
        }
      ],
      "stateMutability": "view",
      "type": "function"
    },
    {
      "inputs": [
        {
          "internalType": "uint256",
          "name": "shares",
          "type": "uint256"
        }
      ],
      "name": "convertToAssets",
      "outputs": [
        {
          "internalType": "uint256",
          "name": "assets",
          "type": "uint256"
        }
      ],
      "stateMutability": "view",
      "type": "function"
    },
    {
      "inputs": [
        {
          "internalType": "uint256",
          "name": "assets",
          "type": "uint256"
        }
      ],
      "name": "convertToShares",
      "outputs": [
        {
          "internalType": "uint256",
          "name": "shares",
          "type": "uint256"
        }
      ],
      "stateMutability": "view",
      "type": "function"
    },
    {
      "inputs": [],
      "name": "decimals",
      "outputs": [
        {
          "internalType": "uint8",
          "name": "",
          "type": "uint8"
        }
      ],
      "stateMutability": "view",
      "type": "function"
    },
    {
      "inputs": [
        {
          "internalType": "address",
          "name": "spender",
          "type": "address"
        },
        {
          "internalType": "uint256",
          "name": "subtractedValue",
          "type": "uint256"
        }
      ],
      "name": "decreaseAllowance",
      "outputs": [
        {
          "internalType": "bool",
          "name": "",
          "type": "bool"
        }
      ],
      "stateMutability": "nonpayable",
      "type": "function"
    },
    {
      "inputs": [
        {
          "internalType": "uint256",
          "name": "assets",
          "type": "uint256"
        },
        {
          "internalType": "address",
          "name": "receiver",
          "type": "address"
        }
      ],
      "name": "deposit",
      "outputs": [
        {
          "internalType": "uint256",
          "name": "shares",
          "type": "uint256"
        }
      ],
      "stateMutability": "nonpayable",
      "type": "function"
    },
    {
      "inputs": [],
      "name": "depositLimit",
      "outputs": [
        {
          "internalType": "uint256",
          "name": "",
          "type": "uint256"
        }
      ],
      "stateMutability": "view",
      "type": "function"
    },
    {
      "inputs": [],
      "name": "feeData",
      "outputs": [
        {
          "internalType": "uint256",
          "name": "highWatermark",
          "type": "uint256"
        },
        {
          "internalType": "uint64",
          "name": "strategistPerformanceCut",
          "type": "uint64"
        },
        {
          "internalType": "uint64",
          "name": "strategistPlatformCut",
          "type": "uint64"
        },
        {
          "internalType": "uint64",
          "name": "platformFee",
          "type": "uint64"
        },
        {
          "internalType": "uint64",
          "name": "performanceFee",
          "type": "uint64"
        },
        {
          "internalType": "bytes32",
          "name": "feesDistributor",
          "type": "bytes32"
        },
        {
          "internalType": "address",
          "name": "strategistPayoutAddress",
          "type": "address"
        }
      ],
      "stateMutability": "view",
      "type": "function"
    },
    {
      "inputs": [
        {
          "internalType": "address",
          "name": "",
          "type": "address"
        }
      ],
      "name": "getPositionType",
      "outputs": [
        {
          "internalType": "enum Cellar.PositionType",
          "name": "",
          "type": "uint8"
        }
      ],
      "stateMutability": "view",
      "type": "function"
    },
    {
      "inputs": [],
      "name": "getPositions",
      "outputs": [
        {
          "internalType": "address[]",
          "name": "",
          "type": "address[]"
        }
      ],
      "stateMutability": "view",
      "type": "function"
    },
    {
      "inputs": [],
      "name": "holdingPosition",
      "outputs": [
        {
          "internalType": "address",
          "name": "",
          "type": "address"
        }
      ],
      "stateMutability": "view",
      "type": "function"
    },
    {
      "inputs": [
        {
          "internalType": "address",
          "name": "spender",
          "type": "address"
        },
        {
          "internalType": "uint256",
          "name": "addedValue",
          "type": "uint256"
        }
      ],
      "name": "increaseAllowance",
      "outputs": [
        {
          "internalType": "bool",
          "name": "",
          "type": "bool"
        }
      ],
      "stateMutability": "nonpayable",
      "type": "function"
    },
    {
      "inputs": [],
      "name": "initiateShutdown",
      "outputs": [],
      "stateMutability": "nonpayable",
      "type": "function"
    },
    {
      "inputs": [
        {
          "internalType": "address",
          "name": "",
          "type": "address"
        }
      ],
      "name": "isPositionUsed",
      "outputs": [
        {
          "internalType": "bool",
          "name": "",
          "type": "bool"
        }
      ],
      "stateMutability": "view",
      "type": "function"
    },
    {
      "inputs": [],
      "name": "isShutdown",
      "outputs": [
        {
          "internalType": "bool",
          "name": "",
          "type": "bool"
        }
      ],
      "stateMutability": "view",
      "type": "function"
    },
    {
      "inputs": [
        {
          "internalType": "address",
          "name": "",
          "type": "address"
        }
      ],
      "name": "isTrusted",
      "outputs": [
        {
          "internalType": "bool",
          "name": "",
          "type": "bool"
        }
      ],
      "stateMutability": "view",
      "type": "function"
    },
    {
      "inputs": [],
      "name": "lastAccrual",
      "outputs": [
        {
          "internalType": "uint64",
          "name": "",
          "type": "uint64"
        }
      ],
      "stateMutability": "view",
      "type": "function"
    },
    {
      "inputs": [],
      "name": "liftShutdown",
      "outputs": [],
      "stateMutability": "nonpayable",
      "type": "function"
    },
    {
      "inputs": [],
      "name": "liquidityLimit",
      "outputs": [
        {
          "internalType": "uint256",
          "name": "",
          "type": "uint256"
        }
      ],
      "stateMutability": "view",
      "type": "function"
    },
    {
      "inputs": [
        {
          "internalType": "address",
          "name": "receiver",
          "type": "address"
        }
      ],
      "name": "maxDeposit",
      "outputs": [
        {
          "internalType": "uint256",
          "name": "assets",
          "type": "uint256"
        }
      ],
      "stateMutability": "view",
      "type": "function"
    },
    {
      "inputs": [
        {
          "internalType": "address",
          "name": "receiver",
          "type": "address"
        }
      ],
      "name": "maxMint",
      "outputs": [
        {
          "internalType": "uint256",
          "name": "shares",
          "type": "uint256"
        }
      ],
      "stateMutability": "view",
      "type": "function"
    },
    {
      "inputs": [
        {
          "internalType": "address",
          "name": "owner",
          "type": "address"
        }
      ],
      "name": "maxRedeem",
      "outputs": [
        {
          "internalType": "uint256",
          "name": "",
          "type": "uint256"
        }
      ],
      "stateMutability": "view",
      "type": "function"
    },
    {
      "inputs": [
        {
          "internalType": "address",
          "name": "owner",
          "type": "address"
        }
      ],
      "name": "maxWithdraw",
      "outputs": [
        {
          "internalType": "uint256",
          "name": "",
          "type": "uint256"
        }
      ],
      "stateMutability": "view",
      "type": "function"
    },
    {
      "inputs": [
        {
          "internalType": "uint256",
          "name": "shares",
          "type": "uint256"
        },
        {
          "internalType": "address",
          "name": "receiver",
          "type": "address"
        }
      ],
      "name": "mint",
      "outputs": [
        {
          "internalType": "uint256",
          "name": "assets",
          "type": "uint256"
        }
      ],
      "stateMutability": "nonpayable",
      "type": "function"
    },
    {
      "inputs": [],
      "name": "name",
      "outputs": [
        {
          "internalType": "string",
          "name": "",
          "type": "string"
        }
      ],
      "stateMutability": "view",
      "type": "function"
    },
    {
      "inputs": [
        {
          "internalType": "address",
          "name": "owner",
          "type": "address"
        }
      ],
      "name": "nonces",
      "outputs": [
        {
          "internalType": "uint256",
          "name": "",
          "type": "uint256"
        }
      ],
      "stateMutability": "view",
      "type": "function"
    },
    {
      "inputs": [],
      "name": "owner",
      "outputs": [
        {
          "internalType": "address",
          "name": "",
          "type": "address"
        }
      ],
      "stateMutability": "view",
      "type": "function"
    },
    {
      "inputs": [
        {
          "internalType": "address",
          "name": "owner",
          "type": "address"
        },
        {
          "internalType": "address",
          "name": "spender",
          "type": "address"
        },
        {
          "internalType": "uint256",
          "name": "value",
          "type": "uint256"
        },
        {
          "internalType": "uint256",
          "name": "deadline",
          "type": "uint256"
        },
        {
          "internalType": "uint8",
          "name": "v",
          "type": "uint8"
        },
        {
          "internalType": "bytes32",
          "name": "r",
          "type": "bytes32"
        },
        {
          "internalType": "bytes32",
          "name": "s",
          "type": "bytes32"
        }
      ],
      "name": "permit",
      "outputs": [],
      "stateMutability": "nonpayable",
      "type": "function"
    },
    {
      "inputs": [
        {
          "internalType": "uint256",
          "name": "",
          "type": "uint256"
        }
      ],
      "name": "positions",
      "outputs": [
        {
          "internalType": "address",
          "name": "",
          "type": "address"
        }
      ],
      "stateMutability": "view",
      "type": "function"
    },
    {
      "inputs": [
        {
          "internalType": "uint256",
          "name": "assets",
          "type": "uint256"
        }
      ],
      "name": "previewDeposit",
      "outputs": [
        {
          "internalType": "uint256",
          "name": "shares",
          "type": "uint256"
        }
      ],
      "stateMutability": "view",
      "type": "function"
    },
    {
      "inputs": [
        {
          "internalType": "uint256",
          "name": "shares",
          "type": "uint256"
        }
      ],
      "name": "previewMint",
      "outputs": [
        {
          "internalType": "uint256",
          "name": "assets",
          "type": "uint256"
        }
      ],
      "stateMutability": "view",
      "type": "function"
    },
    {
      "inputs": [
        {
          "internalType": "uint256",
          "name": "shares",
          "type": "uint256"
        }
      ],
      "name": "previewRedeem",
      "outputs": [
        {
          "internalType": "uint256",
          "name": "assets",
          "type": "uint256"
        }
      ],
      "stateMutability": "view",
      "type": "function"
    },
    {
      "inputs": [
        {
          "internalType": "uint256",
          "name": "assets",
          "type": "uint256"
        }
      ],
      "name": "previewWithdraw",
      "outputs": [
        {
          "internalType": "uint256",
          "name": "shares",
          "type": "uint256"
        }
      ],
      "stateMutability": "view",
      "type": "function"
    },
    {
      "inputs": [
        {
          "internalType": "address",
          "name": "position",
          "type": "address"
        }
      ],
      "name": "pushPosition",
      "outputs": [],
      "stateMutability": "nonpayable",
      "type": "function"
    },
    {
      "inputs": [
        {
          "internalType": "address",
          "name": "fromPosition",
          "type": "address"
        },
        {
          "internalType": "address",
          "name": "toPosition",
          "type": "address"
        },
        {
          "internalType": "uint256",
          "name": "assetsFrom",
          "type": "uint256"
        },
        {
          "internalType": "enum SwapRouter.Exchange",
          "name": "exchange",
          "type": "uint8"
        },
        {
          "internalType": "bytes",
          "name": "params",
          "type": "bytes"
        }
      ],
      "name": "rebalance",
      "outputs": [
        {
          "internalType": "uint256",
          "name": "assetsTo",
          "type": "uint256"
        }
      ],
      "stateMutability": "nonpayable",
      "type": "function"
    },
    {
      "inputs": [
        {
          "internalType": "uint256",
          "name": "shares",
          "type": "uint256"
        },
        {
          "internalType": "address",
          "name": "receiver",
          "type": "address"
        },
        {
          "internalType": "address",
          "name": "owner",
          "type": "address"
        }
      ],
      "name": "redeem",
      "outputs": [
        {
          "internalType": "uint256",
          "name": "assets",
          "type": "uint256"
        }
      ],
      "stateMutability": "nonpayable",
      "type": "function"
    },
    {
      "inputs": [],
      "name": "registry",
      "outputs": [
        {
          "internalType": "contract Registry",
          "name": "",
          "type": "address"
        }
      ],
      "stateMutability": "view",
      "type": "function"
    },
    {
      "inputs": [
        {
          "internalType": "uint256",
          "name": "index",
          "type": "uint256"
        }
      ],
      "name": "removePosition",
      "outputs": [],
      "stateMutability": "nonpayable",
      "type": "function"
    },
    {
      "inputs": [],
      "name": "renounceOwnership",
      "outputs": [],
      "stateMutability": "nonpayable",
      "type": "function"
    },
    {
      "inputs": [],
      "name": "resetHighWatermark",
      "outputs": [],
      "stateMutability": "nonpayable",
      "type": "function"
    },
    {
      "inputs": [],
      "name": "sendFees",
      "outputs": [],
      "stateMutability": "nonpayable",
      "type": "function"
    },
    {
      "inputs": [
        {
          "internalType": "uint256",
          "name": "newLimit",
          "type": "uint256"
        }
      ],
      "name": "setDepositLimit",
      "outputs": [],
      "stateMutability": "nonpayable",
      "type": "function"
    },
    {
      "inputs": [
        {
          "internalType": "bytes32",
          "name": "newFeesDistributor",
          "type": "bytes32"
        }
      ],
      "name": "setFeesDistributor",
      "outputs": [],
      "stateMutability": "nonpayable",
      "type": "function"
    },
    {
      "inputs": [
        {
          "internalType": "address",
          "name": "newHoldingPosition",
          "type": "address"
        }
      ],
      "name": "setHoldingPosition",
      "outputs": [],
      "stateMutability": "nonpayable",
      "type": "function"
    },
    {
      "inputs": [
        {
          "internalType": "uint256",
          "name": "newLimit",
          "type": "uint256"
        }
      ],
      "name": "setLiquidityLimit",
      "outputs": [],
      "stateMutability": "nonpayable",
      "type": "function"
    },
    {
      "inputs": [
        {
          "internalType": "uint64",
          "name": "newPerformanceFee",
          "type": "uint64"
        }
      ],
      "name": "setPerformanceFee",
      "outputs": [],
      "stateMutability": "nonpayable",
      "type": "function"
    },
    {
      "inputs": [
        {
          "internalType": "uint64",
          "name": "newPlatformFee",
          "type": "uint64"
        }
      ],
      "name": "setPlatformFee",
      "outputs": [],
      "stateMutability": "nonpayable",
      "type": "function"
    },
    {
      "inputs": [
        {
          "internalType": "uint256",
          "name": "newDeviation",
          "type": "uint256"
        }
      ],
      "name": "setRebalanceDeviation",
      "outputs": [],
      "stateMutability": "nonpayable",
      "type": "function"
    },
    {
      "inputs": [
        {
          "internalType": "uint256",
          "name": "newLock",
          "type": "uint256"
        }
      ],
      "name": "setShareLockPeriod",
      "outputs": [],
      "stateMutability": "nonpayable",
      "type": "function"
    },
    {
      "inputs": [
        {
          "internalType": "address",
          "name": "payout",
          "type": "address"
        }
      ],
      "name": "setStrategistPayoutAddress",
      "outputs": [],
      "stateMutability": "nonpayable",
      "type": "function"
    },
    {
      "inputs": [
        {
          "internalType": "uint64",
          "name": "cut",
          "type": "uint64"
        }
      ],
      "name": "setStrategistPerformanceCut",
      "outputs": [],
      "stateMutability": "nonpayable",
      "type": "function"
    },
    {
      "inputs": [
        {
          "internalType": "uint64",
          "name": "cut",
          "type": "uint64"
        }
      ],
      "name": "setStrategistPlatformCut",
      "outputs": [],
      "stateMutability": "nonpayable",
      "type": "function"
    },
    {
      "inputs": [
        {
          "internalType": "enum Cellar.WithdrawType",
          "name": "newWithdrawType",
          "type": "uint8"
        }
      ],
      "name": "setWithdrawType",
      "outputs": [],
      "stateMutability": "nonpayable",
      "type": "function"
    },
    {
      "inputs": [],
      "name": "shareLockPeriod",
      "outputs": [
        {
          "internalType": "uint256",
          "name": "",
          "type": "uint256"
        }
      ],
      "stateMutability": "view",
      "type": "function"
    },
    {
      "inputs": [
        {
          "internalType": "uint256",
          "name": "index1",
          "type": "uint256"
        },
        {
          "internalType": "uint256",
          "name": "index2",
          "type": "uint256"
        }
      ],
      "name": "swapPositions",
      "outputs": [],
      "stateMutability": "nonpayable",
      "type": "function"
    },
    {
      "inputs": [],
      "name": "symbol",
      "outputs": [
        {
          "internalType": "string",
          "name": "",
          "type": "string"
        }
      ],
      "stateMutability": "view",
      "type": "function"
    },
    {
      "inputs": [],
      "name": "totalAssets",
      "outputs": [
        {
          "internalType": "uint256",
          "name": "assets",
          "type": "uint256"
        }
      ],
      "stateMutability": "view",
      "type": "function"
    },
    {
      "inputs": [],
      "name": "totalAssetsWithdrawable",
      "outputs": [
        {
          "internalType": "uint256",
          "name": "assets",
          "type": "uint256"
        }
      ],
      "stateMutability": "view",
      "type": "function"
    },
    {
      "inputs": [],
      "name": "totalSupply",
      "outputs": [
        {
          "internalType": "uint256",
          "name": "",
          "type": "uint256"
        }
      ],
      "stateMutability": "view",
      "type": "function"
    },
    {
      "inputs": [
        {
          "internalType": "address",
          "name": "to",
          "type": "address"
        },
        {
          "internalType": "uint256",
          "name": "amount",
          "type": "uint256"
        }
      ],
      "name": "transfer",
      "outputs": [
        {
          "internalType": "bool",
          "name": "",
          "type": "bool"
        }
      ],
      "stateMutability": "nonpayable",
      "type": "function"
    },
    {
      "inputs": [
        {
          "internalType": "address",
          "name": "from",
          "type": "address"
        },
        {
          "internalType": "address",
          "name": "to",
          "type": "address"
        },
        {
          "internalType": "uint256",
          "name": "amount",
          "type": "uint256"
        }
      ],
      "name": "transferFrom",
      "outputs": [
        {
          "internalType": "bool",
          "name": "",
          "type": "bool"
        }
      ],
      "stateMutability": "nonpayable",
      "type": "function"
    },
    {
      "inputs": [
        {
          "internalType": "address",
          "name": "newOwner",
          "type": "address"
        }
      ],
      "name": "transferOwnership",
      "outputs": [],
      "stateMutability": "nonpayable",
      "type": "function"
    },
    {
      "inputs": [
        {
          "internalType": "address",
          "name": "position",
          "type": "address"
        },
        {
          "internalType": "enum Cellar.PositionType",
          "name": "positionType",
          "type": "uint8"
        }
      ],
      "name": "trustPosition",
      "outputs": [],
      "stateMutability": "nonpayable",
      "type": "function"
    },
    {
      "inputs": [
        {
          "internalType": "address",
          "name": "",
          "type": "address"
        }
      ],
      "name": "userShareLockStartBlock",
      "outputs": [
        {
          "internalType": "uint256",
          "name": "",
          "type": "uint256"
        }
      ],
      "stateMutability": "view",
      "type": "function"
    },
    {
      "inputs": [
        {
          "internalType": "uint256",
          "name": "assets",
          "type": "uint256"
        },
        {
          "internalType": "address",
          "name": "receiver",
          "type": "address"
        },
        {
          "internalType": "address",
          "name": "owner",
          "type": "address"
        }
      ],
      "name": "withdraw",
      "outputs": [
        {
          "internalType": "uint256",
          "name": "shares",
          "type": "uint256"
        }
      ],
      "stateMutability": "nonpayable",
      "type": "function"
    },
    {
      "inputs": [],
      "name": "withdrawType",
      "outputs": [
        {
          "internalType": "enum Cellar.WithdrawType",
          "name": "",
          "type": "uint8"
        }
      ],
      "stateMutability": "view",
      "type": "function"
    }
  ],
  "bytecode": {
    "object": "0x6102406040526000610160819052670a688906bd8b00006101808190526101a052662386f26fc100006101c05267016345785d8a00006101e05273b813554b423266bbd4c16c32fa383394868c1f55610200819052610220829052600f919091557f016345785d8a0000002386f26fc100000a688906bd8b00000a688906bd8b0000601055601155601280546001600160a01b03191690556000196013819055601455611c20601655660aa87bee538000601855348015620000c057600080fd5b5060405162006dcf38038062006dcf833981016040819052620000e39162000ab8565b8783838180604051806040016040528060018152602001603160f81b8152508484816003908162000115919062000c59565b50600462000124828262000c59565b5050825160208085019190912083518483012060e08290526101008190524660a0818152604080517f8b73c3c69bb8fe3d512ecc4cf759cc79239f7b179b0ffacaa9a75d522b39400f81880181905281830187905260608201869052608082019490945230818401528151808203909301835260c0019052805194019390932091935091906080523060c052610120525050600780546001600160a01b0319166001600160a01b03979097169690961790955550620001f39350620001ed92506200061a915050565b6200061e565b60016009556001600160a01b0389166101405286516200021b90600a9060208a019062000814565b506000805b88518110156200046157600089828151811062000241576200024162000d25565b6020908102919091018101516001600160a01b0381166000908152600b90925260409091205490915060ff16156200029c57604051630af67d9160e31b81526001600160a01b03821660048201526024015b60405180910390fd5b6001600160a01b0381166000908152600d602090815260408083208054600160ff199182168117909255600b9093529220805490911690911790558851899083908110620002ee57620002ee62000d25565b6020908102919091018101516001600160a01b0383166000908152600c9092526040909120805460ff1916600183600281111562000330576200033062000d3b565b0217905550620003408162000670565b61014051604051635c9fcd8560e11b8152600260048201529194506001600160a01b03169063b93f9b0a90602401602060405180830381865afa1580156200038c573d6000803e3d6000fd5b505050506040513d601f19601f82011682018060405250810190620003b2919062000d51565b604051634f129c5360e01b81526001600160a01b0385811660048301529190911690634f129c5390602401602060405180830381865afa158015620003fb573d6000803e3d6000fd5b505050506040513d601f19601f8201168201806040525081019062000421919062000d71565b6200044b57604051637eb56edb60e11b81526001600160a01b038416600482015260240162000293565b5080620004588162000d95565b91505062000220565b506001600160a01b0386166000908152600b602052604090205460ff16620004a857604051631ec7bcd360e01b81526001600160a01b038716600482015260240162000293565b6000620004b58762000670565b9050896001600160a01b0316816001600160a01b031614620004fe5760405163298473c760e11b81526001600160a01b0380831660048301528b16602482015260440162000293565b600e8054610100600160a81b031981166101006001600160a01b038b160290811783558892916001600160a81b03191660ff1990911617600183818111156200054b576200054b62000d3b565b0217905550600e8054600160a81b600160e81b031916600160a81b426001600160401b031602179055601280546001600160a01b0319166001600160a01b0385811691909117909155604051635c9fcd8560e11b8152600060048201819052918d169063b93f9b0a90602401602060405180830381865afa158015620005d5573d6000803e3d6000fd5b505050506040513d601f19601f82011682018060405250810190620005fb919062000d51565b9050620006088162000743565b50505050505050505050505062000dbd565b3390565b600880546001600160a01b038381166001600160a01b0319831681179093556040519116919082907f8be0079c531659141344cd1fd0a4f28419497f9722a3daafe3b4186f6b6457e090600090a35050565b6001600160a01b0381166000908152600c602052604081205460ff166001816002811115620006a357620006a362000d3b565b1480620006c457506002816002811115620006c257620006c262000d3b565b145b156200073657826001600160a01b03166338d52e0f6040518163ffffffff1660e01b8152600401602060405180830381865afa15801562000709573d6000803e3d6000fd5b505050506040513d601f19601f820116820180604052508101906200072f919062000d51565b9392505050565b5090919050565b50919050565b6008546001600160a01b031633146200079f5760405162461bcd60e51b815260206004820181905260248201527f4f776e61626c653a2063616c6c6572206973206e6f7420746865206f776e6572604482015260640162000293565b6001600160a01b038116620008065760405162461bcd60e51b815260206004820152602660248201527f4f776e61626c653a206e6577206f776e657220697320746865207a65726f206160448201526564647265737360d01b606482015260840162000293565b62000811816200061e565b50565b8280548282559060005260206000209081019282156200086c579160200282015b828111156200086c57825182546001600160a01b0319166001600160a01b0390911617825560209092019160019091019062000835565b506200087a9291506200087e565b5090565b5b808211156200087a57600081556001016200087f565b6001600160a01b03811681146200081157600080fd5b8051620008b88162000895565b919050565b634e487b7160e01b600052604160045260246000fd5b604051601f8201601f191681016001600160401b0381118282101715620008fe57620008fe620008bd565b604052919050565b60006001600160401b03821115620009225762000922620008bd565b5060051b60200190565b600082601f8301126200093e57600080fd5b8151602062000957620009518362000906565b620008d3565b82815260059290921b840181019181810190868411156200097757600080fd5b8286015b848110156200099f578051620009918162000895565b83529183019183016200097b565b509695505050505050565b600082601f830112620009bc57600080fd5b81516020620009cf620009518362000906565b82815260059290921b84018101918181019086841115620009ef57600080fd5b8286015b848110156200099f5780516003811062000a0d5760008081fd5b8352918301918301620009f3565b805160028110620008b857600080fd5b600082601f83011262000a3d57600080fd5b81516001600160401b0381111562000a595762000a59620008bd565b602062000a6f601f8301601f19168201620008d3565b828152858284870101111562000a8457600080fd5b60005b8381101562000aa457858101830151828201840152820162000a87565b506000928101909101919091529392505050565b60008060008060008060008060006101208a8c03121562000ad857600080fd5b62000ae38a620008ab565b985062000af360208b01620008ab565b60408b01519098506001600160401b038082111562000b1157600080fd5b62000b1f8d838e016200092c565b985060608c015191508082111562000b3657600080fd5b62000b448d838e01620009aa565b975062000b5460808d01620008ab565b965062000b6460a08d0162000a1b565b955060c08c015191508082111562000b7b57600080fd5b62000b898d838e0162000a2b565b945060e08c015191508082111562000ba057600080fd5b5062000baf8c828d0162000a2b565b92505062000bc16101008b01620008ab565b90509295985092959850929598565b600181811c9082168062000be557607f821691505b6020821081036200073d57634e487b7160e01b600052602260045260246000fd5b601f82111562000c5457600081815260208120601f850160051c8101602086101562000c2f5750805b601f850160051c820191505b8181101562000c505782815560010162000c3b565b5050505b505050565b81516001600160401b0381111562000c755762000c75620008bd565b62000c8d8162000c86845462000bd0565b8462000c06565b602080601f83116001811462000cc5576000841562000cac5750858301515b600019600386901b1c1916600185901b17855562000c50565b600085815260208120601f198616915b8281101562000cf65788860151825594840194600190910190840162000cd5565b508582101562000d155787850151600019600388901b60f8161c191681555b5050505050600190811b01905550565b634e487b7160e01b600052603260045260246000fd5b634e487b7160e01b600052602160045260246000fd5b60006020828403121562000d6457600080fd5b81516200072f8162000895565b60006020828403121562000d8457600080fd5b815180151581146200072f57600080fd5b60006001820162000db657634e487b7160e01b600052601160045260246000fd5b5060010190565b60805160a05160c05160e051610100516101205161014051615f8662000e49600039600081816106f101528181610c4101528181612cd301528181612f7c01528181613c43015281816141a80152818161479b0152614b6801526000613a1401526000613a6301526000613a3e01526000613997015260006139c1015260006139eb0152615f866000f3fe608060405234801561001057600080fd5b506004361061047f5760003560e01c806395d89b4111610257578063c244245a11610146578063e39448e0116100c3578063f2fde38b11610087578063f2fde38b14610a8a578063f7b24e0814610a9d578063fc44459114610aa5578063fc4d43be14610ac5578063fdd230b914610ad857600080fd5b8063e39448e0146109ae578063e753e600146109c8578063ecf7085814610a5f578063eef33eca14610a68578063ef8b30f714610a7757600080fd5b8063d505accf1161010a578063d505accf1461095a578063d905777e1461096d578063dd62ed3e14610980578063df05a52a14610993578063dff90b5b146109a657600080fd5b8063c244245a14610910578063c63d75b614610919578063c6e6f5921461092c578063c85e5e131461093f578063ce96cb771461094757600080fd5b8063a9059cbb116101d4578063ba08765211610198578063ba087652146108bb578063bdc8144b146108ce578063bdca9165146108e1578063bf86d690146108f0578063c0467422146108fd57600080fd5b8063a9059cbb1461085c578063b0a75d361461086f578063b3d7f6b914610882578063b460af9414610895578063b5292a99146108a857600080fd5b80639c5f00c21161021b5780639c5f00c2146107f05780639e35c65b146108085780639fdb11b614610838578063a457c2d714610841578063a8144e481461085457600080fd5b806395d89b411461078c57806396d648791461079457806399fbab88146107b75780639b6fd18e146107ca5780639c552ca8146107dd57600080fd5b80634cdad5061161037357806370af7df6116102f05780637ecebe00116102b45780637ecebe001461072d57806380275860146107405780638b0cebf7146107555780638da5cb5b1461076857806394bf804d1461077957600080fd5b806370af7df6146106c8578063715018a6146106db57806372163715146106e35780637b103999146106ec5780637b3baab41461071357600080fd5b80635e2c576e116103375780635e2c576e146106785780636e553f65146106805780636e85f183146106935780636ff1c02a146106a657806370a08231146106b557600080fd5b80634cdad506146106245780634eca8a8314610637578063530a37141461064a578063583845731461065d5780635a400d251461067057600080fd5b80632f3b5a131161040157806339509351116103c557806339509351146105a15780633998a681146105b45780633cf99a46146105db578063402d267d146105ee578063472090fe1461060157600080fd5b80632f3b5a1314610533578063313ce567146105465780633644e5151461055b578063389a72941461056357806338d52e0f1461057657600080fd5b8063095ea7b311610448578063095ea7b3146104d85780630a28a477146104fb5780630a680e181461050e57806318160ddd1461051857806323b872dd1461052057600080fd5b806251a3b71461048457806301e1d1141461049f5780630402ab63146104a757806306fdde03146104b057806307a2d13a146104c5575b600080fd5b61048c600881565b6040519081526020015b60405180910390f35b61048c610aeb565b61048c611c2081565b6104b8610d37565b6040516104969190615711565b61048c6104d3366004615744565b610dc9565b6104eb6104e6366004615772565b610de2565b6040519015158152602001610496565b61048c610509366004615744565b610dfa565b610516610e2f565b005b60025461048c565b6104eb61052e36600461579e565b610ecc565b6105166105413660046157ec565b610ef2565b60125b60405160ff9091168152602001610496565b61048c610f83565b61048c610571366004615809565b610f92565b600754610589906001600160a01b031681565b6040516001600160a01b039091168152602001610496565b6104eb6105af366004615772565b611202565b6105c36702c68af0bb14000081565b6040516001600160401b039091168152602001610496565b6105166105e93660046158bb565b611224565b61048c6105fc3660046158e4565b6112f6565b6104eb61060f3660046158e4565b600b6020526000908152604090205460ff1681565b61048c610632366004615744565b611388565b610516610645366004615901565b6113b0565b610516610658366004615744565b61151a565b61051661066b366004615931565b6115c4565b61048c600281565b61051661170b565b61048c61068e366004615901565b611793565b6105166106a1366004615744565b611888565b6105c367016345785d8a000081565b61048c6106c33660046158e4565b61191b565b6105166106d63660046158bb565b611936565b610516611a0d565b61048c60135481565b6105897f000000000000000000000000000000000000000000000000000000000000000081565b600e546105c390600160a81b90046001600160401b031681565b61048c61073b3660046158e4565b611a43565b610748611a61565b6040516104969190615953565b6105166107633660046158e4565b611ac2565b6008546001600160a01b0316610589565b61048c610787366004615901565b611beb565b6104b8611cd4565b6104eb6107a23660046158e4565b600d6020526000908152604090205460ff1681565b6105896107c5366004615744565b611ce3565b6105166107d83660046158bb565b611d0d565b6105166107eb366004615744565b611dd3565b600e546105899061010090046001600160a01b031681565b61082b6108163660046158e4565b600c6020526000908152604090205460ff1681565b60405161049691906159b6565b61048c60165481565b6104eb61084f366004615772565b611e69565b61048c611eef565b6104eb61086a366004615772565b61202b565b61051661087d3660046158e4565b612039565b61048c610890366004615744565b6120cc565b61048c6108a33660046159d0565b6120f9565b6105166108b63660046158bb565b612219565b61048c6108c93660046159d0565b6122f5565b6105166108dc366004615744565b61241e565b6105c36706f05b59d3b2000081565b6015546104eb9060ff1681565b61051661090b366004615744565b612489565b61048c60185481565b61048c6109273660046158e4565b6125b8565b61048c61093a366004615744565b612641565b610516612654565b61048c6109553660046158e4565b6126c6565b610516610968366004615a21565b6128e1565b61048c61097b3660046158e4565b612a45565b61048c61098e366004615a92565b612a50565b6105166109a1366004615744565b612a7b565b610516612ae6565b600e546109bb9060ff1681565b6040516104969190615ad0565b600f54601054601154601254610a1093926001600160401b0380821693600160401b8304821693600160801b8404831693600160c01b9004909216916001600160a01b031687565b604080519788526001600160401b039687166020890152948616948701949094529184166060860152909216608084015260a08301919091526001600160a01b031660c082015260e001610496565b61048c60145481565b6105c3670de0b6b3a764000081565b61048c610a85366004615744565b612e1b565b610516610a983660046158e4565b612e43565b610549602081565b61048c610ab33660046158e4565b60176020526000908152604090205481565b610516610ad3366004615add565b612ede565b610516610ae63660046158e4565b6130bf565b600a5460009081816001600160401b03811115610b0a57610b0a615b0f565b604051908082528060200260200182016040528015610b33578160200160208202803683370190505b5090506000826001600160401b03811115610b5057610b50615b0f565b604051908082528060200260200182016040528015610b79578160200160208202803683370190505b50905060005b83811015610c27576000600a8281548110610b9c57610b9c615b25565b6000918252602090912001546001600160a01b03169050610bbc81613260565b848381518110610bce57610bce615b25565b60200260200101906001600160a01b031690816001600160a01b031681525050610bf781613321565b838381518110610c0957610c09615b25565b60209081029190910101525080610c1f81615b51565b915050610b7f565b50604051635c9fcd8560e11b8152600260048201526000907f00000000000000000000000000000000000000000000000000000000000000006001600160a01b03169063b93f9b0a90602401602060405180830381865afa158015610c90573d6000803e3d6000fd5b505050506040513d601f19601f82011682018060405250810190610cb49190615b6a565b60075460405163b333a17560e01b81529192506001600160a01b038084169263b333a17592610ced928892889290911690600401615b87565b602060405180830381865afa158015610d0a573d6000803e3d6000fd5b505050506040513d601f19601f82011682018060405250810190610d2e9190615c19565b94505050505090565b606060038054610d4690615c32565b80601f0160208091040260200160405190810160405280929190818152602001828054610d7290615c32565b8015610dbf5780601f10610d9457610100808354040283529160200191610dbf565b820191906000526020600020905b815481529060010190602001808311610da257829003601f168201915b5050505050905090565b6000610ddc82610dd7610aeb565b61346e565b92915050565b600033610df0818585613516565b5060019392505050565b600080610e05610aeb565b90506000610e128261363a565b9050610e2784610e228385615c66565b6136a0565b949350505050565b60155460ff1615610e53576040516337a5332d60e11b815260040160405180910390fd5b6008546001600160a01b03163314610e865760405162461bcd60e51b8152600401610e7d90615c79565b60405180910390fd5b6015805460ff191660019081179091556040519081527fb8527b93c36dabdfe078af41be789ba946a4adcfeafcf9d8de21d51629859e3c906020015b60405180910390a1565b600033610eda858285613737565b610ee58585856137b1565b60019150505b9392505050565b6008546001600160a01b03163314610f1c5760405162461bcd60e51b8152600401610e7d90615c79565b600e546040517f19365927bf52f7e956d376b3546402dda3827c062c7a6942431a255d212947e891610f559160ff909116908490615cae565b60405180910390a1600e805482919060ff191660018381811115610f7b57610f7b6159a0565b021790555050565b6000610f8d61398a565b905090565b6008546000906001600160a01b03163314610fbf5760405162461bcd60e51b8152600401610e7d90615c79565b60155460ff1615610fe3576040516337a5332d60e11b815260040160405180910390fd5b6002600954036110055760405162461bcd60e51b8152600401610e7d90615cd4565b60026009556001600160a01b0386166000908152600b602052604090205460ff1661104e57604051631ec7bcd360e01b81526001600160a01b0387166004820152602401610e7d565b6000611058610aeb565b9050600061106560025490565b9050611072898830613ab1565b600061107d8a613260565b9050600061108a8a613260565b9050806001600160a01b0316826001600160a01b0316036110ab57886110ba565b6110ba82828b8b8b8b30613ba6565b94506110c68a86613dd5565b60006110f1601854670de0b6b3a76400006110e19190615c66565b8690670de0b6b3a7640000613f14565b9050600061111e601854670de0b6b3a764000061110e9190615d0b565b8790670de0b6b3a7640000613f42565b9050611128610aeb565b95508086118061113757508186105b156111665760405163628cc47560e11b8152600481018790526024810183905260448101829052606401610e7d565b600254851461119657600254604051632b40145960e21b8152600481019190915260248101869052604401610e7d565b8b6001600160a01b03168d6001600160a01b03167ffea7a9a6e25cd0bbbfa80ce0c7646e61ee5e0551b3fdaaff0642e6f6adcc72e28d8a6040516111e4929190918252602082015260400190565b60405180910390a35050600160095550929998505050505050505050565b600033610df08185856112158383612a50565b61121f9190615d0b565b613516565b6008546001600160a01b0316331461124e5760405162461bcd60e51b8152600401610e7d90615c79565b6706f05b59d3b200006001600160401b038216111561128057604051632e15286d60e11b815260040160405180910390fd5b60105460408051600160c01b9092046001600160401b039081168352831660208301527f27dd3ae8ff7f5e3d77ae68ed36dc780d2ab40a4ffdda18d805cb41eea39c2894910160405180910390a1601080546001600160401b03909216600160c01b026001600160c01b03909216919091179055565b60155460009060ff161561130c57506000919050565b60145460135460001982148015611324575060001981145b1561133457506000199392505050565b600061133e610aeb565b9050600061135461134e8761191b565b8361346e565b905060006113628583613f61565b905060006113708585613f61565b905061137c8282613f7b565b98975050505050505050565b600080611393610aeb565b905060006113a08261363a565b9050610e2784610dd78385615c66565b6008546001600160a01b031633146113da5760405162461bcd60e51b8152600401610e7d90615c79565b60155460ff16156113fe576040516337a5332d60e11b815260040160405180910390fd5b600a546020116114245760405163f025236d60e01b815260206004820152602401610e7d565b6001600160a01b0381166000908152600d602052604090205460ff166114685760405163699f66b160e11b81526001600160a01b0382166004820152602401610e7d565b6001600160a01b0381166000908152600b602052604090205460ff16156114ad57604051630af67d9160e31b81526001600160a01b0382166004820152602401610e7d565b6114b9600a8383613f8a565b6001600160a01b0381166000818152600b602052604090819020805460ff19166001179055517fcff5c8a08884d2fad939a9e0f0bf729a4f9af6111a573b4d1f11396c8711646d9061150e9085815260200190565b60405180910390a25050565b6008546001600160a01b031633146115445760405162461bcd60e51b8152600401610e7d90615c79565b67016345785d8a000081111561157e576040516302d2a90f60e51b81526004810182905267016345785d8a00006024820152604401610e7d565b601880549082905560408051828152602081018490527fdf4be33b2e9e3dd4d9e0e85645aea428494a0644a72c51d6a15aedae6b66a3ff91015b60405180910390a15050565b6008546001600160a01b031633146115ee5760405162461bcd60e51b8152600401610e7d90615c79565b6000600a828154811061160357611603615b25565b6000918252602082200154600a80546001600160a01b039092169350908590811061163057611630615b25565b9060005260206000200160009054906101000a90046001600160a01b031690508181600a868154811061166557611665615b25565b906000526020600020016000600a878154811061168457611684615b25565b60009182526020918290200180546001600160a01b039586166001600160a01b031990911617905582549484166101009290920a918202918402199094161790556040805187815292830186905283821692918516917f3cae4f5796f9d19fa1dcfaacae5a9811c008f6f517a3ec689d903d6f699e4955910160405180910390a350505050565b6008546001600160a01b031633146117355760405162461bcd60e51b8152600401610e7d90615c79565b60155460ff166117585760405163ec7165bf60e01b815260040160405180910390fd5b6015805460ff19169055604051600081527fb8527b93c36dabdfe078af41be789ba946a4adcfeafcf9d8de21d51629859e3c90602001610ec2565b60006002600954036117b75760405162461bcd60e51b8152600401610e7d90615cd4565b600260095560006117c6610aeb565b90506117d181614103565b6117db8482614140565b9150816000036117fe5760405163426f153760e11b815260040160405180910390fd5b61180984838561415f565b600754611821906001600160a01b0316333087614292565b61182b83836142fd565b60408051858152602081018490526001600160a01b0385169133917fdcbc1c05240f31ff3ad067ef1ee35ce4997762752e3a095284754544f4c709d7910160405180910390a361187c8483856143e8565b50600160095592915050565b6008546001600160a01b031633146118b25760405162461bcd60e51b8152600401610e7d90615c79565b6001600160a01b038111156118da5760405163019b5e3160e21b815260040160405180910390fd5b60115460408051918252602082018390527f513ac19cbbaaad4e450c732ed37635178b7d83bf8e84a940ffe7e052c9c7caa2910160405180910390a1601155565b6001600160a01b031660009081526020819052604090205490565b6008546001600160a01b031633146119605760405162461bcd60e51b8152600401610e7d90615c79565b6702c68af0bb1400006001600160401b038216111561199257604051632e15286d60e11b815260040160405180910390fd5b60105460408051600160801b9092046001600160401b039081168352831660208301527f44ada261ff5c9aacbf8d0687294799c8e3e0810ecc1eafd97419dfc31db5d523910160405180910390a1601080546001600160401b03909216600160801b0267ffffffffffffffff60801b19909216919091179055565b6008546001600160a01b03163314611a375760405162461bcd60e51b8152600401610e7d90615c79565b611a416000614421565b565b6001600160a01b038116600090815260056020526040812054610ddc565b6060600a805480602002602001604051908101604052809291908181526020018280548015610dbf57602002820191906000526020600020905b81546001600160a01b03168152600190910190602001808311611a9b575050505050905090565b6008546001600160a01b03163314611aec5760405162461bcd60e51b8152600401610e7d90615c79565b6001600160a01b0381166000908152600b602052604090205460ff16611b3057604051631ec7bcd360e01b81526001600160a01b0382166004820152602401610e7d565b6000611b3b82613260565b6007549091506001600160a01b03808316911614611b835760075460405163298473c760e11b81526001600160a01b0380841660048301529091166024820152604401610e7d565b600e546040516001600160a01b0380851692610100900416907f7f835fbf43c4d05a9c4ea5cafa09fbb3b0307d12956ceedce43fd7a339e5046e90600090a350600e80546001600160a01b0390921661010002610100600160a81b0319909216919091179055565b6000600260095403611c0f5760405162461bcd60e51b8152600401610e7d90615cd4565b60026009556000611c1e610aeb565b9050611c2981614103565b611c338482614473565b915081600003611c5657604051639768300560e01b815260040160405180910390fd5b611c6182858561415f565b600754611c79906001600160a01b0316333085614292565b611c8383856142fd565b60408051838152602081018690526001600160a01b0385169133917fdcbc1c05240f31ff3ad067ef1ee35ce4997762752e3a095284754544f4c709d7910160405180910390a361187c8285856143e8565b606060048054610d4690615c32565b600a8181548110611cf357600080fd5b6000918252602090912001546001600160a01b0316905081565b6008546001600160a01b03163314611d375760405162461bcd60e51b8152600401610e7d90615c79565b670de0b6b3a76400006001600160401b0382161115611d6957604051633d0203e560e01b815260040160405180910390fd5b601054604080516001600160401b03928316815291831660208301527fc79399093f73f1ff8c2f8279aa9e8803b694c60016c344ecfc2a89fd77c004db910160405180910390a16010805467ffffffffffffffff19166001600160401b0392909216919091179055565b6008546001600160a01b03163314611dfd5760405162461bcd60e51b8152600401610e7d90615c79565b6008811080611e0d5750611c2081115b15611e2b57604051633a60233f60e21b815260040160405180910390fd5b601680549082905560408051828152602081018490527f227ff5c6b5ffb395236b09fd1b472bb128b36eaa17556633feefe28e94411f2491016115b8565b60003381611e778286612a50565b905083811015611ed75760405162461bcd60e51b815260206004820152602560248201527f45524332303a2064656372656173656420616c6c6f77616e63652062656c6f77604482015264207a65726f60d81b6064820152608401610e7d565b611ee48286868403613516565b506001949350505050565b600a5460009081816001600160401b03811115611f0e57611f0e615b0f565b604051908082528060200260200182016040528015611f37578160200160208202803683370190505b5090506000826001600160401b03811115611f5457611f54615b0f565b604051908082528060200260200182016040528015611f7d578160200160208202803683370190505b50905060005b83811015610c27576000600a8281548110611fa057611fa0615b25565b6000918252602090912001546001600160a01b03169050611fc081613260565b848381518110611fd257611fd2615b25565b60200260200101906001600160a01b031690816001600160a01b031681525050611ffb81614492565b83838151811061200d5761200d615b25565b6020908102919091010152508061202381615b51565b915050611f83565b600033610df08185856137b1565b6008546001600160a01b031633146120635760405162461bcd60e51b8152600401610e7d90615c79565b601254604080516001600160a01b03928316815291831660208301527f51dbb5a65bb22737861a63ec12ba6ce78a98631e9404b0567a2eaf7a06fc544d910160405180910390a1601280546001600160a01b0319166001600160a01b0392909216919091179055565b6000806120d7610aeb565b905060006120e48261363a565b9050610e27846120f48385615c66565b614473565b600060026009540361211d5760405162461bcd60e51b8152600401610e7d90615cd4565b6002600955600080808080612130614510565b9450945094509450945061214385614103565b61214d89866136a0565b955061215b89878a8a614893565b61216587876148c2565b600061217060025490565b905061217c88886148dd565b604080518b8152602081018990526001600160a01b03808b1692908c169133917ffbde797d201c681b91056529119e0b02407c7bb96a4a2c75c01fc9667232c8db910160405180910390a46000600e5460ff1660018111156121e0576121e06159a0565b146121f8576121f387828b888787614a37565b612206565b6122068a8a87878787614b4f565b5050600160095550929695505050505050565b6008546001600160a01b031633146122435760405162461bcd60e51b8152600401610e7d90615c79565b670de0b6b3a76400006001600160401b038216111561227557604051633d0203e560e01b815260040160405180910390fd5b60105460408051600160401b9092046001600160401b039081168352831660208301527fb5cc994a260a85a42d6588668221571ae0a14f0a28f9e4817a5195262102c868910160405180910390a1601080546001600160401b03909216600160401b026fffffffffffffffff000000000000000019909216919091179055565b60006002600954036123195760405162461bcd60e51b8152600401610e7d90615cd4565b600260095560008080808061232c614510565b9450945094509450945061233f85614103565b612349878a6148c2565b612353898661346e565b95508560000361237657604051639768300560e01b815260040160405180910390fd5b612382868a8a8a614893565b600061238d60025490565b9050612399888b6148dd565b60408051888152602081018c90526001600160a01b03808b1692908c169133917ffbde797d201c681b91056529119e0b02407c7bb96a4a2c75c01fc9667232c8db910160405180910390a46000600e5460ff1660018111156123fd576123fd6159a0565b14612410576121f38a828b888787614a37565b6121f3878a87878787614b4f565b6008546001600160a01b031633146124485760405162461bcd60e51b8152600401610e7d90615c79565b60145460408051918252602082018390527fcfb5a454b8aa7dc04ecb5bc1410b2a57969ca1d67f66d565196f60c6f9975404910160405180910390a1601455565b6008546001600160a01b031633146124b35760405162461bcd60e51b8152600401610e7d90615c79565b6000600a82815481106124c8576124c8615b25565b60009182526020822001546001600160a01b031691506124e782613321565b9050801561251a57604051638454689f60e01b81526001600160a01b038316600482015260248101829052604401610e7d565b600e546001600160a01b0361010090910481169083160361254e5760405163747795ff60e11b815260040160405180910390fd5b612559600a84614e68565b6001600160a01b0382166000818152600b602052604090819020805460ff19169055517f03c78e4e20a72b1f577a63b54524c684ce73d2e414970ee606bb0b7a9004aa9c906125ab9086815260200190565b60405180910390a2505050565b60155460009060ff16156125ce57506000919050565b601454601354600019821480156125e6575060001981145b156125f657506000199392505050565b6000612600610aeb565b9050600061261061134e8761191b565b9050600061261e8583613f61565b9050600061262c8585613f61565b905061137c61263b8383613f7b565b85614140565b6000610ddc8261264f610aeb565b614140565b6008546001600160a01b0316331461267e5760405162461bcd60e51b8152600401610e7d90615c79565b6000612688610aeb565b600f8190556040518181529091507f875561ddc342b12981103d85be8db6375a88982d4cf58d411e38715ae46833309060200160405180910390a150565b6001600160a01b038116600090815260176020526040812054801561270b576000601654826126f59190615d0b565b905043811115612709575060009392505050565b505b6000612715610aeb565b905060006127228261363a565b9050600061273c6127328761191b565b610dd78486615c66565b90506000600e5460ff166001811115612757576127576159a0565b03612783576000612766611eef565b9050808211156127765780612778565b815b979650505050505050565b60008061278e614510565b9450945050505060006127a060025490565b905060006127ad8a61191b565b9050670de0b6b3a764000060005b845181101561288c578581815181106127d6576127d6615b25565b60200260200101516000031561287a578481815181106127f8576127f8615b25565b6020026020010151600003612819575060009b9a5050505050505050505050565b600061286a670de0b6b3a764000088848151811061283957612839615b25565b602002602001015188858151811061285357612853615b25565b6020026020010151613f429092919063ffffffff16565b905082811015612878578092505b505b8061288481615b51565b9150506127bb565b5060006128a283670de0b6b3a764000086613f42565b9050818111156128cf576128ca82670de0b6b3a76400006128c38b8d615c66565b9190613f42565b6128d1565b865b9c9b505050505050505050505050565b834211156129315760405162461bcd60e51b815260206004820152601d60248201527f45524332305065726d69743a206578706972656420646561646c696e650000006044820152606401610e7d565b60007f6e71edae12b1b97f4d1f60370fef10105fa2faae0126114a169c64845d6126c98888886129608c614f82565b6040805160208101969096526001600160a01b0394851690860152929091166060840152608083015260a082015260c0810186905260e00160405160208183030381529060405280519060200120905060006129bb82614fa8565b905060006129cb82878787614ff6565b9050896001600160a01b0316816001600160a01b031614612a2e5760405162461bcd60e51b815260206004820152601e60248201527f45524332305065726d69743a20696e76616c6964207369676e617475726500006044820152606401610e7d565b612a398a8a8a613516565b50505050505050505050565b6000610ddc8261191b565b6001600160a01b03918216600090815260016020908152604080832093909416825291909152205490565b6008546001600160a01b03163314612aa55760405162461bcd60e51b8152600401610e7d90615c79565b60135460408051918252602082018390527f1f21432dd7b8ead64d2e7c06a74baf13783b2d2f7153f099e2c4cabc3c5dbec6910160405180910390a1601355565b600260095403612b085760405162461bcd60e51b8152600401610e7d90615cd4565b60026009556012546001600160a01b031680612b375760405163dc13611360e01b815260040160405180910390fd5b6000612b41610aeb565b9050612b4c81614103565b6000612b573061191b565b601054909150600090612b749083906001600160401b031661501e565b600e54909150600090612b9790600160a81b90046001600160401b031642615c66565b6010549091506000906301e1338090670de0b6b3a764000090600160801b90046001600160401b0316612bca8589615d1e565b612bd49190615d1e565b612bde9190615d3d565b612be89190615d3d565b90506000612bfe612bf98388614140565b615033565b9050612c0a30826142fd565b612c148186615d0b565b601054909550612c35908290600160401b90046001600160401b031661501e565b612c3f9085615d0b565b93508315612c5f57612c523088866137b1565b612c5c8486615c66565b94505b600e805467ffffffffffffffff60a81b19164263ffffffff16600160a81b021790556000612c8d868861346e565b90508015612dd35780600f6000016000828254612caa9190615c66565b90915550612cba905030876148dd565b604051635c9fcd8560e11b8152600060048201819052907f00000000000000000000000000000000000000000000000000000000000000006001600160a01b03169063b93f9b0a90602401602060405180830381865afa158015612d22573d6000803e3d6000fd5b505050506040513d601f19601f82011682018060405250810190612d469190615b6a565b600754909150612d60906001600160a01b03168284615062565b600754601154604051631ffbe7f960e01b81526001600160a01b03928316600482015260248101919091526044810184905290821690631ffbe7f990606401600060405180830381600087803b158015612db957600080fd5b505af1158015612dcd573d6000803e3d6000fd5b50505050505b60408051878152602081018390527f15e3e2a76a6839c244c1ed0a821c233ce8af552dffcb856089eae6cbbbb71ea6910160405180910390a150506001600955505050505050565b600080612e26610aeb565b90506000612e338261363a565b9050610e278461264f8385615c66565b6008546001600160a01b03163314612e6d5760405162461bcd60e51b8152600401610e7d90615c79565b6001600160a01b038116612ed25760405162461bcd60e51b815260206004820152602660248201527f4f776e61626c653a206e6577206f776e657220697320746865207a65726f206160448201526564647265737360d01b6064820152608401610e7d565b612edb81614421565b50565b6008546001600160a01b03163314612f085760405162461bcd60e51b8152600401610e7d90615c79565b6001600160a01b0382166000908152600d602090815260408083208054600160ff199182168117909255600c90935292208054849391921690836002811115612f5357612f536159a0565b02179055506000612f6383613260565b604051635c9fcd8560e11b8152600260048201529091507f00000000000000000000000000000000000000000000000000000000000000006001600160a01b03169063b93f9b0a90602401602060405180830381865afa158015612fcb573d6000803e3d6000fd5b505050506040513d601f19601f82011682018060405250810190612fef9190615b6a565b604051634f129c5360e01b81526001600160a01b0383811660048301529190911690634f129c5390602401602060405180830381865afa158015613037573d6000803e3d6000fd5b505050506040513d601f19601f8201168201806040525081019061305b9190615d5f565b61308357604051637eb56edb60e11b81526001600160a01b0382166004820152602401610e7d565b604051600181526001600160a01b038416907fd600b9348603c6deff34b4e0b28b60e1c8036c806741b9e6d90032e7f37dd27f906020016125ab565b6008546001600160a01b031633146130e95760405162461bcd60e51b8152600401610e7d90615c79565b60155460ff161561310d576040516337a5332d60e11b815260040160405180910390fd5b600a546020116131335760405163f025236d60e01b815260206004820152602401610e7d565b6001600160a01b0381166000908152600d602052604090205460ff166131775760405163699f66b160e11b81526001600160a01b0382166004820152602401610e7d565b6001600160a01b0381166000908152600b602052604090205460ff16156131bc57604051630af67d9160e31b81526001600160a01b0382166004820152602401610e7d565b600a8054600180820183557fc65a7bb8d6351c1cf70c95a316cc6a92839c986682d98bc35f958f4883f9d2a890910180546001600160a01b0319166001600160a01b0385169081179091556000818152600b60205260409020805460ff19168317905591547fcff5c8a08884d2fad939a9e0f0bf729a4f9af6111a573b4d1f11396c8711646d9161324c91615c66565b60405190815260200160405180910390a250565b6001600160a01b0381166000908152600c602052604081205460ff166001816002811115613290576132906159a0565b14806132ad575060028160028111156132ab576132ab6159a0565b145b1561331457826001600160a01b03166338d52e0f6040518163ffffffff1660e01b8152600401602060405180830381865afa1580156132f0573d6000803e3d6000fd5b505050506040513d601f19601f82011682018060405250810190610eeb9190615b6a565b5090919050565b50919050565b6001600160a01b0381166000908152600c602052604081205460ff166001816002811115613351576133516159a0565b148061336e5750600281600281111561336c5761336c6159a0565b145b15613442576040516370a0823160e01b81523060048201526001600160a01b03841690634cdad5069082906370a0823190602401602060405180830381865afa1580156133bf573d6000803e3d6000fd5b505050506040513d601f19601f820116820180604052508101906133e39190615c19565b6040518263ffffffff1660e01b815260040161340191815260200190565b602060405180830381865afa15801561341e573d6000803e3d6000fd5b505050506040513d601f19601f82011682018060405250810190610eeb9190615c19565b6040516370a0823160e01b81523060048201526001600160a01b038416906370a0823190602401613401565b60008061347a60025490565b905080156134925761348d848483613f42565b610e27565b610e276012600760009054906101000a90046001600160a01b03166001600160a01b031663313ce5676040518163ffffffff1660e01b8152600401602060405180830381865afa1580156134ea573d6000803e3d6000fd5b505050506040513d601f19601f8201168201806040525081019061350e9190615d81565b869190615177565b6001600160a01b0383166135785760405162461bcd60e51b8152602060048201526024808201527f45524332303a20617070726f76652066726f6d20746865207a65726f206164646044820152637265737360e01b6064820152608401610e7d565b6001600160a01b0382166135d95760405162461bcd60e51b815260206004820152602260248201527f45524332303a20617070726f766520746f20746865207a65726f206164647265604482015261737360f01b6064820152608401610e7d565b6001600160a01b0383811660008181526001602090815260408083209487168084529482529182902085905590518481527f8c5be1e5ebec7d5bd14f71427d1e84f3dd0314c0f7b2291e5b200ac8c7c3b925910160405180910390a3505050565b601054600090600160c01b90046001600160401b031680158061365b575082155b156136695750600092915050565b600f54808411156136995760006136808286615c66565b9050613695816001600160401b03851661501e565b9350505b5050919050565b6000806136ac60025490565b905080156136bf5761348d848285613f14565b6007546040805163313ce56760e01b81529051610e27926001600160a01b03169163313ce5679160048083019260209291908290030181865afa15801561370a573d6000803e3d6000fd5b505050506040513d601f19601f8201168201806040525081019061372e9190615d81565b85906012615177565b60006137438484612a50565b905060001981146137ab578181101561379e5760405162461bcd60e51b815260206004820152601d60248201527f45524332303a20696e73756666696369656e7420616c6c6f77616e63650000006044820152606401610e7d565b6137ab8484848403613516565b50505050565b6001600160a01b0383166138155760405162461bcd60e51b815260206004820152602560248201527f45524332303a207472616e736665722066726f6d20746865207a65726f206164604482015264647265737360d81b6064820152608401610e7d565b6001600160a01b0382166138775760405162461bcd60e51b815260206004820152602360248201527f45524332303a207472616e7366657220746f20746865207a65726f206164647260448201526265737360e81b6064820152608401610e7d565b6138828383836151e0565b6001600160a01b038316600090815260208190526040902054818110156138fa5760405162461bcd60e51b815260206004820152602660248201527f45524332303a207472616e7366657220616d6f756e7420657863656564732062604482015265616c616e636560d01b6064820152608401610e7d565b6001600160a01b03808516600090815260208190526040808220858503905591851681529081208054849290613931908490615d0b565b92505081905550826001600160a01b0316846001600160a01b03167fddf252ad1be2c89b69c2b068fc378daa952ba7f163c4a11628f55a4df523b3ef8460405161397d91815260200190565b60405180910390a36137ab565b6000306001600160a01b037f0000000000000000000000000000000000000000000000000000000000000000161480156139e357507f000000000000000000000000000000000000000000000000000000000000000046145b15613a0d57507f000000000000000000000000000000000000000000000000000000000000000090565b50604080517f00000000000000000000000000000000000000000000000000000000000000006020808301919091527f0000000000000000000000000000000000000000000000000000000000000000828401527f000000000000000000000000000000000000000000000000000000000000000060608301524660808301523060a0808401919091528351808403909101815260c0909201909252805191012090565b6001600160a01b0383166000908152600c602052604090205460ff166001816002811115613ae157613ae16159a0565b1480613afe57506002816002811115613afc57613afc6159a0565b145b15613b8257604051632d182be560e21b8152600481018490526001600160a01b03838116602483015230604483015285169063b460af94906064016020604051808303816000875af1158015613b58573d6000803e3d6000fd5b505050506040513d601f19601f82011682018060405250810190613b7c9190615c19565b506137ab565b6001600160a01b03821630146137ab576137ab6001600160a01b03851683856151e9565b6040516370a0823160e01b8152306004820152600090819087906001600160a01b038b16906370a0823190602401602060405180830381865afa158015613bf1573d6000803e3d6000fd5b505050506040513d601f19601f82011682018060405250810190613c159190615c19565b613c1f9190615c66565b604051635c9fcd8560e11b8152600160048201529091506000906001600160a01b037f0000000000000000000000000000000000000000000000000000000000000000169063b93f9b0a90602401602060405180830381865afa158015613c8a573d6000803e3d6000fd5b505050506040513d601f19601f82011682018060405250810190613cae9190615b6a565b9050613cc46001600160a01b038b16828a615062565b806001600160a01b0316632dfe1690888888888f8f6040518763ffffffff1660e01b8152600401613cfa96959493929190615d9e565b6020604051808303816000875af1158015613d19573d6000803e3d6000fd5b505050506040513d601f19601f82011682018060405250810190613d3d9190615c19565b6040516370a0823160e01b815230600482015290935082906001600160a01b038c16906370a0823190602401602060405180830381865afa158015613d86573d6000803e3d6000fd5b505050506040513d601f19601f82011682018060405250810190613daa9190615c19565b14613dc857604051630a9213b560e21b815260040160405180910390fd5b5050979650505050505050565b6001600160a01b0382166000908152600c602052604090205460ff166001816002811115613e0557613e056159a0565b1480613e2257506002816002811115613e2057613e206159a0565b145b15613f0f57613e9e8383856001600160a01b03166338d52e0f6040518163ffffffff1660e01b8152600401602060405180830381865afa158015613e6a573d6000803e3d6000fd5b505050506040513d601f19601f82011682018060405250810190613e8e9190615b6a565b6001600160a01b03169190615062565b604051636e553f6560e01b8152600481018390523060248201526001600160a01b03841690636e553f65906044016020604051808303816000875af1158015613eeb573d6000803e3d6000fd5b505050506040513d601f19601f820116820180604052508101906137ab9190615c19565b505050565b828202811515841585830485141716613f2c57600080fd5b6001826001830304018115150290509392505050565b828202811515841585830485141716613f5a57600080fd5b0492915050565b6000818311613f71576000610eeb565b610eeb8284615c66565b60008183106133145781610eeb565b825480156140d0578380613f9f600184615c66565b81548110613faf57613faf615b25565b600091825260208083209091015483546001818101865594845291832090910180546001600160a01b0319166001600160a01b0390921691909117905590613ff79083615c66565b90505b83811115614089578461400e600183615c66565b8154811061401e5761401e615b25565b9060005260206000200160009054906101000a90046001600160a01b031685828154811061404e5761404e615b25565b600091825260209091200180546001600160a01b0319166001600160a01b03929092169190911790558061408181615dfb565b915050613ffa565b508184848154811061409d5761409d615b25565b9060005260206000200160006101000a8154816001600160a01b0302191690836001600160a01b031602179055506137ab565b83546001810185556000858152602090200180546001600160a01b0384166001600160a01b031990911617905550505050565b600061410e8261363a565b9050801561413c576000614125612bf98385614140565b90508015613f0f57600f839055613f0f30826142fd565b5050565b60008061414c60025490565b905080156136bf5761348d848285613f42565b60155460ff1615614183576040516337a5332d60e11b815260040160405180910390fd5b336001600160a01b0382161461423a57604051635551e1b560e01b81523360048201527f00000000000000000000000000000000000000000000000000000000000000006001600160a01b031690635551e1b590602401602060405180830381865afa1580156141f7573d6000803e3d6000fd5b505050506040513d601f19601f8201168201806040525081019061421b9190615d5f565b61423a576040516334871f2560e21b8152336004820152602401610e7d565b6000614245826112f6565b90508084111561427257604051632d21eb8760e21b81526004810185905260248101829052604401610e7d565b83600f60000160008282546142879190615d0b565b909155505050505050565b6040516001600160a01b03808516602483015283166044820152606481018290526137ab9085906323b872dd60e01b906084015b60408051601f198184030181529190526020810180516001600160e01b03166001600160e01b031990931692909217909152615219565b6001600160a01b0382166143535760405162461bcd60e51b815260206004820152601f60248201527f45524332303a206d696e7420746f20746865207a65726f2061646472657373006044820152606401610e7d565b61435f600083836151e0565b80600260008282546143719190615d0b565b90915550506001600160a01b0382166000908152602081905260408120805483929061439e908490615d0b565b90915550506040518181526001600160a01b038316906000907fddf252ad1be2c89b69c2b068fc378daa952ba7f163c4a11628f55a4df523b3ef9060200160405180910390a35050565b600e546144039061010090046001600160a01b031684613dd5565b6001600160a01b031660009081526017602052604090204390555050565b600880546001600160a01b038381166001600160a01b0319831681179093556040519116919082907f8be0079c531659141344cd1fd0a4f28419497f9722a3daafe3b4186f6b6457e090600090a35050565b60008061447f60025490565b905080156134925761348d848483613f14565b6001600160a01b0381166000908152600c602052604081205460ff1660018160028111156144c2576144c26159a0565b14806144df575060028160028111156144dd576144dd6159a0565b145b156134425760405163ce96cb7760e01b81523060048201526001600160a01b0384169063ce96cb7790602401613401565b600a54600090606090819081908190806001600160401b0381111561453757614537615b0f565b604051908082528060200260200182016040528015614560578160200160208202803683370190505b509450806001600160401b0381111561457b5761457b615b0f565b6040519080825280602002602001820160405280156145a4578160200160208202803683370190505b509350806001600160401b038111156145bf576145bf615b0f565b6040519080825280602002602001820160405280156145e8578160200160208202803683370190505b509250806001600160401b0381111561460357614603615b0f565b60405190808252806020026020018201604052801561462c578160200160208202803683370190505b509250806001600160401b0381111561464757614647615b0f565b604051908082528060200260200182016040528015614670578160200160208202803683370190505b50915060005b81811015614781576000600a828154811061469357614693615b25565b9060005260206000200160009054906101000a90046001600160a01b03169050808783815181106146c6576146c6615b25565b60200260200101906001600160a01b031690816001600160a01b0316815250506146ef81613260565b86838151811061470157614701615b25565b60200260200101906001600160a01b031690816001600160a01b03168152505061472a81613321565b85838151811061473c5761473c615b25565b60200260200101818152505061475181614492565b84838151811061476357614763615b25565b6020908102919091010152508061477981615b51565b915050614676565b50604051635c9fcd8560e11b8152600260048201526000907f00000000000000000000000000000000000000000000000000000000000000006001600160a01b03169063b93f9b0a90602401602060405180830381865afa1580156147ea573d6000803e3d6000fd5b505050506040513d601f19601f8201168201806040525081019061480e9190615b6a565b60075460405163b333a17560e01b81529192506001600160a01b038084169263b333a17592614847928a928a9290911690600401615b87565b602060405180830381865afa158015614864573d6000803e3d6000fd5b505050506040513d601f19601f820116820180604052508101906148889190615c19565b965050509091929394565b61489c816152eb565b600f548085116148b5576148b08582615c66565b6148b8565b60005b600f555050505050565b336001600160a01b0383161461413c5761413c823383613737565b6001600160a01b03821661493d5760405162461bcd60e51b815260206004820152602160248201527f45524332303a206275726e2066726f6d20746865207a65726f206164647265736044820152607360f81b6064820152608401610e7d565b614949826000836151e0565b6001600160a01b038216600090815260208190526040902054818110156149bd5760405162461bcd60e51b815260206004820152602260248201527f45524332303a206275726e20616d6f756e7420657863656564732062616c616e604482015261636560f01b6064820152608401610e7d565b6001600160a01b03831660009081526020819052604081208383039055600280548492906149ec908490615c66565b90915550506040518281526000906001600160a01b038516907fddf252ad1be2c89b69c2b068fc378daa952ba7f163c4a11628f55a4df523b3ef9060200160405180910390a3505050565b60005b8351811015614b46576000848281518110614a5757614a57615b25565b602002602001015190506000848381518110614a7557614a75615b25565b6020026020010151905080600003614a8e575050614b34565b6000614a9b828b8b613f42565b9050848481518110614aaf57614aaf615b25565b6020026020010151811115614ae25760405163f2018f6f60e01b81526001600160a01b0384166004820152602401610e7d565b614aed83828a613ab1565b826001600160a01b03167f94ad37a0f8935c0acdd1ccffe9aad296bfc8d0a1dd2d0cfbac79405c5f86ed8282604051614b2891815260200190565b60405180910390a25050505b80614b3e81615b51565b915050614a3a565b50505050505050565b604051635c9fcd8560e11b8152600260048201526000907f00000000000000000000000000000000000000000000000000000000000000006001600160a01b03169063b93f9b0a90602401602060405180830381865afa158015614bb7573d6000803e3d6000fd5b505050506040513d601f19601f82011682018060405250810190614bdb9190615b6a565b905060005b8551811015614e4557838181518110614bfb57614bfb615b25565b602002602001015160000315614e33576000858281518110614c1f57614c1f615b25565b60200260200101516001600160a01b031663313ce5676040518163ffffffff1660e01b8152600401602060405180830381865afa158015614c64573d6000803e3d6000fd5b505050506040513d601f19601f82011682018060405250810190614c889190615d81565b614c9390600a615ef6565b90506000836001600160a01b031663baaa61be888581518110614cb857614cb8615b25565b602090810291909101015160075460405160e084901b6001600160e01b03191681526001600160a01b03928316600482015291166024820152604401602060405180830381865afa158015614d11573d6000803e3d6000fd5b505050506040513d601f19601f82011682018060405250810190614d359190615c19565b90506000614d50828488878151811061285357612853615b25565b905060008b821115614d7257614d678c8585613f42565b905060009b50614d9d565b868581518110614d8457614d84615b25565b60200260200101519050818c614d9a9190615c66565b9b505b614dc18a8681518110614db257614db2615b25565b6020026020010151828d613ab1565b898581518110614dd357614dd3615b25565b60200260200101516001600160a01b03167f94ad37a0f8935c0acdd1ccffe9aad296bfc8d0a1dd2d0cfbac79405c5f86ed8282604051614e1591815260200190565b60405180910390a28b600003614e2e5750505050614e45565b505050505b80614e3d81615b51565b915050614be0565b508615614b465760405163cc5ea39b60e01b815260048101889052602401610e7d565b8154808210614eaf5760405162461bcd60e51b8152602060048201526013602482015272496e646578206f7574206f6620626f756e647360681b6044820152606401610e7d565b815b614ebc600183615c66565b811015614f4a5783614ecf826001615d0b565b81548110614edf57614edf615b25565b9060005260206000200160009054906101000a90046001600160a01b0316848281548110614f0f57614f0f615b25565b600091825260209091200180546001600160a01b0319166001600160a01b039290921691909117905580614f4281615b51565b915050614eb1565b5082805480614f5b57614f5b615f05565b600082815260209020810160001990810180546001600160a01b0319169055019055505050565b6001600160a01b038116600090815260056020526040902080546001810182559061331b565b6000610ddc614fb561398a565b8360405161190160f01b6020820152602281018390526042810182905260009060620160405160208183030381529060405280519060200120905092915050565b600080600061500787878787615346565b9150915061501481615433565b5095945050505050565b6000610eeb8383670de0b6b3a7640000613f42565b60008061503f60025490565b90508281111561331b5760006150558483615c66565b9050610e27848383613f14565b8015806150dc5750604051636eb1769f60e11b81523060048201526001600160a01b03838116602483015284169063dd62ed3e90604401602060405180830381865afa1580156150b6573d6000803e3d6000fd5b505050506040513d601f19601f820116820180604052508101906150da9190615c19565b155b6151475760405162461bcd60e51b815260206004820152603660248201527f5361666545524332303a20617070726f76652066726f6d206e6f6e2d7a65726f60448201527520746f206e6f6e2d7a65726f20616c6c6f77616e636560501b6064820152608401610e7d565b6040516001600160a01b038316602482015260448101829052613f0f90849063095ea7b360e01b906064016142c6565b60008160ff168360ff160361518d575082610eeb565b8160ff168360ff1610156151c1576151a58383615f1b565b6151b090600a615ef6565b6151ba9085615d1e565b9050610eeb565b6151cb8284615f1b565b6151d690600a615ef6565b6151ba9085615d3d565b613f0f836152eb565b6040516001600160a01b038316602482015260448101829052613f0f90849063a9059cbb60e01b906064016142c6565b600061526e826040518060400160405280602081526020017f5361666545524332303a206c6f772d6c6576656c2063616c6c206661696c6564815250856001600160a01b03166155e99092919063ffffffff16565b805190915015613f0f578080602001905181019061528c9190615d5f565b613f0f5760405162461bcd60e51b815260206004820152602a60248201527f5361666545524332303a204552433230206f7065726174696f6e20646964206e6044820152691bdd081cdd58d8d9595960b21b6064820152608401610e7d565b6001600160a01b038116600090815260176020526040902054801561413c5760006016548261531a9190615d0b565b905043811115613f0f576040516306f8ee3f60e21b815260048101829052436024820152604401610e7d565b6000807f7fffffffffffffffffffffffffffffff5d576e7357a4501ddfe92f46681b20a083111561537d575060009050600361542a565b8460ff16601b1415801561539557508460ff16601c14155b156153a6575060009050600461542a565b6040805160008082526020820180845289905260ff881692820192909252606081018690526080810185905260019060a0016020604051602081039080840390855afa1580156153fa573d6000803e3d6000fd5b5050604051601f1901519150506001600160a01b0381166154235760006001925092505061542a565b9150600090505b94509492505050565b6000816004811115615447576154476159a0565b0361544f5750565b6001816004811115615463576154636159a0565b036154b05760405162461bcd60e51b815260206004820152601860248201527f45434453413a20696e76616c6964207369676e617475726500000000000000006044820152606401610e7d565b60028160048111156154c4576154c46159a0565b036155115760405162461bcd60e51b815260206004820152601f60248201527f45434453413a20696e76616c6964207369676e6174757265206c656e677468006044820152606401610e7d565b6003816004811115615525576155256159a0565b0361557d5760405162461bcd60e51b815260206004820152602260248201527f45434453413a20696e76616c6964207369676e6174757265202773272076616c604482015261756560f01b6064820152608401610e7d565b6004816004811115615591576155916159a0565b03612edb5760405162461bcd60e51b815260206004820152602260248201527f45434453413a20696e76616c6964207369676e6174757265202776272076616c604482015261756560f01b6064820152608401610e7d565b6060610e278484600085856001600160a01b0385163b61564b5760405162461bcd60e51b815260206004820152601d60248201527f416464726573733a2063616c6c20746f206e6f6e2d636f6e74726163740000006044820152606401610e7d565b600080866001600160a01b031685876040516156679190615f34565b60006040518083038185875af1925050503d80600081146156a4576040519150601f19603f3d011682016040523d82523d6000602084013e6156a9565b606091505b5091509150612778828286606083156156c3575081610eeb565b8251156156d35782518084602001fd5b8160405162461bcd60e51b8152600401610e7d9190615711565b60005b838110156157085781810151838201526020016156f0565b50506000910152565b60208152600082518060208401526157308160408501602087016156ed565b601f01601f19169190910160400192915050565b60006020828403121561575657600080fd5b5035919050565b6001600160a01b0381168114612edb57600080fd5b6000806040838503121561578557600080fd5b82356157908161575d565b946020939093013593505050565b6000806000606084860312156157b357600080fd5b83356157be8161575d565b925060208401356157ce8161575d565b929592945050506040919091013590565b60028110612edb57600080fd5b6000602082840312156157fe57600080fd5b8135610eeb816157df565b60008060008060008060a0878903121561582257600080fd5b863561582d8161575d565b9550602087013561583d8161575d565b9450604087013593506060870135615854816157df565b925060808701356001600160401b038082111561587057600080fd5b818901915089601f83011261588457600080fd5b81358181111561589357600080fd5b8a60208285010111156158a557600080fd5b6020830194508093505050509295509295509295565b6000602082840312156158cd57600080fd5b81356001600160401b0381168114610eeb57600080fd5b6000602082840312156158f657600080fd5b8135610eeb8161575d565b6000806040838503121561591457600080fd5b8235915060208301356159268161575d565b809150509250929050565b6000806040838503121561594457600080fd5b50508035926020909101359150565b6020808252825182820181905260009190848201906040850190845b818110156159945783516001600160a01b03168352928401929184019160010161596f565b50909695505050505050565b634e487b7160e01b600052602160045260246000fd5b60208101600383106159ca576159ca6159a0565b91905290565b6000806000606084860312156159e557600080fd5b8335925060208401356159f78161575d565b91506040840135615a078161575d565b809150509250925092565b60ff81168114612edb57600080fd5b600080600080600080600060e0888a031215615a3c57600080fd5b8735615a478161575d565b96506020880135615a578161575d565b955060408801359450606088013593506080880135615a7581615a12565b9699959850939692959460a0840135945060c09093013592915050565b60008060408385031215615aa557600080fd5b8235615ab08161575d565b915060208301356159268161575d565b60028110612edb57612edb6159a0565b602081016159ca83615ac0565b60008060408385031215615af057600080fd5b8235615afb8161575d565b915060208301356003811061592657600080fd5b634e487b7160e01b600052604160045260246000fd5b634e487b7160e01b600052603260045260246000fd5b634e487b7160e01b600052601160045260246000fd5b600060018201615b6357615b63615b3b565b5060010190565b600060208284031215615b7c57600080fd5b8151610eeb8161575d565b606080825284519082018190526000906020906080840190828801845b82811015615bc95781516001600160a01b031684529284019290840190600101615ba4565b5050508381038285015285518082528683019183019060005b81811015615bfe57835183529284019291840191600101615be2565b50506001600160a01b03861660408601529250610e27915050565b600060208284031215615c2b57600080fd5b5051919050565b600181811c90821680615c4657607f821691505b60208210810361331b57634e487b7160e01b600052602260045260246000fd5b81810381811115610ddc57610ddc615b3b565b6020808252818101527f4f776e61626c653a2063616c6c6572206973206e6f7420746865206f776e6572604082015260600190565b60408101615cbb84615ac0565b838252615cc783615ac0565b8260208301529392505050565b6020808252601f908201527f5265656e7472616e637947756172643a207265656e7472616e742063616c6c00604082015260600190565b80820180821115610ddc57610ddc615b3b565b6000816000190483118215151615615d3857615d38615b3b565b500290565b600082615d5a57634e487b7160e01b600052601260045260246000fd5b500490565b600060208284031215615d7157600080fd5b81518015158114610eeb57600080fd5b600060208284031215615d9357600080fd5b8151610eeb81615a12565b615da787615ac0565b86815260a060208201528460a0820152848660c0830137600060c08683018101919091526001600160a01b039485166040830152928416606082015292166080830152601f909201601f1916010192915050565b600081615e0a57615e0a615b3b565b506000190190565b600181815b80851115615e4d578160001904821115615e3357615e33615b3b565b80851615615e4057918102915b93841c9390800290615e17565b509250929050565b600082615e6457506001610ddc565b81615e7157506000610ddc565b8160018114615e875760028114615e9157615ead565b6001915050610ddc565b60ff841115615ea257615ea2615b3b565b50506001821b610ddc565b5060208310610133831016604e8410600b8410161715615ed0575081810a610ddc565b615eda8383615e12565b8060001904821115615eee57615eee615b3b565b029392505050565b6000610eeb60ff841683615e55565b634e487b7160e01b600052603160045260246000fd5b60ff8281168282160390811115610ddc57610ddc615b3b565b60008251615f468184602087016156ed565b919091019291505056fea264697066735822122059f5113f34420171a8043a3185b9236cc4df591095bb86007b046a38be6c7bc464736f6c63430008100033",
    "linkReferences": {}
  },
  "methodIdentifiers": {
    "DOMAIN_SEPARATOR()": "3644e515",
    "MAXIMUM_SHARE_LOCK_PERIOD()": "0402ab63",
    "MAX_FEE_CUT()": "eef33eca",
    "MAX_PERFORMANCE_FEE()": "bdca9165",
    "MAX_PLATFORM_FEE()": "3998a681",
    "MAX_POSITIONS()": "f7b24e08",
    "MAX_REBALANCE_DEVIATION()": "6ff1c02a",
    "MINIMUM_SHARE_LOCK_PERIOD()": "0051a3b7",
    "PRICE_ROUTER_REGISTRY_SLOT()": "5a400d25",
    "addPosition(uint256,address)": "4eca8a83",
    "allowance(address,address)": "dd62ed3e",
    "allowedRebalanceDeviation()": "c244245a",
    "approve(address,uint256)": "095ea7b3",
    "asset()": "38d52e0f",
    "balanceOf(address)": "70a08231",
    "convertToAssets(uint256)": "07a2d13a",
    "convertToShares(uint256)": "c6e6f592",
    "decimals()": "313ce567",
    "decreaseAllowance(address,uint256)": "a457c2d7",
    "deposit(uint256,address)": "6e553f65",
    "depositLimit()": "ecf70858",
    "feeData()": "e753e600",
    "getPositionType(address)": "9e35c65b",
    "getPositions()": "80275860",
    "holdingPosition()": "9c5f00c2",
    "increaseAllowance(address,uint256)": "39509351",
    "initiateShutdown()": "0a680e18",
    "isPositionUsed(address)": "472090fe",
    "isShutdown()": "bf86d690",
    "isTrusted(address)": "96d64879",
    "lastAccrual()": "7b3baab4",
    "liftShutdown()": "5e2c576e",
    "liquidityLimit()": "72163715",
    "maxDeposit(address)": "402d267d",
    "maxMint(address)": "c63d75b6",
    "maxRedeem(address)": "d905777e",
    "maxWithdraw(address)": "ce96cb77",
    "mint(uint256,address)": "94bf804d",
    "name()": "06fdde03",
    "nonces(address)": "7ecebe00",
    "owner()": "8da5cb5b",
    "permit(address,address,uint256,uint256,uint8,bytes32,bytes32)": "d505accf",
    "positions(uint256)": "99fbab88",
    "previewDeposit(uint256)": "ef8b30f7",
    "previewMint(uint256)": "b3d7f6b9",
    "previewRedeem(uint256)": "4cdad506",
    "previewWithdraw(uint256)": "0a28a477",
    "pushPosition(address)": "fdd230b9",
    "rebalance(address,address,uint256,uint8,bytes)": "389a7294",
    "redeem(uint256,address,address)": "ba087652",
    "registry()": "7b103999",
    "removePosition(uint256)": "c0467422",
    "renounceOwnership()": "715018a6",
    "resetHighWatermark()": "c85e5e13",
    "sendFees()": "dff90b5b",
    "setDepositLimit(uint256)": "bdc8144b",
    "setFeesDistributor(bytes32)": "6e85f183",
    "setHoldingPosition(address)": "8b0cebf7",
    "setLiquidityLimit(uint256)": "df05a52a",
    "setPerformanceFee(uint64)": "3cf99a46",
    "setPlatformFee(uint64)": "70af7df6",
    "setRebalanceDeviation(uint256)": "530a3714",
    "setShareLockPeriod(uint256)": "9c552ca8",
    "setStrategistPayoutAddress(address)": "b0a75d36",
    "setStrategistPerformanceCut(uint64)": "9b6fd18e",
    "setStrategistPlatformCut(uint64)": "b5292a99",
    "setWithdrawType(uint8)": "2f3b5a13",
    "shareLockPeriod()": "9fdb11b6",
    "swapPositions(uint256,uint256)": "58384573",
    "symbol()": "95d89b41",
    "totalAssets()": "01e1d114",
    "totalAssetsWithdrawable()": "a8144e48",
    "totalSupply()": "18160ddd",
    "transfer(address,uint256)": "a9059cbb",
    "transferFrom(address,address,uint256)": "23b872dd",
    "transferOwnership(address)": "f2fde38b",
    "trustPosition(address,uint8)": "fc4d43be",
    "userShareLockStartBlock(address)": "fc444591",
    "withdraw(uint256,address,address)": "b460af94",
    "withdrawType()": "e39448e0"
  },
  "id": 29
}