{
  "abi": [
    {
      "inputs": [
        {
          "internalType": "contract Registry",
          "name": "_registry",
          "type": "address"
        },
        {
          "internalType": "contract ERC20",
          "name": "_asset",
          "type": "address"
        },
        {
          "internalType": "address[]",
          "name": "_positions",
          "type": "address[]"
        },
        {
          "internalType": "enum Cellar.PositionType[]",
          "name": "_positionTypes",
          "type": "uint8[]"
        },
        {
          "internalType": "address",
          "name": "_holdingPosition",
          "type": "address"
        },
        {
          "internalType": "enum Cellar.WithdrawType",
          "name": "_withdrawType",
          "type": "uint8"
        },
        {
          "internalType": "string",
          "name": "_name",
          "type": "string"
        },
        {
          "internalType": "string",
          "name": "_symbol",
          "type": "string"
        },
        {
          "internalType": "address",
          "name": "_strategistPayout",
          "type": "address"
        }
      ],
      "stateMutability": "nonpayable",
      "type": "constructor"
    },
    {
      "inputs": [
        {
          "internalType": "address",
          "name": "asset",
          "type": "address"
        },
        {
          "internalType": "address",
          "name": "expectedAsset",
          "type": "address"
        }
      ],
      "name": "Cellar__AssetMismatch",
      "type": "error"
    },
    {
      "inputs": [],
      "name": "Cellar__ContractNotShutdown",
      "type": "error"
    },
    {
      "inputs": [],
      "name": "Cellar__ContractShutdown",
      "type": "error"
    },
    {
      "inputs": [
        {
          "internalType": "uint256",
          "name": "assets",
          "type": "uint256"
        },
        {
          "internalType": "uint256",
          "name": "maxDeposit",
          "type": "uint256"
        }
      ],
      "name": "Cellar__DepositRestricted",
      "type": "error"
    },
    {
      "inputs": [
        {
          "internalType": "address",
          "name": "illiquidPosition",
          "type": "address"
        }
      ],
      "name": "Cellar__IlliquidWithdraw",
      "type": "error"
    },
    {
      "inputs": [
        {
          "internalType": "uint256",
          "name": "assetsOwed",
          "type": "uint256"
        }
      ],
      "name": "Cellar__IncompleteWithdraw",
      "type": "error"
    },
    {
      "inputs": [],
      "name": "Cellar__InvalidCosmosAddress",
      "type": "error"
    },
    {
      "inputs": [],
      "name": "Cellar__InvalidFee",
      "type": "error"
    },
    {
      "inputs": [],
      "name": "Cellar__InvalidFeeCut",
      "type": "error"
    },
    {
      "inputs": [
        {
          "internalType": "address",
          "name": "position",
          "type": "address"
        }
      ],
      "name": "Cellar__InvalidPosition",
      "type": "error"
    },
    {
      "inputs": [
        {
          "internalType": "uint256",
          "name": "requested",
          "type": "uint256"
        },
        {
          "internalType": "uint256",
          "name": "max",
          "type": "uint256"
        }
      ],
      "name": "Cellar__InvalidRebalanceDeviation",
      "type": "error"
    },
    {
      "inputs": [],
      "name": "Cellar__InvalidShareLockPeriod",
      "type": "error"
    },
    {
      "inputs": [
        {
          "internalType": "address",
          "name": "depositor",
          "type": "address"
        }
      ],
      "name": "Cellar__NotApprovedToDepositOnBehalf",
      "type": "error"
    },
    {
      "inputs": [],
      "name": "Cellar__PayoutNotSet",
      "type": "error"
    },
    {
      "inputs": [
        {
          "internalType": "address",
          "name": "position",
          "type": "address"
        }
      ],
      "name": "Cellar__PositionAlreadyUsed",
      "type": "error"
    },
    {
      "inputs": [
        {
          "internalType": "uint256",
          "name": "maxPositions",
          "type": "uint256"
        }
      ],
      "name": "Cellar__PositionArrayFull",
      "type": "error"
    },
    {
      "inputs": [
        {
          "internalType": "address",
          "name": "position",
          "type": "address"
        },
        {
          "internalType": "uint256",
          "name": "sharesRemaining",
          "type": "uint256"
        }
      ],
      "name": "Cellar__PositionNotEmpty",
      "type": "error"
    },
    {
      "inputs": [
        {
          "internalType": "address",
          "name": "position",
          "type": "address"
        }
      ],
      "name": "Cellar__PositionPricingNotSetUp",
      "type": "error"
    },
    {
      "inputs": [],
      "name": "Cellar__RemoveHoldingPosition",
      "type": "error"
    },
    {
      "inputs": [
        {
          "internalType": "uint256",
          "name": "blockSharesAreUnlocked",
          "type": "uint256"
        },
        {
          "internalType": "uint256",
          "name": "currentBlock",
          "type": "uint256"
        }
      ],
      "name": "Cellar__SharesAreLocked",
      "type": "error"
    },
    {
      "inputs": [
        {
          "internalType": "uint256",
          "name": "assets",
          "type": "uint256"
        },
        {
          "internalType": "uint256",
          "name": "min",
          "type": "uint256"
        },
        {
          "internalType": "uint256",
          "name": "max",
          "type": "uint256"
        }
      ],
      "name": "Cellar__TotalAssetDeviatedOutsideRange",
      "type": "error"
    },
    {
      "inputs": [
        {
          "internalType": "uint256",
          "name": "current",
          "type": "uint256"
        },
        {
          "internalType": "uint256",
          "name": "expected",
          "type": "uint256"
        }
      ],
      "name": "Cellar__TotalSharesMustRemainConstant",
      "type": "error"
    },
    {
      "inputs": [
        {
          "internalType": "address",
          "name": "position",
          "type": "address"
        }
      ],
      "name": "Cellar__UntrustedPosition",
      "type": "error"
    },
    {
      "inputs": [],
      "name": "Cellar__WrongSwapParams",
      "type": "error"
    },
    {
      "inputs": [],
      "name": "Cellar__ZeroAssets",
      "type": "error"
    },
    {
      "inputs": [],
      "name": "Cellar__ZeroShares",
      "type": "error"
    },
    {
      "anonymous": false,
      "inputs": [
        {
          "indexed": true,
          "internalType": "address",
          "name": "owner",
          "type": "address"
        },
        {
          "indexed": true,
          "internalType": "address",
          "name": "spender",
          "type": "address"
        },
        {
          "indexed": false,
          "internalType": "uint256",
          "name": "value",
          "type": "uint256"
        }
      ],
      "name": "Approval",
      "type": "event"
    },
    {
      "anonymous": false,
      "inputs": [
        {
          "indexed": true,
          "internalType": "address",
          "name": "caller",
          "type": "address"
        },
        {
          "indexed": true,
          "internalType": "address",
          "name": "owner",
          "type": "address"
        },
        {
          "indexed": false,
          "internalType": "uint256",
          "name": "assets",
          "type": "uint256"
        },
        {
          "indexed": false,
          "internalType": "uint256",
          "name": "shares",
          "type": "uint256"
        }
      ],
      "name": "Deposit",
      "type": "event"
    },
    {
      "anonymous": false,
      "inputs": [
        {
          "indexed": false,
          "internalType": "uint256",
          "name": "oldLimit",
          "type": "uint256"
        },
        {
          "indexed": false,
          "internalType": "uint256",
          "name": "newLimit",
          "type": "uint256"
        }
      ],
      "name": "DepositLimitChanged",
      "type": "event"
    },
    {
      "anonymous": false,
      "inputs": [
        {
          "indexed": false,
          "internalType": "bytes32",
          "name": "oldFeesDistributor",
          "type": "bytes32"
        },
        {
          "indexed": false,
          "internalType": "bytes32",
          "name": "newFeesDistributor",
          "type": "bytes32"
        }
      ],
      "name": "FeesDistributorChanged",
      "type": "event"
    },
    {
      "anonymous": false,
      "inputs": [
        {
          "indexed": false,
          "internalType": "uint256",
          "name": "newHighWatermark",
          "type": "uint256"
        }
      ],
      "name": "HighWatermarkReset",
      "type": "event"
    },
    {
      "anonymous": false,
      "inputs": [
        {
          "indexed": true,
          "internalType": "address",
          "name": "oldPosition",
          "type": "address"
        },
        {
          "indexed": true,
          "internalType": "address",
          "name": "newPosition",
          "type": "address"
        }
      ],
      "name": "HoldingPositionChanged",
      "type": "event"
    },
    {
      "anonymous": false,
      "inputs": [
        {
          "indexed": false,
          "internalType": "uint256",
          "name": "oldLimit",
          "type": "uint256"
        },
        {
          "indexed": false,
          "internalType": "uint256",
          "name": "newLimit",
          "type": "uint256"
        }
      ],
      "name": "LiquidityLimitChanged",
      "type": "event"
    },
    {
      "anonymous": false,
      "inputs": [
        {
          "indexed": true,
          "internalType": "address",
          "name": "user",
          "type": "address"
        },
        {
          "indexed": true,
          "internalType": "address",
          "name": "newOwner",
          "type": "address"
        }
      ],
      "name": "OwnerUpdated",
      "type": "event"
    },
    {
      "anonymous": false,
      "inputs": [
        {
          "indexed": false,
          "internalType": "uint64",
          "name": "oldPerformanceFee",
          "type": "uint64"
        },
        {
          "indexed": false,
          "internalType": "uint64",
          "name": "newPerformanceFee",
          "type": "uint64"
        }
      ],
      "name": "PerformanceFeeChanged",
      "type": "event"
    },
    {
      "anonymous": false,
      "inputs": [
        {
          "indexed": false,
          "internalType": "uint64",
          "name": "oldPlatformFee",
          "type": "uint64"
        },
        {
          "indexed": false,
          "internalType": "uint64",
          "name": "newPlatformFee",
          "type": "uint64"
        }
      ],
      "name": "PlatformFeeChanged",
      "type": "event"
    },
    {
      "anonymous": false,
      "inputs": [
        {
          "indexed": true,
          "internalType": "address",
          "name": "position",
          "type": "address"
        },
        {
          "indexed": false,
          "internalType": "uint256",
          "name": "index",
          "type": "uint256"
        }
      ],
      "name": "PositionAdded",
      "type": "event"
    },
    {
      "anonymous": false,
      "inputs": [
        {
          "indexed": true,
          "internalType": "address",
          "name": "position",
          "type": "address"
        },
        {
          "indexed": false,
          "internalType": "uint256",
          "name": "index",
          "type": "uint256"
        }
      ],
      "name": "PositionRemoved",
      "type": "event"
    },
    {
      "anonymous": false,
      "inputs": [
        {
          "indexed": true,
          "internalType": "address",
          "name": "newPosition1",
          "type": "address"
        },
        {
          "indexed": true,
          "internalType": "address",
          "name": "newPosition2",
          "type": "address"
        },
        {
          "indexed": false,
          "internalType": "uint256",
          "name": "index1",
          "type": "uint256"
        },
        {
          "indexed": false,
          "internalType": "uint256",
          "name": "index2",
          "type": "uint256"
        }
      ],
      "name": "PositionSwapped",
      "type": "event"
    },
    {
      "anonymous": false,
      "inputs": [
        {
          "indexed": true,
          "internalType": "address",
          "name": "position",
          "type": "address"
        },
        {
          "indexed": false,
          "internalType": "uint256",
          "name": "amount",
          "type": "uint256"
        }
      ],
      "name": "PulledFromPosition",
      "type": "event"
    },
    {
      "anonymous": false,
      "inputs": [
        {
          "indexed": true,
          "internalType": "address",
          "name": "fromPosition",
          "type": "address"
        },
        {
          "indexed": true,
          "internalType": "address",
          "name": "toPosition",
          "type": "address"
        },
        {
          "indexed": false,
          "internalType": "uint256",
          "name": "assetsFrom",
          "type": "uint256"
        },
        {
          "indexed": false,
          "internalType": "uint256",
          "name": "assetsTo",
          "type": "uint256"
        }
      ],
      "name": "Rebalance",
      "type": "event"
    },
    {
      "anonymous": false,
      "inputs": [
        {
          "indexed": false,
          "internalType": "uint256",
          "name": "oldDeviation",
          "type": "uint256"
        },
        {
          "indexed": false,
          "internalType": "uint256",
          "name": "newDeviation",
          "type": "uint256"
        }
      ],
      "name": "RebalanceDeviationChanged",
      "type": "event"
    },
    {
      "anonymous": false,
      "inputs": [
        {
          "indexed": false,
          "internalType": "uint256",
          "name": "feesInSharesRedeemed",
          "type": "uint256"
        },
        {
          "indexed": false,
          "internalType": "uint256",
          "name": "feesInAssetsSent",
          "type": "uint256"
        }
      ],
      "name": "SendFees",
      "type": "event"
    },
    {
      "anonymous": false,
      "inputs": [
        {
          "indexed": false,
          "internalType": "uint256",
          "name": "oldPeriod",
          "type": "uint256"
        },
        {
          "indexed": false,
          "internalType": "uint256",
          "name": "newPeriod",
          "type": "uint256"
        }
      ],
      "name": "ShareLockingPeriodChanged",
      "type": "event"
    },
    {
      "anonymous": false,
      "inputs": [
        {
          "indexed": false,
          "internalType": "bool",
          "name": "isShutdown",
          "type": "bool"
        }
      ],
      "name": "ShutdownChanged",
      "type": "event"
    },
    {
      "anonymous": false,
      "inputs": [
        {
          "indexed": false,
          "internalType": "address",
          "name": "oldPayoutAddress",
          "type": "address"
        },
        {
          "indexed": false,
          "internalType": "address",
          "name": "newPayoutAddress",
          "type": "address"
        }
      ],
      "name": "StrategistPayoutAddressChanged",
      "type": "event"
    },
    {
      "anonymous": false,
      "inputs": [
        {
          "indexed": false,
          "internalType": "uint64",
          "name": "oldPerformanceCut",
          "type": "uint64"
        },
        {
          "indexed": false,
          "internalType": "uint64",
          "name": "newPerformanceCut",
          "type": "uint64"
        }
      ],
      "name": "StrategistPerformanceCutChanged",
      "type": "event"
    },
    {
      "anonymous": false,
      "inputs": [
        {
          "indexed": false,
          "internalType": "uint64",
          "name": "oldPlatformCut",
          "type": "uint64"
        },
        {
          "indexed": false,
          "internalType": "uint64",
          "name": "newPlatformCut",
          "type": "uint64"
        }
      ],
      "name": "StrategistPlatformCutChanged",
      "type": "event"
    },
    {
      "anonymous": false,
      "inputs": [
        {
          "indexed": true,
          "internalType": "address",
          "name": "from",
          "type": "address"
        },
        {
          "indexed": true,
          "internalType": "address",
          "name": "to",
          "type": "address"
        },
        {
          "indexed": false,
          "internalType": "uint256",
          "name": "value",
          "type": "uint256"
        }
      ],
      "name": "Transfer",
      "type": "event"
    },
    {
      "anonymous": false,
      "inputs": [
        {
          "indexed": true,
          "internalType": "address",
          "name": "position",
          "type": "address"
        },
        {
          "indexed": false,
          "internalType": "bool",
          "name": "isTrusted",
          "type": "bool"
        }
      ],
      "name": "TrustChanged",
      "type": "event"
    },
    {
      "anonymous": false,
      "inputs": [
        {
          "indexed": true,
          "internalType": "address",
          "name": "caller",
          "type": "address"
        },
        {
          "indexed": true,
          "internalType": "address",
          "name": "receiver",
          "type": "address"
        },
        {
          "indexed": true,
          "internalType": "address",
          "name": "owner",
          "type": "address"
        },
        {
          "indexed": false,
          "internalType": "uint256",
          "name": "assets",
          "type": "uint256"
        },
        {
          "indexed": false,
          "internalType": "uint256",
          "name": "shares",
          "type": "uint256"
        }
      ],
      "name": "Withdraw",
      "type": "event"
    },
    {
      "anonymous": false,
      "inputs": [
        {
          "indexed": false,
          "internalType": "enum Cellar.WithdrawType",
          "name": "oldType",
          "type": "uint8"
        },
        {
          "indexed": false,
          "internalType": "enum Cellar.WithdrawType",
          "name": "newType",
          "type": "uint8"
        }
      ],
      "name": "WithdrawTypeChanged",
      "type": "event"
    },
    {
      "inputs": [],
      "name": "DOMAIN_SEPARATOR",
      "outputs": [
        {
          "internalType": "bytes32",
          "name": "",
          "type": "bytes32"
        }
      ],
      "stateMutability": "view",
      "type": "function"
    },
    {
      "inputs": [],
      "name": "MAXIMUM_SHARE_LOCK_PERIOD",
      "outputs": [
        {
          "internalType": "uint256",
          "name": "",
          "type": "uint256"
        }
      ],
      "stateMutability": "view",
      "type": "function"
    },
    {
      "inputs": [],
      "name": "MAX_FEE_CUT",
      "outputs": [
        {
          "internalType": "uint64",
          "name": "",
          "type": "uint64"
        }
      ],
      "stateMutability": "view",
      "type": "function"
    },
    {
      "inputs": [],
      "name": "MAX_PERFORMANCE_FEE",
      "outputs": [
        {
          "internalType": "uint64",
          "name": "",
          "type": "uint64"
        }
      ],
      "stateMutability": "view",
      "type": "function"
    },
    {
      "inputs": [],
      "name": "MAX_PLATFORM_FEE",
      "outputs": [
        {
          "internalType": "uint64",
          "name": "",
          "type": "uint64"
        }
      ],
      "stateMutability": "view",
      "type": "function"
    },
    {
      "inputs": [],
      "name": "MAX_POSITIONS",
      "outputs": [
        {
          "internalType": "uint8",
          "name": "",
          "type": "uint8"
        }
      ],
      "stateMutability": "view",
      "type": "function"
    },
    {
      "inputs": [],
      "name": "MAX_REBALANCE_DEVIATION",
      "outputs": [
        {
          "internalType": "uint64",
          "name": "",
          "type": "uint64"
        }
      ],
      "stateMutability": "view",
      "type": "function"
    },
    {
      "inputs": [],
      "name": "MINIMUM_SHARE_LOCK_PERIOD",
      "outputs": [
        {
          "internalType": "uint256",
          "name": "",
          "type": "uint256"
        }
      ],
      "stateMutability": "view",
      "type": "function"
    },
    {
      "inputs": [],
      "name": "PRICE_ROUTER_REGISTRY_SLOT",
      "outputs": [
        {
          "internalType": "uint256",
          "name": "",
          "type": "uint256"
        }
      ],
      "stateMutability": "view",
      "type": "function"
    },
    {
      "inputs": [
        {
          "internalType": "uint256",
          "name": "index",
          "type": "uint256"
        },
        {
          "internalType": "address",
          "name": "position",
          "type": "address"
        }
      ],
      "name": "addPosition",
      "outputs": [],
      "stateMutability": "nonpayable",
      "type": "function"
    },
    {
      "inputs": [
        {
          "internalType": "address",
          "name": "owner",
          "type": "address"
        },
        {
          "internalType": "address",
          "name": "spender",
          "type": "address"
        }
      ],
      "name": "allowance",
      "outputs": [
        {
          "internalType": "uint256",
          "name": "",
          "type": "uint256"
        }
      ],
      "stateMutability": "view",
      "type": "function"
    },
    {
      "inputs": [],
      "name": "allowedRebalanceDeviation",
      "outputs": [
        {
          "internalType": "uint256",
          "name": "",
          "type": "uint256"
        }
      ],
      "stateMutability": "view",
      "type": "function"
    },
    {
      "inputs": [
        {
          "internalType": "address",
          "name": "spender",
          "type": "address"
        },
        {
          "internalType": "uint256",
          "name": "amount",
          "type": "uint256"
        }
      ],
      "name": "approve",
      "outputs": [
        {
          "internalType": "bool",
          "name": "",
          "type": "bool"
        }
      ],
      "stateMutability": "nonpayable",
      "type": "function"
    },
    {
      "inputs": [],
      "name": "asset",
      "outputs": [
        {
          "internalType": "contract ERC20",
          "name": "",
          "type": "address"
        }
      ],
      "stateMutability": "view",
      "type": "function"
    },
    {
      "inputs": [
        {
          "internalType": "address",
          "name": "account",
          "type": "address"
        }
      ],
      "name": "balanceOf",
      "outputs": [
        {
          "internalType": "uint256",
          "name": "",
          "type": "uint256"
        }
      ],
      "stateMutability": "view",
      "type": "function"
    },
    {
      "inputs": [
        {
          "internalType": "uint256",
          "name": "shares",
          "type": "uint256"
        }
      ],
      "name": "convertToAssets",
      "outputs": [
        {
          "internalType": "uint256",
          "name": "assets",
          "type": "uint256"
        }
      ],
      "stateMutability": "view",
      "type": "function"
    },
    {
      "inputs": [
        {
          "internalType": "uint256",
          "name": "assets",
          "type": "uint256"
        }
      ],
      "name": "convertToShares",
      "outputs": [
        {
          "internalType": "uint256",
          "name": "shares",
          "type": "uint256"
        }
      ],
      "stateMutability": "view",
      "type": "function"
    },
    {
      "inputs": [],
      "name": "decimals",
      "outputs": [
        {
          "internalType": "uint8",
          "name": "",
          "type": "uint8"
        }
      ],
      "stateMutability": "view",
      "type": "function"
    },
    {
      "inputs": [
        {
          "internalType": "address",
          "name": "spender",
          "type": "address"
        },
        {
          "internalType": "uint256",
          "name": "subtractedValue",
          "type": "uint256"
        }
      ],
      "name": "decreaseAllowance",
      "outputs": [
        {
          "internalType": "bool",
          "name": "",
          "type": "bool"
        }
      ],
      "stateMutability": "nonpayable",
      "type": "function"
    },
    {
      "inputs": [
        {
          "internalType": "uint256",
          "name": "assets",
          "type": "uint256"
        },
        {
          "internalType": "address",
          "name": "receiver",
          "type": "address"
        }
      ],
      "name": "deposit",
      "outputs": [
        {
          "internalType": "uint256",
          "name": "shares",
          "type": "uint256"
        }
      ],
      "stateMutability": "nonpayable",
      "type": "function"
    },
    {
      "inputs": [],
      "name": "depositLimit",
      "outputs": [
        {
          "internalType": "uint256",
          "name": "",
          "type": "uint256"
        }
      ],
      "stateMutability": "view",
      "type": "function"
    },
    {
      "inputs": [],
      "name": "feeData",
      "outputs": [
        {
          "internalType": "uint256",
          "name": "highWatermark",
          "type": "uint256"
        },
        {
          "internalType": "uint64",
          "name": "strategistPerformanceCut",
          "type": "uint64"
        },
        {
          "internalType": "uint64",
          "name": "strategistPlatformCut",
          "type": "uint64"
        },
        {
          "internalType": "uint64",
          "name": "platformFee",
          "type": "uint64"
        },
        {
          "internalType": "uint64",
          "name": "performanceFee",
          "type": "uint64"
        },
        {
          "internalType": "bytes32",
          "name": "feesDistributor",
          "type": "bytes32"
        },
        {
          "internalType": "address",
          "name": "strategistPayoutAddress",
          "type": "address"
        }
      ],
      "stateMutability": "view",
      "type": "function"
    },
    {
      "inputs": [
        {
          "internalType": "address",
          "name": "",
          "type": "address"
        }
      ],
      "name": "getPositionType",
      "outputs": [
        {
          "internalType": "enum Cellar.PositionType",
          "name": "",
          "type": "uint8"
        }
      ],
      "stateMutability": "view",
      "type": "function"
    },
    {
      "inputs": [],
      "name": "getPositions",
      "outputs": [
        {
          "internalType": "address[]",
          "name": "",
          "type": "address[]"
        }
      ],
      "stateMutability": "view",
      "type": "function"
    },
    {
      "inputs": [],
      "name": "holdingPosition",
      "outputs": [
        {
          "internalType": "address",
          "name": "",
          "type": "address"
        }
      ],
      "stateMutability": "view",
      "type": "function"
    },
    {
      "inputs": [
        {
          "internalType": "address",
          "name": "spender",
          "type": "address"
        },
        {
          "internalType": "uint256",
          "name": "addedValue",
          "type": "uint256"
        }
      ],
      "name": "increaseAllowance",
      "outputs": [
        {
          "internalType": "bool",
          "name": "",
          "type": "bool"
        }
      ],
      "stateMutability": "nonpayable",
      "type": "function"
    },
    {
      "inputs": [],
      "name": "initiateShutdown",
      "outputs": [],
      "stateMutability": "nonpayable",
      "type": "function"
    },
    {
      "inputs": [
        {
          "internalType": "address",
          "name": "",
          "type": "address"
        }
      ],
      "name": "isPositionUsed",
      "outputs": [
        {
          "internalType": "bool",
          "name": "",
          "type": "bool"
        }
      ],
      "stateMutability": "view",
      "type": "function"
    },
    {
      "inputs": [],
      "name": "isShutdown",
      "outputs": [
        {
          "internalType": "bool",
          "name": "",
          "type": "bool"
        }
      ],
      "stateMutability": "view",
      "type": "function"
    },
    {
      "inputs": [
        {
          "internalType": "address",
          "name": "",
          "type": "address"
        }
      ],
      "name": "isTrusted",
      "outputs": [
        {
          "internalType": "bool",
          "name": "",
          "type": "bool"
        }
      ],
      "stateMutability": "view",
      "type": "function"
    },
    {
      "inputs": [],
      "name": "lastAccrual",
      "outputs": [
        {
          "internalType": "uint64",
          "name": "",
          "type": "uint64"
        }
      ],
      "stateMutability": "view",
      "type": "function"
    },
    {
      "inputs": [],
      "name": "liftShutdown",
      "outputs": [],
      "stateMutability": "nonpayable",
      "type": "function"
    },
    {
      "inputs": [],
      "name": "liquidityLimit",
      "outputs": [
        {
          "internalType": "uint256",
          "name": "",
          "type": "uint256"
        }
      ],
      "stateMutability": "view",
      "type": "function"
    },
    {
      "inputs": [
        {
          "internalType": "address",
          "name": "receiver",
          "type": "address"
        }
      ],
      "name": "maxDeposit",
      "outputs": [
        {
          "internalType": "uint256",
          "name": "assets",
          "type": "uint256"
        }
      ],
      "stateMutability": "view",
      "type": "function"
    },
    {
      "inputs": [
        {
          "internalType": "address",
          "name": "receiver",
          "type": "address"
        }
      ],
      "name": "maxMint",
      "outputs": [
        {
          "internalType": "uint256",
          "name": "",
          "type": "uint256"
        }
      ],
      "stateMutability": "view",
      "type": "function"
    },
    {
      "inputs": [
        {
          "internalType": "address",
          "name": "owner",
          "type": "address"
        }
      ],
      "name": "maxRedeem",
      "outputs": [
        {
          "internalType": "uint256",
          "name": "",
          "type": "uint256"
        }
      ],
      "stateMutability": "view",
      "type": "function"
    },
    {
      "inputs": [
        {
          "internalType": "address",
          "name": "owner",
          "type": "address"
        }
      ],
      "name": "maxWithdraw",
      "outputs": [
        {
          "internalType": "uint256",
          "name": "",
          "type": "uint256"
        }
      ],
      "stateMutability": "view",
      "type": "function"
    },
    {
      "inputs": [
        {
          "internalType": "uint256",
          "name": "shares",
          "type": "uint256"
        },
        {
          "internalType": "address",
          "name": "receiver",
          "type": "address"
        }
      ],
      "name": "mint",
      "outputs": [
        {
          "internalType": "uint256",
          "name": "assets",
          "type": "uint256"
        }
      ],
      "stateMutability": "nonpayable",
      "type": "function"
    },
    {
      "inputs": [],
      "name": "name",
      "outputs": [
        {
          "internalType": "string",
          "name": "",
          "type": "string"
        }
      ],
      "stateMutability": "view",
      "type": "function"
    },
    {
      "inputs": [
        {
          "internalType": "address",
          "name": "owner",
          "type": "address"
        }
      ],
      "name": "nonces",
      "outputs": [
        {
          "internalType": "uint256",
          "name": "",
          "type": "uint256"
        }
      ],
      "stateMutability": "view",
      "type": "function"
    },
    {
      "inputs": [],
      "name": "owner",
      "outputs": [
        {
          "internalType": "address",
          "name": "",
          "type": "address"
        }
      ],
      "stateMutability": "view",
      "type": "function"
    },
    {
      "inputs": [
        {
          "internalType": "address",
          "name": "owner",
          "type": "address"
        },
        {
          "internalType": "address",
          "name": "spender",
          "type": "address"
        },
        {
          "internalType": "uint256",
          "name": "value",
          "type": "uint256"
        },
        {
          "internalType": "uint256",
          "name": "deadline",
          "type": "uint256"
        },
        {
          "internalType": "uint8",
          "name": "v",
          "type": "uint8"
        },
        {
          "internalType": "bytes32",
          "name": "r",
          "type": "bytes32"
        },
        {
          "internalType": "bytes32",
          "name": "s",
          "type": "bytes32"
        }
      ],
      "name": "permit",
      "outputs": [],
      "stateMutability": "nonpayable",
      "type": "function"
    },
    {
      "inputs": [
        {
          "internalType": "uint256",
          "name": "",
          "type": "uint256"
        }
      ],
      "name": "positions",
      "outputs": [
        {
          "internalType": "address",
          "name": "",
          "type": "address"
        }
      ],
      "stateMutability": "view",
      "type": "function"
    },
    {
      "inputs": [
        {
          "internalType": "uint256",
          "name": "assets",
          "type": "uint256"
        }
      ],
      "name": "previewDeposit",
      "outputs": [
        {
          "internalType": "uint256",
          "name": "shares",
          "type": "uint256"
        }
      ],
      "stateMutability": "view",
      "type": "function"
    },
    {
      "inputs": [
        {
          "internalType": "uint256",
          "name": "shares",
          "type": "uint256"
        }
      ],
      "name": "previewMint",
      "outputs": [
        {
          "internalType": "uint256",
          "name": "assets",
          "type": "uint256"
        }
      ],
      "stateMutability": "view",
      "type": "function"
    },
    {
      "inputs": [
        {
          "internalType": "uint256",
          "name": "shares",
          "type": "uint256"
        }
      ],
      "name": "previewRedeem",
      "outputs": [
        {
          "internalType": "uint256",
          "name": "assets",
          "type": "uint256"
        }
      ],
      "stateMutability": "view",
      "type": "function"
    },
    {
      "inputs": [
        {
          "internalType": "uint256",
          "name": "assets",
          "type": "uint256"
        }
      ],
      "name": "previewWithdraw",
      "outputs": [
        {
          "internalType": "uint256",
          "name": "shares",
          "type": "uint256"
        }
      ],
      "stateMutability": "view",
      "type": "function"
    },
    {
      "inputs": [
        {
          "internalType": "address",
          "name": "position",
          "type": "address"
        }
      ],
      "name": "pushPosition",
      "outputs": [],
      "stateMutability": "nonpayable",
      "type": "function"
    },
    {
      "inputs": [
        {
          "internalType": "address",
          "name": "fromPosition",
          "type": "address"
        },
        {
          "internalType": "address",
          "name": "toPosition",
          "type": "address"
        },
        {
          "internalType": "uint256",
          "name": "assetsFrom",
          "type": "uint256"
        },
        {
          "internalType": "enum SwapRouter.Exchange",
          "name": "exchange",
          "type": "uint8"
        },
        {
          "internalType": "bytes",
          "name": "params",
          "type": "bytes"
        }
      ],
      "name": "rebalance",
      "outputs": [
        {
          "internalType": "uint256",
          "name": "assetsTo",
          "type": "uint256"
        }
      ],
      "stateMutability": "nonpayable",
      "type": "function"
    },
    {
      "inputs": [
        {
          "internalType": "uint256",
          "name": "shares",
          "type": "uint256"
        },
        {
          "internalType": "address",
          "name": "receiver",
          "type": "address"
        },
        {
          "internalType": "address",
          "name": "owner",
          "type": "address"
        }
      ],
      "name": "redeem",
      "outputs": [
        {
          "internalType": "uint256",
          "name": "assets",
          "type": "uint256"
        }
      ],
      "stateMutability": "nonpayable",
      "type": "function"
    },
    {
      "inputs": [],
      "name": "registry",
      "outputs": [
        {
          "internalType": "contract Registry",
          "name": "",
          "type": "address"
        }
      ],
      "stateMutability": "view",
      "type": "function"
    },
    {
      "inputs": [
        {
          "internalType": "uint256",
          "name": "index",
          "type": "uint256"
        }
      ],
      "name": "removePosition",
      "outputs": [],
      "stateMutability": "nonpayable",
      "type": "function"
    },
    {
      "inputs": [],
      "name": "resetHighWatermark",
      "outputs": [],
      "stateMutability": "nonpayable",
      "type": "function"
    },
    {
      "inputs": [],
      "name": "sendFees",
      "outputs": [],
      "stateMutability": "nonpayable",
      "type": "function"
    },
    {
      "inputs": [
        {
          "internalType": "uint256",
          "name": "newLimit",
          "type": "uint256"
        }
      ],
      "name": "setDepositLimit",
      "outputs": [],
      "stateMutability": "nonpayable",
      "type": "function"
    },
    {
      "inputs": [
        {
          "internalType": "bytes32",
          "name": "newFeesDistributor",
          "type": "bytes32"
        }
      ],
      "name": "setFeesDistributor",
      "outputs": [],
      "stateMutability": "nonpayable",
      "type": "function"
    },
    {
      "inputs": [
        {
          "internalType": "address",
          "name": "newHoldingPosition",
          "type": "address"
        }
      ],
      "name": "setHoldingPosition",
      "outputs": [],
      "stateMutability": "nonpayable",
      "type": "function"
    },
    {
      "inputs": [
        {
          "internalType": "uint256",
          "name": "newLimit",
          "type": "uint256"
        }
      ],
      "name": "setLiquidityLimit",
      "outputs": [],
      "stateMutability": "nonpayable",
      "type": "function"
    },
    {
      "inputs": [
        {
          "internalType": "address",
          "name": "newOwner",
          "type": "address"
        }
      ],
      "name": "setOwner",
      "outputs": [],
      "stateMutability": "nonpayable",
      "type": "function"
    },
    {
      "inputs": [
        {
          "internalType": "uint64",
          "name": "newPerformanceFee",
          "type": "uint64"
        }
      ],
      "name": "setPerformanceFee",
      "outputs": [],
      "stateMutability": "nonpayable",
      "type": "function"
    },
    {
      "inputs": [
        {
          "internalType": "uint64",
          "name": "newPlatformFee",
          "type": "uint64"
        }
      ],
      "name": "setPlatformFee",
      "outputs": [],
      "stateMutability": "nonpayable",
      "type": "function"
    },
    {
      "inputs": [
        {
          "internalType": "uint256",
          "name": "newDeviation",
          "type": "uint256"
        }
      ],
      "name": "setRebalanceDeviation",
      "outputs": [],
      "stateMutability": "nonpayable",
      "type": "function"
    },
    {
      "inputs": [
        {
          "internalType": "uint256",
          "name": "newLock",
          "type": "uint256"
        }
      ],
      "name": "setShareLockPeriod",
      "outputs": [],
      "stateMutability": "nonpayable",
      "type": "function"
    },
    {
      "inputs": [
        {
          "internalType": "address",
          "name": "payout",
          "type": "address"
        }
      ],
      "name": "setStrategistPayoutAddress",
      "outputs": [],
      "stateMutability": "nonpayable",
      "type": "function"
    },
    {
      "inputs": [
        {
          "internalType": "uint64",
          "name": "cut",
          "type": "uint64"
        }
      ],
      "name": "setStrategistPerformanceCut",
      "outputs": [],
      "stateMutability": "nonpayable",
      "type": "function"
    },
    {
      "inputs": [
        {
          "internalType": "uint64",
          "name": "cut",
          "type": "uint64"
        }
      ],
      "name": "setStrategistPlatformCut",
      "outputs": [],
      "stateMutability": "nonpayable",
      "type": "function"
    },
    {
      "inputs": [
        {
          "internalType": "enum Cellar.WithdrawType",
          "name": "newWithdrawType",
          "type": "uint8"
        }
      ],
      "name": "setWithdrawType",
      "outputs": [],
      "stateMutability": "nonpayable",
      "type": "function"
    },
    {
      "inputs": [],
      "name": "shareLockPeriod",
      "outputs": [
        {
          "internalType": "uint256",
          "name": "",
          "type": "uint256"
        }
      ],
      "stateMutability": "view",
      "type": "function"
    },
    {
      "inputs": [
        {
          "internalType": "uint256",
          "name": "index1",
          "type": "uint256"
        },
        {
          "internalType": "uint256",
          "name": "index2",
          "type": "uint256"
        }
      ],
      "name": "swapPositions",
      "outputs": [],
      "stateMutability": "nonpayable",
      "type": "function"
    },
    {
      "inputs": [],
      "name": "symbol",
      "outputs": [
        {
          "internalType": "string",
          "name": "",
          "type": "string"
        }
      ],
      "stateMutability": "view",
      "type": "function"
    },
    {
      "inputs": [],
      "name": "totalAssets",
      "outputs": [
        {
          "internalType": "uint256",
          "name": "assets",
          "type": "uint256"
        }
      ],
      "stateMutability": "view",
      "type": "function"
    },
    {
      "inputs": [],
      "name": "totalAssetsWithdrawable",
      "outputs": [
        {
          "internalType": "uint256",
          "name": "assets",
          "type": "uint256"
        }
      ],
      "stateMutability": "view",
      "type": "function"
    },
    {
      "inputs": [],
      "name": "totalSupply",
      "outputs": [
        {
          "internalType": "uint256",
          "name": "",
          "type": "uint256"
        }
      ],
      "stateMutability": "view",
      "type": "function"
    },
    {
      "inputs": [
        {
          "internalType": "address",
          "name": "to",
          "type": "address"
        },
        {
          "internalType": "uint256",
          "name": "amount",
          "type": "uint256"
        }
      ],
      "name": "transfer",
      "outputs": [
        {
          "internalType": "bool",
          "name": "",
          "type": "bool"
        }
      ],
      "stateMutability": "nonpayable",
      "type": "function"
    },
    {
      "inputs": [
        {
          "internalType": "address",
          "name": "from",
          "type": "address"
        },
        {
          "internalType": "address",
          "name": "to",
          "type": "address"
        },
        {
          "internalType": "uint256",
          "name": "amount",
          "type": "uint256"
        }
      ],
      "name": "transferFrom",
      "outputs": [
        {
          "internalType": "bool",
          "name": "",
          "type": "bool"
        }
      ],
      "stateMutability": "nonpayable",
      "type": "function"
    },
    {
      "inputs": [
        {
          "internalType": "address",
          "name": "position",
          "type": "address"
        },
        {
          "internalType": "enum Cellar.PositionType",
          "name": "positionType",
          "type": "uint8"
        }
      ],
      "name": "trustPosition",
      "outputs": [],
      "stateMutability": "nonpayable",
      "type": "function"
    },
    {
      "inputs": [
        {
          "internalType": "address",
          "name": "",
          "type": "address"
        }
      ],
      "name": "userShareLockStartBlock",
      "outputs": [
        {
          "internalType": "uint256",
          "name": "",
          "type": "uint256"
        }
      ],
      "stateMutability": "view",
      "type": "function"
    },
    {
      "inputs": [
        {
          "internalType": "uint256",
          "name": "assets",
          "type": "uint256"
        },
        {
          "internalType": "address",
          "name": "receiver",
          "type": "address"
        },
        {
          "internalType": "address",
          "name": "owner",
          "type": "address"
        }
      ],
      "name": "withdraw",
      "outputs": [
        {
          "internalType": "uint256",
          "name": "shares",
          "type": "uint256"
        }
      ],
      "stateMutability": "nonpayable",
      "type": "function"
    },
    {
      "inputs": [],
      "name": "withdrawType",
      "outputs": [
        {
          "internalType": "enum Cellar.WithdrawType",
          "name": "",
          "type": "uint8"
        }
      ],
      "stateMutability": "view",
      "type": "function"
    }
  ],
  "bytecode": {
    "object": "0x60016008556102606040526000610180819052670a688906bd8b00006101a08190526101c05266470de4df8200006101e05267016345785d8a00006102005273b813554b423266bbd4c16c32fa383394868c1f55610220819052610240829052600e919091557f016345785d8a000000470de4df8200000a688906bd8b00000a688906bd8b0000600f55601055601180546001600160a01b03191690556000196012819055601355611c20601555660aa87bee538000601755348015620000c557600080fd5b5060405162006d8338038062006d83833981016040819052620000e891620009a4565b604051635c9fcd8560e11b8152600060048201526001600160a01b038a169063b93f9b0a90602401602060405180830381865afa1580156200012e573d6000803e3d6000fd5b505050506040513d601f19601f8201168201806040525081019062000154919062000abc565b8884848180604051806040016040528060018152602001603160f81b8152508484816003908162000186919062000b65565b50600462000195828262000b65565b5050825160208085019190912083518483012060e08290526101008190524660a0818152604080517f8b73c3c69bb8fe3d512ecc4cf759cc79239f7b179b0ffacaa9a75d522b39400f81880181905281830187905260608201869052608082019490945230818401528151808203909301835260c0019052805194019390932091935091906080523060c05261012052505050506001600160a01b03938416610140525050600780546001600160a01b0319169284169283179055506040516000907f8292fce18fa69edf4db7b94ea2e58241df0ae57f97e0a6c9b29067028bf92d76908290a3506001600160a01b038916610160528651620002a09060099060208a0190620006fd565b506000805b8851811015620004e6576000898281518110620002c657620002c662000c31565b6020908102919091018101516001600160a01b0381166000908152600a90925260409091205490915060ff16156200032157604051630af67d9160e31b81526001600160a01b03821660048201526024015b60405180910390fd5b6001600160a01b0381166000908152600c602090815260408083208054600160ff199182168117909255600a909352922080549091169091179055885189908390811062000373576200037362000c31565b6020908102919091018101516001600160a01b0383166000908152600b9092526040909120805460ff19166001836002811115620003b557620003b562000c47565b0217905550620003c5816200062a565b61016051604051635c9fcd8560e11b8152600260048201529194506001600160a01b03169063b93f9b0a90602401602060405180830381865afa15801562000411573d6000803e3d6000fd5b505050506040513d601f19601f8201168201806040525081019062000437919062000abc565b604051634f129c5360e01b81526001600160a01b0385811660048301529190911690634f129c5390602401602060405180830381865afa15801562000480573d6000803e3d6000fd5b505050506040513d601f19601f82011682018060405250810190620004a6919062000c5d565b620004d057604051637eb56edb60e11b81526001600160a01b038416600482015260240162000318565b5080620004dd8162000c81565b915050620002a5565b506001600160a01b0386166000908152600a602052604090205460ff166200052d57604051631ec7bcd360e01b81526001600160a01b038716600482015260240162000318565b60006200053a876200062a565b9050896001600160a01b0316816001600160a01b031614620005835760405163298473c760e11b81526001600160a01b0380831660048301528b16602482015260440162000318565b600d8054610100600160a81b031981166101006001600160a01b038b160290811783558892916001600160a81b03191660ff199091161760018381811115620005d057620005d062000c47565b021790555050600d8054600160a81b600160e81b031916600160a81b426001600160401b03160217905550601180546001600160a01b0319166001600160a01b03929092169190911790555062000ca99650505050505050565b6001600160a01b0381166000908152600b602052604081205460ff1660018160028111156200065d576200065d62000c47565b14806200067e575060028160028111156200067c576200067c62000c47565b145b15620006f057826001600160a01b03166338d52e0f6040518163ffffffff1660e01b8152600401602060405180830381865afa158015620006c3573d6000803e3d6000fd5b505050506040513d601f19601f82011682018060405250810190620006e9919062000abc565b9392505050565b5090919050565b50919050565b82805482825590600052602060002090810192821562000755579160200282015b828111156200075557825182546001600160a01b0319166001600160a01b039091161782556020909201916001909101906200071e565b506200076392915062000767565b5090565b5b8082111562000763576000815560010162000768565b6001600160a01b03811681146200079457600080fd5b50565b8051620007a4816200077e565b919050565b634e487b7160e01b600052604160045260246000fd5b604051601f8201601f191681016001600160401b0381118282101715620007ea57620007ea620007a9565b604052919050565b60006001600160401b038211156200080e576200080e620007a9565b5060051b60200190565b600082601f8301126200082a57600080fd5b81516020620008436200083d83620007f2565b620007bf565b82815260059290921b840181019181810190868411156200086357600080fd5b8286015b848110156200088b5780516200087d816200077e565b835291830191830162000867565b509695505050505050565b600082601f830112620008a857600080fd5b81516020620008bb6200083d83620007f2565b82815260059290921b84018101918181019086841115620008db57600080fd5b8286015b848110156200088b57805160038110620008f95760008081fd5b8352918301918301620008df565b805160028110620007a457600080fd5b600082601f8301126200092957600080fd5b81516001600160401b03811115620009455762000945620007a9565b60206200095b601f8301601f19168201620007bf565b82815285828487010111156200097057600080fd5b60005b838110156200099057858101830151828201840152820162000973565b506000928101909101919091529392505050565b60008060008060008060008060006101208a8c031215620009c457600080fd5b620009cf8a62000797565b9850620009df60208b0162000797565b60408b01519098506001600160401b0380821115620009fd57600080fd5b62000a0b8d838e0162000818565b985060608c015191508082111562000a2257600080fd5b62000a308d838e0162000896565b975062000a4060808d0162000797565b965062000a5060a08d0162000907565b955060c08c015191508082111562000a6757600080fd5b62000a758d838e0162000917565b945060e08c015191508082111562000a8c57600080fd5b5062000a9b8c828d0162000917565b92505062000aad6101008b0162000797565b90509295985092959850929598565b60006020828403121562000acf57600080fd5b8151620006e9816200077e565b600181811c9082168062000af157607f821691505b602082108103620006f757634e487b7160e01b600052602260045260246000fd5b601f82111562000b6057600081815260208120601f850160051c8101602086101562000b3b5750805b601f850160051c820191505b8181101562000b5c5782815560010162000b47565b5050505b505050565b81516001600160401b0381111562000b815762000b81620007a9565b62000b998162000b92845462000adc565b8462000b12565b602080601f83116001811462000bd1576000841562000bb85750858301515b600019600386901b1c1916600185901b17855562000b5c565b600085815260208120601f198616915b8281101562000c025788860151825594840194600190910190840162000be1565b508582101562000c215787850151600019600388901b60f8161c191681555b5050505050600190811b01905550565b634e487b7160e01b600052603260045260246000fd5b634e487b7160e01b600052602160045260246000fd5b60006020828403121562000c7057600080fd5b81518015158114620006e957600080fd5b60006001820162000ca257634e487b7160e01b600052601160045260246000fd5b5060010190565b60805160a05160c05160e05161010051610120516101405161016051615ff662000d8d6000396000818161071b01528181610c5a01528181612b4c01528181612d9301528181613a7b01528181613fe001528181614581015261496801526000818161058301528181610cf8015281816118d501528181611bca01528181611c2001528181611d3801528181612bce01528181612c0f015281816132b0015281816134e60152818161461f0152614ac20152600061384c0152600061389b01526000613876015260006137cf015260006137f9015260006138230152615ff66000f3fe608060405234801561001057600080fd5b50600436106104745760003560e01c806394bf804d11610257578063c046742211610146578063dff90b5b116100c3578063ef8b30f711610087578063ef8b30f714610aa3578063f7b24e0814610ab6578063fc44459114610abe578063fc4d43be14610ade578063fdd230b914610af157600080fd5b8063dff90b5b146109d2578063e39448e0146109da578063e753e600146109f4578063ecf7085814610a8b578063eef33eca14610a9457600080fd5b8063ce96cb771161010a578063ce96cb7714610973578063d505accf14610986578063d905777e14610999578063dd62ed3e146109ac578063df05a52a146109bf57600080fd5b8063c046742214610929578063c244245a1461093c578063c63d75b614610945578063c6e6f59214610958578063c85e5e131461096b57600080fd5b8063a8144e48116101d4578063b5292a9911610198578063b5292a99146108d4578063ba087652146108e7578063bdc8144b146108fa578063bdca91651461090d578063bf86d6901461091c57600080fd5b8063a8144e4814610880578063a9059cbb14610888578063b0a75d361461089b578063b3d7f6b9146108ae578063b460af94146108c157600080fd5b80639c552ca81161021b5780639c552ca8146108095780639c5f00c21461081c5780639e35c65b146108345780639fdb11b614610864578063a457c2d71461086d57600080fd5b806394bf804d146107a557806395d89b41146107b857806396d64879146107c057806399fbab88146107e35780639b6fd18e146107f657600080fd5b8063402d267d116103735780636ff1c02a116102f05780637b3baab4116102b45780637b3baab41461073d5780637ecebe0014610757578063802758601461076a5780638b0cebf71461077f5780638da5cb5b1461079257600080fd5b80636ff1c02a146106c257806370a08231146106d157806370af7df6146106fa578063721637151461070d5780637b1039991461071657600080fd5b8063583845731161033757806358384573146106795780635a400d251461068c5780635e2c576e146106945780636e553f651461069c5780636e85f183146106af57600080fd5b8063402d267d1461060a578063472090fe1461061d5780634cdad506146106405780634eca8a8314610653578063530a37141461066657600080fd5b806318160ddd11610401578063389a7294116103c5578063389a72941461056b57806338d52e0f1461057e57806339509351146105bd5780633998a681146105d05780633cf99a46146105f757600080fd5b806318160ddd1461052057806323b872dd146105285780632f3b5a131461053b578063313ce5671461054e5780633644e5151461056357600080fd5b806307a2d13a1161044857806307a2d13a146104ba578063095ea7b3146104cd5780630a28a477146104f05780630a680e181461050357806313af40351461050d57600080fd5b806251a3b71461047957806301e1d114146104945780630402ab631461049c57806306fdde03146104a5575b600080fd5b610481600881565b6040519081526020015b60405180910390f35b610481610b04565b610481611c2081565b6104ad610d6a565b60405161048b91906157a3565b6104816104c83660046157d6565b610dfc565b6104e06104db366004615804565b610e15565b604051901515815260200161048b565b6104816104fe3660046157d6565b610e2d565b61050b610e62565b005b61050b61051b366004615830565b610eff565b600254610481565b6104e061053636600461584d565b610f75565b61050b61054936600461589b565b610f9b565b60125b60405160ff909116815260200161048b565b61048161102c565b6104816105793660046158b8565b61103b565b6105a57f000000000000000000000000000000000000000000000000000000000000000081565b6040516001600160a01b03909116815260200161048b565b6104e06105cb366004615804565b6112ab565b6105df6702c68af0bb14000081565b6040516001600160401b03909116815260200161048b565b61050b61060536600461596a565b6112cd565b610481610618366004615830565b61139f565b6104e061062b366004615830565b600a6020526000908152604090205460ff1681565b61048161064e3660046157d6565b611447565b61050b610661366004615993565b61146f565b61050b6106743660046157d6565b6115d9565b61050b6106873660046159c3565b611683565b610481600281565b61050b6117ca565b6104816106aa366004615993565b611852565b61050b6106bd3660046157d6565b611964565b6105df67016345785d8a000081565b6104816106df366004615830565b6001600160a01b031660009081526020819052604090205490565b61050b61070836600461596a565b6119f7565b61048160125481565b6105a57f000000000000000000000000000000000000000000000000000000000000000081565b600d546105df90600160a81b90046001600160401b031681565b610481610765366004615830565b611ace565b610772611aec565b60405161048b91906159e5565b61050b61078d366004615830565b611b4d565b6007546105a5906001600160a01b031681565b6104816107b3366004615993565b611cb5565b6104ad611dbb565b6104e06107ce366004615830565b600c6020526000908152604090205460ff1681565b6105a56107f13660046157d6565b611dca565b61050b61080436600461596a565b611df4565b61050b6108173660046157d6565b611eba565b600d546105a59061010090046001600160a01b031681565b610857610842366004615830565b600b6020526000908152604090205460ff1681565b60405161048b9190615a48565b61048160155481565b6104e061087b366004615804565b611f50565b610481611fd6565b6104e0610896366004615804565b612112565b61050b6108a9366004615830565b612120565b6104816108bc3660046157d6565b6121b3565b6104816108cf366004615a62565b6121e0565b61050b6108e236600461596a565b612300565b6104816108f5366004615a62565b6123dc565b61050b6109083660046157d6565b612505565b6105df6706f05b59d3b2000081565b6014546104e09060ff1681565b61050b6109373660046157d6565b612570565b61048160175481565b610481610953366004615830565b61269f565b6104816109663660046157d6565b6126c4565b61050b6126d7565b610481610981366004615830565b612749565b61050b610994366004615ab3565b612756565b6104816109a7366004615830565b6128ba565b6104816109ba366004615b24565b6128c7565b61050b6109cd3660046157d6565b6128f2565b61050b61295d565b600d546109e79060ff1681565b60405161048b9190615b62565b600e54600f54601054601154610a3c93926001600160401b0380821693600160401b8304821693600160801b8404831693600160c01b9004909216916001600160a01b031687565b604080519788526001600160401b039687166020890152948616948701949094529184166060860152909216608084015260a08301919091526001600160a01b031660c082015260e00161048b565b61048160135481565b6105df670de0b6b3a764000081565b610481610ab13660046157d6565b612ccd565b610551602081565b610481610acc366004615830565b60166020526000908152604090205481565b61050b610aec366004615b6f565b612cf5565b61050b610aff366004615830565b612ed6565b60095460009081816001600160401b03811115610b2357610b23615ba1565b604051908082528060200260200182016040528015610b4c578160200160208202803683370190505b5090506000826001600160401b03811115610b6957610b69615ba1565b604051908082528060200260200182016040528015610b92578160200160208202803683370190505b50905060005b83811015610c4057600060098281548110610bb557610bb5615bb7565b6000918252602090912001546001600160a01b03169050610bd581613077565b848381518110610be757610be7615bb7565b60200260200101906001600160a01b031690816001600160a01b031681525050610c1081613138565b838381518110610c2257610c22615bb7565b60209081029190910101525080610c3881615be3565b915050610b98565b50604051635c9fcd8560e11b8152600260048201526000907f00000000000000000000000000000000000000000000000000000000000000006001600160a01b03169063b93f9b0a90602401602060405180830381865afa158015610ca9573d6000803e3d6000fd5b505050506040513d601f19601f82011682018060405250810190610ccd9190615bfc565b60405163b333a17560e01b81529091506001600160a01b0382169063b333a17590610d2090869086907f000000000000000000000000000000000000000000000000000000000000000090600401615c19565b602060405180830381865afa158015610d3d573d6000803e3d6000fd5b505050506040513d601f19601f82011682018060405250810190610d619190615cab565b94505050505090565b606060038054610d7990615cc4565b80601f0160208091040260200160405190810160405280929190818152602001828054610da590615cc4565b8015610df25780601f10610dc757610100808354040283529160200191610df2565b820191906000526020600020905b815481529060010190602001808311610dd557829003601f168201915b5050505050905090565b6000610e0f82610e0a610b04565b613285565b92915050565b600033610e23818585613338565b5060019392505050565b600080610e38610b04565b90506000610e458261345c565b9050610e5a84610e558385615cf8565b6134c2565b949350505050565b60145460ff1615610e86576040516337a5332d60e11b815260040160405180910390fd5b6007546001600160a01b03163314610eb95760405162461bcd60e51b8152600401610eb090615d0b565b60405180910390fd5b6014805460ff191660019081179091556040519081527fb8527b93c36dabdfe078af41be789ba946a4adcfeafcf9d8de21d51629859e3c906020015b60405180910390a1565b6007546001600160a01b03163314610f295760405162461bcd60e51b8152600401610eb090615d0b565b600780546001600160a01b0319166001600160a01b03831690811790915560405133907f8292fce18fa69edf4db7b94ea2e58241df0ae57f97e0a6c9b29067028bf92d7690600090a350565b600033610f8385828561356f565b610f8e8585856135e9565b60019150505b9392505050565b6007546001600160a01b03163314610fc55760405162461bcd60e51b8152600401610eb090615d0b565b600d546040517f19365927bf52f7e956d376b3546402dda3827c062c7a6942431a255d212947e891610ffe9160ff909116908490615d31565b60405180910390a1600d805482919060ff19166001838181111561102457611024615a32565b021790555050565b60006110366137c2565b905090565b6007546000906001600160a01b031633146110685760405162461bcd60e51b8152600401610eb090615d0b565b60145460ff161561108c576040516337a5332d60e11b815260040160405180910390fd5b6008546001146110ae5760405162461bcd60e51b8152600401610eb090615d57565b60026008556001600160a01b0386166000908152600a602052604090205460ff166110f757604051631ec7bcd360e01b81526001600160a01b0387166004820152602401610eb0565b6000611101610b04565b9050600061110e60025490565b905061111b8988306138e9565b60006111268a613077565b905060006111338a613077565b9050806001600160a01b0316826001600160a01b0316036111545788611163565b61116382828b8b8b8b306139de565b945061116f8a86613c0d565b600061119a601754670de0b6b3a764000061118a9190615cf8565b8690670de0b6b3a7640000613d4c565b905060006111c7601754670de0b6b3a76400006111b79190615d7b565b8790670de0b6b3a7640000613d7a565b90506111d1610b04565b9550808611806111e057508186105b1561120f5760405163628cc47560e11b8152600481018790526024810183905260448101829052606401610eb0565b600254851461123f57600254604051632b40145960e21b8152600481019190915260248101869052604401610eb0565b8b6001600160a01b03168d6001600160a01b03167ffea7a9a6e25cd0bbbfa80ce0c7646e61ee5e0551b3fdaaff0642e6f6adcc72e28d8a60405161128d929190918252602082015260400190565b60405180910390a35050600160085550929998505050505050505050565b600033610e238185856112be83836128c7565b6112c89190615d7b565b613338565b6007546001600160a01b031633146112f75760405162461bcd60e51b8152600401610eb090615d0b565b6706f05b59d3b200006001600160401b038216111561132957604051632e15286d60e11b815260040160405180910390fd5b600f5460408051600160c01b9092046001600160401b039081168352831660208301527f27dd3ae8ff7f5e3d77ae68ed36dc780d2ab40a4ffdda18d805cb41eea39c2894910160405180910390a1600f80546001600160401b03909216600160c01b026001600160c01b03909216919091179055565b60145460009060ff16156113b557506000919050565b601354601254600019821480156113cd575060001981145b156113dd57506000199392505050565b60006113e7610b04565b9050600061141361140d876001600160a01b031660009081526020819052604090205490565b83613285565b905060006114218583613d99565b9050600061142f8585613d99565b905061143b8282613db3565b98975050505050505050565b600080611452610b04565b9050600061145f8261345c565b9050610e5a84610e0a8385615cf8565b6007546001600160a01b031633146114995760405162461bcd60e51b8152600401610eb090615d0b565b60145460ff16156114bd576040516337a5332d60e11b815260040160405180910390fd5b6009546020116114e35760405163f025236d60e01b815260206004820152602401610eb0565b6001600160a01b0381166000908152600c602052604090205460ff166115275760405163699f66b160e11b81526001600160a01b0382166004820152602401610eb0565b6001600160a01b0381166000908152600a602052604090205460ff161561156c57604051630af67d9160e31b81526001600160a01b0382166004820152602401610eb0565b61157860098383613dc2565b6001600160a01b0381166000818152600a602052604090819020805460ff19166001179055517fcff5c8a08884d2fad939a9e0f0bf729a4f9af6111a573b4d1f11396c8711646d906115cd9085815260200190565b60405180910390a25050565b6007546001600160a01b031633146116035760405162461bcd60e51b8152600401610eb090615d0b565b67016345785d8a000081111561163d576040516302d2a90f60e51b81526004810182905267016345785d8a00006024820152604401610eb0565b601780549082905560408051828152602081018490527fdf4be33b2e9e3dd4d9e0e85645aea428494a0644a72c51d6a15aedae6b66a3ff91015b60405180910390a15050565b6007546001600160a01b031633146116ad5760405162461bcd60e51b8152600401610eb090615d0b565b6000600982815481106116c2576116c2615bb7565b6000918252602082200154600980546001600160a01b03909216935090859081106116ef576116ef615bb7565b9060005260206000200160009054906101000a90046001600160a01b0316905081816009868154811061172457611724615bb7565b9060005260206000200160006009878154811061174357611743615bb7565b60009182526020918290200180546001600160a01b039586166001600160a01b031990911617905582549484166101009290920a918202918402199094161790556040805187815292830186905283821692918516917f3cae4f5796f9d19fa1dcfaacae5a9811c008f6f517a3ec689d903d6f699e4955910160405180910390a350505050565b6007546001600160a01b031633146117f45760405162461bcd60e51b8152600401610eb090615d0b565b60145460ff166118175760405163ec7165bf60e01b815260040160405180910390fd5b6014805460ff19169055604051600081527fb8527b93c36dabdfe078af41be789ba946a4adcfeafcf9d8de21d51629859e3c90602001610ef5565b60006008546001146118765760405162461bcd60e51b8152600401610eb090615d57565b60026008556000611885610b04565b905061189081613f3b565b61189a8482613f78565b9150816000036118bd5760405163426f153760e11b815260040160405180910390fd5b6118c8848385613f97565b6118fd6001600160a01b037f0000000000000000000000000000000000000000000000000000000000000000163330876140ca565b6119078383614135565b60408051858152602081018490526001600160a01b0385169133917fdcbc1c05240f31ff3ad067ef1ee35ce4997762752e3a095284754544f4c709d7910160405180910390a3611958848385614220565b50600160085592915050565b6007546001600160a01b0316331461198e5760405162461bcd60e51b8152600401610eb090615d0b565b6001600160a01b038111156119b65760405163019b5e3160e21b815260040160405180910390fd5b60105460408051918252602082018390527f513ac19cbbaaad4e450c732ed37635178b7d83bf8e84a940ffe7e052c9c7caa2910160405180910390a1601055565b6007546001600160a01b03163314611a215760405162461bcd60e51b8152600401610eb090615d0b565b6702c68af0bb1400006001600160401b0382161115611a5357604051632e15286d60e11b815260040160405180910390fd5b600f5460408051600160801b9092046001600160401b039081168352831660208301527f44ada261ff5c9aacbf8d0687294799c8e3e0810ecc1eafd97419dfc31db5d523910160405180910390a1600f80546001600160401b03909216600160801b0267ffffffffffffffff60801b19909216919091179055565b6001600160a01b038116600090815260056020526040812054610e0f565b60606009805480602002602001604051908101604052809291908181526020018280548015610df257602002820191906000526020600020905b81546001600160a01b03168152600190910190602001808311611b26575050505050905090565b6007546001600160a01b03163314611b775760405162461bcd60e51b8152600401610eb090615d0b565b6001600160a01b0381166000908152600a602052604090205460ff16611bbb57604051631ec7bcd360e01b81526001600160a01b0382166004820152602401610eb0565b6000611bc682613077565b90507f00000000000000000000000000000000000000000000000000000000000000006001600160a01b0316816001600160a01b031614611c4d5760405163298473c760e11b81526001600160a01b0380831660048301527f0000000000000000000000000000000000000000000000000000000000000000166024820152604401610eb0565b600d546040516001600160a01b0380851692610100900416907f7f835fbf43c4d05a9c4ea5cafa09fbb3b0307d12956ceedce43fd7a339e5046e90600090a350600d80546001600160a01b0390921661010002610100600160a81b0319909216919091179055565b6000600854600114611cd95760405162461bcd60e51b8152600401610eb090615d57565b60026008556000611ce8610b04565b9050611cf381613f3b565b611cfd8482614259565b915081600003611d2057604051639768300560e01b815260040160405180910390fd5b611d2b828585613f97565b611d606001600160a01b037f0000000000000000000000000000000000000000000000000000000000000000163330856140ca565b611d6a8385614135565b60408051838152602081018690526001600160a01b0385169133917fdcbc1c05240f31ff3ad067ef1ee35ce4997762752e3a095284754544f4c709d7910160405180910390a3611958828585614220565b606060048054610d7990615cc4565b60098181548110611dda57600080fd5b6000918252602090912001546001600160a01b0316905081565b6007546001600160a01b03163314611e1e5760405162461bcd60e51b8152600401610eb090615d0b565b670de0b6b3a76400006001600160401b0382161115611e5057604051633d0203e560e01b815260040160405180910390fd5b600f54604080516001600160401b03928316815291831660208301527fc79399093f73f1ff8c2f8279aa9e8803b694c60016c344ecfc2a89fd77c004db910160405180910390a1600f805467ffffffffffffffff19166001600160401b0392909216919091179055565b6007546001600160a01b03163314611ee45760405162461bcd60e51b8152600401610eb090615d0b565b6008811080611ef45750611c2081115b15611f1257604051633a60233f60e21b815260040160405180910390fd5b601580549082905560408051828152602081018490527f227ff5c6b5ffb395236b09fd1b472bb128b36eaa17556633feefe28e94411f249101611677565b60003381611f5e82866128c7565b905083811015611fbe5760405162461bcd60e51b815260206004820152602560248201527f45524332303a2064656372656173656420616c6c6f77616e63652062656c6f77604482015264207a65726f60d81b6064820152608401610eb0565b611fcb8286868403613338565b506001949350505050565b60095460009081816001600160401b03811115611ff557611ff5615ba1565b60405190808252806020026020018201604052801561201e578160200160208202803683370190505b5090506000826001600160401b0381111561203b5761203b615ba1565b604051908082528060200260200182016040528015612064578160200160208202803683370190505b50905060005b83811015610c405760006009828154811061208757612087615bb7565b6000918252602090912001546001600160a01b031690506120a781613077565b8483815181106120b9576120b9615bb7565b60200260200101906001600160a01b031690816001600160a01b0316815250506120e281614278565b8383815181106120f4576120f4615bb7565b6020908102919091010152508061210a81615be3565b91505061206a565b600033610e238185856135e9565b6007546001600160a01b0316331461214a5760405162461bcd60e51b8152600401610eb090615d0b565b601154604080516001600160a01b03928316815291831660208301527f51dbb5a65bb22737861a63ec12ba6ce78a98631e9404b0567a2eaf7a06fc544d910160405180910390a1601180546001600160a01b0319166001600160a01b0392909216919091179055565b6000806121be610b04565b905060006121cb8261345c565b9050610e5a846121db8385615cf8565b614259565b60006008546001146122045760405162461bcd60e51b8152600401610eb090615d57565b60026008556000808080806122176142f6565b9450945094509450945061222a85613f3b565b61223489866134c2565b955061224289878a8a614693565b61224c87876146c2565b600061225760025490565b905061226388886146dd565b604080518b8152602081018990526001600160a01b03808b1692908c169133917ffbde797d201c681b91056529119e0b02407c7bb96a4a2c75c01fc9667232c8db910160405180910390a46000600d5460ff1660018111156122c7576122c7615a32565b146122df576122da87828b888787614837565b6122ed565b6122ed8a8a8787878761494f565b5050600160085550929695505050505050565b6007546001600160a01b0316331461232a5760405162461bcd60e51b8152600401610eb090615d0b565b670de0b6b3a76400006001600160401b038216111561235c57604051633d0203e560e01b815260040160405180910390fd5b600f5460408051600160401b9092046001600160401b039081168352831660208301527fb5cc994a260a85a42d6588668221571ae0a14f0a28f9e4817a5195262102c868910160405180910390a1600f80546001600160401b03909216600160401b026fffffffffffffffff000000000000000019909216919091179055565b60006008546001146124005760405162461bcd60e51b8152600401610eb090615d57565b60026008556000808080806124136142f6565b9450945094509450945061242685613f3b565b612430878a6146c2565b61243a8986613285565b95508560000361245d57604051639768300560e01b815260040160405180910390fd5b612469868a8a8a614693565b600061247460025490565b9050612480888b6146dd565b60408051888152602081018c90526001600160a01b03808b1692908c169133917ffbde797d201c681b91056529119e0b02407c7bb96a4a2c75c01fc9667232c8db910160405180910390a46000600d5460ff1660018111156124e4576124e4615a32565b146124f7576122da8a828b888787614837565b6122da878a8787878761494f565b6007546001600160a01b0316331461252f5760405162461bcd60e51b8152600401610eb090615d0b565b60135460408051918252602082018390527fcfb5a454b8aa7dc04ecb5bc1410b2a57969ca1d67f66d565196f60c6f9975404910160405180910390a1601355565b6007546001600160a01b0316331461259a5760405162461bcd60e51b8152600401610eb090615d0b565b6000600982815481106125af576125af615bb7565b60009182526020822001546001600160a01b031691506125ce82613138565b9050801561260157604051638454689f60e01b81526001600160a01b038316600482015260248101829052604401610eb0565b600d546001600160a01b036101009091048116908316036126355760405163747795ff60e11b815260040160405180910390fd5b612640600984614c9e565b6001600160a01b0382166000818152600a602052604090819020805460ff19169055517f03c78e4e20a72b1f577a63b54524c684ce73d2e414970ee606bb0b7a9004aa9c906126929086815260200190565b60405180910390a2505050565b6000806126ab8361139f565b90506000198114610e0f576126bf816126c4565b610f94565b6000610e0f826126d2610b04565b613f78565b6007546001600160a01b031633146127015760405162461bcd60e51b8152600401610eb090615d0b565b600061270b610b04565b600e8190556040518181529091507f875561ddc342b12981103d85be8db6375a88982d4cf58d411e38715ae46833309060200160405180910390a150565b6000610e0f826000614db8565b834211156127a65760405162461bcd60e51b815260206004820152601d60248201527f45524332305065726d69743a206578706972656420646561646c696e650000006044820152606401610eb0565b60007f6e71edae12b1b97f4d1f60370fef10105fa2faae0126114a169c64845d6126c98888886127d58c615001565b6040805160208101969096526001600160a01b0394851690860152929091166060840152608083015260a082015260c0810186905260e001604051602081830303815290604052805190602001209050600061283082615027565b9050600061284082878787615075565b9050896001600160a01b0316816001600160a01b0316146128a35760405162461bcd60e51b815260206004820152601e60248201527f45524332305065726d69743a20696e76616c6964207369676e617475726500006044820152606401610eb0565b6128ae8a8a8a613338565b50505050505050505050565b6000610e0f826001614db8565b6001600160a01b03918216600090815260016020908152604080832093909416825291909152205490565b6007546001600160a01b0316331461291c5760405162461bcd60e51b8152600401610eb090615d0b565b60125460408051918252602082018390527f1f21432dd7b8ead64d2e7c06a74baf13783b2d2f7153f099e2c4cabc3c5dbec6910160405180910390a1601255565b60085460011461297f5760405162461bcd60e51b8152600401610eb090615d57565b60026008556011546001600160a01b0316806129ae5760405163dc13611360e01b815260040160405180910390fd5b60006129b8610b04565b90506129c381613f3b565b30600090815260208190526040812054600f549091906129ed9083906001600160401b031661509d565b600d54909150600090612a1090600160a81b90046001600160401b031642615cf8565b600f549091506000906301e1338090670de0b6b3a764000090600160801b90046001600160401b0316612a438589615d8e565b612a4d9190615d8e565b612a579190615dad565b612a619190615dad565b90506000612a77612a728388613f78565b6150b2565b9050612a833082614135565b612a8d8186615d7b565b600f54909550612aae908290600160401b90046001600160401b031661509d565b612ab89085615d7b565b93508315612ad857612acb3088866135e9565b612ad58486615cf8565b94505b600d805467ffffffffffffffff60a81b19164263ffffffff16600160a81b021790556000612b068688613285565b90508015612c855780600e6000016000828254612b239190615cf8565b90915550612b33905030876146dd565b604051635c9fcd8560e11b8152600060048201819052907f00000000000000000000000000000000000000000000000000000000000000006001600160a01b03169063b93f9b0a90602401602060405180830381865afa158015612b9b573d6000803e3d6000fd5b505050506040513d601f19601f82011682018060405250810190612bbf9190615bfc565b9050612bf56001600160a01b037f00000000000000000000000000000000000000000000000000000000000000001682846150e1565b601054604051631ffbe7f960e01b81526001600160a01b037f00000000000000000000000000000000000000000000000000000000000000008116600483015260248201929092526044810184905290821690631ffbe7f990606401600060405180830381600087803b158015612c6b57600080fd5b505af1158015612c7f573d6000803e3d6000fd5b50505050505b60408051878152602081018390527f15e3e2a76a6839c244c1ed0a821c233ce8af552dffcb856089eae6cbbbb71ea6910160405180910390a150506001600855505050505050565b600080612cd8610b04565b90506000612ce58261345c565b9050610e5a846126d28385615cf8565b6007546001600160a01b03163314612d1f5760405162461bcd60e51b8152600401610eb090615d0b565b6001600160a01b0382166000908152600c602090815260408083208054600160ff199182168117909255600b90935292208054849391921690836002811115612d6a57612d6a615a32565b02179055506000612d7a83613077565b604051635c9fcd8560e11b8152600260048201529091507f00000000000000000000000000000000000000000000000000000000000000006001600160a01b03169063b93f9b0a90602401602060405180830381865afa158015612de2573d6000803e3d6000fd5b505050506040513d601f19601f82011682018060405250810190612e069190615bfc565b604051634f129c5360e01b81526001600160a01b0383811660048301529190911690634f129c5390602401602060405180830381865afa158015612e4e573d6000803e3d6000fd5b505050506040513d601f19601f82011682018060405250810190612e729190615dcf565b612e9a57604051637eb56edb60e11b81526001600160a01b0382166004820152602401610eb0565b604051600181526001600160a01b038416907fd600b9348603c6deff34b4e0b28b60e1c8036c806741b9e6d90032e7f37dd27f90602001612692565b6007546001600160a01b03163314612f005760405162461bcd60e51b8152600401610eb090615d0b565b60145460ff1615612f24576040516337a5332d60e11b815260040160405180910390fd5b600954602011612f4a5760405163f025236d60e01b815260206004820152602401610eb0565b6001600160a01b0381166000908152600c602052604090205460ff16612f8e5760405163699f66b160e11b81526001600160a01b0382166004820152602401610eb0565b6001600160a01b0381166000908152600a602052604090205460ff1615612fd357604051630af67d9160e31b81526001600160a01b0382166004820152602401610eb0565b60098054600180820183557f6e1540171b6c0c960b71a7020d9f60077f6af931a8bbf590da0223dacf75c7af90910180546001600160a01b0319166001600160a01b0385169081179091556000818152600a60205260409020805460ff19168317905591547fcff5c8a08884d2fad939a9e0f0bf729a4f9af6111a573b4d1f11396c8711646d9161306391615cf8565b60405190815260200160405180910390a250565b6001600160a01b0381166000908152600b602052604081205460ff1660018160028111156130a7576130a7615a32565b14806130c4575060028160028111156130c2576130c2615a32565b145b1561312b57826001600160a01b03166338d52e0f6040518163ffffffff1660e01b8152600401602060405180830381865afa158015613107573d6000803e3d6000fd5b505050506040513d601f19601f82011682018060405250810190610f949190615bfc565b5090919050565b50919050565b6001600160a01b0381166000908152600b602052604081205460ff16600181600281111561316857613168615a32565b14806131855750600281600281111561318357613183615a32565b145b15613259576040516370a0823160e01b81523060048201526001600160a01b03841690634cdad5069082906370a0823190602401602060405180830381865afa1580156131d6573d6000803e3d6000fd5b505050506040513d601f19601f820116820180604052508101906131fa9190615cab565b6040518263ffffffff1660e01b815260040161321891815260200190565b602060405180830381865afa158015613235573d6000803e3d6000fd5b505050506040513d601f19601f82011682018060405250810190610f949190615cab565b6040516370a0823160e01b81523060048201526001600160a01b038416906370a0823190602401613218565b60008061329160025490565b905080156132a9576132a4848483613d7a565b610e5a565b610e5a60127f00000000000000000000000000000000000000000000000000000000000000006001600160a01b031663313ce5676040518163ffffffff1660e01b8152600401602060405180830381865afa15801561330c573d6000803e3d6000fd5b505050506040513d601f19601f820116820180604052508101906133309190615df1565b8691906151f6565b6001600160a01b03831661339a5760405162461bcd60e51b8152602060048201526024808201527f45524332303a20617070726f76652066726f6d20746865207a65726f206164646044820152637265737360e01b6064820152608401610eb0565b6001600160a01b0382166133fb5760405162461bcd60e51b815260206004820152602260248201527f45524332303a20617070726f766520746f20746865207a65726f206164647265604482015261737360f01b6064820152608401610eb0565b6001600160a01b0383811660008181526001602090815260408083209487168084529482529182902085905590518481527f8c5be1e5ebec7d5bd14f71427d1e84f3dd0314c0f7b2291e5b200ac8c7c3b925910160405180910390a3505050565b600f54600090600160c01b90046001600160401b031680158061347d575082155b1561348b5750600092915050565b600e54808411156134bb5760006134a28286615cf8565b90506134b7816001600160401b03851661509d565b9350505b5050919050565b6000806134ce60025490565b905080156134e1576132a4848285613d4c565b610e5a7f00000000000000000000000000000000000000000000000000000000000000006001600160a01b031663313ce5676040518163ffffffff1660e01b8152600401602060405180830381865afa158015613542573d6000803e3d6000fd5b505050506040513d601f19601f820116820180604052508101906135669190615df1565b859060126151f6565b600061357b84846128c7565b905060001981146135e357818110156135d65760405162461bcd60e51b815260206004820152601d60248201527f45524332303a20696e73756666696369656e7420616c6c6f77616e63650000006044820152606401610eb0565b6135e38484848403613338565b50505050565b6001600160a01b03831661364d5760405162461bcd60e51b815260206004820152602560248201527f45524332303a207472616e736665722066726f6d20746865207a65726f206164604482015264647265737360d81b6064820152608401610eb0565b6001600160a01b0382166136af5760405162461bcd60e51b815260206004820152602360248201527f45524332303a207472616e7366657220746f20746865207a65726f206164647260448201526265737360e81b6064820152608401610eb0565b6136ba83838361525f565b6001600160a01b038316600090815260208190526040902054818110156137325760405162461bcd60e51b815260206004820152602660248201527f45524332303a207472616e7366657220616d6f756e7420657863656564732062604482015265616c616e636560d01b6064820152608401610eb0565b6001600160a01b03808516600090815260208190526040808220858503905591851681529081208054849290613769908490615d7b565b92505081905550826001600160a01b0316846001600160a01b03167fddf252ad1be2c89b69c2b068fc378daa952ba7f163c4a11628f55a4df523b3ef846040516137b591815260200190565b60405180910390a36135e3565b6000306001600160a01b037f00000000000000000000000000000000000000000000000000000000000000001614801561381b57507f000000000000000000000000000000000000000000000000000000000000000046145b1561384557507f000000000000000000000000000000000000000000000000000000000000000090565b50604080517f00000000000000000000000000000000000000000000000000000000000000006020808301919091527f0000000000000000000000000000000000000000000000000000000000000000828401527f000000000000000000000000000000000000000000000000000000000000000060608301524660808301523060a0808401919091528351808403909101815260c0909201909252805191012090565b6001600160a01b0383166000908152600b602052604090205460ff16600181600281111561391957613919615a32565b14806139365750600281600281111561393457613934615a32565b145b156139ba57604051632d182be560e21b8152600481018490526001600160a01b03838116602483015230604483015285169063b460af94906064016020604051808303816000875af1158015613990573d6000803e3d6000fd5b505050506040513d601f19601f820116820180604052508101906139b49190615cab565b506135e3565b6001600160a01b03821630146135e3576135e36001600160a01b0385168385615268565b6040516370a0823160e01b8152306004820152600090819087906001600160a01b038b16906370a0823190602401602060405180830381865afa158015613a29573d6000803e3d6000fd5b505050506040513d601f19601f82011682018060405250810190613a4d9190615cab565b613a579190615cf8565b604051635c9fcd8560e11b8152600160048201529091506000906001600160a01b037f0000000000000000000000000000000000000000000000000000000000000000169063b93f9b0a90602401602060405180830381865afa158015613ac2573d6000803e3d6000fd5b505050506040513d601f19601f82011682018060405250810190613ae69190615bfc565b9050613afc6001600160a01b038b16828a6150e1565b806001600160a01b0316632dfe1690888888888f8f6040518763ffffffff1660e01b8152600401613b3296959493929190615e0e565b6020604051808303816000875af1158015613b51573d6000803e3d6000fd5b505050506040513d601f19601f82011682018060405250810190613b759190615cab565b6040516370a0823160e01b815230600482015290935082906001600160a01b038c16906370a0823190602401602060405180830381865afa158015613bbe573d6000803e3d6000fd5b505050506040513d601f19601f82011682018060405250810190613be29190615cab565b14613c0057604051630a9213b560e21b815260040160405180910390fd5b5050979650505050505050565b6001600160a01b0382166000908152600b602052604090205460ff166001816002811115613c3d57613c3d615a32565b1480613c5a57506002816002811115613c5857613c58615a32565b145b15613d4757613cd68383856001600160a01b03166338d52e0f6040518163ffffffff1660e01b8152600401602060405180830381865afa158015613ca2573d6000803e3d6000fd5b505050506040513d601f19601f82011682018060405250810190613cc69190615bfc565b6001600160a01b031691906150e1565b604051636e553f6560e01b8152600481018390523060248201526001600160a01b03841690636e553f65906044016020604051808303816000875af1158015613d23573d6000803e3d6000fd5b505050506040513d601f19601f820116820180604052508101906135e39190615cab565b505050565b828202811515841585830485141716613d6457600080fd5b6001826001830304018115150290509392505050565b828202811515841585830485141716613d9257600080fd5b0492915050565b6000818311613da9576000610f94565b610f948284615cf8565b600081831061312b5781610f94565b82548015613f08578380613dd7600184615cf8565b81548110613de757613de7615bb7565b600091825260208083209091015483546001818101865594845291832090910180546001600160a01b0319166001600160a01b0390921691909117905590613e2f9083615cf8565b90505b83811115613ec15784613e46600183615cf8565b81548110613e5657613e56615bb7565b9060005260206000200160009054906101000a90046001600160a01b0316858281548110613e8657613e86615bb7565b600091825260209091200180546001600160a01b0319166001600160a01b039290921691909117905580613eb981615e6b565b915050613e32565b5081848481548110613ed557613ed5615bb7565b9060005260206000200160006101000a8154816001600160a01b0302191690836001600160a01b031602179055506135e3565b83546001810185556000858152602090200180546001600160a01b0384166001600160a01b031990911617905550505050565b6000613f468261345c565b90508015613f74576000613f5d612a728385613f78565b90508015613d4757600e839055613d473082614135565b5050565b600080613f8460025490565b905080156134e1576132a4848285613d7a565b60145460ff1615613fbb576040516337a5332d60e11b815260040160405180910390fd5b336001600160a01b0382161461407257604051635551e1b560e01b81523360048201527f00000000000000000000000000000000000000000000000000000000000000006001600160a01b031690635551e1b590602401602060405180830381865afa15801561402f573d6000803e3d6000fd5b505050506040513d601f19601f820116820180604052508101906140539190615dcf565b614072576040516334871f2560e21b8152336004820152602401610eb0565b600061407d8261139f565b9050808411156140aa57604051632d21eb8760e21b81526004810185905260248101829052604401610eb0565b83600e60000160008282546140bf9190615d7b565b909155505050505050565b6040516001600160a01b03808516602483015283166044820152606481018290526135e39085906323b872dd60e01b906084015b60408051601f198184030181529190526020810180516001600160e01b03166001600160e01b031990931692909217909152615298565b6001600160a01b03821661418b5760405162461bcd60e51b815260206004820152601f60248201527f45524332303a206d696e7420746f20746865207a65726f2061646472657373006044820152606401610eb0565b6141976000838361525f565b80600260008282546141a99190615d7b565b90915550506001600160a01b038216600090815260208190526040812080548392906141d6908490615d7b565b90915550506040518181526001600160a01b038316906000907fddf252ad1be2c89b69c2b068fc378daa952ba7f163c4a11628f55a4df523b3ef9060200160405180910390a35050565b600d5461423b9061010090046001600160a01b031684613c0d565b6001600160a01b031660009081526016602052604090204390555050565b60008061426560025490565b905080156132a9576132a4848483613d4c565b6001600160a01b0381166000908152600b602052604081205460ff1660018160028111156142a8576142a8615a32565b14806142c5575060028160028111156142c3576142c3615a32565b145b156132595760405163ce96cb7760e01b81523060048201526001600160a01b0384169063ce96cb7790602401613218565b600954600090606090819081908190806001600160401b0381111561431d5761431d615ba1565b604051908082528060200260200182016040528015614346578160200160208202803683370190505b509450806001600160401b0381111561436157614361615ba1565b60405190808252806020026020018201604052801561438a578160200160208202803683370190505b509350806001600160401b038111156143a5576143a5615ba1565b6040519080825280602002602001820160405280156143ce578160200160208202803683370190505b509250806001600160401b038111156143e9576143e9615ba1565b604051908082528060200260200182016040528015614412578160200160208202803683370190505b509250806001600160401b0381111561442d5761442d615ba1565b604051908082528060200260200182016040528015614456578160200160208202803683370190505b50915060005b818110156145675760006009828154811061447957614479615bb7565b9060005260206000200160009054906101000a90046001600160a01b03169050808783815181106144ac576144ac615bb7565b60200260200101906001600160a01b031690816001600160a01b0316815250506144d581613077565b8683815181106144e7576144e7615bb7565b60200260200101906001600160a01b031690816001600160a01b03168152505061451081613138565b85838151811061452257614522615bb7565b60200260200101818152505061453781614278565b84838151811061454957614549615bb7565b6020908102919091010152508061455f81615be3565b91505061445c565b50604051635c9fcd8560e11b8152600260048201526000907f00000000000000000000000000000000000000000000000000000000000000006001600160a01b03169063b93f9b0a90602401602060405180830381865afa1580156145d0573d6000803e3d6000fd5b505050506040513d601f19601f820116820180604052508101906145f49190615bfc565b60405163b333a17560e01b81529091506001600160a01b0382169063b333a1759061464790889088907f000000000000000000000000000000000000000000000000000000000000000090600401615c19565b602060405180830381865afa158015614664573d6000803e3d6000fd5b505050506040513d601f19601f820116820180604052508101906146889190615cab565b965050509091929394565b61469c8161536a565b600e548085116146b5576146b08582615cf8565b6146b8565b60005b600e555050505050565b336001600160a01b03831614613f7457613f7482338361356f565b6001600160a01b03821661473d5760405162461bcd60e51b815260206004820152602160248201527f45524332303a206275726e2066726f6d20746865207a65726f206164647265736044820152607360f81b6064820152608401610eb0565b6147498260008361525f565b6001600160a01b038216600090815260208190526040902054818110156147bd5760405162461bcd60e51b815260206004820152602260248201527f45524332303a206275726e20616d6f756e7420657863656564732062616c616e604482015261636560f01b6064820152608401610eb0565b6001600160a01b03831660009081526020819052604081208383039055600280548492906147ec908490615cf8565b90915550506040518281526000906001600160a01b038516907fddf252ad1be2c89b69c2b068fc378daa952ba7f163c4a11628f55a4df523b3ef9060200160405180910390a3505050565b60005b835181101561494657600084828151811061485757614857615bb7565b60200260200101519050600084838151811061487557614875615bb7565b602002602001015190508060000361488e575050614934565b600061489b828b8b613d7a565b90508484815181106148af576148af615bb7565b60200260200101518111156148e25760405163f2018f6f60e01b81526001600160a01b0384166004820152602401610eb0565b6148ed83828a6138e9565b826001600160a01b03167f94ad37a0f8935c0acdd1ccffe9aad296bfc8d0a1dd2d0cfbac79405c5f86ed828260405161492891815260200190565b60405180910390a25050505b8061493e81615be3565b91505061483a565b50505050505050565b604051635c9fcd8560e11b8152600260048201526000907f00000000000000000000000000000000000000000000000000000000000000006001600160a01b03169063b93f9b0a90602401602060405180830381865afa1580156149b7573d6000803e3d6000fd5b505050506040513d601f19601f820116820180604052508101906149db9190615bfc565b905060005b8551811015614c7b578381815181106149fb576149fb615bb7565b602002602001015160000315614c69576000858281518110614a1f57614a1f615bb7565b60200260200101516001600160a01b031663313ce5676040518163ffffffff1660e01b8152600401602060405180830381865afa158015614a64573d6000803e3d6000fd5b505050506040513d601f19601f82011682018060405250810190614a889190615df1565b614a9390600a615f66565b90506000836001600160a01b031663baaa61be888581518110614ab857614ab8615bb7565b60200260200101517f00000000000000000000000000000000000000000000000000000000000000006040518363ffffffff1660e01b8152600401614b139291906001600160a01b0392831681529116602082015260400190565b602060405180830381865afa158015614b30573d6000803e3d6000fd5b505050506040513d601f19601f82011682018060405250810190614b549190615cab565b90506000614b868284888781518110614b6f57614b6f615bb7565b6020026020010151613d7a9092919063ffffffff16565b905060008b821115614ba857614b9d8c8585613d7a565b905060009b50614bd3565b868581518110614bba57614bba615bb7565b60200260200101519050818c614bd09190615cf8565b9b505b614bf78a8681518110614be857614be8615bb7565b6020026020010151828d6138e9565b898581518110614c0957614c09615bb7565b60200260200101516001600160a01b03167f94ad37a0f8935c0acdd1ccffe9aad296bfc8d0a1dd2d0cfbac79405c5f86ed8282604051614c4b91815260200190565b60405180910390a28b600003614c645750505050614c7b565b505050505b80614c7381615be3565b9150506149e0565b5086156149465760405163cc5ea39b60e01b815260048101889052602401610eb0565b8154808210614ce55760405162461bcd60e51b8152602060048201526013602482015272496e646578206f7574206f6620626f756e647360681b6044820152606401610eb0565b815b614cf2600183615cf8565b811015614d805783614d05826001615d7b565b81548110614d1557614d15615bb7565b9060005260206000200160009054906101000a90046001600160a01b0316848281548110614d4557614d45615bb7565b600091825260209091200180546001600160a01b0319166001600160a01b039290921691909117905580614d7881615be3565b915050614ce7565b5082805480614d9157614d91615f75565b600082815260209020810160001990810180546001600160a01b0319169055019055505050565b6001600160a01b0382166000908152601660205260408120548015614dfe57600060155482614de79190615d7b565b905043811115614dfc57600092505050610e0f565b505b6000614e08610b04565b90506000614e158261345c565b90506000614e45614e3b886001600160a01b031660009081526020819052604090205490565b610e0a8486615cf8565b90506000600d5460ff166001811115614e6057614e60615a32565b03614e89576000614e6f611fd6565b905080821115614e7f5780614e81565b815b955050614fe0565b600080614e946142f6565b945094505050506000614ea660025490565b90506000614ec98b6001600160a01b031660009081526020819052604090205490565b9050670de0b6b3a764000060005b8451811015614f9257858181518110614ef257614ef2615bb7565b602002602001015160000315614f8057848181518110614f1457614f14615bb7565b6020026020010151600003614f365760009a5050505050505050505050610e0f565b6000614f70670de0b6b3a7640000888481518110614f5657614f56615bb7565b6020026020010151888581518110614b6f57614b6f615bb7565b905082811015614f7e578092505b505b80614f8a81615be3565b915050614ed7565b506000614fa883670de0b6b3a764000086613d7a565b905081811115614fd557614fd082670de0b6b3a7640000614fc98b8d615cf8565b9190613d7a565b614fd7565b865b9a505050505050505b8515614ff757614ff4856126d28486615cf8565b94505b5050505092915050565b6001600160a01b0381166000908152600560205260409020805460018101825590613132565b6000610e0f6150346137c2565b8360405161190160f01b6020820152602281018390526042810182905260009060620160405160208183030381529060405280519060200120905092915050565b6000806000615086878787876153c5565b91509150615093816154b2565b5095945050505050565b6000610f948383670de0b6b3a7640000613d7a565b6000806150be60025490565b9050828111156131325760006150d48483615cf8565b9050610e5a848383613d4c565b80158061515b5750604051636eb1769f60e11b81523060048201526001600160a01b03838116602483015284169063dd62ed3e90604401602060405180830381865afa158015615135573d6000803e3d6000fd5b505050506040513d601f19601f820116820180604052508101906151599190615cab565b155b6151c65760405162461bcd60e51b815260206004820152603660248201527f5361666545524332303a20617070726f76652066726f6d206e6f6e2d7a65726f60448201527520746f206e6f6e2d7a65726f20616c6c6f77616e636560501b6064820152608401610eb0565b6040516001600160a01b038316602482015260448101829052613d4790849063095ea7b360e01b906064016140fe565b60008160ff168360ff160361520c575082610f94565b8160ff168360ff161015615240576152248383615f8b565b61522f90600a615f66565b6152399085615d8e565b9050610f94565b61524a8284615f8b565b61525590600a615f66565b6152399085615dad565b613d478361536a565b6040516001600160a01b038316602482015260448101829052613d4790849063a9059cbb60e01b906064016140fe565b60006152ed826040518060400160405280602081526020017f5361666545524332303a206c6f772d6c6576656c2063616c6c206661696c6564815250856001600160a01b031661566b9092919063ffffffff16565b805190915015613d47578080602001905181019061530b9190615dcf565b613d475760405162461bcd60e51b815260206004820152602a60248201527f5361666545524332303a204552433230206f7065726174696f6e20646964206e6044820152691bdd081cdd58d8d9595960b21b6064820152608401610eb0565b6001600160a01b0381166000908152601660205260409020548015613f74576000601554826153999190615d7b565b905043811115613d47576040516306f8ee3f60e21b815260048101829052436024820152604401610eb0565b6000807f7fffffffffffffffffffffffffffffff5d576e7357a4501ddfe92f46681b20a08311156153fc57506000905060036154a9565b8460ff16601b1415801561541457508460ff16601c14155b1561542557506000905060046154a9565b6040805160008082526020820180845289905260ff881692820192909252606081018690526080810185905260019060a0016020604051602081039080840390855afa158015615479573d6000803e3d6000fd5b5050604051601f1901519150506001600160a01b0381166154a2576000600192509250506154a9565b9150600090505b94509492505050565b60008160048111156154c6576154c6615a32565b036154ce5750565b60018160048111156154e2576154e2615a32565b0361552f5760405162461bcd60e51b815260206004820152601860248201527f45434453413a20696e76616c6964207369676e617475726500000000000000006044820152606401610eb0565b600281600481111561554357615543615a32565b036155905760405162461bcd60e51b815260206004820152601f60248201527f45434453413a20696e76616c6964207369676e6174757265206c656e677468006044820152606401610eb0565b60038160048111156155a4576155a4615a32565b036155fc5760405162461bcd60e51b815260206004820152602260248201527f45434453413a20696e76616c6964207369676e6174757265202773272076616c604482015261756560f01b6064820152608401610eb0565b600481600481111561561057615610615a32565b036156685760405162461bcd60e51b815260206004820152602260248201527f45434453413a20696e76616c6964207369676e6174757265202776272076616c604482015261756560f01b6064820152608401610eb0565b50565b6060610e5a8484600085856001600160a01b0385163b6156cd5760405162461bcd60e51b815260206004820152601d60248201527f416464726573733a2063616c6c20746f206e6f6e2d636f6e74726163740000006044820152606401610eb0565b600080866001600160a01b031685876040516156e99190615fa4565b60006040518083038185875af1925050503d8060008114615726576040519150601f19603f3d011682016040523d82523d6000602084013e61572b565b606091505b509150915061573b828286615746565b979650505050505050565b60608315615755575081610f94565b8251156157655782518084602001fd5b8160405162461bcd60e51b8152600401610eb091906157a3565b60005b8381101561579a578181015183820152602001615782565b50506000910152565b60208152600082518060208401526157c281604085016020870161577f565b601f01601f19169190910160400192915050565b6000602082840312156157e857600080fd5b5035919050565b6001600160a01b038116811461566857600080fd5b6000806040838503121561581757600080fd5b8235615822816157ef565b946020939093013593505050565b60006020828403121561584257600080fd5b8135610f94816157ef565b60008060006060848603121561586257600080fd5b833561586d816157ef565b9250602084013561587d816157ef565b929592945050506040919091013590565b6002811061566857600080fd5b6000602082840312156158ad57600080fd5b8135610f948161588e565b60008060008060008060a087890312156158d157600080fd5b86356158dc816157ef565b955060208701356158ec816157ef565b94506040870135935060608701356159038161588e565b925060808701356001600160401b038082111561591f57600080fd5b818901915089601f83011261593357600080fd5b81358181111561594257600080fd5b8a602082850101111561595457600080fd5b6020830194508093505050509295509295509295565b60006020828403121561597c57600080fd5b81356001600160401b0381168114610f9457600080fd5b600080604083850312156159a657600080fd5b8235915060208301356159b8816157ef565b809150509250929050565b600080604083850312156159d657600080fd5b50508035926020909101359150565b6020808252825182820181905260009190848201906040850190845b81811015615a265783516001600160a01b031683529284019291840191600101615a01565b50909695505050505050565b634e487b7160e01b600052602160045260246000fd5b6020810160038310615a5c57615a5c615a32565b91905290565b600080600060608486031215615a7757600080fd5b833592506020840135615a89816157ef565b91506040840135615a99816157ef565b809150509250925092565b60ff8116811461566857600080fd5b600080600080600080600060e0888a031215615ace57600080fd5b8735615ad9816157ef565b96506020880135615ae9816157ef565b955060408801359450606088013593506080880135615b0781615aa4565b9699959850939692959460a0840135945060c09093013592915050565b60008060408385031215615b3757600080fd5b8235615b42816157ef565b915060208301356159b8816157ef565b6002811061566857615668615a32565b60208101615a5c83615b52565b60008060408385031215615b8257600080fd5b8235615b8d816157ef565b91506020830135600381106159b857600080fd5b634e487b7160e01b600052604160045260246000fd5b634e487b7160e01b600052603260045260246000fd5b634e487b7160e01b600052601160045260246000fd5b600060018201615bf557615bf5615bcd565b5060010190565b600060208284031215615c0e57600080fd5b8151610f94816157ef565b606080825284519082018190526000906020906080840190828801845b82811015615c5b5781516001600160a01b031684529284019290840190600101615c36565b5050508381038285015285518082528683019183019060005b81811015615c9057835183529284019291840191600101615c74565b50506001600160a01b03861660408601529250610e5a915050565b600060208284031215615cbd57600080fd5b5051919050565b600181811c90821680615cd857607f821691505b60208210810361313257634e487b7160e01b600052602260045260246000fd5b81810381811115610e0f57610e0f615bcd565b6020808252600c908201526b15539055551213d49256915160a21b604082015260600190565b60408101615d3e84615b52565b838252615d4a83615b52565b8260208301529392505050565b6020808252600a90820152695245454e5452414e435960b01b604082015260600190565b80820180821115610e0f57610e0f615bcd565b6000816000190483118215151615615da857615da8615bcd565b500290565b600082615dca57634e487b7160e01b600052601260045260246000fd5b500490565b600060208284031215615de157600080fd5b81518015158114610f9457600080fd5b600060208284031215615e0357600080fd5b8151610f9481615aa4565b615e1787615b52565b86815260a060208201528460a0820152848660c0830137600060c08683018101919091526001600160a01b039485166040830152928416606082015292166080830152601f909201601f1916010192915050565b600081615e7a57615e7a615bcd565b506000190190565b600181815b80851115615ebd578160001904821115615ea357615ea3615bcd565b80851615615eb057918102915b93841c9390800290615e87565b509250929050565b600082615ed457506001610e0f565b81615ee157506000610e0f565b8160018114615ef75760028114615f0157615f1d565b6001915050610e0f565b60ff841115615f1257615f12615bcd565b50506001821b610e0f565b5060208310610133831016604e8410600b8410161715615f40575081810a610e0f565b615f4a8383615e82565b8060001904821115615f5e57615f5e615bcd565b029392505050565b6000610f9460ff841683615ec5565b634e487b7160e01b600052603160045260246000fd5b60ff8281168282160390811115610e0f57610e0f615bcd565b60008251615fb681846020870161577f565b919091019291505056fea2646970667358221220d6fdb45b05c087f2cc523a0a262145ebfa92f9af0fc3611fefe881af058bf53d64736f6c63430008100033",
    "linkReferences": {}
  },
  "methodIdentifiers": {
    "DOMAIN_SEPARATOR()": "3644e515",
    "MAXIMUM_SHARE_LOCK_PERIOD()": "0402ab63",
    "MAX_FEE_CUT()": "eef33eca",
    "MAX_PERFORMANCE_FEE()": "bdca9165",
    "MAX_PLATFORM_FEE()": "3998a681",
    "MAX_POSITIONS()": "f7b24e08",
    "MAX_REBALANCE_DEVIATION()": "6ff1c02a",
    "MINIMUM_SHARE_LOCK_PERIOD()": "0051a3b7",
    "PRICE_ROUTER_REGISTRY_SLOT()": "5a400d25",
    "addPosition(uint256,address)": "4eca8a83",
    "allowance(address,address)": "dd62ed3e",
    "allowedRebalanceDeviation()": "c244245a",
    "approve(address,uint256)": "095ea7b3",
    "asset()": "38d52e0f",
    "balanceOf(address)": "70a08231",
    "convertToAssets(uint256)": "07a2d13a",
    "convertToShares(uint256)": "c6e6f592",
    "decimals()": "313ce567",
    "decreaseAllowance(address,uint256)": "a457c2d7",
    "deposit(uint256,address)": "6e553f65",
    "depositLimit()": "ecf70858",
    "feeData()": "e753e600",
    "getPositionType(address)": "9e35c65b",
    "getPositions()": "80275860",
    "holdingPosition()": "9c5f00c2",
    "increaseAllowance(address,uint256)": "39509351",
    "initiateShutdown()": "0a680e18",
    "isPositionUsed(address)": "472090fe",
    "isShutdown()": "bf86d690",
    "isTrusted(address)": "96d64879",
    "lastAccrual()": "7b3baab4",
    "liftShutdown()": "5e2c576e",
    "liquidityLimit()": "72163715",
    "maxDeposit(address)": "402d267d",
    "maxMint(address)": "c63d75b6",
    "maxRedeem(address)": "d905777e",
    "maxWithdraw(address)": "ce96cb77",
    "mint(uint256,address)": "94bf804d",
    "name()": "06fdde03",
    "nonces(address)": "7ecebe00",
    "owner()": "8da5cb5b",
    "permit(address,address,uint256,uint256,uint8,bytes32,bytes32)": "d505accf",
    "positions(uint256)": "99fbab88",
    "previewDeposit(uint256)": "ef8b30f7",
    "previewMint(uint256)": "b3d7f6b9",
    "previewRedeem(uint256)": "4cdad506",
    "previewWithdraw(uint256)": "0a28a477",
    "pushPosition(address)": "fdd230b9",
    "rebalance(address,address,uint256,uint8,bytes)": "389a7294",
    "redeem(uint256,address,address)": "ba087652",
    "registry()": "7b103999",
    "removePosition(uint256)": "c0467422",
    "resetHighWatermark()": "c85e5e13",
    "sendFees()": "dff90b5b",
    "setDepositLimit(uint256)": "bdc8144b",
    "setFeesDistributor(bytes32)": "6e85f183",
    "setHoldingPosition(address)": "8b0cebf7",
    "setLiquidityLimit(uint256)": "df05a52a",
    "setOwner(address)": "13af4035",
    "setPerformanceFee(uint64)": "3cf99a46",
    "setPlatformFee(uint64)": "70af7df6",
    "setRebalanceDeviation(uint256)": "530a3714",
    "setShareLockPeriod(uint256)": "9c552ca8",
    "setStrategistPayoutAddress(address)": "b0a75d36",
    "setStrategistPerformanceCut(uint64)": "9b6fd18e",
    "setStrategistPlatformCut(uint64)": "b5292a99",
    "setWithdrawType(uint8)": "2f3b5a13",
    "shareLockPeriod()": "9fdb11b6",
    "swapPositions(uint256,uint256)": "58384573",
    "symbol()": "95d89b41",
    "totalAssets()": "01e1d114",
    "totalAssetsWithdrawable()": "a8144e48",
    "totalSupply()": "18160ddd",
    "transfer(address,uint256)": "a9059cbb",
    "transferFrom(address,address,uint256)": "23b872dd",
    "trustPosition(address,uint8)": "fc4d43be",
    "userShareLockStartBlock(address)": "fc444591",
    "withdraw(uint256,address,address)": "b460af94",
    "withdrawType()": "e39448e0"
  },
  "id": 30
}