{
  "abi": [
    {
      "inputs": [],
      "name": "BaseAdaptor__ExternalReceiverBlocked",
      "type": "error"
    },
    {
      "inputs": [
        {
          "internalType": "address",
          "name": "asset",
          "type": "address"
        }
      ],
      "name": "BaseAdaptor__PricingNotSupported",
      "type": "error"
    },
    {
      "inputs": [],
      "name": "BaseAdaptor__Slippage",
      "type": "error"
    },
    {
      "inputs": [],
      "name": "BaseAdaptor__UserDepositsNotAllowed",
      "type": "error"
    },
    {
      "inputs": [],
      "name": "BaseAdaptor__UserWithdrawsNotAllowed",
      "type": "error"
    },
    {
      "inputs": [
        {
          "internalType": "uint256",
          "name": "amount",
          "type": "uint256"
        }
      ],
      "name": "addAssetsToReserves",
      "outputs": [],
      "stateMutability": "nonpayable",
      "type": "function"
    },
    {
      "inputs": [
        {
          "internalType": "bytes",
          "name": "",
          "type": "bytes"
        }
      ],
      "name": "assetOf",
      "outputs": [
        {
          "internalType": "contract ERC20",
          "name": "",
          "type": "address"
        }
      ],
      "stateMutability": "pure",
      "type": "function"
    },
    {
      "inputs": [
        {
          "internalType": "bytes",
          "name": "adaptorData",
          "type": "bytes"
        }
      ],
      "name": "assetsUsed",
      "outputs": [
        {
          "internalType": "contract ERC20[]",
          "name": "assets",
          "type": "address[]"
        }
      ],
      "stateMutability": "view",
      "type": "function"
    },
    {
      "inputs": [
        {
          "internalType": "bytes",
          "name": "",
          "type": "bytes"
        }
      ],
      "name": "balanceOf",
      "outputs": [
        {
          "internalType": "uint256",
          "name": "",
          "type": "uint256"
        }
      ],
      "stateMutability": "pure",
      "type": "function"
    },
    {
      "inputs": [
        {
          "internalType": "uint64",
          "name": "newFrequency",
          "type": "uint64"
        }
      ],
      "name": "changeUpkeepFrequency",
      "outputs": [],
      "stateMutability": "nonpayable",
      "type": "function"
    },
    {
      "inputs": [
        {
          "internalType": "uint64",
          "name": "newMaxGas",
          "type": "uint64"
        }
      ],
      "name": "changeUpkeepMaxGas",
      "outputs": [],
      "stateMutability": "nonpayable",
      "type": "function"
    },
    {
      "inputs": [
        {
          "internalType": "uint256",
          "name": "",
          "type": "uint256"
        },
        {
          "internalType": "bytes",
          "name": "",
          "type": "bytes"
        },
        {
          "internalType": "bytes",
          "name": "",
          "type": "bytes"
        }
      ],
      "name": "deposit",
      "outputs": [],
      "stateMutability": "pure",
      "type": "function"
    },
    {
      "inputs": [],
      "name": "feesAndReserves",
      "outputs": [
        {
          "internalType": "contract FeesAndReserves",
          "name": "",
          "type": "address"
        }
      ],
      "stateMutability": "pure",
      "type": "function"
    },
    {
      "inputs": [],
      "name": "identifier",
      "outputs": [
        {
          "internalType": "bytes32",
          "name": "",
          "type": "bytes32"
        }
      ],
      "stateMutability": "pure",
      "type": "function"
    },
    {
      "inputs": [],
      "name": "isDebt",
      "outputs": [
        {
          "internalType": "bool",
          "name": "",
          "type": "bool"
        }
      ],
      "stateMutability": "pure",
      "type": "function"
    },
    {
      "inputs": [
        {
          "internalType": "uint256",
          "name": "amount",
          "type": "uint256"
        }
      ],
      "name": "prepareFees",
      "outputs": [],
      "stateMutability": "nonpayable",
      "type": "function"
    },
    {
      "inputs": [
        {
          "internalType": "contract ERC20",
          "name": "asset",
          "type": "address"
        },
        {
          "internalType": "address",
          "name": "spender",
          "type": "address"
        }
      ],
      "name": "revokeApproval",
      "outputs": [],
      "stateMutability": "nonpayable",
      "type": "function"
    },
    {
      "inputs": [
        {
          "internalType": "uint32",
          "name": "managementFee",
          "type": "uint32"
        },
        {
          "internalType": "uint32",
          "name": "performanceFee",
          "type": "uint32"
        }
      ],
      "name": "setupMetaData",
      "outputs": [],
      "stateMutability": "nonpayable",
      "type": "function"
    },
    {
      "inputs": [],
      "name": "slippage",
      "outputs": [
        {
          "internalType": "uint32",
          "name": "",
          "type": "uint32"
        }
      ],
      "stateMutability": "pure",
      "type": "function"
    },
    {
      "inputs": [
        {
          "internalType": "uint32",
          "name": "managementFee",
          "type": "uint32"
        }
      ],
      "name": "updateManagementFee",
      "outputs": [],
      "stateMutability": "nonpayable",
      "type": "function"
    },
    {
      "inputs": [
        {
          "internalType": "uint32",
          "name": "performanceFee",
          "type": "uint32"
        }
      ],
      "name": "updatePerformanceFee",
      "outputs": [],
      "stateMutability": "nonpayable",
      "type": "function"
    },
    {
      "inputs": [
        {
          "internalType": "uint256",
          "name": "",
          "type": "uint256"
        },
        {
          "internalType": "address",
          "name": "",
          "type": "address"
        },
        {
          "internalType": "bytes",
          "name": "",
          "type": "bytes"
        },
        {
          "internalType": "bytes",
          "name": "",
          "type": "bytes"
        }
      ],
      "name": "withdraw",
      "outputs": [],
      "stateMutability": "pure",
      "type": "function"
    },
    {
      "inputs": [
        {
          "internalType": "uint256",
          "name": "amount",
          "type": "uint256"
        }
      ],
      "name": "withdrawAssetsFromReserves",
      "outputs": [],
      "stateMutability": "nonpayable",
      "type": "function"
    },
    {
      "inputs": [
        {
          "internalType": "bytes",
          "name": "",
          "type": "bytes"
        },
        {
          "internalType": "bytes",
          "name": "",
          "type": "bytes"
        }
      ],
      "name": "withdrawableFrom",
      "outputs": [
        {
          "internalType": "uint256",
          "name": "",
          "type": "uint256"
        }
      ],
      "stateMutability": "pure",
      "type": "function"
    }
  ],
  "bytecode": {
    "object": "0x608060405234801561001057600080fd5b50610d64806100206000396000f3fe608060405234801561001057600080fd5b50600436106101215760003560e01c8063aeffddde116100ad578063e170a9bf11610071578063e170a9bf1461025c578063f2a44d4e1461026a578063f5f30a5e1461027d578063fa50e5d214610290578063fa531255146102a357600080fd5b8063aeffddde146101f0578063c1cc8d7f14610210578063c9111bd714610223578063cabad50a14610236578063d3bfe76a1461024957600080fd5b806369445c31116100f457806369445c311461019157806378415365146101a45780637998a1c4146101c657806389353a09146101ce578063a5a36dd2146101dd57600080fd5b80630b050709146101265780633e032a3b146101595780635303907d14610169578063556d18df1461017e575b600080fd5b73a0cb889707d426a7a386870a03bc70d1b06975985b6040516001600160a01b0390911681526020015b60405180910390f35b6040516123288152602001610150565b61017c6101773660046108be565b6102b6565b005b61017c61018c3660046108ec565b61031f565b61017c61019f3660046109b3565b61035c565b6101b86101b2366004610a20565b50600090565b604051908152602001610150565b6101b8610375565b60405160008152602001610150565b61017c6101eb366004610a73565b6103d3565b6102036101fe366004610a20565b610414565b6040516101509190610a90565b61017c61021e3660046108ec565b610470565b61017c610231366004610af2565b6104ad565b61017c6102443660046108be565b6104c6565b61017c610257366004610b72565b610614565b61013c6101b2366004610a20565b61017c610278366004610a73565b610629565b61017c61028b3660046108be565b61066a565b6101b861029e366004610bab565b6106a2565b61017c6102b1366004610c0f565b6106ab565b604051635303907d60e01b81526004810182905273a0cb889707d426a7a386870a03bc70d1b069759890635303907d906024015b600060405180830381600087803b15801561030457600080fd5b505af1158015610318573d6000803e3d6000fd5b5050505050565b60405163556d18df60e01b815263ffffffff8216600482015273a0cb889707d426a7a386870a03bc70d1b06975989063556d18df906024016102ea565b604051633204ed5b60e21b815260040160405180910390fd5b60006040516020016103b8906020808252601f908201527f4665657320416e642052657365727665732041646170746f72205620312e3000604082015260600190565b60405160208183030381529060405280519060200120905090565b6040516352d1b6e960e11b815267ffffffffffffffff8216600482015273a0cb889707d426a7a386870a03bc70d1b06975989063a5a36dd2906024016102ea565b6040805160018082528183019092526060916020808301908036833701905050905060008160008151811061044b5761044b610c3d565b60200260200101906001600160a01b031690816001600160a01b031681525050919050565b60405163c1cc8d7f60e01b815263ffffffff8216600482015273a0cb889707d426a7a386870a03bc70d1b06975989063c1cc8d7f906024016102ea565b604051635f5003c560e11b815260040160405180910390fd5b600073a0cb889707d426a7a386870a03bc70d1b0697598604051630686ddd960e01b81523060048201526001600160a01b039190911690630686ddd99060240161014060405180830381865afa158015610524573d6000803e3d6000fd5b505050506040513d601f19601f820116820180604052508101906105489190610c69565b505050505050505050905061055d818361072d565b91506105876001600160a01b03821673a0cb889707d426a7a386870a03bc70d1b0697598846107ae565b60405163655d6a8560e11b81526004810183905273a0cb889707d426a7a386870a03bc70d1b06975989063cabad50a90602401600060405180830381600087803b1580156105d457600080fd5b505af11580156105e8573d6000803e3d6000fd5b505050506106108161060b73a0cb889707d426a7a386870a03bc70d1b069759890565b61082f565b5050565b6106106001600160a01b0383168260006107ae565b60405163795226a760e11b815267ffffffffffffffff8216600482015273a0cb889707d426a7a386870a03bc70d1b06975989063f2a44d4e906024016102ea565b604051637af9852f60e11b81526004810182905273a0cb889707d426a7a386870a03bc70d1b06975989063f5f30a5e906024016102ea565b60005b92915050565b73a0cb889707d426a7a386870a03bc70d1b069759860405163fa53125560e01b815263ffffffff8085166004830152831660248201526001600160a01b03919091169063fa53125590604401600060405180830381600087803b15801561071157600080fd5b505af1158015610725573d6000803e3d6000fd5b505050505050565b600060001982036107a7576040516370a0823160e01b81523060048201526001600160a01b038416906370a0823190602401602060405180830381865afa15801561077c573d6000803e3d6000fd5b505050506040513d601f19601f820116820180604052508101906107a09190610d15565b90506106a5565b50806106a5565b600060405163095ea7b360e01b8152836004820152826024820152602060006044836000895af13d15601f3d11600160005114161716915050806108295760405162461bcd60e51b815260206004820152600e60248201526d1054141493d59157d1905253115160921b604482015260640160405180910390fd5b50505050565b604051636eb1769f60e11b81523060048201526001600160a01b0382811660248301526000919084169063dd62ed3e90604401602060405180830381865afa15801561087f573d6000803e3d6000fd5b505050506040513d601f19601f820116820180604052508101906108a39190610d15565b1115610610576106106001600160a01b0383168260006107ae565b6000602082840312156108d057600080fd5b5035919050565b63ffffffff811681146108e957600080fd5b50565b6000602082840312156108fe57600080fd5b8135610909816108d7565b9392505050565b634e487b7160e01b600052604160045260246000fd5b600082601f83011261093757600080fd5b813567ffffffffffffffff8082111561095257610952610910565b604051601f8301601f19908116603f0116810190828211818310171561097a5761097a610910565b8160405283815286602085880101111561099357600080fd5b836020870160208301376000602085830101528094505050505092915050565b6000806000606084860312156109c857600080fd5b83359250602084013567ffffffffffffffff808211156109e757600080fd5b6109f387838801610926565b93506040860135915080821115610a0957600080fd5b50610a1686828701610926565b9150509250925092565b600060208284031215610a3257600080fd5b813567ffffffffffffffff811115610a4957600080fd5b610a5584828501610926565b949350505050565b67ffffffffffffffff811681146108e957600080fd5b600060208284031215610a8557600080fd5b813561090981610a5d565b6020808252825182820181905260009190848201906040850190845b81811015610ad15783516001600160a01b031683529284019291840191600101610aac565b50909695505050505050565b6001600160a01b03811681146108e957600080fd5b60008060008060808587031215610b0857600080fd5b843593506020850135610b1a81610add565b9250604085013567ffffffffffffffff80821115610b3757600080fd5b610b4388838901610926565b93506060870135915080821115610b5957600080fd5b50610b6687828801610926565b91505092959194509250565b60008060408385031215610b8557600080fd5b8235610b9081610add565b91506020830135610ba081610add565b809150509250929050565b60008060408385031215610bbe57600080fd5b823567ffffffffffffffff80821115610bd657600080fd5b610be286838701610926565b93506020850135915080821115610bf857600080fd5b50610c0585828601610926565b9150509250929050565b60008060408385031215610c2257600080fd5b8235610c2d816108d7565b91506020830135610ba0816108d7565b634e487b7160e01b600052603260045260246000fd5b805160ff81168114610c6457600080fd5b919050565b6000806000806000806000806000806101408b8d031215610c8957600080fd5b8a51610c9481610add565b60208c0151909a50610ca5816108d7565b60408c0151909950610cb681610a5d565b8098505060608b0151965060808b0151955060a08b0151945060c08b01519350610ce260e08c01610c53565b9250610cf16101008c01610c53565b91506101208b0151610d02816108d7565b809150509295989b9194979a5092959850565b600060208284031215610d2757600080fd5b505191905056fea26469706673582212200c03454aa1f57ec254742035d0b062563ae63fc86ce51f0a32056d109082bfb564736f6c63430008100033",
    "linkReferences": {}
  },
  "methodIdentifiers": {
    "addAssetsToReserves(uint256)": "cabad50a",
    "assetOf(bytes)": "e170a9bf",
    "assetsUsed(bytes)": "aeffddde",
    "balanceOf(bytes)": "78415365",
    "changeUpkeepFrequency(uint64)": "a5a36dd2",
    "changeUpkeepMaxGas(uint64)": "f2a44d4e",
    "deposit(uint256,bytes,bytes)": "69445c31",
    "feesAndReserves()": "0b050709",
    "identifier()": "7998a1c4",
    "isDebt()": "89353a09",
    "prepareFees(uint256)": "5303907d",
    "revokeApproval(address,address)": "d3bfe76a",
    "setupMetaData(uint32,uint32)": "fa531255",
    "slippage()": "3e032a3b",
    "updateManagementFee(uint32)": "c1cc8d7f",
    "updatePerformanceFee(uint32)": "556d18df",
    "withdraw(uint256,address,bytes,bytes)": "c9111bd7",
    "withdrawAssetsFromReserves(uint256)": "f5f30a5e",
    "withdrawableFrom(bytes,bytes)": "fa50e5d2"
  },
  "id": 84
}