{
  "abi": [
    {
      "inputs": [],
      "name": "BaseAdaptor__ExternalReceiverBlocked",
      "type": "error"
    },
    {
      "inputs": [
        {
          "internalType": "address",
          "name": "asset",
          "type": "address"
        }
      ],
      "name": "BaseAdaptor__PricingNotSupported",
      "type": "error"
    },
    {
      "inputs": [],
      "name": "BaseAdaptor__Slippage",
      "type": "error"
    },
    {
      "inputs": [],
      "name": "BaseAdaptor__UserDepositsNotAllowed",
      "type": "error"
    },
    {
      "inputs": [],
      "name": "BaseAdaptor__UserWithdrawsNotAllowed",
      "type": "error"
    },
    {
      "inputs": [
        {
          "internalType": "bytes",
          "name": "",
          "type": "bytes"
        }
      ],
      "name": "assetOf",
      "outputs": [
        {
          "internalType": "contract ERC20",
          "name": "",
          "type": "address"
        }
      ],
      "stateMutability": "pure",
      "type": "function"
    },
    {
      "inputs": [
        {
          "internalType": "bytes",
          "name": "adaptorData",
          "type": "bytes"
        }
      ],
      "name": "assetsUsed",
      "outputs": [
        {
          "internalType": "contract ERC20[]",
          "name": "assets",
          "type": "address[]"
        }
      ],
      "stateMutability": "view",
      "type": "function"
    },
    {
      "inputs": [
        {
          "internalType": "bytes",
          "name": "",
          "type": "bytes"
        }
      ],
      "name": "balanceOf",
      "outputs": [
        {
          "internalType": "uint256",
          "name": "",
          "type": "uint256"
        }
      ],
      "stateMutability": "pure",
      "type": "function"
    },
    {
      "inputs": [
        {
          "internalType": "uint256",
          "name": "",
          "type": "uint256"
        },
        {
          "internalType": "bytes",
          "name": "",
          "type": "bytes"
        },
        {
          "internalType": "bytes",
          "name": "",
          "type": "bytes"
        }
      ],
      "name": "deposit",
      "outputs": [],
      "stateMutability": "pure",
      "type": "function"
    },
    {
      "inputs": [],
      "name": "identifier",
      "outputs": [
        {
          "internalType": "bytes32",
          "name": "",
          "type": "bytes32"
        }
      ],
      "stateMutability": "pure",
      "type": "function"
    },
    {
      "inputs": [],
      "name": "isDebt",
      "outputs": [
        {
          "internalType": "bool",
          "name": "",
          "type": "bool"
        }
      ],
      "stateMutability": "pure",
      "type": "function"
    },
    {
      "inputs": [
        {
          "internalType": "contract ERC20",
          "name": "asset",
          "type": "address"
        },
        {
          "internalType": "address",
          "name": "spender",
          "type": "address"
        }
      ],
      "name": "revokeApproval",
      "outputs": [],
      "stateMutability": "nonpayable",
      "type": "function"
    },
    {
      "inputs": [],
      "name": "slippage",
      "outputs": [
        {
          "internalType": "uint32",
          "name": "",
          "type": "uint32"
        }
      ],
      "stateMutability": "pure",
      "type": "function"
    },
    {
      "inputs": [
        {
          "internalType": "contract ERC20",
          "name": "tokenIn",
          "type": "address"
        },
        {
          "internalType": "contract ERC20",
          "name": "tokenOut",
          "type": "address"
        },
        {
          "internalType": "uint256",
          "name": "amount",
          "type": "uint256"
        },
        {
          "internalType": "bytes",
          "name": "swapCallData",
          "type": "bytes"
        }
      ],
      "name": "swapWithOneInch",
      "outputs": [],
      "stateMutability": "nonpayable",
      "type": "function"
    },
    {
      "inputs": [],
      "name": "target",
      "outputs": [
        {
          "internalType": "address",
          "name": "",
          "type": "address"
        }
      ],
      "stateMutability": "pure",
      "type": "function"
    },
    {
      "inputs": [
        {
          "internalType": "uint256",
          "name": "",
          "type": "uint256"
        },
        {
          "internalType": "address",
          "name": "",
          "type": "address"
        },
        {
          "internalType": "bytes",
          "name": "",
          "type": "bytes"
        },
        {
          "internalType": "bytes",
          "name": "",
          "type": "bytes"
        }
      ],
      "name": "withdraw",
      "outputs": [],
      "stateMutability": "pure",
      "type": "function"
    },
    {
      "inputs": [
        {
          "internalType": "bytes",
          "name": "",
          "type": "bytes"
        },
        {
          "internalType": "bytes",
          "name": "",
          "type": "bytes"
        }
      ],
      "name": "withdrawableFrom",
      "outputs": [
        {
          "internalType": "uint256",
          "name": "",
          "type": "uint256"
        }
      ],
      "stateMutability": "pure",
      "type": "function"
    }
  ],
  "bytecode": {
    "object": "0x608060405234801561001057600080fd5b50610e9f806100206000396000f3fe608060405234801561001057600080fd5b50600436106100b45760003560e01c8063c9111bd711610071578063c9111bd71461013c578063d3bfe76a1461014f578063d4b8399214610162578063d805a65714610190578063e170a9bf146101a3578063fa50e5d2146101b157600080fd5b80633e032a3b146100b957806369445c31146100ce57806378415365146100e35780637998a1c41461010557806389353a091461010d578063aeffddde1461011c575b600080fd5b60405161232881526020015b60405180910390f35b6100e16100dc366004610ae3565b6101c4565b005b6100f76100f1366004610b50565b50600090565b6040519081526020016100c5565b6100f76101dd565b604051600081526020016100c5565b61012f61012a366004610b50565b610231565b6040516100c59190610b85565b6100e161014a366004610bea565b61028d565b6100e161015d366004610c6a565b6102a6565b731111111254eeb25477b68fb85ed929f73a9605825b6040516001600160a01b0390911681526020016100c5565b6100e161019e366004610ca3565b6102bf565b6101786100f1366004610b50565b6100f76101bf366004610d03565b610746565b604051633204ed5b60e21b815260040160405180910390fd5b600060405160200161021690602080825260139082015272031496e63682041646170746f72205620312e3606c1b604082015260600190565b60405160208183030381529060405280519060200120905090565b6040805160018082528183019092526060916020808301908036833701905050905060008160008151811061026857610268610d67565b60200260200101906001600160a01b031690816001600160a01b031681525050919050565b604051635f5003c560e11b815260040160405180910390fd5b6102bb6001600160a01b03831682600061074f565b5050565b6000306001600160a01b031663d7d4bf456040518163ffffffff1660e01b8152600401602060405180830381865afa1580156102ff573d6000803e3d6000fd5b505050506040513d601f19601f820116820180604052508101906103239190610d7d565b905061034d6001600160a01b038616731111111254eeb25477b68fb85ed929f73a9605828561074f565b604051634f129c5360e01b81526001600160a01b038681166004830152821690634f129c5390602401602060405180830381865afa158015610393573d6000803e3d6000fd5b505050506040513d601f19601f820116820180604052508101906103b79190610d9a565b1561070157604051634f129c5360e01b81526001600160a01b038581166004830152821690634f129c5390602401602060405180830381865afa158015610402573d6000803e3d6000fd5b505050506040513d601f19601f820116820180604052508101906104269190610d9a565b61045357604051637ab2384960e01b81526001600160a01b03851660048201526024015b60405180910390fd5b6040516370a0823160e01b81523060048201526000906001600160a01b038716906370a0823190602401602060405180830381865afa15801561049a573d6000803e3d6000fd5b505050506040513d601f19601f820116820180604052508101906104be9190610dbc565b6040516370a0823160e01b81523060048201529091506000906001600160a01b038716906370a0823190602401602060405180830381865afa158015610508573d6000803e3d6000fd5b505050506040513d601f19601f8201168201806040525081019061052c9190610dbc565b905061055784731111111254eeb25477b68fb85ed929f73a9605825b6001600160a01b0316906107cc565b506040516370a0823160e01b81523060048201526000906001600160a01b038916906370a0823190602401602060405180830381865afa15801561059f573d6000803e3d6000fd5b505050506040513d601f19601f820116820180604052508101906105c39190610dbc565b6105cd9084610dd5565b6040516370a0823160e01b815230600482015290915060009083906001600160a01b038a16906370a0823190602401602060405180830381865afa158015610619573d6000803e3d6000fd5b505050506040513d601f19601f8201168201806040525081019061063d9190610dbc565b6106479190610dd5565b60405163151d4a5960e31b81526001600160a01b038a81166004830152602482018390528b8116604483015291925060009187169063a8ea52c890606401602060405180830381865afa1580156106a2573d6000803e3d6000fd5b505050506040513d601f19601f820116820180604052508101906106c69190610dbc565b90506106d783612328612710610817565b8110156106f757604051631ea0eb0160e21b815260040160405180910390fd5b5050505050610721565b61071f82731111111254eeb25477b68fb85ed929f73a960582610548565b505b61073f85731111111254eeb25477b68fb85ed929f73a960582610836565b5050505050565b60005b92915050565b600060405163095ea7b360e01b8152836004820152826024820152602060006044836000895af13d15601f3d11600160005114161716915050806107c65760405162461bcd60e51b815260206004820152600e60248201526d1054141493d59157d1905253115160921b604482015260640161044a565b50505050565b6060610810838360006040518060400160405280601e81526020017f416464726573733a206c6f772d6c6576656c2063616c6c206661696c656400008152506108c5565b9392505050565b82820281151584158583048514171661082f57600080fd5b0492915050565b604051636eb1769f60e11b81523060048201526001600160a01b0382811660248301526000919084169063dd62ed3e90604401602060405180830381865afa158015610886573d6000803e3d6000fd5b505050506040513d601f19601f820116820180604052508101906108aa9190610dbc565b11156102bb576102bb6001600160a01b03831682600061074f565b6060824710156109265760405162461bcd60e51b815260206004820152602660248201527f416464726573733a20696e73756666696369656e742062616c616e636520666f6044820152651c8818d85b1b60d21b606482015260840161044a565b600080866001600160a01b031685876040516109429190610e1a565b60006040518083038185875af1925050503d806000811461097f576040519150601f19603f3d011682016040523d82523d6000602084013e610984565b606091505b5091509150610995878383876109a2565b925050505b949350505050565b60608315610a11578251600003610a0a576001600160a01b0385163b610a0a5760405162461bcd60e51b815260206004820152601d60248201527f416464726573733a2063616c6c20746f206e6f6e2d636f6e7472616374000000604482015260640161044a565b508161099a565b61099a8383815115610a265781518083602001fd5b8060405162461bcd60e51b815260040161044a9190610e36565b634e487b7160e01b600052604160045260246000fd5b600082601f830112610a6757600080fd5b813567ffffffffffffffff80821115610a8257610a82610a40565b604051601f8301601f19908116603f01168101908282118183101715610aaa57610aaa610a40565b81604052838152866020858801011115610ac357600080fd5b836020870160208301376000602085830101528094505050505092915050565b600080600060608486031215610af857600080fd5b83359250602084013567ffffffffffffffff80821115610b1757600080fd5b610b2387838801610a56565b93506040860135915080821115610b3957600080fd5b50610b4686828701610a56565b9150509250925092565b600060208284031215610b6257600080fd5b813567ffffffffffffffff811115610b7957600080fd5b61099a84828501610a56565b6020808252825182820181905260009190848201906040850190845b81811015610bc65783516001600160a01b031683529284019291840191600101610ba1565b50909695505050505050565b6001600160a01b0381168114610be757600080fd5b50565b60008060008060808587031215610c0057600080fd5b843593506020850135610c1281610bd2565b9250604085013567ffffffffffffffff80821115610c2f57600080fd5b610c3b88838901610a56565b93506060870135915080821115610c5157600080fd5b50610c5e87828801610a56565b91505092959194509250565b60008060408385031215610c7d57600080fd5b8235610c8881610bd2565b91506020830135610c9881610bd2565b809150509250929050565b60008060008060808587031215610cb957600080fd5b8435610cc481610bd2565b93506020850135610cd481610bd2565b925060408501359150606085013567ffffffffffffffff811115610cf757600080fd5b610c5e87828801610a56565b60008060408385031215610d1657600080fd5b823567ffffffffffffffff80821115610d2e57600080fd5b610d3a86838701610a56565b93506020850135915080821115610d5057600080fd5b50610d5d85828601610a56565b9150509250929050565b634e487b7160e01b600052603260045260246000fd5b600060208284031215610d8f57600080fd5b815161081081610bd2565b600060208284031215610dac57600080fd5b8151801515811461081057600080fd5b600060208284031215610dce57600080fd5b5051919050565b8181038181111561074957634e487b7160e01b600052601160045260246000fd5b60005b83811015610e11578181015183820152602001610df9565b50506000910152565b60008251610e2c818460208701610df6565b9190910192915050565b6020815260008251806020840152610e55816040850160208701610df6565b601f01601f1916919091016040019291505056fea2646970667358221220b1a1cd372294884039cb4e1a27d5b7056f8895ded19d26178ce99357269bf3b964736f6c63430008100033",
    "linkReferences": {}
  },
  "methodIdentifiers": {
    "assetOf(bytes)": "e170a9bf",
    "assetsUsed(bytes)": "aeffddde",
    "balanceOf(bytes)": "78415365",
    "deposit(uint256,bytes,bytes)": "69445c31",
    "identifier()": "7998a1c4",
    "isDebt()": "89353a09",
    "revokeApproval(address,address)": "d3bfe76a",
    "slippage()": "3e032a3b",
    "swapWithOneInch(address,address,uint256,bytes)": "d805a657",
    "target()": "d4b83992",
    "withdraw(uint256,address,bytes,bytes)": "c9111bd7",
    "withdrawableFrom(bytes,bytes)": "fa50e5d2"
  },
  "id": 85
}