{
  "abi": [
    {
      "inputs": [],
      "name": "AaveV2EnableAssetAsCollateralAdaptor__HealthFactorTooLow",
      "type": "error"
    },
    {
      "inputs": [],
      "name": "BaseAdaptor__ExternalReceiverBlocked",
      "type": "error"
    },
    {
      "inputs": [
        {
          "internalType": "address",
          "name": "asset",
          "type": "address"
        }
      ],
      "name": "BaseAdaptor__PricingNotSupported",
      "type": "error"
    },
    {
      "inputs": [],
      "name": "BaseAdaptor__Slippage",
      "type": "error"
    },
    {
      "inputs": [],
      "name": "BaseAdaptor__UserDepositsNotAllowed",
      "type": "error"
    },
    {
      "inputs": [],
      "name": "BaseAdaptor__UserWithdrawsNotAllowed",
      "type": "error"
    },
    {
      "inputs": [
        {
          "internalType": "bytes",
          "name": "",
          "type": "bytes"
        }
      ],
      "name": "assetOf",
      "outputs": [
        {
          "internalType": "contract ERC20",
          "name": "",
          "type": "address"
        }
      ],
      "stateMutability": "pure",
      "type": "function"
    },
    {
      "inputs": [
        {
          "internalType": "bytes",
          "name": "adaptorData",
          "type": "bytes"
        }
      ],
      "name": "assetsUsed",
      "outputs": [
        {
          "internalType": "contract ERC20[]",
          "name": "assets",
          "type": "address[]"
        }
      ],
      "stateMutability": "view",
      "type": "function"
    },
    {
      "inputs": [
        {
          "internalType": "bytes",
          "name": "",
          "type": "bytes"
        }
      ],
      "name": "balanceOf",
      "outputs": [
        {
          "internalType": "uint256",
          "name": "",
          "type": "uint256"
        }
      ],
      "stateMutability": "pure",
      "type": "function"
    },
    {
      "inputs": [
        {
          "internalType": "uint256",
          "name": "",
          "type": "uint256"
        },
        {
          "internalType": "bytes",
          "name": "",
          "type": "bytes"
        },
        {
          "internalType": "bytes",
          "name": "",
          "type": "bytes"
        }
      ],
      "name": "deposit",
      "outputs": [],
      "stateMutability": "pure",
      "type": "function"
    },
    {
      "inputs": [],
      "name": "identifier",
      "outputs": [
        {
          "internalType": "bytes32",
          "name": "",
          "type": "bytes32"
        }
      ],
      "stateMutability": "pure",
      "type": "function"
    },
    {
      "inputs": [],
      "name": "isDebt",
      "outputs": [
        {
          "internalType": "bool",
          "name": "",
          "type": "bool"
        }
      ],
      "stateMutability": "pure",
      "type": "function"
    },
    {
      "inputs": [
        {
          "internalType": "contract ERC20",
          "name": "asset",
          "type": "address"
        },
        {
          "internalType": "address",
          "name": "spender",
          "type": "address"
        }
      ],
      "name": "revokeApproval",
      "outputs": [],
      "stateMutability": "nonpayable",
      "type": "function"
    },
    {
      "inputs": [
        {
          "internalType": "address",
          "name": "asset",
          "type": "address"
        },
        {
          "internalType": "bool",
          "name": "useAsCollateral",
          "type": "bool"
        }
      ],
      "name": "setUserUseReserveAsCollateral",
      "outputs": [],
      "stateMutability": "nonpayable",
      "type": "function"
    },
    {
      "inputs": [],
      "name": "slippage",
      "outputs": [
        {
          "internalType": "uint32",
          "name": "",
          "type": "uint32"
        }
      ],
      "stateMutability": "pure",
      "type": "function"
    },
    {
      "inputs": [
        {
          "internalType": "uint256",
          "name": "",
          "type": "uint256"
        },
        {
          "internalType": "address",
          "name": "",
          "type": "address"
        },
        {
          "internalType": "bytes",
          "name": "",
          "type": "bytes"
        },
        {
          "internalType": "bytes",
          "name": "",
          "type": "bytes"
        }
      ],
      "name": "withdraw",
      "outputs": [],
      "stateMutability": "pure",
      "type": "function"
    },
    {
      "inputs": [
        {
          "internalType": "bytes",
          "name": "",
          "type": "bytes"
        },
        {
          "internalType": "bytes",
          "name": "",
          "type": "bytes"
        }
      ],
      "name": "withdrawableFrom",
      "outputs": [
        {
          "internalType": "uint256",
          "name": "",
          "type": "uint256"
        }
      ],
      "stateMutability": "pure",
      "type": "function"
    }
  ],
  "bytecode": {
    "object": "0x608060405234801561001057600080fd5b5061080f806100206000396000f3fe608060405234801561001057600080fd5b50600436106100a95760003560e01c806389353a091161007157806389353a0914610115578063aeffddde14610124578063c9111bd714610144578063d3bfe76a14610157578063e170a9bf1461016a578063fa50e5d21461019057600080fd5b80633e032a3b146100ae5780635a3b74b9146100c357806369445c31146100d857806378415365146100eb5780637998a1c41461010d575b600080fd5b60405161232881526020015b60405180910390f35b6100d66100d136600461048f565b6101a6565b005b6100d66100e6366004610570565b6102e2565b6100ff6100f93660046105dd565b50600090565b6040519081526020016100ba565b6100ff6102fb565b604051600081526020016100ba565b6101376101323660046105dd565b610372565b6040516100ba919061061a565b6100d6610152366004610667565b6103ce565b6100d66101653660046106e7565b6103e7565b6101786100f93660046105dd565b6040516001600160a01b0390911681526020016100ba565b6100ff61019e366004610715565b600092915050565b737d2768de32b0b80b7a3454c06bdac94a69ddc7a9604051635a3b74b960e01b81526001600160a01b03848116600483015283151560248301529190911690635a3b74b990604401600060405180830381600087803b15801561020857600080fd5b505af115801561021c573d6000803e3d6000fd5b50505050806102de576000737d2768de32b0b80b7a3454c06bdac94a69ddc7a9604051632fe4a15f60e21b81523060048201526001600160a01b03919091169063bf92857c9060240160c060405180830381865afa158015610282573d6000803e3d6000fd5b505050506040513d601f19601f820116820180604052508101906102a69190610779565b955050505050506102bc670e92596fd629000090565b8110156102dc57604051633e2c784360e21b815260040160405180910390fd5b505b5050565b604051633204ed5b60e21b815260040160405180910390fd5b60006040516020016103579060208082526030908201527f4161766520563220456e61626c6520417373657420417320436f6c6c6174657260408201526f0616c2041646170746f72205620302e360841b606082015260800190565b60405160208183030381529060405280519060200120905090565b604080516001808252818301909252606091602080830190803683370190505090506000816000815181106103a9576103a96107c3565b60200260200101906001600160a01b031690816001600160a01b031681525050919050565b604051635f5003c560e11b815260040160405180910390fd5b6102de6001600160a01b0383168260008060405163095ea7b360e01b8152836004820152826024820152602060006044836000895af13d15601f3d11600160005114161716915050806104715760405162461bcd60e51b815260206004820152600e60248201526d1054141493d59157d1905253115160921b604482015260640160405180910390fd5b50505050565b6001600160a01b038116811461048c57600080fd5b50565b600080604083850312156104a257600080fd5b82356104ad81610477565b9150602083013580151581146104c257600080fd5b809150509250929050565b634e487b7160e01b600052604160045260246000fd5b600082601f8301126104f457600080fd5b813567ffffffffffffffff8082111561050f5761050f6104cd565b604051601f8301601f19908116603f01168101908282118183101715610537576105376104cd565b8160405283815286602085880101111561055057600080fd5b836020870160208301376000602085830101528094505050505092915050565b60008060006060848603121561058557600080fd5b83359250602084013567ffffffffffffffff808211156105a457600080fd5b6105b0878388016104e3565b935060408601359150808211156105c657600080fd5b506105d3868287016104e3565b9150509250925092565b6000602082840312156105ef57600080fd5b813567ffffffffffffffff81111561060657600080fd5b610612848285016104e3565b949350505050565b6020808252825182820181905260009190848201906040850190845b8181101561065b5783516001600160a01b031683529284019291840191600101610636565b50909695505050505050565b6000806000806080858703121561067d57600080fd5b84359350602085013561068f81610477565b9250604085013567ffffffffffffffff808211156106ac57600080fd5b6106b8888389016104e3565b935060608701359150808211156106ce57600080fd5b506106db878288016104e3565b91505092959194509250565b600080604083850312156106fa57600080fd5b823561070581610477565b915060208301356104c281610477565b6000806040838503121561072857600080fd5b823567ffffffffffffffff8082111561074057600080fd5b61074c868387016104e3565b9350602085013591508082111561076257600080fd5b5061076f858286016104e3565b9150509250929050565b60008060008060008060c0878903121561079257600080fd5b865195506020870151945060408701519350606087015192506080870151915060a087015190509295509295509295565b634e487b7160e01b600052603260045260246000fdfea2646970667358221220ce7ca15ef5ca28938c5a20889a087e118f1a1746fbcaecc84eb1545553895dbc64736f6c63430008100033",
    "linkReferences": {}
  },
  "methodIdentifiers": {
    "assetOf(bytes)": "e170a9bf",
    "assetsUsed(bytes)": "aeffddde",
    "balanceOf(bytes)": "78415365",
    "deposit(uint256,bytes,bytes)": "69445c31",
    "identifier()": "7998a1c4",
    "isDebt()": "89353a09",
    "revokeApproval(address,address)": "d3bfe76a",
    "setUserUseReserveAsCollateral(address,bool)": "5a3b74b9",
    "slippage()": "3e032a3b",
    "withdraw(uint256,address,bytes,bytes)": "c9111bd7",
    "withdrawableFrom(bytes,bytes)": "fa50e5d2"
  },
  "id": 28
}