{
  "abi": [
    {
      "inputs": [
        {
          "internalType": "address",
          "name": "untrackedDebtPosition",
          "type": "address"
        }
      ],
      "name": "AaveV3DebtTokenAdaptor__DebtPositionsMustBeTracked",
      "type": "error"
    },
    {
      "inputs": [],
      "name": "AaveV3DebtTokenAdaptor__HealthFactorTooLow",
      "type": "error"
    },
    {
      "inputs": [],
      "name": "BaseAdaptor__ExternalReceiverBlocked",
      "type": "error"
    },
    {
      "inputs": [
        {
          "internalType": "address",
          "name": "asset",
          "type": "address"
        }
      ],
      "name": "BaseAdaptor__PricingNotSupported",
      "type": "error"
    },
    {
      "inputs": [],
      "name": "BaseAdaptor__Slippage",
      "type": "error"
    },
    {
      "inputs": [],
      "name": "BaseAdaptor__UserDepositsNotAllowed",
      "type": "error"
    },
    {
      "inputs": [],
      "name": "BaseAdaptor__UserWithdrawsNotAllowed",
      "type": "error"
    },
    {
      "inputs": [
        {
          "internalType": "bytes",
          "name": "adaptorData",
          "type": "bytes"
        }
      ],
      "name": "assetOf",
      "outputs": [
        {
          "internalType": "contract ERC20",
          "name": "",
          "type": "address"
        }
      ],
      "stateMutability": "view",
      "type": "function"
    },
    {
      "inputs": [
        {
          "internalType": "bytes",
          "name": "adaptorData",
          "type": "bytes"
        }
      ],
      "name": "assetsUsed",
      "outputs": [
        {
          "internalType": "contract ERC20[]",
          "name": "assets",
          "type": "address[]"
        }
      ],
      "stateMutability": "view",
      "type": "function"
    },
    {
      "inputs": [
        {
          "internalType": "bytes",
          "name": "adaptorData",
          "type": "bytes"
        }
      ],
      "name": "balanceOf",
      "outputs": [
        {
          "internalType": "uint256",
          "name": "",
          "type": "uint256"
        }
      ],
      "stateMutability": "view",
      "type": "function"
    },
    {
      "inputs": [
        {
          "internalType": "contract ERC20",
          "name": "debtTokenToBorrow",
          "type": "address"
        },
        {
          "internalType": "uint256",
          "name": "amountToBorrow",
          "type": "uint256"
        }
      ],
      "name": "borrowFromAave",
      "outputs": [],
      "stateMutability": "nonpayable",
      "type": "function"
    },
    {
      "inputs": [
        {
          "internalType": "uint256",
          "name": "",
          "type": "uint256"
        },
        {
          "internalType": "bytes",
          "name": "",
          "type": "bytes"
        },
        {
          "internalType": "bytes",
          "name": "",
          "type": "bytes"
        }
      ],
      "name": "deposit",
      "outputs": [],
      "stateMutability": "pure",
      "type": "function"
    },
    {
      "inputs": [
        {
          "internalType": "address[]",
          "name": "loanToken",
          "type": "address[]"
        },
        {
          "internalType": "uint256[]",
          "name": "loanAmount",
          "type": "uint256[]"
        },
        {
          "internalType": "bytes",
          "name": "params",
          "type": "bytes"
        }
      ],
      "name": "flashLoan",
      "outputs": [],
      "stateMutability": "nonpayable",
      "type": "function"
    },
    {
      "inputs": [],
      "name": "identifier",
      "outputs": [
        {
          "internalType": "bytes32",
          "name": "",
          "type": "bytes32"
        }
      ],
      "stateMutability": "pure",
      "type": "function"
    },
    {
      "inputs": [],
      "name": "isDebt",
      "outputs": [
        {
          "internalType": "bool",
          "name": "",
          "type": "bool"
        }
      ],
      "stateMutability": "pure",
      "type": "function"
    },
    {
      "inputs": [
        {
          "internalType": "contract ERC20",
          "name": "tokenToRepay",
          "type": "address"
        },
        {
          "internalType": "uint256",
          "name": "amountToRepay",
          "type": "uint256"
        }
      ],
      "name": "repayAaveDebt",
      "outputs": [],
      "stateMutability": "nonpayable",
      "type": "function"
    },
    {
      "inputs": [
        {
          "internalType": "contract ERC20",
          "name": "underlying",
          "type": "address"
        },
        {
          "internalType": "uint256",
          "name": "amount",
          "type": "uint256"
        }
      ],
      "name": "repayWithATokens",
      "outputs": [],
      "stateMutability": "nonpayable",
      "type": "function"
    },
    {
      "inputs": [
        {
          "internalType": "contract ERC20",
          "name": "asset",
          "type": "address"
        },
        {
          "internalType": "address",
          "name": "spender",
          "type": "address"
        }
      ],
      "name": "revokeApproval",
      "outputs": [],
      "stateMutability": "nonpayable",
      "type": "function"
    },
    {
      "inputs": [],
      "name": "slippage",
      "outputs": [
        {
          "internalType": "uint32",
          "name": "",
          "type": "uint32"
        }
      ],
      "stateMutability": "pure",
      "type": "function"
    },
    {
      "inputs": [
        {
          "internalType": "uint256",
          "name": "",
          "type": "uint256"
        },
        {
          "internalType": "address",
          "name": "",
          "type": "address"
        },
        {
          "internalType": "bytes",
          "name": "",
          "type": "bytes"
        },
        {
          "internalType": "bytes",
          "name": "",
          "type": "bytes"
        }
      ],
      "name": "withdraw",
      "outputs": [],
      "stateMutability": "pure",
      "type": "function"
    },
    {
      "inputs": [
        {
          "internalType": "bytes",
          "name": "",
          "type": "bytes"
        },
        {
          "internalType": "bytes",
          "name": "",
          "type": "bytes"
        }
      ],
      "name": "withdrawableFrom",
      "outputs": [
        {
          "internalType": "uint256",
          "name": "",
          "type": "uint256"
        }
      ],
      "stateMutability": "pure",
      "type": "function"
    }
  ],
  "bytecode": {
    "object": "0x608060405234801561001057600080fd5b50611211806100206000396000f3fe608060405234801561001057600080fd5b50600436106100ea5760003560e01c8063aeffddde1161008c578063d70c153911610066578063d70c1539146101bd578063e170a9bf146101d0578063f42b9551146101fb578063fa50e5d21461020e57600080fd5b8063aeffddde14610177578063c9111bd714610197578063d3bfe76a146101aa57600080fd5b8063788fb484116100c8578063788fb4841461013a5780637998a1c41461014d57806389353a09146101555780639a85e1d31461016457600080fd5b80633e032a3b146100ef57806369445c31146101045780637841536514610119575b600080fd5b60405161232881526020015b60405180910390f35b610117610112366004610bf6565b610224565b005b61012c610127366004610c63565b61023d565b6040519081526020016100fb565b610117610148366004610d47565b6102c6565b61012c6103da565b604051600181526020016100fb565b610117610172366004610e00565b610438565b61018a610185366004610c63565b6107af565b6040516100fb9190610e2c565b6101176101a5366004610e79565b610812565b6101176101b8366004610ef9565b61082b565b6101176101cb366004610e00565b610844565b6101e36101de366004610c63565b610922565b6040516001600160a01b0390911681526020016100fb565b610117610209366004610e00565b61099d565b61012c61021c366004610f32565b600092915050565b604051633204ed5b60e21b815260040160405180910390fd5b600080828060200190518101906102549190610f96565b6040516370a0823160e01b81523360048201529091506001600160a01b038216906370a0823190602401602060405180830381865afa15801561029b573d6000803e3d6000fd5b505050506040513d601f19601f820116820180604052508101906102bf9190610fb3565b9392505050565b81518351146103155760405162461bcd60e51b815260206004820152601660248201527524b7383aba103632b733ba341036b4b9b6b0ba31b41760511b60448201526064015b60405180910390fd5b6000835167ffffffffffffffff81111561033157610331610b3f565b60405190808252806020026020018201604052801561035a578160200160208202803683370190505b5060405163ab9c4b5d60e01b81529091507387870bca3f3fd6335c3f4ce8392d69350b4fa4e29063ab9c4b5d906103a290309088908890879084908a9060009060040161104d565b600060405180830381600087803b1580156103bc57600080fd5b505af11580156103d0573d6000803e3d6000fd5b5050505050505050565b600060405160200161041d906020808252601f908201527f416176652056332064656274546f6b656e2041646170746f72205620312e3000604082015260600190565b60405160208183030381529060405280519060200120905090565b60006104426103da565b604080516001600160a01b03861660208201526001910160408051601f1981840301815290829052610478939291602001611109565b6040516020818303038152906040528051906020012090506000306001600160a01b0316637b1039996040518163ffffffff1660e01b8152600401602060405180830381865afa1580156104d0573d6000803e3d6000fd5b505050506040513d601f19601f820116820180604052508101906104f49190610f96565b6001600160a01b03166309f7abd2836040518263ffffffff1660e01b815260040161052191815260200190565b602060405180830381865afa15801561053e573d6000803e3d6000fd5b505050506040513d601f19601f820116820180604052508101906105629190611133565b60405163024eefab60e61b815263ffffffff8216600482015290915030906393bbeac090602401602060405180830381865afa1580156105a6573d6000803e3d6000fd5b505050506040513d601f19601f820116820180604052508101906105ca9190611159565b6105f25760405163e5ee5e4760e01b81526001600160a01b038516600482015260240161030c565b7387870bca3f3fd6335c3f4ce8392d69350b4fa4e26001600160a01b031663a415bcad856001600160a01b031663b16a19de6040518163ffffffff1660e01b8152600401602060405180830381865afa158015610653573d6000803e3d6000fd5b505050506040513d601f19601f820116820180604052508101906106779190610f96565b6040516001600160e01b031960e084901b1681526001600160a01b03909116600482015260248101869052600260448201526000606482015230608482015260a401600060405180830381600087803b1580156106d357600080fd5b505af11580156106e7573d6000803e3d6000fd5b5050505060006107087387870bca3f3fd6335c3f4ce8392d69350b4fa4e290565b604051632fe4a15f60e21b81523060048201526001600160a01b03919091169063bf92857c9060240160c060405180830381865afa15801561074e573d6000803e3d6000fd5b505050506040513d601f19601f82011682018060405250810190610772919061117b565b95505050505050610788670e92596fd629000090565b8110156107a8576040516344f5313f60e01b815260040160405180910390fd5b5050505050565b604080516001808252818301909252606091602080830190803683370190505090506107da82610922565b816000815181106107ed576107ed6111c5565b60200260200101906001600160a01b031690816001600160a01b031681525050919050565b604051635f5003c560e11b815260040160405180910390fd5b6108406001600160a01b038316826000610a33565b5050565b61086c6001600160a01b0383167387870bca3f3fd6335c3f4ce8392d69350b4fa4e283610a33565b7387870bca3f3fd6335c3f4ce8392d69350b4fa4e260405163573ade8160e01b81526001600160a01b0384811660048301526024820184905260026044830152306064830152919091169063573ade81906084016020604051808303816000875af11580156108df573d6000803e3d6000fd5b505050506040513d601f19601f820116820180604052508101906109039190610fb3565b50610840827387870bca3f3fd6335c3f4ce8392d69350b4fa4e2610ab0565b600080828060200190518101906109399190610f96565b9050806001600160a01b031663b16a19de6040518163ffffffff1660e01b8152600401602060405180830381865afa158015610979573d6000803e3d6000fd5b505050506040513d601f19601f820116820180604052508101906102bf9190610f96565b7387870bca3f3fd6335c3f4ce8392d69350b4fa4e2604051630b6b65f560e21b81526001600160a01b03848116600483015260248201849052600260448301529190911690632dad97d4906064016020604051808303816000875af1158015610a0a573d6000803e3d6000fd5b505050506040513d601f19601f82011682018060405250810190610a2e9190610fb3565b505050565b600060405163095ea7b360e01b8152836004820152826024820152602060006044836000895af13d15601f3d1160016000511416171691505080610aaa5760405162461bcd60e51b815260206004820152600e60248201526d1054141493d59157d1905253115160921b604482015260640161030c565b50505050565b604051636eb1769f60e11b81523060048201526001600160a01b0382811660248301526000919084169063dd62ed3e90604401602060405180830381865afa158015610b00573d6000803e3d6000fd5b505050506040513d601f19601f82011682018060405250810190610b249190610fb3565b1115610840576108406001600160a01b038316826000610a33565b634e487b7160e01b600052604160045260246000fd5b604051601f8201601f1916810167ffffffffffffffff81118282101715610b7e57610b7e610b3f565b604052919050565b600082601f830112610b9757600080fd5b813567ffffffffffffffff811115610bb157610bb1610b3f565b610bc4601f8201601f1916602001610b55565b818152846020838601011115610bd957600080fd5b816020850160208301376000918101602001919091529392505050565b600080600060608486031215610c0b57600080fd5b83359250602084013567ffffffffffffffff80821115610c2a57600080fd5b610c3687838801610b86565b93506040860135915080821115610c4c57600080fd5b50610c5986828701610b86565b9150509250925092565b600060208284031215610c7557600080fd5b813567ffffffffffffffff811115610c8c57600080fd5b610c9884828501610b86565b949350505050565b600067ffffffffffffffff821115610cba57610cba610b3f565b5060051b60200190565b6001600160a01b0381168114610cd957600080fd5b50565b600082601f830112610ced57600080fd5b81356020610d02610cfd83610ca0565b610b55565b82815260059290921b84018101918181019086841115610d2157600080fd5b8286015b84811015610d3c5780358352918301918301610d25565b509695505050505050565b600080600060608486031215610d5c57600080fd5b833567ffffffffffffffff80821115610d7457600080fd5b818601915086601f830112610d8857600080fd5b81356020610d98610cfd83610ca0565b82815260059290921b8401810191818101908a841115610db757600080fd5b948201945b83861015610dde578535610dcf81610cc4565b82529482019490820190610dbc565b97505087013592505080821115610df457600080fd5b610c3687838801610cdc565b60008060408385031215610e1357600080fd5b8235610e1e81610cc4565b946020939093013593505050565b6020808252825182820181905260009190848201906040850190845b81811015610e6d5783516001600160a01b031683529284019291840191600101610e48565b50909695505050505050565b60008060008060808587031215610e8f57600080fd5b843593506020850135610ea181610cc4565b9250604085013567ffffffffffffffff80821115610ebe57600080fd5b610eca88838901610b86565b93506060870135915080821115610ee057600080fd5b50610eed87828801610b86565b91505092959194509250565b60008060408385031215610f0c57600080fd5b8235610f1781610cc4565b91506020830135610f2781610cc4565b809150509250929050565b60008060408385031215610f4557600080fd5b823567ffffffffffffffff80821115610f5d57600080fd5b610f6986838701610b86565b93506020850135915080821115610f7f57600080fd5b50610f8c85828601610b86565b9150509250929050565b600060208284031215610fa857600080fd5b81516102bf81610cc4565b600060208284031215610fc557600080fd5b5051919050565b600081518084526020808501945080840160005b83811015610ffc57815187529582019590820190600101610fe0565b509495945050505050565b6000815180845260005b8181101561102d57602081850181015186830182015201611011565b506000602082860101526020601f19601f83011685010191505092915050565b6001600160a01b03888116825260e0602080840182905289519184018290526000928a820192909190610100860190855b8181101561109c57855185168352948301949183019160010161107e565b505085810360408701526110b0818c610fcc565b935050505082810360608401526110c78188610fcc565b6001600160a01b0387166080850152905082810360a08401526110ea8186611007565b9150506110fd60c083018461ffff169052565b98975050505050505050565b838152821515602082015260606040820152600061112a6060830184611007565b95945050505050565b60006020828403121561114557600080fd5b815163ffffffff811681146102bf57600080fd5b60006020828403121561116b57600080fd5b815180151581146102bf57600080fd5b60008060008060008060c0878903121561119457600080fd5b865195506020870151945060408701519350606087015192506080870151915060a087015190509295509295509295565b634e487b7160e01b600052603260045260246000fdfea26469706673582212201786ec94e97b0894e8d3b0063c5564c19242c6601606744f49cf6b68e51c753f64736f6c63430008100033",
    "linkReferences": {}
  },
  "methodIdentifiers": {
    "assetOf(bytes)": "e170a9bf",
    "assetsUsed(bytes)": "aeffddde",
    "balanceOf(bytes)": "78415365",
    "borrowFromAave(address,uint256)": "9a85e1d3",
    "deposit(uint256,bytes,bytes)": "69445c31",
    "flashLoan(address[],uint256[],bytes)": "788fb484",
    "identifier()": "7998a1c4",
    "isDebt()": "89353a09",
    "repayAaveDebt(address,uint256)": "d70c1539",
    "repayWithATokens(address,uint256)": "f42b9551",
    "revokeApproval(address,address)": "d3bfe76a",
    "slippage()": "3e032a3b",
    "withdraw(uint256,address,bytes,bytes)": "c9111bd7",
    "withdrawableFrom(bytes,bytes)": "fa50e5d2"
  },
  "id": 77
}