{
    "abi": [
        {
            "inputs": [
                {
                    "internalType": "address",
                    "name": "_vault",
                    "type": "address"
                },
                {
                    "internalType": "address",
                    "name": "_minter",
                    "type": "address"
                },
                {
                    "internalType": "uint32",
                    "name": "_balancerSlippage",
                    "type": "uint32"
                }
            ],
            "stateMutability": "nonpayable",
            "type": "constructor"
        },
        {
            "inputs": [
                {
                    "internalType": "address",
                    "name": "bpt",
                    "type": "address"
                },
                {
                    "internalType": "address",
                    "name": "liquidityGauge",
                    "type": "address"
                }
            ],
            "name": "BalancerPoolAdaptor__BptAndGaugeComboMustBeTracked",
            "type": "error"
        },
        {
            "inputs": [],
            "name": "BalancerPoolAdaptor___InternalBalancesNotSupported",
            "type": "error"
        },
        {
            "inputs": [],
            "name": "BalancerPoolAdaptor___InvalidConstructorSlippage",
            "type": "error"
        },
        {
            "inputs": [],
            "name": "BalancerPoolAdaptor___LengthMismatch",
            "type": "error"
        },
        {
            "inputs": [],
            "name": "BalancerPoolAdaptor___Slippage",
            "type": "error"
        },
        {
            "inputs": [],
            "name": "BalancerPoolAdaptor___SwapTokenAndExpectedTokenMismatch",
            "type": "error"
        },
        {
            "inputs": [],
            "name": "BalancerPoolAdaptor___UnsupportedTokenNotSwapped",
            "type": "error"
        },
        {
            "inputs": [],
            "name": "BalancerPoolAdaptor___WrongSwapKind",
            "type": "error"
        },
        {
            "inputs": [],
            "name": "BaseAdaptor__ConstructorHealthFactorTooLow",
            "type": "error"
        },
        {
            "inputs": [],
            "name": "BaseAdaptor__ExternalReceiverBlocked",
            "type": "error"
        },
        {
            "inputs": [
                {
                    "internalType": "address",
                    "name": "asset",
                    "type": "address"
                }
            ],
            "name": "BaseAdaptor__PricingNotSupported",
            "type": "error"
        },
        {
            "inputs": [],
            "name": "BaseAdaptor__Slippage",
            "type": "error"
        },
        {
            "inputs": [],
            "name": "BaseAdaptor__UserDepositsNotAllowed",
            "type": "error"
        },
        {
            "inputs": [],
            "name": "BaseAdaptor__UserWithdrawsNotAllowed",
            "type": "error"
        },
        {
            "inputs": [],
            "name": "EXACT_TOKENS_IN_FOR_BPT_OUT",
            "outputs": [
                {
                    "internalType": "uint256",
                    "name": "",
                    "type": "uint256"
                }
            ],
            "stateMutability": "view",
            "type": "function"
        },
        {
            "inputs": [
                {
                    "internalType": "bytes",
                    "name": "_adaptorData",
                    "type": "bytes"
                }
            ],
            "name": "assetOf",
            "outputs": [
                {
                    "internalType": "contract ERC20",
                    "name": "",
                    "type": "address"
                }
            ],
            "stateMutability": "pure",
            "type": "function"
        },
        {
            "inputs": [
                {
                    "internalType": "bytes",
                    "name": "_adaptorData",
                    "type": "bytes"
                }
            ],
            "name": "assetsUsed",
            "outputs": [
                {
                    "internalType": "contract ERC20[]",
                    "name": "assets",
                    "type": "address[]"
                }
            ],
            "stateMutability": "pure",
            "type": "function"
        },
        {
            "inputs": [
                {
                    "internalType": "bytes",
                    "name": "_adaptorData",
                    "type": "bytes"
                }
            ],
            "name": "balanceOf",
            "outputs": [
                {
                    "internalType": "uint256",
                    "name": "",
                    "type": "uint256"
                }
            ],
            "stateMutability": "view",
            "type": "function"
        },
        {
            "inputs": [],
            "name": "balancerSlippage",
            "outputs": [
                {
                    "internalType": "uint32",
                    "name": "",
                    "type": "uint32"
                }
            ],
            "stateMutability": "view",
            "type": "function"
        },
        {
            "inputs": [
                {
                    "internalType": "address",
                    "name": "gauge",
                    "type": "address"
                }
            ],
            "name": "claimRewards",
            "outputs": [],
            "stateMutability": "nonpayable",
            "type": "function"
        },
        {
            "inputs": [
                {
                    "internalType": "uint256",
                    "name": "",
                    "type": "uint256"
                },
                {
                    "internalType": "bytes",
                    "name": "",
                    "type": "bytes"
                },
                {
                    "internalType": "bytes",
                    "name": "",
                    "type": "bytes"
                }
            ],
            "name": "deposit",
            "outputs": [],
            "stateMutability": "pure",
            "type": "function"
        },
        {
            "inputs": [
                {
                    "internalType": "contract ERC20",
                    "name": "targetBpt",
                    "type": "address"
                },
                {
                    "components": [
                        {
                            "internalType": "bytes32",
                            "name": "poolId",
                            "type": "bytes32"
                        },
                        {
                            "internalType": "enum IVault.SwapKind",
                            "name": "kind",
                            "type": "uint8"
                        },
                        {
                            "internalType": "contract IAsset",
                            "name": "assetIn",
                            "type": "address"
                        },
                        {
                            "internalType": "contract IAsset",
                            "name": "assetOut",
                            "type": "address"
                        },
                        {
                            "internalType": "uint256",
                            "name": "amount",
                            "type": "uint256"
                        },
                        {
                            "internalType": "bytes",
                            "name": "userData",
                            "type": "bytes"
                        }
                    ],
                    "internalType": "struct IVault.SingleSwap[]",
                    "name": "swapsAfterExit",
                    "type": "tuple[]"
                },
                {
                    "components": [
                        {
                            "internalType": "uint256[]",
                            "name": "minAmountsForSwaps",
                            "type": "uint256[]"
                        },
                        {
                            "internalType": "uint256[]",
                            "name": "swapDeadlines",
                            "type": "uint256[]"
                        }
                    ],
                    "internalType": "struct BalancerPoolAdaptor.SwapData",
                    "name": "swapData",
                    "type": "tuple"
                },
                {
                    "components": [
                        {
                            "internalType": "contract IAsset[]",
                            "name": "assets",
                            "type": "address[]"
                        },
                        {
                            "internalType": "uint256[]",
                            "name": "minAmountsOut",
                            "type": "uint256[]"
                        },
                        {
                            "internalType": "bytes",
                            "name": "userData",
                            "type": "bytes"
                        },
                        {
                            "internalType": "bool",
                            "name": "toInternalBalance",
                            "type": "bool"
                        }
                    ],
                    "internalType": "struct IVault.ExitPoolRequest",
                    "name": "request",
                    "type": "tuple"
                }
            ],
            "name": "exitPool",
            "outputs": [],
            "stateMutability": "nonpayable",
            "type": "function"
        },
        {
            "inputs": [
                {
                    "internalType": "address",
                    "name": "targetBpt",
                    "type": "address"
                }
            ],
            "name": "getExpectedTokens",
            "outputs": [
                {
                    "internalType": "contract ERC20[]",
                    "name": "expectedTokens",
                    "type": "address[]"
                }
            ],
            "stateMutability": "view",
            "type": "function"
        },
        {
            "inputs": [],
            "name": "identifier",
            "outputs": [
                {
                    "internalType": "bytes32",
                    "name": "",
                    "type": "bytes32"
                }
            ],
            "stateMutability": "pure",
            "type": "function"
        },
        {
            "inputs": [],
            "name": "isDebt",
            "outputs": [
                {
                    "internalType": "bool",
                    "name": "",
                    "type": "bool"
                }
            ],
            "stateMutability": "pure",
            "type": "function"
        },
        {
            "inputs": [
                {
                    "internalType": "contract ERC20",
                    "name": "targetBpt",
                    "type": "address"
                },
                {
                    "components": [
                        {
                            "internalType": "bytes32",
                            "name": "poolId",
                            "type": "bytes32"
                        },
                        {
                            "internalType": "enum IVault.SwapKind",
                            "name": "kind",
                            "type": "uint8"
                        },
                        {
                            "internalType": "contract IAsset",
                            "name": "assetIn",
                            "type": "address"
                        },
                        {
                            "internalType": "contract IAsset",
                            "name": "assetOut",
                            "type": "address"
                        },
                        {
                            "internalType": "uint256",
                            "name": "amount",
                            "type": "uint256"
                        },
                        {
                            "internalType": "bytes",
                            "name": "userData",
                            "type": "bytes"
                        }
                    ],
                    "internalType": "struct IVault.SingleSwap[]",
                    "name": "swapsBeforeJoin",
                    "type": "tuple[]"
                },
                {
                    "components": [
                        {
                            "internalType": "uint256[]",
                            "name": "minAmountsForSwaps",
                            "type": "uint256[]"
                        },
                        {
                            "internalType": "uint256[]",
                            "name": "swapDeadlines",
                            "type": "uint256[]"
                        }
                    ],
                    "internalType": "struct BalancerPoolAdaptor.SwapData",
                    "name": "swapData",
                    "type": "tuple"
                },
                {
                    "internalType": "uint256",
                    "name": "minimumBpt",
                    "type": "uint256"
                }
            ],
            "name": "joinPool",
            "outputs": [],
            "stateMutability": "nonpayable",
            "type": "function"
        },
        {
            "inputs": [],
            "name": "minter",
            "outputs": [
                {
                    "internalType": "contract IBalancerMinter",
                    "name": "",
                    "type": "address"
                }
            ],
            "stateMutability": "view",
            "type": "function"
        },
        {
            "inputs": [
                {
                    "internalType": "contract ERC20",
                    "name": "asset",
                    "type": "address"
                },
                {
                    "internalType": "address",
                    "name": "spender",
                    "type": "address"
                }
            ],
            "name": "revokeApproval",
            "outputs": [],
            "stateMutability": "nonpayable",
            "type": "function"
        },
        {
            "inputs": [],
            "name": "slippage",
            "outputs": [
                {
                    "internalType": "uint32",
                    "name": "",
                    "type": "uint32"
                }
            ],
            "stateMutability": "pure",
            "type": "function"
        },
        {
            "inputs": [
                {
                    "internalType": "contract ERC20",
                    "name": "_bpt",
                    "type": "address"
                },
                {
                    "internalType": "address",
                    "name": "_liquidityGauge",
                    "type": "address"
                },
                {
                    "internalType": "uint256",
                    "name": "_amountIn",
                    "type": "uint256"
                }
            ],
            "name": "stakeBPT",
            "outputs": [],
            "stateMutability": "nonpayable",
            "type": "function"
        },
        {
            "inputs": [
                {
                    "internalType": "contract ERC20",
                    "name": "_bpt",
                    "type": "address"
                },
                {
                    "internalType": "address",
                    "name": "_liquidityGauge",
                    "type": "address"
                },
                {
                    "internalType": "uint256",
                    "name": "_amountOut",
                    "type": "uint256"
                }
            ],
            "name": "unstakeBPT",
            "outputs": [],
            "stateMutability": "nonpayable",
            "type": "function"
        },
        {
            "inputs": [],
            "name": "vault",
            "outputs": [
                {
                    "internalType": "contract IVault",
                    "name": "",
                    "type": "address"
                }
            ],
            "stateMutability": "view",
            "type": "function"
        },
        {
            "inputs": [
                {
                    "internalType": "uint256",
                    "name": "_amountBPTToSend",
                    "type": "uint256"
                },
                {
                    "internalType": "address",
                    "name": "_recipient",
                    "type": "address"
                },
                {
                    "internalType": "bytes",
                    "name": "_adaptorData",
                    "type": "bytes"
                },
                {
                    "internalType": "bytes",
                    "name": "",
                    "type": "bytes"
                }
            ],
            "name": "withdraw",
            "outputs": [],
            "stateMutability": "nonpayable",
            "type": "function"
        },
        {
            "inputs": [
                {
                    "internalType": "bytes",
                    "name": "_adaptorData",
                    "type": "bytes"
                },
                {
                    "internalType": "bytes",
                    "name": "",
                    "type": "bytes"
                }
            ],
            "name": "withdrawableFrom",
            "outputs": [
                {
                    "internalType": "uint256",
                    "name": "",
                    "type": "uint256"
                }
            ],
            "stateMutability": "view",
            "type": "function"
        }
    ],
    "bytecode": {
        "object": "0x60e06040523480156200001157600080fd5b5060405162003477380380620034778339810160408190526200003491620000b0565b6123288163ffffffff1610806200005257506127108163ffffffff16115b156200007157604051633aa8bcf160e01b815260040160405180910390fd5b6001600160a01b03928316608052911660a05263ffffffff1660c05262000106565b80516001600160a01b0381168114620000ab57600080fd5b919050565b600080600060608486031215620000c657600080fd5b620000d18462000093565b9250620000e16020850162000093565b9150604084015163ffffffff81168114620000fb57600080fd5b809150509250925092565b60805160a05160c0516132d86200019f600039600081816102b301528181610e7d0152611c840152600081816101360152611ede0152600081816102ed0152818161042b015281816106f10152818161085e0152818161094d01528181610b3201528181610d5f01528181610dc5015281816111040152818161136701528181611597015281816118b601526119d201526132d86000f3fe608060405234801561001057600080fd5b506004361061012c5760003560e01c806397194b13116100ad578063e170a9bf11610071578063e170a9bf14610288578063ef5cfb8c1461029b578063f7e69b16146102ae578063fa50e5d2146102d5578063fbfa77cf146102e857600080fd5b806397194b1314610229578063aeffddde1461023c578063c9111bd71461024f578063d2e8580614610262578063d3bfe76a1461027557600080fd5b806378415365116100f457806378415365146101cc5780637906afbf146101df5780637998a1c4146101ff57806389353a09146102075780638f210a6a1461021657600080fd5b806307546172146101315780630e222e52146101755780633e032a3b1461018b5780635c14acdb146101a457806369445c31146101b9575b600080fd5b6101587f000000000000000000000000000000000000000000000000000000000000000081565b6040516001600160a01b0390911681526020015b60405180910390f35b61017d600181565b60405190815260200161016c565b6123285b60405163ffffffff909116815260200161016c565b6101b76101b2366004612920565b61030f565b005b6101b76101c736600461299d565b610ed7565b61017d6101da366004612a09565b610ef0565b6101f26101ed366004612a3d565b61107a565b60405161016c9190612a9e565b61017d611181565b6040516000815260200161016c565b6101b7610224366004612ab1565b6111df565b6101b7610237366004612b0b565b6112df565b6101f261024a366004612a09565b611cdd565b6101b761025d366004612c88565b611d40565b6101b7610270366004612ab1565b611e12565b6101b7610283366004612d07565b611e8a565b610158610296366004612a09565b611ea3565b6101b76102a9366004612a3d565b611ebf565b61018f7f000000000000000000000000000000000000000000000000000000000000000081565b61017d6102e3366004612d40565b611f36565b6101587f000000000000000000000000000000000000000000000000000000000000000081565b6000846001600160a01b03166338fff2d06040518163ffffffff1660e01b8152600401602060405180830381865afa15801561034f573d6000803e3d6000fd5b505050506040513d601f19601f820116820180604052508101906103739190612da3565b90506000306001600160a01b031663d7d4bf456040518163ffffffff1660e01b8152600401602060405180830381865afa1580156103b5573d6000803e3d6000fd5b505050506040513d601f19601f820116820180604052508101906103d99190612dbc565b905061040860405180608001604052806060815260200160608152602001606081526020016000151581525090565b60006060828101829052604051631f29a8cd60e31b8152600481018690529091907f00000000000000000000000000000000000000000000000000000000000000006001600160a01b03169063f94d466890602401600060405180830381865afa15801561047a573d6000803e3d6000fd5b505050506040513d6000823e601f3d908101601f191682016040526104a29190810190612e34565b505090506104b08982611f48565b915080516001600160401b038111156104cb576104cb6125e8565b6040519080825280602002602001820160405280156104f4578160200160208202803683370190505b50835260005b815181101561055b5781818151811061051557610515612f01565b60200260200101518460000151828151811061053357610533612f01565b6001600160a01b039092166020928302919091019091015261055481612f2d565b90506104fa565b5080516001600160401b03811115610575576105756125e8565b60405190808252806020026020018201604052801561059e578160200160208202803683370190505b50602084015260005b81518110156105e457600019846020015182815181106105c9576105c9612f01565b60209081029190910101526105dd81612f2d565b90506105a7565b505080518751146106085760405163967575bd60e01b815260040160405180910390fd5b600081516001600160401b03811115610623576106236125e8565b60405190808252806020026020018201604052801561064c578160200160208202803683370190505b50905060005b8851811015610a805788818151811061066d5761066d612f01565b60200260200101516080015160000315610a7057600089828151811061069557610695612f01565b60200260200101516040015190506106ca818b84815181106106b9576106b9612f01565b60200260200101516080015161214d565b8a83815181106106dc576106dc612f01565b602002602001015160800181815250506107477f00000000000000000000000000000000000000000000000000000000000000008b848151811061072257610722612f01565b602002602001015160800151836001600160a01b03166121ce9092919063ffffffff16565b60006001600160a01b03168a838151811061076457610764612f01565b6020026020010151606001516001600160a01b0316146109c95783828151811061079057610790612f01565b60200260200101516001600160a01b03168a83815181106107b3576107b3612f01565b6020026020010151606001516001600160a01b0316146107e6576040516385f4bd3b60e01b815260040160405180910390fd5b60008a83815181106107fa576107fa612f01565b602002602001015160200151600181111561081757610817612f46565b14610835576040516374c0729b60e01b815260040160405180910390fd5b604080516080810182523080825260006020830181905292820152606081018290528b519091907f00000000000000000000000000000000000000000000000000000000000000006001600160a01b0316906352bbbe29908e908790811061089f5761089f612f01565b6020026020010151848e6000015188815181106108be576108be612f01565b60200260200101518f6020015189815181106108dc576108dc612f01565b60200260200101516040518563ffffffff1660e01b81526004016109039493929190612fa2565b6020604051808303816000875af1158015610922573d6000803e3d6000fd5b505050506040513d601f19601f820116820180604052508101906109469190612da3565b90506109a37f0000000000000000000000000000000000000000000000000000000000000000828e878151811061097f5761097f612f01565b6020026020010151606001516001600160a01b03166121ce9092919063ffffffff16565b808585815181106109b6576109b6612f01565b6020026020010181815250505050610a6e565b8382815181106109db576109db612f01565b60200260200101516001600160a01b03168a83815181106109fe576109fe612f01565b6020026020010151604001516001600160a01b031614610a31576040516385f4bd3b60e01b815260040160405180910390fd5b898281518110610a4357610a43612f01565b602002602001015160800151838381518110610a6157610a61612f01565b6020026020010181815250505b505b610a7981612f2d565b9050610652565b5060018187604051602001610a97939291906130b0565b60408051808303601f1901815291815284810191909152516370a0823160e01b8152306004820152600091506001600160a01b038a16906370a0823190602401602060405180830381865afa158015610af4573d6000803e3d6000fd5b505050506040513d601f19601f82011682018060405250810190610b189190612da3565b60405163172b958560e31b81529091506001600160a01b037f0000000000000000000000000000000000000000000000000000000000000000169063b95cac2890610b6d908890309081908990600401613170565b600060405180830381600087803b158015610b8757600080fd5b505af1158015610b9b573d6000803e3d6000fd5b50506040516370a0823160e01b81523060048201528392506001600160a01b038c1691506370a0823190602401602060405180830381865afa158015610be5573d6000803e3d6000fd5b505050506040513d601f19601f82011682018060405250810190610c099190612da3565b610c1391906131a2565b9050600088516001600160401b03811115610c3057610c306125e8565b604051908082528060200260200182016040528015610c59578160200160208202803683370190505b509050600089516001600160401b03811115610c7757610c776125e8565b604051908082528060200260200182016040528015610ca0578160200160208202803683370190505b50905060005b8a51811015610dfc5760008b8281518110610cc357610cc3612f01565b602002602001015160400151905080838381518110610ce457610ce4612f01565b60200260200101906001600160a01b031690816001600160a01b0316815250508b8281518110610d1657610d16612f01565b602002602001015160800151848381518110610d3457610d34612f01565b602002602001018181525050610d83838381518110610d5557610d55612f01565b60200260200101517f0000000000000000000000000000000000000000000000000000000000000000612250565b60008c8381518110610d9757610d97612f01565b602002602001015160600151905060006001600160a01b0316816001600160a01b031614610de957610de9817f0000000000000000000000000000000000000000000000000000000000000000612250565b505080610df590612f2d565b9050610ca6565b506000866001600160a01b031663b333a17583858f6040518463ffffffff1660e01b8152600401610e2f939291906131b5565b602060405180830381865afa158015610e4c573d6000803e3d6000fd5b505050506040513d601f19601f82011682018060405250810190610e709190612da3565b9050610ea98163ffffffff7f0000000000000000000000000000000000000000000000000000000000000000811690612710906122df16565b841015610ec9576040516336bedbd960e11b815260040160405180910390fd5b505050505050505050505050565b604051633204ed5b60e21b815260040160405180910390fd5b600080600083806020019051810190610f0991906131f3565b90925090506001600160a01b038116610f8c576040516370a0823160e01b81523360048201526001600160a01b038316906370a0823190602401602060405180830381865afa158015610f60573d6000803e3d6000fd5b505050506040513d601f19601f82011682018060405250810190610f849190612da3565b949350505050565b6040516370a0823160e01b815233600482015281906000906001600160a01b038316906370a0823190602401602060405180830381865afa158015610fd5573d6000803e3d6000fd5b505050506040513d601f19601f82011682018060405250810190610ff99190612da3565b6040516370a0823160e01b815233600482015290915081906001600160a01b038616906370a0823190602401602060405180830381865afa158015611042573d6000803e3d6000fd5b505050506040513d601f19601f820116820180604052508101906110669190612da3565b6110709190613222565b9695505050505050565b60606000826001600160a01b03166338fff2d06040518163ffffffff1660e01b8152600401602060405180830381865afa1580156110bc573d6000803e3d6000fd5b505050506040513d601f19601f820116820180604052508101906110e09190612da3565b604051631f29a8cd60e31b8152600481018290529091506000906001600160a01b037f0000000000000000000000000000000000000000000000000000000000000000169063f94d466890602401600060405180830381865afa15801561114b573d6000803e3d6000fd5b505050506040513d6000823e601f3d908101601f191682016040526111739190810190612e34565b50509050610f848482611f48565b60006040516020016111c4906020808252601b908201527f42616c616e63657220506f6f6c2041646170746f72205620312e300000000000604082015260600190565b60405160208183030381529060405280519060200120905090565b6111e983836122fe565b60006111f5848361214d565b60405163095ea7b360e01b81526001600160a01b03808616600483015260248201839052919250849186169063095ea7b3906044016020604051808303816000875af1158015611249573d6000803e3d6000fd5b505050506040513d601f19601f8201168201806040525081019061126d9190613235565b50604051636e553f6560e01b8152600481018390523060248201526001600160a01b03821690636e553f6590604401600060405180830381600087803b1580156112b657600080fd5b505af11580156112ca573d6000803e3d6000fd5b505050506112d88582612250565b5050505050565b6000846001600160a01b03166338fff2d06040518163ffffffff1660e01b8152600401602060405180830381865afa15801561131f573d6000803e3d6000fd5b505050506040513d601f19601f820116820180604052508101906113439190612da3565b604051631f29a8cd60e31b8152600481018290529091506000906001600160a01b037f0000000000000000000000000000000000000000000000000000000000000000169063f94d466890602401600060405180830381865afa1580156113ae573d6000803e3d6000fd5b505050506040513d6000823e601f3d908101601f191682016040526113d69190810190612e34565b5050905060006113e68783611f48565b905083606001511561140b57604051636d22518360e01b815260040160405180910390fd5b600081516001600160401b03811115611426576114266125e8565b60405190808252806020026020018201604052801561144f578160200160208202803683370190505b50905060005b82518110156115115782818151811061147057611470612f01565b60209081029190910101516040516370a0823160e01b81523060048201526001600160a01b03909116906370a0823190602401602060405180830381865afa1580156114c0573d6000803e3d6000fd5b505050506040513d601f19601f820116820180604052508101906114e49190612da3565b8282815181106114f6576114f6612f01565b602090810291909101015261150a81612f2d565b9050611455565b506040516370a0823160e01b81523060048201526000906001600160a01b038a16906370a0823190602401602060405180830381865afa158015611559573d6000803e3d6000fd5b505050506040513d601f19601f8201168201806040525081019061157d9190612da3565b604051638bdb391360e01b81529091506001600160a01b037f00000000000000000000000000000000000000000000000000000000000000001690638bdb3913906115d2908890309081908c90600401613170565b600060405180830381600087803b1580156115ec57600080fd5b505af1158015611600573d6000803e3d6000fd5b50506040516370a0823160e01b81523060048201526001600160a01b038c1692506370a082319150602401602060405180830381865afa158015611648573d6000803e3d6000fd5b505050506040513d601f19601f8201168201806040525081019061166c9190612da3565b61167690826131a2565b905060005b835181101561175b5782818151811061169657611696612f01565b60200260200101518482815181106116b0576116b0612f01565b60209081029190910101516040516370a0823160e01b81523060048201526001600160a01b03909116906370a0823190602401602060405180830381865afa158015611700573d6000803e3d6000fd5b505050506040513d601f19601f820116820180604052508101906117249190612da3565b61172e91906131a2565b83828151811061174057611740612f01565b602090810291909101015261175481612f2d565b905061167b565b506000306001600160a01b031663d7d4bf456040518163ffffffff1660e01b8152600401602060405180830381865afa15801561179c573d6000803e3d6000fd5b505050506040513d601f19601f820116820180604052508101906117c09190612dbc565b905083518951146117e45760405163967575bd60e01b815260040160405180910390fd5b60005b8451811015611c035783818151811061180257611802612f01565b602002602001015160000315611bf35784818151811061182457611824612f01565b60200260200101516001600160a01b03168a828151811061184757611847612f01565b6020026020010151604001516001600160a01b03161461187a576040516385f4bd3b60e01b815260040160405180910390fd5b60006001600160a01b03168a828151811061189757611897612f01565b6020026020010151606001516001600160a01b031614611b41576119217f00000000000000000000000000000000000000000000000000000000000000008583815181106118e7576118e7612f01565b602002602001015187848151811061190157611901612f01565b60200260200101516001600160a01b03166121ce9092919063ffffffff16565b6040805160808101825230808252600060208301819052928201526060810191909152845185908390811061195857611958612f01565b60200260200101518b838151811061197257611972612f01565b60209081029190910101516080015260008b838151811061199557611995612f01565b60200260200101516020015160018111156119b2576119b2612f46565b146119d0576040516374c0729b60e01b815260040160405180910390fd5b7f00000000000000000000000000000000000000000000000000000000000000006001600160a01b03166352bbbe298c8481518110611a1157611a11612f01565b6020026020010151838d600001518681518110611a3057611a30612f01565b60200260200101518e602001518781518110611a4e57611a4e612f01565b60200260200101516040518563ffffffff1660e01b8152600401611a759493929190612fa2565b6020604051808303816000875af1158015611a94573d6000803e3d6000fd5b505050506040513d601f19601f82011682018060405250810190611ab89190612da3565b858381518110611aca57611aca612f01565b602002602001018181525050611aeb868381518110610d5557610d55612f01565b8a8281518110611afd57611afd612f01565b602002602001015160600151868381518110611b1b57611b1b612f01565b60200260200101906001600160a01b031690816001600160a01b03168152505050611bf3565b816001600160a01b0316634f129c53868381518110611b6257611b62612f01565b60200260200101516040518263ffffffff1660e01b8152600401611b9591906001600160a01b0391909116815260200190565b602060405180830381865afa158015611bb2573d6000803e3d6000fd5b505050506040513d601f19601f82011682018060405250810190611bd69190613235565b611bf3576040516301da6c4960e11b815260040160405180910390fd5b611bfc81612f2d565b90506117e7565b506000816001600160a01b031663b333a17586868e6040518463ffffffff1660e01b8152600401611c36939291906131b5565b602060405180830381865afa158015611c53573d6000803e3d6000fd5b505050506040513d601f19601f82011682018060405250810190611c779190612da3565b9050611cb08363ffffffff7f0000000000000000000000000000000000000000000000000000000000000000811690612710906122df16565b811015611cd0576040516336bedbd960e11b815260040160405180910390fd5b5050505050505050505050565b60408051600180825281830190925260609160208083019080368337019050509050611d0882611ea3565b81600081518110611d1b57611d1b612f01565b60200260200101906001600160a01b031690816001600160a01b031681525050919050565b611d49836124c4565b60008083806020019051810190611d6091906131f3565b6040516370a0823160e01b815230600482015291935091506000906001600160a01b038416906370a0823190602401602060405180830381865afa158015611dac573d6000803e3d6000fd5b505050506040513d601f19601f82011682018060405250810190611dd09190612da3565b905080871115611df5576000611de682896131a2565b9050611df3848483611e12565b505b611e096001600160a01b038416878961255b565b50505050505050565b611e1c83836122fe565b81611e27818361214d565b604051632e1a7d4d60e01b8152600481018290529092506001600160a01b03821690632e1a7d4d90602401600060405180830381600087803b158015611e6c57600080fd5b505af1158015611e80573d6000803e3d6000fd5b5050505050505050565b611e9f6001600160a01b0383168260006121ce565b5050565b600081806020019051810190611eb99190612dbc565b92915050565b6040516335313c2160e11b81526001600160a01b0382811660048301527f00000000000000000000000000000000000000000000000000000000000000001690636a62784290602401600060405180830381600087803b158015611f2257600080fd5b505af11580156112d8573d6000803e3d6000fd5b6000611f4183610ef0565b9392505050565b80516060906000805b82811015611fa457856001600160a01b0316858281518110611f7557611f75612f01565b60200260200101516001600160a01b031603611f945760019150611fa4565b611f9d81612f2d565b9050611f51565b5080156120a057611fb66001836131a2565b6001600160401b03811115611fcd57611fcd6125e8565b604051908082528060200260200182016040528015611ff6578160200160208202803683370190505b5092506000805b8381101561209957866001600160a01b031686828151811061202157612021612f01565b60200260200101516001600160a01b0316146120895785818151811061204957612049612f01565b602002602001015185838151811061206357612063612f01565b6001600160a01b03909216602092830291909101909101528161208581612f2d565b9250505b61209281612f2d565b9050611ffd565b5050612145565b816001600160401b038111156120b8576120b86125e8565b6040519080825280602002602001820160405280156120e1578160200160208202803683370190505b50925060005b828110156121435784818151811061210157612101612f01565b602002602001015184828151811061211b5761211b612f01565b6001600160a01b039092166020928302919091019091015261213c81612f2d565b90506120e7565b505b505092915050565b600060001982036121c7576040516370a0823160e01b81523060048201526001600160a01b038416906370a0823190602401602060405180830381865afa15801561219c573d6000803e3d6000fd5b505050506040513d601f19601f820116820180604052508101906121c09190612da3565b9050611eb9565b5080611eb9565b600060405163095ea7b360e01b8152836004820152826024820152602060006044836000895af13d15601f3d116001600051141617169150508061224a5760405162461bcd60e51b815260206004820152600e60248201526d1054141493d59157d1905253115160921b60448201526064015b60405180910390fd5b50505050565b604051636eb1769f60e11b81523060048201526001600160a01b0382811660248301526000919084169063dd62ed3e90604401602060405180830381865afa1580156122a0573d6000803e3d6000fd5b505050506040513d601f19601f820116820180604052508101906122c49190612da3565b1115611e9f57611e9f6001600160a01b0383168260006121ce565b8282028115158415858304851417166122f757600080fd5b0492915050565b6000612308611181565b604080516001600160a01b038681166020830152851681830152815180820383018152606082019092526123429291600091608001613252565b6040516020818303038152906040528051906020012090506000306001600160a01b0316637b1039996040518163ffffffff1660e01b8152600401602060405180830381865afa15801561239a573d6000803e3d6000fd5b505050506040513d601f19601f820116820180604052508101906123be9190612dbc565b6001600160a01b03166309f7abd2836040518263ffffffff1660e01b81526004016123eb91815260200190565b602060405180830381865afa158015612408573d6000803e3d6000fd5b505050506040513d601f19601f8201168201806040525081019061242c919061327c565b60405163024eefab60e61b815263ffffffff8216600482015290915030906393bbeac090602401602060405180830381865afa158015612470573d6000803e3d6000fd5b505050506040513d601f19601f820116820180604052508101906124949190613235565b61224a5760405163114322b960e31b81526001600160a01b03808616600483015284166024820152604401612241565b6001600160a01b038116301480159061253a5750306001600160a01b0316634c4602da6040518163ffffffff1660e01b8152600401602060405180830381865afa158015612516573d6000803e3d6000fd5b505050506040513d601f19601f8201168201806040525081019061253a9190613235565b15612558576040516307de9b5160e21b815260040160405180910390fd5b50565b600060405163a9059cbb60e01b8152836004820152826024820152602060006044836000895af13d15601f3d116001600051141617169150508061224a5760405162461bcd60e51b815260206004820152600f60248201526e1514905394d1915497d19052531151608a1b6044820152606401612241565b6001600160a01b038116811461255857600080fd5b634e487b7160e01b600052604160045260246000fd5b60405160c081016001600160401b0381118282101715612620576126206125e8565b60405290565b604051608081016001600160401b0381118282101715612620576126206125e8565b604051601f8201601f191681016001600160401b0381118282101715612670576126706125e8565b604052919050565b60006001600160401b03821115612691576126916125e8565b5060051b60200190565b8035600281106126aa57600080fd5b919050565b80356126aa816125d3565b600082601f8301126126cb57600080fd5b81356001600160401b038111156126e4576126e46125e8565b6126f7601f8201601f1916602001612648565b81815284602083860101111561270c57600080fd5b816020850160208301376000918101602001919091529392505050565b600082601f83011261273a57600080fd5b8135602061274f61274a83612678565b612648565b82815260059290921b8401810191818101908684111561276e57600080fd5b8286015b848110156128315780356001600160401b03808211156127925760008081fd5b9088019060c0828b03601f19018113156127ac5760008081fd5b6127b46125fe565b87840135815260406127c781860161269b565b8983015260606127d88187016126af565b82840152608091506127eb8287016126af565b9083015260a0858101358284015292850135928484111561280e57600091508182fd5b61281c8e8b868901016126ba565b90830152508652505050918301918301612772565b509695505050505050565b600082601f83011261284d57600080fd5b8135602061285d61274a83612678565b82815260059290921b8401810191818101908684111561287c57600080fd5b8286015b848110156128315780358352918301918301612880565b6000604082840312156128a957600080fd5b604051604081016001600160401b0382821081831117156128cc576128cc6125e8565b8160405282935084359150808211156128e457600080fd5b6128f08683870161283c565b8352602085013591508082111561290657600080fd5b506129138582860161283c565b6020830152505092915050565b6000806000806080858703121561293657600080fd5b8435612941816125d3565b935060208501356001600160401b038082111561295d57600080fd5b61296988838901612729565b9450604087013591508082111561297f57600080fd5b5061298c87828801612897565b949793965093946060013593505050565b6000806000606084860312156129b257600080fd5b8335925060208401356001600160401b03808211156129d057600080fd5b6129dc878388016126ba565b935060408601359150808211156129f257600080fd5b506129ff868287016126ba565b9150509250925092565b600060208284031215612a1b57600080fd5b81356001600160401b03811115612a3157600080fd5b610f84848285016126ba565b600060208284031215612a4f57600080fd5b8135611f41816125d3565b600081518084526020808501945080840160005b83811015612a935781516001600160a01b031687529582019590820190600101612a6e565b509495945050505050565b602081526000611f416020830184612a5a565b600080600060608486031215612ac657600080fd5b8335612ad1816125d3565b92506020840135612ae1816125d3565b929592945050506040919091013590565b801515811461255857600080fd5b80356126aa81612af2565b60008060008060808587031215612b2157600080fd5b8435612b2c816125d3565b93506020858101356001600160401b0380821115612b4957600080fd5b612b5589838a01612729565b95506040880135915080821115612b6b57600080fd5b612b7789838a01612897565b94506060880135915080821115612b8d57600080fd5b908701906080828a031215612ba157600080fd5b612ba9612626565b823582811115612bb857600080fd5b8301601f81018b13612bc957600080fd5b8035612bd761274a82612678565b81815260059190911b8201860190868101908d831115612bf657600080fd5b928701925b82841015612c1d578335612c0e816125d3565b82529287019290870190612bfb565b84525050508284013582811115612c3357600080fd5b612c3f8b82860161283c565b85830152506040830135935081841115612c5857600080fd5b612c648a8585016126ba565b6040820152612c7560608401612b00565b6060820152969995985093965050505050565b60008060008060808587031215612c9e57600080fd5b843593506020850135612cb0816125d3565b925060408501356001600160401b0380821115612ccc57600080fd5b612cd8888389016126ba565b93506060870135915080821115612cee57600080fd5b50612cfb878288016126ba565b91505092959194509250565b60008060408385031215612d1a57600080fd5b8235612d25816125d3565b91506020830135612d35816125d3565b809150509250929050565b60008060408385031215612d5357600080fd5b82356001600160401b0380821115612d6a57600080fd5b612d76868387016126ba565b93506020850135915080821115612d8c57600080fd5b50612d99858286016126ba565b9150509250929050565b600060208284031215612db557600080fd5b5051919050565b600060208284031215612dce57600080fd5b8151611f41816125d3565b600082601f830112612dea57600080fd5b81516020612dfa61274a83612678565b82815260059290921b84018101918181019086841115612e1957600080fd5b8286015b848110156128315780518352918301918301612e1d565b600080600060608486031215612e4957600080fd5b83516001600160401b0380821115612e6057600080fd5b818601915086601f830112612e7457600080fd5b81516020612e8461274a83612678565b82815260059290921b8401810191818101908a841115612ea357600080fd5b948201945b83861015612eca578551612ebb816125d3565b82529482019490820190612ea8565b91890151919750909350505080821115612ee357600080fd5b50612ef086828701612dd9565b925050604084015190509250925092565b634e487b7160e01b600052603260045260246000fd5b634e487b7160e01b600052601160045260246000fd5b600060018201612f3f57612f3f612f17565b5060010190565b634e487b7160e01b600052602160045260246000fd5b6000815180845260005b81811015612f8257602081850181015186830182015201612f66565b506000602082860101526020601f19601f83011685010191505092915050565b60e08152845160e08201526000602086015160028110612fd257634e487b7160e01b600052602160045260246000fd5b61010083015260408601516001600160a01b031661012083015260608601516130076101408401826001600160a01b03169052565b50608086015161016083015260a086015160c061018084015261302e6101a0840182612f5c565b91505061306e602083018680516001600160a01b039081168352602080830151151590840152604080830151909116908301526060908101511515910152565b60a082019390935260c0015292915050565b600081518084526020808501945080840160005b83811015612a9357815187529582019590820190600101613094565b8381526060602082015260006130c96060830185613080565b9050826040830152949350505050565b8051608080845281519084018190526000916020919082019060a0860190845b8181101561311e5783516001600160a01b0316835292840192918401916001016130f9565b5050828501519150858103838701526131378183613080565b92505050604083015184820360408601526131528282612f5c565b9150506060830151613168606086018215159052565b509392505050565b8481526001600160a01b03848116602083015283166040820152608060608201819052600090611070908301846130d9565b81810381811115611eb957611eb9612f17565b6060815260006131c86060830186612a5a565b82810360208401526131da8186613080565b91505060018060a01b0383166040830152949350505050565b6000806040838503121561320657600080fd5b8251613211816125d3565b6020840151909250612d35816125d3565b80820180821115611eb957611eb9612f17565b60006020828403121561324757600080fd5b8151611f4181612af2565b83815282151560208201526060604082015260006132736060830184612f5c565b95945050505050565b60006020828403121561328e57600080fd5b815163ffffffff81168114611f4157600080fdfea2646970667358221220e48af7fc1918b05774447b5653292647bc83aaf31e5961d06468bfb34426483a64736f6c63430008100033",
        "linkReferences": {}
    },
    "methodIdentifiers": {
        "EXACT_TOKENS_IN_FOR_BPT_OUT()": "0e222e52",
        "assetOf(bytes)": "e170a9bf",
        "assetsUsed(bytes)": "aeffddde",
        "balanceOf(bytes)": "78415365",
        "balancerSlippage()": "f7e69b16",
        "claimRewards(address)": "ef5cfb8c",
        "deposit(uint256,bytes,bytes)": "69445c31",
        "exitPool(address,(bytes32,uint8,address,address,uint256,bytes)[],(uint256[],uint256[]),(address[],uint256[],bytes,bool))": "97194b13",
        "getExpectedTokens(address)": "7906afbf",
        "identifier()": "7998a1c4",
        "isDebt()": "89353a09",
        "joinPool(address,(bytes32,uint8,address,address,uint256,bytes)[],(uint256[],uint256[]),uint256)": "5c14acdb",
        "minter()": "07546172",
        "revokeApproval(address,address)": "d3bfe76a",
        "slippage()": "3e032a3b",
        "stakeBPT(address,address,uint256)": "8f210a6a",
        "unstakeBPT(address,address,uint256)": "d2e85806",
        "vault()": "fbfa77cf",
        "withdraw(uint256,address,bytes,bytes)": "c9111bd7",
        "withdrawableFrom(bytes,bytes)": "fa50e5d2"
    },
    "id": 79
}