{
  "abi": [
    {
      "inputs": [
        {
          "internalType": "contract Registry",
          "name": "_registry",
          "type": "address"
        },
        {
          "internalType": "contract ERC20",
          "name": "_asset",
          "type": "address"
        },
        {
          "internalType": "string",
          "name": "_name",
          "type": "string"
        },
        {
          "internalType": "string",
          "name": "_symbol",
          "type": "string"
        },
        {
          "internalType": "bytes",
          "name": "params",
          "type": "bytes"
        }
      ],
      "stateMutability": "nonpayable",
      "type": "constructor"
    },
    {
      "inputs": [
        {
          "internalType": "address",
          "name": "asset",
          "type": "address"
        },
        {
          "internalType": "address",
          "name": "expectedAsset",
          "type": "address"
        }
      ],
      "name": "Cellar__AssetMismatch",
      "type": "error"
    },
    {
      "inputs": [
        {
          "internalType": "address",
          "name": "adaptor",
          "type": "address"
        }
      ],
      "name": "Cellar__CallToAdaptorNotAllowed",
      "type": "error"
    },
    {
      "inputs": [],
      "name": "Cellar__CallerNotAavePool",
      "type": "error"
    },
    {
      "inputs": [],
      "name": "Cellar__ContractNotShutdown",
      "type": "error"
    },
    {
      "inputs": [],
      "name": "Cellar__ContractShutdown",
      "type": "error"
    },
    {
      "inputs": [
        {
          "internalType": "uint32",
          "name": "position",
          "type": "uint32"
        }
      ],
      "name": "Cellar__DebtMismatch",
      "type": "error"
    },
    {
      "inputs": [
        {
          "internalType": "uint256",
          "name": "assets",
          "type": "uint256"
        },
        {
          "internalType": "uint256",
          "name": "maxDeposit",
          "type": "uint256"
        }
      ],
      "name": "Cellar__DepositRestricted",
      "type": "error"
    },
    {
      "inputs": [],
      "name": "Cellar__ExternalInitiator",
      "type": "error"
    },
    {
      "inputs": [
        {
          "internalType": "address",
          "name": "illiquidPosition",
          "type": "address"
        }
      ],
      "name": "Cellar__IlliquidWithdraw",
      "type": "error"
    },
    {
      "inputs": [
        {
          "internalType": "uint256",
          "name": "assetsOwed",
          "type": "uint256"
        }
      ],
      "name": "Cellar__IncompleteWithdraw",
      "type": "error"
    },
    {
      "inputs": [],
      "name": "Cellar__InvalidFee",
      "type": "error"
    },
    {
      "inputs": [],
      "name": "Cellar__InvalidFeeCut",
      "type": "error"
    },
    {
      "inputs": [
        {
          "internalType": "uint32",
          "name": "positionId",
          "type": "uint32"
        }
      ],
      "name": "Cellar__InvalidHoldingPosition",
      "type": "error"
    },
    {
      "inputs": [
        {
          "internalType": "uint256",
          "name": "requested",
          "type": "uint256"
        },
        {
          "internalType": "uint256",
          "name": "max",
          "type": "uint256"
        }
      ],
      "name": "Cellar__InvalidRebalanceDeviation",
      "type": "error"
    },
    {
      "inputs": [],
      "name": "Cellar__InvalidShareLockPeriod",
      "type": "error"
    },
    {
      "inputs": [
        {
          "internalType": "address",
          "name": "depositor",
          "type": "address"
        }
      ],
      "name": "Cellar__NotApprovedToDepositOnBehalf",
      "type": "error"
    },
    {
      "inputs": [],
      "name": "Cellar__Paused",
      "type": "error"
    },
    {
      "inputs": [
        {
          "internalType": "uint32",
          "name": "position",
          "type": "uint32"
        }
      ],
      "name": "Cellar__PositionAlreadyUsed",
      "type": "error"
    },
    {
      "inputs": [
        {
          "internalType": "uint256",
          "name": "maxPositions",
          "type": "uint256"
        }
      ],
      "name": "Cellar__PositionArrayFull",
      "type": "error"
    },
    {
      "inputs": [
        {
          "internalType": "uint32",
          "name": "position",
          "type": "uint32"
        },
        {
          "internalType": "uint256",
          "name": "sharesRemaining",
          "type": "uint256"
        }
      ],
      "name": "Cellar__PositionNotEmpty",
      "type": "error"
    },
    {
      "inputs": [
        {
          "internalType": "uint32",
          "name": "position",
          "type": "uint32"
        }
      ],
      "name": "Cellar__PositionNotInCatalogue",
      "type": "error"
    },
    {
      "inputs": [
        {
          "internalType": "uint32",
          "name": "position",
          "type": "uint32"
        }
      ],
      "name": "Cellar__PositionNotUsed",
      "type": "error"
    },
    {
      "inputs": [],
      "name": "Cellar__RemovingHoldingPosition",
      "type": "error"
    },
    {
      "inputs": [
        {
          "internalType": "uint256",
          "name": "timeSharesAreUnlocked",
          "type": "uint256"
        },
        {
          "internalType": "uint256",
          "name": "currentBlock",
          "type": "uint256"
        }
      ],
      "name": "Cellar__SharesAreLocked",
      "type": "error"
    },
    {
      "inputs": [
        {
          "internalType": "uint256",
          "name": "assets",
          "type": "uint256"
        },
        {
          "internalType": "uint256",
          "name": "min",
          "type": "uint256"
        },
        {
          "internalType": "uint256",
          "name": "max",
          "type": "uint256"
        }
      ],
      "name": "Cellar__TotalAssetDeviatedOutsideRange",
      "type": "error"
    },
    {
      "inputs": [
        {
          "internalType": "uint256",
          "name": "current",
          "type": "uint256"
        },
        {
          "internalType": "uint256",
          "name": "expected",
          "type": "uint256"
        }
      ],
      "name": "Cellar__TotalSharesMustRemainConstant",
      "type": "error"
    },
    {
      "inputs": [],
      "name": "Cellar__ZeroAssets",
      "type": "error"
    },
    {
      "inputs": [],
      "name": "Cellar__ZeroShares",
      "type": "error"
    },
    {
      "anonymous": false,
      "inputs": [
        {
          "indexed": false,
          "internalType": "address",
          "name": "adaptor",
          "type": "address"
        },
        {
          "indexed": false,
          "internalType": "bytes",
          "name": "data",
          "type": "bytes"
        }
      ],
      "name": "AdaptorCalled",
      "type": "event"
    },
    {
      "anonymous": false,
      "inputs": [
        {
          "indexed": false,
          "internalType": "address",
          "name": "adaptor",
          "type": "address"
        },
        {
          "indexed": false,
          "internalType": "bool",
          "name": "inCatalogue",
          "type": "bool"
        }
      ],
      "name": "AdaptorCatalogueAltered",
      "type": "event"
    },
    {
      "anonymous": false,
      "inputs": [
        {
          "indexed": true,
          "internalType": "address",
          "name": "owner",
          "type": "address"
        },
        {
          "indexed": true,
          "internalType": "address",
          "name": "spender",
          "type": "address"
        },
        {
          "indexed": false,
          "internalType": "uint256",
          "name": "amount",
          "type": "uint256"
        }
      ],
      "name": "Approval",
      "type": "event"
    },
    {
      "anonymous": false,
      "inputs": [
        {
          "indexed": true,
          "internalType": "address",
          "name": "caller",
          "type": "address"
        },
        {
          "indexed": true,
          "internalType": "address",
          "name": "owner",
          "type": "address"
        },
        {
          "indexed": false,
          "internalType": "uint256",
          "name": "assets",
          "type": "uint256"
        },
        {
          "indexed": false,
          "internalType": "uint256",
          "name": "shares",
          "type": "uint256"
        }
      ],
      "name": "Deposit",
      "type": "event"
    },
    {
      "anonymous": false,
      "inputs": [
        {
          "indexed": true,
          "internalType": "address",
          "name": "user",
          "type": "address"
        },
        {
          "indexed": true,
          "internalType": "address",
          "name": "newOwner",
          "type": "address"
        }
      ],
      "name": "OwnershipTransferred",
      "type": "event"
    },
    {
      "anonymous": false,
      "inputs": [
        {
          "indexed": false,
          "internalType": "uint64",
          "name": "oldPlatformFee",
          "type": "uint64"
        },
        {
          "indexed": false,
          "internalType": "uint64",
          "name": "newPlatformFee",
          "type": "uint64"
        }
      ],
      "name": "PlatformFeeChanged",
      "type": "event"
    },
    {
      "anonymous": false,
      "inputs": [
        {
          "indexed": false,
          "internalType": "uint32",
          "name": "position",
          "type": "uint32"
        },
        {
          "indexed": false,
          "internalType": "uint256",
          "name": "index",
          "type": "uint256"
        }
      ],
      "name": "PositionAdded",
      "type": "event"
    },
    {
      "anonymous": false,
      "inputs": [
        {
          "indexed": false,
          "internalType": "uint32",
          "name": "positionId",
          "type": "uint32"
        },
        {
          "indexed": false,
          "internalType": "bool",
          "name": "inCatalogue",
          "type": "bool"
        }
      ],
      "name": "PositionCatalogueAltered",
      "type": "event"
    },
    {
      "anonymous": false,
      "inputs": [
        {
          "indexed": false,
          "internalType": "uint32",
          "name": "position",
          "type": "uint32"
        },
        {
          "indexed": false,
          "internalType": "uint256",
          "name": "index",
          "type": "uint256"
        }
      ],
      "name": "PositionRemoved",
      "type": "event"
    },
    {
      "anonymous": false,
      "inputs": [
        {
          "indexed": false,
          "internalType": "uint32",
          "name": "newPosition1",
          "type": "uint32"
        },
        {
          "indexed": false,
          "internalType": "uint32",
          "name": "newPosition2",
          "type": "uint32"
        },
        {
          "indexed": false,
          "internalType": "uint256",
          "name": "index1",
          "type": "uint256"
        },
        {
          "indexed": false,
          "internalType": "uint256",
          "name": "index2",
          "type": "uint256"
        }
      ],
      "name": "PositionSwapped",
      "type": "event"
    },
    {
      "anonymous": false,
      "inputs": [
        {
          "indexed": false,
          "internalType": "uint256",
          "name": "oldDeviation",
          "type": "uint256"
        },
        {
          "indexed": false,
          "internalType": "uint256",
          "name": "newDeviation",
          "type": "uint256"
        }
      ],
      "name": "RebalanceDeviationChanged",
      "type": "event"
    },
    {
      "anonymous": false,
      "inputs": [
        {
          "indexed": false,
          "internalType": "uint256",
          "name": "oldPeriod",
          "type": "uint256"
        },
        {
          "indexed": false,
          "internalType": "uint256",
          "name": "newPeriod",
          "type": "uint256"
        }
      ],
      "name": "ShareLockingPeriodChanged",
      "type": "event"
    },
    {
      "anonymous": false,
      "inputs": [
        {
          "indexed": false,
          "internalType": "bool",
          "name": "isShutdown",
          "type": "bool"
        }
      ],
      "name": "ShutdownChanged",
      "type": "event"
    },
    {
      "anonymous": false,
      "inputs": [
        {
          "indexed": false,
          "internalType": "address",
          "name": "oldPayoutAddress",
          "type": "address"
        },
        {
          "indexed": false,
          "internalType": "address",
          "name": "newPayoutAddress",
          "type": "address"
        }
      ],
      "name": "StrategistPayoutAddressChanged",
      "type": "event"
    },
    {
      "anonymous": false,
      "inputs": [
        {
          "indexed": false,
          "internalType": "uint64",
          "name": "oldPlatformCut",
          "type": "uint64"
        },
        {
          "indexed": false,
          "internalType": "uint64",
          "name": "newPlatformCut",
          "type": "uint64"
        }
      ],
      "name": "StrategistPlatformCutChanged",
      "type": "event"
    },
    {
      "anonymous": false,
      "inputs": [
        {
          "indexed": true,
          "internalType": "address",
          "name": "from",
          "type": "address"
        },
        {
          "indexed": true,
          "internalType": "address",
          "name": "to",
          "type": "address"
        },
        {
          "indexed": false,
          "internalType": "uint256",
          "name": "amount",
          "type": "uint256"
        }
      ],
      "name": "Transfer",
      "type": "event"
    },
    {
      "anonymous": false,
      "inputs": [
        {
          "indexed": true,
          "internalType": "address",
          "name": "caller",
          "type": "address"
        },
        {
          "indexed": true,
          "internalType": "address",
          "name": "receiver",
          "type": "address"
        },
        {
          "indexed": true,
          "internalType": "address",
          "name": "owner",
          "type": "address"
        },
        {
          "indexed": false,
          "internalType": "uint256",
          "name": "assets",
          "type": "uint256"
        },
        {
          "indexed": false,
          "internalType": "uint256",
          "name": "shares",
          "type": "uint256"
        }
      ],
      "name": "Withdraw",
      "type": "event"
    },
    {
      "inputs": [],
      "name": "DOMAIN_SEPARATOR",
      "outputs": [
        {
          "internalType": "bytes32",
          "name": "",
          "type": "bytes32"
        }
      ],
      "stateMutability": "view",
      "type": "function"
    },
    {
      "inputs": [],
      "name": "GRAVITY_BRIDGE_REGISTRY_SLOT",
      "outputs": [
        {
          "internalType": "uint256",
          "name": "",
          "type": "uint256"
        }
      ],
      "stateMutability": "view",
      "type": "function"
    },
    {
      "inputs": [],
      "name": "MAXIMUM_SHARE_LOCK_PERIOD",
      "outputs": [
        {
          "internalType": "uint256",
          "name": "",
          "type": "uint256"
        }
      ],
      "stateMutability": "view",
      "type": "function"
    },
    {
      "inputs": [],
      "name": "MAX_FEE_CUT",
      "outputs": [
        {
          "internalType": "uint64",
          "name": "",
          "type": "uint64"
        }
      ],
      "stateMutability": "view",
      "type": "function"
    },
    {
      "inputs": [],
      "name": "MAX_PLATFORM_FEE",
      "outputs": [
        {
          "internalType": "uint64",
          "name": "",
          "type": "uint64"
        }
      ],
      "stateMutability": "view",
      "type": "function"
    },
    {
      "inputs": [],
      "name": "MAX_POSITIONS",
      "outputs": [
        {
          "internalType": "uint256",
          "name": "",
          "type": "uint256"
        }
      ],
      "stateMutability": "view",
      "type": "function"
    },
    {
      "inputs": [],
      "name": "MAX_REBALANCE_DEVIATION",
      "outputs": [
        {
          "internalType": "uint64",
          "name": "",
          "type": "uint64"
        }
      ],
      "stateMutability": "view",
      "type": "function"
    },
    {
      "inputs": [],
      "name": "MINIMUM_SHARE_LOCK_PERIOD",
      "outputs": [
        {
          "internalType": "uint256",
          "name": "",
          "type": "uint256"
        }
      ],
      "stateMutability": "view",
      "type": "function"
    },
    {
      "inputs": [],
      "name": "PRICE_ROUTER_REGISTRY_SLOT",
      "outputs": [
        {
          "internalType": "uint256",
          "name": "",
          "type": "uint256"
        }
      ],
      "stateMutability": "view",
      "type": "function"
    },
    {
      "inputs": [],
      "name": "aavePool",
      "outputs": [
        {
          "internalType": "address",
          "name": "",
          "type": "address"
        }
      ],
      "stateMutability": "view",
      "type": "function"
    },
    {
      "inputs": [
        {
          "internalType": "address",
          "name": "",
          "type": "address"
        }
      ],
      "name": "adaptorCatalogue",
      "outputs": [
        {
          "internalType": "bool",
          "name": "",
          "type": "bool"
        }
      ],
      "stateMutability": "view",
      "type": "function"
    },
    {
      "inputs": [
        {
          "internalType": "address",
          "name": "adaptor",
          "type": "address"
        }
      ],
      "name": "addAdaptorToCatalogue",
      "outputs": [],
      "stateMutability": "nonpayable",
      "type": "function"
    },
    {
      "inputs": [
        {
          "internalType": "uint32",
          "name": "index",
          "type": "uint32"
        },
        {
          "internalType": "uint32",
          "name": "positionId",
          "type": "uint32"
        },
        {
          "internalType": "bytes",
          "name": "configurationData",
          "type": "bytes"
        },
        {
          "internalType": "bool",
          "name": "inDebtArray",
          "type": "bool"
        }
      ],
      "name": "addPosition",
      "outputs": [],
      "stateMutability": "nonpayable",
      "type": "function"
    },
    {
      "inputs": [
        {
          "internalType": "uint32",
          "name": "positionId",
          "type": "uint32"
        }
      ],
      "name": "addPositionToCatalogue",
      "outputs": [],
      "stateMutability": "nonpayable",
      "type": "function"
    },
    {
      "inputs": [
        {
          "internalType": "address",
          "name": "",
          "type": "address"
        },
        {
          "internalType": "address",
          "name": "",
          "type": "address"
        }
      ],
      "name": "allowance",
      "outputs": [
        {
          "internalType": "uint256",
          "name": "",
          "type": "uint256"
        }
      ],
      "stateMutability": "view",
      "type": "function"
    },
    {
      "inputs": [],
      "name": "allowedRebalanceDeviation",
      "outputs": [
        {
          "internalType": "uint256",
          "name": "",
          "type": "uint256"
        }
      ],
      "stateMutability": "view",
      "type": "function"
    },
    {
      "inputs": [
        {
          "internalType": "address",
          "name": "spender",
          "type": "address"
        },
        {
          "internalType": "uint256",
          "name": "amount",
          "type": "uint256"
        }
      ],
      "name": "approve",
      "outputs": [
        {
          "internalType": "bool",
          "name": "",
          "type": "bool"
        }
      ],
      "stateMutability": "nonpayable",
      "type": "function"
    },
    {
      "inputs": [],
      "name": "asset",
      "outputs": [
        {
          "internalType": "contract ERC20",
          "name": "",
          "type": "address"
        }
      ],
      "stateMutability": "view",
      "type": "function"
    },
    {
      "inputs": [
        {
          "internalType": "address",
          "name": "",
          "type": "address"
        }
      ],
      "name": "balanceOf",
      "outputs": [
        {
          "internalType": "uint256",
          "name": "",
          "type": "uint256"
        }
      ],
      "stateMutability": "view",
      "type": "function"
    },
    {
      "inputs": [],
      "name": "blockExternalReceiver",
      "outputs": [
        {
          "internalType": "bool",
          "name": "",
          "type": "bool"
        }
      ],
      "stateMutability": "view",
      "type": "function"
    },
    {
      "inputs": [
        {
          "internalType": "bool",
          "name": "checkTotalAssets",
          "type": "bool"
        }
      ],
      "name": "cachePriceRouter",
      "outputs": [],
      "stateMutability": "nonpayable",
      "type": "function"
    },
    {
      "inputs": [
        {
          "components": [
            {
              "internalType": "address",
              "name": "adaptor",
              "type": "address"
            },
            {
              "internalType": "bytes[]",
              "name": "callData",
              "type": "bytes[]"
            }
          ],
          "internalType": "struct Cellar.AdaptorCall[]",
          "name": "data",
          "type": "tuple[]"
        }
      ],
      "name": "callOnAdaptor",
      "outputs": [],
      "stateMutability": "nonpayable",
      "type": "function"
    },
    {
      "inputs": [
        {
          "internalType": "uint256",
          "name": "shares",
          "type": "uint256"
        }
      ],
      "name": "convertToAssets",
      "outputs": [
        {
          "internalType": "uint256",
          "name": "assets",
          "type": "uint256"
        }
      ],
      "stateMutability": "view",
      "type": "function"
    },
    {
      "inputs": [
        {
          "internalType": "uint256",
          "name": "assets",
          "type": "uint256"
        }
      ],
      "name": "convertToShares",
      "outputs": [
        {
          "internalType": "uint256",
          "name": "shares",
          "type": "uint256"
        }
      ],
      "stateMutability": "view",
      "type": "function"
    },
    {
      "inputs": [
        {
          "internalType": "uint256",
          "name": "",
          "type": "uint256"
        }
      ],
      "name": "creditPositions",
      "outputs": [
        {
          "internalType": "uint32",
          "name": "",
          "type": "uint32"
        }
      ],
      "stateMutability": "view",
      "type": "function"
    },
    {
      "inputs": [
        {
          "internalType": "uint256",
          "name": "",
          "type": "uint256"
        }
      ],
      "name": "debtPositions",
      "outputs": [
        {
          "internalType": "uint32",
          "name": "",
          "type": "uint32"
        }
      ],
      "stateMutability": "view",
      "type": "function"
    },
    {
      "inputs": [],
      "name": "decimals",
      "outputs": [
        {
          "internalType": "uint8",
          "name": "",
          "type": "uint8"
        }
      ],
      "stateMutability": "view",
      "type": "function"
    },
    {
      "inputs": [
        {
          "internalType": "uint256",
          "name": "assets",
          "type": "uint256"
        },
        {
          "internalType": "address",
          "name": "receiver",
          "type": "address"
        }
      ],
      "name": "deposit",
      "outputs": [
        {
          "internalType": "uint256",
          "name": "shares",
          "type": "uint256"
        }
      ],
      "stateMutability": "nonpayable",
      "type": "function"
    },
    {
      "inputs": [
        {
          "internalType": "address[]",
          "name": "assets",
          "type": "address[]"
        },
        {
          "internalType": "uint256[]",
          "name": "amounts",
          "type": "uint256[]"
        },
        {
          "internalType": "uint256[]",
          "name": "premiums",
          "type": "uint256[]"
        },
        {
          "internalType": "address",
          "name": "initiator",
          "type": "address"
        },
        {
          "internalType": "bytes",
          "name": "params",
          "type": "bytes"
        }
      ],
      "name": "executeOperation",
      "outputs": [
        {
          "internalType": "bool",
          "name": "",
          "type": "bool"
        }
      ],
      "stateMutability": "nonpayable",
      "type": "function"
    },
    {
      "inputs": [],
      "name": "feeData",
      "outputs": [
        {
          "internalType": "uint64",
          "name": "strategistPlatformCut",
          "type": "uint64"
        },
        {
          "internalType": "uint64",
          "name": "platformFee",
          "type": "uint64"
        },
        {
          "internalType": "uint64",
          "name": "lastAccrual",
          "type": "uint64"
        },
        {
          "internalType": "address",
          "name": "strategistPayoutAddress",
          "type": "address"
        }
      ],
      "stateMutability": "view",
      "type": "function"
    },
    {
      "inputs": [
        {
          "internalType": "uint32",
          "name": "index",
          "type": "uint32"
        },
        {
          "internalType": "uint32",
          "name": "positionId",
          "type": "uint32"
        },
        {
          "internalType": "bool",
          "name": "inDebtArray",
          "type": "bool"
        }
      ],
      "name": "forcePositionOut",
      "outputs": [],
      "stateMutability": "nonpayable",
      "type": "function"
    },
    {
      "inputs": [],
      "name": "getCreditPositions",
      "outputs": [
        {
          "internalType": "uint32[]",
          "name": "",
          "type": "uint32[]"
        }
      ],
      "stateMutability": "view",
      "type": "function"
    },
    {
      "inputs": [],
      "name": "getDebtPositions",
      "outputs": [
        {
          "internalType": "uint32[]",
          "name": "",
          "type": "uint32[]"
        }
      ],
      "stateMutability": "view",
      "type": "function"
    },
    {
      "inputs": [],
      "name": "getPositionAssets",
      "outputs": [
        {
          "internalType": "contract ERC20[]",
          "name": "assets",
          "type": "address[]"
        }
      ],
      "stateMutability": "view",
      "type": "function"
    },
    {
      "inputs": [
        {
          "internalType": "uint32",
          "name": "",
          "type": "uint32"
        }
      ],
      "name": "getPositionData",
      "outputs": [
        {
          "internalType": "address",
          "name": "adaptor",
          "type": "address"
        },
        {
          "internalType": "bool",
          "name": "isDebt",
          "type": "bool"
        },
        {
          "internalType": "bytes",
          "name": "adaptorData",
          "type": "bytes"
        },
        {
          "internalType": "bytes",
          "name": "configurationData",
          "type": "bytes"
        }
      ],
      "stateMutability": "view",
      "type": "function"
    },
    {
      "inputs": [],
      "name": "holdingPosition",
      "outputs": [
        {
          "internalType": "uint32",
          "name": "",
          "type": "uint32"
        }
      ],
      "stateMutability": "view",
      "type": "function"
    },
    {
      "inputs": [],
      "name": "ignorePause",
      "outputs": [
        {
          "internalType": "bool",
          "name": "",
          "type": "bool"
        }
      ],
      "stateMutability": "view",
      "type": "function"
    },
    {
      "inputs": [],
      "name": "initiateShutdown",
      "outputs": [],
      "stateMutability": "nonpayable",
      "type": "function"
    },
    {
      "inputs": [],
      "name": "isPaused",
      "outputs": [
        {
          "internalType": "bool",
          "name": "",
          "type": "bool"
        }
      ],
      "stateMutability": "view",
      "type": "function"
    },
    {
      "inputs": [
        {
          "internalType": "uint256",
          "name": "",
          "type": "uint256"
        }
      ],
      "name": "isPositionUsed",
      "outputs": [
        {
          "internalType": "bool",
          "name": "",
          "type": "bool"
        }
      ],
      "stateMutability": "view",
      "type": "function"
    },
    {
      "inputs": [],
      "name": "isShutdown",
      "outputs": [
        {
          "internalType": "bool",
          "name": "",
          "type": "bool"
        }
      ],
      "stateMutability": "view",
      "type": "function"
    },
    {
      "inputs": [],
      "name": "liftShutdown",
      "outputs": [],
      "stateMutability": "nonpayable",
      "type": "function"
    },
    {
      "inputs": [],
      "name": "locked",
      "outputs": [
        {
          "internalType": "uint256",
          "name": "",
          "type": "uint256"
        }
      ],
      "stateMutability": "view",
      "type": "function"
    },
    {
      "inputs": [
        {
          "internalType": "address",
          "name": "",
          "type": "address"
        }
      ],
      "name": "maxDeposit",
      "outputs": [
        {
          "internalType": "uint256",
          "name": "",
          "type": "uint256"
        }
      ],
      "stateMutability": "view",
      "type": "function"
    },
    {
      "inputs": [
        {
          "internalType": "address",
          "name": "",
          "type": "address"
        }
      ],
      "name": "maxMint",
      "outputs": [
        {
          "internalType": "uint256",
          "name": "",
          "type": "uint256"
        }
      ],
      "stateMutability": "view",
      "type": "function"
    },
    {
      "inputs": [
        {
          "internalType": "address",
          "name": "owner",
          "type": "address"
        }
      ],
      "name": "maxRedeem",
      "outputs": [
        {
          "internalType": "uint256",
          "name": "",
          "type": "uint256"
        }
      ],
      "stateMutability": "view",
      "type": "function"
    },
    {
      "inputs": [
        {
          "internalType": "address",
          "name": "owner",
          "type": "address"
        }
      ],
      "name": "maxWithdraw",
      "outputs": [
        {
          "internalType": "uint256",
          "name": "",
          "type": "uint256"
        }
      ],
      "stateMutability": "view",
      "type": "function"
    },
    {
      "inputs": [
        {
          "internalType": "uint256",
          "name": "shares",
          "type": "uint256"
        },
        {
          "internalType": "address",
          "name": "receiver",
          "type": "address"
        }
      ],
      "name": "mint",
      "outputs": [
        {
          "internalType": "uint256",
          "name": "assets",
          "type": "uint256"
        }
      ],
      "stateMutability": "nonpayable",
      "type": "function"
    },
    {
      "inputs": [
        {
          "internalType": "bytes[]",
          "name": "data",
          "type": "bytes[]"
        }
      ],
      "name": "multicall",
      "outputs": [],
      "stateMutability": "nonpayable",
      "type": "function"
    },
    {
      "inputs": [],
      "name": "name",
      "outputs": [
        {
          "internalType": "string",
          "name": "",
          "type": "string"
        }
      ],
      "stateMutability": "view",
      "type": "function"
    },
    {
      "inputs": [
        {
          "internalType": "address",
          "name": "",
          "type": "address"
        }
      ],
      "name": "nonces",
      "outputs": [
        {
          "internalType": "uint256",
          "name": "",
          "type": "uint256"
        }
      ],
      "stateMutability": "view",
      "type": "function"
    },
    {
      "inputs": [
        {
          "internalType": "address",
          "name": "",
          "type": "address"
        },
        {
          "internalType": "address",
          "name": "",
          "type": "address"
        },
        {
          "internalType": "uint256",
          "name": "",
          "type": "uint256"
        },
        {
          "internalType": "bytes",
          "name": "",
          "type": "bytes"
        }
      ],
      "name": "onERC721Received",
      "outputs": [
        {
          "internalType": "bytes4",
          "name": "",
          "type": "bytes4"
        }
      ],
      "stateMutability": "nonpayable",
      "type": "function"
    },
    {
      "inputs": [],
      "name": "owner",
      "outputs": [
        {
          "internalType": "address",
          "name": "",
          "type": "address"
        }
      ],
      "stateMutability": "view",
      "type": "function"
    },
    {
      "inputs": [
        {
          "internalType": "address",
          "name": "owner",
          "type": "address"
        },
        {
          "internalType": "address",
          "name": "spender",
          "type": "address"
        },
        {
          "internalType": "uint256",
          "name": "value",
          "type": "uint256"
        },
        {
          "internalType": "uint256",
          "name": "deadline",
          "type": "uint256"
        },
        {
          "internalType": "uint8",
          "name": "v",
          "type": "uint8"
        },
        {
          "internalType": "bytes32",
          "name": "r",
          "type": "bytes32"
        },
        {
          "internalType": "bytes32",
          "name": "s",
          "type": "bytes32"
        }
      ],
      "name": "permit",
      "outputs": [],
      "stateMutability": "nonpayable",
      "type": "function"
    },
    {
      "inputs": [
        {
          "internalType": "uint32",
          "name": "",
          "type": "uint32"
        }
      ],
      "name": "positionCatalogue",
      "outputs": [
        {
          "internalType": "bool",
          "name": "",
          "type": "bool"
        }
      ],
      "stateMutability": "view",
      "type": "function"
    },
    {
      "inputs": [
        {
          "internalType": "uint256",
          "name": "assets",
          "type": "uint256"
        }
      ],
      "name": "previewDeposit",
      "outputs": [
        {
          "internalType": "uint256",
          "name": "shares",
          "type": "uint256"
        }
      ],
      "stateMutability": "view",
      "type": "function"
    },
    {
      "inputs": [
        {
          "internalType": "uint256",
          "name": "shares",
          "type": "uint256"
        }
      ],
      "name": "previewMint",
      "outputs": [
        {
          "internalType": "uint256",
          "name": "assets",
          "type": "uint256"
        }
      ],
      "stateMutability": "view",
      "type": "function"
    },
    {
      "inputs": [
        {
          "internalType": "uint256",
          "name": "shares",
          "type": "uint256"
        }
      ],
      "name": "previewRedeem",
      "outputs": [
        {
          "internalType": "uint256",
          "name": "assets",
          "type": "uint256"
        }
      ],
      "stateMutability": "view",
      "type": "function"
    },
    {
      "inputs": [
        {
          "internalType": "uint256",
          "name": "assets",
          "type": "uint256"
        }
      ],
      "name": "previewWithdraw",
      "outputs": [
        {
          "internalType": "uint256",
          "name": "shares",
          "type": "uint256"
        }
      ],
      "stateMutability": "view",
      "type": "function"
    },
    {
      "inputs": [],
      "name": "priceRouter",
      "outputs": [
        {
          "internalType": "contract PriceRouter",
          "name": "",
          "type": "address"
        }
      ],
      "stateMutability": "view",
      "type": "function"
    },
    {
      "inputs": [
        {
          "internalType": "uint256",
          "name": "shares",
          "type": "uint256"
        },
        {
          "internalType": "address",
          "name": "receiver",
          "type": "address"
        },
        {
          "internalType": "address",
          "name": "owner",
          "type": "address"
        }
      ],
      "name": "redeem",
      "outputs": [
        {
          "internalType": "uint256",
          "name": "assets",
          "type": "uint256"
        }
      ],
      "stateMutability": "nonpayable",
      "type": "function"
    },
    {
      "inputs": [],
      "name": "registry",
      "outputs": [
        {
          "internalType": "contract Registry",
          "name": "",
          "type": "address"
        }
      ],
      "stateMutability": "view",
      "type": "function"
    },
    {
      "inputs": [
        {
          "internalType": "address",
          "name": "adaptor",
          "type": "address"
        }
      ],
      "name": "removeAdaptorFromCatalogue",
      "outputs": [],
      "stateMutability": "nonpayable",
      "type": "function"
    },
    {
      "inputs": [
        {
          "internalType": "uint32",
          "name": "index",
          "type": "uint32"
        },
        {
          "internalType": "bool",
          "name": "inDebtArray",
          "type": "bool"
        }
      ],
      "name": "removePosition",
      "outputs": [],
      "stateMutability": "nonpayable",
      "type": "function"
    },
    {
      "inputs": [
        {
          "internalType": "uint32",
          "name": "positionId",
          "type": "uint32"
        }
      ],
      "name": "removePositionFromCatalogue",
      "outputs": [],
      "stateMutability": "nonpayable",
      "type": "function"
    },
    {
      "inputs": [
        {
          "internalType": "uint32",
          "name": "positionId",
          "type": "uint32"
        }
      ],
      "name": "setHoldingPosition",
      "outputs": [],
      "stateMutability": "nonpayable",
      "type": "function"
    },
    {
      "inputs": [
        {
          "internalType": "uint256",
          "name": "newDeviation",
          "type": "uint256"
        }
      ],
      "name": "setRebalanceDeviation",
      "outputs": [],
      "stateMutability": "nonpayable",
      "type": "function"
    },
    {
      "inputs": [
        {
          "internalType": "uint256",
          "name": "newLock",
          "type": "uint256"
        }
      ],
      "name": "setShareLockPeriod",
      "outputs": [],
      "stateMutability": "nonpayable",
      "type": "function"
    },
    {
      "inputs": [
        {
          "internalType": "address",
          "name": "payout",
          "type": "address"
        }
      ],
      "name": "setStrategistPayoutAddress",
      "outputs": [],
      "stateMutability": "nonpayable",
      "type": "function"
    },
    {
      "inputs": [
        {
          "internalType": "uint64",
          "name": "cut",
          "type": "uint64"
        }
      ],
      "name": "setStrategistPlatformCut",
      "outputs": [],
      "stateMutability": "nonpayable",
      "type": "function"
    },
    {
      "inputs": [],
      "name": "shareLockPeriod",
      "outputs": [
        {
          "internalType": "uint256",
          "name": "",
          "type": "uint256"
        }
      ],
      "stateMutability": "view",
      "type": "function"
    },
    {
      "inputs": [
        {
          "internalType": "uint32",
          "name": "index1",
          "type": "uint32"
        },
        {
          "internalType": "uint32",
          "name": "index2",
          "type": "uint32"
        },
        {
          "internalType": "bool",
          "name": "inDebtArray",
          "type": "bool"
        }
      ],
      "name": "swapPositions",
      "outputs": [],
      "stateMutability": "nonpayable",
      "type": "function"
    },
    {
      "inputs": [],
      "name": "symbol",
      "outputs": [
        {
          "internalType": "string",
          "name": "",
          "type": "string"
        }
      ],
      "stateMutability": "view",
      "type": "function"
    },
    {
      "inputs": [
        {
          "internalType": "bool",
          "name": "toggle",
          "type": "bool"
        }
      ],
      "name": "toggleIgnorePause",
      "outputs": [],
      "stateMutability": "nonpayable",
      "type": "function"
    },
    {
      "inputs": [],
      "name": "totalAssets",
      "outputs": [
        {
          "internalType": "uint256",
          "name": "assets",
          "type": "uint256"
        }
      ],
      "stateMutability": "view",
      "type": "function"
    },
    {
      "inputs": [],
      "name": "totalAssetsWithdrawable",
      "outputs": [
        {
          "internalType": "uint256",
          "name": "assets",
          "type": "uint256"
        }
      ],
      "stateMutability": "view",
      "type": "function"
    },
    {
      "inputs": [],
      "name": "totalSupply",
      "outputs": [
        {
          "internalType": "uint256",
          "name": "",
          "type": "uint256"
        }
      ],
      "stateMutability": "view",
      "type": "function"
    },
    {
      "inputs": [
        {
          "internalType": "address",
          "name": "to",
          "type": "address"
        },
        {
          "internalType": "uint256",
          "name": "amount",
          "type": "uint256"
        }
      ],
      "name": "transfer",
      "outputs": [
        {
          "internalType": "bool",
          "name": "",
          "type": "bool"
        }
      ],
      "stateMutability": "nonpayable",
      "type": "function"
    },
    {
      "inputs": [
        {
          "internalType": "address",
          "name": "from",
          "type": "address"
        },
        {
          "internalType": "address",
          "name": "to",
          "type": "address"
        },
        {
          "internalType": "uint256",
          "name": "amount",
          "type": "uint256"
        }
      ],
      "name": "transferFrom",
      "outputs": [
        {
          "internalType": "bool",
          "name": "",
          "type": "bool"
        }
      ],
      "stateMutability": "nonpayable",
      "type": "function"
    },
    {
      "inputs": [
        {
          "internalType": "address",
          "name": "newOwner",
          "type": "address"
        }
      ],
      "name": "transferOwnership",
      "outputs": [],
      "stateMutability": "nonpayable",
      "type": "function"
    },
    {
      "inputs": [
        {
          "internalType": "address",
          "name": "",
          "type": "address"
        }
      ],
      "name": "userShareLockStartTime",
      "outputs": [
        {
          "internalType": "uint256",
          "name": "",
          "type": "uint256"
        }
      ],
      "stateMutability": "view",
      "type": "function"
    },
    {
      "inputs": [],
      "name": "viewPositionBalances",
      "outputs": [
        {
          "internalType": "contract ERC20[]",
          "name": "assets",
          "type": "address[]"
        },
        {
          "internalType": "uint256[]",
          "name": "balances",
          "type": "uint256[]"
        },
        {
          "internalType": "bool[]",
          "name": "isDebt",
          "type": "bool[]"
        }
      ],
      "stateMutability": "view",
      "type": "function"
    },
    {
      "inputs": [
        {
          "internalType": "uint256",
          "name": "assets",
          "type": "uint256"
        },
        {
          "internalType": "address",
          "name": "receiver",
          "type": "address"
        },
        {
          "internalType": "address",
          "name": "owner",
          "type": "address"
        }
      ],
      "name": "withdraw",
      "outputs": [
        {
          "internalType": "uint256",
          "name": "shares",
          "type": "uint256"
        }
      ],
      "stateMutability": "nonpayable",
      "type": "function"
    }
  ],
  "bytecode": {
    "object": "0x6001600b55610100604052670a688906bd8b0000608052662386f26fc1000060a052600060c081905260e052601480546001600160c01b0319166e2386f26fc100000a688906bd8b0000179055601580546001600160a01b03191690556202a300601755660110d9316ec000601955601a8054747d2768de32b0b80b7a3454c06bdac94a69ddc7a900610100600160a81b0319909116179055348015620000a557600080fd5b5060405162006fc938038062006fc9833981016040819052620000c89162000d47565b604051635c9fcd8560e11b8152600060048201526001600160a01b0386169063b93f9b0a90602401602060405180830381865afa1580156200010e573d6000803e3d6000fd5b505050506040513d601f19601f8201168201806040525081019062000134919062000e04565b848484601282828260006200014a848262000eb3565b50600162000159838262000eb3565b506002805460ff191660ff8316179055466006556200017762000495565b6007555050600980546001600160a01b039687166001600160a01b031991821617909155600a805496881696909116861790555050604051600092507f8be0079c531659141344cd1fd0a4f28419497f9722a3daafe3b4186f6b6457e091508290a3506016805462010000600160b01b031916620100006001600160a01b0388811682029290921792839055604051635c9fcd8560e11b8152600260048201529204169063b93f9b0a90602401602060405180830381865afa15801562000242573d6000803e3d6000fd5b505050506040513d601f19601f8201168201806040525081019062000268919062000e04565b600c60006101000a8154816001600160a01b0302191690836001600160a01b03160217905550600080600080600085806020019051810190620002ac9190620010cc565b60ff169450945094509450945060005b85518163ffffffff1610156200036b57620002ff868263ffffffff1681518110620002eb57620002eb62001198565b60200260200101516200053160201b60201c565b6200035881878363ffffffff16815181106200031f576200031f62001198565b6020026020010151868463ffffffff168151811062000342576200034262001198565b60200260200101516000620005f760201b60201c565b6200036381620011c4565b9050620002bc565b5060005b84518163ffffffff1610156200040a576200039e858263ffffffff1681518110620002eb57620002eb62001198565b620003f781868363ffffffff1681518110620003be57620003be62001198565b6020026020010151858463ffffffff1681518110620003e157620003e162001198565b60200260200101516001620005f760201b60201c565b6200040281620011c4565b90506200036f565b508451156200041e576200041e81620008d8565b505060148054600160801b600160c01b031916600160801b426001600160401b03160217905550508151600091506200046190602090840181019084016200120f565b5050601580546001600160a01b0319166001600160a01b039290921691909117905550620014c99950505050505050505050565b60007f8b73c3c69bb8fe3d512ecc4cf759cc79239f7b179b0ffacaa9a75d522b39400f6000604051620004c9919062001313565b6040805191829003822060208301939093528101919091527fc89efdaa54c0f20c7adf612882df0950f5a951637e0307cdcb4c672f298b8bc660608201524660808201523060a082015260c00160405160208183030381529060405280519060200120905090565b601654604051635159d87f60e11b815263ffffffff83166004820152620100009091046001600160a01b03169063a2b3b0fe9060240160006040518083038186803b1580156200058057600080fd5b505afa15801562000595573d6000803e3d6000fd5b5050505063ffffffff8116600081815260126020908152604091829020805460ff191660019081179091558251938452908301527fea052d1fb1ecba6aaf6bd32e92f20e7b6a094eaa478248322cc8ff024a90978f910160405180910390a150565b63ffffffff83166000908152600f602052604090205460ff16156200063c5760405163335894fb60e11b815263ffffffff841660048201526024015b60405180910390fd5b63ffffffff831660009081526012602052604090205460ff166200067c57604051631f9db01d60e31b815263ffffffff8416600482015260240162000633565b6016546040516385ae5d5760e01b815263ffffffff85166004820152600091829182916201000090046001600160a01b0316906385ae5d5790602401600060405180830381865afa158015620006d6573d6000803e3d6000fd5b505050506040513d6000823e601f3d908101601f1916820160405262000700919081019062001391565b925092509250831515821515146200073457604051632b1d0bd360e11b815263ffffffff8716600482015260240162000633565b604080516080810182526001600160a01b0380861682528415156020808401918252838501868152606085018b905263ffffffff8c16600090815260109092529490208351815492511515600160a01b026001600160a81b031990931693169290921717815591519091906001820190620007b0908262000eb3565b5060608201516002820190620007c7908262000eb3565b5090505081156200081d57600e54601011620007fa5760405163f025236d60e01b81526010600482015260240162000633565b620008178787600e620009e660201b62002aa7179092919060201c565b62000862565b600d54601011620008455760405163f025236d60e01b81526010600482015260240162000633565b620008628787600d620009e660201b62002aa7179092919060201c565b63ffffffff86166000908152600f602052604090819020805460ff19166001179055517fc4f8cb57c016f0b294fff2666f86fa6cfee9b03aed19f816ae4bf44b7e837bbb90620008c79088908a9063ffffffff92831681529116602082015260400190565b60405180910390a150505050505050565b63ffffffff81166000908152600f602052604090205460ff1662000918576040516370abe85960e01b815263ffffffff8216600482015260240162000633565b6009546001600160a01b03166200092f8262000bc3565b6001600160a01b03161462000982576009546001600160a01b0316620009558262000bc3565b60405163298473c760e11b81526001600160a01b0392831660048201529116602482015260440162000633565b63ffffffff8116600090815260106020526040902054600160a01b900460ff1615620009ca57604051630a42c0f960e41b815263ffffffff8216600482015260240162000633565b6011805463ffffffff191663ffffffff92909216919091179055565b8254801562000b82578380620009fe60018462001400565b8154811062000a115762000a1162001198565b60009182526020808320600880840490910154855460018082018855968652928520918304909101805463ffffffff60046007958616810261010090810a83810219909416969097160290950a909204909316021790559062000a75908362001400565b90505b8363ffffffff1681111562000b2c578462000a9560018362001400565b8154811062000aa85762000aa862001198565b90600052602060002090600891828204019190066004029054906101000a900463ffffffff1685828154811062000ae35762000ae362001198565b90600052602060002090600891828204019190066004026101000a81548163ffffffff021916908363ffffffff160217905550808062000b23906200141c565b91505062000a78565b5081848463ffffffff168154811062000b495762000b4962001198565b90600052602060002090600891828204019190066004026101000a81548163ffffffff021916908363ffffffff16021790555062000bbd565b83546001810185556000858152602090206008820401805460079092166004026101000a63ffffffff81810219909316928516029190911790555b50505050565b63ffffffff81166000908152601060205260408082208054915163e170a9bf60e01b81526001600160a01b0390921691829163e170a9bf9162000c0d916001019060040162001436565b602060405180830381865afa15801562000c2b573d6000803e3d6000fd5b505050506040513d601f19601f8201168201806040525081019062000c51919062000e04565b9392505050565b6001600160a01b038116811462000c6e57600080fd5b50565b634e487b7160e01b600052604160045260246000fd5b604051601f8201601f191681016001600160401b038111828210171562000cb25762000cb262000c71565b604052919050565b600082601f83011262000ccc57600080fd5b81516001600160401b0381111562000ce85762000ce862000c71565b602062000cfe601f8301601f1916820162000c87565b828152858284870101111562000d1357600080fd5b60005b8381101562000d3357858101830151828201840152820162000d16565b506000928101909101919091529392505050565b600080600080600060a0868803121562000d6057600080fd5b855162000d6d8162000c58565b602087015190955062000d808162000c58565b60408701519094506001600160401b038082111562000d9e57600080fd5b62000dac89838a0162000cba565b9450606088015191508082111562000dc357600080fd5b62000dd189838a0162000cba565b9350608088015191508082111562000de857600080fd5b5062000df78882890162000cba565b9150509295509295909350565b60006020828403121562000e1757600080fd5b815162000c518162000c58565b600181811c9082168062000e3957607f821691505b60208210810362000e5a57634e487b7160e01b600052602260045260246000fd5b50919050565b601f82111562000eae57600081815260208120601f850160051c8101602086101562000e895750805b601f850160051c820191505b8181101562000eaa5782815560010162000e95565b5050505b505050565b81516001600160401b0381111562000ecf5762000ecf62000c71565b62000ee78162000ee0845462000e24565b8462000e60565b602080601f83116001811462000f1f576000841562000f065750858301515b600019600386901b1c1916600185901b17855562000eaa565b600085815260208120601f198616915b8281101562000f505788860151825594840194600190910190840162000f2f565b508582101562000f6f5787850151600019600388901b60f8161c191681555b5050505050600190811b01905550565b60006001600160401b0382111562000f9b5762000f9b62000c71565b5060051b60200190565b600082601f83011262000fb757600080fd5b8151602062000fd062000fca8362000f7f565b62000c87565b82815260059290921b8401810191818101908684111562000ff057600080fd5b8286015b848110156200102157805163ffffffff81168114620010135760008081fd5b835291830191830162000ff4565b509695505050505050565b600082601f8301126200103e57600080fd5b815160206200105162000fca8362000f7f565b82815260059290921b840181019181810190868411156200107157600080fd5b8286015b84811015620010215780516001600160401b03811115620010965760008081fd5b620010a68986838b010162000cba565b84525091830191830162001075565b805160ff81168114620010c757600080fd5b919050565b600080600080600060a08688031215620010e557600080fd5b85516001600160401b0380821115620010fd57600080fd5b6200110b89838a0162000fa5565b965060208801519150808211156200112257600080fd5b6200113089838a0162000fa5565b955060408801519150808211156200114757600080fd5b6200115589838a016200102c565b945060608801519150808211156200116c57600080fd5b506200117b888289016200102c565b9250506200118c60808701620010b5565b90509295509295909350565b634e487b7160e01b600052603260045260246000fd5b634e487b7160e01b600052601160045260246000fd5b600063ffffffff808316818103620011e057620011e0620011ae565b6001019392505050565b8051620010c78162000c58565b80516001600160801b0381168114620010c757600080fd5b600080600080600080600080610100898b0312156200122d57600080fd5b88516001600160401b03808211156200124557600080fd5b620012538c838d0162000fa5565b995060208b01519150808211156200126a57600080fd5b620012788c838d0162000fa5565b985060408b01519150808211156200128f57600080fd5b6200129d8c838d016200102c565b975060608b0151915080821115620012b457600080fd5b50620012c38b828c016200102c565b955050620012d460808a01620010b5565b9350620012e460a08a01620011ea565b9250620012f460c08a01620011f7565b91506200130460e08a01620011f7565b90509295985092959890939650565b6000808354620013238162000e24565b600182811680156200133e5760018114620013545762001385565b60ff198416875282151583028701945062001385565b8760005260208060002060005b858110156200137c5781548a82015290840190820162001361565b50505082870194505b50929695505050505050565b600080600060608486031215620013a757600080fd5b8351620013b48162000c58565b60208501519093508015158114620013cb57600080fd5b60408501519092506001600160401b03811115620013e857600080fd5b620013f68682870162000cba565b9150509250925092565b81810381811115620014165762001416620011ae565b92915050565b6000816200142e576200142e620011ae565b506000190190565b60006020808352600084546200144c8162000e24565b808487015260406001808416600081146200147057600181146200148b57620014bb565b60ff1985168984015283151560051b890183019550620014bb565b896000528660002060005b85811015620014b35781548b820186015290830190880162001496565b8a0184019650505b509398975050505050505050565b615af080620014d96000396000f3fe608060405234801561001057600080fd5b50600436106104a05760003560e01c80637ecebe001161026d578063ba08765211610151578063d505accf116100ce578063e753e60011610092578063e753e60014610aab578063ebe3c32814610b20578063eef33eca14610b33578063ef8b30f714610b42578063f2fde38b14610b55578063f7b24e0814610b6857600080fd5b8063d505accf14610a34578063d7d4bf4514610a47578063d905777e14610a5a578063dd62ed3e14610a6d578063e1b1acb714610a9857600080fd5b8063cbdf33d011610115578063cbdf33d0146109da578063cd82f8b1146109fd578063ce96cb7714610a05578063cf30901214610a18578063d1e8840414610a2157600080fd5b8063ba0876521461099e578063bf86d690146109b1578063c244245a146109be578063c63d75b614610695578063c6e6f592146109c757600080fd5b80639fdb11b6116101ea578063ac9650d8116101ae578063ac9650d814610937578063b0a75d361461094a578063b187bd261461095d578063b3d7f6b914610965578063b460af9414610978578063b5292a991461098b57600080fd5b80639fdb11b6146108e8578063a03e4bc3146108f1578063a07bee0b14610909578063a8144e481461091c578063a9059cbb1461092457600080fd5b806395d89b411161023157806395d89b41146108985780639955a9d4146108a05780639959af94146108b35780639c552ca8146108c55780639c5f00c2146108d857600080fd5b80637ecebe001461081c5780638da5cb5b1461083c578063920f5c841461084f57806393bbeac01461086257806394bf804d1461088557600080fd5b80633d8ab1e5116103945780635e2c576e116103115780636ff1c02a116102d55780636ff1c02a1461079257806370a08231146107a157806371e99dc2146107c15780637384504f146107c957806378e0233e146107ec5780637b1039991461080357600080fd5b80635e2c576e146107315780635f6b88a014610739578063687c2b501461074c5780636925ba2c1461076c5780636e553f651461077f57600080fd5b80634e84befe116103585780634e84befe146106c8578063501eb4fe146106db578063530a3714146106ee57806359d20b4e146107015780635a400d251461072957600080fd5b80633d8ab1e51461066d5780633e3382ba14610680578063402d267d146106955780634c4602da146106a85780634cdad506146106b557600080fd5b8063150b7a021161042257806333e15be2116103e657806333e15be2146105ed5780633644e51514610600578063379e0b131461060857806338d52e0f1461061b5780633998a6811461064657600080fd5b8063150b7a021461056357806318160ddd1461058f57806318d4c1431461059857806323b872dd146105bb578063313ce567146105ce57600080fd5b806307a2d13a1161046957806307a2d13a146104fd578063087ed83714610510578063095ea7b3146105255780630a28a477146105485780630a680e181461055b57600080fd5b806251a3b7146104a557806301e1d114146104c15780630402ab63146104c957806306fdde03146104d35780630780fd3a146104e8575b600080fd5b6104ae61012c81565b6040519081526020015b60405180910390f35b6104ae610b70565b6104ae6202a30081565b6104db610bb4565b6040516104b891906149be565b6104fb6104f63660046149ea565b610c42565b005b6104ae61050b366004614a05565b610c78565b610518610c91565b6040516104b89190614a62565b610538610533366004614a8a565b610d66565b60405190151581526020016104b8565b6104ae610556366004614a05565b610dd2565b6104fb610df0565b610576610571366004614ba1565b610e68565b6040516001600160e01b031990911681526020016104b8565b6104ae60035481565b6105386105a6366004614c0c565b60136020526000908152604090205460ff1681565b6105386105c9366004614c29565b610e79565b6002546105db9060ff1681565b60405160ff90911681526020016104b8565b6104fb6105fb366004614c78565b610e8f565b6104ae610f92565b6104fb610616366004614caf565b610fac565b60095461062e906001600160a01b031681565b6040516001600160a01b0390911681526020016104b8565b6106556702c68af0bb14000081565b6040516001600160401b0390911681526020016104b8565b6104fb61067b366004614c0c565b611284565b610688611374565b6040516104b89190614cf6565b6104ae6106a3366004614c0c565b6113f8565b601a546105389060ff1681565b6104ae6106c3366004614a05565b611417565b6104fb6106d6366004614d63565b61142e565b6104fb6106e93660046149ea565b611726565b6104fb6106fc366004614a05565b611759565b61071461070f366004614a05565b611803565b60405163ffffffff90911681526020016104b8565b6104ae600281565b6104fb61183d565b6104fb610747366004614c0c565b6118c5565b6104ae61075a366004614c0c565b60186020526000908152604090205481565b6104fb61077a366004614ed4565b611946565b6104ae61078d366004614ef1565b611a89565b61065567016345785d8a000081565b6104ae6107af366004614c0c565b60046020526000908152604090205481565b610688611b03565b6107dc6107d73660046149ea565b611b60565b6040516104b89493929190614f16565b6107f4611ca9565b6040516104b893929190614f8f565b60165461062e906201000090046001600160a01b031681565b6104ae61082a366004614c0c565b60086020526000908152604090205481565b600a5461062e906001600160a01b031681565b61053861085d366004615045565b611f6f565b610538610870366004614a05565b600f6020526000908152604090205460ff1681565b6104ae610893366004614ef1565b612178565b6104db6121e6565b6104fb6108ae366004615149565b6121f3565b60165461053890610100900460ff1681565b6104fb6108d3366004614a05565b612231565b6011546107149063ffffffff1681565b6104ae60175481565b601a5461062e9061010090046001600160a01b031681565b6104fb610917366004614caf565b6122c9565b6104ae612303565b610538610932366004614a8a565b612339565b6104fb6109453660046151b9565b61234e565b6104fb610958366004614c0c565b6123d0565b610538612463565b6104ae610973366004614a05565b6124ec565b6104ae6109863660046151fa565b612503565b6104fb610999366004615231565b61255e565b6104ae6109ac3660046151fa565b612624565b6016546105389060ff1681565b6104ae60195481565b6104ae6109d5366004614a05565b612693565b6105386109e83660046149ea565b60126020526000908152604090205460ff1681565b6104ae600081565b6104ae610a13366004614c0c565b6126a6565b6104ae600b5481565b6104fb610a2f3660046149ea565b6126d5565b6104fb610a42366004615269565b612753565b600c5461062e906001600160a01b031681565b6104ae610a68366004614c0c565b612997565b6104ae610a7b3660046152da565b600560209081526000928352604080842090915290825290205481565b610714610aa6366004614a05565b6129c6565b601454601554610ae7916001600160401b0380821692680100000000000000008304821692600160801b9004909116906001600160a01b031684565b604080516001600160401b039586168152938516602085015291909316908201526001600160a01b0390911660608201526080016104b8565b6104fb610b2e366004614ed4565b6129d6565b610655670de0b6b3a764000081565b6104ae610b50366004614a05565b612a1a565b6104fb610b63366004614c0c565b612a31565b6104ae601081565b6000610b7a612c6c565b600b54600114610ba55760405162461bcd60e51b8152600401610b9c90615308565b60405180910390fd5b610baf6000612d0c565b905090565b60008054610bc19061532c565b80601f0160208091040260200160405190810160405280929190818152602001828054610bed9061532c565b8015610c3a5780601f10610c0f57610100808354040283529160200191610c3a565b820191906000526020600020905b815481529060010190602001808311610c1d57829003601f168201915b505050505081565b600a546001600160a01b03163314610c6c5760405162461bcd60e51b8152600401610b9c90615366565b610c7581613198565b50565b6000610c8b82610c86610b70565b61329c565b92915050565b600d546060906001600160401b03811115610cae57610cae614ab6565b604051908082528060200260200182016040528015610cd7578160200160208202803683370190505b50905060005b600d54811015610d6257610d28600d8281548110610cfd57610cfd61538c565b90600052602060002090600891828204019190066004029054906101000a900463ffffffff1661333c565b828281518110610d3a57610d3a61538c565b6001600160a01b0390921660209283029190910190910152610d5b816153b8565b9050610cdd565b5090565b3360008181526005602090815260408083206001600160a01b038716808552925280832085905551919290917f8c5be1e5ebec7d5bd14f71427d1e84f3dd0314c0f7b2291e5b200ac8c7c3b92590610dc19086815260200190565b60405180910390a350600192915050565b600080610ddd610b70565b9050610de983826133c5565b9392505050565b600a546001600160a01b03163314610e1a5760405162461bcd60e51b8152600401610b9c90615366565b610e22613454565b6016805460ff191660019081179091556040519081527fb8527b93c36dabdfe078af41be789ba946a4adcfeafcf9d8de21d51629859e3c906020015b60405180910390a1565b630a85bd0160e11b5b949350505050565b6000610e8484613478565b610e718484846134d7565b600a546001600160a01b03163314610eb95760405162461bcd60e51b8152600401610b9c90615366565b600081610f0457600d8363ffffffff1681548110610ed957610ed961538c565b90600052602060002090600891828204019190066004029054906101000a900463ffffffff16610f44565b600e8363ffffffff1681548110610f1d57610f1d61538c565b90600052602060002090600891828204019190066004029054906101000a900463ffffffff165b90506000610f51826135b7565b90508015610f8157604051631c7b946d60e31b815263ffffffff8316600482015260248101829052604401610b9c565b610f8c848385613640565b50505050565b60006006544614610fa557610baf613725565b5060075490565b600a546001600160a01b03163314610fd65760405162461bcd60e51b8152600401610b9c90615366565b600080821561110857600e8463ffffffff1681548110610ff857610ff861538c565b90600052602060002090600891828204019190066004029054906101000a900463ffffffff169150600e8563ffffffff16815481106110395761103961538c565b90600052602060002090600891828204019190066004029054906101000a900463ffffffff1690508181600e8763ffffffff168154811061107c5761107c61538c565b9060005260206000209060089182820401919006600402600e8863ffffffff16815481106110ac576110ac61538c565b90600052602060002090600891828204019190066004028491906101000a81548163ffffffff021916908363ffffffff1602179055508391906101000a81548163ffffffff021916908363ffffffff160217905550505061122d565b600d8463ffffffff16815481106111215761112161538c565b90600052602060002090600891828204019190066004029054906101000a900463ffffffff169150600d8563ffffffff16815481106111625761116261538c565b90600052602060002090600891828204019190066004029054906101000a900463ffffffff1690508181600d8763ffffffff16815481106111a5576111a561538c565b9060005260206000209060089182820401919006600402600d8863ffffffff16815481106111d5576111d561538c565b90600052602060002090600891828204019190066004028491906101000a81548163ffffffff021916908363ffffffff1602179055508391906101000a81548163ffffffff021916908363ffffffff16021790555050505b6040805163ffffffff84811682528381166020830152878116828401528616606082015290517fb7c5df04749a3a06a9a7bf1a8142ccf2a4ee6cbf4709489e876a6e4eb3301e8a9181900360800190a15050505050565b600a546001600160a01b031633146112ae5760405162461bcd60e51b8152600401610b9c90615366565b601654604051636777140560e11b81526001600160a01b038381166004830152620100009092049091169063ceee280a9060240160006040518083038186803b1580156112fa57600080fd5b505afa15801561130e573d6000803e3d6000fd5b505050506001600160a01b038116600081815260136020908152604091829020805460ff191660019081179091558251938452908301527f572570e8a43782d3698a3fed258c72f9c201c19be1e4764e359d1adc8f00af7a91015b60405180910390a150565b6060600e8054806020026020016040519081016040528092919081815260200182805480156113ee57602002820191906000526020600020906000905b82829054906101000a900463ffffffff1663ffffffff16815260200190600401906020826003010492830192600103820291508084116113b15790505b5050505050905090565b60165460009060ff161561140e57506000919050565b50600019919050565b600080611422610b70565b9050610de9838261329c565b600a546001600160a01b031633146114585760405162461bcd60e51b8152600401610b9c90615366565b600b5460011461147a5760405162461bcd60e51b8152600401610b9c90615308565b6002600b55611487613454565b61148f612c6c565b601a805460ff1916600117905560008080806114aa81612d0c565b90506114d5601954670de0b6b3a76400006114c591906153d1565b8290670de0b6b3a76400006137bf565b93506114f0601954670de0b6b3a76400006114c591906153e4565b925060035491505060005b84518160ff161015611695576000858260ff168151811061151e5761151e61538c565b602090810291909101810151516001600160a01b0381166000908152601390925260409091205490915060ff1661157357604051635df6b61760e11b81526001600160a01b0382166004820152602401610b9c565b60005b868360ff168151811061158b5761158b61538c565b602002602001015160200151518160ff161015611682576115fa878460ff16815181106115ba576115ba61538c565b6020026020010151602001518260ff16815181106115da576115da61538c565b6020026020010151836001600160a01b03166137ed90919063ffffffff16565b507f7445c6598e1b553f076d507692eab3dceef0d608757141b53e9e56aa8bbaf48382888560ff16815181106116325761163261538c565b6020026020010151602001518360ff16815181106116525761165261538c565b60200260200101516040516116689291906153f7565b60405180910390a18061167a8161541b565b915050611576565b50508061168e9061541b565b90506114fb565b5060006116a26000612d0c565b9050838110806116b157508281115b156116e05760405163628cc47560e11b8152600481018290526024810185905260448101849052606401610b9c565b600354821461171057600354604051632b40145960e21b8152600481019190915260248101839052604401610b9c565b5050601a805460ff1916905550506001600b5550565b600a546001600160a01b031633146117505760405162461bcd60e51b8152600401610b9c90615366565b610c7581613812565b600a546001600160a01b031633146117835760405162461bcd60e51b8152600401610b9c90615366565b67016345785d8a00008111156117bd576040516302d2a90f60e51b81526004810182905267016345785d8a00006024820152604401610b9c565b601980549082905560408051828152602081018490527fdf4be33b2e9e3dd4d9e0e85645aea428494a0644a72c51d6a15aedae6b66a3ff91015b60405180910390a15050565b600d818154811061181357600080fd5b9060005260206000209060089182820401919006600402915054906101000a900463ffffffff1681565b600a546001600160a01b031633146118675760405162461bcd60e51b8152600401610b9c90615366565b60165460ff1661188a5760405163ec7165bf60e01b815260040160405180910390fd5b6016805460ff19169055604051600081527fb8527b93c36dabdfe078af41be789ba946a4adcfeafcf9d8de21d51629859e3c90602001610e5e565b600a546001600160a01b031633146118ef5760405162461bcd60e51b8152600401610b9c90615366565b6001600160a01b0381166000818152601360209081526040808320805460ff191690558051938452908301919091527f572570e8a43782d3698a3fed258c72f9c201c19be1e4764e359d1adc8f00af7a9101611369565b600a546001600160a01b031633146119705760405162461bcd60e51b8152600401610b9c90615366565b60008082156119a9576000611983610b70565b90506119948161251c6127106138d0565b92506119a5816129046127106138d0565b9150505b601654604051635c9fcd8560e11b815260026004820152620100009091046001600160a01b03169063b93f9b0a90602401602060405180830381865afa1580156119f7573d6000803e3d6000fd5b505050506040513d601f19601f82011682018060405250810190611a1b919061543a565b600c80546001600160a01b0319166001600160a01b03929092169190911790556000611a45610b70565b90508315610f8c5782811080611a5a57508181115b15610f8c5760405163628cc47560e11b8152600481018290526024810184905260448101839052606401610b9c565b6000600b54600114611aad5760405162461bcd60e51b8152600401610b9c90615308565b6002600b556000611abd81612d0c565b9050611ac984826138ef565b915081600003611aec5760405163426f153760e11b815260040160405180910390fd5b611af7848385613906565b506001600b5592915050565b6060600d8054806020026020016040519081016040528092919081815260200182805480156113ee576000918252602091829020805463ffffffff1684529082028301929091600491018084116113b15790505050505050905090565b601060205260009081526040902080546001820180546001600160a01b03831693600160a01b90930460ff16929190611b989061532c565b80601f0160208091040260200160405190810160405280929190818152602001828054611bc49061532c565b8015611c115780601f10611be657610100808354040283529160200191611c11565b820191906000526020600020905b815481529060010190602001808311611bf457829003601f168201915b505050505090806002018054611c269061532c565b80601f0160208091040260200160405190810160405280929190818152602001828054611c529061532c565b8015611c9f5780601f10611c7457610100808354040283529160200191611c9f565b820191906000526020600020905b815481529060010190602001808311611c8257829003601f168201915b5050505050905084565b600d54600e546060918291829190611cc181836153e4565b6001600160401b03811115611cd857611cd8614ab6565b604051908082528060200260200182016040528015611d01578160200160208202803683370190505b509450611d0e81836153e4565b6001600160401b03811115611d2557611d25614ab6565b604051908082528060200260200182016040528015611d4e578160200160208202803683370190505b509350611d5b81836153e4565b6001600160401b03811115611d7257611d72614ab6565b604051908082528060200260200182016040528015611d9b578160200160208202803683370190505b50925060005b82811015611e8457611dbf600d8281548110610cfd57610cfd61538c565b868281518110611dd157611dd161538c565b60200260200101906001600160a01b031690816001600160a01b031681525050611e32600d8281548110611e0757611e0761538c565b90600052602060002090600891828204019190066004029054906101000a900463ffffffff166135b7565b858281518110611e4457611e4461538c565b6020026020010181815250506000848281518110611e6457611e6461538c565b91151560209283029190910190910152611e7d816153b8565b9050611da1565b5060005b81811015611f6757611ea6600e8281548110610cfd57610cfd61538c565b600d548790611eb590846153e4565b81518110611ec557611ec561538c565b60200260200101906001600160a01b031690816001600160a01b031681525050611efb600e8281548110611e0757611e0761538c565b600d548690611f0a90846153e4565b81518110611f1a57611f1a61538c565b6020908102919091010152600d546001908590611f3790846153e4565b81518110611f4757611f4761538c565b91151560209283029190910190910152611f60816153b8565b9050611e88565b505050909192565b60006001600160a01b0384163014611f9a576040516304a246dd60e51b815260040160405180910390fd5b601a5461010090046001600160a01b03163314611fca576040516349456ad960e01b815260040160405180910390fd5b6000611fd883850185614d63565b905060005b81518160ff1610156120c2576000828260ff16815181106120005761200061538c565b602090810291909101810151516001600160a01b0381166000908152601390925260409091205490915060ff1661205557604051635df6b61760e11b81526001600160a01b0382166004820152602401610b9c565b60005b838360ff168151811061206d5761206d61538c565b602002602001015160200151518160ff1610156120af5761209c848460ff16815181106115ba576115ba61538c565b50806120a78161541b565b915050612058565b5050806120bb9061541b565b9050611fdd565b5060005b8881101561216657601a546121569061010090046001600160a01b03168989848181106120f5576120f561538c565b905060200201358c8c8581811061210e5761210e61538c565b9050602002013561211f91906153e4565b8e8e858181106121315761213161538c565b90506020020160208101906121469190614c0c565b6001600160a01b03169190613984565b61215f816153b8565b90506120c6565b5060019b9a5050505050505050505050565b6000600b5460011461219c5760405162461bcd60e51b8152600401610b9c90615308565b6002600b5560006121ac81612d0c565b90506121b884826139fb565b9150816000036121db57604051639768300560e01b815260040160405180910390fd5b611af7828585613906565b60018054610bc19061532c565b600a546001600160a01b0316331461221d5760405162461bcd60e51b8152600401610b9c90615366565b612225613454565b610f8c84848484613a12565b600a546001600160a01b0316331461225b5760405162461bcd60e51b8152600401610b9c90615366565b61012c81108061226d57506202a30081115b1561228b57604051633a60233f60e21b815260040160405180910390fd5b601780549082905560408051828152602081018490527f227ff5c6b5ffb395236b09fd1b472bb128b36eaa17556633feefe28e94411f2491016117f7565b600a546001600160a01b031633146122f35760405162461bcd60e51b8152600401610b9c90615366565b6122fe838383613640565b505050565b600061230d612c6c565b600b5460011461232f5760405162461bcd60e51b8152600401610b9c90615308565b610baf6001612d0c565b600061234433613478565b610de98383613cb9565b60005b818110156122fe576123bd83838381811061236e5761236e61538c565b90506020028101906123809190615457565b8080601f01602080910402602001604051908101604052809392919081815260200183838082843760009201919091525030939250506137ed9050565b50806123c8816153b8565b915050612351565b600a546001600160a01b031633146123fa5760405162461bcd60e51b8152600401610b9c90615366565b601554604080516001600160a01b03928316815291831660208301527f51dbb5a65bb22737861a63ec12ba6ce78a98631e9404b0567a2eaf7a06fc544d910160405180910390a1601580546001600160a01b0319166001600160a01b0392909216919091179055565b601654600090610100900460ff166124e657601654604051630ad85dff60e41b8152306004820152620100009091046001600160a01b03169063ad85dff090602401602060405180830381865afa1580156124c2573d6000803e3d6000fd5b505050506040513d601f19601f82011682018060405250810190610baf919061549d565b50600090565b6000806124f7610b70565b9050610de983826139fb565b6000600b546001146125275760405162461bcd60e51b8152600401610b9c90615308565b6002600b55600061253781612d0c565b905061254385826133c5565b915061255185838686613d1f565b506001600b559392505050565b600a546001600160a01b031633146125885760405162461bcd60e51b8152600401610b9c90615366565b670de0b6b3a76400006001600160401b03821611156125ba57604051633d0203e560e01b815260040160405180910390fd5b601454604080516001600160401b03928316815291831660208301527fb5cc994a260a85a42d6588668221571ae0a14f0a28f9e4817a5195262102c868910160405180910390a16014805467ffffffffffffffff19166001600160401b0392909216919091179055565b6000600b546001146126485760405162461bcd60e51b8152600401610b9c90615308565b6002600b55600061265881612d0c565b9050612664858261329c565b91508160000361268757604051639768300560e01b815260040160405180910390fd5b61255182868686613d1f565b6000610c8b826126a1610b70565b6138ef565b6000600b546001146126ca5760405162461bcd60e51b8152600401610b9c90615308565b610c8b826000613df8565b600a546001600160a01b031633146126ff5760405162461bcd60e51b8152600401610b9c90615366565b63ffffffff81166000818152601260209081526040808320805460ff191690558051938452908301919091527fea052d1fb1ecba6aaf6bd32e92f20e7b6a094eaa478248322cc8ff024a90978f9101611369565b428410156127a35760405162461bcd60e51b815260206004820152601760248201527f5045524d49545f444541444c494e455f455850495245440000000000000000006044820152606401610b9c565b600060016127af610f92565b6001600160a01b038a811660008181526008602090815260409182902080546001810190915582517f6e71edae12b1b97f4d1f60370fef10105fa2faae0126114a169c64845d6126c98184015280840194909452938d166060840152608083018c905260a083019390935260c08083018b90528151808403909101815260e08301909152805192019190912061190160f01b6101008301526101028201929092526101228101919091526101420160408051601f198184030181528282528051602091820120600084529083018083525260ff871690820152606081018590526080810184905260a0016020604051602081039080840390855afa1580156128bb573d6000803e3d6000fd5b5050604051601f1901519150506001600160a01b038116158015906128f15750876001600160a01b0316816001600160a01b0316145b61292e5760405162461bcd60e51b815260206004820152600e60248201526d24a72b20a624a22fa9a4a3a722a960911b6044820152606401610b9c565b6001600160a01b0390811660009081526005602090815260408083208a8516808552908352928190208990555188815291928a16917f8c5be1e5ebec7d5bd14f71427d1e84f3dd0314c0f7b2291e5b200ac8c7c3b925910160405180910390a350505050505050565b6000600b546001146129bb5760405162461bcd60e51b8152600401610b9c90615308565b610c8b826001613df8565b600e818154811061181357600080fd5b600a546001600160a01b03163314612a005760405162461bcd60e51b8152600401610b9c90615366565b601680549115156101000261ff0019909216919091179055565b600080612a25610b70565b9050610de983826138ef565b600a546001600160a01b03163314612a5b5760405162461bcd60e51b8152600401610b9c90615366565b600a80546001600160a01b0319166001600160a01b03831690811790915560405133907f8be0079c531659141344cd1fd0a4f28419497f9722a3daafe3b4186f6b6457e090600090a350565b82548015612c2b578380612abc6001846153d1565b81548110612acc57612acc61538c565b60009182526020808320600880840490910154855460018082018855968652928520918304909101805463ffffffff60046007958616810261010090810a83810219909416969097160290950a9092049093160217905590612b2e90836153d1565b90505b8363ffffffff16811115612bd95784612b4b6001836153d1565b81548110612b5b57612b5b61538c565b90600052602060002090600891828204019190066004029054906101000a900463ffffffff16858281548110612b9357612b9361538c565b90600052602060002090600891828204019190066004026101000a81548163ffffffff021916908363ffffffff1602179055508080612bd1906154ba565b915050612b31565b5081848463ffffffff1681548110612bf357612bf361538c565b90600052602060002090600891828204019190066004026101000a81548163ffffffff021916908363ffffffff160217905550610f8c565b508254600181018455600093845260209093206008840401805460079094166004026101000a63ffffffff8181021990951692909416939093021790915550565b601654610100900460ff16612d0a57601654604051630ad85dff60e41b8152306004820152620100009091046001600160a01b03169063ad85dff090602401602060405180830381865afa158015612cc8573d6000803e3d6000fd5b505050506040513d601f19601f82011682018060405250810190612cec919061549d565b15612d0a57604051630f301f8f60e41b815260040160405180910390fd5b565b600d5460009081816001600160401b03811115612d2b57612d2b614ab6565b604051908082528060200260200182016040528015612d54578160200160208202803683370190505b5090506000826001600160401b03811115612d7157612d71614ab6565b604051908082528060200260200182016040528015612d9a578160200160208202803683370190505b5090508415612eeb5760005b83811015612e6b576000600d8281548110612dc357612dc361538c565b90600052602060002090600891828204019190066004029054906101000a900463ffffffff169050612df481613eba565b838381518110612e0657612e0661538c565b6020026020010181815250600003612e1e5750612e5b565b612e278161333c565b848381518110612e3957612e3961538c565b60200260200101906001600160a01b031690816001600160a01b031681525050505b612e64816153b8565b9050612da6565b50600c5460095460405163b333a17560e01b81526001600160a01b039283169263b333a17592612ea3928792879216906004016154d1565b602060405180830381865afa158015612ec0573d6000803e3d6000fd5b505050506040513d601f19601f82011682018060405250810190612ee4919061550f565b9350613190565b600e546000816001600160401b03811115612f0857612f08614ab6565b604051908082528060200260200182016040528015612f31578160200160208202803683370190505b5090506000826001600160401b03811115612f4e57612f4e614ab6565b604051908082528060200260200182016040528015612f77578160200160208202803683370190505b50905060005b86811015613042576000600d8281548110612f9a57612f9a61538c565b90600052602060002090600891828204019190066004029054906101000a900463ffffffff169050612fcb816135b7565b868381518110612fdd57612fdd61538c565b6020026020010181815250600003612ff55750613032565b612ffe8161333c565b8783815181106130105761301061538c565b60200260200101906001600160a01b031690816001600160a01b031681525050505b61303b816153b8565b9050612f7d565b5060005b8381101561310b576000600e82815481106130635761306361538c565b90600052602060002090600891828204019190066004029054906101000a900463ffffffff169050613094816135b7565b8383815181106130a6576130a661538c565b60200260200101818152506000036130be57506130fb565b6130c78161333c565b8483815181106130d9576130d961538c565b60200260200101906001600160a01b031690816001600160a01b031681525050505b613104816153b8565b9050613046565b50600c54600954604051637563738b60e11b81526001600160a01b039283169263eac6e71692613149928a928a928992899290911690600401615528565b602060405180830381865afa158015613166573d6000803e3d6000fd5b505050506040513d601f19601f8201168201806040525081019061318a919061550f565b96505050505b505050919050565b63ffffffff81166000908152600f602052604090205460ff166131d6576040516370abe85960e01b815263ffffffff82166004820152602401610b9c565b6009546001600160a01b03166131eb8261333c565b6001600160a01b03161461323a576009546001600160a01b031661320e8261333c565b60405163298473c760e11b81526001600160a01b03928316600482015291166024820152604401610b9c565b63ffffffff8116600090815260106020526040902054600160a01b900460ff161561328057604051630a42c0f960e41b815263ffffffff82166004820152602401610b9c565b6011805463ffffffff191663ffffffff92909216919091179055565b60035460009080156132b8576132b38484836138d0565b610e71565b610e716012600960009054906101000a90046001600160a01b03166001600160a01b031663313ce5676040518163ffffffff1660e01b8152600401602060405180830381865afa158015613310573d6000803e3d6000fd5b505050506040513d601f19601f820116820180604052508101906133349190615590565b869190613f74565b63ffffffff81166000908152601060205260408082208054915163e170a9bf60e01b81526001600160a01b0390921691829163e170a9bf91613384916001019060040161562a565b602060405180830381865afa1580156133a1573d6000803e3d6000fd5b505050506040513d601f19601f82011682018060405250810190610de9919061543a565b60035460009080156133dc576132b38482856137bf565b6009546040805163313ce56760e01b81529051610e71926001600160a01b03169163313ce5679160048083019260209291908290030181865afa158015613427573d6000803e3d6000fd5b505050506040513d601f19601f8201168201806040525081019061344b9190615590565b85906012613f74565b60165460ff1615612d0a576040516337a5332d60e11b815260040160405180910390fd5b6001600160a01b03811660009081526018602052604090205480156134d3576000601754826134a791906153e4565b9050428111156122fe576040516306f8ee3f60e21b815260048101829052426024820152604401610b9c565b5050565b6001600160a01b038316600090815260056020908152604080832033845290915281205460001981146135335761350e83826153d1565b6001600160a01b03861660009081526005602090815260408083203384529091529020555b6001600160a01b0385166000908152600460205260408120805485929061355b9084906153d1565b90915550506001600160a01b0380851660008181526004602052604090819020805487019055519091871690600080516020615a9b833981519152906135a49087815260200190565b60405180910390a3506001949350505050565b63ffffffff811660009081526010602052604080822080549151637841536560e01b81526001600160a01b039092169182916378415365916135ff916001019060040161562a565b602060405180830381865afa15801561361c573d6000803e3d6000fd5b505050506040513d601f19601f82011682018060405250810190610de9919061550f565b60115463ffffffff9081169083160361366c576040516319ded73160e21b815260040160405180910390fd5b80156136825761367d600e84613fdd565b61368d565b61368d600d84613fdd565b63ffffffff82166000908152600f60209081526040808320805460ff191690556010909152812080546001600160a81b0319168155906136d06001830182614924565b6136de600283016000614924565b50506040805163ffffffff8085168252851660208201527fa5cd0099b78b279c04987aa80ffffaf8fc8c8af4e7c7bce2686e8d01e2e1bd51910160405180910390a1505050565b60007f8b73c3c69bb8fe3d512ecc4cf759cc79239f7b179b0ffacaa9a75d522b39400f6000604051613757919061563d565b6040805191829003822060208301939093528101919091527fc89efdaa54c0f20c7adf612882df0950f5a951637e0307cdcb4c672f298b8bc660608201524660808201523060a082015260c00160405160208183030381529060405280519060200120905090565b8282028115158415858304851417166137d757600080fd5b6001826001830304018115150290509392505050565b6060610de98383604051806060016040528060278152602001615a7460279139614122565b601654604051635159d87f60e11b815263ffffffff83166004820152620100009091046001600160a01b03169063a2b3b0fe9060240160006040518083038186803b15801561386057600080fd5b505afa158015613874573d6000803e3d6000fd5b5050505063ffffffff8116600081815260126020908152604091829020805460ff191660019081179091558251938452908301527fea052d1fb1ecba6aaf6bd32e92f20e7b6a094eaa478248322cc8ff024a90978f9101611369565b8282028115158415858304851417166138e857600080fd5b0492915050565b60035460009080156133dc576132b38482856138d0565b61391183838361419a565b600954613929906001600160a01b0316333086614282565b613933818361430c565b60408051848152602081018490526001600160a01b0383169133917fdcbc1c05240f31ff3ad067ef1ee35ce4997762752e3a095284754544f4c709d7910160405180910390a36122fe838383614366565b600060405163095ea7b360e01b8152836004820152826024820152602060006044836000895af13d15601f3d1160016000511416171691505080610f8c5760405162461bcd60e51b815260206004820152600e60248201526d1054141493d59157d1905253115160921b6044820152606401610b9c565b60035460009080156132b8576132b38484836137bf565b63ffffffff83166000908152600f602052604090205460ff1615613a515760405163335894fb60e11b815263ffffffff84166004820152602401610b9c565b63ffffffff831660009081526012602052604090205460ff16613a8f57604051631f9db01d60e31b815263ffffffff84166004820152602401610b9c565b6016546040516385ae5d5760e01b815263ffffffff85166004820152600091829182916201000090046001600160a01b0316906385ae5d5790602401600060405180830381865afa158015613ae8573d6000803e3d6000fd5b505050506040513d6000823e601f3d908101601f19168201604052613b1091908101906156b3565b92509250925083151582151514613b4257604051632b1d0bd360e11b815263ffffffff87166004820152602401610b9c565b604080516080810182526001600160a01b0380861682528415156020808401918252838501868152606085018b905263ffffffff8c16600090815260109092529490208351815492511515600160a01b026001600160a81b031990931693169290921717815591519091906001820190613bbc90826157a0565b5060608201516002820190613bd190826157a0565b509050508115613c1257600e54601011613c015760405163f025236d60e01b815260106004820152602401610b9c565b613c0d600e8888612aa7565b613c44565b600d54601011613c385760405163f025236d60e01b815260106004820152602401610b9c565b613c44600d8888612aa7565b63ffffffff86166000908152600f602052604090819020805460ff19166001179055517fc4f8cb57c016f0b294fff2666f86fa6cfee9b03aed19f816ae4bf44b7e837bbb90613ca89088908a9063ffffffff92831681529116602082015260400190565b60405180910390a150505050505050565b33600090815260046020526040812080548391908390613cda9084906153d1565b90915550506001600160a01b03831660008181526004602052604090819020805485019055513390600080516020615a9b83398151915290610dc19086815260200190565b613d2b84848484614397565b336001600160a01b03821614613d99576001600160a01b03811660009081526005602090815260408083203384529091529020546000198114613d9757613d7284826153d1565b6001600160a01b03831660009081526005602090815260408083203384529091529020555b505b613da381846143a8565b60408051858152602081018590526001600160a01b03808416929085169133917ffbde797d201c681b91056529119e0b02407c7bb96a4a2c75c01fc9667232c8db910160405180910390a4610f8c848361440a565b6000613e02612c6c565b6001600160a01b0383166000908152601860205260409020548015613e4857600060175482613e3191906153e4565b905042811115613e4657600092505050610c8b565b505b6000613e546000612d0c565b6001600160a01b03861660009081526004602052604081205491925090613e7b908361329c565b90506000613e896001612d0c565b905080821115613e995780613e9b565b815b94508515613eb057613ead85846138ef565b94505b5050505092915050565b63ffffffff8116600090815260106020526040812054600160a01b900460ff1615613ee757506000919050565b63ffffffff82166000908152601060205260409081902080549151637d2872e960e11b81526001600160a01b039092169163fa50e5d291613f339160018201916002019060040161585f565b602060405180830381865afa158015613f50573d6000803e3d6000fd5b505050506040513d601f19601f82011682018060405250810190610c8b919061550f565b60008160ff168360ff1603613f8a575082610de9565b8160ff168360ff161015613fbe57613fa2838361588d565b613fad90600a61598a565b613fb79085615999565b9050610de9565b613fc8828461588d565b613fd390600a61598a565b613fb790856159b8565b815463ffffffff8216811161402a5760405162461bcd60e51b8152602060048201526013602482015272496e646578206f7574206f6620626f756e647360681b6044820152606401610b9c565b63ffffffff82165b61403d6001836153d1565b8110156140de57836140508260016153e4565b815481106140605761406061538c565b90600052602060002090600891828204019190066004029054906101000a900463ffffffff168482815481106140985761409861538c565b90600052602060002090600891828204019190066004026101000a81548163ffffffff021916908363ffffffff16021790555080806140d6906153b8565b915050614032565b50828054806140ef576140ef6159da565b600082815260209020600860001990920191820401805463ffffffff600460078516026101000a02191690559055505050565b6060600080856001600160a01b03168560405161413f91906159f0565b600060405180830381855af49150503d806000811461417a576040519150601f19603f3d011682016040523d82523d6000602084013e61417f565b606091505b5091509150614190868383876147a5565b9695505050505050565b6141a2613454565b6141aa612c6c565b336001600160a01b0382161461424a57601654604051635551e1b560e01b8152336004820152620100009091046001600160a01b031690635551e1b590602401602060405180830381865afa158015614207573d6000803e3d6000fd5b505050506040513d601f19601f8201168201806040525081019061422b919061549d565b61424a576040516334871f2560e21b8152336004820152602401610b9c565b6000614255826113f8565b905080841115610f8c57604051632d21eb8760e21b81526004810185905260248101829052604401610b9c565b60006040516323b872dd60e01b81528460048201528360248201528260448201526020600060648360008a5af13d15601f3d11600160005114161716915050806143055760405162461bcd60e51b81526020600482015260146024820152731514905394d1915497d19493d357d1905253115160621b6044820152606401610b9c565b5050505050565b806003600082825461431e91906153e4565b90915550506001600160a01b038216600081815260046020908152604080832080548601905551848152600080516020615a9b83398151915291015b60405180910390a35050565b6011546143799063ffffffff168461481e565b6001600160a01b031660009081526018602052604090204290555050565b61439f612c6c565b610f8c81613478565b6001600160a01b038216600090815260046020526040812080548392906143d09084906153d1565b90915550506003805482900390556040518181526000906001600160a01b03841690600080516020615a9b8339815191529060200161435a565b6144356040518060800160405280600081526020016000815260200160008152602001600081525090565b600c54600954604051630226614760e01b81526001600160a01b039182166004820152911690630226614790602401602060405180830381865afa158015614481573d6000803e3d6000fd5b505050506040513d601f19601f820116820180604052508101906144a5919061550f565b604080830191909152600954815163313ce56760e01b815291516001600160a01b039091169163313ce5679160048083019260209291908290030181865afa1580156144f5573d6000803e3d6000fd5b505050506040513d601f19601f820116820180604052508101906145199190615590565b61452490600a61598a565b6060820152600d5460005b81811015614782576000600d828154811061454c5761454c61538c565b60009182526020822060088204015460079091166004026101000a900463ffffffff16915061457a82613eba565b90508060000361458b575050614772565b60006145968361333c565b600c54604051630226614760e01b81526001600160a01b038084166004830152929350911690630226614790602401602060405180830381865afa1580156145e2573d6000803e3d6000fd5b505050506040513d601f19601f82011682018060405250810190614606919061550f565b866000018181525050806001600160a01b031663313ce5676040518163ffffffff1660e01b8152600401602060405180830381865afa15801561464d573d6000803e3d6000fd5b505050506040513d601f19601f820116820180604052508101906146719190615590565b61467c90600a61598a565b60208701819052865160009182916146a7916146a087670de0b6b3a7640000615999565b91906138d0565b90506146c688606001518960400151836138d09092919063ffffffff16565b91506146da670de0b6b3a7640000836159b8565b91505060008982111561474057600061470a89604001518a606001518d670de0b6b3a76400006146a09190615999565b60208a01518a51919250614720918391906138d0565b9150614734670de0b6b3a7640000836159b8565b915060009a505061474f565b508261474c828b6153d1565b99505b61475a85828b6148ab565b8960000361476c575050505050614782565b50505050505b61477b816153b8565b905061452f565b508315610f8c5760405163cc5ea39b60e01b815260048101859052602401610b9c565b6060831561481457825160000361480d576001600160a01b0385163b61480d5760405162461bcd60e51b815260206004820152601d60248201527f416464726573733a2063616c6c20746f206e6f6e2d636f6e74726163740000006044820152606401610b9c565b5081610e71565b610e7183836148fa565b63ffffffff821660009081526010602052604090819020805491516001600160a01b0390921691610f8c916369445c3160e01b91614869918691600182019160020190602401615a0c565b60408051601f198184030181529190526020810180516001600160e01b03166001600160e01b0319909316929092179091526001600160a01b038316906137ed565b63ffffffff831660009081526010602052604090819020805491516001600160a01b03909216916143059163c9111bd760e01b9161486991879187916001810191600290910190602401615a37565b81511561490a5781518083602001fd5b8060405162461bcd60e51b8152600401610b9c91906149be565b5080546149309061532c565b6000825580601f10614940575050565b601f016020900490600052602060002090810190610c7591905b80821115610d62576000815560010161495a565b60005b83811015614989578181015183820152602001614971565b50506000910152565b600081518084526149aa81602086016020860161496e565b601f01601f19169290920160200192915050565b602081526000610de96020830184614992565b803563ffffffff811681146149e557600080fd5b919050565b6000602082840312156149fc57600080fd5b610de9826149d1565b600060208284031215614a1757600080fd5b5035919050565b600081518084526020808501945080840160005b83811015614a575781516001600160a01b031687529582019590820190600101614a32565b509495945050505050565b602081526000610de96020830184614a1e565b6001600160a01b0381168114610c7557600080fd5b60008060408385031215614a9d57600080fd5b8235614aa881614a75565b946020939093013593505050565b634e487b7160e01b600052604160045260246000fd5b604080519081016001600160401b0381118282101715614aee57614aee614ab6565b60405290565b604051601f8201601f191681016001600160401b0381118282101715614b1c57614b1c614ab6565b604052919050565b60006001600160401b03821115614b3d57614b3d614ab6565b50601f01601f191660200190565b600082601f830112614b5c57600080fd5b8135614b6f614b6a82614b24565b614af4565b818152846020838601011115614b8457600080fd5b816020850160208301376000918101602001919091529392505050565b60008060008060808587031215614bb757600080fd5b8435614bc281614a75565b93506020850135614bd281614a75565b92506040850135915060608501356001600160401b03811115614bf457600080fd5b614c0087828801614b4b565b91505092959194509250565b600060208284031215614c1e57600080fd5b8135610de981614a75565b600080600060608486031215614c3e57600080fd5b8335614c4981614a75565b92506020840135614c5981614a75565b929592945050506040919091013590565b8015158114610c7557600080fd5b60008060408385031215614c8b57600080fd5b614c94836149d1565b91506020830135614ca481614c6a565b809150509250929050565b600080600060608486031215614cc457600080fd5b614ccd846149d1565b9250614cdb602085016149d1565b91506040840135614ceb81614c6a565b809150509250925092565b6020808252825182820181905260009190848201906040850190845b81811015614d3457835163ffffffff1683529284019291840191600101614d12565b50909695505050505050565b60006001600160401b03821115614d5957614d59614ab6565b5060051b60200190565b600060208284031215614d7557600080fd5b6001600160401b038083351115614d8b57600080fd5b8235830184601f820112614d9e57600080fd5b614dab614b6a8235614d40565b81358082526020808301929160051b84010187811115614dca57600080fd5b602084015b81811015614ec7578581351115614de557600080fd5b803585016040818b03601f19011215614dfd57600080fd5b614e05614acc565b6020820135614e1381614a75565b8152604082013588811115614e2757600080fd5b8083019250508a603f830112614e3c57600080fd5b6020820135614e4d614b6a82614d40565b81815260059190911b83016040019060208101908d831115614e6e57600080fd5b604085015b83811015614ea7578b81351115614e8957600080fd5b614e998f60408335890101614b4b565b835260209283019201614e73565b508060208501525050508086525050602084019350602081019050614dcf565b5090979650505050505050565b600060208284031215614ee657600080fd5b8135610de981614c6a565b60008060408385031215614f0457600080fd5b823591506020830135614ca481614a75565b6001600160a01b03851681528315156020820152608060408201819052600090614f4290830185614992565b8281036060840152614f548185614992565b979650505050505050565b600081518084526020808501945080840160005b83811015614a5757815187529582019590820190600101614f73565b606081526000614fa26060830186614a1e565b602083820381850152614fb58287614f5f565b8481036040860152855180825282870193509082019060005b81811015614fec578451151583529383019391830191600101614fce565b509098975050505050505050565b60008083601f84011261500c57600080fd5b5081356001600160401b0381111561502357600080fd5b6020830191508360208260051b850101111561503e57600080fd5b9250929050565b600080600080600080600080600060a08a8c03121561506357600080fd5b89356001600160401b038082111561507a57600080fd5b6150868d838e01614ffa565b909b50995060208c013591508082111561509f57600080fd5b6150ab8d838e01614ffa565b909950975060408c01359150808211156150c457600080fd5b6150d08d838e01614ffa565b909750955060608c013591506150e582614a75565b90935060808b013590808211156150fb57600080fd5b818c0191508c601f83011261510f57600080fd5b81358181111561511e57600080fd5b8d602082850101111561513057600080fd5b6020830194508093505050509295985092959850929598565b6000806000806080858703121561515f57600080fd5b615168856149d1565b9350615176602086016149d1565b925060408501356001600160401b0381111561519157600080fd5b61519d87828801614b4b565b92505060608501356151ae81614c6a565b939692955090935050565b600080602083850312156151cc57600080fd5b82356001600160401b038111156151e257600080fd5b6151ee85828601614ffa565b90969095509350505050565b60008060006060848603121561520f57600080fd5b83359250602084013561522181614a75565b91506040840135614ceb81614a75565b60006020828403121561524357600080fd5b81356001600160401b0381168114610de957600080fd5b60ff81168114610c7557600080fd5b600080600080600080600060e0888a03121561528457600080fd5b873561528f81614a75565b9650602088013561529f81614a75565b9550604088013594506060880135935060808801356152bd8161525a565b9699959850939692959460a0840135945060c09093013592915050565b600080604083850312156152ed57600080fd5b82356152f881614a75565b91506020830135614ca481614a75565b6020808252600a90820152695245454e5452414e435960b01b604082015260600190565b600181811c9082168061534057607f821691505b60208210810361536057634e487b7160e01b600052602260045260246000fd5b50919050565b6020808252600c908201526b15539055551213d49256915160a21b604082015260600190565b634e487b7160e01b600052603260045260246000fd5b634e487b7160e01b600052601160045260246000fd5b6000600182016153ca576153ca6153a2565b5060010190565b81810381811115610c8b57610c8b6153a2565b80820180821115610c8b57610c8b6153a2565b6001600160a01b0383168152604060208201819052600090610e7190830184614992565b600060ff821660ff8103615431576154316153a2565b60010192915050565b60006020828403121561544c57600080fd5b8151610de981614a75565b6000808335601e1984360301811261546e57600080fd5b8301803591506001600160401b0382111561548857600080fd5b60200191503681900382131561503e57600080fd5b6000602082840312156154af57600080fd5b8151610de981614c6a565b6000816154c9576154c96153a2565b506000190190565b6060815260006154e46060830186614a1e565b82810360208401526154f68186614f5f565b91505060018060a01b0383166040830152949350505050565b60006020828403121561552157600080fd5b5051919050565b60a08152600061553b60a0830188614a1e565b828103602084015261554d8188614f5f565b905082810360408401526155618187614a1e565b905082810360608401526155758186614f5f565b91505060018060a01b03831660808301529695505050505050565b6000602082840312156155a257600080fd5b8151610de98161525a565b600081546155ba8161532c565b8085526020600183811680156155d757600181146155f15761561f565b60ff1985168884015283151560051b88018301955061561f565b866000528260002060005b858110156156175781548a82018601529083019084016155fc565b890184019650505b505050505092915050565b602081526000610de960208301846155ad565b600080835461564b8161532c565b600182811680156156635760018114615678576156a7565b60ff19841687528215158302870194506156a7565b8760005260208060002060005b8581101561569e5781548a820152908401908201615685565b50505082870194505b50929695505050505050565b6000806000606084860312156156c857600080fd5b83516156d381614a75565b60208501519093506156e481614c6a565b60408501519092506001600160401b0381111561570057600080fd5b8401601f8101861361571157600080fd5b805161571f614b6a82614b24565b81815287602083850101111561573457600080fd5b61574582602083016020860161496e565b8093505050509250925092565b601f8211156122fe57600081815260208120601f850160051c810160208610156157795750805b601f850160051c820191505b8181101561579857828155600101615785565b505050505050565b81516001600160401b038111156157b9576157b9614ab6565b6157cd816157c7845461532c565b84615752565b602080601f83116001811461580257600084156157ea5750858301515b600019600386901b1c1916600185901b178555615798565b600085815260208120601f198616915b8281101561583157888601518255948401946001909101908401615812565b508582101561584f5787850151600019600388901b60f8161c191681555b5050505050600190811b01905550565b60408152600061587260408301856155ad565b828103602084015261588481856155ad565b95945050505050565b60ff8281168282160390811115610c8b57610c8b6153a2565b600181815b808511156158e15781600019048211156158c7576158c76153a2565b808516156158d457918102915b93841c93908002906158ab565b509250929050565b6000826158f857506001610c8b565b8161590557506000610c8b565b816001811461591b576002811461592557615941565b6001915050610c8b565b60ff841115615936576159366153a2565b50506001821b610c8b565b5060208310610133831016604e8410600b8410161715615964575081810a610c8b565b61596e83836158a6565b8060001904821115615982576159826153a2565b029392505050565b6000610de960ff8416836158e9565b60008160001904831182151516156159b3576159b36153a2565b500290565b6000826159d557634e487b7160e01b600052601260045260246000fd5b500490565b634e487b7160e01b600052603160045260246000fd5b60008251615a0281846020870161496e565b9190910192915050565b838152606060208201526000615a2560608301856155ad565b828103604084015261419081856155ad565b8481526001600160a01b0384166020820152608060408201819052600090615a61908301856155ad565b8281036060840152614f5481856155ad56fe416464726573733a206c6f772d6c6576656c2064656c65676174652063616c6c206661696c6564ddf252ad1be2c89b69c2b068fc378daa952ba7f163c4a11628f55a4df523b3efa26469706673582212206dd287b48397cc723182f481f545c67e54374e23ca920649697588f2a1afd3d964736f6c63430008100033",
    "linkReferences": {}
  },
  "methodIdentifiers": {
    "DOMAIN_SEPARATOR()": "3644e515",
    "GRAVITY_BRIDGE_REGISTRY_SLOT()": "cd82f8b1",
    "MAXIMUM_SHARE_LOCK_PERIOD()": "0402ab63",
    "MAX_FEE_CUT()": "eef33eca",
    "MAX_PLATFORM_FEE()": "3998a681",
    "MAX_POSITIONS()": "f7b24e08",
    "MAX_REBALANCE_DEVIATION()": "6ff1c02a",
    "MINIMUM_SHARE_LOCK_PERIOD()": "0051a3b7",
    "PRICE_ROUTER_REGISTRY_SLOT()": "5a400d25",
    "aavePool()": "a03e4bc3",
    "adaptorCatalogue(address)": "18d4c143",
    "addAdaptorToCatalogue(address)": "3d8ab1e5",
    "addPosition(uint32,uint32,bytes,bool)": "9955a9d4",
    "addPositionToCatalogue(uint32)": "501eb4fe",
    "allowance(address,address)": "dd62ed3e",
    "allowedRebalanceDeviation()": "c244245a",
    "approve(address,uint256)": "095ea7b3",
    "asset()": "38d52e0f",
    "balanceOf(address)": "70a08231",
    "blockExternalReceiver()": "4c4602da",
    "cachePriceRouter(bool)": "6925ba2c",
    "callOnAdaptor((address,bytes[])[])": "4e84befe",
    "convertToAssets(uint256)": "07a2d13a",
    "convertToShares(uint256)": "c6e6f592",
    "creditPositions(uint256)": "59d20b4e",
    "debtPositions(uint256)": "e1b1acb7",
    "decimals()": "313ce567",
    "deposit(uint256,address)": "6e553f65",
    "executeOperation(address[],uint256[],uint256[],address,bytes)": "920f5c84",
    "feeData()": "e753e600",
    "forcePositionOut(uint32,uint32,bool)": "a07bee0b",
    "getCreditPositions()": "71e99dc2",
    "getDebtPositions()": "3e3382ba",
    "getPositionAssets()": "087ed837",
    "getPositionData(uint32)": "7384504f",
    "holdingPosition()": "9c5f00c2",
    "ignorePause()": "9959af94",
    "initiateShutdown()": "0a680e18",
    "isPaused()": "b187bd26",
    "isPositionUsed(uint256)": "93bbeac0",
    "isShutdown()": "bf86d690",
    "liftShutdown()": "5e2c576e",
    "locked()": "cf309012",
    "maxDeposit(address)": "402d267d",
    "maxMint(address)": "c63d75b6",
    "maxRedeem(address)": "d905777e",
    "maxWithdraw(address)": "ce96cb77",
    "mint(uint256,address)": "94bf804d",
    "multicall(bytes[])": "ac9650d8",
    "name()": "06fdde03",
    "nonces(address)": "7ecebe00",
    "onERC721Received(address,address,uint256,bytes)": "150b7a02",
    "owner()": "8da5cb5b",
    "permit(address,address,uint256,uint256,uint8,bytes32,bytes32)": "d505accf",
    "positionCatalogue(uint32)": "cbdf33d0",
    "previewDeposit(uint256)": "ef8b30f7",
    "previewMint(uint256)": "b3d7f6b9",
    "previewRedeem(uint256)": "4cdad506",
    "previewWithdraw(uint256)": "0a28a477",
    "priceRouter()": "d7d4bf45",
    "redeem(uint256,address,address)": "ba087652",
    "registry()": "7b103999",
    "removeAdaptorFromCatalogue(address)": "5f6b88a0",
    "removePosition(uint32,bool)": "33e15be2",
    "removePositionFromCatalogue(uint32)": "d1e88404",
    "setHoldingPosition(uint32)": "0780fd3a",
    "setRebalanceDeviation(uint256)": "530a3714",
    "setShareLockPeriod(uint256)": "9c552ca8",
    "setStrategistPayoutAddress(address)": "b0a75d36",
    "setStrategistPlatformCut(uint64)": "b5292a99",
    "shareLockPeriod()": "9fdb11b6",
    "swapPositions(uint32,uint32,bool)": "379e0b13",
    "symbol()": "95d89b41",
    "toggleIgnorePause(bool)": "ebe3c328",
    "totalAssets()": "01e1d114",
    "totalAssetsWithdrawable()": "a8144e48",
    "totalSupply()": "18160ddd",
    "transfer(address,uint256)": "a9059cbb",
    "transferFrom(address,address,uint256)": "23b872dd",
    "transferOwnership(address)": "f2fde38b",
    "userShareLockStartTime(address)": "687c2b50",
    "viewPositionBalances()": "78e0233e",
    "withdraw(uint256,address,address)": "b460af94"
  },
  "id": 41
}