{
  "abi": [
    {
      "inputs": [],
      "name": "BaseAdaptor__ExternalReceiverBlocked",
      "type": "error"
    },
    {
      "inputs": [
        {
          "internalType": "address",
          "name": "asset",
          "type": "address"
        }
      ],
      "name": "BaseAdaptor__PricingNotSupported",
      "type": "error"
    },
    {
      "inputs": [],
      "name": "BaseAdaptor__Slippage",
      "type": "error"
    },
    {
      "inputs": [],
      "name": "BaseAdaptor__UserDepositsNotAllowed",
      "type": "error"
    },
    {
      "inputs": [],
      "name": "BaseAdaptor__UserWithdrawsNotAllowed",
      "type": "error"
    },
    {
      "inputs": [
        {
          "internalType": "address",
          "name": "market",
          "type": "address"
        }
      ],
      "name": "CTokenAdaptor__MarketNotListed",
      "type": "error"
    },
    {
      "inputs": [
        {
          "internalType": "uint256",
          "name": "errorCode",
          "type": "uint256"
        }
      ],
      "name": "CTokenAdaptor__NonZeroCompoundErrorCode",
      "type": "error"
    },
    {
      "inputs": [
        {
          "internalType": "bytes",
          "name": "adaptorData",
          "type": "bytes"
        }
      ],
      "name": "assetOf",
      "outputs": [
        {
          "internalType": "contract ERC20",
          "name": "",
          "type": "address"
        }
      ],
      "stateMutability": "view",
      "type": "function"
    },
    {
      "inputs": [
        {
          "internalType": "bytes",
          "name": "adaptorData",
          "type": "bytes"
        }
      ],
      "name": "assetsUsed",
      "outputs": [
        {
          "internalType": "contract ERC20[]",
          "name": "assets",
          "type": "address[]"
        }
      ],
      "stateMutability": "view",
      "type": "function"
    },
    {
      "inputs": [
        {
          "internalType": "bytes",
          "name": "adaptorData",
          "type": "bytes"
        }
      ],
      "name": "balanceOf",
      "outputs": [
        {
          "internalType": "uint256",
          "name": "",
          "type": "uint256"
        }
      ],
      "stateMutability": "view",
      "type": "function"
    },
    {
      "inputs": [],
      "name": "claimComp",
      "outputs": [],
      "stateMutability": "nonpayable",
      "type": "function"
    },
    {
      "inputs": [
        {
          "internalType": "uint256",
          "name": "assets",
          "type": "uint256"
        },
        {
          "internalType": "bytes",
          "name": "adaptorData",
          "type": "bytes"
        },
        {
          "internalType": "bytes",
          "name": "",
          "type": "bytes"
        }
      ],
      "name": "deposit",
      "outputs": [],
      "stateMutability": "nonpayable",
      "type": "function"
    },
    {
      "inputs": [
        {
          "internalType": "contract CErc20",
          "name": "market",
          "type": "address"
        },
        {
          "internalType": "uint256",
          "name": "amountToDeposit",
          "type": "uint256"
        }
      ],
      "name": "depositToCompound",
      "outputs": [],
      "stateMutability": "nonpayable",
      "type": "function"
    },
    {
      "inputs": [],
      "name": "identifier",
      "outputs": [
        {
          "internalType": "bytes32",
          "name": "",
          "type": "bytes32"
        }
      ],
      "stateMutability": "pure",
      "type": "function"
    },
    {
      "inputs": [],
      "name": "isDebt",
      "outputs": [
        {
          "internalType": "bool",
          "name": "",
          "type": "bool"
        }
      ],
      "stateMutability": "pure",
      "type": "function"
    },
    {
      "inputs": [
        {
          "internalType": "contract ERC20",
          "name": "asset",
          "type": "address"
        },
        {
          "internalType": "address",
          "name": "spender",
          "type": "address"
        }
      ],
      "name": "revokeApproval",
      "outputs": [],
      "stateMutability": "nonpayable",
      "type": "function"
    },
    {
      "inputs": [],
      "name": "slippage",
      "outputs": [
        {
          "internalType": "uint32",
          "name": "",
          "type": "uint32"
        }
      ],
      "stateMutability": "pure",
      "type": "function"
    },
    {
      "inputs": [
        {
          "internalType": "uint256",
          "name": "assets",
          "type": "uint256"
        },
        {
          "internalType": "address",
          "name": "receiver",
          "type": "address"
        },
        {
          "internalType": "bytes",
          "name": "adaptorData",
          "type": "bytes"
        },
        {
          "internalType": "bytes",
          "name": "",
          "type": "bytes"
        }
      ],
      "name": "withdraw",
      "outputs": [],
      "stateMutability": "nonpayable",
      "type": "function"
    },
    {
      "inputs": [
        {
          "internalType": "contract CErc20",
          "name": "market",
          "type": "address"
        },
        {
          "internalType": "uint256",
          "name": "amountToWithdraw",
          "type": "uint256"
        }
      ],
      "name": "withdrawFromCompound",
      "outputs": [],
      "stateMutability": "nonpayable",
      "type": "function"
    },
    {
      "inputs": [
        {
          "internalType": "bytes",
          "name": "adaptorData",
          "type": "bytes"
        },
        {
          "internalType": "bytes",
          "name": "",
          "type": "bytes"
        }
      ],
      "name": "withdrawableFrom",
      "outputs": [
        {
          "internalType": "uint256",
          "name": "",
          "type": "uint256"
        }
      ],
      "stateMutability": "view",
      "type": "function"
    }
  ],
  "bytecode": {
    "object": "0x608060405234801561001057600080fd5b50611231806100206000396000f3fe608060405234801561001057600080fd5b50600436106100cf5760003560e01c8063ad8da96b1161008c578063c9111bd711610066578063c9111bd714610184578063d3bfe76a14610197578063e170a9bf146101aa578063fa50e5d2146101d557600080fd5b8063ad8da96b1461013e578063aeffddde14610151578063c88da5f31461017157600080fd5b80631bd85bdb146100d45780633e032a3b146100de57806369445c31146100f357806378415365146101065780637998a1c41461012757806389353a091461012f575b600080fd5b6100dc6101e8565b005b60405161232881526020015b60405180910390f35b6100dc610101366004610ef6565b61025a565b610119610114366004610f63565b61039e565b6040519081526020016100ea565b6101196104a2565b604051600081526020016100ea565b6100dc61014c366004610fad565b610500565b61016461015f366004610f63565b61062b565b6040516100ea9190610fd9565b6100dc61017f366004610fad565b6106cc565b6100dc610192366004611026565b61084d565b6100dc6101a53660046110a6565b610980565b6101bd6101b8366004610f63565b610999565b6040516001600160a01b0390911681526020016100ea565b6101196101e33660046110df565b610a1b565b733d9819210a31b4961b30ef54be2aed79b9c9cd3b6040516374d7814960e11b81523060048201526001600160a01b03919091169063e9af029290602401600060405180830381600087803b15801561024057600080fd5b505af1158015610254573d6000803e3d6000fd5b50505050565b6000828060200190518101906102709190611143565b905061027b81610aee565b6000816001600160a01b0316636f307dc36040518163ffffffff1660e01b8152600401602060405180830381865afa1580156102bb573d6000803e3d6000fd5b505050506040513d601f19601f820116820180604052508101906102df9190611143565b90506102f56001600160a01b0382168387610b9e565b60405163140e25ad60e31b8152600481018690526000906001600160a01b0384169063a0712d68906024016020604051808303816000875af115801561033f573d6000803e3d6000fd5b505050506040513d601f19601f820116820180604052508101906103639190611160565b9050801561038c57604051636bb7836560e11b8152600481018290526024015b60405180910390fd5b6103968284610c15565b505050505050565b600080828060200190518101906103b59190611143565b6040516370a0823160e01b81523360048201529091506000906001600160a01b038316906370a0823190602401602060405180830381865afa1580156103ff573d6000803e3d6000fd5b505050506040513d601f19601f820116820180604052508101906104239190611160565b905061049a826001600160a01b031663182df0f56040518163ffffffff1660e01b8152600401602060405180830381865afa158015610466573d6000803e3d6000fd5b505050506040513d601f19601f8201168201806040525081019061048a9190611160565b8290670de0b6b3a7640000610ca4565b949350505050565b60006040516020016104e5906020808252601d908201527f436f6d706f756e642063546f6b656e2041646170746f72205620312e30000000604082015260600190565b60405160208183030381529060405280519060200120905090565b61050982610aee565b6000826001600160a01b0316636f307dc36040518163ffffffff1660e01b8152600401602060405180830381865afa158015610549573d6000803e3d6000fd5b505050506040513d601f19601f8201168201806040525081019061056d9190611143565b90506105798183610cc3565b915061058f6001600160a01b0382168484610b9e565b60405163140e25ad60e31b8152600481018390526000906001600160a01b0385169063a0712d68906024016020604051808303816000875af11580156105d9573d6000803e3d6000fd5b505050506040513d601f19601f820116820180604052508101906105fd9190611160565b9050801561062157604051636bb7836560e11b815260048101829052602401610383565b6102548285610c15565b604080516002808252606080830184529260208301908036833701905050905061065482610999565b8160008151811061066757610667611179565b6001600160a01b039092166020928302919091019091015273c00e94cb662c3520282e6f5717214004a7f26888816001815181106106a7576106a7611179565b60200260200101906001600160a01b031690816001600160a01b031681525050919050565b6106d582610aee565b600060001982036107b8576040516370a0823160e01b81523060048201526001600160a01b0384169063db006a759082906370a0823190602401602060405180830381865afa15801561072c573d6000803e3d6000fd5b505050506040513d601f19601f820116820180604052508101906107509190611160565b6040518263ffffffff1660e01b815260040161076e91815260200190565b6020604051808303816000875af115801561078d573d6000803e3d6000fd5b505050506040513d601f19601f820116820180604052508101906107b19190611160565b9050610826565b60405163852a12e360e01b8152600481018390526001600160a01b0384169063852a12e3906024016020604051808303816000875af11580156107ff573d6000803e3d6000fd5b505050506040513d601f19601f820116820180604052508101906108239190611160565b90505b801561084857604051636bb7836560e11b815260048101829052602401610383565b505050565b61085683610d44565b60008280602001905181019061086c9190611143565b905061087781610aee565b60405163852a12e360e01b8152600481018690526000906001600160a01b0383169063852a12e3906024016020604051808303816000875af11580156108c1573d6000803e3d6000fd5b505050506040513d601f19601f820116820180604052508101906108e59190611160565b9050801561090957604051636bb7836560e11b815260048101829052602401610383565b6103968587846001600160a01b0316636f307dc36040518163ffffffff1660e01b8152600401602060405180830381865afa15801561094c573d6000803e3d6000fd5b505050506040513d601f19601f820116820180604052508101906109709190611143565b6001600160a01b03169190610ddb565b6109956001600160a01b038316826000610b9e565b5050565b600080828060200190518101906109b09190611143565b9050806001600160a01b0316636f307dc36040518163ffffffff1660e01b8152600401602060405180830381865afa1580156109f0573d6000803e3d6000fd5b505050506040513d601f19601f82011682018060405250810190610a149190611143565b9392505050565b60008083806020019051810190610a329190611143565b6040516370a0823160e01b81523360048201529091506000906001600160a01b038316906370a0823190602401602060405180830381865afa158015610a7c573d6000803e3d6000fd5b505050506040513d601f19601f82011682018060405250810190610aa09190611160565b9050610ae3826001600160a01b031663182df0f56040518163ffffffff1660e01b8152600401602060405180830381865afa158015610466573d6000803e3d6000fd5b925050505b92915050565b6000733d9819210a31b4961b30ef54be2aed79b9c9cd3b604051638e8f294b60e01b81526001600160a01b0384811660048301529190911690638e8f294b90602401606060405180830381865afa158015610b4d573d6000803e3d6000fd5b505050506040513d601f19601f82011682018060405250810190610b7191906111a4565b505090508061099557604051630ceedc9d60e01b81526001600160a01b0383166004820152602401610383565b600060405163095ea7b360e01b8152836004820152826024820152602060006044836000895af13d15601f3d11600160005114161716915050806102545760405162461bcd60e51b815260206004820152600e60248201526d1054141493d59157d1905253115160921b6044820152606401610383565b604051636eb1769f60e11b81523060048201526001600160a01b0382811660248301526000919084169063dd62ed3e90604401602060405180830381865afa158015610c65573d6000803e3d6000fd5b505050506040513d601f19601f82011682018060405250810190610c899190611160565b1115610995576109956001600160a01b038316826000610b9e565b828202811515841585830485141716610cbc57600080fd5b0492915050565b60006000198203610d3d576040516370a0823160e01b81523060048201526001600160a01b038416906370a0823190602401602060405180830381865afa158015610d12573d6000803e3d6000fd5b505050506040513d601f19601f82011682018060405250810190610d369190611160565b9050610ae8565b5080610ae8565b6001600160a01b0381163014801590610dba5750306001600160a01b0316634c4602da6040518163ffffffff1660e01b8152600401602060405180830381865afa158015610d96573d6000803e3d6000fd5b505050506040513d601f19601f82011682018060405250810190610dba91906111e0565b15610dd8576040516307de9b5160e21b815260040160405180910390fd5b50565b600060405163a9059cbb60e01b8152836004820152826024820152602060006044836000895af13d15601f3d11600160005114161716915050806102545760405162461bcd60e51b815260206004820152600f60248201526e1514905394d1915497d19052531151608a1b6044820152606401610383565b634e487b7160e01b600052604160045260246000fd5b600082601f830112610e7a57600080fd5b813567ffffffffffffffff80821115610e9557610e95610e53565b604051601f8301601f19908116603f01168101908282118183101715610ebd57610ebd610e53565b81604052838152866020858801011115610ed657600080fd5b836020870160208301376000602085830101528094505050505092915050565b600080600060608486031215610f0b57600080fd5b83359250602084013567ffffffffffffffff80821115610f2a57600080fd5b610f3687838801610e69565b93506040860135915080821115610f4c57600080fd5b50610f5986828701610e69565b9150509250925092565b600060208284031215610f7557600080fd5b813567ffffffffffffffff811115610f8c57600080fd5b61049a84828501610e69565b6001600160a01b0381168114610dd857600080fd5b60008060408385031215610fc057600080fd5b8235610fcb81610f98565b946020939093013593505050565b6020808252825182820181905260009190848201906040850190845b8181101561101a5783516001600160a01b031683529284019291840191600101610ff5565b50909695505050505050565b6000806000806080858703121561103c57600080fd5b84359350602085013561104e81610f98565b9250604085013567ffffffffffffffff8082111561106b57600080fd5b61107788838901610e69565b9350606087013591508082111561108d57600080fd5b5061109a87828801610e69565b91505092959194509250565b600080604083850312156110b957600080fd5b82356110c481610f98565b915060208301356110d481610f98565b809150509250929050565b600080604083850312156110f257600080fd5b823567ffffffffffffffff8082111561110a57600080fd5b61111686838701610e69565b9350602085013591508082111561112c57600080fd5b5061113985828601610e69565b9150509250929050565b60006020828403121561115557600080fd5b8151610a1481610f98565b60006020828403121561117257600080fd5b5051919050565b634e487b7160e01b600052603260045260246000fd5b8051801515811461119f57600080fd5b919050565b6000806000606084860312156111b957600080fd5b6111c28461118f565b9250602084015191506111d76040850161118f565b90509250925092565b6000602082840312156111f257600080fd5b610a148261118f56fea264697066735822122069a9b3ea57d98ad1eb26f7a9768468f123cef4a53cdccfee29e6bf385447fb4b64736f6c63430008100033",
    "linkReferences": {}
  },
  "methodIdentifiers": {
    "assetOf(bytes)": "e170a9bf",
    "assetsUsed(bytes)": "aeffddde",
    "balanceOf(bytes)": "78415365",
    "claimComp()": "1bd85bdb",
    "deposit(uint256,bytes,bytes)": "69445c31",
    "depositToCompound(address,uint256)": "ad8da96b",
    "identifier()": "7998a1c4",
    "isDebt()": "89353a09",
    "revokeApproval(address,address)": "d3bfe76a",
    "slippage()": "3e032a3b",
    "withdraw(uint256,address,bytes,bytes)": "c9111bd7",
    "withdrawFromCompound(address,uint256)": "c88da5f3",
    "withdrawableFrom(bytes,bytes)": "fa50e5d2"
  },
  "id": 79
}