{
  "abi": [
    {
      "inputs": [
        {
          "internalType": "address",
          "name": "_morphoRewardsDistributor",
          "type": "address"
        }
      ],
      "stateMutability": "nonpayable",
      "type": "constructor"
    },
    {
      "inputs": [
        {
          "internalType": "uint256",
          "name": "claimable",
          "type": "uint256"
        },
        {
          "internalType": "bytes32[]",
          "name": "proof",
          "type": "bytes32[]"
        }
      ],
      "name": "claim",
      "outputs": [],
      "stateMutability": "nonpayable",
      "type": "function"
    },
    {
      "inputs": [],
      "name": "morphoRewardsDistributor",
      "outputs": [
        {
          "internalType": "contract RewardsDistributor",
          "name": "",
          "type": "address"
        }
      ],
      "stateMutability": "view",
      "type": "function"
    }
  ],
  "bytecode": {
    "object": "0x60a060405234801561001057600080fd5b5060405161031c38038061031c83398101604081905261002f91610040565b6001600160a01b0316608052610070565b60006020828403121561005257600080fd5b81516001600160a01b038116811461006957600080fd5b9392505050565b60805161028c610090600039600081816055015260aa015261028c6000f3fe608060405234801561001057600080fd5b50600436106100365760003560e01c80632f52ebb71461003b5780635b5d4d7814610050575b600080fd5b61004e61004936600461012f565b610093565b005b6100777f000000000000000000000000000000000000000000000000000000000000000081565b6040516001600160a01b03909116815260200160405180910390f35b604051630f44fe1d60e21b81526001600160a01b037f00000000000000000000000000000000000000000000000000000000000000001690633d13f874906100e3903090869086906004016101f9565b600060405180830381600087803b1580156100fd57600080fd5b505af1158015610111573d6000803e3d6000fd5b505050505050565b634e487b7160e01b600052604160045260246000fd5b6000806040838503121561014257600080fd5b8235915060208084013567ffffffffffffffff8082111561016257600080fd5b818601915086601f83011261017657600080fd5b81358181111561018857610188610119565b8060051b604051601f19603f830116810181811085821117156101ad576101ad610119565b6040529182528482019250838101850191898311156101cb57600080fd5b938501935b828510156101e9578435845293850193928501926101d0565b8096505050505050509250929050565b6001600160a01b038416815260208082018490526060604083018190528351908301819052600091848101916080850190845b818110156102485784518352938301939183019160010161022c565b50909897505050505050505056fea264697066735822122095172c1f437abb49f54a9016e5132ff730f3ce61eaae519403598179b116c36f64736f6c63430008100033",
    "linkReferences": {}
  },
  "methodIdentifiers": {
    "claim(uint256,bytes32[])": "2f52ebb7",
    "morphoRewardsDistributor()": "5b5d4d78"
  },
  "id": 203
}