{
  "abi": [
    {
      "inputs": [
        {
          "internalType": "address",
          "name": "_morpho",
          "type": "address"
        },
        {
          "internalType": "address",
          "name": "_morphoLens",
          "type": "address"
        },
        {
          "internalType": "uint256",
          "name": "minHealthFactor",
          "type": "uint256"
        }
      ],
      "stateMutability": "nonpayable",
      "type": "constructor"
    },
    {
      "inputs": [],
      "name": "BaseAdaptor__ConstructorHealthFactorTooLow",
      "type": "error"
    },
    {
      "inputs": [],
      "name": "BaseAdaptor__ExternalReceiverBlocked",
      "type": "error"
    },
    {
      "inputs": [
        {
          "internalType": "address",
          "name": "asset",
          "type": "address"
        }
      ],
      "name": "BaseAdaptor__PricingNotSupported",
      "type": "error"
    },
    {
      "inputs": [],
      "name": "BaseAdaptor__Slippage",
      "type": "error"
    },
    {
      "inputs": [],
      "name": "BaseAdaptor__UserDepositsNotAllowed",
      "type": "error"
    },
    {
      "inputs": [],
      "name": "BaseAdaptor__UserWithdrawsNotAllowed",
      "type": "error"
    },
    {
      "inputs": [
        {
          "internalType": "address",
          "name": "untrackedDebtPosition",
          "type": "address"
        }
      ],
      "name": "MorphoAaveV2DebtTokenAdaptor__DebtPositionsMustBeTracked",
      "type": "error"
    },
    {
      "inputs": [],
      "name": "MorphoAaveV2DebtTokenAdaptor__HealthFactorTooLow",
      "type": "error"
    },
    {
      "inputs": [
        {
          "internalType": "bytes",
          "name": "adaptorData",
          "type": "bytes"
        }
      ],
      "name": "assetOf",
      "outputs": [
        {
          "internalType": "contract ERC20",
          "name": "",
          "type": "address"
        }
      ],
      "stateMutability": "view",
      "type": "function"
    },
    {
      "inputs": [
        {
          "internalType": "bytes",
          "name": "adaptorData",
          "type": "bytes"
        }
      ],
      "name": "assetsUsed",
      "outputs": [
        {
          "internalType": "contract ERC20[]",
          "name": "assets",
          "type": "address[]"
        }
      ],
      "stateMutability": "view",
      "type": "function"
    },
    {
      "inputs": [
        {
          "internalType": "bytes",
          "name": "adaptorData",
          "type": "bytes"
        }
      ],
      "name": "balanceOf",
      "outputs": [
        {
          "internalType": "uint256",
          "name": "",
          "type": "uint256"
        }
      ],
      "stateMutability": "view",
      "type": "function"
    },
    {
      "inputs": [
        {
          "internalType": "address",
          "name": "aToken",
          "type": "address"
        },
        {
          "internalType": "uint256",
          "name": "amountToBorrow",
          "type": "uint256"
        }
      ],
      "name": "borrowFromAaveV2Morpho",
      "outputs": [],
      "stateMutability": "nonpayable",
      "type": "function"
    },
    {
      "inputs": [
        {
          "internalType": "uint256",
          "name": "",
          "type": "uint256"
        },
        {
          "internalType": "bytes",
          "name": "",
          "type": "bytes"
        },
        {
          "internalType": "bytes",
          "name": "",
          "type": "bytes"
        }
      ],
      "name": "deposit",
      "outputs": [],
      "stateMutability": "pure",
      "type": "function"
    },
    {
      "inputs": [],
      "name": "identifier",
      "outputs": [
        {
          "internalType": "bytes32",
          "name": "",
          "type": "bytes32"
        }
      ],
      "stateMutability": "pure",
      "type": "function"
    },
    {
      "inputs": [],
      "name": "isDebt",
      "outputs": [
        {
          "internalType": "bool",
          "name": "",
          "type": "bool"
        }
      ],
      "stateMutability": "pure",
      "type": "function"
    },
    {
      "inputs": [],
      "name": "minimumHealthFactor",
      "outputs": [
        {
          "internalType": "uint256",
          "name": "",
          "type": "uint256"
        }
      ],
      "stateMutability": "view",
      "type": "function"
    },
    {
      "inputs": [],
      "name": "morpho",
      "outputs": [
        {
          "internalType": "contract IMorphoV2",
          "name": "",
          "type": "address"
        }
      ],
      "stateMutability": "view",
      "type": "function"
    },
    {
      "inputs": [],
      "name": "morphoLens",
      "outputs": [
        {
          "internalType": "contract IMorphoLensV2",
          "name": "",
          "type": "address"
        }
      ],
      "stateMutability": "view",
      "type": "function"
    },
    {
      "inputs": [
        {
          "internalType": "contract IAaveToken",
          "name": "aToken",
          "type": "address"
        },
        {
          "internalType": "uint256",
          "name": "amountToRepay",
          "type": "uint256"
        }
      ],
      "name": "repayAaveV2MorphoDebt",
      "outputs": [],
      "stateMutability": "nonpayable",
      "type": "function"
    },
    {
      "inputs": [
        {
          "internalType": "contract ERC20",
          "name": "asset",
          "type": "address"
        },
        {
          "internalType": "address",
          "name": "spender",
          "type": "address"
        }
      ],
      "name": "revokeApproval",
      "outputs": [],
      "stateMutability": "nonpayable",
      "type": "function"
    },
    {
      "inputs": [],
      "name": "slippage",
      "outputs": [
        {
          "internalType": "uint32",
          "name": "",
          "type": "uint32"
        }
      ],
      "stateMutability": "pure",
      "type": "function"
    },
    {
      "inputs": [
        {
          "internalType": "uint256",
          "name": "",
          "type": "uint256"
        },
        {
          "internalType": "address",
          "name": "",
          "type": "address"
        },
        {
          "internalType": "bytes",
          "name": "",
          "type": "bytes"
        },
        {
          "internalType": "bytes",
          "name": "",
          "type": "bytes"
        }
      ],
      "name": "withdraw",
      "outputs": [],
      "stateMutability": "pure",
      "type": "function"
    },
    {
      "inputs": [
        {
          "internalType": "bytes",
          "name": "",
          "type": "bytes"
        },
        {
          "internalType": "bytes",
          "name": "",
          "type": "bytes"
        }
      ],
      "name": "withdrawableFrom",
      "outputs": [
        {
          "internalType": "uint256",
          "name": "",
          "type": "uint256"
        }
      ],
      "stateMutability": "pure",
      "type": "function"
    }
  ],
  "bytecode": {
    "object": "0x60e060405234801561001057600080fd5b5060405161122a38038061122a83398101604081905261002f9161009b565b61003881610053565b6001600160a01b03928316608052911660a05260c0526100d7565b670e92596fd629000081101561007c576040516397ed5f4160e01b815260040160405180910390fd5b50565b80516001600160a01b038116811461009657600080fd5b919050565b6000806000606084860312156100b057600080fd5b6100b98461007f565b92506100c76020850161007f565b9150604084015190509250925092565b60805160a05160c0516110e561014560003960008181610114015261069601526000818161015e015261061e015260008181610233015281816102f00152818161033b0152818161039d015281816105ab015281816109df01528181610a7b0152610b2801526110e56000f3fe608060405234801561001057600080fd5b50600436106100f55760003560e01c80637998a1c411610097578063d3bfe76a11610066578063d3bfe76a1461021b578063d8fbc8331461022e578063e170a9bf14610255578063fa50e5d21461026857600080fd5b80637998a1c4146101d157806389353a09146101d9578063aeffddde146101e8578063c9111bd71461020857600080fd5b8063425734d3116100d3578063425734d3146101595780634c97ba1b1461019857806369445c31146101ab57806378415365146101be57600080fd5b8063106a4f2f146100fa5780631caff8b11461010f5780633e032a3b14610149575b600080fd5b61010d610108366004610c03565b61027b565b005b6101367f000000000000000000000000000000000000000000000000000000000000000081565b6040519081526020015b60405180910390f35b6040516123288152602001610140565b6101807f000000000000000000000000000000000000000000000000000000000000000081565b6040516001600160a01b039091168152602001610140565b61010d6101a6366004610c03565b6103c6565b61010d6101b9366004610cd2565b6106dc565b6101366101cc366004610d3f565b6106f5565b61013661071f565b60405160018152602001610140565b6101fb6101f6366004610d3f565b61078c565b6040516101409190610d7c565b61010d610216366004610dc9565b6107ef565b61010d610229366004610e49565b610808565b6101807f000000000000000000000000000000000000000000000000000000000000000081565b610180610263366004610d3f565b610821565b610136610276366004610e82565b61089c565b6000826001600160a01b031663b16a19de6040518163ffffffff1660e01b8152600401602060405180830381865afa1580156102bb573d6000803e3d6000fd5b505050506040513d601f19601f820116820180604052508101906102df9190610ee6565b90506103156001600160a01b0382167f0000000000000000000000000000000000000000000000000000000000000000846108a5565b604051630450cfaf60e31b81526001600160a01b038481166004830152602482018490527f000000000000000000000000000000000000000000000000000000000000000016906322867d7890604401600060405180830381600087803b15801561037f57600080fd5b505af1158015610393573d6000803e3d6000fd5b505050506103c1817f0000000000000000000000000000000000000000000000000000000000000000610922565b505050565b60006103d061071f565b604080516001600160a01b03861660208201526001910160408051601f1981840301815290829052610406939291602001610f03565b6040516020818303038152906040528051906020012090506000306001600160a01b0316637b1039996040518163ffffffff1660e01b8152600401602060405180830381865afa15801561045e573d6000803e3d6000fd5b505050506040513d601f19601f820116820180604052508101906104829190610ee6565b6001600160a01b03166309f7abd2836040518263ffffffff1660e01b81526004016104af91815260200190565b602060405180830381865afa1580156104cc573d6000803e3d6000fd5b505050506040513d601f19601f820116820180604052508101906104f09190610f7b565b60405163024eefab60e61b815263ffffffff8216600482015290915030906393bbeac090602401602060405180830381865afa158015610534573d6000803e3d6000fd5b505050506040513d601f19601f820116820180604052508101906105589190610f96565b610585576040516317b06aa560e01b81526001600160a01b03851660048201526024015b60405180910390fd5b604051634b8a352960e01b81526001600160a01b038581166004830152602482018590527f00000000000000000000000000000000000000000000000000000000000000001690634b8a352990604401600060405180830381600087803b1580156105ef57600080fd5b505af1158015610603573d6000803e3d6000fd5b5050604051630e397f9360e31b8152306004820152600092507f00000000000000000000000000000000000000000000000000000000000000006001600160a01b031691506371cbfc9890602401602060405180830381865afa15801561066e573d6000803e3d6000fd5b505050506040513d601f19601f820116820180604052508101906106929190610fb8565b90507f00000000000000000000000000000000000000000000000000000000000000008110156106d557604051633681b6a760e21b815260040160405180910390fd5b5050505050565b604051633204ed5b60e21b815260040160405180910390fd5b6000808280602001905181019061070c9190610ee6565b905061071881336109b1565b9392505050565b60006040516020016107719060208082526026908201527f4d6f7270686f20416176652056322064656274546f6b656e2041646170746f72604082015265205620312e3160d01b606082015260800190565b60405160208183030381529060405280519060200120905090565b604080516001808252818301909252606091602080830190803683370190505090506107b782610821565b816000815181106107ca576107ca610fd1565b60200260200101906001600160a01b031690816001600160a01b031681525050919050565b604051635f5003c560e11b815260040160405180910390fd5b61081d6001600160a01b0383168260006108a5565b5050565b600080828060200190518101906108389190610ee6565b9050806001600160a01b031663b16a19de6040518163ffffffff1660e01b8152600401602060405180830381865afa158015610878573d6000803e3d6000fd5b505050506040513d601f19601f820116820180604052508101906107189190610ee6565b60005b92915050565b600060405163095ea7b360e01b8152836004820152826024820152602060006044836000895af13d15601f3d116001600051141617169150508061091c5760405162461bcd60e51b815260206004820152600e60248201526d1054141493d59157d1905253115160921b604482015260640161057c565b50505050565b604051636eb1769f60e11b81523060048201526001600160a01b0382811660248301526000919084169063dd62ed3e90604401602060405180830381865afa158015610972573d6000803e3d6000fd5b505050506040513d601f19601f820116820180604052508101906109969190610fb8565b111561081d5761081d6001600160a01b0383168260006108a5565b60405163251d5d2b60e21b81526001600160a01b0383811660048301528281166024830152600091829182917f00000000000000000000000000000000000000000000000000000000000000009091169063947574ac906044016040805180830381865afa158015610a27573d6000803e3d6000fd5b505050506040513d601f19601f82011682018060405250810190610a4b9190610fe7565b909250905060008215610aff57604051630175fa5f60e51b81526001600160a01b038781166004830152610afc917f000000000000000000000000000000000000000000000000000000000000000090911690632ebf4be090602401602060405180830381865afa158015610ac4573d6000803e3d6000fd5b505050506040513d601f19601f82011682018060405250810190610ae89190610fb8565b84906b033b2e3c9fd0803ce8000000610bcc565b90505b8115610bc357604051631987357f60e21b81526001600160a01b038781166004830152610bb6917f00000000000000000000000000000000000000000000000000000000000000009091169063661cd5fc90602401606060405180830381865afa158015610b71573d6000803e3d6000fd5b505050506040513d601f19601f82011682018060405250810190610b959190611022565b6040015183906001600160701b03166b033b2e3c9fd0803ce8000000610bcc565b610bc0908261108e565b90505b95945050505050565b828202811515841585830485141716610be457600080fd5b0492915050565b6001600160a01b0381168114610c0057600080fd5b50565b60008060408385031215610c1657600080fd5b8235610c2181610beb565b946020939093013593505050565b634e487b7160e01b600052604160045260246000fd5b600082601f830112610c5657600080fd5b813567ffffffffffffffff80821115610c7157610c71610c2f565b604051601f8301601f19908116603f01168101908282118183101715610c9957610c99610c2f565b81604052838152866020858801011115610cb257600080fd5b836020870160208301376000602085830101528094505050505092915050565b600080600060608486031215610ce757600080fd5b83359250602084013567ffffffffffffffff80821115610d0657600080fd5b610d1287838801610c45565b93506040860135915080821115610d2857600080fd5b50610d3586828701610c45565b9150509250925092565b600060208284031215610d5157600080fd5b813567ffffffffffffffff811115610d6857600080fd5b610d7484828501610c45565b949350505050565b6020808252825182820181905260009190848201906040850190845b81811015610dbd5783516001600160a01b031683529284019291840191600101610d98565b50909695505050505050565b60008060008060808587031215610ddf57600080fd5b843593506020850135610df181610beb565b9250604085013567ffffffffffffffff80821115610e0e57600080fd5b610e1a88838901610c45565b93506060870135915080821115610e3057600080fd5b50610e3d87828801610c45565b91505092959194509250565b60008060408385031215610e5c57600080fd5b8235610e6781610beb565b91506020830135610e7781610beb565b809150509250929050565b60008060408385031215610e9557600080fd5b823567ffffffffffffffff80821115610ead57600080fd5b610eb986838701610c45565b93506020850135915080821115610ecf57600080fd5b50610edc85828601610c45565b9150509250929050565b600060208284031215610ef857600080fd5b815161071881610beb565b838152600060208415158184015260606040840152835180606085015260005b81811015610f3f57858101830151858201608001528201610f23565b506000608082860101526080601f19601f83011685010192505050949350505050565b805163ffffffff81168114610f7657600080fd5b919050565b600060208284031215610f8d57600080fd5b61071882610f62565b600060208284031215610fa857600080fd5b8151801515811461071857600080fd5b600060208284031215610fca57600080fd5b5051919050565b634e487b7160e01b600052603260045260246000fd5b60008060408385031215610ffa57600080fd5b505080516020909101519092909150565b80516001600160701b0381168114610f7657600080fd5b60006060828403121561103457600080fd5b6040516060810181811067ffffffffffffffff8211171561105757611057610c2f565b60405261106383610f62565b81526110716020840161100b565b60208201526110826040840161100b565b60408201529392505050565b8082018082111561089f57634e487b7160e01b600052601160045260246000fdfea264697066735822122067bd328157b4d2231e88015c7f46a1a0fa3fcf7e61acf535ee80642f51d5499064736f6c63430008100033",
    "linkReferences": {}
  },
  "methodIdentifiers": {
    "assetOf(bytes)": "e170a9bf",
    "assetsUsed(bytes)": "aeffddde",
    "balanceOf(bytes)": "78415365",
    "borrowFromAaveV2Morpho(address,uint256)": "4c97ba1b",
    "deposit(uint256,bytes,bytes)": "69445c31",
    "identifier()": "7998a1c4",
    "isDebt()": "89353a09",
    "minimumHealthFactor()": "1caff8b1",
    "morpho()": "d8fbc833",
    "morphoLens()": "425734d3",
    "repayAaveV2MorphoDebt(address,uint256)": "106a4f2f",
    "revokeApproval(address,address)": "d3bfe76a",
    "slippage()": "3e032a3b",
    "withdraw(uint256,address,bytes,bytes)": "c9111bd7",
    "withdrawableFrom(bytes,bytes)": "fa50e5d2"
  },
  "id": 198
}