{
  "abi": [
    {
      "inputs": [],
      "name": "BaseAdaptor__ExternalReceiverBlocked",
      "type": "error"
    },
    {
      "inputs": [
        {
          "internalType": "address",
          "name": "asset",
          "type": "address"
        }
      ],
      "name": "BaseAdaptor__PricingNotSupported",
      "type": "error"
    },
    {
      "inputs": [],
      "name": "BaseAdaptor__Slippage",
      "type": "error"
    },
    {
      "inputs": [],
      "name": "BaseAdaptor__UserDepositsNotAllowed",
      "type": "error"
    },
    {
      "inputs": [],
      "name": "BaseAdaptor__UserWithdrawsNotAllowed",
      "type": "error"
    },
    {
      "inputs": [
        {
          "internalType": "bytes",
          "name": "",
          "type": "bytes"
        }
      ],
      "name": "assetOf",
      "outputs": [
        {
          "internalType": "contract ERC20",
          "name": "",
          "type": "address"
        }
      ],
      "stateMutability": "pure",
      "type": "function"
    },
    {
      "inputs": [
        {
          "internalType": "bytes",
          "name": "adaptorData",
          "type": "bytes"
        }
      ],
      "name": "assetsUsed",
      "outputs": [
        {
          "internalType": "contract ERC20[]",
          "name": "assets",
          "type": "address[]"
        }
      ],
      "stateMutability": "view",
      "type": "function"
    },
    {
      "inputs": [
        {
          "internalType": "bytes",
          "name": "",
          "type": "bytes"
        }
      ],
      "name": "balanceOf",
      "outputs": [
        {
          "internalType": "uint256",
          "name": "",
          "type": "uint256"
        }
      ],
      "stateMutability": "pure",
      "type": "function"
    },
    {
      "inputs": [
        {
          "internalType": "uint256",
          "name": "",
          "type": "uint256"
        },
        {
          "internalType": "bytes",
          "name": "",
          "type": "bytes"
        },
        {
          "internalType": "bytes",
          "name": "",
          "type": "bytes"
        }
      ],
      "name": "deposit",
      "outputs": [],
      "stateMutability": "pure",
      "type": "function"
    },
    {
      "inputs": [],
      "name": "identifier",
      "outputs": [
        {
          "internalType": "bytes32",
          "name": "",
          "type": "bytes32"
        }
      ],
      "stateMutability": "pure",
      "type": "function"
    },
    {
      "inputs": [],
      "name": "isDebt",
      "outputs": [
        {
          "internalType": "bool",
          "name": "",
          "type": "bool"
        }
      ],
      "stateMutability": "pure",
      "type": "function"
    },
    {
      "inputs": [
        {
          "internalType": "contract ERC20",
          "name": "asset",
          "type": "address"
        },
        {
          "internalType": "address",
          "name": "spender",
          "type": "address"
        }
      ],
      "name": "revokeApproval",
      "outputs": [],
      "stateMutability": "nonpayable",
      "type": "function"
    },
    {
      "inputs": [],
      "name": "slippage",
      "outputs": [
        {
          "internalType": "uint32",
          "name": "",
          "type": "uint32"
        }
      ],
      "stateMutability": "pure",
      "type": "function"
    },
    {
      "inputs": [
        {
          "internalType": "contract ERC20",
          "name": "tokenIn",
          "type": "address"
        },
        {
          "internalType": "contract ERC20",
          "name": "tokenOut",
          "type": "address"
        },
        {
          "internalType": "uint256",
          "name": "amount",
          "type": "uint256"
        },
        {
          "internalType": "bytes",
          "name": "swapCallData",
          "type": "bytes"
        }
      ],
      "name": "swapWith0x",
      "outputs": [],
      "stateMutability": "nonpayable",
      "type": "function"
    },
    {
      "inputs": [],
      "name": "target",
      "outputs": [
        {
          "internalType": "address",
          "name": "",
          "type": "address"
        }
      ],
      "stateMutability": "pure",
      "type": "function"
    },
    {
      "inputs": [
        {
          "internalType": "uint256",
          "name": "",
          "type": "uint256"
        },
        {
          "internalType": "address",
          "name": "",
          "type": "address"
        },
        {
          "internalType": "bytes",
          "name": "",
          "type": "bytes"
        },
        {
          "internalType": "bytes",
          "name": "",
          "type": "bytes"
        }
      ],
      "name": "withdraw",
      "outputs": [],
      "stateMutability": "pure",
      "type": "function"
    },
    {
      "inputs": [
        {
          "internalType": "bytes",
          "name": "",
          "type": "bytes"
        },
        {
          "internalType": "bytes",
          "name": "",
          "type": "bytes"
        }
      ],
      "name": "withdrawableFrom",
      "outputs": [
        {
          "internalType": "uint256",
          "name": "",
          "type": "uint256"
        }
      ],
      "stateMutability": "pure",
      "type": "function"
    }
  ],
  "bytecode": {
    "object": "0x608060405234801561001057600080fd5b50610e9c806100206000396000f3fe608060405234801561001057600080fd5b50600436106100b45760003560e01c8063aeffddde11610071578063aeffddde1461012f578063c9111bd71461014f578063d3bfe76a14610162578063d4b8399214610175578063e170a9bf146101a3578063fa50e5d2146101b157600080fd5b80633e032a3b146100b95780634b8b2ee5146100ce57806369445c31146100e357806378415365146100f65780637998a1c41461011857806389353a0914610120575b600080fd5b60405161232881526020015b60405180910390f35b6100e16100dc366004610af8565b6101c4565b005b6100e16100f1366004610b64565b61064b565b61010a610104366004610bd1565b50600090565b6040519081526020016100c5565b61010a610664565b604051600081526020016100c5565b61014261013d366004610bd1565b6106b5565b6040516100c59190610c06565b6100e161015d366004610c53565b610711565b6100e1610170366004610cc7565b61072a565b73def1c0ded9bec7f1a1670819833240f027b25eff5b6040516001600160a01b0390911681526020016100c5565b61018b610104366004610bd1565b61010a6101bf366004610d00565b610743565b6000306001600160a01b031663d7d4bf456040518163ffffffff1660e01b8152600401602060405180830381865afa158015610204573d6000803e3d6000fd5b505050506040513d601f19601f820116820180604052508101906102289190610d64565b90506102526001600160a01b03861673def1c0ded9bec7f1a1670819833240f027b25eff8561074c565b604051634f129c5360e01b81526001600160a01b038681166004830152821690634f129c5390602401602060405180830381865afa158015610298573d6000803e3d6000fd5b505050506040513d601f19601f820116820180604052508101906102bc9190610d81565b1561060657604051634f129c5360e01b81526001600160a01b038581166004830152821690634f129c5390602401602060405180830381865afa158015610307573d6000803e3d6000fd5b505050506040513d601f19601f8201168201806040525081019061032b9190610d81565b61035857604051637ab2384960e01b81526001600160a01b03851660048201526024015b60405180910390fd5b6040516370a0823160e01b81523060048201526000906001600160a01b038716906370a0823190602401602060405180830381865afa15801561039f573d6000803e3d6000fd5b505050506040513d601f19601f820116820180604052508101906103c39190610da3565b6040516370a0823160e01b81523060048201529091506000906001600160a01b038716906370a0823190602401602060405180830381865afa15801561040d573d6000803e3d6000fd5b505050506040513d601f19601f820116820180604052508101906104319190610da3565b905061045c8473def1c0ded9bec7f1a1670819833240f027b25eff5b6001600160a01b0316906107c9565b506040516370a0823160e01b81523060048201526000906001600160a01b038916906370a0823190602401602060405180830381865afa1580156104a4573d6000803e3d6000fd5b505050506040513d601f19601f820116820180604052508101906104c89190610da3565b6104d29084610dbc565b6040516370a0823160e01b815230600482015290915060009083906001600160a01b038a16906370a0823190602401602060405180830381865afa15801561051e573d6000803e3d6000fd5b505050506040513d601f19601f820116820180604052508101906105429190610da3565b61054c9190610dbc565b60405163151d4a5960e31b81526001600160a01b038a81166004830152602482018390528b8116604483015291925060009187169063a8ea52c890606401602060405180830381865afa1580156105a7573d6000803e3d6000fd5b505050506040513d601f19601f820116820180604052508101906105cb9190610da3565b90506105dc83612328612710610814565b8110156105fc57604051631ea0eb0160e21b815260040160405180910390fd5b5050505050610626565b6106248273def1c0ded9bec7f1a1670819833240f027b25eff61044d565b505b6106448573def1c0ded9bec7f1a1670819833240f027b25eff610833565b5050505050565b604051633204ed5b60e21b815260040160405180910390fd5b600060405160200161069a9060208082526010908201526f030782041646170746f72205620312e360841b604082015260600190565b60405160208183030381529060405280519060200120905090565b604080516001808252818301909252606091602080830190803683370190505090506000816000815181106106ec576106ec610ddd565b60200260200101906001600160a01b031690816001600160a01b031681525050919050565b604051635f5003c560e11b815260040160405180910390fd5b61073f6001600160a01b03831682600061074c565b5050565b60005b92915050565b600060405163095ea7b360e01b8152836004820152826024820152602060006044836000895af13d15601f3d11600160005114161716915050806107c35760405162461bcd60e51b815260206004820152600e60248201526d1054141493d59157d1905253115160921b604482015260640161034f565b50505050565b606061080d838360006040518060400160405280601e81526020017f416464726573733a206c6f772d6c6576656c2063616c6c206661696c656400008152506108c2565b9392505050565b82820281151584158583048514171661082c57600080fd5b0492915050565b604051636eb1769f60e11b81523060048201526001600160a01b0382811660248301526000919084169063dd62ed3e90604401602060405180830381865afa158015610883573d6000803e3d6000fd5b505050506040513d601f19601f820116820180604052508101906108a79190610da3565b111561073f5761073f6001600160a01b03831682600061074c565b6060824710156109235760405162461bcd60e51b815260206004820152602660248201527f416464726573733a20696e73756666696369656e742062616c616e636520666f6044820152651c8818d85b1b60d21b606482015260840161034f565b600080866001600160a01b0316858760405161093f9190610e17565b60006040518083038185875af1925050503d806000811461097c576040519150601f19603f3d011682016040523d82523d6000602084013e610981565b606091505b50915091506109928783838761099f565b925050505b949350505050565b60608315610a0e578251600003610a07576001600160a01b0385163b610a075760405162461bcd60e51b815260206004820152601d60248201527f416464726573733a2063616c6c20746f206e6f6e2d636f6e7472616374000000604482015260640161034f565b5081610997565b6109978383815115610a235781518083602001fd5b8060405162461bcd60e51b815260040161034f9190610e33565b6001600160a01b0381168114610a5257600080fd5b50565b634e487b7160e01b600052604160045260246000fd5b600082601f830112610a7c57600080fd5b813567ffffffffffffffff80821115610a9757610a97610a55565b604051601f8301601f19908116603f01168101908282118183101715610abf57610abf610a55565b81604052838152866020858801011115610ad857600080fd5b836020870160208301376000602085830101528094505050505092915050565b60008060008060808587031215610b0e57600080fd5b8435610b1981610a3d565b93506020850135610b2981610a3d565b925060408501359150606085013567ffffffffffffffff811115610b4c57600080fd5b610b5887828801610a6b565b91505092959194509250565b600080600060608486031215610b7957600080fd5b83359250602084013567ffffffffffffffff80821115610b9857600080fd5b610ba487838801610a6b565b93506040860135915080821115610bba57600080fd5b50610bc786828701610a6b565b9150509250925092565b600060208284031215610be357600080fd5b813567ffffffffffffffff811115610bfa57600080fd5b61099784828501610a6b565b6020808252825182820181905260009190848201906040850190845b81811015610c475783516001600160a01b031683529284019291840191600101610c22565b50909695505050505050565b60008060008060808587031215610c6957600080fd5b843593506020850135610c7b81610a3d565b9250604085013567ffffffffffffffff80821115610c9857600080fd5b610ca488838901610a6b565b93506060870135915080821115610cba57600080fd5b50610b5887828801610a6b565b60008060408385031215610cda57600080fd5b8235610ce581610a3d565b91506020830135610cf581610a3d565b809150509250929050565b60008060408385031215610d1357600080fd5b823567ffffffffffffffff80821115610d2b57600080fd5b610d3786838701610a6b565b93506020850135915080821115610d4d57600080fd5b50610d5a85828601610a6b565b9150509250929050565b600060208284031215610d7657600080fd5b815161080d81610a3d565b600060208284031215610d9357600080fd5b8151801515811461080d57600080fd5b600060208284031215610db557600080fd5b5051919050565b8181038181111561074657634e487b7160e01b600052601160045260246000fd5b634e487b7160e01b600052603260045260246000fd5b60005b83811015610e0e578181015183820152602001610df6565b50506000910152565b60008251610e29818460208701610df3565b9190910192915050565b6020815260008251806020840152610e52816040850160208701610df3565b601f01601f1916919091016040019291505056fea2646970667358221220f17646c3498eaf8271d8f3bf40bfc269da27f2513f6ec01d3b0f485f64f87ed964736f6c63430008100033",
    "linkReferences": {}
  },
  "methodIdentifiers": {
    "assetOf(bytes)": "e170a9bf",
    "assetsUsed(bytes)": "aeffddde",
    "balanceOf(bytes)": "78415365",
    "deposit(uint256,bytes,bytes)": "69445c31",
    "identifier()": "7998a1c4",
    "isDebt()": "89353a09",
    "revokeApproval(address,address)": "d3bfe76a",
    "slippage()": "3e032a3b",
    "swapWith0x(address,address,uint256,bytes)": "4b8b2ee5",
    "target()": "d4b83992",
    "withdraw(uint256,address,bytes,bytes)": "c9111bd7",
    "withdrawableFrom(bytes,bytes)": "fa50e5d2"
  },
  "id": 92
}