{
  "abi": [
    {
      "inputs": [],
      "name": "AaveATokenAdaptor__HealthFactorTooLow",
      "type": "error"
    },
    {
      "inputs": [],
      "name": "BaseAdaptor__ExternalReceiverBlocked",
      "type": "error"
    },
    {
      "inputs": [
        {
          "internalType": "address",
          "name": "asset",
          "type": "address"
        }
      ],
      "name": "BaseAdaptor__PricingNotSupported",
      "type": "error"
    },
    {
      "inputs": [],
      "name": "BaseAdaptor__Slippage",
      "type": "error"
    },
    {
      "inputs": [],
      "name": "BaseAdaptor__UserDepositsNotAllowed",
      "type": "error"
    },
    {
      "inputs": [],
      "name": "BaseAdaptor__UserWithdrawsNotAllowed",
      "type": "error"
    },
    {
      "inputs": [
        {
          "internalType": "bytes",
          "name": "adaptorData",
          "type": "bytes"
        }
      ],
      "name": "assetOf",
      "outputs": [
        {
          "internalType": "contract ERC20",
          "name": "",
          "type": "address"
        }
      ],
      "stateMutability": "view",
      "type": "function"
    },
    {
      "inputs": [
        {
          "internalType": "bytes",
          "name": "adaptorData",
          "type": "bytes"
        }
      ],
      "name": "assetsUsed",
      "outputs": [
        {
          "internalType": "contract ERC20[]",
          "name": "assets",
          "type": "address[]"
        }
      ],
      "stateMutability": "view",
      "type": "function"
    },
    {
      "inputs": [
        {
          "internalType": "bytes",
          "name": "adaptorData",
          "type": "bytes"
        }
      ],
      "name": "balanceOf",
      "outputs": [
        {
          "internalType": "uint256",
          "name": "",
          "type": "uint256"
        }
      ],
      "stateMutability": "view",
      "type": "function"
    },
    {
      "inputs": [
        {
          "internalType": "uint256",
          "name": "assets",
          "type": "uint256"
        },
        {
          "internalType": "bytes",
          "name": "adaptorData",
          "type": "bytes"
        },
        {
          "internalType": "bytes",
          "name": "",
          "type": "bytes"
        }
      ],
      "name": "deposit",
      "outputs": [],
      "stateMutability": "nonpayable",
      "type": "function"
    },
    {
      "inputs": [
        {
          "internalType": "contract ERC20",
          "name": "tokenToDeposit",
          "type": "address"
        },
        {
          "internalType": "uint256",
          "name": "amountToDeposit",
          "type": "uint256"
        }
      ],
      "name": "depositToAave",
      "outputs": [],
      "stateMutability": "nonpayable",
      "type": "function"
    },
    {
      "inputs": [],
      "name": "identifier",
      "outputs": [
        {
          "internalType": "bytes32",
          "name": "",
          "type": "bytes32"
        }
      ],
      "stateMutability": "pure",
      "type": "function"
    },
    {
      "inputs": [],
      "name": "isDebt",
      "outputs": [
        {
          "internalType": "bool",
          "name": "",
          "type": "bool"
        }
      ],
      "stateMutability": "pure",
      "type": "function"
    },
    {
      "inputs": [
        {
          "internalType": "contract ERC20",
          "name": "asset",
          "type": "address"
        },
        {
          "internalType": "address",
          "name": "spender",
          "type": "address"
        }
      ],
      "name": "revokeApproval",
      "outputs": [],
      "stateMutability": "nonpayable",
      "type": "function"
    },
    {
      "inputs": [],
      "name": "slippage",
      "outputs": [
        {
          "internalType": "uint32",
          "name": "",
          "type": "uint32"
        }
      ],
      "stateMutability": "pure",
      "type": "function"
    },
    {
      "inputs": [
        {
          "internalType": "uint256",
          "name": "assets",
          "type": "uint256"
        },
        {
          "internalType": "address",
          "name": "receiver",
          "type": "address"
        },
        {
          "internalType": "bytes",
          "name": "adaptorData",
          "type": "bytes"
        },
        {
          "internalType": "bytes",
          "name": "configData",
          "type": "bytes"
        }
      ],
      "name": "withdraw",
      "outputs": [],
      "stateMutability": "nonpayable",
      "type": "function"
    },
    {
      "inputs": [
        {
          "internalType": "contract ERC20",
          "name": "tokenToWithdraw",
          "type": "address"
        },
        {
          "internalType": "uint256",
          "name": "amountToWithdraw",
          "type": "uint256"
        }
      ],
      "name": "withdrawFromAave",
      "outputs": [],
      "stateMutability": "nonpayable",
      "type": "function"
    },
    {
      "inputs": [
        {
          "internalType": "bytes",
          "name": "adaptorData",
          "type": "bytes"
        },
        {
          "internalType": "bytes",
          "name": "configData",
          "type": "bytes"
        }
      ],
      "name": "withdrawableFrom",
      "outputs": [
        {
          "internalType": "uint256",
          "name": "",
          "type": "uint256"
        }
      ],
      "stateMutability": "view",
      "type": "function"
    }
  ],
  "bytecode": {
    "object": "0x608060405234801561001057600080fd5b50611572806100206000396000f3fe608060405234801561001057600080fd5b50600436106100b45760003560e01c8063aeffddde11610071578063aeffddde1461012e578063c9111bd71461014e578063d3bfe76a14610161578063e170a9bf14610174578063eeb149e71461019f578063fa50e5d2146101b257600080fd5b80633e032a3b146100b9578063487ede04146100ce57806369445c31146100e357806378415365146100f65780637998a1c41461011757806389353a091461011f575b600080fd5b60405161232881526020015b60405180910390f35b6100e16100dc366004611146565b6101c5565b005b6100e16100f1366004611215565b610312565b610109610104366004611282565b610469565b6040519081526020016100c5565b6101096104f2565b604051600081526020016100c5565b61014161013c366004611282565b610550565b6040516100c591906112bf565b6100e161015c36600461130c565b6105f1565b6100e161016f36600461138c565b610899565b610187610182366004611282565b6108b2565b6040516001600160a01b0390911681526020016100c5565b6100e16101ad366004611146565b61092d565b6101096101c03660046113c5565b610a06565b737d2768de32b0b80b7a3454c06bdac94a69ddc7a9604051631a4ca37b60e21b81526001600160a01b0384811660048301526024820184905230604483015291909116906369328dec906064016020604051808303816000875af1158015610231573d6000803e3d6000fd5b505050506040513d601f19601f820116820180604052508101906102559190611429565b506000737d2768de32b0b80b7a3454c06bdac94a69ddc7a9604051632fe4a15f60e21b81523060048201526001600160a01b03919091169063bf92857c9060240160c060405180830381865afa1580156102b3573d6000803e3d6000fd5b505050506040513d601f19601f820116820180604052508101906102d79190611442565b955050505050506102ed6710a741a46278000090565b81101561030d57604051633204bb7b60e21b815260040160405180910390fd5b505050565b600082806020019051810190610328919061148c565b90506000816001600160a01b031663b16a19de6040518163ffffffff1660e01b8152600401602060405180830381865afa15801561036a573d6000803e3d6000fd5b505050506040513d601f19601f8201168201806040525081019061038e919061148c565b90506103b86001600160a01b038216737d2768de32b0b80b7a3454c06bdac94a69ddc7a987610e71565b737d2768de32b0b80b7a3454c06bdac94a69ddc7a960405163e8eda9df60e01b81526001600160a01b0383811660048301526024820188905230604483015260006064830152919091169063e8eda9df90608401600060405180830381600087803b15801561042657600080fd5b505af115801561043a573d6000803e3d6000fd5b505050506104628161045d737d2768de32b0b80b7a3454c06bdac94a69ddc7a990565b610ef3565b5050505050565b60008082806020019051810190610480919061148c565b6040516370a0823160e01b81523360048201529091506001600160a01b038216906370a0823190602401602060405180830381865afa1580156104c7573d6000803e3d6000fd5b505050506040513d601f19601f820116820180604052508101906104eb9190611429565b9392505050565b60006040516020016105359060208082526019908201527f416176652061546f6b656e2041646170746f72205620312e3000000000000000604082015260600190565b60405160208183030381529060405280519060200120905090565b6040805160028082526060808301845292602083019080368337019050509050610579826108b2565b8160008151811061058c5761058c6114a9565b6001600160a01b039092166020928302919091019091015273c02aaa39b223fe8d0a0e5c4f27ead9083c756cc2816001815181106105cc576105cc6114a9565b60200260200101906001600160a01b031690816001600160a01b031681525050919050565b6105fa83610f82565b600082806020019051810190610610919061148c565b9050737d2768de32b0b80b7a3454c06bdac94a69ddc7a96001600160a01b03166369328dec826001600160a01b031663b16a19de6040518163ffffffff1660e01b8152600401602060405180830381865afa158015610673573d6000803e3d6000fd5b505050506040513d601f19601f82011682018060405250810190610697919061148c565b6040516001600160e01b031960e084901b1681526001600160a01b039091166004820152602481018890523060448201526064016020604051808303816000875af11580156106ea573d6000803e3d6000fd5b505050506040513d601f19601f8201168201806040525081019061070e9190611429565b50600080737d2768de32b0b80b7a3454c06bdac94a69ddc7a9604051632fe4a15f60e21b81523060048201526001600160a01b03919091169063bf92857c9060240160c060405180830381865afa15801561076d573d6000803e3d6000fd5b505050506040513d601f19601f820116820180604052508101906107919190611442565b95505050509250506000821115610819576000848060200190518101906107b89190611429565b9050806000036107db57604051635f5003c560e11b815260040160405180910390fd5b6710a741a4627800008110156107f657506710a741a4627800005b8082101561081757604051633204bb7b60e21b815260040160405180910390fd5b505b6108908688856001600160a01b031663b16a19de6040518163ffffffff1660e01b8152600401602060405180830381865afa15801561085c573d6000803e3d6000fd5b505050506040513d601f19601f82011682018060405250810190610880919061148c565b6001600160a01b03169190611019565b50505050505050565b6108ae6001600160a01b038316826000610e71565b5050565b600080828060200190518101906108c9919061148c565b9050806001600160a01b031663b16a19de6040518163ffffffff1660e01b8152600401602060405180830381865afa158015610909573d6000803e3d6000fd5b505050506040513d601f19601f820116820180604052508101906104eb919061148c565b6109378282611091565b90506109616001600160a01b038316737d2768de32b0b80b7a3454c06bdac94a69ddc7a983610e71565b737d2768de32b0b80b7a3454c06bdac94a69ddc7a960405163e8eda9df60e01b81526001600160a01b0384811660048301526024820184905230604483015260006064830152919091169063e8eda9df90608401600060405180830381600087803b1580156109cf57600080fd5b505af11580156109e3573d6000803e3d6000fd5b505050506108ae8261045d737d2768de32b0b80b7a3454c06bdac94a69ddc7a990565b60008083806020019051810190610a1d919061148c565b90506000808080737d2768de32b0b80b7a3454c06bdac94a69ddc7a9604051632fe4a15f60e21b81523360048201526001600160a01b03919091169063bf92857c9060240160c060405180830381865afa158015610a7f573d6000803e3d6000fd5b505050506040513d601f19601f82011682018060405250810190610aa39190611442565b9550509450509350935082600003610b29576040516370a0823160e01b81523360048201526001600160a01b038616906370a0823190602401602060405180830381865afa158015610af9573d6000803e3d6000fd5b505050506040513d601f19601f82011682018060405250810190610b1d9190611429565b95505050505050610e6b565b600087806020019051810190610b3f9190611429565b905080600003610b585760009650505050505050610e6b565b6710a741a462780000811015610b7357506710a741a4627800005b6000662386f26fc10000610b8781846114d5565b9250610b9381846114d5565b841015610bab57600098505050505050505050610e6b565b610bc786610bbf87655af3107a40006114e8565b859190611112565b610bd19088611507565b91506000886001600160a01b031663b16a19de6040518163ffffffff1660e01b8152600401602060405180830381865afa158015610c13573d6000803e3d6000fd5b505050506040513d601f19601f82011682018060405250810190610c37919061148c565b905073c02aaa39b223fe8d0a0e5c4f27ead9083c756cc1196001600160a01b03821601610c6f57829950505050505050505050610e6b565b6000336001600160a01b0316637b1039996040518163ffffffff1660e01b8152600401602060405180830381865afa158015610caf573d6000803e3d6000fd5b505050506040513d601f19601f82011682018060405250810190610cd3919061148c565b604051635c9fcd8560e11b8152600260048201526001600160a01b03919091169063b93f9b0a90602401602060405180830381865afa158015610d1a573d6000803e3d6000fd5b505050506040513d601f19601f82011682018060405250810190610d3e919061148c565b905060006001600160a01b03821663a8ea52c873c02aaa39b223fe8d0a0e5c4f27ead9083c756cc26040516001600160e01b031960e084901b1681526001600160a01b039182166004820152602481018990529086166044820152606401602060405180830381865afa158015610db9573d6000803e3d6000fd5b505050506040513d601f19601f82011682018060405250810190610ddd9190611429565b6040516370a0823160e01b81523360048201529091506000906001600160a01b038d16906370a0823190602401602060405180830381865afa158015610e27573d6000803e3d6000fd5b505050506040513d601f19601f82011682018060405250810190610e4b9190611429565b9050808211610e5a5781610e5c565b805b9c505050505050505050505050505b92915050565b600060405163095ea7b360e01b8152836004820152826024820152602060006044836000895af13d15601f3d1160016000511416171691505080610eed5760405162461bcd60e51b815260206004820152600e60248201526d1054141493d59157d1905253115160921b60448201526064015b60405180910390fd5b50505050565b604051636eb1769f60e11b81523060048201526001600160a01b0382811660248301526000919084169063dd62ed3e90604401602060405180830381865afa158015610f43573d6000803e3d6000fd5b505050506040513d601f19601f82011682018060405250810190610f679190611429565b11156108ae576108ae6001600160a01b038316826000610e71565b6001600160a01b0381163014801590610ff85750306001600160a01b0316634c4602da6040518163ffffffff1660e01b8152600401602060405180830381865afa158015610fd4573d6000803e3d6000fd5b505050506040513d601f19601f82011682018060405250810190610ff8919061151a565b15611016576040516307de9b5160e21b815260040160405180910390fd5b50565b600060405163a9059cbb60e01b8152836004820152826024820152602060006044836000895af13d15601f3d1160016000511416171691505080610eed5760405162461bcd60e51b815260206004820152600f60248201526e1514905394d1915497d19052531151608a1b6044820152606401610ee4565b6000600019820361110b576040516370a0823160e01b81523060048201526001600160a01b038416906370a0823190602401602060405180830381865afa1580156110e0573d6000803e3d6000fd5b505050506040513d601f19601f820116820180604052508101906111049190611429565b9050610e6b565b5080610e6b565b82820281151584158583048514171661112a57600080fd5b0492915050565b6001600160a01b038116811461101657600080fd5b6000806040838503121561115957600080fd5b823561116481611131565b946020939093013593505050565b634e487b7160e01b600052604160045260246000fd5b600082601f83011261119957600080fd5b813567ffffffffffffffff808211156111b4576111b4611172565b604051601f8301601f19908116603f011681019082821181831017156111dc576111dc611172565b816040528381528660208588010111156111f557600080fd5b836020870160208301376000602085830101528094505050505092915050565b60008060006060848603121561122a57600080fd5b83359250602084013567ffffffffffffffff8082111561124957600080fd5b61125587838801611188565b9350604086013591508082111561126b57600080fd5b5061127886828701611188565b9150509250925092565b60006020828403121561129457600080fd5b813567ffffffffffffffff8111156112ab57600080fd5b6112b784828501611188565b949350505050565b6020808252825182820181905260009190848201906040850190845b818110156113005783516001600160a01b0316835292840192918401916001016112db565b50909695505050505050565b6000806000806080858703121561132257600080fd5b84359350602085013561133481611131565b9250604085013567ffffffffffffffff8082111561135157600080fd5b61135d88838901611188565b9350606087013591508082111561137357600080fd5b5061138087828801611188565b91505092959194509250565b6000806040838503121561139f57600080fd5b82356113aa81611131565b915060208301356113ba81611131565b809150509250929050565b600080604083850312156113d857600080fd5b823567ffffffffffffffff808211156113f057600080fd5b6113fc86838701611188565b9350602085013591508082111561141257600080fd5b5061141f85828601611188565b9150509250929050565b60006020828403121561143b57600080fd5b5051919050565b60008060008060008060c0878903121561145b57600080fd5b865195506020870151945060408701519350606087015192506080870151915060a087015190509295509295509295565b60006020828403121561149e57600080fd5b81516104eb81611131565b634e487b7160e01b600052603260045260246000fd5b634e487b7160e01b600052601160045260246000fd5b80820180821115610e6b57610e6b6114bf565b6000816000190483118215151615611502576115026114bf565b500290565b81810381811115610e6b57610e6b6114bf565b60006020828403121561152c57600080fd5b815180151581146104eb57600080fdfea26469706673582212204fbde9c6705f4da12523bbe6c89e39f4e56750b562e1b441420261a3d87bf8d064736f6c63430008100033",
    "linkReferences": {}
  },
  "methodIdentifiers": {
    "assetOf(bytes)": "e170a9bf",
    "assetsUsed(bytes)": "aeffddde",
    "balanceOf(bytes)": "78415365",
    "deposit(uint256,bytes,bytes)": "69445c31",
    "depositToAave(address,uint256)": "eeb149e7",
    "identifier()": "7998a1c4",
    "isDebt()": "89353a09",
    "revokeApproval(address,address)": "d3bfe76a",
    "slippage()": "3e032a3b",
    "withdraw(uint256,address,bytes,bytes)": "c9111bd7",
    "withdrawFromAave(address,uint256)": "487ede04",
    "withdrawableFrom(bytes,bytes)": "fa50e5d2"
  },
  "id": 74
}