{
  "abi": [
    {
      "inputs": [
        {
          "internalType": "address",
          "name": "_owner",
          "type": "address"
        },
        {
          "internalType": "contract Registry",
          "name": "_registry",
          "type": "address"
        },
        {
          "internalType": "contract ERC20",
          "name": "_asset",
          "type": "address"
        },
        {
          "internalType": "string",
          "name": "_name",
          "type": "string"
        },
        {
          "internalType": "string",
          "name": "_symbol",
          "type": "string"
        },
        {
          "internalType": "uint32",
          "name": "_holdingPosition",
          "type": "uint32"
        },
        {
          "internalType": "bytes",
          "name": "_holdingPositionConfig",
          "type": "bytes"
        },
        {
          "internalType": "uint256",
          "name": "_initialDeposit",
          "type": "uint256"
        },
        {
          "internalType": "uint64",
          "name": "_strategistPlatformCut",
          "type": "uint64"
        },
        {
          "internalType": "uint192",
          "name": "_shareSupplyCap",
          "type": "uint192"
        }
      ],
      "stateMutability": "nonpayable",
      "type": "constructor"
    },
    {
      "inputs": [
        {
          "internalType": "address",
          "name": "asset",
          "type": "address"
        },
        {
          "internalType": "address",
          "name": "expectedAsset",
          "type": "address"
        }
      ],
      "name": "Cellar__AssetMismatch",
      "type": "error"
    },
    {
      "inputs": [
        {
          "internalType": "address",
          "name": "adaptor",
          "type": "address"
        }
      ],
      "name": "Cellar__CallToAdaptorNotAllowed",
      "type": "error"
    },
    {
      "inputs": [],
      "name": "Cellar__CallerNotApprovedToRebalance",
      "type": "error"
    },
    {
      "inputs": [],
      "name": "Cellar__ContractNotShutdown",
      "type": "error"
    },
    {
      "inputs": [],
      "name": "Cellar__ContractShutdown",
      "type": "error"
    },
    {
      "inputs": [
        {
          "internalType": "uint32",
          "name": "position",
          "type": "uint32"
        }
      ],
      "name": "Cellar__DebtMismatch",
      "type": "error"
    },
    {
      "inputs": [],
      "name": "Cellar__ExpectedAddressDoesNotMatchActual",
      "type": "error"
    },
    {
      "inputs": [],
      "name": "Cellar__FailedToForceOutPosition",
      "type": "error"
    },
    {
      "inputs": [
        {
          "internalType": "address",
          "name": "illiquidPosition",
          "type": "address"
        }
      ],
      "name": "Cellar__IlliquidWithdraw",
      "type": "error"
    },
    {
      "inputs": [
        {
          "internalType": "uint256",
          "name": "assetsOwed",
          "type": "uint256"
        }
      ],
      "name": "Cellar__IncompleteWithdraw",
      "type": "error"
    },
    {
      "inputs": [],
      "name": "Cellar__InvalidFee",
      "type": "error"
    },
    {
      "inputs": [],
      "name": "Cellar__InvalidFeeCut",
      "type": "error"
    },
    {
      "inputs": [
        {
          "internalType": "uint32",
          "name": "positionId",
          "type": "uint32"
        }
      ],
      "name": "Cellar__InvalidHoldingPosition",
      "type": "error"
    },
    {
      "inputs": [
        {
          "internalType": "uint256",
          "name": "requested",
          "type": "uint256"
        },
        {
          "internalType": "uint256",
          "name": "max",
          "type": "uint256"
        }
      ],
      "name": "Cellar__InvalidRebalanceDeviation",
      "type": "error"
    },
    {
      "inputs": [],
      "name": "Cellar__InvalidShareLockPeriod",
      "type": "error"
    },
    {
      "inputs": [],
      "name": "Cellar__InvalidShareSupplyCap",
      "type": "error"
    },
    {
      "inputs": [],
      "name": "Cellar__MinimumConstructorMintNotMet",
      "type": "error"
    },
    {
      "inputs": [
        {
          "internalType": "address",
          "name": "depositor",
          "type": "address"
        }
      ],
      "name": "Cellar__NotApprovedToDepositOnBehalf",
      "type": "error"
    },
    {
      "inputs": [],
      "name": "Cellar__Paused",
      "type": "error"
    },
    {
      "inputs": [
        {
          "internalType": "uint32",
          "name": "position",
          "type": "uint32"
        }
      ],
      "name": "Cellar__PositionAlreadyUsed",
      "type": "error"
    },
    {
      "inputs": [
        {
          "internalType": "uint256",
          "name": "maxPositions",
          "type": "uint256"
        }
      ],
      "name": "Cellar__PositionArrayFull",
      "type": "error"
    },
    {
      "inputs": [
        {
          "internalType": "uint32",
          "name": "position",
          "type": "uint32"
        },
        {
          "internalType": "uint256",
          "name": "sharesRemaining",
          "type": "uint256"
        }
      ],
      "name": "Cellar__PositionNotEmpty",
      "type": "error"
    },
    {
      "inputs": [
        {
          "internalType": "uint32",
          "name": "position",
          "type": "uint32"
        }
      ],
      "name": "Cellar__PositionNotInCatalogue",
      "type": "error"
    },
    {
      "inputs": [
        {
          "internalType": "uint32",
          "name": "position",
          "type": "uint32"
        }
      ],
      "name": "Cellar__PositionNotUsed",
      "type": "error"
    },
    {
      "inputs": [],
      "name": "Cellar__RemovingHoldingPosition",
      "type": "error"
    },
    {
      "inputs": [],
      "name": "Cellar__SettingValueToRegistryIdZeroIsProhibited",
      "type": "error"
    },
    {
      "inputs": [],
      "name": "Cellar__ShareSupplyCapExceeded",
      "type": "error"
    },
    {
      "inputs": [
        {
          "internalType": "uint256",
          "name": "timeSharesAreUnlocked",
          "type": "uint256"
        },
        {
          "internalType": "uint256",
          "name": "currentBlock",
          "type": "uint256"
        }
      ],
      "name": "Cellar__SharesAreLocked",
      "type": "error"
    },
    {
      "inputs": [
        {
          "internalType": "uint256",
          "name": "assets",
          "type": "uint256"
        },
        {
          "internalType": "uint256",
          "name": "min",
          "type": "uint256"
        },
        {
          "internalType": "uint256",
          "name": "max",
          "type": "uint256"
        }
      ],
      "name": "Cellar__TotalAssetDeviatedOutsideRange",
      "type": "error"
    },
    {
      "inputs": [
        {
          "internalType": "uint256",
          "name": "current",
          "type": "uint256"
        },
        {
          "internalType": "uint256",
          "name": "expected",
          "type": "uint256"
        }
      ],
      "name": "Cellar__TotalSharesMustRemainConstant",
      "type": "error"
    },
    {
      "inputs": [],
      "name": "Cellar__ZeroAssets",
      "type": "error"
    },
    {
      "inputs": [],
      "name": "Cellar__ZeroShares",
      "type": "error"
    },
    {
      "anonymous": false,
      "inputs": [
        {
          "indexed": false,
          "internalType": "address",
          "name": "adaptor",
          "type": "address"
        },
        {
          "indexed": false,
          "internalType": "bytes",
          "name": "data",
          "type": "bytes"
        }
      ],
      "name": "AdaptorCalled",
      "type": "event"
    },
    {
      "anonymous": false,
      "inputs": [
        {
          "indexed": false,
          "internalType": "address",
          "name": "adaptor",
          "type": "address"
        },
        {
          "indexed": false,
          "internalType": "bool",
          "name": "inCatalogue",
          "type": "bool"
        }
      ],
      "name": "AdaptorCatalogueAltered",
      "type": "event"
    },
    {
      "anonymous": false,
      "inputs": [
        {
          "indexed": true,
          "internalType": "address",
          "name": "owner",
          "type": "address"
        },
        {
          "indexed": true,
          "internalType": "address",
          "name": "spender",
          "type": "address"
        },
        {
          "indexed": false,
          "internalType": "uint256",
          "name": "amount",
          "type": "uint256"
        }
      ],
      "name": "Approval",
      "type": "event"
    },
    {
      "anonymous": false,
      "inputs": [
        {
          "indexed": false,
          "internalType": "address",
          "name": "newAutomationActions",
          "type": "address"
        }
      ],
      "name": "Cellar__AutomationActionsUpdated",
      "type": "event"
    },
    {
      "anonymous": false,
      "inputs": [
        {
          "indexed": true,
          "internalType": "address",
          "name": "caller",
          "type": "address"
        },
        {
          "indexed": true,
          "internalType": "address",
          "name": "owner",
          "type": "address"
        },
        {
          "indexed": false,
          "internalType": "uint256",
          "name": "assets",
          "type": "uint256"
        },
        {
          "indexed": false,
          "internalType": "uint256",
          "name": "shares",
          "type": "uint256"
        }
      ],
      "name": "Deposit",
      "type": "event"
    },
    {
      "anonymous": false,
      "inputs": [
        {
          "indexed": true,
          "internalType": "address",
          "name": "user",
          "type": "address"
        },
        {
          "indexed": true,
          "internalType": "address",
          "name": "newOwner",
          "type": "address"
        }
      ],
      "name": "OwnershipTransferred",
      "type": "event"
    },
    {
      "anonymous": false,
      "inputs": [
        {
          "indexed": false,
          "internalType": "uint32",
          "name": "position",
          "type": "uint32"
        },
        {
          "indexed": false,
          "internalType": "uint256",
          "name": "index",
          "type": "uint256"
        }
      ],
      "name": "PositionAdded",
      "type": "event"
    },
    {
      "anonymous": false,
      "inputs": [
        {
          "indexed": false,
          "internalType": "uint32",
          "name": "positionId",
          "type": "uint32"
        },
        {
          "indexed": false,
          "internalType": "bool",
          "name": "inCatalogue",
          "type": "bool"
        }
      ],
      "name": "PositionCatalogueAltered",
      "type": "event"
    },
    {
      "anonymous": false,
      "inputs": [
        {
          "indexed": false,
          "internalType": "uint32",
          "name": "position",
          "type": "uint32"
        },
        {
          "indexed": false,
          "internalType": "uint256",
          "name": "index",
          "type": "uint256"
        }
      ],
      "name": "PositionRemoved",
      "type": "event"
    },
    {
      "anonymous": false,
      "inputs": [
        {
          "indexed": false,
          "internalType": "uint32",
          "name": "newPosition1",
          "type": "uint32"
        },
        {
          "indexed": false,
          "internalType": "uint32",
          "name": "newPosition2",
          "type": "uint32"
        },
        {
          "indexed": false,
          "internalType": "uint256",
          "name": "index1",
          "type": "uint256"
        },
        {
          "indexed": false,
          "internalType": "uint256",
          "name": "index2",
          "type": "uint256"
        }
      ],
      "name": "PositionSwapped",
      "type": "event"
    },
    {
      "anonymous": false,
      "inputs": [
        {
          "indexed": false,
          "internalType": "uint256",
          "name": "oldDeviation",
          "type": "uint256"
        },
        {
          "indexed": false,
          "internalType": "uint256",
          "name": "newDeviation",
          "type": "uint256"
        }
      ],
      "name": "RebalanceDeviationChanged",
      "type": "event"
    },
    {
      "anonymous": false,
      "inputs": [
        {
          "indexed": false,
          "internalType": "uint256",
          "name": "oldPeriod",
          "type": "uint256"
        },
        {
          "indexed": false,
          "internalType": "uint256",
          "name": "newPeriod",
          "type": "uint256"
        }
      ],
      "name": "ShareLockingPeriodChanged",
      "type": "event"
    },
    {
      "anonymous": false,
      "inputs": [
        {
          "indexed": false,
          "internalType": "bool",
          "name": "isShutdown",
          "type": "bool"
        }
      ],
      "name": "ShutdownChanged",
      "type": "event"
    },
    {
      "anonymous": false,
      "inputs": [
        {
          "indexed": false,
          "internalType": "address",
          "name": "oldPayoutAddress",
          "type": "address"
        },
        {
          "indexed": false,
          "internalType": "address",
          "name": "newPayoutAddress",
          "type": "address"
        }
      ],
      "name": "StrategistPayoutAddressChanged",
      "type": "event"
    },
    {
      "anonymous": false,
      "inputs": [
        {
          "indexed": false,
          "internalType": "uint64",
          "name": "oldPlatformCut",
          "type": "uint64"
        },
        {
          "indexed": false,
          "internalType": "uint64",
          "name": "newPlatformCut",
          "type": "uint64"
        }
      ],
      "name": "StrategistPlatformCutChanged",
      "type": "event"
    },
    {
      "anonymous": false,
      "inputs": [
        {
          "indexed": true,
          "internalType": "address",
          "name": "from",
          "type": "address"
        },
        {
          "indexed": true,
          "internalType": "address",
          "name": "to",
          "type": "address"
        },
        {
          "indexed": false,
          "internalType": "uint256",
          "name": "amount",
          "type": "uint256"
        }
      ],
      "name": "Transfer",
      "type": "event"
    },
    {
      "anonymous": false,
      "inputs": [
        {
          "indexed": true,
          "internalType": "address",
          "name": "caller",
          "type": "address"
        },
        {
          "indexed": true,
          "internalType": "address",
          "name": "receiver",
          "type": "address"
        },
        {
          "indexed": true,
          "internalType": "address",
          "name": "owner",
          "type": "address"
        },
        {
          "indexed": false,
          "internalType": "uint256",
          "name": "assets",
          "type": "uint256"
        },
        {
          "indexed": false,
          "internalType": "uint256",
          "name": "shares",
          "type": "uint256"
        }
      ],
      "name": "Withdraw",
      "type": "event"
    },
    {
      "inputs": [],
      "name": "DOMAIN_SEPARATOR",
      "outputs": [
        {
          "internalType": "bytes32",
          "name": "",
          "type": "bytes32"
        }
      ],
      "stateMutability": "view",
      "type": "function"
    },
    {
      "inputs": [],
      "name": "GRAVITY_BRIDGE_REGISTRY_SLOT",
      "outputs": [
        {
          "internalType": "uint256",
          "name": "",
          "type": "uint256"
        }
      ],
      "stateMutability": "view",
      "type": "function"
    },
    {
      "inputs": [],
      "name": "MAXIMUM_SHARE_LOCK_PERIOD",
      "outputs": [
        {
          "internalType": "uint256",
          "name": "",
          "type": "uint256"
        }
      ],
      "stateMutability": "view",
      "type": "function"
    },
    {
      "inputs": [],
      "name": "MAX_FEE_CUT",
      "outputs": [
        {
          "internalType": "uint64",
          "name": "",
          "type": "uint64"
        }
      ],
      "stateMutability": "view",
      "type": "function"
    },
    {
      "inputs": [],
      "name": "MAX_PLATFORM_FEE",
      "outputs": [
        {
          "internalType": "uint64",
          "name": "",
          "type": "uint64"
        }
      ],
      "stateMutability": "view",
      "type": "function"
    },
    {
      "inputs": [],
      "name": "MAX_POSITIONS",
      "outputs": [
        {
          "internalType": "uint256",
          "name": "",
          "type": "uint256"
        }
      ],
      "stateMutability": "view",
      "type": "function"
    },
    {
      "inputs": [],
      "name": "MAX_REBALANCE_DEVIATION",
      "outputs": [
        {
          "internalType": "uint64",
          "name": "",
          "type": "uint64"
        }
      ],
      "stateMutability": "view",
      "type": "function"
    },
    {
      "inputs": [],
      "name": "MINIMUM_SHARE_LOCK_PERIOD",
      "outputs": [
        {
          "internalType": "uint256",
          "name": "",
          "type": "uint256"
        }
      ],
      "stateMutability": "view",
      "type": "function"
    },
    {
      "inputs": [],
      "name": "PRICE_ROUTER_REGISTRY_SLOT",
      "outputs": [
        {
          "internalType": "uint256",
          "name": "",
          "type": "uint256"
        }
      ],
      "stateMutability": "view",
      "type": "function"
    },
    {
      "inputs": [
        {
          "internalType": "address",
          "name": "",
          "type": "address"
        }
      ],
      "name": "adaptorCatalogue",
      "outputs": [
        {
          "internalType": "bool",
          "name": "",
          "type": "bool"
        }
      ],
      "stateMutability": "view",
      "type": "function"
    },
    {
      "inputs": [
        {
          "internalType": "address",
          "name": "adaptor",
          "type": "address"
        }
      ],
      "name": "addAdaptorToCatalogue",
      "outputs": [],
      "stateMutability": "nonpayable",
      "type": "function"
    },
    {
      "inputs": [
        {
          "internalType": "uint32",
          "name": "index",
          "type": "uint32"
        },
        {
          "internalType": "uint32",
          "name": "positionId",
          "type": "uint32"
        },
        {
          "internalType": "bytes",
          "name": "configurationData",
          "type": "bytes"
        },
        {
          "internalType": "bool",
          "name": "inDebtArray",
          "type": "bool"
        }
      ],
      "name": "addPosition",
      "outputs": [],
      "stateMutability": "nonpayable",
      "type": "function"
    },
    {
      "inputs": [
        {
          "internalType": "uint32",
          "name": "positionId",
          "type": "uint32"
        }
      ],
      "name": "addPositionToCatalogue",
      "outputs": [],
      "stateMutability": "nonpayable",
      "type": "function"
    },
    {
      "inputs": [
        {
          "internalType": "address",
          "name": "",
          "type": "address"
        },
        {
          "internalType": "address",
          "name": "",
          "type": "address"
        }
      ],
      "name": "allowance",
      "outputs": [
        {
          "internalType": "uint256",
          "name": "",
          "type": "uint256"
        }
      ],
      "stateMutability": "view",
      "type": "function"
    },
    {
      "inputs": [],
      "name": "allowedRebalanceDeviation",
      "outputs": [
        {
          "internalType": "uint256",
          "name": "",
          "type": "uint256"
        }
      ],
      "stateMutability": "view",
      "type": "function"
    },
    {
      "inputs": [
        {
          "internalType": "address",
          "name": "spender",
          "type": "address"
        },
        {
          "internalType": "uint256",
          "name": "amount",
          "type": "uint256"
        }
      ],
      "name": "approve",
      "outputs": [
        {
          "internalType": "bool",
          "name": "",
          "type": "bool"
        }
      ],
      "stateMutability": "nonpayable",
      "type": "function"
    },
    {
      "inputs": [],
      "name": "asset",
      "outputs": [
        {
          "internalType": "contract ERC20",
          "name": "",
          "type": "address"
        }
      ],
      "stateMutability": "view",
      "type": "function"
    },
    {
      "inputs": [],
      "name": "automationActions",
      "outputs": [
        {
          "internalType": "address",
          "name": "",
          "type": "address"
        }
      ],
      "stateMutability": "view",
      "type": "function"
    },
    {
      "inputs": [
        {
          "internalType": "address",
          "name": "",
          "type": "address"
        }
      ],
      "name": "balanceOf",
      "outputs": [
        {
          "internalType": "uint256",
          "name": "",
          "type": "uint256"
        }
      ],
      "stateMutability": "view",
      "type": "function"
    },
    {
      "inputs": [],
      "name": "blockExternalReceiver",
      "outputs": [
        {
          "internalType": "bool",
          "name": "",
          "type": "bool"
        }
      ],
      "stateMutability": "view",
      "type": "function"
    },
    {
      "inputs": [
        {
          "internalType": "bool",
          "name": "checkTotalAssets",
          "type": "bool"
        },
        {
          "internalType": "uint16",
          "name": "allowableRange",
          "type": "uint16"
        },
        {
          "internalType": "address",
          "name": "expectedPriceRouter",
          "type": "address"
        }
      ],
      "name": "cachePriceRouter",
      "outputs": [],
      "stateMutability": "nonpayable",
      "type": "function"
    },
    {
      "inputs": [
        {
          "components": [
            {
              "internalType": "address",
              "name": "adaptor",
              "type": "address"
            },
            {
              "internalType": "bytes[]",
              "name": "callData",
              "type": "bytes[]"
            }
          ],
          "internalType": "struct Cellar.AdaptorCall[]",
          "name": "data",
          "type": "tuple[]"
        }
      ],
      "name": "callOnAdaptor",
      "outputs": [],
      "stateMutability": "nonpayable",
      "type": "function"
    },
    {
      "inputs": [
        {
          "internalType": "uint256",
          "name": "shares",
          "type": "uint256"
        }
      ],
      "name": "convertToAssets",
      "outputs": [
        {
          "internalType": "uint256",
          "name": "assets",
          "type": "uint256"
        }
      ],
      "stateMutability": "view",
      "type": "function"
    },
    {
      "inputs": [
        {
          "internalType": "uint256",
          "name": "assets",
          "type": "uint256"
        }
      ],
      "name": "convertToShares",
      "outputs": [
        {
          "internalType": "uint256",
          "name": "shares",
          "type": "uint256"
        }
      ],
      "stateMutability": "view",
      "type": "function"
    },
    {
      "inputs": [
        {
          "internalType": "uint256",
          "name": "",
          "type": "uint256"
        }
      ],
      "name": "creditPositions",
      "outputs": [
        {
          "internalType": "uint32",
          "name": "",
          "type": "uint32"
        }
      ],
      "stateMutability": "view",
      "type": "function"
    },
    {
      "inputs": [
        {
          "internalType": "uint256",
          "name": "",
          "type": "uint256"
        }
      ],
      "name": "debtPositions",
      "outputs": [
        {
          "internalType": "uint32",
          "name": "",
          "type": "uint32"
        }
      ],
      "stateMutability": "view",
      "type": "function"
    },
    {
      "inputs": [],
      "name": "decimals",
      "outputs": [
        {
          "internalType": "uint8",
          "name": "",
          "type": "uint8"
        }
      ],
      "stateMutability": "view",
      "type": "function"
    },
    {
      "inputs": [
        {
          "internalType": "uint192",
          "name": "_newShareSupplyCap",
          "type": "uint192"
        }
      ],
      "name": "decreaseShareSupplyCap",
      "outputs": [],
      "stateMutability": "nonpayable",
      "type": "function"
    },
    {
      "inputs": [
        {
          "internalType": "uint256",
          "name": "assets",
          "type": "uint256"
        },
        {
          "internalType": "address",
          "name": "receiver",
          "type": "address"
        }
      ],
      "name": "deposit",
      "outputs": [
        {
          "internalType": "uint256",
          "name": "shares",
          "type": "uint256"
        }
      ],
      "stateMutability": "nonpayable",
      "type": "function"
    },
    {
      "inputs": [],
      "name": "feeData",
      "outputs": [
        {
          "internalType": "uint64",
          "name": "strategistPlatformCut",
          "type": "uint64"
        },
        {
          "internalType": "uint64",
          "name": "platformFee",
          "type": "uint64"
        },
        {
          "internalType": "uint64",
          "name": "lastAccrual",
          "type": "uint64"
        },
        {
          "internalType": "address",
          "name": "strategistPayoutAddress",
          "type": "address"
        }
      ],
      "stateMutability": "view",
      "type": "function"
    },
    {
      "inputs": [
        {
          "internalType": "uint32",
          "name": "index",
          "type": "uint32"
        },
        {
          "internalType": "uint32",
          "name": "positionId",
          "type": "uint32"
        },
        {
          "internalType": "bool",
          "name": "inDebtArray",
          "type": "bool"
        }
      ],
      "name": "forcePositionOut",
      "outputs": [],
      "stateMutability": "nonpayable",
      "type": "function"
    },
    {
      "inputs": [],
      "name": "getCreditPositions",
      "outputs": [
        {
          "internalType": "uint32[]",
          "name": "",
          "type": "uint32[]"
        }
      ],
      "stateMutability": "view",
      "type": "function"
    },
    {
      "inputs": [],
      "name": "getDebtPositions",
      "outputs": [
        {
          "internalType": "uint32[]",
          "name": "",
          "type": "uint32[]"
        }
      ],
      "stateMutability": "view",
      "type": "function"
    },
    {
      "inputs": [
        {
          "internalType": "uint32",
          "name": "",
          "type": "uint32"
        }
      ],
      "name": "getPositionData",
      "outputs": [
        {
          "internalType": "address",
          "name": "adaptor",
          "type": "address"
        },
        {
          "internalType": "bool",
          "name": "isDebt",
          "type": "bool"
        },
        {
          "internalType": "bytes",
          "name": "adaptorData",
          "type": "bytes"
        },
        {
          "internalType": "bytes",
          "name": "configurationData",
          "type": "bytes"
        }
      ],
      "stateMutability": "view",
      "type": "function"
    },
    {
      "inputs": [],
      "name": "holdingPosition",
      "outputs": [
        {
          "internalType": "uint32",
          "name": "",
          "type": "uint32"
        }
      ],
      "stateMutability": "view",
      "type": "function"
    },
    {
      "inputs": [],
      "name": "ignorePause",
      "outputs": [
        {
          "internalType": "bool",
          "name": "",
          "type": "bool"
        }
      ],
      "stateMutability": "view",
      "type": "function"
    },
    {
      "inputs": [
        {
          "internalType": "uint192",
          "name": "_newShareSupplyCap",
          "type": "uint192"
        }
      ],
      "name": "increaseShareSupplyCap",
      "outputs": [],
      "stateMutability": "nonpayable",
      "type": "function"
    },
    {
      "inputs": [],
      "name": "initiateShutdown",
      "outputs": [],
      "stateMutability": "nonpayable",
      "type": "function"
    },
    {
      "inputs": [],
      "name": "isPaused",
      "outputs": [
        {
          "internalType": "bool",
          "name": "",
          "type": "bool"
        }
      ],
      "stateMutability": "view",
      "type": "function"
    },
    {
      "inputs": [
        {
          "internalType": "uint256",
          "name": "",
          "type": "uint256"
        }
      ],
      "name": "isPositionUsed",
      "outputs": [
        {
          "internalType": "bool",
          "name": "",
          "type": "bool"
        }
      ],
      "stateMutability": "view",
      "type": "function"
    },
    {
      "inputs": [],
      "name": "isShutdown",
      "outputs": [
        {
          "internalType": "bool",
          "name": "",
          "type": "bool"
        }
      ],
      "stateMutability": "view",
      "type": "function"
    },
    {
      "inputs": [],
      "name": "liftShutdown",
      "outputs": [],
      "stateMutability": "nonpayable",
      "type": "function"
    },
    {
      "inputs": [],
      "name": "locked",
      "outputs": [
        {
          "internalType": "bool",
          "name": "",
          "type": "bool"
        }
      ],
      "stateMutability": "view",
      "type": "function"
    },
    {
      "inputs": [
        {
          "internalType": "address",
          "name": "",
          "type": "address"
        }
      ],
      "name": "maxDeposit",
      "outputs": [
        {
          "internalType": "uint256",
          "name": "",
          "type": "uint256"
        }
      ],
      "stateMutability": "view",
      "type": "function"
    },
    {
      "inputs": [
        {
          "internalType": "address",
          "name": "",
          "type": "address"
        }
      ],
      "name": "maxMint",
      "outputs": [
        {
          "internalType": "uint256",
          "name": "",
          "type": "uint256"
        }
      ],
      "stateMutability": "view",
      "type": "function"
    },
    {
      "inputs": [
        {
          "internalType": "address",
          "name": "owner",
          "type": "address"
        }
      ],
      "name": "maxRedeem",
      "outputs": [
        {
          "internalType": "uint256",
          "name": "",
          "type": "uint256"
        }
      ],
      "stateMutability": "view",
      "type": "function"
    },
    {
      "inputs": [
        {
          "internalType": "address",
          "name": "owner",
          "type": "address"
        }
      ],
      "name": "maxWithdraw",
      "outputs": [
        {
          "internalType": "uint256",
          "name": "",
          "type": "uint256"
        }
      ],
      "stateMutability": "view",
      "type": "function"
    },
    {
      "inputs": [
        {
          "internalType": "uint256",
          "name": "shares",
          "type": "uint256"
        },
        {
          "internalType": "address",
          "name": "receiver",
          "type": "address"
        }
      ],
      "name": "mint",
      "outputs": [
        {
          "internalType": "uint256",
          "name": "assets",
          "type": "uint256"
        }
      ],
      "stateMutability": "nonpayable",
      "type": "function"
    },
    {
      "inputs": [
        {
          "internalType": "bytes[]",
          "name": "data",
          "type": "bytes[]"
        }
      ],
      "name": "multicall",
      "outputs": [],
      "stateMutability": "nonpayable",
      "type": "function"
    },
    {
      "inputs": [],
      "name": "name",
      "outputs": [
        {
          "internalType": "string",
          "name": "",
          "type": "string"
        }
      ],
      "stateMutability": "view",
      "type": "function"
    },
    {
      "inputs": [
        {
          "internalType": "address",
          "name": "",
          "type": "address"
        }
      ],
      "name": "nonces",
      "outputs": [
        {
          "internalType": "uint256",
          "name": "",
          "type": "uint256"
        }
      ],
      "stateMutability": "view",
      "type": "function"
    },
    {
      "inputs": [
        {
          "internalType": "address",
          "name": "",
          "type": "address"
        },
        {
          "internalType": "address",
          "name": "",
          "type": "address"
        },
        {
          "internalType": "uint256",
          "name": "",
          "type": "uint256"
        },
        {
          "internalType": "bytes",
          "name": "",
          "type": "bytes"
        }
      ],
      "name": "onERC721Received",
      "outputs": [
        {
          "internalType": "bytes4",
          "name": "",
          "type": "bytes4"
        }
      ],
      "stateMutability": "nonpayable",
      "type": "function"
    },
    {
      "inputs": [],
      "name": "owner",
      "outputs": [
        {
          "internalType": "address",
          "name": "",
          "type": "address"
        }
      ],
      "stateMutability": "view",
      "type": "function"
    },
    {
      "inputs": [
        {
          "internalType": "address",
          "name": "owner",
          "type": "address"
        },
        {
          "internalType": "address",
          "name": "spender",
          "type": "address"
        },
        {
          "internalType": "uint256",
          "name": "value",
          "type": "uint256"
        },
        {
          "internalType": "uint256",
          "name": "deadline",
          "type": "uint256"
        },
        {
          "internalType": "uint8",
          "name": "v",
          "type": "uint8"
        },
        {
          "internalType": "bytes32",
          "name": "r",
          "type": "bytes32"
        },
        {
          "internalType": "bytes32",
          "name": "s",
          "type": "bytes32"
        }
      ],
      "name": "permit",
      "outputs": [],
      "stateMutability": "nonpayable",
      "type": "function"
    },
    {
      "inputs": [
        {
          "internalType": "uint32",
          "name": "",
          "type": "uint32"
        }
      ],
      "name": "positionCatalogue",
      "outputs": [
        {
          "internalType": "bool",
          "name": "",
          "type": "bool"
        }
      ],
      "stateMutability": "view",
      "type": "function"
    },
    {
      "inputs": [
        {
          "internalType": "uint256",
          "name": "assets",
          "type": "uint256"
        }
      ],
      "name": "previewDeposit",
      "outputs": [
        {
          "internalType": "uint256",
          "name": "shares",
          "type": "uint256"
        }
      ],
      "stateMutability": "view",
      "type": "function"
    },
    {
      "inputs": [
        {
          "internalType": "uint256",
          "name": "shares",
          "type": "uint256"
        }
      ],
      "name": "previewMint",
      "outputs": [
        {
          "internalType": "uint256",
          "name": "assets",
          "type": "uint256"
        }
      ],
      "stateMutability": "view",
      "type": "function"
    },
    {
      "inputs": [
        {
          "internalType": "uint256",
          "name": "shares",
          "type": "uint256"
        }
      ],
      "name": "previewRedeem",
      "outputs": [
        {
          "internalType": "uint256",
          "name": "assets",
          "type": "uint256"
        }
      ],
      "stateMutability": "view",
      "type": "function"
    },
    {
      "inputs": [
        {
          "internalType": "uint256",
          "name": "assets",
          "type": "uint256"
        }
      ],
      "name": "previewWithdraw",
      "outputs": [
        {
          "internalType": "uint256",
          "name": "shares",
          "type": "uint256"
        }
      ],
      "stateMutability": "view",
      "type": "function"
    },
    {
      "inputs": [],
      "name": "priceRouter",
      "outputs": [
        {
          "internalType": "contract PriceRouter",
          "name": "",
          "type": "address"
        }
      ],
      "stateMutability": "view",
      "type": "function"
    },
    {
      "inputs": [
        {
          "internalType": "uint256",
          "name": "shares",
          "type": "uint256"
        },
        {
          "internalType": "address",
          "name": "receiver",
          "type": "address"
        },
        {
          "internalType": "address",
          "name": "owner",
          "type": "address"
        }
      ],
      "name": "redeem",
      "outputs": [
        {
          "internalType": "uint256",
          "name": "assets",
          "type": "uint256"
        }
      ],
      "stateMutability": "nonpayable",
      "type": "function"
    },
    {
      "inputs": [],
      "name": "registry",
      "outputs": [
        {
          "internalType": "contract Registry",
          "name": "",
          "type": "address"
        }
      ],
      "stateMutability": "view",
      "type": "function"
    },
    {
      "inputs": [
        {
          "internalType": "address",
          "name": "adaptor",
          "type": "address"
        }
      ],
      "name": "removeAdaptorFromCatalogue",
      "outputs": [],
      "stateMutability": "nonpayable",
      "type": "function"
    },
    {
      "inputs": [
        {
          "internalType": "uint32",
          "name": "index",
          "type": "uint32"
        },
        {
          "internalType": "bool",
          "name": "inDebtArray",
          "type": "bool"
        }
      ],
      "name": "removePosition",
      "outputs": [],
      "stateMutability": "nonpayable",
      "type": "function"
    },
    {
      "inputs": [
        {
          "internalType": "uint32",
          "name": "positionId",
          "type": "uint32"
        }
      ],
      "name": "removePositionFromCatalogue",
      "outputs": [],
      "stateMutability": "nonpayable",
      "type": "function"
    },
    {
      "inputs": [
        {
          "internalType": "uint256",
          "name": "_registryId",
          "type": "uint256"
        },
        {
          "internalType": "address",
          "name": "_expectedAutomationActions",
          "type": "address"
        }
      ],
      "name": "setAutomationActions",
      "outputs": [],
      "stateMutability": "nonpayable",
      "type": "function"
    },
    {
      "inputs": [
        {
          "internalType": "uint32",
          "name": "positionId",
          "type": "uint32"
        }
      ],
      "name": "setHoldingPosition",
      "outputs": [],
      "stateMutability": "nonpayable",
      "type": "function"
    },
    {
      "inputs": [
        {
          "internalType": "uint256",
          "name": "newDeviation",
          "type": "uint256"
        }
      ],
      "name": "setRebalanceDeviation",
      "outputs": [],
      "stateMutability": "nonpayable",
      "type": "function"
    },
    {
      "inputs": [
        {
          "internalType": "uint256",
          "name": "newLock",
          "type": "uint256"
        }
      ],
      "name": "setShareLockPeriod",
      "outputs": [],
      "stateMutability": "nonpayable",
      "type": "function"
    },
    {
      "inputs": [
        {
          "internalType": "address",
          "name": "payout",
          "type": "address"
        }
      ],
      "name": "setStrategistPayoutAddress",
      "outputs": [],
      "stateMutability": "nonpayable",
      "type": "function"
    },
    {
      "inputs": [
        {
          "internalType": "uint64",
          "name": "cut",
          "type": "uint64"
        }
      ],
      "name": "setStrategistPlatformCut",
      "outputs": [],
      "stateMutability": "nonpayable",
      "type": "function"
    },
    {
      "inputs": [],
      "name": "shareLockPeriod",
      "outputs": [
        {
          "internalType": "uint256",
          "name": "",
          "type": "uint256"
        }
      ],
      "stateMutability": "view",
      "type": "function"
    },
    {
      "inputs": [],
      "name": "shareSupplyCap",
      "outputs": [
        {
          "internalType": "uint192",
          "name": "",
          "type": "uint192"
        }
      ],
      "stateMutability": "view",
      "type": "function"
    },
    {
      "inputs": [
        {
          "internalType": "uint32",
          "name": "index1",
          "type": "uint32"
        },
        {
          "internalType": "uint32",
          "name": "index2",
          "type": "uint32"
        },
        {
          "internalType": "bool",
          "name": "inDebtArray",
          "type": "bool"
        }
      ],
      "name": "swapPositions",
      "outputs": [],
      "stateMutability": "nonpayable",
      "type": "function"
    },
    {
      "inputs": [],
      "name": "symbol",
      "outputs": [
        {
          "internalType": "string",
          "name": "",
          "type": "string"
        }
      ],
      "stateMutability": "view",
      "type": "function"
    },
    {
      "inputs": [],
      "name": "toggleIgnorePause",
      "outputs": [],
      "stateMutability": "nonpayable",
      "type": "function"
    },
    {
      "inputs": [],
      "name": "totalAssets",
      "outputs": [
        {
          "internalType": "uint256",
          "name": "assets",
          "type": "uint256"
        }
      ],
      "stateMutability": "view",
      "type": "function"
    },
    {
      "inputs": [],
      "name": "totalAssetsWithdrawable",
      "outputs": [
        {
          "internalType": "uint256",
          "name": "assets",
          "type": "uint256"
        }
      ],
      "stateMutability": "view",
      "type": "function"
    },
    {
      "inputs": [],
      "name": "totalSupply",
      "outputs": [
        {
          "internalType": "uint256",
          "name": "",
          "type": "uint256"
        }
      ],
      "stateMutability": "view",
      "type": "function"
    },
    {
      "inputs": [
        {
          "internalType": "address",
          "name": "to",
          "type": "address"
        },
        {
          "internalType": "uint256",
          "name": "amount",
          "type": "uint256"
        }
      ],
      "name": "transfer",
      "outputs": [
        {
          "internalType": "bool",
          "name": "",
          "type": "bool"
        }
      ],
      "stateMutability": "nonpayable",
      "type": "function"
    },
    {
      "inputs": [
        {
          "internalType": "address",
          "name": "from",
          "type": "address"
        },
        {
          "internalType": "address",
          "name": "to",
          "type": "address"
        },
        {
          "internalType": "uint256",
          "name": "amount",
          "type": "uint256"
        }
      ],
      "name": "transferFrom",
      "outputs": [
        {
          "internalType": "bool",
          "name": "",
          "type": "bool"
        }
      ],
      "stateMutability": "nonpayable",
      "type": "function"
    },
    {
      "inputs": [
        {
          "internalType": "address",
          "name": "newOwner",
          "type": "address"
        }
      ],
      "name": "transferOwnership",
      "outputs": [],
      "stateMutability": "nonpayable",
      "type": "function"
    },
    {
      "inputs": [
        {
          "internalType": "address",
          "name": "",
          "type": "address"
        }
      ],
      "name": "userShareLockStartTime",
      "outputs": [
        {
          "internalType": "uint256",
          "name": "",
          "type": "uint256"
        }
      ],
      "stateMutability": "view",
      "type": "function"
    },
    {
      "inputs": [],
      "name": "viewPositionBalances",
      "outputs": [
        {
          "internalType": "contract ERC20[]",
          "name": "assets",
          "type": "address[]"
        },
        {
          "internalType": "uint256[]",
          "name": "balances",
          "type": "uint256[]"
        },
        {
          "internalType": "bool[]",
          "name": "isDebt",
          "type": "bool[]"
        }
      ],
      "stateMutability": "view",
      "type": "function"
    },
    {
      "inputs": [
        {
          "internalType": "uint256",
          "name": "assets",
          "type": "uint256"
        },
        {
          "internalType": "address",
          "name": "receiver",
          "type": "address"
        },
        {
          "internalType": "address",
          "name": "owner",
          "type": "address"
        }
      ],
      "name": "withdraw",
      "outputs": [
        {
          "internalType": "uint256",
          "name": "shares",
          "type": "uint256"
        }
      ],
      "stateMutability": "nonpayable",
      "type": "function"
    }
  ],
  "bytecode": {
    "object": "0x6101a0604052670a688906bd8b000061012052662386f26fc1000061014052600061016081905261018052600f80546001600160c01b0319166e2386f26fc100000a688906bd8b0000179055601080546001600160a01b0319169055660110d9316ec0006012556202a3006013553480156200007a57600080fd5b50604051620072d0380380620072d08339810160408190526200009d916200105d565b89898989898989898989338888888181846001600160a01b031663313ce5676040518163ffffffff1660e01b8152600401602060405180830381865afa158015620000ec573d6000803e3d6000fd5b505050506040513d601f19601f820116820180604052508101906200011291906200116b565b60006200012084826200121f565b5060016200012f83826200121f565b5060ff81166080524660a05262000145620002f0565b60c052505050506001600160a01b0391821660e05250600680546001600160a01b031916918316918217905560405160009060008051602062007289833981519152908290a3506001600160a01b038916610100819052604051635c9fcd8560e11b81526002600482015263b93f9b0a90602401602060405180830381865afa158015620001d7573d6000803e3d6000fd5b505050506040513d601f19601f82011682018060405250810190620001fd9190620012eb565b600880546001600160a01b0319166001600160a01b039290921691909117905562000228856200038c565b6200023760008686826200049d565b6200024285620007ac565b600780546001600160c01b0319166001600160c01b0383161790556127108310156200028157604051632d0d251960e11b815260040160405180910390fd5b620002986001600160a01b0389168b308662000906565b620002a433846200099b565b620002b0858462000a08565b600f80546001600160401b0319166001600160401b038416179055620002d68a62000a9f565b505050505050505050505050505050505050505062001586565b60007f8b73c3c69bb8fe3d512ecc4cf759cc79239f7b179b0ffacaa9a75d522b39400f60006040516200032491906200130b565b6040805191829003822060208301939093528101919091527fc89efdaa54c0f20c7adf612882df0950f5a951637e0307cdcb4c672f298b8bc660608201524660808201523060a082015260c00160405160208183030381529060405280519060200120905090565b6006546001600160a01b03163314620003db5760405162461bcd60e51b815260206004820152600c60248201526b15539055551213d49256915160a21b60448201526064015b60405180910390fd5b61010051604051635159d87f60e11b815263ffffffff831660048201526001600160a01b039091169063a2b3b0fe9060240160006040518083038186803b1580156200042657600080fd5b505afa1580156200043b573d6000803e3d6000fd5b5050505063ffffffff81166000818152600d6020908152604091829020805460ff191660019081179091558251938452908301527fea052d1fb1ecba6aaf6bd32e92f20e7b6a094eaa478248322cc8ff024a90978f910160405180910390a150565b6006546001600160a01b03163314620004e85760405162461bcd60e51b815260206004820152600c60248201526b15539055551213d49256915160a21b6044820152606401620003d2565b620004f262000b25565b63ffffffff83166000908152600b602052604090205460ff1615620005335760405163335894fb60e11b815263ffffffff84166004820152602401620003d2565b63ffffffff83166000908152600d602052604090205460ff166200057357604051631f9db01d60e31b815263ffffffff84166004820152602401620003d2565b610100516040516385ae5d5760e01b815263ffffffff85166004820152600091829182916001600160a01b0316906385ae5d5790602401600060405180830381865afa158015620005c8573d6000803e3d6000fd5b505050506040513d6000823e601f3d908101601f19168201604052620005f2919081019062001389565b925092509250831515821515146200062657604051632b1d0bd360e11b815263ffffffff87166004820152602401620003d2565b604080516080810182526001600160a01b0380861682528415156020808401918252838501868152606085018b905263ffffffff8c166000908152600c9092529490208351815492511515600160a01b026001600160a81b031990931693169290921717815591519091906001820190620006a290826200121f565b5060608201516002820190620006b990826200121f565b5090505081156200070057600a54602011620006ec5760405163f025236d60e01b815260206004820152602401620003d2565b620006fa600a888862000b53565b62000736565b600954602011620007285760405163f025236d60e01b815260206004820152602401620003d2565b620007366009888862000b53565b63ffffffff86166000908152600b602052604090819020805460ff19166001179055517fc4f8cb57c016f0b294fff2666f86fa6cfee9b03aed19f816ae4bf44b7e837bbb906200079b9088908a9063ffffffff92831681529116602082015260400190565b60405180910390a150505050505050565b6006546001600160a01b03163314620007f75760405162461bcd60e51b815260206004820152600c60248201526b15539055551213d49256915160a21b6044820152606401620003d2565b63ffffffff81166000908152600b602052604090205460ff1662000837576040516370abe85960e01b815263ffffffff82166004820152602401620003d2565b60e0516001600160a01b03166200084e8262000d30565b6001600160a01b031614620008985760e0516200086b8262000d30565b60405163298473c760e11b81526001600160a01b03928316600482015291166024820152604401620003d2565b63ffffffff81166000908152600c6020526040902054600160a01b900460ff1615620008e057604051630a42c0f960e41b815263ffffffff82166004820152602401620003d2565b6006805463ffffffff909216600160c01b0263ffffffff60c01b19909216919091179055565b60006040516323b872dd60e01b81528460048201528360248201528260448201526020600060648360008a5af13d15601f3d1160016000511416171691505080620009945760405162461bcd60e51b815260206004820152601460248201527f5452414e534645525f46524f4d5f4641494c45440000000000000000000000006044820152606401620003d2565b5050505050565b8060026000828254620009af91906200140e565b90915550506001600160a01b0382166000818152600360209081526040808320805486019055518481527fddf252ad1be2c89b69c2b068fc378daa952ba7f163c4a11628f55a4df523b3ef910160405180910390a35050565b63ffffffff82166000908152600c602052604090819020805491516001600160a01b039092169162000a99916369445c3160e01b9162000a56918691600182019160020190602401620014a9565b60408051808303601f190181529190526020810180516001600160e01b0319939093166001600160e01b039384161790526001600160a01b0384169162000dc516565b50505050565b6006546001600160a01b0316331462000aea5760405162461bcd60e51b815260206004820152600c60248201526b15539055551213d49256915160a21b6044820152606401620003d2565b600680546001600160a01b0319166001600160a01b03831690811790915560405133906000805160206200728983398151915290600090a350565b600654600160a81b900460ff161562000b51576040516337a5332d60e11b815260040160405180910390fd5b565b8254801562000cef57838062000b6b600184620014d8565b8154811062000b7e5762000b7e620014ee565b60009182526020808320600880840490910154855460018082018855968652928520918304909101805463ffffffff60046007958616810261010090810a83810219909416969097160290950a909204909316021790559062000be29083620014d8565b90505b8363ffffffff1681111562000c99578462000c02600183620014d8565b8154811062000c155762000c15620014ee565b90600052602060002090600891828204019190066004029054906101000a900463ffffffff1685828154811062000c505762000c50620014ee565b90600052602060002090600891828204019190066004026101000a81548163ffffffff021916908363ffffffff160217905550808062000c909062001504565b91505062000be5565b5081848463ffffffff168154811062000cb65762000cb6620014ee565b90600052602060002090600891828204019190066004026101000a81548163ffffffff021916908363ffffffff16021790555062000a99565b508254600181018455600093845260209093206008840401805460079094166004026101000a63ffffffff8181021990951692909416939093021790915550565b63ffffffff81166000908152600c60205260408082208054915163e170a9bf60e01b81526001600160a01b0390921691829163e170a9bf9162000d7a91600101906004016200151e565b602060405180830381865afa15801562000d98573d6000803e3d6000fd5b505050506040513d601f19601f8201168201806040525081019062000dbe9190620012eb565b9392505050565b606062000ded8383604051806060016040528060278152602001620072a96027913962000df6565b90505b92915050565b6060600080856001600160a01b03168560405162000e15919062001533565b600060405180830381855af49150503d806000811462000e52576040519150601f19603f3d011682016040523d82523d6000602084013e62000e57565b606091505b50909250905062000e6b8683838762000e75565b9695505050505050565b6060831562000ee957825160000362000ee1576001600160a01b0385163b62000ee15760405162461bcd60e51b815260206004820152601d60248201527f416464726573733a2063616c6c20746f206e6f6e2d636f6e74726163740000006044820152606401620003d2565b508162000ef5565b62000ef5838362000efd565b949350505050565b81511562000f0e5781518083602001fd5b8060405162461bcd60e51b8152600401620003d2919062001551565b6001600160a01b038116811462000f4057600080fd5b50565b805162000f508162000f2a565b919050565b634e487b7160e01b600052604160045260246000fd5b60005b8381101562000f8857818101518382015260200162000f6e565b50506000910152565b600082601f83011262000fa357600080fd5b81516001600160401b038082111562000fc05762000fc062000f55565b604051601f8301601f19908116603f0116810190828211818310171562000feb5762000feb62000f55565b816040528381528660208588010111156200100557600080fd5b62000e6b84602083016020890162000f6b565b805163ffffffff8116811462000f5057600080fd5b80516001600160401b038116811462000f5057600080fd5b80516001600160c01b038116811462000f5057600080fd5b6000806000806000806000806000806101408b8d0312156200107e57600080fd5b620010898b62000f43565b99506200109960208c0162000f43565b9850620010a960408c0162000f43565b60608c01519098506001600160401b0380821115620010c757600080fd5b620010d58e838f0162000f91565b985060808d0151915080821115620010ec57600080fd5b620010fa8e838f0162000f91565b97506200110a60a08e0162001018565b965060c08d01519150808211156200112157600080fd5b50620011308d828e0162000f91565b94505060e08b01519250620011496101008c016200102d565b91506200115a6101208c0162001045565b90509295989b9194979a5092959850565b6000602082840312156200117e57600080fd5b815160ff8116811462000dbe57600080fd5b600181811c90821680620011a557607f821691505b602082108103620011c657634e487b7160e01b600052602260045260246000fd5b50919050565b601f8211156200121a57600081815260208120601f850160051c81016020861015620011f55750805b601f850160051c820191505b81811015620012165782815560010162001201565b5050505b505050565b81516001600160401b038111156200123b576200123b62000f55565b62001253816200124c845462001190565b84620011cc565b602080601f8311600181146200128b5760008415620012725750858301515b600019600386901b1c1916600185901b17855562001216565b600085815260208120601f198616915b82811015620012bc578886015182559484019460019091019084016200129b565b5085821015620012db5787850151600019600388901b60f8161c191681555b5050505050600190811b01905550565b600060208284031215620012fe57600080fd5b815162000dbe8162000f2a565b60008083546200131b8162001190565b600182811680156200133657600181146200134c576200137d565b60ff19841687528215158302870194506200137d565b8760005260208060002060005b85811015620013745781548a82015290840190820162001359565b50505082870194505b50929695505050505050565b6000806000606084860312156200139f57600080fd5b8351620013ac8162000f2a565b60208501519093508015158114620013c357600080fd5b60408501519092506001600160401b03811115620013e057600080fd5b620013ee8682870162000f91565b9150509250925092565b634e487b7160e01b600052601160045260246000fd5b8082018082111562000df05762000df0620013f8565b60008154620014338162001190565b8085526020600183811680156200145357600181146200146e576200149e565b60ff1985168884015283151560051b8801830195506200149e565b866000528260002060005b85811015620014965781548a820186015290830190840162001479565b890184019650505b505050505092915050565b838152606060208201526000620014c4606083018562001424565b828103604084015262000e6b818562001424565b8181038181111562000df05762000df0620013f8565b634e487b7160e01b600052603260045260246000fd5b600081620015165762001516620013f8565b506000190190565b60208152600062000ded602083018462001424565b600082516200154781846020870162000f6b565b9190910192915050565b60208152600082518060208401526200157281604085016020870162000f6b565b601f01601f19169190910160400192915050565b60805160a05160c05160e05161010051615c5562001634600039600081816108360152818161140a015281816117d601528181612213015281816125ab015281816128a1015281816130ea01528181614051015261439001526000818161064601528181610d4c01528181610d8d01528181613309015281816135ca01528181613c4c0152614656015260006110c7015260006110970152600081816105df01526146d40152615c556000f3fe608060405234801561001057600080fd5b50600436106104b65760003560e01c80638da5cb5b11610278578063bf86d6901161015c578063d446bbcc116100ce578063e1b1acb711610092578063e1b1acb714610b56578063e753e60014610b69578063eef33eca14610bde578063ef8b30f714610a3c578063f2fde38b14610bed578063f7b24e0814610c0057600080fd5b8063d446bbcc14610ac7578063d505accf14610af2578063d7d4bf4514610b05578063d905777e14610b18578063dd62ed3e14610b2b57600080fd5b8063c8e8195011610120578063c8e8195014610a4f578063cbdf33d014610a62578063cd82f8b114610a85578063ce96cb7714610a8d578063cf30901214610aa0578063d1e8840414610ab457600080fd5b8063bf86d690146109f9578063c244245a14610a0d578063c588d8d614610a16578063c63d75b614610a29578063c6e6f59214610a3c57600080fd5b8063a373e3ff116101f5578063b0a75d36116101b9578063b0a75d3614610992578063b187bd26146109a5578063b3d7f6b9146109ad578063b460af94146109c0578063b5292a99146109d3578063ba087652146109e657600080fd5b8063a373e3ff14610949578063a8144e4814610951578063a9059cbb14610959578063ac9650d81461096c578063b0646e271461097f57600080fd5b80639959af941161023c5780639959af94146108ef5780639c552ca8146109035780639c5f00c2146109165780639fdb11b61461092d578063a07bee0b1461093657600080fd5b80638da5cb5b1461088b57806393bbeac01461089e57806394bf804d146108c157806395d89b41146108d45780639955a9d4146108dc57600080fd5b8063402d267d1161039f5780635f6b88a01161031c57806371e99dc2116102e057806371e99dc2146107ef5780637384504f146107f757806378e0233e1461081a5780637b103999146108315780637ecebe001461085857806388c4caba1461087857600080fd5b80635f6b88a01461077a578063687c2b501461078d5780636e553f65146107ad5780636ff1c02a146107c057806370a08231146107cf57600080fd5b8063530a371411610363578063530a37141461071c578063575bbce61461072f57806359d20b4e146107425780635a400d251461076a5780635e2c576e1461077257600080fd5b8063402d267d146106cf5780634c4602da146106e25780634cdad506146105135780634e84befe146106f6578063501eb4fe1461070957600080fd5b806318160ddd116104385780633644e515116103fc5780633644e51514610626578063379e0b131461062e57806338d52e0f146106415780633998a681146106805780633d8ab1e5146106a75780633e3382ba146106ba57600080fd5b806318160ddd1461059b57806318d4c143146105a457806323b872dd146105c7578063313ce567146105da57806333e15be21461061357600080fd5b806307a2d13a1161047f57806307a2d13a14610513578063095ea7b3146105265780630a28a477146105495780630a680e181461055c578063150b7a021461056457600080fd5b806251a3b7146104bb57806301e1d114146104d75780630402ab63146104df57806306fdde03146104e95780630780fd3a146104fe575b600080fd5b6104c461012c81565b6040519081526020015b60405180910390f35b6104c4610c08565b6104c46202a30081565b6104f1610c54565b6040516104ce9190614c54565b61051161050c366004614c80565b610ce2565b005b6104c4610521366004614c9b565b610e4d565b610539610534366004614cc9565b610e73565b60405190151581526020016104ce565b6104c4610557366004614c9b565b610ee0565b610511610efe565b610582610572366004614de0565b630a85bd0160e11b949350505050565b6040516001600160e01b031990911681526020016104ce565b6104c460025481565b6105396105b2366004614e4b565b600e6020526000908152604090205460ff1681565b6105396105d5366004614e68565b610f7a565b6106017f000000000000000000000000000000000000000000000000000000000000000081565b60405160ff90911681526020016104ce565b610511610621366004614eb7565b610f90565b6104c4611093565b61051161063c366004614eee565b6110e9565b6106687f000000000000000000000000000000000000000000000000000000000000000081565b6040516001600160a01b0390911681526020016104ce565b61068f6702c68af0bb14000081565b6040516001600160401b0390911681526020016104ce565b6105116106b5366004614e4b565b6113c1565b6106c26114c6565b6040516104ce9190614f35565b6104c46106dd366004614e4b565b61154a565b60065461053990600160b81b900460ff1681565b610511610704366004614fca565b6115ec565b610511610717366004614c80565b611791565b61051161072a366004614c9b565b611890565b61051161073d36600461500b565b61193a565b610755610750366004614c9b565b6119b6565b60405163ffffffff90911681526020016104ce565b6104c4600281565b6105116119f0565b610511610788366004614e4b565b611a82565b6104c461079b366004614e4b565b60146020526000908152604090205481565b6104c46107bb366004615034565b611b03565b61068f67016345785d8a000081565b6104c46107dd366004614e4b565b60036020526000908152604090205481565b6106c2611bd7565b61080a610805366004614c80565b611c34565b6040516104ce9493929190615059565b610822611d7d565b6040516104ce93929190615116565b6106687f000000000000000000000000000000000000000000000000000000000000000081565b6104c4610866366004614e4b565b60056020526000908152604090205481565b601154610668906001600160a01b031681565b600654610668906001600160a01b031681565b6105396108ac366004614c9b565b600b6020526000908152604090205460ff1681565b6104c46108cf366004615034565b61206e565b6104f161212d565b6105116108ea366004615181565b61213a565b60065461053990600160b01b900460ff1681565b610511610911366004614c9b565b61242b565b60065461075590600160c01b900463ffffffff1681565b6104c460135481565b610511610944366004614eee565b6124c3565b610511612647565b6104c46126aa565b610539610967366004614cc9565b6126e8565b61051161097a366004614fca565b612704565b61051161098d36600461500b565b61278b565b6105116109a0366004614e4b565b6127e5565b610539612878565b6104c46109bb366004614c9b565b61291a565b6104c46109ce3660046151f1565b612938565b6105116109e1366004615228565b6129b7565b6104c46109f43660046151f1565b612a7d565b60065461053990600160a81b900460ff1681565b6104c460125481565b610511610a24366004615251565b612b07565b6104c4610a37366004614e4b565b612bf4565b6104c4610a4a366004614c9b565b612c6c565b610511610a5d366004615034565b612c8a565b610539610a70366004614c80565b600d6020526000908152604090205460ff1681565b6104c4600081565b6104c4610a9b366004614e4b565b612d0c565b60065461053990600160a01b900460ff1681565b610511610ac2366004614c80565b612d44565b600754610ada906001600160c01b031681565b6040516001600160c01b0390911681526020016104ce565b610511610b00366004615297565b612dc2565b600854610668906001600160a01b031681565b6104c4610b26366004614e4b565b613006565b6104c4610b39366004615308565b600460209081526000928352604080842090915290825290205481565b610755610b64366004614c9b565b61303e565b600f54601054610ba5916001600160401b0380821692680100000000000000008304821692600160801b9004909116906001600160a01b031684565b604080516001600160401b039586168152938516602085015291909316908201526001600160a01b0390911660608201526080016104ce565b61068f670de0b6b3a764000081565b610511610bfb366004614e4b565b61304e565b6104c4602081565b6000610c126130c4565b600654600160a01b900460ff1615610c455760405162461bcd60e51b8152600401610c3c90615336565b60405180910390fd5b610c4f600061317d565b905090565b60008054610c619061535a565b80601f0160208091040260200160405190810160405280929190818152602001828054610c8d9061535a565b8015610cda5780601f10610caf57610100808354040283529160200191610cda565b820191906000526020600020905b815481529060010190602001808311610cbd57829003601f168201915b505050505081565b6006546001600160a01b03163314610d0c5760405162461bcd60e51b8152600401610c3c90615394565b63ffffffff81166000908152600b602052604090205460ff16610d4a576040516370abe85960e01b815263ffffffff82166004820152602401610c3c565b7f00000000000000000000000000000000000000000000000000000000000000006001600160a01b0316610d7d8261363f565b6001600160a01b031614610de1577f0000000000000000000000000000000000000000000000000000000000000000610db58261363f565b60405163298473c760e11b81526001600160a01b03928316600482015291166024820152604401610c3c565b63ffffffff81166000908152600c6020526040902054600160a01b900460ff1615610e2757604051630a42c0f960e41b815263ffffffff82166004820152602401610c3c565b6006805463ffffffff909216600160c01b0263ffffffff60c01b19909216919091179055565b6000806000610e5c60006136c8565b91509150610e6b8483836136e1565b949350505050565b3360008181526004602090815260408083206001600160a01b038716808552925280832085905551919290917f8c5be1e5ebec7d5bd14f71427d1e84f3dd0314c0f7b2291e5b200ac8c7c3b92590610ece9086815260200190565b60405180910390a35060015b92915050565b6000806000610eef60006136c8565b91509150610e6b8483836136ee565b6006546001600160a01b03163314610f285760405162461bcd60e51b8152600401610c3c90615394565b610f306136fb565b6006805460ff60a81b1916600160a81b179055604051600181527fb8527b93c36dabdfe078af41be789ba946a4adcfeafcf9d8de21d51629859e3c906020015b60405180910390a1565b6000610f8584613726565b610e6b848484613785565b6006546001600160a01b03163314610fba5760405162461bcd60e51b8152600401610c3c90615394565b6000816110055760098363ffffffff1681548110610fda57610fda6153ba565b90600052602060002090600891828204019190066004029054906101000a900463ffffffff16611045565b600a8363ffffffff168154811061101e5761101e6153ba565b90600052602060002090600891828204019190066004029054906101000a900463ffffffff165b9050600061105282613865565b9050801561108257604051631c7b946d60e31b815263ffffffff8316600482015260248101829052604401610c3c565b61108d8483856138ee565b50505050565b60007f000000000000000000000000000000000000000000000000000000000000000046146110c457610c4f6139da565b507f000000000000000000000000000000000000000000000000000000000000000090565b6006546001600160a01b031633146111135760405162461bcd60e51b8152600401610c3c90615394565b600080821561124557600a8463ffffffff1681548110611135576111356153ba565b90600052602060002090600891828204019190066004029054906101000a900463ffffffff169150600a8563ffffffff1681548110611176576111766153ba565b90600052602060002090600891828204019190066004029054906101000a900463ffffffff1690508181600a8763ffffffff16815481106111b9576111b96153ba565b9060005260206000209060089182820401919006600402600a8863ffffffff16815481106111e9576111e96153ba565b90600052602060002090600891828204019190066004028491906101000a81548163ffffffff021916908363ffffffff1602179055508391906101000a81548163ffffffff021916908363ffffffff160217905550505061136a565b60098463ffffffff168154811061125e5761125e6153ba565b90600052602060002090600891828204019190066004029054906101000a900463ffffffff16915060098563ffffffff168154811061129f5761129f6153ba565b90600052602060002090600891828204019190066004029054906101000a900463ffffffff169050818160098763ffffffff16815481106112e2576112e26153ba565b906000526020600020906008918282040191900660040260098863ffffffff1681548110611312576113126153ba565b90600052602060002090600891828204019190066004028491906101000a81548163ffffffff021916908363ffffffff1602179055508391906101000a81548163ffffffff021916908363ffffffff16021790555050505b6040805163ffffffff84811682528381166020830152878116828401528616606082015290517fb7c5df04749a3a06a9a7bf1a8142ccf2a4ee6cbf4709489e876a6e4eb3301e8a9181900360800190a15050505050565b6006546001600160a01b031633146113eb5760405162461bcd60e51b8152600401610c3c90615394565b604051636777140560e11b81526001600160a01b0382811660048301527f0000000000000000000000000000000000000000000000000000000000000000169063ceee280a9060240160006040518083038186803b15801561144c57600080fd5b505afa158015611460573d6000803e3d6000fd5b505050506001600160a01b0381166000818152600e6020908152604091829020805460ff191660019081179091558251938452908301527f572570e8a43782d3698a3fed258c72f9c201c19be1e4764e359d1adc8f00af7a91015b60405180910390a150565b6060600a80548060200260200160405190810160405280929190818152602001828054801561154057602002820191906000526020600020906000905b82829054906101000a900463ffffffff1663ffffffff16815260200190600401906020826003010492830192600103820291508084116115035790505b5050505050905090565b600654600090600160a81b900460ff161561156757506000919050565b6007546001600160c01b03166002600160c01b0319810161158c575060001992915050565b60008061159960016136c8565b91509150826001600160c01b031681106115b857506000949350505050565b60006115cd826001600160c01b0386166153e6565b90506115da8184846136e1565b9695505050505050565b505050919050565b600654600160a01b900460ff16156116165760405162461bcd60e51b8152600401610c3c90615336565b60068054600160a01b60ff60a01b198216179091556001600160a01b0316331480159061164e57506011546001600160a01b03163314155b1561166c57604051633fd2923560e01b815260040160405180910390fd5b6116746136fb565b61167c6130c4565b6006805460ff60b81b1916600160b81b179055600080808061169d8161317d565b90506116c8601254670de0b6b3a76400006116b891906153e6565b8290670de0b6b3a7640000613a74565b93506116e3601254670de0b6b3a76400006116b891906153f9565b60025490935091506116ff90506116fa858761542f565b613aa2565b600061170b600061317d565b90508381108061171a57508281115b156117495760405163628cc47560e11b8152600481018290526024810185905260448101849052606401610c3c565b600254821461177957600254604051632b40145960e21b8152600481019190915260248101839052604401610c3c565b50506006805463ff0000ff60a01b1916905550505050565b6006546001600160a01b031633146117bb5760405162461bcd60e51b8152600401610c3c90615394565b604051635159d87f60e11b815263ffffffff821660048201527f00000000000000000000000000000000000000000000000000000000000000006001600160a01b03169063a2b3b0fe9060240160006040518083038186803b15801561182057600080fd5b505afa158015611834573d6000803e3d6000fd5b5050505063ffffffff81166000818152600d6020908152604091829020805460ff191660019081179091558251938452908301527fea052d1fb1ecba6aaf6bd32e92f20e7b6a094eaa478248322cc8ff024a90978f91016114bb565b6006546001600160a01b031633146118ba5760405162461bcd60e51b8152600401610c3c90615394565b67016345785d8a00008111156118f4576040516302d2a90f60e51b81526004810182905267016345785d8a00006024820152604401610c3c565b601280549082905560408051828152602081018490527fdf4be33b2e9e3dd4d9e0e85645aea428494a0644a72c51d6a15aedae6b66a3ff91015b60405180910390a15050565b6006546001600160a01b031633146119645760405162461bcd60e51b8152600401610c3c90615394565b6007546001600160c01b039081169082161115611994576040516334f1ec1b60e01b815260040160405180910390fd5b600780546001600160c01b0319166001600160c01b0392909216919091179055565b600981815481106119c657600080fd5b9060005260206000209060089182820401919006600402915054906101000a900463ffffffff1681565b6006546001600160a01b03163314611a1a5760405162461bcd60e51b8152600401610c3c90615394565b600654600160a81b900460ff16611a445760405163ec7165bf60e01b815260040160405180910390fd5b6006805460ff60a81b19169055604051600081527fb8527b93c36dabdfe078af41be789ba946a4adcfeafcf9d8de21d51629859e3c90602001610f70565b6006546001600160a01b03163314611aac5760405162461bcd60e51b8152600401610c3c90615394565b6001600160a01b0381166000818152600e60209081526040808320805460ff191690558051938452908301919091527f572570e8a43782d3698a3fed258c72f9c201c19be1e4764e359d1adc8f00af7a91016114bb565b600654600090600160a01b900460ff1615611b305760405162461bcd60e51b8152600401610c3c90615336565b6006805460ff60a01b1916600160a01b179055600080611b5060016136c8565b91509150611b5f858383613c27565b925082600003611b825760405163426f153760e11b815260040160405180910390fd5b6007546001600160c01b0316611b9884836153f9565b1115611bb75760405163adea3dfd60e01b815260040160405180910390fd5b611bc2858486613c34565b50506006805460ff60a01b1916905592915050565b60606009805480602002602001604051908101604052809291908181526020018280548015611540576000918252602091829020805463ffffffff1684529082028301929091600491018084116115035790505050505050905090565b600c60205260009081526040902080546001820180546001600160a01b03831693600160a01b90930460ff16929190611c6c9061535a565b80601f0160208091040260200160405190810160405280929190818152602001828054611c989061535a565b8015611ce55780601f10611cba57610100808354040283529160200191611ce5565b820191906000526020600020905b815481529060010190602001808311611cc857829003601f168201915b505050505090806002018054611cfa9061535a565b80601f0160208091040260200160405190810160405280929190818152602001828054611d269061535a565b8015611d735780601f10611d4857610100808354040283529160200191611d73565b820191906000526020600020905b815481529060010190602001808311611d5657829003601f168201915b5050505050905084565b600954600a546060918291829190611d9581836153f9565b6001600160401b03811115611dac57611dac614cf5565b604051908082528060200260200182016040528015611dd5578160200160208202803683370190505b509450611de281836153f9565b6001600160401b03811115611df957611df9614cf5565b604051908082528060200260200182016040528015611e22578160200160208202803683370190505b509350611e2f81836153f9565b6001600160401b03811115611e4657611e46614cf5565b604051908082528060200260200182016040528015611e6f578160200160208202803683370190505b50925060005b82811015611f8357611ebe60098281548110611e9357611e936153ba565b90600052602060002090600891828204019190066004029054906101000a900463ffffffff1661363f565b868281518110611ed057611ed06153ba565b60200260200101906001600160a01b031690816001600160a01b031681525050611f3160098281548110611f0657611f066153ba565b90600052602060002090600891828204019190066004029054906101000a900463ffffffff16613865565b858281518110611f4357611f436153ba565b6020026020010181815250506000848281518110611f6357611f636153ba565b91151560209283029190910190910152611f7c81615555565b9050611e75565b5060005b8181101561206657611fa5600a8281548110611e9357611e936153ba565b6009548790611fb490846153f9565b81518110611fc457611fc46153ba565b60200260200101906001600160a01b031690816001600160a01b031681525050611ffa600a8281548110611f0657611f066153ba565b600954869061200990846153f9565b81518110612019576120196153ba565b6020908102919091010152600954600190859061203690846153f9565b81518110612046576120466153ba565b9115156020928302919091019091015261205f81615555565b9050611f87565b505050909192565b600654600090600160a01b900460ff161561209b5760405162461bcd60e51b8152600401610c3c90615336565b6006805460ff60a01b1916600160a01b1790556000806120bb60016136c8565b915091506120ca858383613ccf565b9250826000036120ed57604051639768300560e01b815260040160405180910390fd5b6007546001600160c01b031661210386836153f9565b11156121225760405163adea3dfd60e01b815260040160405180910390fd5b611bc2838686613c34565b60018054610c619061535a565b6006546001600160a01b031633146121645760405162461bcd60e51b8152600401610c3c90615394565b61216c6136fb565b63ffffffff83166000908152600b602052604090205460ff16156121ab5760405163335894fb60e11b815263ffffffff84166004820152602401610c3c565b63ffffffff83166000908152600d602052604090205460ff166121e957604051631f9db01d60e31b815263ffffffff84166004820152602401610c3c565b6040516385ae5d5760e01b815263ffffffff84166004820152600090819081906001600160a01b037f000000000000000000000000000000000000000000000000000000000000000016906385ae5d5790602401600060405180830381865afa15801561225a573d6000803e3d6000fd5b505050506040513d6000823e601f3d908101601f19168201604052612282919081019061556e565b925092509250831515821515146122b457604051632b1d0bd360e11b815263ffffffff87166004820152602401610c3c565b604080516080810182526001600160a01b0380861682528415156020808401918252838501868152606085018b905263ffffffff8c166000908152600c9092529490208351815492511515600160a01b026001600160a81b03199093169316929092171781559151909190600182019061232e9082615653565b50606082015160028201906123439082615653565b50905050811561238457600a546020116123735760405163f025236d60e01b815260206004820152602401610c3c565b61237f600a8888613cdc565b6123b6565b6009546020116123aa5760405163f025236d60e01b815260206004820152602401610c3c565b6123b660098888613cdc565b63ffffffff86166000908152600b602052604090819020805460ff19166001179055517fc4f8cb57c016f0b294fff2666f86fa6cfee9b03aed19f816ae4bf44b7e837bbb9061241a9088908a9063ffffffff92831681529116602082015260400190565b60405180910390a150505050505050565b6006546001600160a01b031633146124555760405162461bcd60e51b8152600401610c3c90615394565b61012c81108061246757506202a30081115b1561248557604051633a60233f60e21b815260040160405180910390fd5b601380549082905560408051828152602081018490527f227ff5c6b5ffb395236b09fd1b472bb128b36eaa17556633feefe28e94411f24910161192e565b6006546001600160a01b031633146124ed5760405162461bcd60e51b8152600401610c3c90615394565b6000816125385760098463ffffffff168154811061250d5761250d6153ba565b90600052602060002090600891828204019190066004029054906101000a900463ffffffff16612578565b600a8463ffffffff1681548110612551576125516153ba565b90600052602060002090600891828204019190066004029054906101000a900463ffffffff165b90508063ffffffff168363ffffffff1614158061261e57506040516321a0f75360e01b815263ffffffff841660048201527f00000000000000000000000000000000000000000000000000000000000000006001600160a01b0316906321a0f75390602401602060405180830381865afa1580156125fa573d6000803e3d6000fd5b505050506040513d601f19601f8201168201806040525081019061261e9190615712565b1561263c5760405163d4db0b7960e01b815260040160405180910390fd5b61108d8484846138ee565b6006546001600160a01b031633146126715760405162461bcd60e51b8152600401610c3c90615394565b600654600160b01b900460ff1661268957600161268c565b60005b60068054911515600160b01b0260ff60b01b19909216919091179055565b60006126b46130c4565b600654600160a01b900460ff16156126de5760405162461bcd60e51b8152600401610c3c90615336565b610c4f600161317d565b60006126f333613726565b6126fd8383613ea1565b9392505050565b60005b8181101561278657612773838383818110612724576127246153ba565b9050602002810190612736919061572f565b8080601f0160208091040260200160405190810160405280939291908181526020018383808284376000920191909152503093925050613f079050565b508061277e81615555565b915050612707565b505050565b6006546001600160a01b031633146127b55760405162461bcd60e51b8152600401610c3c90615394565b6007546001600160c01b039081169082161015611994576040516334f1ec1b60e01b815260040160405180910390fd5b6006546001600160a01b0316331461280f5760405162461bcd60e51b8152600401610c3c90615394565b601054604080516001600160a01b03928316815291831660208301527f51dbb5a65bb22737861a63ec12ba6ce78a98631e9404b0567a2eaf7a06fc544d910160405180910390a1601080546001600160a01b0319166001600160a01b0392909216919091179055565b600654600090600160b01b900460ff1661291457604051630ad85dff60e41b81523060048201527f00000000000000000000000000000000000000000000000000000000000000006001600160a01b03169063ad85dff090602401602060405180830381865afa1580156128f0573d6000803e3d6000fd5b505050506040513d601f19601f82011682018060405250810190610c4f9190615712565b50600090565b600080600061292960016136c8565b91509150610e6b848383613ccf565b600654600090600160a01b900460ff16156129655760405162461bcd60e51b8152600401610c3c90615336565b6006805460ff60a01b1916600160a01b179055600080612984816136c8565b915091506129938683836136ee565b92506129a186848787613f2c565b50506006805460ff60a01b191690559392505050565b6006546001600160a01b031633146129e15760405162461bcd60e51b8152600401610c3c90615394565b670de0b6b3a76400006001600160401b0382161115612a1357604051633d0203e560e01b815260040160405180910390fd5b600f54604080516001600160401b03928316815291831660208301527fb5cc994a260a85a42d6588668221571ae0a14f0a28f9e4817a5195262102c868910160405180910390a1600f805467ffffffffffffffff19166001600160401b0392909216919091179055565b600654600090600160a01b900460ff1615612aaa5760405162461bcd60e51b8152600401610c3c90615336565b6006805460ff60a01b1916600160a01b179055600080612ac9816136c8565b91509150612ad88683836136e1565b925082600003612afb57604051639768300560e01b815260040160405180910390fd5b6129a183878787613f2c565b6006546001600160a01b03163314612b315760405162461bcd60e51b8152600401610c3c90615394565b6000808415612b78576000612b44610c08565b9050612b63612b5586612710615775565b829061ffff16612710614005565b9250612b74612b5586612710615790565b9150505b612b83600284614024565b600880546001600160a01b0319166001600160a01b0385161790556000612ba8610c08565b90508515612bec5782811080612bbd57508181115b15612bec5760405163628cc47560e11b8152600481018290526024810184905260448101839052606401610c3c565b505050505050565b600654600090600160a81b900460ff1615612c1157506000919050565b6007546001600160c01b03166002600160c01b03198101612c36575060001992915050565b6002546001600160c01b038216811015612c6257612c5d816001600160c01b0384166153e6565b610e6b565b6000949350505050565b6000806000612c7b60016136c8565b91509150610e6b848383613c27565b6006546001600160a01b03163314612cb45760405162461bcd60e51b8152600401610c3c90615394565b612cbe8282614024565b601180546001600160a01b0319166001600160a01b0383169081179091556040519081527f3ced9f0d0ac37f3370e1e00515182a375773698b50f5a46523e2cb37360155839060200161192e565b600654600090600160a01b900460ff1615612d395760405162461bcd60e51b8152600401610c3c90615336565b610eda826000614105565b6006546001600160a01b03163314612d6e5760405162461bcd60e51b8152600401610c3c90615394565b63ffffffff81166000818152600d60209081526040808320805460ff191690558051938452908301919091527fea052d1fb1ecba6aaf6bd32e92f20e7b6a094eaa478248322cc8ff024a90978f91016114bb565b42841015612e125760405162461bcd60e51b815260206004820152601760248201527f5045524d49545f444541444c494e455f455850495245440000000000000000006044820152606401610c3c565b60006001612e1e611093565b6001600160a01b038a811660008181526005602090815260409182902080546001810190915582517f6e71edae12b1b97f4d1f60370fef10105fa2faae0126114a169c64845d6126c98184015280840194909452938d166060840152608083018c905260a083019390935260c08083018b90528151808403909101815260e08301909152805192019190912061190160f01b6101008301526101028201929092526101228101919091526101420160408051601f198184030181528282528051602091820120600084529083018083525260ff871690820152606081018590526080810184905260a0016020604051602081039080840390855afa158015612f2a573d6000803e3d6000fd5b5050604051601f1901519150506001600160a01b03811615801590612f605750876001600160a01b0316816001600160a01b0316145b612f9d5760405162461bcd60e51b815260206004820152600e60248201526d24a72b20a624a22fa9a4a3a722a960911b6044820152606401610c3c565b6001600160a01b0390811660009081526004602090815260408083208a8516808552908352928190208990555188815291928a16917f8c5be1e5ebec7d5bd14f71427d1e84f3dd0314c0f7b2291e5b200ac8c7c3b925910160405180910390a350505050505050565b600654600090600160a01b900460ff16156130335760405162461bcd60e51b8152600401610c3c90615336565b610eda826001614105565b600a81815481106119c657600080fd5b6006546001600160a01b031633146130785760405162461bcd60e51b8152600401610c3c90615394565b600680546001600160a01b0319166001600160a01b03831690811790915560405133907f8be0079c531659141344cd1fd0a4f28419497f9722a3daafe3b4186f6b6457e090600090a350565b600654600160b01b900460ff1661317b57604051630ad85dff60e41b81523060048201527f00000000000000000000000000000000000000000000000000000000000000006001600160a01b03169063ad85dff090602401602060405180830381865afa158015613139573d6000803e3d6000fd5b505050506040513d601f19601f8201168201806040525081019061315d9190615712565b1561317b57604051630f301f8f60e41b815260040160405180910390fd5b565b60095460009081816001600160401b0381111561319c5761319c614cf5565b6040519080825280602002602001820160405280156131c5578160200160208202803683370190505b5090506000826001600160401b038111156131e2576131e2614cf5565b60405190808252806020026020018201604052801561320b578160200160208202803683370190505b50905084156133795760005b838110156132dc57600060098281548110613234576132346153ba565b90600052602060002090600891828204019190066004029054906101000a900463ffffffff16905061326581614161565b838381518110613277576132776153ba565b602002602001018181525060000361328f57506132cc565b6132988161363f565b8483815181106132aa576132aa6153ba565b60200260200101906001600160a01b031690816001600160a01b031681525050505b6132d581615555565b9050613217565b5060085460405163b333a17560e01b81526001600160a01b039091169063b333a1759061333190859085907f0000000000000000000000000000000000000000000000000000000000000000906004016157ab565b602060405180830381865afa15801561334e573d6000803e3d6000fd5b505050506040513d601f19601f8201168201806040525081019061337291906157e9565b93506115e4565b600a546000816001600160401b0381111561339657613396614cf5565b6040519080825280602002602001820160405280156133bf578160200160208202803683370190505b5090506000826001600160401b038111156133dc576133dc614cf5565b604051908082528060200260200182016040528015613405578160200160208202803683370190505b50905060005b868110156134d057600060098281548110613428576134286153ba565b90600052602060002090600891828204019190066004029054906101000a900463ffffffff16905061345981613865565b86838151811061346b5761346b6153ba565b602002602001018181525060000361348357506134c0565b61348c8161363f565b87838151811061349e5761349e6153ba565b60200260200101906001600160a01b031690816001600160a01b031681525050505b6134c981615555565b905061340b565b5060005b83811015613599576000600a82815481106134f1576134f16153ba565b90600052602060002090600891828204019190066004029054906101000a900463ffffffff16905061352281613865565b838381518110613534576135346153ba565b602002602001018181525060000361354c5750613589565b6135558161363f565b848381518110613567576135676153ba565b60200260200101906001600160a01b031690816001600160a01b031681525050505b61359281615555565b90506134d4565b50600854604051637563738b60e11b81526001600160a01b039091169063eac6e716906135f29088908890879087907f000000000000000000000000000000000000000000000000000000000000000090600401615802565b602060405180830381865afa15801561360f573d6000803e3d6000fd5b505050506040513d601f19601f8201168201806040525081019061363391906157e9565b98975050505050505050565b63ffffffff81166000908152600c60205260408082208054915163e170a9bf60e01b81526001600160a01b0390921691829163e170a9bf9161368791600101906004016158e7565b602060405180830381865afa1580156136a4573d6000803e3d6000fd5b505050506040513d601f19601f820116820180604052508101906126fd91906158fa565b6000806136d5600061317d565b91506002549050915091565b6000610e6b848484614005565b6000610e6b848385613a74565b600654600160a81b900460ff161561317b576040516337a5332d60e11b815260040160405180910390fd5b6001600160a01b03811660009081526014602052604090205480156137815760006013548261375591906153f9565b905042811115612786576040516306f8ee3f60e21b815260048101829052426024820152604401610c3c565b5050565b6001600160a01b038316600090815260046020908152604080832033845290915281205460001981146137e1576137bc83826153e6565b6001600160a01b03861660009081526004602090815260408083203384529091529020555b6001600160a01b038516600090815260036020526040812080548592906138099084906153e6565b90915550506001600160a01b0380851660008181526003602052604090819020805487019055519091871690600080516020615c00833981519152906138529087815260200190565b60405180910390a3506001949350505050565b63ffffffff81166000908152600c602052604080822080549151637841536560e01b81526001600160a01b039092169182916378415365916138ad91600101906004016158e7565b602060405180830381865afa1580156138ca573d6000803e3d6000fd5b505050506040513d601f19601f820116820180604052508101906126fd91906157e9565b60065463ffffffff600160c01b909104811690831603613921576040516319ded73160e21b815260040160405180910390fd5b801561393757613932600a8461421b565b613942565b61394260098461421b565b63ffffffff82166000908152600b60209081526040808320805460ff19169055600c909152812080546001600160a81b0319168155906139856001830182614bae565b613993600283016000614bae565b50506040805163ffffffff8085168252851660208201527fa5cd0099b78b279c04987aa80ffffaf8fc8c8af4e7c7bce2686e8d01e2e1bd51910160405180910390a1505050565b60007f8b73c3c69bb8fe3d512ecc4cf759cc79239f7b179b0ffacaa9a75d522b39400f6000604051613a0c9190615917565b6040805191829003822060208301939093528101919091527fc89efdaa54c0f20c7adf612882df0950f5a951637e0307cdcb4c672f298b8bc660608201524660808201523060a082015260c00160405160208183030381529060405280519060200120905090565b828202811515841585830485141716613a8c57600080fd5b6001826001830304018115150290509392505050565b60005b8151811015613781576000828281518110613ac257613ac26153ba565b602090810291909101810151516001600160a01b0381166000908152600e90925260409091205490915060ff16613b1757604051635df6b61760e11b81526001600160a01b0382166004820152602401610c3c565b60005b838381518110613b2c57613b2c6153ba565b60200260200101516020015151811015613c1457613b92848481518110613b5557613b556153ba565b6020026020010151602001518281518110613b7257613b726153ba565b6020026020010151836001600160a01b0316613f0790919063ffffffff16565b507f7445c6598e1b553f076d507692eab3dceef0d608757141b53e9e56aa8bbaf48382858581518110613bc757613bc76153ba565b6020026020010151602001518381518110613be457613be46153ba565b6020026020010151604051613bfa92919061598d565b60405180910390a180613c0c81615555565b915050613b1a565b505080613c2090615555565b9050613aa5565b6000610e6b848385614005565b613c3f838383614360565b613c746001600160a01b037f000000000000000000000000000000000000000000000000000000000000000016333086614422565b613c7e81836144ac565b60408051848152602081018490526001600160a01b0383169133917fdcbc1c05240f31ff3ad067ef1ee35ce4997762752e3a095284754544f4c709d7910160405180910390a3612786838383614506565b6000610e6b848484613a74565b82548015613e60578380613cf16001846153e6565b81548110613d0157613d016153ba565b60009182526020808320600880840490910154855460018082018855968652928520918304909101805463ffffffff60046007958616810261010090810a83810219909416969097160290950a9092049093160217905590613d6390836153e6565b90505b8363ffffffff16811115613e0e5784613d806001836153e6565b81548110613d9057613d906153ba565b90600052602060002090600891828204019190066004029054906101000a900463ffffffff16858281548110613dc857613dc86153ba565b90600052602060002090600891828204019190066004026101000a81548163ffffffff021916908363ffffffff1602179055508080613e06906159b1565b915050613d66565b5081848463ffffffff1681548110613e2857613e286153ba565b90600052602060002090600891828204019190066004026101000a81548163ffffffff021916908363ffffffff16021790555061108d565b508254600181018455600093845260209093206008840401805460079094166004026101000a63ffffffff8181021990951692909416939093021790915550565b33600090815260036020526040812080548391908390613ec29084906153e6565b90915550506001600160a01b03831660008181526003602052604090819020805485019055513390600080516020615c0083398151915290610ece9086815260200190565b60606126fd8383604051806060016040528060278152602001615bd96027913961452c565b613f388484848461459a565b336001600160a01b03821614613fa6576001600160a01b03811660009081526004602090815260408083203384529091529020546000198114613fa457613f7f84826153e6565b6001600160a01b03831660009081526004602090815260408083203384529091529020555b505b613fb081846145af565b60408051858152602081018590526001600160a01b03808416929085169133917ffbde797d201c681b91056529119e0b02407c7bb96a4a2c75c01fc9667232c8db910160405180910390a461108d8483614611565b82820281151584158583048514171661401d57600080fd5b0492915050565b8160000361404557604051632db38d0560e01b815260040160405180910390fd5b806001600160a01b03167f00000000000000000000000000000000000000000000000000000000000000006001600160a01b031663b93f9b0a846040518263ffffffff1660e01b815260040161409d91815260200190565b602060405180830381865afa1580156140ba573d6000803e3d6000fd5b505050506040513d601f19601f820116820180604052508101906140de91906158fa565b6001600160a01b03161461378157604051634ee204d760e01b815260040160405180910390fd5b6000614111838361497b565b6001600160a01b038416600090815260146020526040902054909150801561415a5760006013548261414391906153f9565b90504281111561415857600092505050610eda565b505b5092915050565b63ffffffff81166000908152600c6020526040812054600160a01b900460ff161561418e57506000919050565b63ffffffff82166000908152600c60205260409081902080549151637d2872e960e11b81526001600160a01b039092169163fa50e5d2916141da916001820191600201906004016159c8565b602060405180830381865afa1580156141f7573d6000803e3d6000fd5b505050506040513d601f19601f82011682018060405250810190610eda91906157e9565b815463ffffffff821681116142685760405162461bcd60e51b8152602060048201526013602482015272496e646578206f7574206f6620626f756e647360681b6044820152606401610c3c565b63ffffffff82165b61427b6001836153e6565b81101561431c578361428e8260016153f9565b8154811061429e5761429e6153ba565b90600052602060002090600891828204019190066004029054906101000a900463ffffffff168482815481106142d6576142d66153ba565b90600052602060002090600891828204019190066004026101000a81548163ffffffff021916908363ffffffff160217905550808061431490615555565b915050614270565b508280548061432d5761432d6159f6565b600082815260209020600860001990920191820401805463ffffffff600460078516026101000a02191690559055505050565b61436b8383836149fd565b336001600160a01b0382161461278657604051635551e1b560e01b81523360048201527f00000000000000000000000000000000000000000000000000000000000000006001600160a01b031690635551e1b590602401602060405180830381865afa1580156143df573d6000803e3d6000fd5b505050506040513d601f19601f820116820180604052508101906144039190615712565b612786576040516334871f2560e21b8152336004820152602401610c3c565b60006040516323b872dd60e01b81528460048201528360248201528260448201526020600060648360008a5af13d15601f3d11600160005114161716915050806144a55760405162461bcd60e51b81526020600482015260146024820152731514905394d1915497d19493d357d1905253115160621b6044820152606401610c3c565b5050505050565b80600260008282546144be91906153f9565b90915550506001600160a01b038216600081815260036020908152604080832080548601905551848152600080516020615c0083398151915291015b60405180910390a35050565b6001600160a01b0381166000908152601460205260409020429055612786838383614a0d565b6060600080856001600160a01b0316856040516145499190615a0c565b600060405180830381855af49150503d8060008114614584576040519150601f19603f3d011682016040523d82523d6000602084013e614589565b606091505b50915091506115da86838387614a27565b6145a381613726565b61108d84848484614aa0565b6001600160a01b038216600090815260036020526040812080548392906145d79084906153e6565b90915550506002805482900390556040518181526000906001600160a01b03841690600080516020615c00833981519152906020016144fa565b61463c6040518060800160405280600081526020016000815260200160008152602001600081525090565b600854604051630226614760e01b81526001600160a01b037f00000000000000000000000000000000000000000000000000000000000000008116600483015290911690630226614790602401602060405180830381865afa1580156146a6573d6000803e3d6000fd5b505050506040513d601f19601f820116820180604052508101906146ca91906157e9565b60408201526146fa7f0000000000000000000000000000000000000000000000000000000000000000600a615b0c565b606082015260095460005b8181101561495857600060098281548110614722576147226153ba565b60009182526020822060088204015460079091166004026101000a900463ffffffff16915061475082614161565b905080600003614761575050614948565b600061476c8361363f565b600854604051630226614760e01b81526001600160a01b038084166004830152929350911690630226614790602401602060405180830381865afa1580156147b8573d6000803e3d6000fd5b505050506040513d601f19601f820116820180604052508101906147dc91906157e9565b866000018181525050806001600160a01b031663313ce5676040518163ffffffff1660e01b8152600401602060405180830381865afa158015614823573d6000803e3d6000fd5b505050506040513d601f19601f820116820180604052508101906148479190615b1b565b61485290600a615b0c565b602087018190528651600091829161487d9161487687670de0b6b3a7640000615b38565b9190614005565b905061489c88606001518960400151836140059092919063ffffffff16565b91506148b0670de0b6b3a764000083615b4f565b9150506000898211156149165760006148e089604001518a606001518d670de0b6b3a76400006148769190615b38565b60208a01518a519192506148f691839190614005565b915061490a670de0b6b3a764000083615b4f565b915060009a5050614925565b5082614922828b6153e6565b99505b61493085828b614aa8565b89600003614942575050505050614958565b50505050505b61495181615555565b9050614705565b50831561108d5760405163cc5ea39b60e01b815260048101859052602401610c3c565b60006149856130c4565b60008061499260006136c8565b6001600160a01b038716600090815260036020526040812054929450909250906149bd9084846136e1565b905060006149cb600161317d565b9050808211156149db57806149dd565b815b945085156149f3576149f0858585613c27565b94505b5050505092915050565b614a056136fb565b6127866130c4565b60065461278690600160c01b900463ffffffff1684614b39565b60608315614a96578251600003614a8f576001600160a01b0385163b614a8f5760405162461bcd60e51b815260206004820152601d60248201527f416464726573733a2063616c6c20746f206e6f6e2d636f6e74726163740000006044820152606401610c3c565b5081610e6b565b610e6b8383614b84565b61108d6130c4565b63ffffffff83166000908152600c602052604090819020805491516001600160a01b03909216916144a59163c9111bd760e01b91614af791879187916001810191600290910190602401615b71565b60408051601f198184030181529190526020810180516001600160e01b03166001600160e01b0319909316929092179091526001600160a01b03831690613f07565b63ffffffff82166000908152600c602052604090819020805491516001600160a01b039092169161108d916369445c3160e01b91614af7918691600182019160020190602401615bad565b815115614b945781518083602001fd5b8060405162461bcd60e51b8152600401610c3c9190614c54565b508054614bba9061535a565b6000825580601f10614bca575050565b601f016020900490600052602060002090810190614be89190614beb565b50565b5b80821115614c005760008155600101614bec565b5090565b60005b83811015614c1f578181015183820152602001614c07565b50506000910152565b60008151808452614c40816020860160208601614c04565b601f01601f19169290920160200192915050565b6020815260006126fd6020830184614c28565b803563ffffffff81168114614c7b57600080fd5b919050565b600060208284031215614c9257600080fd5b6126fd82614c67565b600060208284031215614cad57600080fd5b5035919050565b6001600160a01b0381168114614be857600080fd5b60008060408385031215614cdc57600080fd5b8235614ce781614cb4565b946020939093013593505050565b634e487b7160e01b600052604160045260246000fd5b604080519081016001600160401b0381118282101715614d2d57614d2d614cf5565b60405290565b604051601f8201601f191681016001600160401b0381118282101715614d5b57614d5b614cf5565b604052919050565b60006001600160401b03821115614d7c57614d7c614cf5565b50601f01601f191660200190565b600082601f830112614d9b57600080fd5b8135614dae614da982614d63565b614d33565b818152846020838601011115614dc357600080fd5b816020850160208301376000918101602001919091529392505050565b60008060008060808587031215614df657600080fd5b8435614e0181614cb4565b93506020850135614e1181614cb4565b92506040850135915060608501356001600160401b03811115614e3357600080fd5b614e3f87828801614d8a565b91505092959194509250565b600060208284031215614e5d57600080fd5b81356126fd81614cb4565b600080600060608486031215614e7d57600080fd5b8335614e8881614cb4565b92506020840135614e9881614cb4565b929592945050506040919091013590565b8015158114614be857600080fd5b60008060408385031215614eca57600080fd5b614ed383614c67565b91506020830135614ee381614ea9565b809150509250929050565b600080600060608486031215614f0357600080fd5b614f0c84614c67565b9250614f1a60208501614c67565b91506040840135614f2a81614ea9565b809150509250925092565b6020808252825182820181905260009190848201906040850190845b81811015614f7357835163ffffffff1683529284019291840191600101614f51565b50909695505050505050565b60008083601f840112614f9157600080fd5b5081356001600160401b03811115614fa857600080fd5b6020830191508360208260051b8501011115614fc357600080fd5b9250929050565b60008060208385031215614fdd57600080fd5b82356001600160401b03811115614ff357600080fd5b614fff85828601614f7f565b90969095509350505050565b60006020828403121561501d57600080fd5b81356001600160c01b03811681146126fd57600080fd5b6000806040838503121561504757600080fd5b823591506020830135614ee381614cb4565b6001600160a01b0385168152831515602082015260806040820181905260009061508590830185614c28565b82810360608401526150978185614c28565b979650505050505050565b600081518084526020808501945080840160005b838110156150db5781516001600160a01b0316875295820195908201906001016150b6565b509495945050505050565b600081518084526020808501945080840160005b838110156150db578151875295820195908201906001016150fa565b60608152600061512960608301866150a2565b60208382038185015261513c82876150e6565b8481036040860152855180825282870193509082019060005b81811015615173578451151583529383019391830191600101615155565b509098975050505050505050565b6000806000806080858703121561519757600080fd5b6151a085614c67565b93506151ae60208601614c67565b925060408501356001600160401b038111156151c957600080fd5b6151d587828801614d8a565b92505060608501356151e681614ea9565b939692955090935050565b60008060006060848603121561520657600080fd5b83359250602084013561521881614cb4565b91506040840135614f2a81614cb4565b60006020828403121561523a57600080fd5b81356001600160401b03811681146126fd57600080fd5b60008060006060848603121561526657600080fd5b833561527181614ea9565b9250602084013561ffff8116811461521857600080fd5b60ff81168114614be857600080fd5b600080600080600080600060e0888a0312156152b257600080fd5b87356152bd81614cb4565b965060208801356152cd81614cb4565b9550604088013594506060880135935060808801356152eb81615288565b9699959850939692959460a0840135945060c09093013592915050565b6000806040838503121561531b57600080fd5b823561532681614cb4565b91506020830135614ee381614cb4565b6020808252600a90820152695245454e5452414e435960b01b604082015260600190565b600181811c9082168061536e57607f821691505b60208210810361538e57634e487b7160e01b600052602260045260246000fd5b50919050565b6020808252600c908201526b15539055551213d49256915160a21b604082015260600190565b634e487b7160e01b600052603260045260246000fd5b634e487b7160e01b600052601160045260246000fd5b81810381811115610eda57610eda6153d0565b80820180821115610eda57610eda6153d0565b60006001600160401b0382111561542557615425614cf5565b5060051b60200190565b600061543d614da98461540c565b83815260208082019190600586811b86013681111561545b57600080fd5b865b818110156155485780356001600160401b038082111561547d5760008081fd5b818a019150604082360312156154935760008081fd5b61549b614d0b565b82356154a681614cb4565b815282870135828111156154ba5760008081fd5b929092019136601f8401126154cf5760008081fd5b82356154dd614da98261540c565b81815290871b840188019088810190368311156154fa5760008081fd5b8986015b83811015615532578035868111156155165760008081fd5b615524368d838b0101614d8a565b845250918a01918a016154fe565b50838a015250508852505094830194830161545d565b5092979650505050505050565b600060018201615567576155676153d0565b5060010190565b60008060006060848603121561558357600080fd5b835161558e81614cb4565b602085015190935061559f81614ea9565b60408501519092506001600160401b038111156155bb57600080fd5b8401601f810186136155cc57600080fd5b80516155da614da982614d63565b8181528760208385010111156155ef57600080fd5b615600826020830160208601614c04565b8093505050509250925092565b601f82111561278657600081815260208120601f850160051c810160208610156156345750805b601f850160051c820191505b81811015612bec57828155600101615640565b81516001600160401b0381111561566c5761566c614cf5565b6156808161567a845461535a565b8461560d565b602080601f8311600181146156b5576000841561569d5750858301515b600019600386901b1c1916600185901b178555612bec565b600085815260208120601f198616915b828110156156e4578886015182559484019460019091019084016156c5565b50858210156157025787850151600019600388901b60f8161c191681555b5050505050600190811b01905550565b60006020828403121561572457600080fd5b81516126fd81614ea9565b6000808335601e1984360301811261574657600080fd5b8301803591506001600160401b0382111561576057600080fd5b602001915036819003821315614fc357600080fd5b61ffff82811682821603908082111561415a5761415a6153d0565b61ffff81811683821601908082111561415a5761415a6153d0565b6060815260006157be60608301866150a2565b82810360208401526157d081866150e6565b91505060018060a01b0383166040830152949350505050565b6000602082840312156157fb57600080fd5b5051919050565b60a08152600061581560a08301886150a2565b828103602084015261582781886150e6565b9050828103604084015261583b81876150a2565b9050828103606084015261584f81866150e6565b91505060018060a01b03831660808301529695505050505050565b600081546158778161535a565b80855260206001838116801561589457600181146158ae576158dc565b60ff1985168884015283151560051b8801830195506158dc565b866000528260002060005b858110156158d45781548a82018601529083019084016158b9565b890184019650505b505050505092915050565b6020815260006126fd602083018461586a565b60006020828403121561590c57600080fd5b81516126fd81614cb4565b60008083546159258161535a565b6001828116801561593d576001811461595257615981565b60ff1984168752821515830287019450615981565b8760005260208060002060005b858110156159785781548a82015290840190820161595f565b50505082870194505b50929695505050505050565b6001600160a01b0383168152604060208201819052600090610e6b90830184614c28565b6000816159c0576159c06153d0565b506000190190565b6040815260006159db604083018561586a565b82810360208401526159ed818561586a565b95945050505050565b634e487b7160e01b600052603160045260246000fd5b60008251615a1e818460208701614c04565b9190910192915050565b600181815b80851115615a63578160001904821115615a4957615a496153d0565b80851615615a5657918102915b93841c9390800290615a2d565b509250929050565b600082615a7a57506001610eda565b81615a8757506000610eda565b8160018114615a9d5760028114615aa757615ac3565b6001915050610eda565b60ff841115615ab857615ab86153d0565b50506001821b610eda565b5060208310610133831016604e8410600b8410161715615ae6575081810a610eda565b615af08383615a28565b8060001904821115615b0457615b046153d0565b029392505050565b60006126fd60ff841683615a6b565b600060208284031215615b2d57600080fd5b81516126fd81615288565b8082028115828204841417610eda57610eda6153d0565b600082615b6c57634e487b7160e01b600052601260045260246000fd5b500490565b8481526001600160a01b0384166020820152608060408201819052600090615b9b9083018561586a565b8281036060840152615097818561586a565b838152606060208201526000615bc6606083018561586a565b82810360408401526115da818561586a56fe416464726573733a206c6f772d6c6576656c2064656c65676174652063616c6c206661696c6564ddf252ad1be2c89b69c2b068fc378daa952ba7f163c4a11628f55a4df523b3efa264697066735822122033bcfe5c8070dd09d9233cec0bd62bca9ecdff131eeb7dbe2a4960a32bfce8f064736f6c634300081500338be0079c531659141344cd1fd0a4f28419497f9722a3daafe3b4186f6b6457e0416464726573733a206c6f772d6c6576656c2064656c65676174652063616c6c206661696c6564",
    "linkReferences": {}
  },
  "methodIdentifiers": {
    "DOMAIN_SEPARATOR()": "3644e515",
    "GRAVITY_BRIDGE_REGISTRY_SLOT()": "cd82f8b1",
    "MAXIMUM_SHARE_LOCK_PERIOD()": "0402ab63",
    "MAX_FEE_CUT()": "eef33eca",
    "MAX_PLATFORM_FEE()": "3998a681",
    "MAX_POSITIONS()": "f7b24e08",
    "MAX_REBALANCE_DEVIATION()": "6ff1c02a",
    "MINIMUM_SHARE_LOCK_PERIOD()": "0051a3b7",
    "PRICE_ROUTER_REGISTRY_SLOT()": "5a400d25",
    "adaptorCatalogue(address)": "18d4c143",
    "addAdaptorToCatalogue(address)": "3d8ab1e5",
    "addPosition(uint32,uint32,bytes,bool)": "9955a9d4",
    "addPositionToCatalogue(uint32)": "501eb4fe",
    "allowance(address,address)": "dd62ed3e",
    "allowedRebalanceDeviation()": "c244245a",
    "approve(address,uint256)": "095ea7b3",
    "asset()": "38d52e0f",
    "automationActions()": "88c4caba",
    "balanceOf(address)": "70a08231",
    "blockExternalReceiver()": "4c4602da",
    "cachePriceRouter(bool,uint16,address)": "c588d8d6",
    "callOnAdaptor((address,bytes[])[])": "4e84befe",
    "convertToAssets(uint256)": "07a2d13a",
    "convertToShares(uint256)": "c6e6f592",
    "creditPositions(uint256)": "59d20b4e",
    "debtPositions(uint256)": "e1b1acb7",
    "decimals()": "313ce567",
    "decreaseShareSupplyCap(uint192)": "575bbce6",
    "deposit(uint256,address)": "6e553f65",
    "feeData()": "e753e600",
    "forcePositionOut(uint32,uint32,bool)": "a07bee0b",
    "getCreditPositions()": "71e99dc2",
    "getDebtPositions()": "3e3382ba",
    "getPositionData(uint32)": "7384504f",
    "holdingPosition()": "9c5f00c2",
    "ignorePause()": "9959af94",
    "increaseShareSupplyCap(uint192)": "b0646e27",
    "initiateShutdown()": "0a680e18",
    "isPaused()": "b187bd26",
    "isPositionUsed(uint256)": "93bbeac0",
    "isShutdown()": "bf86d690",
    "liftShutdown()": "5e2c576e",
    "locked()": "cf309012",
    "maxDeposit(address)": "402d267d",
    "maxMint(address)": "c63d75b6",
    "maxRedeem(address)": "d905777e",
    "maxWithdraw(address)": "ce96cb77",
    "mint(uint256,address)": "94bf804d",
    "multicall(bytes[])": "ac9650d8",
    "name()": "06fdde03",
    "nonces(address)": "7ecebe00",
    "onERC721Received(address,address,uint256,bytes)": "150b7a02",
    "owner()": "8da5cb5b",
    "permit(address,address,uint256,uint256,uint8,bytes32,bytes32)": "d505accf",
    "positionCatalogue(uint32)": "cbdf33d0",
    "previewDeposit(uint256)": "ef8b30f7",
    "previewMint(uint256)": "b3d7f6b9",
    "previewRedeem(uint256)": "4cdad506",
    "previewWithdraw(uint256)": "0a28a477",
    "priceRouter()": "d7d4bf45",
    "redeem(uint256,address,address)": "ba087652",
    "registry()": "7b103999",
    "removeAdaptorFromCatalogue(address)": "5f6b88a0",
    "removePosition(uint32,bool)": "33e15be2",
    "removePositionFromCatalogue(uint32)": "d1e88404",
    "setAutomationActions(uint256,address)": "c8e81950",
    "setHoldingPosition(uint32)": "0780fd3a",
    "setRebalanceDeviation(uint256)": "530a3714",
    "setShareLockPeriod(uint256)": "9c552ca8",
    "setStrategistPayoutAddress(address)": "b0a75d36",
    "setStrategistPlatformCut(uint64)": "b5292a99",
    "shareLockPeriod()": "9fdb11b6",
    "shareSupplyCap()": "d446bbcc",
    "swapPositions(uint32,uint32,bool)": "379e0b13",
    "symbol()": "95d89b41",
    "toggleIgnorePause()": "a373e3ff",
    "totalAssets()": "01e1d114",
    "totalAssetsWithdrawable()": "a8144e48",
    "totalSupply()": "18160ddd",
    "transfer(address,uint256)": "a9059cbb",
    "transferFrom(address,address,uint256)": "23b872dd",
    "transferOwnership(address)": "f2fde38b",
    "userShareLockStartTime(address)": "687c2b50",
    "viewPositionBalances()": "78e0233e",
    "withdraw(uint256,address,address)": "b460af94"
  },
  "id": 99
}