{
  "abi": [
    {
      "inputs": [
        {
          "internalType": "address",
          "name": "_frax",
          "type": "address"
        },
        {
          "internalType": "uint256",
          "name": "_healthFactor",
          "type": "uint256"
        }
      ],
      "stateMutability": "nonpayable",
      "type": "constructor"
    },
    {
      "inputs": [],
      "name": "BaseAdaptor__ConstructorHealthFactorTooLow",
      "type": "error"
    },
    {
      "inputs": [],
      "name": "BaseAdaptor__ExternalReceiverBlocked",
      "type": "error"
    },
    {
      "inputs": [
        {
          "internalType": "address",
          "name": "asset",
          "type": "address"
        }
      ],
      "name": "BaseAdaptor__PricingNotSupported",
      "type": "error"
    },
    {
      "inputs": [],
      "name": "BaseAdaptor__Slippage",
      "type": "error"
    },
    {
      "inputs": [],
      "name": "BaseAdaptor__UserDepositsNotAllowed",
      "type": "error"
    },
    {
      "inputs": [],
      "name": "BaseAdaptor__UserWithdrawsNotAllowed",
      "type": "error"
    },
    {
      "inputs": [
        {
          "internalType": "address",
          "name": "fraxlendPair",
          "type": "address"
        }
      ],
      "name": "CollateralFTokenAdaptor__FraxlendPairPositionsMustBeTracked",
      "type": "error"
    },
    {
      "inputs": [
        {
          "internalType": "address",
          "name": "fraxlendPair",
          "type": "address"
        }
      ],
      "name": "CollateralFTokenAdaptor__HealthFactorTooLow",
      "type": "error"
    },
    {
      "inputs": [],
      "name": "FRAX",
      "outputs": [
        {
          "internalType": "contract ERC20",
          "name": "",
          "type": "address"
        }
      ],
      "stateMutability": "view",
      "type": "function"
    },
    {
      "inputs": [
        {
          "internalType": "contract IFToken",
          "name": "_fraxlendPair",
          "type": "address"
        },
        {
          "internalType": "uint256",
          "name": "_collateralToDeposit",
          "type": "uint256"
        }
      ],
      "name": "addCollateral",
      "outputs": [],
      "stateMutability": "nonpayable",
      "type": "function"
    },
    {
      "inputs": [
        {
          "internalType": "bytes",
          "name": "_adaptorData",
          "type": "bytes"
        }
      ],
      "name": "assetOf",
      "outputs": [
        {
          "internalType": "contract ERC20",
          "name": "",
          "type": "address"
        }
      ],
      "stateMutability": "view",
      "type": "function"
    },
    {
      "inputs": [
        {
          "internalType": "bytes",
          "name": "adaptorData",
          "type": "bytes"
        }
      ],
      "name": "assetsUsed",
      "outputs": [
        {
          "internalType": "contract ERC20[]",
          "name": "assets",
          "type": "address[]"
        }
      ],
      "stateMutability": "view",
      "type": "function"
    },
    {
      "inputs": [
        {
          "internalType": "bytes",
          "name": "adaptorData",
          "type": "bytes"
        }
      ],
      "name": "balanceOf",
      "outputs": [
        {
          "internalType": "uint256",
          "name": "",
          "type": "uint256"
        }
      ],
      "stateMutability": "view",
      "type": "function"
    },
    {
      "inputs": [
        {
          "internalType": "uint256",
          "name": "assets",
          "type": "uint256"
        },
        {
          "internalType": "bytes",
          "name": "adaptorData",
          "type": "bytes"
        },
        {
          "internalType": "bytes",
          "name": "",
          "type": "bytes"
        }
      ],
      "name": "deposit",
      "outputs": [],
      "stateMutability": "nonpayable",
      "type": "function"
    },
    {
      "inputs": [],
      "name": "identifier",
      "outputs": [
        {
          "internalType": "bytes32",
          "name": "",
          "type": "bytes32"
        }
      ],
      "stateMutability": "pure",
      "type": "function"
    },
    {
      "inputs": [],
      "name": "isDebt",
      "outputs": [
        {
          "internalType": "bool",
          "name": "",
          "type": "bool"
        }
      ],
      "stateMutability": "pure",
      "type": "function"
    },
    {
      "inputs": [],
      "name": "minimumHealthFactor",
      "outputs": [
        {
          "internalType": "uint256",
          "name": "",
          "type": "uint256"
        }
      ],
      "stateMutability": "view",
      "type": "function"
    },
    {
      "inputs": [
        {
          "internalType": "uint256",
          "name": "_collateralAmount",
          "type": "uint256"
        },
        {
          "internalType": "contract IFToken",
          "name": "_fraxlendPair",
          "type": "address"
        }
      ],
      "name": "removeCollateral",
      "outputs": [],
      "stateMutability": "nonpayable",
      "type": "function"
    },
    {
      "inputs": [
        {
          "internalType": "contract ERC20",
          "name": "asset",
          "type": "address"
        },
        {
          "internalType": "address",
          "name": "spender",
          "type": "address"
        }
      ],
      "name": "revokeApproval",
      "outputs": [],
      "stateMutability": "nonpayable",
      "type": "function"
    },
    {
      "inputs": [],
      "name": "slippage",
      "outputs": [
        {
          "internalType": "uint32",
          "name": "",
          "type": "uint32"
        }
      ],
      "stateMutability": "pure",
      "type": "function"
    },
    {
      "inputs": [
        {
          "internalType": "uint256",
          "name": "",
          "type": "uint256"
        },
        {
          "internalType": "address",
          "name": "",
          "type": "address"
        },
        {
          "internalType": "bytes",
          "name": "",
          "type": "bytes"
        },
        {
          "internalType": "bytes",
          "name": "",
          "type": "bytes"
        }
      ],
      "name": "withdraw",
      "outputs": [],
      "stateMutability": "pure",
      "type": "function"
    },
    {
      "inputs": [
        {
          "internalType": "bytes",
          "name": "",
          "type": "bytes"
        },
        {
          "internalType": "bytes",
          "name": "",
          "type": "bytes"
        }
      ],
      "name": "withdrawableFrom",
      "outputs": [
        {
          "internalType": "uint256",
          "name": "",
          "type": "uint256"
        }
      ],
      "stateMutability": "pure",
      "type": "function"
    }
  ],
  "bytecode": {
    "object": "0x60c060405234801561001057600080fd5b506040516112d83803806112d883398101604081905261002f9161007a565b6100388161004e565b6001600160a01b0390911660805260a0526100b4565b670e92596fd6290000811015610077576040516397ed5f4160e01b815260040160405180910390fd5b50565b6000806040838503121561008d57600080fd5b82516001600160a01b03811681146100a457600080fd5b6020939093015192949293505050565b60805160a0516111f96100df6000396000818160f40152610458015260006101b001526111f96000f3fe608060405234801561001057600080fd5b50600436106100ea5760003560e01c8063aeffddde1161008c578063d3bfe76a11610066578063d3bfe76a146101fd578063d41ddc9614610210578063e170a9bf14610223578063fa50e5d21461023657600080fd5b8063aeffddde1461018b578063b0e4556f146101ab578063c9111bd7146101ea57600080fd5b80636d75b9ee116100c85780636d75b9ee1461014e57806378415365146101615780637998a1c41461017457806389353a091461017c57600080fd5b80631caff8b1146100ef5780633e032a3b1461012957806369445c3114610139575b600080fd5b6101167f000000000000000000000000000000000000000000000000000000000000000081565b6040519081526020015b60405180910390f35b6040516123288152602001610120565b61014c610147366004610d0f565b610249565b005b61014c61015c366004610d94565b6102a8565b61011661016f366004610dc0565b6102fc565b610116610326565b60405160008152602001610120565b61019e610199366004610dc0565b610397565b6040516101209190610dfd565b6101d27f000000000000000000000000000000000000000000000000000000000000000081565b6040516001600160a01b039091168152602001610120565b61014c6101f8366004610e4a565b6103fa565b61014c61020b366004610eca565b610413565b61014c61021e366004610f03565b61042c565b6101d2610231366004610dc0565b6104ab565b610116610244366004610f28565b6104cd565b60008280602001905181019061025f9190610f8c565b9050600061026c826104d6565b90506102778261053a565b8161028c6001600160a01b03831682886106f4565b6102968387610771565b6102a082826107ce565b505050505050565b6102b18261053a565b60006102bc836104d6565b905060006102ca828461085d565b9050836102e16001600160a01b03841682846106f4565b6102eb8583610771565b6102f583826107ce565b5050505050565b600080828060200190518101906103139190610f8c565b905061031f81336108de565b9392505050565b600060405160200161037c906020808252602a908201527f467261784c656e6420436f6c6c61746572616c2066546f6b656e56322041646160408201526970746f72205620302e3160b01b606082015260800190565b60405160208183030381529060405280519060200120905090565b604080516001808252818301909252606091602080830190803683370190505090506103c2826104ab565b816000815181106103d5576103d5610fa9565b60200260200101906001600160a01b031690816001600160a01b031681525050919050565b604051635f5003c560e11b815260040160405180910390fd5b6104286001600160a01b0383168260006106f4565b5050565b6104358161053a565b61043f828261094d565b600061044a82610980565b905061045682826109ee565b7f000000000000000000000000000000000000000000000000000000000000000011156104a657604051631e7f7dad60e31b81526001600160a01b03831660048201526024015b60405180910390fd5b505050565b600080828060200190518101906104c29190610f8c565b905061031f816104d6565b60005b92915050565b6000816001600160a01b031663c6e1c7c96040518163ffffffff1660e01b8152600401602060405180830381865afa158015610516573d6000803e3d6000fd5b505050506040513d601f19601f820116820180604052508101906104d09190610f8c565b6000610544610326565b604080516001600160a01b03851660208201526000910160408051601f198184030181529082905261057a939291602001610fbf565b6040516020818303038152906040528051906020012090506000306001600160a01b0316637b1039996040518163ffffffff1660e01b8152600401602060405180830381865afa1580156105d2573d6000803e3d6000fd5b505050506040513d601f19601f820116820180604052508101906105f69190610f8c565b6001600160a01b03166309f7abd2836040518263ffffffff1660e01b815260040161062391815260200190565b602060405180830381865afa158015610640573d6000803e3d6000fd5b505050506040513d601f19601f820116820180604052508101906106649190611037565b60405163024eefab60e61b815263ffffffff8216600482015290915030906393bbeac090602401602060405180830381865afa1580156106a8573d6000803e3d6000fd5b505050506040513d601f19601f820116820180604052508101906106cc9190611052565b6104a657604051630673531760e21b81526001600160a01b038416600482015260240161049d565b600060405163095ea7b360e01b8152836004820152826024820152602060006044836000895af13d15601f3d116001600051141617169150508061076b5760405162461bcd60e51b815260206004820152600e60248201526d1054141493d59157d1905253115160921b604482015260640161049d565b50505050565b60405163cadac47960e01b8152600481018290523060248201526001600160a01b0383169063cadac479906044015b600060405180830381600087803b1580156107ba57600080fd5b505af11580156102a0573d6000803e3d6000fd5b604051636eb1769f60e11b81523060048201526001600160a01b0382811660248301526000919084169063dd62ed3e90604401602060405180830381865afa15801561081e573d6000803e3d6000fd5b505050506040513d601f19601f820116820180604052508101906108429190611074565b1115610428576104286001600160a01b0383168260006106f4565b600060001982036108d7576040516370a0823160e01b81523060048201526001600160a01b038416906370a0823190602401602060405180830381865afa1580156108ac573d6000803e3d6000fd5b505050506040513d601f19601f820116820180604052508101906108d09190611074565b90506104d0565b50806104d0565b604051635ad7983160e11b81526001600160a01b0382811660048301526000919084169063b5af3062906024015b602060405180830381865afa158015610929573d6000803e3d6000fd5b505050506040513d601f19601f8201168201806040525081019061031f9190611074565b604051636a0eee4b60e11b8152600481018390523060248201526001600160a01b0382169063d41ddc96906044016107a0565b6000816001600160a01b031663fbbbf94c6040518163ffffffff1660e01b815260040160a060405180830381865afa1580156109c0573d6000803e3d6000fd5b505050506040513d601f19601f820116820180604052508101906109e4919061108d565b6080015192915050565b6000806109fb8430610abb565b90506000610a0c8583600180610aed565b905080600003610a2857670e92596fd6290000925050506104d0565b6000610a3486306108de565b905080600003610a4a57600093505050506104d0565b600080610a5688610b72565b90925090506000838383610a6a8b8961111f565b610a749190611144565b610a7e919061111f565b610a889190611144565b90506000610a958a610be9565b90506000610aac82670de0b6b3a764000085610c4d565b9b9a5050505050505050505050565b604051634fd422df60e01b81526001600160a01b03828116600483015260009190841690634fd422df9060240161090c565b604051637ec4b57160e01b815260048101849052821515602482015281151560448201526000906001600160a01b03861690637ec4b57190606401602060405180830381865afa158015610b45573d6000803e3d6000fd5b505050506040513d601f19601f82011682018060405250810190610b699190611074565b95945050505050565b600080826001600160a01b0316639a295e736040518163ffffffff1660e01b815260040161010060405180830381865afa158015610bb4573d6000803e3d6000fd5b505050506040513d601f19601f82011682018060405250810190610bd89190611166565b509599919850909650505050505050565b6000816001600160a01b031663f384bd056040518163ffffffff1660e01b8152600401602060405180830381865afa158015610c29573d6000803e3d6000fd5b505050506040513d601f19601f820116820180604052508101906104d09190611074565b828202811515841585830485141716610c6557600080fd5b0492915050565b634e487b7160e01b600052604160045260246000fd5b600082601f830112610c9357600080fd5b813567ffffffffffffffff80821115610cae57610cae610c6c565b604051601f8301601f19908116603f01168101908282118183101715610cd657610cd6610c6c565b81604052838152866020858801011115610cef57600080fd5b836020870160208301376000602085830101528094505050505092915050565b600080600060608486031215610d2457600080fd5b83359250602084013567ffffffffffffffff80821115610d4357600080fd5b610d4f87838801610c82565b93506040860135915080821115610d6557600080fd5b50610d7286828701610c82565b9150509250925092565b6001600160a01b0381168114610d9157600080fd5b50565b60008060408385031215610da757600080fd5b8235610db281610d7c565b946020939093013593505050565b600060208284031215610dd257600080fd5b813567ffffffffffffffff811115610de957600080fd5b610df584828501610c82565b949350505050565b6020808252825182820181905260009190848201906040850190845b81811015610e3e5783516001600160a01b031683529284019291840191600101610e19565b50909695505050505050565b60008060008060808587031215610e6057600080fd5b843593506020850135610e7281610d7c565b9250604085013567ffffffffffffffff80821115610e8f57600080fd5b610e9b88838901610c82565b93506060870135915080821115610eb157600080fd5b50610ebe87828801610c82565b91505092959194509250565b60008060408385031215610edd57600080fd5b8235610ee881610d7c565b91506020830135610ef881610d7c565b809150509250929050565b60008060408385031215610f1657600080fd5b823591506020830135610ef881610d7c565b60008060408385031215610f3b57600080fd5b823567ffffffffffffffff80821115610f5357600080fd5b610f5f86838701610c82565b93506020850135915080821115610f7557600080fd5b50610f8285828601610c82565b9150509250929050565b600060208284031215610f9e57600080fd5b815161031f81610d7c565b634e487b7160e01b600052603260045260246000fd5b838152600060208415158184015260606040840152835180606085015260005b81811015610ffb57858101830151858201608001528201610fdf565b506000608082860101526080601f19601f83011685010192505050949350505050565b805163ffffffff8116811461103257600080fd5b919050565b60006020828403121561104957600080fd5b61031f8261101e565b60006020828403121561106457600080fd5b8151801515811461031f57600080fd5b60006020828403121561108657600080fd5b5051919050565b600060a0828403121561109f57600080fd5b60405160a0810181811067ffffffffffffffff821117156110c2576110c2610c6c565b60405282516110d081610d7c565b81526110de6020840161101e565b602082015260408301516001600160b81b03811681146110fd57600080fd5b6040820152606083810151908201526080928301519281019290925250919050565b80820281158282048414176104d057634e487b7160e01b600052601160045260246000fd5b60008261116157634e487b7160e01b600052601260045260246000fd5b500490565b600080600080600080600080610100898b03121561118357600080fd5b505086516020880151604089015160608a015160808b015160a08c015160c08d015160e0909d0151959e949d50929b919a5098509096509450909250905056fea2646970667358221220a758b2990fb2dd13bcbd548a71ed74b10c5fdbf90a365ba8e540fdfe78ad6a5c64736f6c63430008150033",
    "linkReferences": {}
  },
  "methodIdentifiers": {
    "FRAX()": "b0e4556f",
    "addCollateral(address,uint256)": "6d75b9ee",
    "assetOf(bytes)": "e170a9bf",
    "assetsUsed(bytes)": "aeffddde",
    "balanceOf(bytes)": "78415365",
    "deposit(uint256,bytes,bytes)": "69445c31",
    "identifier()": "7998a1c4",
    "isDebt()": "89353a09",
    "minimumHealthFactor()": "1caff8b1",
    "removeCollateral(uint256,address)": "d41ddc96",
    "revokeApproval(address,address)": "d3bfe76a",
    "slippage()": "3e032a3b",
    "withdraw(uint256,address,bytes,bytes)": "c9111bd7",
    "withdrawableFrom(bytes,bytes)": "fa50e5d2"
  },
  "id": 191
}