{
  "abi": [
    {
      "inputs": [
        {
          "internalType": "bool",
          "name": "_accountForInterest",
          "type": "bool"
        },
        {
          "internalType": "address",
          "name": "frax",
          "type": "address"
        }
      ],
      "stateMutability": "nonpayable",
      "type": "constructor"
    },
    {
      "inputs": [],
      "name": "BaseAdaptor__ConstructorHealthFactorTooLow",
      "type": "error"
    },
    {
      "inputs": [],
      "name": "BaseAdaptor__ExternalReceiverBlocked",
      "type": "error"
    },
    {
      "inputs": [
        {
          "internalType": "address",
          "name": "asset",
          "type": "address"
        }
      ],
      "name": "BaseAdaptor__PricingNotSupported",
      "type": "error"
    },
    {
      "inputs": [],
      "name": "BaseAdaptor__Slippage",
      "type": "error"
    },
    {
      "inputs": [],
      "name": "BaseAdaptor__UserDepositsNotAllowed",
      "type": "error"
    },
    {
      "inputs": [],
      "name": "BaseAdaptor__UserWithdrawsNotAllowed",
      "type": "error"
    },
    {
      "inputs": [
        {
          "internalType": "address",
          "name": "fToken",
          "type": "address"
        }
      ],
      "name": "FTokenAdaptor__FTokenPositionsMustBeTracked",
      "type": "error"
    },
    {
      "inputs": [],
      "name": "ACCOUNT_FOR_INTEREST",
      "outputs": [
        {
          "internalType": "bool",
          "name": "",
          "type": "bool"
        }
      ],
      "stateMutability": "view",
      "type": "function"
    },
    {
      "inputs": [],
      "name": "FRAX",
      "outputs": [
        {
          "internalType": "contract ERC20",
          "name": "",
          "type": "address"
        }
      ],
      "stateMutability": "view",
      "type": "function"
    },
    {
      "inputs": [
        {
          "internalType": "bytes",
          "name": "",
          "type": "bytes"
        }
      ],
      "name": "assetOf",
      "outputs": [
        {
          "internalType": "contract ERC20",
          "name": "",
          "type": "address"
        }
      ],
      "stateMutability": "view",
      "type": "function"
    },
    {
      "inputs": [
        {
          "internalType": "bytes",
          "name": "adaptorData",
          "type": "bytes"
        }
      ],
      "name": "assetsUsed",
      "outputs": [
        {
          "internalType": "contract ERC20[]",
          "name": "assets",
          "type": "address[]"
        }
      ],
      "stateMutability": "view",
      "type": "function"
    },
    {
      "inputs": [
        {
          "internalType": "bytes",
          "name": "adaptorData",
          "type": "bytes"
        }
      ],
      "name": "balanceOf",
      "outputs": [
        {
          "internalType": "uint256",
          "name": "",
          "type": "uint256"
        }
      ],
      "stateMutability": "view",
      "type": "function"
    },
    {
      "inputs": [
        {
          "internalType": "contract IFToken",
          "name": "fToken",
          "type": "address"
        }
      ],
      "name": "callAddInterest",
      "outputs": [],
      "stateMutability": "nonpayable",
      "type": "function"
    },
    {
      "inputs": [
        {
          "internalType": "uint256",
          "name": "assets",
          "type": "uint256"
        },
        {
          "internalType": "bytes",
          "name": "adaptorData",
          "type": "bytes"
        },
        {
          "internalType": "bytes",
          "name": "",
          "type": "bytes"
        }
      ],
      "name": "deposit",
      "outputs": [],
      "stateMutability": "nonpayable",
      "type": "function"
    },
    {
      "inputs": [],
      "name": "identifier",
      "outputs": [
        {
          "internalType": "bytes32",
          "name": "",
          "type": "bytes32"
        }
      ],
      "stateMutability": "pure",
      "type": "function"
    },
    {
      "inputs": [],
      "name": "isDebt",
      "outputs": [
        {
          "internalType": "bool",
          "name": "",
          "type": "bool"
        }
      ],
      "stateMutability": "pure",
      "type": "function"
    },
    {
      "inputs": [
        {
          "internalType": "contract IFToken",
          "name": "fToken",
          "type": "address"
        },
        {
          "internalType": "uint256",
          "name": "amountToDeposit",
          "type": "uint256"
        }
      ],
      "name": "lendFrax",
      "outputs": [],
      "stateMutability": "nonpayable",
      "type": "function"
    },
    {
      "inputs": [
        {
          "internalType": "contract IFToken",
          "name": "fToken",
          "type": "address"
        },
        {
          "internalType": "uint256",
          "name": "amountToRedeem",
          "type": "uint256"
        }
      ],
      "name": "redeemFraxShare",
      "outputs": [],
      "stateMutability": "nonpayable",
      "type": "function"
    },
    {
      "inputs": [
        {
          "internalType": "contract ERC20",
          "name": "asset",
          "type": "address"
        },
        {
          "internalType": "address",
          "name": "spender",
          "type": "address"
        }
      ],
      "name": "revokeApproval",
      "outputs": [],
      "stateMutability": "nonpayable",
      "type": "function"
    },
    {
      "inputs": [],
      "name": "slippage",
      "outputs": [
        {
          "internalType": "uint32",
          "name": "",
          "type": "uint32"
        }
      ],
      "stateMutability": "pure",
      "type": "function"
    },
    {
      "inputs": [
        {
          "internalType": "uint256",
          "name": "assets",
          "type": "uint256"
        },
        {
          "internalType": "address",
          "name": "receiver",
          "type": "address"
        },
        {
          "internalType": "bytes",
          "name": "adaptorData",
          "type": "bytes"
        },
        {
          "internalType": "bytes",
          "name": "",
          "type": "bytes"
        }
      ],
      "name": "withdraw",
      "outputs": [],
      "stateMutability": "nonpayable",
      "type": "function"
    },
    {
      "inputs": [
        {
          "internalType": "contract IFToken",
          "name": "fToken",
          "type": "address"
        },
        {
          "internalType": "uint256",
          "name": "amountToWithdraw",
          "type": "uint256"
        }
      ],
      "name": "withdrawFrax",
      "outputs": [],
      "stateMutability": "nonpayable",
      "type": "function"
    },
    {
      "inputs": [
        {
          "internalType": "bytes",
          "name": "adaptorData",
          "type": "bytes"
        },
        {
          "internalType": "bytes",
          "name": "",
          "type": "bytes"
        }
      ],
      "name": "withdrawableFrom",
      "outputs": [
        {
          "internalType": "uint256",
          "name": "withdrawableFrax",
          "type": "uint256"
        }
      ],
      "stateMutability": "view",
      "type": "function"
    }
  ],
  "bytecode": {
    "object": "0x60c060405234801561001057600080fd5b5060405161144838038061144883398101604081905261002f91610046565b9015156080526001600160a01b031660a052610091565b6000806040838503121561005957600080fd5b8251801515811461006957600080fd5b60208401519092506001600160a01b038116811461008657600080fd5b809150509250929050565b60805160a05161135a6100ee600039600081816101f401528181610265015281816102f70152818161032e0152818161037c015281816103b0015281816103e701526104e401526000818161010a0152610437015261135a6000f3fe608060405234801561001057600080fd5b50600436106101005760003560e01c806389353a0911610097578063d3bfe76a11610066578063d3bfe76a14610241578063e170a9bf14610254578063f815ada414610287578063fa50e5d21461029a57600080fd5b806389353a09146101c8578063aeffddde146101cf578063b0e4556f146101ef578063c9111bd71461022e57600080fd5b80636dd659fd116100d35780636dd659fd14610179578063726bb0841461018c578063784153651461019f5780637998a1c4146101c057600080fd5b806319877557146101055780633e032a3b1461014157806361b14c981461015157806369445c3114610166575b600080fd5b61012c7f000000000000000000000000000000000000000000000000000000000000000081565b60405190151581526020015b60405180910390f35b6040516123288152602001610138565b61016461015f366004610d14565b6102ad565b005b610164610174366004610e0c565b6102d2565b610164610187366004610e79565b610359565b61016461019a366004610d14565b61036e565b6101b26101ad366004610e96565b61040c565b604051908152602001610138565b6101b2610462565b600061012c565b6101e26101dd366004610e96565b6104c0565b6040516101389190610ed3565b6102167f000000000000000000000000000000000000000000000000000000000000000081565b6040516001600160a01b039091168152602001610138565b61016461023c366004610f20565b61053b565b61016461024f366004610fa0565b61056f565b610216610262366004610e96565b507f000000000000000000000000000000000000000000000000000000000000000090565b610164610295366004610d14565b610584565b6101b26102a8366004610fd9565b610599565b6102b682610630565b6102c082826107f4565b90506102ce82823030610875565b5050565b6000828060200190518101906102e8919061103d565b905061031e6001600160a01b037f00000000000000000000000000000000000000000000000000000000000000001682866108e6565b61032981853061095d565b6103537f0000000000000000000000000000000000000000000000000000000000000000826109c4565b50505050565b61036281610630565b61036b81610a53565b50565b61037782610630565b6103a17f0000000000000000000000000000000000000000000000000000000000000000826107f4565b90506103d76001600160a01b037f00000000000000000000000000000000000000000000000000000000000000001683836108e6565b6103e282823061095d565b6102ce7f0000000000000000000000000000000000000000000000000000000000000000836109c4565b60008082806020019051810190610423919061103d565b905061045b816104338333610abf565b60007f0000000000000000000000000000000000000000000000000000000000000000610b2d565b9392505050565b60006040516020016104a5906020808252601d908201527f467261784c656e642066546f6b656e2041646170746f72205620302e31000000604082015260600190565b60405160208183030381529060405280519060200120905090565b604080516001808252818301909252606091602080830190803683370190505090507f0000000000000000000000000000000000000000000000000000000000000000816000815181106105165761051661105a565b60200260200101906001600160a01b031690816001600160a01b031681525050919050565b61054483610bb2565b60008280602001905181019061055a919061103d565b905061056881868630610c46565b5050505050565b6102ce6001600160a01b0383168260006108e6565b61058d82610630565b6102ce82823030610c46565b600080838060200190518101906105b0919061103d565b90506000806105be83610c83565b50509250509150816001600160801b0316816001600160801b0316106105ea576000935050505061062a565b60006105f68284611070565b6001600160801b031690506000610611856104338733610abf565b90508181116106205780610622565b815b955050505050505b92915050565b600061063a610462565b604080516001600160a01b03851660208201526000910160408051601f19818403018152908290526106709392916020016110a5565b6040516020818303038152906040528051906020012090506000306001600160a01b0316637b1039996040518163ffffffff1660e01b8152600401602060405180830381865afa1580156106c8573d6000803e3d6000fd5b505050506040513d601f19601f820116820180604052508101906106ec919061103d565b6001600160a01b03166309f7abd2836040518263ffffffff1660e01b815260040161071991815260200190565b602060405180830381865afa158015610736573d6000803e3d6000fd5b505050506040513d601f19601f8201168201806040525081019061075a919061111d565b60405163024eefab60e61b815263ffffffff8216600482015290915030906393bbeac090602401602060405180830381865afa15801561079e573d6000803e3d6000fd5b505050506040513d601f19601f820116820180604052508101906107c29190611138565b6107ef57604051630e3ce2dd60e41b81526001600160a01b03841660048201526024015b60405180910390fd5b505050565b6000600019820361086e576040516370a0823160e01b81523060048201526001600160a01b038416906370a0823190602401602060405180830381865afa158015610843573d6000803e3d6000fd5b505050506040513d601f19601f82011682018060405250810190610867919061115a565b905061062a565b508061062a565b604051635d043b2960e11b8152600481018490526001600160a01b038381166024830152828116604483015285169063ba087652906064015b600060405180830381600087803b1580156108c857600080fd5b505af11580156108dc573d6000803e3d6000fd5b5050505050505050565b600060405163095ea7b360e01b8152836004820152826024820152602060006044836000895af13d15601f3d11600160005114161716915050806103535760405162461bcd60e51b815260206004820152600e60248201526d1054141493d59157d1905253115160921b60448201526064016107e6565b604051636e553f6560e01b8152600481018390526001600160a01b038281166024830152841690636e553f6590604401600060405180830381600087803b1580156109a757600080fd5b505af11580156109bb573d6000803e3d6000fd5b50505050505050565b604051636eb1769f60e11b81523060048201526001600160a01b0382811660248301526000919084169063dd62ed3e90604401602060405180830381865afa158015610a14573d6000803e3d6000fd5b505050506040513d601f19601f82011682018060405250810190610a38919061115a565b11156102ce576102ce6001600160a01b0383168260006108e6565b604051631c6c959760e01b8152600060048201526001600160a01b03821690631c6c959790602401610180604051808303816000875af1158015610a9b573d6000803e3d6000fd5b505050506040513d601f19601f820116820180604052508101906109bb9190611200565b6040516370a0823160e01b81526001600160a01b038281166004830152600091908416906370a0823190602401602060405180830381865afa158015610b09573d6000803e3d6000fd5b505050506040513d601f19601f8201168201806040525081019061045b919061115a565b604051637d37bdd760e01b815260048101849052821515602482015281151560448201526000906001600160a01b03861690637d37bdd790606401602060405180830381865afa158015610b85573d6000803e3d6000fd5b505050506040513d601f19601f82011682018060405250810190610ba9919061115a565b95945050505050565b6001600160a01b0381163014801590610c285750306001600160a01b0316634c4602da6040518163ffffffff1660e01b8152600401602060405180830381865afa158015610c04573d6000803e3d6000fd5b505050506040513d601f19601f82011682018060405250810190610c289190611138565b1561036b576040516307de9b5160e21b815260040160405180910390fd5b604051632d182be560e21b8152600481018490526001600160a01b038381166024830152828116604483015285169063b460af94906064016108ae565b6000806000806000856001600160a01b031663cdd72d526040518163ffffffff1660e01b815260040160a060405180830381865afa158015610cc9573d6000803e3d6000fd5b505050506040513d601f19601f82011682018060405250810190610ced91906112c6565b939a9299509097509550909350915050565b6001600160a01b038116811461036b57600080fd5b60008060408385031215610d2757600080fd5b8235610d3281610cff565b946020939093013593505050565b634e487b7160e01b600052604160045260246000fd5b60405160a0810167ffffffffffffffff81118282101715610d7957610d79610d40565b60405290565b600082601f830112610d9057600080fd5b813567ffffffffffffffff80821115610dab57610dab610d40565b604051601f8301601f19908116603f01168101908282118183101715610dd357610dd3610d40565b81604052838152866020858801011115610dec57600080fd5b836020870160208301376000602085830101528094505050505092915050565b600080600060608486031215610e2157600080fd5b83359250602084013567ffffffffffffffff80821115610e4057600080fd5b610e4c87838801610d7f565b93506040860135915080821115610e6257600080fd5b50610e6f86828701610d7f565b9150509250925092565b600060208284031215610e8b57600080fd5b813561045b81610cff565b600060208284031215610ea857600080fd5b813567ffffffffffffffff811115610ebf57600080fd5b610ecb84828501610d7f565b949350505050565b6020808252825182820181905260009190848201906040850190845b81811015610f145783516001600160a01b031683529284019291840191600101610eef565b50909695505050505050565b60008060008060808587031215610f3657600080fd5b843593506020850135610f4881610cff565b9250604085013567ffffffffffffffff80821115610f6557600080fd5b610f7188838901610d7f565b93506060870135915080821115610f8757600080fd5b50610f9487828801610d7f565b91505092959194509250565b60008060408385031215610fb357600080fd5b8235610fbe81610cff565b91506020830135610fce81610cff565b809150509250929050565b60008060408385031215610fec57600080fd5b823567ffffffffffffffff8082111561100457600080fd5b61101086838701610d7f565b9350602085013591508082111561102657600080fd5b5061103385828601610d7f565b9150509250929050565b60006020828403121561104f57600080fd5b815161045b81610cff565b634e487b7160e01b600052603260045260246000fd5b6001600160801b0382811682821603908082111561109e57634e487b7160e01b600052601160045260246000fd5b5092915050565b838152600060208415158184015260606040840152835180606085015260005b818110156110e1578581018301518582016080015282016110c5565b506000608082860101526080601f19601f83011685010192505050949350505050565b805163ffffffff8116811461111857600080fd5b919050565b60006020828403121561112f57600080fd5b61045b82611104565b60006020828403121561114a57600080fd5b8151801515811461045b57600080fd5b60006020828403121561116c57600080fd5b5051919050565b805167ffffffffffffffff8116811461111857600080fd5b80516001600160801b038116811461111857600080fd5b6000604082840312156111b457600080fd5b6040516040810181811067ffffffffffffffff821117156111d7576111d7610d40565b6040529050806111e68361118b565b81526111f46020840161118b565b60208201525092915050565b60008060008060008086880361018081121561121b57600080fd5b87519650602088015195506040880151945060a0605f198201121561123f57600080fd5b50611248610d56565b61125460608901611104565b815261126260808901611104565b602082015261127360a08901611173565b604082015261128460c08901611173565b606082015261129560e08901611173565b608082015292506112aa8861010089016111a2565b91506112ba8861014089016111a2565b90509295509295509295565b600080600080600060a086880312156112de57600080fd5b6112e78661118b565b94506112f56020870161118b565b93506113036040870161118b565b92506113116060870161118b565b915060808601519050929550929590935056fea2646970667358221220a902d18bf15d81ec62372b502518f72341b81ca8a2443f176dfdca8da0a64d6b64736f6c63430008100033",
    "linkReferences": {}
  },
  "methodIdentifiers": {
    "ACCOUNT_FOR_INTEREST()": "19877557",
    "FRAX()": "b0e4556f",
    "assetOf(bytes)": "e170a9bf",
    "assetsUsed(bytes)": "aeffddde",
    "balanceOf(bytes)": "78415365",
    "callAddInterest(address)": "6dd659fd",
    "deposit(uint256,bytes,bytes)": "69445c31",
    "identifier()": "7998a1c4",
    "isDebt()": "89353a09",
    "lendFrax(address,uint256)": "726bb084",
    "redeemFraxShare(address,uint256)": "61b14c98",
    "revokeApproval(address,address)": "d3bfe76a",
    "slippage()": "3e032a3b",
    "withdraw(uint256,address,bytes,bytes)": "c9111bd7",
    "withdrawFrax(address,uint256)": "f815ada4",
    "withdrawableFrom(bytes,bytes)": "fa50e5d2"
  },
  "id": 195
}