{
  "abi": [
    {
      "inputs": [
        {
          "internalType": "address",
          "name": "_morpho",
          "type": "address"
        },
        {
          "internalType": "uint256",
          "name": "minHealthFactor",
          "type": "uint256"
        },
        {
          "internalType": "address",
          "name": "rewardDistributor",
          "type": "address"
        }
      ],
      "stateMutability": "nonpayable",
      "type": "constructor"
    },
    {
      "inputs": [],
      "name": "BaseAdaptor__ConstructorHealthFactorTooLow",
      "type": "error"
    },
    {
      "inputs": [],
      "name": "BaseAdaptor__ExternalReceiverBlocked",
      "type": "error"
    },
    {
      "inputs": [
        {
          "internalType": "address",
          "name": "asset",
          "type": "address"
        }
      ],
      "name": "BaseAdaptor__PricingNotSupported",
      "type": "error"
    },
    {
      "inputs": [],
      "name": "BaseAdaptor__Slippage",
      "type": "error"
    },
    {
      "inputs": [],
      "name": "BaseAdaptor__UserDepositsNotAllowed",
      "type": "error"
    },
    {
      "inputs": [],
      "name": "BaseAdaptor__UserWithdrawsNotAllowed",
      "type": "error"
    },
    {
      "inputs": [],
      "name": "MorphoAaveV3ATokenCollateralAdaptor__HealthFactorTooLow",
      "type": "error"
    },
    {
      "inputs": [
        {
          "internalType": "bytes",
          "name": "adaptorData",
          "type": "bytes"
        }
      ],
      "name": "assetOf",
      "outputs": [
        {
          "internalType": "contract ERC20",
          "name": "",
          "type": "address"
        }
      ],
      "stateMutability": "pure",
      "type": "function"
    },
    {
      "inputs": [
        {
          "internalType": "bytes",
          "name": "adaptorData",
          "type": "bytes"
        }
      ],
      "name": "assetsUsed",
      "outputs": [
        {
          "internalType": "contract ERC20[]",
          "name": "assets",
          "type": "address[]"
        }
      ],
      "stateMutability": "view",
      "type": "function"
    },
    {
      "inputs": [
        {
          "internalType": "bytes",
          "name": "adaptorData",
          "type": "bytes"
        }
      ],
      "name": "balanceOf",
      "outputs": [
        {
          "internalType": "uint256",
          "name": "",
          "type": "uint256"
        }
      ],
      "stateMutability": "view",
      "type": "function"
    },
    {
      "inputs": [
        {
          "internalType": "uint256",
          "name": "claimable",
          "type": "uint256"
        },
        {
          "internalType": "bytes32[]",
          "name": "proof",
          "type": "bytes32[]"
        }
      ],
      "name": "claim",
      "outputs": [],
      "stateMutability": "nonpayable",
      "type": "function"
    },
    {
      "inputs": [
        {
          "internalType": "uint256",
          "name": "assets",
          "type": "uint256"
        },
        {
          "internalType": "bytes",
          "name": "adaptorData",
          "type": "bytes"
        },
        {
          "internalType": "bytes",
          "name": "",
          "type": "bytes"
        }
      ],
      "name": "deposit",
      "outputs": [],
      "stateMutability": "nonpayable",
      "type": "function"
    },
    {
      "inputs": [
        {
          "internalType": "contract ERC20",
          "name": "tokenToDeposit",
          "type": "address"
        },
        {
          "internalType": "uint256",
          "name": "amountToDeposit",
          "type": "uint256"
        }
      ],
      "name": "depositToAaveV3Morpho",
      "outputs": [],
      "stateMutability": "nonpayable",
      "type": "function"
    },
    {
      "inputs": [],
      "name": "identifier",
      "outputs": [
        {
          "internalType": "bytes32",
          "name": "",
          "type": "bytes32"
        }
      ],
      "stateMutability": "pure",
      "type": "function"
    },
    {
      "inputs": [],
      "name": "isDebt",
      "outputs": [
        {
          "internalType": "bool",
          "name": "",
          "type": "bool"
        }
      ],
      "stateMutability": "pure",
      "type": "function"
    },
    {
      "inputs": [],
      "name": "minimumHealthFactor",
      "outputs": [
        {
          "internalType": "uint256",
          "name": "",
          "type": "uint256"
        }
      ],
      "stateMutability": "view",
      "type": "function"
    },
    {
      "inputs": [],
      "name": "morpho",
      "outputs": [
        {
          "internalType": "contract IMorphoV3",
          "name": "",
          "type": "address"
        }
      ],
      "stateMutability": "view",
      "type": "function"
    },
    {
      "inputs": [],
      "name": "morphoRewardsDistributor",
      "outputs": [
        {
          "internalType": "contract RewardsDistributor",
          "name": "",
          "type": "address"
        }
      ],
      "stateMutability": "view",
      "type": "function"
    },
    {
      "inputs": [
        {
          "internalType": "contract ERC20",
          "name": "asset",
          "type": "address"
        },
        {
          "internalType": "address",
          "name": "spender",
          "type": "address"
        }
      ],
      "name": "revokeApproval",
      "outputs": [],
      "stateMutability": "nonpayable",
      "type": "function"
    },
    {
      "inputs": [],
      "name": "slippage",
      "outputs": [
        {
          "internalType": "uint32",
          "name": "",
          "type": "uint32"
        }
      ],
      "stateMutability": "pure",
      "type": "function"
    },
    {
      "inputs": [
        {
          "internalType": "uint256",
          "name": "assets",
          "type": "uint256"
        },
        {
          "internalType": "address",
          "name": "receiver",
          "type": "address"
        },
        {
          "internalType": "bytes",
          "name": "adaptorData",
          "type": "bytes"
        },
        {
          "internalType": "bytes",
          "name": "",
          "type": "bytes"
        }
      ],
      "name": "withdraw",
      "outputs": [],
      "stateMutability": "nonpayable",
      "type": "function"
    },
    {
      "inputs": [
        {
          "internalType": "contract ERC20",
          "name": "tokenToWithdraw",
          "type": "address"
        },
        {
          "internalType": "uint256",
          "name": "amountToWithdraw",
          "type": "uint256"
        }
      ],
      "name": "withdrawFromAaveV3Morpho",
      "outputs": [],
      "stateMutability": "nonpayable",
      "type": "function"
    },
    {
      "inputs": [
        {
          "internalType": "bytes",
          "name": "adaptorData",
          "type": "bytes"
        },
        {
          "internalType": "bytes",
          "name": "",
          "type": "bytes"
        }
      ],
      "name": "withdrawableFrom",
      "outputs": [
        {
          "internalType": "uint256",
          "name": "",
          "type": "uint256"
        }
      ],
      "stateMutability": "view",
      "type": "function"
    }
  ],
  "bytecode": {
    "object": "0x60e06040523480156200001157600080fd5b5060405162001518380380620015188339810160408190526200003491620000ae565b6001600160a01b0381166080526200004c8262000064565b506001600160a01b0390911660a05260c052620000ef565b670e92596fd62900008110156200008e576040516397ed5f4160e01b815260040160405180910390fd5b50565b80516001600160a01b0381168114620000a957600080fd5b919050565b600080600060608486031215620000c457600080fd5b620000cf8462000091565b925060208401519150620000e66040850162000091565b90509250925092565b60805160a05160c051611390620001886000396000818161010a01526103f001526000818161025101528181610352015281816103c70152818161044f015281816104a00152818161051401528181610563015281816105b40152818161062801528181610691015281816107fe015281816108e5015281816109ab0152610a6c01526000818161018f01526102b001526113906000f3fe608060405234801561001057600080fd5b50600436106101005760003560e01c80637998a1c411610097578063d3bfe76a11610066578063d3bfe76a14610239578063d8fbc8331461024c578063e170a9bf14610273578063fa50e5d21461028657600080fd5b80637998a1c4146101ef57806389353a09146101f7578063aeffddde14610206578063c9111bd71461022657600080fd5b806353cbf54c116100d357806353cbf54c146101775780635b5d4d781461018a57806369445c31146101c957806378415365146101dc57600080fd5b80631caff8b1146101055780632f52ebb71461013f57806337761272146101545780633e032a3b14610167575b600080fd5b61012c7f000000000000000000000000000000000000000000000000000000000000000081565b6040519081526020015b60405180910390f35b61015261014d366004610e3a565b610299565b005b610152610162366004610ef1565b61031f565b6040516123288152602001610136565b610152610185366004610ef1565b610434565b6101b17f000000000000000000000000000000000000000000000000000000000000000081565b6040516001600160a01b039091168152602001610136565b6101526101d7366004610f8d565b61053c565b61012c6101ea366004610ffa565b610652565b61012c610705565b60405160008152602001610136565b610219610214366004610ffa565b61077a565b604051610136919061102f565b61015261023436600461107c565b6107dd565b6101526102473660046110fc565b61095d565b6101b17f000000000000000000000000000000000000000000000000000000000000000081565b6101b1610281366004610ffa565b610972565b61012c610294366004611135565b610989565b604051630f44fe1d60e21b81526001600160a01b037f00000000000000000000000000000000000000000000000000000000000000001690633d13f874906102e990309086908690600401611199565b600060405180830381600087803b15801561030357600080fd5b505af1158015610317573d6000803e3d6000fd5b505050505050565b604051632bbccf0160e01b81526001600160a01b03838116600483015260248201839052306044830181905260648301527f00000000000000000000000000000000000000000000000000000000000000001690632bbccf01906084016020604051808303816000875af115801561039b573d6000803e3d6000fd5b505050506040513d601f19601f820116820180604052508101906103bf91906111f6565b5060006103ec7f000000000000000000000000000000000000000000000000000000000000000030610ae4565b90507f000000000000000000000000000000000000000000000000000000000000000081101561042f57604051631976ce1360e31b815260040160405180910390fd5b505050565b61043e8282610b8e565b90506104746001600160a01b0383167f000000000000000000000000000000000000000000000000000000000000000083610c0f565b604051636c887d3360e11b81526001600160a01b038381166004830152602482018390523060448301527f0000000000000000000000000000000000000000000000000000000000000000169063d910fa66906064016020604051808303816000875af11580156104e9573d6000803e3d6000fd5b505050506040513d601f19601f8201168201806040525081019061050d91906111f6565b50610538827f0000000000000000000000000000000000000000000000000000000000000000610c8a565b5050565b600082806020019051810190610552919061120f565b90506105886001600160a01b0382167f000000000000000000000000000000000000000000000000000000000000000086610c0f565b604051636c887d3360e11b81526001600160a01b038281166004830152602482018690523060448301527f0000000000000000000000000000000000000000000000000000000000000000169063d910fa66906064016020604051808303816000875af11580156105fd573d6000803e3d6000fd5b505050506040513d601f19601f8201168201806040525081019061062191906111f6565b5061064c817f0000000000000000000000000000000000000000000000000000000000000000610c8a565b50505050565b60008082806020019051810190610669919061120f565b60405163e7602b9d60e01b81526001600160a01b0380831660048301523360248301529192507f00000000000000000000000000000000000000000000000000000000000000009091169063e7602b9d90604401602060405180830381865afa1580156106da573d6000803e3d6000fd5b505050506040513d601f19601f820116820180604052508101906106fe91906111f6565b9392505050565b600060405160200161075f906020808252602e908201527f4d6f7270686f20416176652056332061546f6b656e20436f6c6c61746572616c60408201526d1020b230b83a37b9102b1018971960911b606082015260800190565b60405160208183030381529060405280519060200120905090565b604080516001808252818301909252606091602080830190803683370190505090506107a582610972565b816000815181106107b8576107b861122c565b60200260200101906001600160a01b031690816001600160a01b031681525050919050565b6107e683610d19565b604051631dd64f3160e21b81523060048201526000907f00000000000000000000000000000000000000000000000000000000000000006001600160a01b0316906377593cc490602401600060405180830381865afa15801561084d573d6000803e3d6000fd5b505050506040513d6000823e601f3d908101601f191682016040526108759190810190611242565b80519091501561089857604051635f5003c560e11b815260040160405180910390fd5b6000838060200190518101906108ae919061120f565b604051632bbccf0160e01b81526001600160a01b0380831660048301526024820189905230604483015287811660648301529192507f000000000000000000000000000000000000000000000000000000000000000090911690632bbccf01906084016020604051808303816000875af1158015610930573d6000803e3d6000fd5b505050506040513d601f19601f8201168201806040525081019061095491906111f6565b50505050505050565b6105386001600160a01b038316826000610c0f565b600080828060200190518101906106fe919061120f565b604051631dd64f3160e21b815233600482015260009081906001600160a01b037f000000000000000000000000000000000000000000000000000000000000000016906377593cc490602401600060405180830381865afa1580156109f2573d6000803e3d6000fd5b505050506040513d6000823e601f3d908101601f19168201604052610a1a9190810190611242565b805190915015610a2e576000915050610ade565b600084806020019051810190610a44919061120f565b60405163e7602b9d60e01b81526001600160a01b0380831660048301523360248301529192507f00000000000000000000000000000000000000000000000000000000000000009091169063e7602b9d90604401602060405180830381865afa158015610ab5573d6000803e3d6000fd5b505050506040513d601f19601f82011682018060405250810190610ad991906111f6565b925050505b92915050565b604051632459428560e11b81526001600160a01b03828116600483015260009182918516906348b2850a90602401606060405180830381865afa158015610b2f573d6000803e3d6000fd5b505050506040513d601f19601f82011682018060405250810190610b5391906112dc565b90506000816040015111610b6957600019610b86565b60208101516040820151610b8691670de0b6b3a764000091610db0565b949350505050565b60006000198203610c08576040516370a0823160e01b81523060048201526001600160a01b038416906370a0823190602401602060405180830381865afa158015610bdd573d6000803e3d6000fd5b505050506040513d601f19601f82011682018060405250810190610c0191906111f6565b9050610ade565b5080610ade565b600060405163095ea7b360e01b8152836004820152826024820152602060006044836000895af13d15601f3d116001600051141617169150508061064c5760405162461bcd60e51b815260206004820152600e60248201526d1054141493d59157d1905253115160921b604482015260640160405180910390fd5b604051636eb1769f60e11b81523060048201526001600160a01b0382811660248301526000919084169063dd62ed3e90604401602060405180830381865afa158015610cda573d6000803e3d6000fd5b505050506040513d601f19601f82011682018060405250810190610cfe91906111f6565b1115610538576105386001600160a01b038316826000610c0f565b6001600160a01b0381163014801590610d8f5750306001600160a01b0316634c4602da6040518163ffffffff1660e01b8152600401602060405180830381865afa158015610d6b573d6000803e3d6000fd5b505050506040513d601f19601f82011682018060405250810190610d8f9190611338565b15610dad576040516307de9b5160e21b815260040160405180910390fd5b50565b828202811515841585830485141716610dc857600080fd5b0492915050565b634e487b7160e01b600052604160045260246000fd5b604051601f8201601f1916810167ffffffffffffffff81118282101715610e0e57610e0e610dcf565b604052919050565b600067ffffffffffffffff821115610e3057610e30610dcf565b5060051b60200190565b60008060408385031215610e4d57600080fd5b8235915060208084013567ffffffffffffffff811115610e6c57600080fd5b8401601f81018613610e7d57600080fd5b8035610e90610e8b82610e16565b610de5565b81815260059190911b82018301908381019088831115610eaf57600080fd5b928401925b82841015610ecd57833582529284019290840190610eb4565b80955050505050509250929050565b6001600160a01b0381168114610dad57600080fd5b60008060408385031215610f0457600080fd5b8235610f0f81610edc565b946020939093013593505050565b600082601f830112610f2e57600080fd5b813567ffffffffffffffff811115610f4857610f48610dcf565b610f5b601f8201601f1916602001610de5565b818152846020838601011115610f7057600080fd5b816020850160208301376000918101602001919091529392505050565b600080600060608486031215610fa257600080fd5b83359250602084013567ffffffffffffffff80821115610fc157600080fd5b610fcd87838801610f1d565b93506040860135915080821115610fe357600080fd5b50610ff086828701610f1d565b9150509250925092565b60006020828403121561100c57600080fd5b813567ffffffffffffffff81111561102357600080fd5b610b8684828501610f1d565b6020808252825182820181905260009190848201906040850190845b818110156110705783516001600160a01b03168352928401929184019160010161104b565b50909695505050505050565b6000806000806080858703121561109257600080fd5b8435935060208501356110a481610edc565b9250604085013567ffffffffffffffff808211156110c157600080fd5b6110cd88838901610f1d565b935060608701359150808211156110e357600080fd5b506110f087828801610f1d565b91505092959194509250565b6000806040838503121561110f57600080fd5b823561111a81610edc565b9150602083013561112a81610edc565b809150509250929050565b6000806040838503121561114857600080fd5b823567ffffffffffffffff8082111561116057600080fd5b61116c86838701610f1d565b9350602085013591508082111561118257600080fd5b5061118f85828601610f1d565b9150509250929050565b6001600160a01b038416815260208082018490526060604083018190528351908301819052600091848101916080850190845b818110156111e8578451835293830193918301916001016111cc565b509098975050505050505050565b60006020828403121561120857600080fd5b5051919050565b60006020828403121561122157600080fd5b81516106fe81610edc565b634e487b7160e01b600052603260045260246000fd5b6000602080838503121561125557600080fd5b825167ffffffffffffffff81111561126c57600080fd5b8301601f8101851361127d57600080fd5b805161128b610e8b82610e16565b81815260059190911b820183019083810190878311156112aa57600080fd5b928401925b828410156112d15783516112c281610edc565b825292840192908401906112af565b979650505050505050565b6000606082840312156112ee57600080fd5b6040516060810181811067ffffffffffffffff8211171561131157611311610dcf565b80604052508251815260208301516020820152604083015160408201528091505092915050565b60006020828403121561134a57600080fd5b815180151581146106fe57600080fdfea264697066735822122022fe2e674f50c4799da7354f6ba002f00b78639102020302980a5c158bc7557164736f6c63430008100033",
    "linkReferences": {}
  },
  "methodIdentifiers": {
    "assetOf(bytes)": "e170a9bf",
    "assetsUsed(bytes)": "aeffddde",
    "balanceOf(bytes)": "78415365",
    "claim(uint256,bytes32[])": "2f52ebb7",
    "deposit(uint256,bytes,bytes)": "69445c31",
    "depositToAaveV3Morpho(address,uint256)": "53cbf54c",
    "identifier()": "7998a1c4",
    "isDebt()": "89353a09",
    "minimumHealthFactor()": "1caff8b1",
    "morpho()": "d8fbc833",
    "morphoRewardsDistributor()": "5b5d4d78",
    "revokeApproval(address,address)": "d3bfe76a",
    "slippage()": "3e032a3b",
    "withdraw(uint256,address,bytes,bytes)": "c9111bd7",
    "withdrawFromAaveV3Morpho(address,uint256)": "37761272",
    "withdrawableFrom(bytes,bytes)": "fa50e5d2"
  },
  "id": 199
}