{
  "abi": [
    {
      "inputs": [
        {
          "internalType": "address",
          "name": "_morpho",
          "type": "address"
        },
        {
          "internalType": "address",
          "name": "rewardDistributor",
          "type": "address"
        }
      ],
      "stateMutability": "nonpayable",
      "type": "constructor"
    },
    {
      "inputs": [],
      "name": "BaseAdaptor__ConstructorHealthFactorTooLow",
      "type": "error"
    },
    {
      "inputs": [],
      "name": "BaseAdaptor__ExternalReceiverBlocked",
      "type": "error"
    },
    {
      "inputs": [
        {
          "internalType": "address",
          "name": "asset",
          "type": "address"
        }
      ],
      "name": "BaseAdaptor__PricingNotSupported",
      "type": "error"
    },
    {
      "inputs": [],
      "name": "BaseAdaptor__Slippage",
      "type": "error"
    },
    {
      "inputs": [],
      "name": "BaseAdaptor__UserDepositsNotAllowed",
      "type": "error"
    },
    {
      "inputs": [],
      "name": "BaseAdaptor__UserWithdrawsNotAllowed",
      "type": "error"
    },
    {
      "inputs": [
        {
          "internalType": "bytes",
          "name": "adaptorData",
          "type": "bytes"
        }
      ],
      "name": "assetOf",
      "outputs": [
        {
          "internalType": "contract ERC20",
          "name": "",
          "type": "address"
        }
      ],
      "stateMutability": "pure",
      "type": "function"
    },
    {
      "inputs": [
        {
          "internalType": "bytes",
          "name": "adaptorData",
          "type": "bytes"
        }
      ],
      "name": "assetsUsed",
      "outputs": [
        {
          "internalType": "contract ERC20[]",
          "name": "assets",
          "type": "address[]"
        }
      ],
      "stateMutability": "view",
      "type": "function"
    },
    {
      "inputs": [
        {
          "internalType": "bytes",
          "name": "adaptorData",
          "type": "bytes"
        }
      ],
      "name": "balanceOf",
      "outputs": [
        {
          "internalType": "uint256",
          "name": "",
          "type": "uint256"
        }
      ],
      "stateMutability": "view",
      "type": "function"
    },
    {
      "inputs": [
        {
          "internalType": "uint256",
          "name": "claimable",
          "type": "uint256"
        },
        {
          "internalType": "bytes32[]",
          "name": "proof",
          "type": "bytes32[]"
        }
      ],
      "name": "claim",
      "outputs": [],
      "stateMutability": "nonpayable",
      "type": "function"
    },
    {
      "inputs": [
        {
          "internalType": "uint256",
          "name": "assets",
          "type": "uint256"
        },
        {
          "internalType": "bytes",
          "name": "adaptorData",
          "type": "bytes"
        },
        {
          "internalType": "bytes",
          "name": "configurationData",
          "type": "bytes"
        }
      ],
      "name": "deposit",
      "outputs": [],
      "stateMutability": "nonpayable",
      "type": "function"
    },
    {
      "inputs": [
        {
          "internalType": "contract ERC20",
          "name": "tokenToDeposit",
          "type": "address"
        },
        {
          "internalType": "uint256",
          "name": "amountToDeposit",
          "type": "uint256"
        },
        {
          "internalType": "uint256",
          "name": "maxIterations",
          "type": "uint256"
        }
      ],
      "name": "depositToAaveV3Morpho",
      "outputs": [],
      "stateMutability": "nonpayable",
      "type": "function"
    },
    {
      "inputs": [],
      "name": "identifier",
      "outputs": [
        {
          "internalType": "bytes32",
          "name": "",
          "type": "bytes32"
        }
      ],
      "stateMutability": "pure",
      "type": "function"
    },
    {
      "inputs": [],
      "name": "isDebt",
      "outputs": [
        {
          "internalType": "bool",
          "name": "",
          "type": "bool"
        }
      ],
      "stateMutability": "pure",
      "type": "function"
    },
    {
      "inputs": [],
      "name": "morpho",
      "outputs": [
        {
          "internalType": "contract IMorphoV3",
          "name": "",
          "type": "address"
        }
      ],
      "stateMutability": "view",
      "type": "function"
    },
    {
      "inputs": [],
      "name": "morphoRewardsDistributor",
      "outputs": [
        {
          "internalType": "contract RewardsDistributor",
          "name": "",
          "type": "address"
        }
      ],
      "stateMutability": "view",
      "type": "function"
    },
    {
      "inputs": [
        {
          "internalType": "contract ERC20",
          "name": "asset",
          "type": "address"
        },
        {
          "internalType": "address",
          "name": "spender",
          "type": "address"
        }
      ],
      "name": "revokeApproval",
      "outputs": [],
      "stateMutability": "nonpayable",
      "type": "function"
    },
    {
      "inputs": [],
      "name": "slippage",
      "outputs": [
        {
          "internalType": "uint32",
          "name": "",
          "type": "uint32"
        }
      ],
      "stateMutability": "pure",
      "type": "function"
    },
    {
      "inputs": [
        {
          "internalType": "uint256",
          "name": "assets",
          "type": "uint256"
        },
        {
          "internalType": "address",
          "name": "receiver",
          "type": "address"
        },
        {
          "internalType": "bytes",
          "name": "adaptorData",
          "type": "bytes"
        },
        {
          "internalType": "bytes",
          "name": "configurationData",
          "type": "bytes"
        }
      ],
      "name": "withdraw",
      "outputs": [],
      "stateMutability": "nonpayable",
      "type": "function"
    },
    {
      "inputs": [
        {
          "internalType": "contract ERC20",
          "name": "tokenToWithdraw",
          "type": "address"
        },
        {
          "internalType": "uint256",
          "name": "amountToWithdraw",
          "type": "uint256"
        },
        {
          "internalType": "uint256",
          "name": "maxIterations",
          "type": "uint256"
        }
      ],
      "name": "withdrawFromAaveV3Morpho",
      "outputs": [],
      "stateMutability": "nonpayable",
      "type": "function"
    },
    {
      "inputs": [
        {
          "internalType": "bytes",
          "name": "adaptorData",
          "type": "bytes"
        },
        {
          "internalType": "bytes",
          "name": "",
          "type": "bytes"
        }
      ],
      "name": "withdrawableFrom",
      "outputs": [
        {
          "internalType": "uint256",
          "name": "",
          "type": "uint256"
        }
      ],
      "stateMutability": "view",
      "type": "function"
    }
  ],
  "bytecode": {
    "object": "0x60c060405234801561001057600080fd5b5060405161116238038061116283398101604081905261002f91610062565b6001600160a01b039081166080521660a052610095565b80516001600160a01b038116811461005d57600080fd5b919050565b6000806040838503121561007557600080fd5b61007e83610046565b915061008c60208401610046565b90509250929050565b60805160a05161105b6101076000396000818161021f0152818161033d015281816103d70152818161045d015281816104d10152818161053b0152818161064e015281816106a60152818161071a0152818161081b015261090201526000818161013c015261027e015261105b6000f3fe608060405234801561001057600080fd5b50600436106100f55760003560e01c80637ca4c4b711610097578063d3bfe76a11610066578063d3bfe76a14610207578063d8fbc8331461021a578063e170a9bf14610241578063fa50e5d21461025457600080fd5b80637ca4c4b7146101b257806389353a09146101c5578063aeffddde146101d4578063c9111bd7146101f457600080fd5b80635b5d4d78116100d35780635b5d4d781461013757806369445c311461017657806378415365146101895780637998a1c4146101aa57600080fd5b80632f52ebb7146100fa57806335340a271461010f5780633e032a3b14610122575b600080fd5b61010d610108366004610be2565b610267565b005b61010d61011d366004610ca9565b6102ed565b60405161232881526020015b60405180910390f35b61015e7f000000000000000000000000000000000000000000000000000000000000000081565b6040516001600160a01b03909116815260200161012e565b61010d610184366004610d4e565b6103b0565b61019c610197366004610dbb565b6104fc565b60405190815260200161012e565b61019c6105af565b61010d6101c0366004610ca9565b61061d565b6040516000815260200161012e565b6101e76101e2366004610dbb565b610743565b60405161012e9190610df0565b61010d610202366004610e3d565b6107a6565b61010d610215366004610ebd565b610893565b61015e7f000000000000000000000000000000000000000000000000000000000000000081565b61015e61024f366004610dbb565b6108ac565b61019c610262366004610ef6565b6108c3565b604051630f44fe1d60e21b81526001600160a01b037f00000000000000000000000000000000000000000000000000000000000000001690633d13f874906102b790309086908690600401610f5a565b600060405180830381600087803b1580156102d157600080fd5b505af11580156102e5573d6000803e3d6000fd5b505050505050565b8015806102fa5750600a81115b15610303575060045b604051632a80f8e360e11b81526001600160a01b0384811660048301526024820184905230604483018190526064830152608482018390527f00000000000000000000000000000000000000000000000000000000000000001690635501f1c69060a4016020604051808303816000875af1158015610386573d6000803e3d6000fd5b505050506040513d601f19601f820116820180604052508101906103aa9190610fb7565b50505050565b6000828060200190518101906103c69190610fd0565b90506103fc6001600160a01b0382167f000000000000000000000000000000000000000000000000000000000000000086610979565b6000828060200190518101906104129190610fb7565b90508015806104215750600a81115b1561042a575060045b604051633a71cd6760e21b81526001600160a01b03838116600483015260248201879052306044830152606482018390527f0000000000000000000000000000000000000000000000000000000000000000169063e9c7359c906084016020604051808303816000875af11580156104a6573d6000803e3d6000fd5b505050506040513d601f19601f820116820180604052508101906104ca9190610fb7565b506104f5827f00000000000000000000000000000000000000000000000000000000000000006109f4565b5050505050565b600080828060200190518101906105139190610fd0565b6040516351e2e5b960e11b81526001600160a01b0380831660048301523360248301529192507f00000000000000000000000000000000000000000000000000000000000000009091169063a3c5cb7290604401602060405180830381865afa158015610584573d6000803e3d6000fd5b505050506040513d601f19601f820116820180604052508101906105a89190610fb7565b9392505050565b60006040516020016106029060208082526027908201527f4d6f7270686f20416176652056332061546f6b656e205032502041646170746f60408201526639102b1018971960c91b606082015260800190565b60405160208183030381529060405280519060200120905090565b80158061062a5750600a81115b15610633575060045b61063d8383610a83565b91506106736001600160a01b0384167f000000000000000000000000000000000000000000000000000000000000000084610979565b604051633a71cd6760e21b81526001600160a01b03848116600483015260248201849052306044830152606482018390527f0000000000000000000000000000000000000000000000000000000000000000169063e9c7359c906084016020604051808303816000875af11580156106ef573d6000803e3d6000fd5b505050506040513d601f19601f820116820180604052508101906107139190610fb7565b5061073e837f00000000000000000000000000000000000000000000000000000000000000006109f4565b505050565b6040805160018082528183019092526060916020808301908036833701905050905061076e826108ac565b8160008151811061078157610781610fed565b60200260200101906001600160a01b031690816001600160a01b031681525050919050565b6107af83610b04565b6000828060200190518101906107c59190610fd0565b90506000828060200190518101906107dd9190610fb7565b604051632a80f8e360e11b81526001600160a01b038481166004830152602482018990523060448301528781166064830152608482018390529192507f000000000000000000000000000000000000000000000000000000000000000090911690635501f1c69060a4016020604051808303816000875af1158015610866573d6000803e3d6000fd5b505050506040513d601f19601f8201168201806040525081019061088a9190610fb7565b50505050505050565b6108a86001600160a01b038316826000610979565b5050565b600080828060200190518101906105a89190610fd0565b600080838060200190518101906108da9190610fd0565b6040516351e2e5b960e11b81526001600160a01b0380831660048301523360248301529192507f00000000000000000000000000000000000000000000000000000000000000009091169063a3c5cb7290604401602060405180830381865afa15801561094b573d6000803e3d6000fd5b505050506040513d601f19601f8201168201806040525081019061096f9190610fb7565b9150505b92915050565b600060405163095ea7b360e01b8152836004820152826024820152602060006044836000895af13d15601f3d11600160005114161716915050806103aa5760405162461bcd60e51b815260206004820152600e60248201526d1054141493d59157d1905253115160921b604482015260640160405180910390fd5b604051636eb1769f60e11b81523060048201526001600160a01b0382811660248301526000919084169063dd62ed3e90604401602060405180830381865afa158015610a44573d6000803e3d6000fd5b505050506040513d601f19601f82011682018060405250810190610a689190610fb7565b11156108a8576108a86001600160a01b038316826000610979565b60006000198203610afd576040516370a0823160e01b81523060048201526001600160a01b038416906370a0823190602401602060405180830381865afa158015610ad2573d6000803e3d6000fd5b505050506040513d601f19601f82011682018060405250810190610af69190610fb7565b9050610973565b5080610973565b6001600160a01b0381163014801590610b7a5750306001600160a01b0316634c4602da6040518163ffffffff1660e01b8152600401602060405180830381865afa158015610b56573d6000803e3d6000fd5b505050506040513d601f19601f82011682018060405250810190610b7a9190611003565b15610b98576040516307de9b5160e21b815260040160405180910390fd5b50565b634e487b7160e01b600052604160045260246000fd5b604051601f8201601f1916810167ffffffffffffffff81118282101715610bda57610bda610b9b565b604052919050565b60008060408385031215610bf557600080fd5b8235915060208084013567ffffffffffffffff80821115610c1557600080fd5b818601915086601f830112610c2957600080fd5b813581811115610c3b57610c3b610b9b565b8060051b9150610c4c848301610bb1565b8181529183018401918481019089841115610c6657600080fd5b938501935b83851015610c8457843582529385019390850190610c6b565b8096505050505050509250929050565b6001600160a01b0381168114610b9857600080fd5b600080600060608486031215610cbe57600080fd5b8335610cc981610c94565b95602085013595506040909401359392505050565b600082601f830112610cef57600080fd5b813567ffffffffffffffff811115610d0957610d09610b9b565b610d1c601f8201601f1916602001610bb1565b818152846020838601011115610d3157600080fd5b816020850160208301376000918101602001919091529392505050565b600080600060608486031215610d6357600080fd5b83359250602084013567ffffffffffffffff80821115610d8257600080fd5b610d8e87838801610cde565b93506040860135915080821115610da457600080fd5b50610db186828701610cde565b9150509250925092565b600060208284031215610dcd57600080fd5b813567ffffffffffffffff811115610de457600080fd5b61096f84828501610cde565b6020808252825182820181905260009190848201906040850190845b81811015610e315783516001600160a01b031683529284019291840191600101610e0c565b50909695505050505050565b60008060008060808587031215610e5357600080fd5b843593506020850135610e6581610c94565b9250604085013567ffffffffffffffff80821115610e8257600080fd5b610e8e88838901610cde565b93506060870135915080821115610ea457600080fd5b50610eb187828801610cde565b91505092959194509250565b60008060408385031215610ed057600080fd5b8235610edb81610c94565b91506020830135610eeb81610c94565b809150509250929050565b60008060408385031215610f0957600080fd5b823567ffffffffffffffff80821115610f2157600080fd5b610f2d86838701610cde565b93506020850135915080821115610f4357600080fd5b50610f5085828601610cde565b9150509250929050565b6001600160a01b038416815260208082018490526060604083018190528351908301819052600091848101916080850190845b81811015610fa957845183529383019391830191600101610f8d565b509098975050505050505050565b600060208284031215610fc957600080fd5b5051919050565b600060208284031215610fe257600080fd5b81516105a881610c94565b634e487b7160e01b600052603260045260246000fd5b60006020828403121561101557600080fd5b815180151581146105a857600080fdfea264697066735822122035c4efd5c6303e30507a76738adbf547094bc900853feea9ef41338e39d574c564736f6c63430008100033",
    "linkReferences": {}
  },
  "methodIdentifiers": {
    "assetOf(bytes)": "e170a9bf",
    "assetsUsed(bytes)": "aeffddde",
    "balanceOf(bytes)": "78415365",
    "claim(uint256,bytes32[])": "2f52ebb7",
    "deposit(uint256,bytes,bytes)": "69445c31",
    "depositToAaveV3Morpho(address,uint256,uint256)": "7ca4c4b7",
    "identifier()": "7998a1c4",
    "isDebt()": "89353a09",
    "morpho()": "d8fbc833",
    "morphoRewardsDistributor()": "5b5d4d78",
    "revokeApproval(address,address)": "d3bfe76a",
    "slippage()": "3e032a3b",
    "withdraw(uint256,address,bytes,bytes)": "c9111bd7",
    "withdrawFromAaveV3Morpho(address,uint256,uint256)": "35340a27",
    "withdrawableFrom(bytes,bytes)": "fa50e5d2"
  },
  "id": 200
}