{
  "abi": [
    {
      "inputs": [],
      "name": "BaseAdaptor__ExternalReceiverBlocked",
      "type": "error"
    },
    {
      "inputs": [
        {
          "internalType": "address",
          "name": "asset",
          "type": "address"
        }
      ],
      "name": "BaseAdaptor__PricingNotSupported",
      "type": "error"
    },
    {
      "inputs": [],
      "name": "BaseAdaptor__Slippage",
      "type": "error"
    },
    {
      "inputs": [],
      "name": "BaseAdaptor__UserDepositsNotAllowed",
      "type": "error"
    },
    {
      "inputs": [],
      "name": "BaseAdaptor__UserWithdrawsNotAllowed",
      "type": "error"
    },
    {
      "inputs": [
        {
          "internalType": "bytes",
          "name": "",
          "type": "bytes"
        }
      ],
      "name": "assetOf",
      "outputs": [
        {
          "internalType": "contract ERC20",
          "name": "",
          "type": "address"
        }
      ],
      "stateMutability": "pure",
      "type": "function"
    },
    {
      "inputs": [
        {
          "internalType": "bytes",
          "name": "adaptorData",
          "type": "bytes"
        }
      ],
      "name": "assetsUsed",
      "outputs": [
        {
          "internalType": "contract ERC20[]",
          "name": "assets",
          "type": "address[]"
        }
      ],
      "stateMutability": "view",
      "type": "function"
    },
    {
      "inputs": [
        {
          "internalType": "bytes",
          "name": "",
          "type": "bytes"
        }
      ],
      "name": "balanceOf",
      "outputs": [
        {
          "internalType": "uint256",
          "name": "",
          "type": "uint256"
        }
      ],
      "stateMutability": "pure",
      "type": "function"
    },
    {
      "inputs": [
        {
          "internalType": "uint256",
          "name": "",
          "type": "uint256"
        },
        {
          "internalType": "bytes",
          "name": "",
          "type": "bytes"
        },
        {
          "internalType": "bytes",
          "name": "",
          "type": "bytes"
        }
      ],
      "name": "deposit",
      "outputs": [],
      "stateMutability": "pure",
      "type": "function"
    },
    {
      "inputs": [],
      "name": "identifier",
      "outputs": [
        {
          "internalType": "bytes32",
          "name": "",
          "type": "bytes32"
        }
      ],
      "stateMutability": "pure",
      "type": "function"
    },
    {
      "inputs": [],
      "name": "isDebt",
      "outputs": [
        {
          "internalType": "bool",
          "name": "",
          "type": "bool"
        }
      ],
      "stateMutability": "pure",
      "type": "function"
    },
    {
      "inputs": [
        {
          "internalType": "contract ERC20",
          "name": "asset",
          "type": "address"
        },
        {
          "internalType": "address",
          "name": "spender",
          "type": "address"
        }
      ],
      "name": "revokeApproval",
      "outputs": [],
      "stateMutability": "nonpayable",
      "type": "function"
    },
    {
      "inputs": [],
      "name": "slippage",
      "outputs": [
        {
          "internalType": "uint32",
          "name": "",
          "type": "uint32"
        }
      ],
      "stateMutability": "pure",
      "type": "function"
    },
    {
      "inputs": [
        {
          "internalType": "address[]",
          "name": "path",
          "type": "address[]"
        },
        {
          "internalType": "uint256",
          "name": "amount",
          "type": "uint256"
        },
        {
          "internalType": "uint256",
          "name": "amountOutMin",
          "type": "uint256"
        }
      ],
      "name": "swapWithUniV2",
      "outputs": [],
      "stateMutability": "nonpayable",
      "type": "function"
    },
    {
      "inputs": [
        {
          "internalType": "address[]",
          "name": "path",
          "type": "address[]"
        },
        {
          "internalType": "uint24[]",
          "name": "poolFees",
          "type": "uint24[]"
        },
        {
          "internalType": "uint256",
          "name": "amount",
          "type": "uint256"
        },
        {
          "internalType": "uint256",
          "name": "amountOutMin",
          "type": "uint256"
        }
      ],
      "name": "swapWithUniV3",
      "outputs": [],
      "stateMutability": "nonpayable",
      "type": "function"
    },
    {
      "inputs": [],
      "name": "uniswapV2Router",
      "outputs": [
        {
          "internalType": "contract IUniswapV2Router02",
          "name": "",
          "type": "address"
        }
      ],
      "stateMutability": "pure",
      "type": "function"
    },
    {
      "inputs": [],
      "name": "uniswapV3Router",
      "outputs": [
        {
          "internalType": "contract IUniswapV3Router",
          "name": "",
          "type": "address"
        }
      ],
      "stateMutability": "pure",
      "type": "function"
    },
    {
      "inputs": [
        {
          "internalType": "uint256",
          "name": "",
          "type": "uint256"
        },
        {
          "internalType": "address",
          "name": "",
          "type": "address"
        },
        {
          "internalType": "bytes",
          "name": "",
          "type": "bytes"
        },
        {
          "internalType": "bytes",
          "name": "",
          "type": "bytes"
        }
      ],
      "name": "withdraw",
      "outputs": [],
      "stateMutability": "pure",
      "type": "function"
    },
    {
      "inputs": [
        {
          "internalType": "bytes",
          "name": "",
          "type": "bytes"
        },
        {
          "internalType": "bytes",
          "name": "",
          "type": "bytes"
        }
      ],
      "name": "withdrawableFrom",
      "outputs": [
        {
          "internalType": "uint256",
          "name": "",
          "type": "uint256"
        }
      ],
      "stateMutability": "pure",
      "type": "function"
    }
  ],
  "bytecode": {
    "object": "0x608060405234801561001057600080fd5b5061174b806100206000396000f3fe608060405234801561001057600080fd5b50600436106100ea5760003560e01c806389353a091161008c578063c9111bd711610066578063c9111bd7146101e0578063d3bfe76a146101f3578063e170a9bf14610206578063fa50e5d21461021457600080fd5b806389353a091461019e578063aeffddde146101ad578063c4547a73146101cd57600080fd5b80633e032a3b116100c85780633e032a3b1461015157806369445c311461016157806378415365146101745780637998a1c41461019657600080fd5b80631694505e146100ef5780631732c1dc146101225780632c76d7a614610137575b600080fd5b737a250d5630b4cf539739df2c5dacb4c659f2488d5b6040516001600160a01b0390911681526020015b60405180910390f35b6101356101303660046110bd565b610227565b005b73e592427a0aece92de3edee1f18e0157c05861564610105565b6040516123288152602001610119565b61013561016f36600461117b565b61073b565b6101886101823660046111e8565b50600090565b604051908152602001610119565b610188610754565b60405160008152602001610119565b6101c06101bb3660046111e8565b6107b2565b6040516101199190611225565b6101356101db366004611272565b61080e565b6101356101ee36600461134d565b610ddf565b6101356102013660046113cd565b610df8565b6101056101823660046111e8565b610188610222366004611406565b610e11565b6000306001600160a01b031663d7d4bf456040518163ffffffff1660e01b8152600401602060405180830381865afa158015610267573d6000803e3d6000fd5b505050506040513d601f19601f8201168201806040525081019061028b919061146a565b90506000846000815181106102a2576102a261148e565b60200260200101519050600085600187516102bd91906114ba565b815181106102cd576102cd61148e565b602002602001015190506102e18286610e1a565b945061030d737a250d5630b4cf539739df2c5dacb4c659f2488d5b6001600160a01b0384169087610e9b565b604051634f129c5360e01b81526001600160a01b038381166004830152841690634f129c5390602401602060405180830381865afa158015610353573d6000803e3d6000fd5b505050506040513d601f19601f8201168201806040525081019061037791906114cd565b1561068357604051634f129c5360e01b81526001600160a01b038281166004830152841690634f129c5390602401602060405180830381865afa1580156103c2573d6000803e3d6000fd5b505050506040513d601f19601f820116820180604052508101906103e691906114cd565b61041357604051637ab2384960e01b81526001600160a01b03821660048201526024015b60405180910390fd5b6040516370a0823160e01b81523060048201526000906001600160a01b038416906370a0823190602401602060405180830381865afa15801561045a573d6000803e3d6000fd5b505050506040513d601f19601f8201168201806040525081019061047e91906114ef565b90506000737a250d5630b4cf539739df2c5dacb4c659f2488d6338ed173988888b306104ab42603c611508565b6040518663ffffffff1660e01b81526004016104cb95949392919061151b565b6000604051808303816000875af11580156104ea573d6000803e3d6000fd5b505050506040513d6000823e601f3d908101601f19168201604052610512919081019061158c565b90506000816001835161052591906114ba565b815181106105355761053561148e565b60209081029190910101516040516370a0823160e01b81523060048201529091506000906001600160a01b038716906370a0823190602401602060405180830381865afa15801561058a573d6000803e3d6000fd5b505050506040513d601f19601f820116820180604052508101906105ae91906114ef565b6105b890856114ba565b60405163151d4a5960e31b81526001600160a01b03878116600483015260248201859052888116604483015291925060009189169063a8ea52c890606401602060405180830381865afa158015610613573d6000803e3d6000fd5b505050506040513d601f19601f8201168201806040525081019061063791906114ef565b90506106596123285b63ffffffff1661271084610f189092919063ffffffff16565b81101561067957604051631ea0eb0160e21b815260040160405180910390fd5b5050505050610715565b737a250d5630b4cf539739df2c5dacb4c659f2488d6338ed1739868689306106ac42603c611508565b6040518663ffffffff1660e01b81526004016106cc95949392919061151b565b6000604051808303816000875af11580156106eb573d6000803e3d6000fd5b505050506040513d6000823e601f3d908101601f19168201604052610713919081019061158c565b505b61073382737a250d5630b4cf539739df2c5dacb4c659f2488d610f37565b505050505050565b604051633204ed5b60e21b815260040160405180910390fd5b6000604051602001610797906020808252601f908201527f53776170205769746820556e69737761702041646170746f72205620302e3000604082015260600190565b60405160208183030381529060405280519060200120905090565b604080516001808252818301909252606091602080830190803683370190505090506000816000815181106107e9576107e961148e565b60200260200101906001600160a01b031690816001600160a01b031681525050919050565b6000306001600160a01b031663d7d4bf456040518163ffffffff1660e01b8152600401602060405180830381865afa15801561084e573d6000803e3d6000fd5b505050506040513d601f19601f82011682018060405250810190610872919061146a565b90506000856000815181106108895761088961148e565b60200260200101519050600086600188516108a491906114ba565b815181106108b4576108b461148e565b602002602001015190506108c88286610e1a565b94506108e773e592427a0aece92de3edee1f18e0157c058615646102fc565b6000876000815181106108fc576108fc61148e565b602002602001015160405160200161092c919060609190911b6bffffffffffffffffffffffff1916815260140190565b60408051601f19818403018152919052905060015b88518110156109bf5781886109576001846114ba565b815181106109675761096761148e565b60200260200101518a83815181106109815761098161148e565b602002602001015160405160200161099b93929190611641565b604051602081830303815290604052915080806109b79061168d565b915050610941565b50604051634f129c5360e01b81526001600160a01b038481166004830152851690634f129c5390602401602060405180830381865afa158015610a06573d6000803e3d6000fd5b505050506040513d601f19601f82011682018060405250810190610a2a91906114cd565b15610d0a57604051634f129c5360e01b81526001600160a01b038381166004830152851690634f129c5390602401602060405180830381865afa158015610a75573d6000803e3d6000fd5b505050506040513d601f19601f82011682018060405250810190610a9991906114cd565b610ac157604051637ab2384960e01b81526001600160a01b038316600482015260240161040a565b6040516370a0823160e01b81523060048201526000906001600160a01b038516906370a0823190602401602060405180830381865afa158015610b08573d6000803e3d6000fd5b505050506040513d601f19601f82011682018060405250810190610b2c91906114ef565b6040805160a08101825284815230602082015291925060009173e592427a0aece92de3edee1f18e0157c058615649163c04b8d5991908101610b6f42603c611508565b81526020018b81526020018a8152506040518263ffffffff1660e01b8152600401610b9a91906116a6565b6020604051808303816000875af1158015610bb9573d6000803e3d6000fd5b505050506040513d601f19601f82011682018060405250810190610bdd91906114ef565b6040516370a0823160e01b81523060048201529091506000906001600160a01b038716906370a0823190602401602060405180830381865afa158015610c27573d6000803e3d6000fd5b505050506040513d601f19601f82011682018060405250810190610c4b91906114ef565b610c5590846114ba565b60405163151d4a5960e31b81526001600160a01b03878116600483015260248201859052888116604483015291925060009189169063a8ea52c890606401602060405180830381865afa158015610cb0573d6000803e3d6000fd5b505050506040513d601f19601f82011682018060405250810190610cd491906114ef565b9050610ce1612328610640565b811015610d0157604051631ea0eb0160e21b815260040160405180910390fd5b50505050610db7565b6040805160a08101825282815230602082015273e592427a0aece92de3edee1f18e0157c058615649163c04b8d5991908101610d4742603c611508565b8152602001898152602001888152506040518263ffffffff1660e01b8152600401610d7291906116a6565b6020604051808303816000875af1158015610d91573d6000803e3d6000fd5b505050506040513d601f19601f82011682018060405250810190610db591906114ef565b505b610dd58373e592427a0aece92de3edee1f18e0157c05861564610f37565b5050505050505050565b604051635f5003c560e11b815260040160405180910390fd5b610e0d6001600160a01b038316826000610e9b565b5050565b60005b92915050565b60006000198203610e94576040516370a0823160e01b81523060048201526001600160a01b038416906370a0823190602401602060405180830381865afa158015610e69573d6000803e3d6000fd5b505050506040513d601f19601f82011682018060405250810190610e8d91906114ef565b9050610e14565b5080610e14565b600060405163095ea7b360e01b8152836004820152826024820152602060006044836000895af13d15601f3d1160016000511416171691505080610f125760405162461bcd60e51b815260206004820152600e60248201526d1054141493d59157d1905253115160921b604482015260640161040a565b50505050565b828202811515841585830485141716610f3057600080fd5b0492915050565b604051636eb1769f60e11b81523060048201526001600160a01b0382811660248301526000919084169063dd62ed3e90604401602060405180830381865afa158015610f87573d6000803e3d6000fd5b505050506040513d601f19601f82011682018060405250810190610fab91906114ef565b1115610e0d57610e0d6001600160a01b038316826000610e9b565b634e487b7160e01b600052604160045260246000fd5b604051601f8201601f1916810167ffffffffffffffff8111828210171561100557611005610fc6565b604052919050565b600067ffffffffffffffff82111561102757611027610fc6565b5060051b60200190565b6001600160a01b038116811461104657600080fd5b50565b600082601f83011261105a57600080fd5b8135602061106f61106a8361100d565b610fdc565b82815260059290921b8401810191818101908684111561108e57600080fd5b8286015b848110156110b25780356110a581611031565b8352918301918301611092565b509695505050505050565b6000806000606084860312156110d257600080fd5b833567ffffffffffffffff8111156110e957600080fd5b6110f586828701611049565b9660208601359650604090950135949350505050565b600082601f83011261111c57600080fd5b813567ffffffffffffffff81111561113657611136610fc6565b611149601f8201601f1916602001610fdc565b81815284602083860101111561115e57600080fd5b816020850160208301376000918101602001919091529392505050565b60008060006060848603121561119057600080fd5b83359250602084013567ffffffffffffffff808211156111af57600080fd5b6111bb8783880161110b565b935060408601359150808211156111d157600080fd5b506111de8682870161110b565b9150509250925092565b6000602082840312156111fa57600080fd5b813567ffffffffffffffff81111561121157600080fd5b61121d8482850161110b565b949350505050565b6020808252825182820181905260009190848201906040850190845b818110156112665783516001600160a01b031683529284019291840191600101611241565b50909695505050505050565b6000806000806080858703121561128857600080fd5b843567ffffffffffffffff808211156112a057600080fd5b6112ac88838901611049565b95506020915081870135818111156112c357600080fd5b87019050601f810188136112d657600080fd5b80356112e461106a8261100d565b81815260059190911b8201830190838101908a83111561130357600080fd5b928401925b8284101561133357833562ffffff811681146113245760008081fd5b82529284019290840190611308565b979a97995050505060408601359560600135949350505050565b6000806000806080858703121561136357600080fd5b84359350602085013561137581611031565b9250604085013567ffffffffffffffff8082111561139257600080fd5b61139e8883890161110b565b935060608701359150808211156113b457600080fd5b506113c18782880161110b565b91505092959194509250565b600080604083850312156113e057600080fd5b82356113eb81611031565b915060208301356113fb81611031565b809150509250929050565b6000806040838503121561141957600080fd5b823567ffffffffffffffff8082111561143157600080fd5b61143d8683870161110b565b9350602085013591508082111561145357600080fd5b506114608582860161110b565b9150509250929050565b60006020828403121561147c57600080fd5b815161148781611031565b9392505050565b634e487b7160e01b600052603260045260246000fd5b634e487b7160e01b600052601160045260246000fd5b81810381811115610e1457610e146114a4565b6000602082840312156114df57600080fd5b8151801515811461148757600080fd5b60006020828403121561150157600080fd5b5051919050565b80820180821115610e1457610e146114a4565b600060a082018783526020878185015260a0604085015281875180845260c086019150828901935060005b8181101561156b5784516001600160a01b031683529383019391830191600101611546565b50506001600160a01b03969096166060850152505050608001529392505050565b6000602080838503121561159f57600080fd5b825167ffffffffffffffff8111156115b657600080fd5b8301601f810185136115c757600080fd5b80516115d561106a8261100d565b81815260059190911b820183019083810190878311156115f457600080fd5b928401925b82841015611612578351825292840192908401906115f9565b979650505050505050565b60005b83811015611638578181015183820152602001611620565b50506000910152565b6000845161165381846020890161161d565b60e89490941b6001600160e81b0319169190930190815260609190911b6bffffffffffffffffffffffff1916600382015260170192915050565b60006001820161169f5761169f6114a4565b5060010190565b602081526000825160a0602084015280518060c08501526116ce8160e086016020850161161d565b60018060a01b0360208601511660408501526040850151606085015260608501516080850152608085015160a085015260e0601f19601f830116850101925050509291505056fea2646970667358221220788ee9cfb5187f9fbd38c618882cc92674999d439097cb563962fdeee92377d264736f6c63430008100033",
    "linkReferences": {}
  },
  "methodIdentifiers": {
    "assetOf(bytes)": "e170a9bf",
    "assetsUsed(bytes)": "aeffddde",
    "balanceOf(bytes)": "78415365",
    "deposit(uint256,bytes,bytes)": "69445c31",
    "identifier()": "7998a1c4",
    "isDebt()": "89353a09",
    "revokeApproval(address,address)": "d3bfe76a",
    "slippage()": "3e032a3b",
    "swapWithUniV2(address[],uint256,uint256)": "1732c1dc",
    "swapWithUniV3(address[],uint24[],uint256,uint256)": "c4547a73",
    "uniswapV2Router()": "1694505e",
    "uniswapV3Router()": "2c76d7a6",
    "withdraw(uint256,address,bytes,bytes)": "c9111bd7",
    "withdrawableFrom(bytes,bytes)": "fa50e5d2"
  },
  "id": 88
}